:020000040000FA
:0600000023EF21F01200C5
:020006000400F4
:060008004CEF13F01200A2
:02000E001200DE
:03001000FF0000EE
:020013000000EB
:020015000219CE
:060018004CEF13F0120092
:02001E0030317F
:0E002000323334353637383941424344454691
:02002E000001CF
:0E00300002030405060708090A0B0C0D0E0F4B
:02003E000400BC
:1000400015000000B60200000200000013000000CE
:10005000B40200000200000010000000AF02000027
:100060000300000060420000DC0100000D00000001
:1000700000001200A5EC0DF049E800EBE6FFD6CF3A
:10008000E6FFB3EC1EF041E9E750026E025021E0BA
:10009000020619EC0BF0036EF451046EF551056E77
:1000A000F651066E19EC0BF0076EF451086EF5511F
:1000B000096EF6510A6E7CEC0CF0D950030F35EC4A
:1000C0000BF0D8803E0EF355000EAEEC0DF0EAE2D8
:1000D000DDD74AE9E7CFD9FF120067EC0BF081E9E1
:1000E00055E8AAEC0FF0000901E103D302015FB566
:1000F00055D3016B7C51040B01E0010E030BF36E31
:10010000FC0E0115F310016F7C510197080B01E003
:1001100001877C51030B010802E1010E01D0000EA2
:10012000019BE8B0018B7C51019D800B01E0018DAA
:100130007CAF08D08451019FE8B0018F7DC204F2EA
:100140007EC205F285C202F286C203F283C20AF2BF
:1001500082C209F25F957C51030B010A01E12ED2A4
:10016000020A01E17ED1030A01E0BED2016A040E57
:10017000015C0AE29AEC0DF0EF50000803E29AEC01
:100180000DF0EF06012AF3D70201815162E00A0E59
:10019000815D01E2A9D2020E2DEC0BF00A6E030E76
:1001A0002DEC0BF00B6E040E2DEC0BF0106E050E0B
:1001B0002DEC0BF0116E060E2DEC0BF00C6E070EF5
:1001C0002DEC0BF00D6E080E2DEC0BF00E6E090EE3
:1001D0002DEC0BF00F6E016B7C510197080B01E0C9
:1001E00001870151030B000904E1101C58E1111CA7
:1001F00056E15A510E180AE15B510F1807E15C51A4
:100200000C1804E15D510D1801E16ED2016A040E73
:10021000015C1BE29AEC0DF0EF5015E054EC0BF092
:100220000E50EE1810E10F50ED180DE154EC0BF0EC
:1002300038EC0DF0EFCFF3F10A0E02012DEC0BF0CC
:100240000101F35D02E0012AE2D7040E015C03E242
:1002500002015F9D49D2016A040E015C06E29AEC3C
:100260000DF0EF5002E0012AF7D7040E015C13E213
:1002700054EC0BF00EEBEEFF0FEBEDFF0A0EB7ECBC
:100280000DF054EC0BF0020EE92690EC0CF09AEC19
:100290000DF0030EEF6E02010181019334D05C5129
:1002A0000A1801E021D25D510B1801E01DD25A510C
:1002B000101801E019D25B51111801E015D2010E9E
:1002C0002DEC0BF0040B1FE093EC0CF00CEB02F0A8
:1002D0000DEB03F00EEB04F00FEB05F041EC0DF02D
:1002E0000A0E02012BEC0DF0EFCF0AF000010B6BB0
:1002F000300E0C6F02010D0E596F756B758BABECE8
:100300000DF0020101850B0E2DEC0BF001E07ED00B
:100310000C0E2DEC0BF0300867E00C0E2DEC0BF002
:10032000420A60E0530A01E0DFD1126A080E125C53
:100330000AE20D0E12242DEC0BF0E66E1250E7ECE3
:100340000BF0122AF3D78D0E586F150E2DEC0BF013
:10035000800B01E05891150E2BEC0DF0EFCF54F20D
:10036000160E2BEC0DF0EFCF55F25CC256F25DC2CB
:1003700057F291DB0201656FFF0E655D08E0655184
:10038000F0EC0DF0EFCF58F25885588704D08D0E61
:10039000586F54BF5891D3DB0201656FFF0E655D46
:1003A0001EE2126A010E125C0CE2170E1224B7EC68
:1003B0000DF0655151EC0DF012504FEC0DF0122A7A
:1003C000F1D70E0EE66EE66A0201655100EC0CF004
:1003D00002016551F1EC0BF00201648101D06491DE
:1003E000649382D15F9F80D10A0E2DEC0BF0010146
:1003F000E75D01E079D1020161510E1801E074D18D
:1004000062510F1801E070D15F976ED15F9D0B0EA6
:10041000815D086F0B0E7F25066F000E8021076F30
:100420000CEB02F20DEB03F2080E2DEC0BF0FF08C3
:100430000AE1090E2DEC0BF0FF0805E17DC204F284
:100440007EC205F207D0018F080E7F25046F000ED3
:100450008021056F018D0851000801E345D15F85BA
:1004600043D1136A040E13242DEC0BF04D0807E062
:10047000040E13242DEC0BF05D0801E035D15FA9CB
:100480000AD0A8EC20F0FBC1A7F2FCC1A8F2FDC184
:10049000A9F2FEC1AAF202015FA126D185C256F2DD
:1004A00086C257F20FEC0CF013502DEC0BF0FF0846
:1004B00001E01AD113282DEC0BF0146E040E0B5D25
:1004C00001E312D11EEC0CF0E2EC0CF001E20CD1D5
:1004D000FAEC0DF0E4C1EFFFFAEC0DF00B0EF6ECC8
:1004E0000DF009C2EFFFFAEC0DF051EC0BF00AC26F
:1004F000EFFFFAEC0DF0090EF6EC0DF056C2EEFF30
:1005000057C2EDFF11EC0DF0EF6A11EC0DF0EF8C1E
:100510001EEC0CF0060BE8420101F36F020111EC36
:100520000DF00101F351030BF36EFC0EEF14F31009
:10053000EF6E1EEC0CF0080B04E0020111EC0DF064
:10054000EF861EEC0CF0E2EC0CF004E3020111EC7F
:100550000DF0EF8A04C2E9FF05C2EAFFEF50E66E34
:100560000201FAEC0DF0EE52E552E750EF6E010E8B
:10057000EA6A0425E96E0551EA22EF50E66EFAECCC
:100580000DF0EE52E92A90EC0CF011EC0DF0EF8E2C
:10059000016A010E015C0FE2070E13240124B7EC7F
:1005A0000DF0FAEC0DF00E0E6CEC0BF001504FEC70
:1005B0000DF0012AEED702010B2B96D07FC2E9FF86
:1005C00080C2EAFFEF50030A63E0010A01E08CD029
:1005D000030E2DEC0BF050E1010E2BEC0DF0EFCFE4
:1005E0005AF2020E2BEC0DF0EFCF5BF272EC0BF037
:1005F00002015F83BF0E586F016A080E015C03E2BF
:1006000062EC0DF0FAD75A5103E1546B556B03D0ED
:100610005BC255F2546B5CC256F25DC257F28FDA80
:1006200002015E6F5E51B6EC0BF0016A010E015CD7
:100630000CE2040E0124B7EC0DF05E5151EC0DF00C
:1006400001504FEC0DF0012AF1D765EC0BF055ECA1
:100650000DF063EC0BF00E0EE66EE66A02015E51E1
:1006600000EC0CF002015E51F1EC0BF0390EE66E7D
:100670003A0EA5EC0BF038D05E695C695D6925EC3B
:100680000CF063EC0BF065EC0BF055EC0DF02CD09E
:10069000845108E00FEC0CF0FED9156EFF0E155CCE
:1006A0000DE122D0016A080E015C03E262EC0DF05C
:1006B000FAD716DA156EFF0E155C16E015500BEC26
:1006C0000DF0200B11E0016A0A0E015C05E20150F9
:1006D00058EC0DF0012AF8D790EC0DF063EC0BF01C
:1006E00055EC0DF065EC0BF002015FB502D0E0ECCB
:1006F00010F019EC0BF0026EF451036EF551046E1C
:10070000F651056E02015FA323D05FAD21D0D95011
:10071000020FE96EDACFEAFF4851EE5C0101F36F98
:1007200002014951EE580101F46F02014A51EE589D
:100730000101F56F02014B513EEC0CF0FF083F0E3A
:100740000754000E0854000E095402E202015F9D96
:10075000020164A323D064B121D0D950020FE96E05
:10076000DACFEAFF7151EE5C0101F36F02017251C1
:10077000EE580101F46F02017351EE580101F56F5B
:10078000020174513EEC0CF06C08DC0E0754020EB2
:100790000854000E095402E20201649356E9E7CFBF
:1007A000D9FF120067EC0BF087E90201756B01506D
:1007B000030BF36EFC0E7515F310756F02500310EA
:1007C00001E175857551040B02E0000E01D0010EA8
:1007D000759BE8B0758B758F02EB76F203EB77F2C1
:1007E000080E0014000803E2010E786F01D0786B48
:1007F000040E0014000803E2010E796F01D0796B3A
:1008000004EBE9FF05EBEAFFEFCF7AF20428E96E8B
:10081000000E0520EA6EEFCF7BF295EC0BF0C3ECF7
:100820000DF06EEF0CF0BBEC0DF0016A0A0E015CEE
:1008300008E20150FDEC0DF002E1015003D0012A65
:10084000F5D7FF0E56EF0CF0A5EC0DF042E8FF0EC9
:10085000005C28E1290EE66E3A0EA5EC0BF0026A68
:10086000080E025C0CE2070ED8800254EA6ADC0F24
:10087000E96E010EEA2291EC0BF0022AF1D71A0E72
:10088000E66E3A0EA5EC0BF060EC0CF0100EE66E86
:100890003A0EA5EC0BF067EC0CF0040EE66E3A0E87
:1008A000E7EC0DF0BC0EE66E390EA5EC0BF0FF0E7A
:1008B000005C61E1026A0A0E025C01E3B2D0025000
:1008C000FDEC0DF056E002EBE6FFBFEC0DF00EEC98
:1008D0000DF00EEC0DF01BEC0EF0010B02E0590ECA
:1008E00001D04E0EF3EC0DF002500BEC0DF0020BAC
:1008F00002E0590E01D04E0EF3EC0DF002500BEC5D
:100900000DF0080B13E002508BEC0DF091EC0BF0A6
:1009100002501FEC0EF002509DEC0DF091EC0BF02C
:10092000025012EC0BF085EC0CF002D04BEC0EF008
:1009300041E91BEC0EF0040B08E0036A080E035CAF
:1009400004E202505BEC0DF0F9D758EC0EF0036AAC
:10095000D89003E3D5EC0DF0FBD7036A010E035CDE
:1009600006E2025051EC0DF0DBEC0DF0F7D7DDECB8
:100970000DF0022AA0D70050FDEC0DF052E000EB84
:10098000E6FFBFEC0DF00EEC0DF0200E51EC0EF07A
:10099000010B02E0590E01D04E0E51EC0EF0020B8D
:1009A00002E0590E01D04E0E51EC0EF0080B13E090
:1009B00000508BEC0DF091EC0BF000501FEC0EF0A2
:1009C00000509DEC0DF091EC0BF0005012EC0BF090
:1009D00085EC0CF002D04BEC0EF041E958EC0EF037
:1009E00000500BEC0DF0040B08E0036A080E035CEA
:1009F00004E200505BEC0DF0F9D758EC0EF0036AFE
:100A0000D89003E3D5EC0DF0FBD7036A010E035C2D
:100A100006E2005051EC0DF0DBEC0DF0F7D7DDEC09
:100A20000DF002EF0DF0BBEC0DF002016491A8ECAB
:100A300020F0FBC171F2FCC172F2FDC173F2FEC184
:100A400074F20201546B556BCBEC0DF0100EEF6E8F
:100A5000016A080E015C09E20150EA6ADC0FE96EE6
:100A6000010E4AEC0DF0012AF4D7016A010E015C77
:100A700005E2015023EC0EF0012AF8D7E66AE66A97
:100A8000540EE66E020EE66E5FEC09F044E90201D8
:100A9000648356EF0CF0BBEC0DF0016A0A0E015CAA
:100AA0001CE20150FDEC0DF016E001500BEC0DF0D6
:100AB000080B11E055EC0EF0020EB0EC0CF0020148
:100AC00054510101F31907E1020155510101F419D3
:100AD00002E1015003D0012AE1D7FF0E56EF0CF0DE
:100AE00067EC0BF081E942E8016A0A0E015C24E23E
:100AF0000150FDEC0DF01EE001500BEC0DF0040B6D
:100B000019E0026A080E025C13E2D1EC0DF0EACFA4
:100B1000F5F102500101EA6AE924E96EF551EA2291
:100B2000EFCFF3F1B6EC0CF0F35D04E1022AEAD763
:100B3000015003D0012AD9D7FF0E02EF0DF067EC68
:100B40000BF081E942E80168020158A502D0C8DF34
:100B500003D058A702D09FDF016EFF0E015C02E1B7
:100B600062DE016EFF0E015C2CE00150F0EC0DF036
:100B700058C2EFFF020158A510D0026A080E025CAD
:100B80000CE2B6EC0CF0E66ED1EC0DF0EACFF4F12D
:100B900002504FEC0DF0022AF1D7020158A708D0FD
:100BA00055EC0EF038EC0DF054C2EEFF55C2EDFFDF
:100BB00055EC0EF056C2EEFF57C2EDFF0150B6ECF9
:100BC0000BF0015002EF0DF067EC0BF085E941E806
:100BD000056A080E055C14E2055002249FEC0CF037
:100BE000EFCFF3F105500024E96E000E0120EA6E0C
:100BF000EF500101F35D02E0000E03D0052AE9D7B2
:100C0000010E56EF0CF0BBEC0DF002015951016ED4
:100C1000596B49EC0BF0040EEF6E0C0EE66E010EF4
:100C2000E66E020EE66E030EE66E000EE66E030E34
:100C3000E66EB8DD46E9000910E002015F8DA8EC20
:100C400020F0FBC148F2FCC149F2FDC14AF2FEC1ED
:100C50004BF201EB59F2010E03D001EB59F2000EF9
:100C600056EF0CF0A5EC0DF044E853EC1EF0020139
:100C70005A695B69340E5C6F120E5D6F056A0A0E6D
:100C8000055C05E2055058EC0DF0052AF8D7020185
:100C90005F6B606B646B006B9EEC20F00201596B24
:100CA000056A040E055C08E2055010EC0EF053ECEA
:100CB0000CF0EF6A052AF5D7056A0A0E055C05E215
:100CC0000550B6EC0BF0052AF8D7005041E0CFEC08
:100CD0000BF0A9EC0CF0200E0101E45D09E257ECE9
:100CE0000BF0A9EC0CF002015A1D04E15B1D02E1BE
:100CF000000E64D082EC0DF0A9EC0CF0DBEC0BF0F4
:100D0000A9EC0CF0C1EC0BF0AAEC0BF0A9EC0CF088
:100D100057EC0BF0A9EC0CF076EC0DF0A9EC0CF014
:100D2000B00EE66E390EE7EC0DF0A80EE66E390E49
:100D3000A5EC0BF067EC0CF09D0EE66E390EA5EC01
:100D40000BF060EC0CF072EC0BF002015F8310D042
:100D500065EC0BF0CFEC0BF017EC0EF0DBEC0BF0CE
:100D600017EC0EF0B4EC0DF055EC0DF063EC0BF05D
:100D7000026A02960298029A028C02820050029441
:100D8000E8B00284DC0E036E010E046E02EBE6FF97
:100D900003EBE6FF04EBE6FF10EC13F043E972EC23
:100DA0000BF0E4C1E6FFDEEC0CF002010087C1ECC1
:100DB0000BF0D6CF63F2F292F288010E45E9E7CF4D
:100DC000D9FF1200A5EC0DF041E80050020A19E02D
:100DD000030A10E0010A2AE102015FA904D0B4EC81
:100DE0000DF002015F99E66A06EC0DF00EE00201DB
:100DF00060811AD0E66806EC0DF007E00201609110
:100E000013D0E66806EC0DF002E1010E10D00201ED
:100E10006091F9DE000902E1020E09D002015FAD26
:100E200003D06DEC00F0FAD7000E01D0FF0E56EFA4
:100E30000CF0A5EC0DF0E66A00EBE6FF8CEC12F08E
:100E400042E9000908E000EBE4F1CFEC0BF017EC0D
:100E50000EF0010E01D0000E6EEF0CF0A5EC0DF0BF
:100E60000050030809E300EBE5F1C1EC0BF0DBEC0B
:100E70000BF003EC1EF046E96EEF0CF067EC0BF0A4
:100E800086E94EE8010E076E086A096A0A6A0101DE
:100E9000E4510B6E066A040E065C05E20650D6DBD2
:100EA000EF68062AF8D702010B6B5F81066A200EF5
:100EB000065C65E2E9EC0CF00101F36BF80EF41747
:100EC000070EF6177CEC0CF006501F0B04E0010136
:100ED000F0EC0CF0FDE130EC0CF04FE08D0EE66E26
:100EE000390EA5EC0BF006EBE6FF69EC1FF041E9CB
:100EF00006EBE6FFDEEC0CF0EAEC0DF0070EEF6E11
:100F0000C8DBE4C1EFFF56695769E66A010EE66E79
:100F1000000EE66EE66A560EE66E020EE66E42DCE5
:100F200046E987DBBEEC0CF0ADEC0CF001E044D9F7
:100F300080DBC6EC0CF010EBF7F111EBF8F112EBE3
:100F4000F9F113EBFAF1D9500C0F8FDB0450040DBB
:100F5000F3CFF6FFF4CFF7FFB80EF626410EF722D7
:100F6000F3510900F55CF4510900F558F5510900F9
:100F7000F558F6510900F558D7E2062A98D70BEB39
:100F8000E6FFDEEC0CF002015F910B514FE9E7CF79
:100F9000D9FF12009CDB83E94AE8030E036E0004CC
:100FA0001CE147DBCEEC0CF03EDD020164A311D066
:100FB000ADEC0CF001E000D91DEC0DF0F6E223DE03
:100FC00089EB05F08AEB06F08BEB07F08CEB08F071
:100FD000ECD764A1E0D06551E3D0005001E0DFD050
:100FE000FF0E015C24E10101010EF36FF46BF56B60
:100FF000F66B0101E4511F0B08E00101D890F337B3
:10100000F437F537F637E806F9E1F3C1E6FFF4C146
:10101000E6FFF5C1E6FFF6C1E6FF0A0EE66E2EDF3B
:1010200045E9000903E10306DEE1B5D0016AA8EC59
:101030000DF0090EF6EC0DF0EECF56F2EDCF57F2B3
:10104000A8EC0DF0EE52EFCF54F229EC0EF0EFCFFA
:1010500055F221DD02015E6FFF0E5E5D07E113ECCC
:1010600004F002015E6FFF0801E195D05E5158EC7B
:101070000DF0A8EC0DF0090EB0EC0CF05BEC0EF0EE
:10108000F3C1EEFFF4C1EDFFA8EC0DF0EE52EF500E
:10109000E66E5BEC0EF0020EE92690EC0CF029EC0B
:1010A0000EF0EF50E66E5E519DEC0DF0E552E7500C
:1010B000EF6E5E51F0EC0DF0EF86046A010E045CF9
:1010C0001BE2A8EC0DF00E0EF6EC0DF0E9CFF5F1F9
:1010D000EACFF6F104500101EA6AE924E96EF6511B
:1010E000EA22EF50E66E02015E5151EC0DF0045021
:1010F0004FEC0DF0042AE2D702015E51F0EC0DF046
:10110000EF825E51F0EC0DF0EF8A5E51F0EC0DF0E5
:10111000EF80A8EC0DF0EFCFE6FFDEEC0CF0020163
:101120005BEC0EF0EECF5CF2EDCF5DF28EDBEAEC25
:101130000DF0010EEF6EADDA00C2EFFF046A010E92
:10114000045C05E2045023EC0EF0042AF8D7080EE4
:10115000E66E010EE66E5BEC0EF0020EBDDA3EECC2
:101160000EF05BEC0EF0E9CFF5F1EACFF6F13EECD4
:101170000EF0D2EC03F046E95CDACEEC0CF00201A2
:101180005E510BEC0DF0100B08E1E7DB01E014D829
:101190001DEC0DF0F4E2FF0E03D05E5101D0FF0E06
:1011A0004BE9E7CFD9FF12006DEC00F002015F516F
:1011B000040B01E0010E120002015F95E0EF10F058
:1011C000A5EC0DF0B0DB5CC202F05DC203F0046977
:1011D000056999DA0201756B758500507597E8B05D
:1011E0007587F7EC0CF0A1DA6EEC0DF077D36FDABF
:1011F00083E949E80150FDEC0DF05AE00101E851A6
:101200000DE000010B510AE002015F8763C2E7F1C4
:1012100055EC0EF07FDB060E036E04D0020E036E5B
:1012200002015F97E6C100F003EB01F055EC0EF010
:10123000EFCF02F001508BEC0DF0EFCF03F055EC47
:101240000EF0DCDB01509DEC0DF0EFCF05F041EC32
:101250000DF06351632B00010A6F2CDBE8B075873A
:10126000ABEC0DF0000922E002015FA723D0E1D929
:10127000046EF451056EF551066EF651076E6DDB86
:1012800001E09ADF02015FB702D0010E14D0D1D97C
:101290008DDB08EBF7F109EBF8F10AEBF9F10BEB59
:1012A000FAF1D950040F09EC0EF0E9E202015F9760
:1012B000000E01D0010E4AE9E7CFD9FF120007DA8C
:1012C00085E953E80101E8510AE000010B5107E00C
:1012D00002015F8763C2E7F1060E076E04D0020EBB
:1012E000076E02015F97015065E0066A080E065C12
:1012F00009E20650022423DBEF50E66E065067DA5F
:10130000062AF4D770EC05F0056EFF0E055C13E1BC
:101310000ADB0269036904690569F5D9CBDAE8B02B
:10132000758702EB76F203EB77F2786B60DB5F9701
:10133000FCD9D4DB88D005506EDB080BE9E0010155
:10134000E85103E005506ED9E5DA0001040E006FA4
:1013500007EB01F0055066D9EFCF02F00550DBDB5B
:10136000EFCF03F005505ED949DB0550E6DBEFCF48
:1013700005F0C9D99FDAE8B075877DDB5FE002012F
:101380005FA746D056D912DBE8DA01E015DF02018B
:101390005FA73ED04ED9F2DA0CEBF7F10DEBF8F186
:1013A0000EEBF9F10FEBFAF1D950080F09EC0EF042
:1013B000EBE244D00001040E006F07EB01F05CC2C9
:1013C00002F05DC203F002EBE9FF03EBEAFFEFCFAF
:1013D00004F00228B4DAEFCF05F095D902EBE9FF6B
:1013E00003EBEAFFEFCF61F20228A9DAEFCF62F256
:1013F00061DAE8B075873FDB21E002015FA722D008
:1014000018D9C4DAAADA01E0D7DE02015FB702D048
:10141000010E19D00ED9146EF451156EF551166ED9
:10142000F651176E14EBF7F115EBF8F116EBF9F135
:1014300017EBFAF1D950100FECDBE4E202015F97F1
:10144000000E01D0010E54E9E7CFD9FF12003FD9B9
:1014500087E90550020A02E0030A02E1000E01D00A
:10146000000E3CD234D986E94FE80101E451086E00
:10147000E0D811DA02015F8F066A030E065C01E311
:1014800078D0010E116E126A136A146A076A02019B
:101490005FAF5ED0CED80D6EF4510E6EF5510F6E6B
:1014A000F651106E0DEBF7F10EEBF8F10FEBF9F1D1
:1014B00010EBFAF1D950090FD8D8D8803C0EF3556B
:1014C000780E4CDB41E28DEB09F08EEB0AF08FEBEE
:1014D0000BF090EB0CF007501F083AE300EBF3F130
:1014E00078DAF36BF80EF417070EF61711EBF7F135
:1014F00012EBF8F113EBF9F114EBFAF107501F0BB3
:1015000003E001016DDAFEE1ABD905E1072A0750DE
:101510001F08E4E22AD0790EE66E390E16D907EBE1
:10152000E6FF69EC1FF041E907EBE6FF47DA072A1F
:10153000020131DB410EEF6EACD8E4C1EFFFE66A89
:1015400004EBE6FF54DE42E908DAA1E035DE9FD77E
:1015500002015FBF0AD0510EE66E390E38DB4E0E27
:10156000E66E390EF2D8010E0AD038EC00F0062AE9
:1015700084D708EBE6FF22DA02015F9F000E50E9F4
:10158000E7CFD9FF1200E1DA43E8FF0E005C1EE16D
:10159000026A0A0E025C3DE202502FDB13E00250A9
:1015A0003ADA200B0FE016DB9DD902506CDB0250BB
:1015B00009DBFF0E035C0F0E045804E2032A000E41
:1015C0000422F7D7025074DA022AE3D7005015DB61
:1015D00025E0005020DA200B21E002015E51005C82
:1015E0001DE1596B56D87ED900504DDB0050EADA28
:1015F000FF0E035C0F0E045804E2032A000E0422BF
:10160000F7D7026A0A0E025C04E2025051DA022A9B
:10161000F9D786DA4ADA59D856D8A6DA44E9E7CFB4
:10162000D9FF12000E0D8CDA000EE926030EEA2215
:101630001200A8EC20F0FBC1F3F1FCC1F4F1FDC1F4
:10164000F5F1FEC1F6F10101F35112000F0D78DA48
:101650000C0EE926020EEA221200FDD9EF5012000C
:10166000E66E47EC1FF041E91200E96EDACFEAFFBF
:10167000EE50F75DF36FEE50F859F46FEE50F959F4
:10168000F56FEE50FA59F66F1200E9DAEAD9C3EFB6
:101690000DF05951592BEA6A000FE96E000EEA224B
:1016A00012000C0EF6EF0DF0015010EF0EF0020ECE
:1016B000E66EE66AD6C1E6FFD7C1E6FF5A0EE66ED1
:1016C000020EE66E120012DA89D21CDA87D2D9CF66
:1016D000E6FFE1CFD9FF120089DAE9CFF3F1EACFD3
:1016E000F4F11200D3DA5A0EE66E020EE66EDFEC6B
:1016F00012F044E91200B3DA5CC27AF25DC27BF206
:10170000B0D96EEF0DF0BDD902016351632B00011A
:101710000A6F12000101EA6AE924E96EF451EA2233
:101720001200EFCFE6FFBFEF0DF06ADA76C2E6FFF8
:1017300077C2E6FF78C2E6FF79C2E6FF1200D880E2
:10174000240EF355F40EAEEF0DF0E66E2CEC1FF008
:1017500042E912008C0EE66EE66AD2C1E6FFD3C102
:10176000E6FF000EE66E030EE66E1200040DE8D9E9
:10177000330EE926000EEA22EE6AEE6AEE6AEE6A9F
:1017800012000101E5510201030BF36EF346F3462B
:10179000F346F346CF0E0015F310006F1200010E52
:1017A000E66EE66ACEC1E6FFCFC1E6FFE40EE66E66
:1017B000010EE66E1200010EE66EE66AD0C1E6FF8B
:1017C000D1C1E6FFE50EE66E010EE66E1200EA6A92
:1017D0004C0FE96E020EEA221FD24AD9E92AEA2208
:1017E00012000E0DF3CFF5F1F4CFF6F1000E01016A
:1017F000F527030EF623F5C1E6FFF6C1E6FFEED1AD
:101800000E0D0101D251F3240101F36F0101D351F7
:10181000F4200101F46FF3C1E6FFE66E12007DC211
:10182000E9FF7EC2EAFFEFCF54F2010EEA6A7D259E
:10183000E96E7E51EA22EFCF55F21200D950140F13
:10184000E96EDACFEAFFEF501200546955691EDAEB
:10185000540EE66E020EE66EDFEC12F044E9120062
:101860000101F751F317F851F417F951F517FA512F
:10187000F617F351F411F511F6111200EE580101AB
:10188000F66FF351066EF451076EF551086EF6517E
:10189000096E06501200096EF4510A6EF5510B6E76
:1018A000F6510C6E1200030EF6EF0DF042E9E7CF91
:1018B000D9FF12000201756B758B005075971200ED
:1018C0005BC2E6FF5CD95AC2E6FFBFEF0DF05DC216
:1018D000E6FF55D95CC2E6FFBFEF0DF041E9E7CF67
:1018E000D9FF1200030EEF6E756B758B75817593C2
:1018F000010E786F796F120007EBF7F108EBF8F142
:1019000009EBF9F10AEBFAF11200B2D8EFCFE6FFDA
:1019100056EF1FF0ADD8EECF61F2EDCF62F21200BC
:10192000000EEA2279D1E6C100F00001020E016F3B
:101930001200E4C1E6FF69EC1FF041E91200E96E14
:10194000000E0320EA6E1200EECF7AF2EDCF7BF2AA
:101950001200ECEC1DF046E9120026DC0009120032
:1019600045D9EECFF3F1EFCFF4F112000250EA6A5D
:101970004C0FE96E020EEA22EF5012000C6EF45189
:101980000D6EF5510E6EF6510F6E1200106EF45181
:10199000116EF551126EF651136E1200056EF45170
:1019A000066EF551076EF651086E1200086EF4517E
:1019B000096EF5510A6EF6510B6E120019EC07F024
:1019C00041E91200300BE842E842E842E8420108EF
:1019D000120001EBF4F102EBF5F103EBF6F112006A
:1019E000D890F737F837F937FA37E8061200010EC2
:1019F000796F5CC27AF25DC27BF2120039D8EFCF08
:101A000004F0120043E9E7CFD9FF12004EEC12F0C8
:101A100041E900091200E4D8EF50120049D958EF0B
:101A20000EF0E8D80D0EF6EF0DF03F0E19DE3F0E6A
:101A300017DE3F0E15DE3F0E1200FBDD2CDF09EB3B
:101A4000F7F10AEBF8F10BEBF9F10CEBFAF1D950E5
:101A5000050F09EF0EF0EA6A7F25E96E8051EA2250
:101A60001200CED80BD978C2E6FF79C2E6FF120089
:101A7000020EF6EF0DF05E5106D9F7D806DE00092A
:101A800012005CC206F05DC207F05AC208F05BC2E9
:101A900009F01200EA22EF50E66EFBDDBDD03ADE1F
:101AA000BBD0C0DD0D0E6CEF0BF001DE17EF0EF0BA
:101AB00097D8EF6A1200B6DD040E0EDE070ED8804E
:101AC0000354D8D00150EA6A7D25E96E7E51EA229E
:101AD000EF50E66E01507BDE012A12005CC2E6FF89
:101AE0005DC2E6FFE8EC10F04AE91200010EE66E76
:101AF000E66AD8C1E6FFD9C1E6FF5E0EE66E020EC9
:101B0000E66E1200020EE66EE66ACCC1E6FFCDC1BB
:101B1000E6FF46EF0EF086DDE92A000EEA2212000B
:101B200002015E695A695B695C695D69DBDD02011E
:101B30005F931200B9DD53EF0CF074DDEDEF0BF0A5
:101B4000F3CFE9FFF4CFEAFF1200C1DD82E9120012
:101B5000015026EF0BF089D87BEF0BF0F455000E07
:101B6000F555000EF6551200F5DD17EF0EF00201E7
:101B700074DDE66E1200ABDD81E941E8120056EC3F
:101B80001FF041E912007AC2E6FF7BC2E6FFE8ECF3
:101B900010F04AE912000B0E596F7BDDEF6A49EF36
:101BA0000BF083D8040EF6EF0DF0B90EE66E390E89
:101BB000CCDD032A120003505DD00D0E51DD0A0E5C
:101BC00030EF0BF02FDD61DD036A046A1200BDDD2A
:101BD00099EF0CF00201596B49EF0BF017EF0EF083
:101BE00021DD51EF0BF03CDD0EEF0DF0E926000E8C
:101BF000EA2212000B5126EF0BF00DDF800B1200D2
:101C000059C2E6FF000EE66E000EE66E75C2E6FFF4
:101C100012002BDD9FEF0BF0E552E750EF6E120044
:101C2000080D8EDF870EE926020EEA22120003EC71
:101C30001EF046E912003CD802500BEF0DF0F2DC2A
:101C400070DD0EEF0DF0EA6AB60FE96E020E4AEF94
:101C50000DF07EDFEE52E92A000EEA22120008DFC4
:101C6000E9CF76F2EACF77F21200010E786F796F42
:101C70005BEF0EF04FDD55DD032A1200E9CFE6FFE2
:101C8000EACFE6FF1200CEDCA4EF0CF05C0EE66EAD
:101C9000020EE66E1200C9DEA6DFC7DEE66E47EF73
:101CA0001FF0A1DF00500BEF0DF0015012EF0BF011
:0C1CB000200E30EF0BF05E5112EF0BF035
:041CBC0064EC15F0CF
:101CC00084E941E8F250100B01E0010E046EF29835
:101CD0008B90010101EBF3F102EBF4F1030ED890CC
:101CE000F433F333E804FBE17F0E0101F3158009BF
:101CF000E66E6FEC16F0010101EBF3F102EBF4F18B
:101D0000050ED890F337F437E804FBE1E00E01014B
:101D1000F3151009E66EB8EC15F00450E8B0F2883F
:101D2000E8A0F298EFEF15F064EC15F083E941E8D4
:101D3000F250100B01E0010E036EF2988B9001EB54
:101D4000E6FFB8EC15F00350E8B0F288E8A0F2988E
:101D5000EFEF15F064EC15F082E942E8F250100B59
:101D600001E0010E036EF2988B9000EBE6FF6FEC42
:101D700016F00EEC21F0026E8B800350E8B0F28872
:101D8000E8A0F2980250F3EF15F064EC15F083E947
:101D900042E8F250100B01E0010E046EF2988B90B5
:101DA000010100EBF3F101EBF4F1030ED890F433F1
:101DB000F333E804FBE17F0E0101F317000EF41783
:101DC000800EF311E66E6FEC16F0010100EBF3F1FB
:101DD00001EBF4F1050ED890F337F437E804FBE19A
:101DE000E00E0101F315E66E6FEC16F00EEC21F03B
:101DF000036E8B800450E8B0F288E8A0F29803509C
:101E0000F3EF15F064EC15F081E943E88B94026A76
:101E1000036A2C0E025C010E035804E2022A000E33
:101E20000322F7D78B84026A036A2C0E025C010E30
:101E3000035804E2022A000E0322F7D7070EE66ECB
:101E4000550E2DEC15F0540EB3EC15F0016E070E87
:101E50000114F9E1026A036AE80E025C030E0358FA
:101E600004E2022A000E0322F7D77EEC16F0E668A1
:101E7000070E2DEC15F0E668090E2DEC15F0E6685E
:101E8000030E2DEC15F0E668050E2DEC15F0016A39
:101E9000080E015C0AE20150BEEC15F00150E82486
:101EA0000B0F2DEC15F0012AF3D7800EE66E020E13
:101EB000E66EE66E73EC16F0E66A030E59EC15F06A
:101EC000900EE66E060E59EC15F0800EE66E070ECB
:101ED00059EC15F0100EE66E080E59EC15F0210EB7
:101EE000E66E200E59EC15F0800EE66E750E2DECA8
:101EF00015F0400EE66E7D0E2DEC15F0600EE66ED0
:101F00007F0E2DEC15F0980EE66E310E2DEC15F0CF
:101F1000950EE66E5D0E2DEC15F0D6EC15F0016E0B
:101F2000A00E0114A008F9E1E60EE66E650E2DEC98
:101F300015F0030EDBEC15F0020EE66E010E59EC07
:101F400015F0E66AC6C1E6FFE7DA42E944E9E7CF01
:101F5000D9FF120064EC15F081E943E881A0F28218
:101F60000101CBA11ED0B0C2F3F1B1C2F4F1010165
:101F7000F56BF66BD890F651000A08E6800EF35D1B
:101F8000000EF459000EF559000EF65906E3020151
:101F9000B06BB16B0101CB9104D00201B02B000EEC
:101FA000B1230201AF69016A020E015C09E29CECF7
:101FB00015F0000803E201EBAFF202D0012AF4D7DA
:101FC000020E0201AF5D01E3F6D0010E036E81EC5B
:101FD00016F0400B01E1036A02017C6B846BA1ECFB
:101FE00016F0E92A000EEA22EF50CC0B026E0250E6
:101FF000080A01E1C2D0840A6CE0040A49E0080A38
:1020000038E04C0A16E0040A01E0B7D043EC16F0C1
:1020100005E149EC16F002E102017C8502017C8FAA
:10202000035004E0FBEC15F0070E5CD024EC16F036
:102030006AD002017C8F03500AE0FBEC15F00D0E14
:1020400002EC16F0E70F17EC16F0150E62D0020145
:102050007AEC16F0EFCF85F290EC16F00E0E8DECC8
:1020600016F00F0E02EC16F0E50F17EC16F0170E37
:1020700050D002017C857C8F010E846FFBEC15F043
:10208000050E02EC16F0F50F17EC16F0070E41D016
:1020900043EC16F005E149EC16F002E102017C8503
:1020A00002017C8F010E846F035009E124EC16F0CD
:1020B00002EC16F0F10F17EC16F00B0E2AD0FBEC29
:1020C00015F0070E02EC16F0F30F17EC16F0090EE0
:1020D00020D002017C8F010E846F03500AE0FBECDC
:1020E00015F00C0E02EC16F0ED0F17EC16F00F0EBB
:1020F00010D0A1EC16F00C0E93EC16F07AEC16F062
:102100009CEC16F00E0E02EC16F0EB0F17EC16F02E
:10211000110E02017F27000E8023020181EC16F0D0
:10212000080B22E0D0EC15F0F550010A12E0050A88
:102130000EE0030A0CE0040A08E0050A06E0040ABF
:1021400002E0070A09E1150E05D00D0E03D0090EB5
:1021500001D0050E0201815F050E02017F257F6F10
:10216000000E8021806F7C87020181EC16F0070B46
:102170000EE0030A08E0020A03E022D8000E1CD099
:1021800002017C9102D002017C817C9303D0020188
:102190007C817C833CEC16F0EF50FE0FE1EC15F0F7
:1021A000EFCF83F23CEC16F0EF04E1EC15F0EFCF4B
:1021B00082F2010E01D0000E44E9E7CFD9FF1200F0
:1021C000020E0201AF5D03E21DEC15F0EF6A120092
:1021D00064EC15F08BE94CE80C6A0D6A26EC15F0FE
:1021E000040B02E0010E066E77EC16F001E0076AC0
:1021F00026EC15F0030B010802E1030E06D026ECD5
:1022000015F0030B000902E1010E0D6E0101C7512B
:1022100008180DE1C85109180AE1C71D01E1C81DE0
:1022200006E0050E0B6E0D8C010E0E6E03D0070E30
:102230000B6E0E6A065002E0020E01D0080E0B264D
:10224000075002E0020E01D0080E0B2677EC16F0C4
:1022500001E00D8626EC15F0200B05E026EC15F0CC
:10226000040B01E10D8A26EC15F0030B030807E1CE
:102270000D6A070E0B6E0E6A010E076E039A0BEBCA
:10228000E6FFDEDB77EC16F004E00B500024050FD0
:1022900002D00B500024E66ED3DB0DEBE6FFD0DB63
:1022A000D5DB030B030804E1800E59EC16F02ED0A9
:1022B000065004E0075002E0880E0DD0065004E0FE
:1022C000075002E1C80E07D0065004E1070402E1FE
:1022D0008C0E01D0CC0E59EC16F0B2DB08EBE6FF09
:1022E000AFDB09EBE6FFACDBB1DB040B04E0E66837
:1022F000A7DBE6680BD006500BE004EBE9FF05EB2B
:10230000EAFF84EC16F00428E8EC15F099DB0BD01A
:102310000D6A080E0D5C07E20D500424E8EC15F080
:102320008FDB0D2AF6D70E5006E1C7C1E6FF88DB2A
:10233000C8C1E6FF85DB075007E0C9C1E6FF80DBC7
:10234000CAC1E6FF7DDB0AD00D6A080E0D5C06E20D
:102350000D50BEEC15F074DB0D2AF7D777EC16F0B4
:102360003EE00D6A040E0D5C0AE20D50EA6AB50FFC
:10237000E96E010EEA2284EC16F00D2AF3D7010172
:10238000B52B000EB623B723B823B55105E1030ED4
:10239000B61502E14FEC16F0070EF66E000EF76E62
:1023A0000800F5CFE6FF4CDB0D6A100E0D5C12E263
:1023B0000D50C7EC15F00D500101F46B800FF36F59
:1023C000020EF423F3C1E6FFF4C1E6FF73EC16F04E
:1023D0000D2AEBD7E5DBF5CFE6FF590E3EDB0D6AA4
:1023E00000500D5C0AE20D500124E96E000E02203F
:1023F000EA6E84EC16F00D2AF3D70101CB8126DBBF
:10240000200B07E023DB040B04E1050E0D6ECB83EC
:1024100003D0010E0D6ECB9377EC16F001E00D8228
:102420000DEBE6FF370E19DB0AEC16F00F6EF451D8
:10243000106EF551116EF651126E81A0F2820101FB
:10244000CBB104D0CBA525D0CB9521D0E3DB136E47
:10245000F451146EF551156EF651166E13EBF7F13B
:1024600014EBF8F115EBF9F116EBFAF1D9500F0F67
:102470002CEC16F0D880C40EF355090EF455000E5E
:10248000F555000EF655D9E228DB0101CB91000E7F
:1024900001D0010E4DE9E7CFD9FF120015DB82E92B
:1024A00049E80050FF0A15E0FF0A02E0000E30D0B4
:1024B0008B92040EE66E550ED0DA800EE66E450E57
:1024C000CCDA600EE66E1B0EC8DA800EE66E6B0E7E
:1024D0001DD08B829FDB036EF451046EF551056EA7
:1024E000F651066EBFDA02E2F8DA05D0620E3BDB87
:1024F000026E02ACF7D7B6DA02E2EFDA06D056DBAC
:10250000026EE00E0214A008F6E1DADBA6DA010E94
:102510004AE9E7CFD9FF1200D7DA83E90B0E015C55
:1025200003E301501A0802E2000E0BD001EBC6F1E2
:102530000B0E015C100DF35003093DDBC1DB8DDA9E
:10254000010E41E9E7CFD9FF1200BEDA82E942E885
:102550000A0EE66E00EBE6FFB3EC1EF041E9E75031
:10256000036E0A0EE66E00EBE6FFB0EC1EF041E9EA
:10257000E750400DF350026E0350050802E2380E9A
:1025800017D00350040802E2300E12D003500308A3
:1025900002E2280E0DD00350020802E2200E08D0FD
:1025A0000350010802E2180E03D0035002E0100E9F
:1025B000022602EBE6FF030E7CDA010E14D384DA66
:1025C00085E902EBE9FF03EBEAFFEFCFC9F102284F
:1025D000E96E000E0320EA6EEFCFCAF100EBE9FFCF
:1025E00001EBEAFFEFCFC7F10028E96E000E0120F2
:1025F000EA6EEFCFC8F1C9C1E6FF070E2EDACAC1F5
:10260000E6FF090E2ADAC7C1E6FF030E26DAC8C1C3
:10261000E6FF050E22DA010E41E9E7CFD9FF1200ED
:1026200053DA84E941E800EBB2F101EBB3F102EBDC
:10263000B4F1D6CFC5F101010B0EC66F02EC0FF05D
:102640000101CB6B046A020E045C05E20450F5DA6A
:10265000EF6A042AF8D7D9CFE9FFDACFEAFFEF50C3
:10266000040B0CE017DAECEC1DF046E9040E010156
:10267000B627000EB723B82312DB0CD00101B56BCF
:10268000B66BB76BB86B0BDB0101010EB56FB66BA8
:10269000B76BB86B010EA3D2D8CFE4FFE0CFE4FF55
:1026A000E46EDACFE4FFE2CFDAFFE9CFE4FFEACF6E
:1026B000E4FFFBC1E4FFFCC1E4FFFDC1E4FFFEC198
:1026C000E4FFF6CFE4FFF7CFE4FFF5CFE4FFF3CF6D
:1026D000E4FFF4CFE4FFFACFE4FF01EEF3F0080EDD
:1026E000E80403E3EECFE4FFFBD7E652EDD981E93E
:1026F00049E8F250100B01E167D1F250020B01E101
:1027000063D1F292620E2FDA036EA0D9010B17E0AB
:102710000101CB910201B06BB16B0101CBA30FD0D2
:10272000480E21DA056ED950050FE96EDACFEAFFBF
:10273000EF50010B02E00101CB850101CB93D7DA09
:1027400001E1E0D00668016A020E015C07E2F4D9FB
:1027500003E181EB06F002D0012AF6D7020E065CF7
:1027600001E3CCD00101CBA783D05E0EFCD9076E6C
:102770000101CB9707B27FD0060E016E010ED8D9AA
:10278000086E08BC02D0020E0126020ED1D9086ED6
:102790000C0E08140C0802E1080E01D0020E0126EE
:1027A000026A080E025C0BE201500201AE6B000FE0
:1027B000A7D9B90FE96E010EABDA022AF2D7026A85
:1027C000040E025C0BE201500201AE6B080F98D9B7
:1027D000C10FE96E010E9CDA022AF2D7016A0A0ED5
:1027E000015C1CE2ADD90C0E74D9EF50800B14E0E3
:1027F000B90EE66E010EE66EA3D9040E6AD9E9CFD2
:10280000ABF2EACFACF2E9CFE6FFEACFE6FFE4ECC9
:1028100005F044E9000902E1012AE1D70A0E015C52
:102820002CE27ED9EE500101C15DEE50C259EE504E
:10283000C359EE50C4591FE3E868C1190FE1E868B5
:10284000C2190CE1E868C31909E1E868C41906E196
:1028500067D9EE6AEE6AEE6AEE6A0FD061D9C1C13D
:10286000EEFFC2C1EEFFC3C1EEFFC4C1EEFF05D053
:10287000CBA903D0CB99BBD93FD0040EE66E730E23
:10288000ECD8E66A030E10DA020FE66E0FD9E552B5
:10289000E750EF6E0BD9EFCFABF2580E0201AB5DF4
:1028A00028E20101CB8B010E016E00D9EF50020F1F
:1028B000D88001541EE301500201AE6B000FAD6FD2
:1028C000030EAE23ADC2E6FFAEC2E6FFC5EC0EF0CE
:1028D00042E9E66EEBD8EE52E9CFABF2EACFACF2CA
:1028E00001040201EA6AE924E96EAC5111DA012A15
:1028F000DCD704DAE66A730EB0D804D0FFD9010140
:10290000CB97CB99A3D8100B5FE00101CBA107D0E7
:10291000CB89800EE66E590EA0D869D954D0060E28
:10292000016E010E05D9096E09BC02D0020E012606
:10293000020EFED8096E0C0E09140C0802E1080EF6
:1029400001D0020E0126026A0A0E0124025C07E28F
:1029500002500201AC6B010FFBD8022AF5D70150DF
:102960000201AC6B0C0FF4D8026E070EF66E000E6F
:10297000F76E0800F550025C06E0800EE66E590E18
:102980006CD80101CB890101CBB91ED0016A100EB0
:10299000015C10E20150FBD801500201AC6BB00F9A
:1029A000AB6F020EAC23ABC2E6FFACC2E6FF9BD915
:1029B000012AEDD70101CB87F3D8F550080DF3506C
:1029C0004009E66E590E49D8F2A409D0F2AA07D000
:1029D000F2940201B22BB25102E10201B32BDCEC02
:1029E0001FF04AE9E7CFD9FFE55201EEFAF0080EF1
:1029F000E80403E3E5CFEDFFFBD7E5CFFAFFE5CF32
:102A0000F4FFE5CFF3FFE5CFF5FFE5CFF7FFE5CF27
:102A1000F6FFE5CFFEF1E5CFFDF1E5CFFCF1E5CF27
:102A2000FBF1E5CFEAFFE5CFE9FFE5CFDAFFE550BF
:102A3000E5CFE0FFE5CFD8FF1000AF511DEF16F056
:102A40000C500C2AE66EE66A73EF16F0D950030FAD
:102A5000E96EDACFEAFFEF501200E66E94EC0EF06A
:102A600042E91200D7D833D907EBF7F108EBF8F1B8
:102A700009EBF9F10AEBFAF1D950030FEDD8F35154
:102A800026D907506A08180E0854000E0954000E83
:102A90000A541200040EE66EE66AD4C1E6FFD5C100
:102AA000E6FFB50EE66E010EE66E120006501DEF53
:102AB00016F0E66E020EE66E73EF16F0EE52E9CFF8
:102AC0007DF2EACF7EF21200D9CFE6FFE1CFD9FF47
:102AD0001200E926000EEA22120002EC0FF0C70EE7
:102AE000E66E010EE66EC90EE66E010EE66E67DD5D
:102AF00044E91200EE52E9CF7FF2EACF80F21200F1
:102B0000AD6F030EAE230250AD25AB6F000EAE21AC
:102B1000AC6FABC2E6FFC8D8E66E0250EA6A12009C
:102B20000150040D04D9330EE926000EEA221200EA
:102B3000E66E030E54EF16F001507FD8EF501200EE
:102B400001500E0DF4D8000EE926030EEA22120001
:102B5000AB6F030EAC23ABC2E6FFACC2E6FFC5EC25
:102B60000EF042E91200E66EAAEC0EF041E9120006
:102B7000B6D800EBE6FFB3D88B8012000101EA6AF9
:102B8000B325E96EB451EA22EFCFE6FF1200F76AEF
:102B90002E0FF66E000EF7220800F5CFE6FF1200AA
:102BA000060EF66E000EF76E080012000F0EE66EAF
:102BB000020E54EF16F0E66EE66A020EE66E73EF52
:102BC00016F00101EA6AF325E96EF451EA221200D7
:102BD000E96E000E0520EA6EEFCFE6FF120042E933
:102BE000E7CFD9FF120043E9E7CFD9FF1200010E6A
:102BF000E66E1B0E1200A5D8030E95D891D8040ED0
:102C00008DEF16F002017D27000E7E23020115DFF5
:102C1000EF501200A8EC20F0FBC1F3F1FCC1F4F17D
:102C2000FDC1F5F1FEC1F6F10101F35112000201FF
:102C3000816F020102DF7AEF15F0590D78D8000E8E
:102C4000E926010EEA2212007CD8070E6CD868D85B
:102C5000080E63D8090E1200E96EDACFEAFFEE50D3
:102C6000F75DF36FEE50F859F46FEE50F959F56FC8
:102C7000EE50FA59F66F120064D8E9CFF3F1EACFBB
:102C8000F4F11DEF15F04CD8050E23DFEF50FF08CF
:102C9000120046D8060E1DDFEF50FF081200FADEC4
:102CA00003EC1EF046E91200E66EC5EC0EF042E9B8
:102CB0001200E66EC5DE0101C551C52BE66E12009D
:102CC000040EE66E6D0EC9DEE66A6D0E1200076E2A
:102CD000F451086EF551096EF6510A6E1200FAECC5
:102CE00020F041E912005EEC0EF043E91200AEDE86
:102CF000080B120015D80D0E69EF15F078DF2DEFD7
:102D000015F00ED8EF501200EFCFE6FF20EF15F0D0
:102D1000EA22E552E750EF6E1200DBDE9CEF16F080
:102D20008CDEEE521200D5DEEFCF85F21200F3CF2B
:102D3000E9FFF4CFEAFF1200EFCF86F27EDE5EEF0E
:082D400015F0020190EF16F0FE
:082D4800D9CFE6FFE1CFD9FF6E
:102D500081E952E80368046A056A0E6A0F6A106A1C
:102D6000116A126AA2EC1FF023EC1FF0150EE66E3A
:102D7000390EE66E2CEC1FF042E9FE0EE66E380EC0
:102D8000E66E2CEC1FF042E9E30EE66E380EE66EBE
:102D90002CEC1FF042E9C80EE66E380EE66E2CEC05
:102DA0001FF042E9B00EE66E380EE66E2CEC1FF016
:102DB00042E98E0EE66E380EE66E2CEC1FF042E90C
:102DC000730EE66E380EE66E2CEC1FF042E9580EDC
:102DD000E66E380EE66E2CEC1FF042E9380EE66E19
:102DE000380EE66E2CEC1FF042E9210EE66E380E2E
:102DF000E66E2CEC1FF042E9E10EE66E370EE66E51
:102E00002CEC1FF042E9A10EE66E370EE66E2CECBC
:102E10001FF042E95F0EE66E370EE66E2CEC1FF0F7
:102E200042E91F0EE66E370EE66E2CEC1FF042E90B
:102E3000DD0EE66E360EE66E2CEC1FF042E99D0EBE
:102E4000E66E360EE66E2CEC1FF042E9980EE66E4A
:102E5000360EE66E2CEC1FF042E989908992010E45
:102E6000E66EE66A780EE66E360EE66EC2EC1FF08F
:102E700044E98150200B1BE1010EE66E32EC06F0B6
:102E800041E9010814E1010EE66EE66A5C0EE66EA9
:102E9000360EE66EC2EC1FF044E90F0EE66E360EFB
:102EA000E66E2CEC1FF042E981AAFED7FAD0E66A62
:102EB00032EC06F041E9F50EE66E350EE66E2CECCE
:102EC0001FF042E9E66AE66AE50EE66E350EE66E4A
:102ED000C2EC1FF044E9E668E668E668E6680A0EB8
:102EE000E66E3EEC07F045E9026E025001E1ACD01F
:102EF000CB0EE66E350EE66E2CEC1FF042E9016A51
:102F00000250015C01E3A0D0C10EE66E350EE66E04
:102F10002CEC1FF042E901500F0DF3CFE9FFF4CF85
:102F2000EAFF0C0EE926020EEA22EFCFE6FF69EC7B
:102F30001FF041E9B70EE66E350EE66E2CEC1FF081
:102F400042E901500F0DF3CFE9FFF4CFEAFF0C0E79
:102F5000E926020EEA220B0EE926000EEA22EFCF46
:102F6000E6FF56EC1FF041E9A90EE66E350EE66E5F
:102F70002CEC1FF042E9026A010E025C20E20150D3
:102F80000F0DF3CFE9FFF4CFEAFF0C0EE926020E96
:102F9000EA220E0EE926000EEA22E9CFF3F1EACF8B
:102FA000F4F102500101EA6AF325E96EF451EA22D4
:102FB000EFCFE6FF56EC1FF041E9022ADDD79D0E68
:102FC000E66E350EE66E2CEC1FF042E901500F0D57
:102FD000F3CFE9FFF4CFEAFF0C0EE926020EEA2256
:102FE000090EE926000EEA22E92A000EEA22EFCFB6
:102FF000E6FF56EC1FF041E901500F0DF3CFE9FF5A
:10300000F4CFEAFF0C0EE926020EEA22090EE926A9
:10301000000EEA22EFCFE6FF56EC1FF041E99A0ED0
:10302000E66E350EE66E2CEC1FF042E901500F0DF6
:10303000F3CFE9FFF4CFEAFF0C0EE926020EEA22F5
:10304000EF50036E012A5CD7FF0E035C06E003EB32
:10305000E6FF19EC07F041E908D0790EE66E350E6F
:10306000E66E2CEC1FF042E936D7E66A2EEC07F04C
:1030700041E9E66AE66ACAEC07F042E9016E640ECD
:10308000E66E350EE66E2CEC1FF042E9010EE66EA0
:10309000E4C1E6FF450EE66E350EE66EC2EC1FF0AB
:1030A00044E98980E66824EC04F041E9D4EC08F0B6
:1030B000000901E180D0020101A707D03C0EE66EB5
:1030C000350EE66E2CEC1FF042E902010151030BB4
:1030D000000908E0200EE66E350EE66E2CEC1FF0BF
:1030E00042E907D0060EE66E350EE66E2CEC1FF0B8
:1030F00042E909C2E6FF56EC1FF041E9020101ADC9
:1031000034D0FF0EE66E340EE66E2CEC1FF042E972
:10311000020101AF16D0010E0201EA6A0425E96E30
:103120000551EA22EFCFE6FF56EC1FF041E904C259
:10313000E9FF05C2EAFFEFCFE6FF56EC1FF041E9D9
:1031400014D0016A080E015C10E2070ED880015409
:103150000201EA6A0425E96E0551EA22EFCFE6FF93
:1031600056EC1FF041E9012AEDD7FC0EE66E340E55
:10317000E66E2CEC1FF042E9016A02010851015C85
:103180000EE201500201EA6A0625E96E0751EA22C1
:10319000EFCFE6FF47EC1FF041E9012AEED7897235
:1031A000DCEC08F0112A11EBE6FF10EBE6FFBCECBB
:1031B0001FF042E942D10E5003082AE2E66AE66AAD
:1031C000DD0EE66E340EE66EC2EC1FF044E9B90E79
:1031D000E66E340EE66E2CEC1FF042E9010EE66E50
:1031E000E2EC06F041E9E668E668E668E668E66A69
:1031F00032EC0AF045E90E6A0F6AE66AE4C1E6FFBE
:103200009A0EE66E340EE66EC2EC1FF044E902D070
:10321000010E0F6E0F5001E110D10F6AE66AE2EC69
:1032200006F041E90400D180F290F286ACA2FED70C
:103230000300F296D190C8EC1FF0126E020EE66EFB
:10324000E2EC06F041E9000813E2840EE66E340E6B
:10325000E66E2CEC1FF042E90E2AE66A0EEBE6FF62
:10326000670EE66E340EE66EC2EC1FF044E90AD03B
:103270000E5007E011EBE6FF10EBE6FFBCEC1FF091
:1032800042E90E6A1250020A62E0030A01E0D4D059
:1032900002010B0E596F060EE66E04EBE6FFB3EC6F
:1032A0001EF041E9E750000915E102015951592B7F
:1032B000EA6A000FE96E000EEA220D0EEF6E0201BF
:1032C0005951592BEA6A000FE96E000EEA220A0EE4
:1032D000EF6E2FD0016A150E015C2BE2060EE66E32
:1032E00004EBE6FFB3EC1EF041E9E750FF0F150DCC
:1032F000F3CFF3F1F4CFF4F1FE0E0101F3273F0E0B
:103300000101F42301500101F76AF325F66EF4512F
:10331000F7220800F550E66E02015951592BEA6A6E
:10332000000FE96E000EEA22E552E750EF6E012A27
:10333000D2D7042AE66AE0EC08F041E911EBE6FF97
:10334000102A10EBE6FFBCEC1FF042E976D0020138
:103350000B0E596F060EE66E05EBE6FFB3EC1EF0A2
:1033600041E9E750000915E102015951592BEA6A78
:10337000000FE96E000EEA220D0EEF6E02015951A8
:10338000592BEA6A000FE96E000EEA220A0EEF6E70
:103390002FD0016A0B0E015C2BE2060EE66E05EBE8
:1033A000E6FFB3EC1EF041E9E750FF0F0B0DF3CF42
:1033B000F3F1F4CFF4F1670E0101F327400E0101A0
:1033C000F42301500101F76AF325F66EF451F72258
:1033D0000800F550E66E02015951592BEA6A000FB8
:1033E000E96E000EEA22E552E750EF6E012AD2D7CD
:1033F000052A010EE66EE66AF7EC08F042E90009DC
:1034000012E1540EE66E340EE66E2CEC1FF042E92B
:10341000010EE66EE66A440EE66E340EE66EC2EC0F
:103420001FF044E901D0102A11EBE6FF10EBE6FF94
:10343000BCEC1FF042E901D000D038D653E9E7CF09
:04344000D9FF12009E
:0C34440020556E69636173742046616955
:103450006C6564000D0A556E696361737420466182
:10346000696C65640D0A00436F6E6E656374696F05
:103470006E204C6F73742020202020256420546916
:103480006D6573000D0A4461746120526571756544
:103490007374204661696C65640020526573796EAF
:1034A0006368726F6E697A65642020746F20436868
:1034B000616E6E656C202564000D0A526573796E2D
:1034C0006368726F6E697A696E67207468652043FD
:1034D0006F6E6E656374696F6E2E2E2E005265736B
:1034E000796E6368726F6E697A696E672074686559
:1034F00020436F6E6E656374696F6E003A20002022
:1035000066726F6D2000556E69636173742050613F
:10351000636B6574207769746820525353492000A7
:1035200042726F616463617374205061636B657490
:10353000207769746820525353492000536563759E
:10354000726564200020436F6E6E6563746564204D
:103550005065657220206F6E204368616E6E656CE9
:10356000202564000D0A436F6E6E656374696F6E8B
:103570002043726561746564000D0A4E6F205375B7
:10358000697461626C652050414E2C2052657363F2
:10359000616E6E696E672E2E2E000D0A00202020AF
:1035A0002050414E49443A20002020205065657249
:1035B000496E666F3A2000202020525353493A202A
:1035C000004368616E6E656C3A20000D0A416374B9
:1035D000697665205363616E20526573756C7473F0
:1035E0003A200D0A00416374697665205363616E69
:1035F0006E696E67000D0A5374617274696E67209C
:10360000416374697665205363616E2E2E2E000D22
:103610000A4E6574776F726B20467265657A6572C3
:10362000204665617475726520697320656E6162FC
:103630006C65642E2054686572652077696C6C2017
:103640006265206E6F2068616E642D7368616B65C2
:103650002070726F636573732E0D0A00204E6574BF
:10366000776F726B20467265657A65722020202024
:10367000454E41424C454400466561747572652073
:103680004D6957692044656D4D524632344A343095
:10369000204E6F64652032000D0A0D0A000D0A20CD
:1036A000202020202020202020202020202020201A
:1036B0002020202077696C6C20626520746F67671A
:1036C0006C65642075706F6E2072656365697669DC
:1036D0006E67206D657373616765732E000D0A2038
:1036E00020202020202020202020202020202020DA
:1036F0002020202050494344454D205A206F7220FD
:103700004578706C6F7265722031362064656D6F1C
:1037100020626F617264732E204C45442032000D8C
:103720000A202020202020202020202020202020AF
:10373000202020202020427574746F6E2032207467
:103740006F20756E696361737420656E6372797042
:10375000746564206D657373616765206F6E000D1D
:103760000A2020202020202020202020202020206F
:103770002020202020205075736820427574746FBB
:103780006E203120746F2062726F616463617374A4
:103790002061206D6573736167652E2050757368B5
:1037A000000D0A2020202020202020202020202062
:1037B0002020202020202020746F20696E646963FF
:1037C00061746520697420697320636F6E6E656330
:1037D00074656420746F2074686520706565722E4E
:1037E000000D0A2020202020202020202020202022
:1037F0002020202020202020506F776572206F6EBF
:103800002074686520626F61726420756E74696CE3
:10381000204C45442031206C6967687473207570B2
:10382000000D0A20202044656D6F20496E7374726C
:10383000756374696F6E3A000D0A202020202052B3
:1038400046205472616E736365697665723A204DE5
:10385000524632344A3430000D0A202020202020E5
:1038600020202020202020204C454420323A205285
:103870004131000D0A20202020202020202020205F
:103880002020204C454420313A20524130000D0A7E
:103890002020202020202020202020202020202028
:1038A0002020202020525332333220706F72740057
:1038B0000D0A4F757470757420436F6E6669677575
:1038C000726174696F6E3A000D0A2020202020205A
:1038D0002020202020427574746F6E20323A2052CE
:1038E0004234000D0A2020202020202020202020EB
:1038F000427574746F6E20313A20524235000D0AC1
:10390000496E70757420436F6E6669677572617475
:10391000696F6E3A000D0A5374617274696E6720A4
:103920004E6F64652032206F662046656174757243
:10393000652044656D6F20666F72204D6957692858
:10394000544D2920537461636B202E2E2E000D0AD6
:10395000000D0A526573796E6368726F6E697A65DD
:103960006420436F6E6E656374696F6E20746F20A0
:103970004368616E6E656C20000D0A436865636B79
:10398000696E67204368616E6E656C20000D0A5396
:1039900063616E204368616E6E656C200053686FD2
:1039A0007274416464723A002050414E49443A00B6
:1039B0004368616E6E656C3A002020000D0A417606
:1039C00061696C61626C65206E6F6465730D0A4895
:1039D000616E646C652052582044432050414E492A
:1039E000442041444452204C4F4E475F414444528E
:1039F0002020202020202020504545525F494E465F
:103A00004F0D0A0020204368616E6E656C3A2000FD
:103A1000202050414E49443A2000202053686F72C4
:103A20007420416464723A20000D0A0D0A416464F6
:103A3000726573733A203078000D0A4A6F696E2000
:103A4000746865206E6574776F726B20737563633D
:0B3A500065737366756C6C790D0A00DD
:043A5C00D9CFE6FFD9
:103A6000E1CFD9FF85E944E801D054D000EBE6FF6F
:103A700001EBE6FF02EBE6FF03EBE6FF280EE66E46
:103A8000E66AE66AE66AD2EC1EF0E552E5CFF6F1A8
:103A9000E5CFF5F1E5CFF4F1E7CFF3F10101F35113
:103AA000056EF451066EF551076EF651086ED95049
:103AB000050FE96EDACFEAFFAF0EEE5E000EEE5AAA
:103AC000000EEE5A000EEE5A083408E205502D089A
:103AD000000E0654000E0754000E085401E31AD0DD
:103AE000083408E205500008000E0654000E075482
:103AF000000E08540FE20000D950050FE96EDACF2E
:103B0000EAFF2A0EEE5E000EEE5A000EEE5A000E8E
:103B1000EE5AE6D745E9E7CFD9FF1200D9CFE6FF45
:103B2000E1CFD9FF83E944E800EBE6FF01EBE6FFD4
:103B3000E66AE66AA00EE66E0F0EE66EE66AE66AD2
:103B4000D2EC1EF0E552E5CFF6F1E5CFF5F1E5CF89
:103B5000F4F1E7CFF3F10101F351036EF451046E78
:103B6000F551056EF651066ED950030FE96EDACFA6
:103B7000EAFFAA0EEE5E000EEE5A000EEE5A000E9E
:103B8000EE5A063408E20350C308000E0454000E37
:103B90000554000E065402E31BD01AD0063408E286
:103BA00003500008000E0454000E0554000E065485
:103BB0000FE20000D950030FE96EDACFEAFF270EBB
:103BC000EE5E000EEE5A000EEE5A000EEE5AE6D7EA
:083BD00045E9E7CFD9FF12001F
:083BD800A6D887E90050011096
:103BE0000EE098D8A69EA69CA68038EC00F0A0D83F
:103BF000A8CFEFFF0006015A022A0322EFD741E9BE
:103C0000E7CFD9FF12008FD887E941E800500110B3
:103C100020E080D88DD8EF50A86EA69EA69CA684E2
:103C2000F250800B01E0010E076EF29E550EA76E5A
:103C3000AA0EA76EA6820750E8B0F28EE8A0F29E08
:103C4000A6B2FED7A6940006000E015A022A03224D
:103C5000DDD742E9E7CFD9FF120065D885E9DA0E52
:103C6000E96E010EEA6E0101EE500224F36FED5091
:103C70000320F46FF3510008040EF45502E2000E25
:103C80000ED000EBE9FF01EBEAFFDAC1EEFFDBC18A
:103C9000EDFF01010250DA270350DB23010E41E959
:103CA000E7CFD9FF12003FD881E941E8010E016E4C
:103CB0000101DA6BDB6BCC0EE66E010EE66E020ED6
:103CC00023D8CE0EE66E010E3BD8D00EE66E010E66
:103CD00037D8D20EE66E010EE66E8C0E15D8D40ED5
:103CE000E66E010EE66E040E0FD8D60EE66E010EDD
:103CF000E66E020E09D8D80EE66E010E21D80150EC
:103D000042E9E7CFD9FF1200E66EE66AA6DF44E992
:103D100001161200010103EBF3F1F46BF3C1AAFFEA
:103D200002EBA9FF1200D9CFE6FFE1CFD9FF1200C5
:103D300004EBE9FF05EBEAFF042A000E052212005E
:083D4000E66E010E84EF1EF097
:083D480042E8D9CFE6FFDACF13
:103D5000E6FFE1CFD9FFE2CFDAFF86E9036A12007E
:103D6000F3DF038003D0F0DF01D00382026A080E84
:103D7000E76ED890013602360050025C02E3026E14
:103D8000012AE72EF7D703B2120003B081EB00F04F
:103D900003A082EB00F0E552E5CFDAFFE7CFD9FFD1
:103DA00043E9120044E8D9CFE6FFDACFE6FFE1CFDE
:103DB000D9FFE2CFDAFF8EE980EB08F081EB09F062
:103DC00082EB0AF083EB0BF004500802F350006E14
:103DD000F450016E04500902F3500126000EF42045
:103DE000026E04500A02F3500226000EF420036E05
:103DF00004500B02F350032605500802F35001262D
:103E0000F4500222000E032205500902F35002264C
:103E1000F450032205500A02F3500326065008020C
:103E2000F3500226F450032206500902F3500326F1
:103E300007500802F3500326E552E5CFDAFFE7CF3B
:063E4000D9FF48E9000C67
:0A3E4600948E949C240EAC6E900E36
:103E5000AB6E330EAF6E1200D9CFE6FFE1CFD9FFC4
:103E600083E941E800EBF6FF01EBF7FF002A000EC3
:103E700001220800F550036E035005E003EBE6FF56
:103E800006D841E9EFD742E9E7CFD9FF12004ED873
:103E9000ACA2FED700EBADFF41E9E7CFD9FF12009E
:103EA000ABA202D0AB98AB88AE5012003FD841E82D
:103EB00080EB02F000380F0B0F0B006E00502BD878
:103EC0000F0E0214006E005026D842E9E7CFD9FF4A
:103ED00012002CD8640E005C05E3640EE66E00EB65
:103EE000E6FF2AD80A0E005C09E30A0EE66E640EAD
:103EF000E66E00EBE6FFB3EC1EF01ED80A0EE66E8F
:103F000000EBE6FFB3EC1EF041E9E75004D841E9CD
:103F1000E7CFD9FF1200F76A1E0FF66E000EF722E8
:103F20000800F5CFE6FFB3DF41E91200D9CFE6FF85
:103F3000E1CFD9FF82E91200B0EC1EF041E9E75071
:043F40008BEF1FF0F4
:0C3F4400D190F26AF16AF06A9368FD0EF9
:103F50008B6ED00E946EC00EC76E200EC66E0F0E06
:103F6000C16E040E896EF80E926E8B809490F29260
:103F7000D08EF19CF28E12003DD883E941E9E7CF63
:103F8000D9FF120037D885E941E9E7CFD9FF120000
:103F900031D881E944E881BA04D081AAFED7010E64
:103FA00007D081B804D081A8FED7020E01D0000E40
:103FB00045E9E7CFD9FF1200F250100B04E0F250B0
:103FC000020B01E0F292F050100B04E0F050020BF3
:103FD00001E0F092F250080B04E0F250010B01E016
:103FE000F290A050020B05E0A150020B02E0A1925A
:0E3FF00089701200D9CFE6FFE1CFD9FF120091
:023FFE0020B2EF
:10400000202020B22020B220B22020202020B22068
:10401000B20D0AB220B220B220B2202020B220205D
:10402000B22020B220200D0AB22020B22020B220DF
:10403000B220B22020B22020B220B20D0AB220203D
:10404000B22020B220B22020B220B220B22020B272
:104050000D0AB22020B22020B220B2202020B220AF
:10406000B2202020B20D0AB2B2B22020B2B2B2B257
:104070000D0AB22020B220B22020200D0AB220204A
:10408000B220B2B2B2B20D0AB22020B220B22020C9
:0E409000200D0AB2B2B22020B2B2B2B20D0AB6
:02409E003E0ED4
:1040A000F66E000EF76E000EF86E01010900F55075
:1040B000EE6F0900F550EF6F03E1EE6701D03DD0E0
:1040C0000900F550E96F0900F550EA6F0900F55055
:1040D000EB6F09000900F550E96E0900F550EA6E32
:1040E000090009000900F550EC6F0900F550ED6F6B
:1040F00009000900F6CFF0F1F7CFF1F1F8CFF2F1B6
:10410000E9C1F6FFEAC1F7FFEBC1F8FF0101EC538B
:1041100002E1ED5307E00900F550EE6EEC07F8E21E
:10412000ED07F9D7F0C1F6FFF1C1F7FFF2C1F8FFD3
:0C4130000101EE07000EEF5BBFD712008C
:04413C00050ED56E29
:10414000F184F294F28AD58E0201B26BB36B120045
:10415000D9CFE6FFE1CFD9FF81E946E8036A046AD7
:10416000F29AF250040B01E0010E056ED650016E7A
:10417000D750026EF250040B01E0010E066E06509D
:10418000055CEFE1055006E0F2940201B22BB2515A
:1041900001E1B32B0201B2510326B3510426F28A86
:1041A00001EBFBF102EBFCF103EBFDF104EBFEF1A3
:0841B00047E9E7CFD9FF120037
:0841B80078000000B4000000D3
:1041C0002C0100001C020000FC030000BC070000E2
:1041D0003C0F00003C1E00003C3C00003C7800000E
:1041E0003CF000003CE001003CC003003C800700C4
:0441F0003C000F0080
:0C41F400D9CFE6FFE1CFD9FF82E941E816
:104200009E96C950026EC69E00EBC9FFC6BEFBD784
:104210009EA6FED742E9E7CFD9FF1200E66AEADFA1
:0642200041E9C950120043
:0A422600800EF36E00EE00F00F0EA4
:1042300001D81200EA6002D0EE6AFCD7F350E960C0
:064240001200EE6AFCD73B
:0A4246001EEE00F02EEE00F0F86A04
:104250004FEC20F007EC00F0A4EC16F0FBD71200B6
:0D4260000277665544332211000004FF0070
:020000040030CA
:0100010006F8
:010002001FDE
:0100030016E6
:01000500807A
:01000600C138
:00000001FF
