:020000040000fa
:080000000002040000000000f2
:020000040000fa
:100400000fa820000eff27000e018800000000004a
:100410000c00070040af2200010020000f00070081
:10042000000020000000e000020032000000020096
:10043000000000002e250200000000000040da004d
:100440000000fe00a02820000000e00002003200b2
:10045000002020009001880000000600a102880012
:10046000800078000000eb001a003700e2804000b6
:1004700054a0b4009101ba00e280400054a0b4003e
:100480009102ba00e280400054a0b4000002eb00e8
:10049000472bde00f507b200a6018800602ce100c2
:1004a00008003a000049eb000201e80002003900b0
:1004b0003420ec0002f0a0008301e900f9ff3e00c7
:1004c000040037006128e100010032000082eb00e7
:1004d000040007001101ba000200e000e3ff3a0047
:1004e0000000060004d0a300e20f49001c00390000
:1004f000810278003549ba000201e80002003900a3
:100500003420ec0002f0a0008301e9000f0032006b
:100510002549ba000201e800020039003420ec004d
:1005200002f0a0008301e900080032000400e000ae
:100530000600320015c9ba000201e80002003900c5
:100540003420ec0002f0a0008301e9008180e80083
:1005500054a0b4000300e000e2ff3a0000000600ef
:100560009102ba00055978008301e900f7ff3200d3
:10057000c82ade00055978008301e900f3ff320044
:100580000400e000f1ff320011d9ba00eeff37009d
:1005900064290400000000008e1604000000000022
:1005a0000040da000000fe00123a80000210a000b5
:1005b0007105200060042000237420008049780029
:1005c00081497800824978000000eb0030318800d2
:1005d000323180000100280081006100808f5000ce
:1005e00006003200313180000000220000806000ef
:1005f00001003a008400070027e6a90027a6a90009
:100600000000060080037800f3cf2f0002302000a6
:100610008001fd002626b6008001fd000200780062
:100620002626b70020318000800b7800263180001c
:100630002531800020318000b00398008001fd004a
:100640002626b6008001fd00020078002626b700ad
:100650002131800021318000213180002131800052
:1006600067429000814f5200e9ff3a0096039800dc
:10067000a503980000000600889fbe008a9fbe0068
:100680000004be00f84090000000eb0092c5b300eb
:1006900082cf500059003e006841900091c5b300e0
:1006a000814f510055003e00d8409000e6cf5000e9
:1006b00052003e004841900041c2b300814f5100ba
:1006c0004e003e00b8409000f2cf50004b003e007c
:1006d000e0cf500049003200a840900012c3b300a0
:1006e00082cf500045003e00e0cf50004300320072
:1006f00091c9b30098cf100040003e00808f540095
:10070000080032001b028000c55dde00e7c5650001
:1007100092028000ff3ffc00000e20004220b70044
:10072000920288003a3180004d55de006105650077
:1007300001003a003400070030318000cf01de00b4
:100740000001eb00828f5100030032001231800063
:100750004f11de0027e6a900f1cf2f008000fd0039
:100760002626b6008000fd00003020002626b700b7
:10077000180078002031880018009000203188008f
:10078000280090002031880038049000283188002b
:10079000e08f51000800320027e6a800e00f51006a
:1007a0000100320023e6a800e00f550005003200ea
:1007b0001500070003003700e00f550001003a0064
:1007c00027a6a90010002000e08f54000b00320083
:1007d00090028000ff3ffc00e7806500c508dd0057
:1007e00013028000f2f12f0002816100810071008c
:1007f0001102880090028800100020004f05be0002
:100800004f04be0000000600100280004500de001c
:10081000e741600091028000ff3ffc00000e2000d5
:100820004220b7009102880051052000313b88002a
:10083000a10a2000313b880027a6a8009102800071
:10084000ff3ffc00678161004511dd00130280005d
:10085000f0f12f000080610002007000100288009b
:100860009102880000000600800178000200370035
:10087000b15978000201e900e00f5100fcff3a0095
:1008800000000600800178000200370081597800de
:100890000201e900e00f5100fcff3a0000000600f1
:020000040000fa
:020000040005f5
:0457f8009e1b0000f4
:020000040000fa
:020000040005f5
:0457fc007f3e0000ec
:020000040000fa
:10000800d0020000d0020000d0020000d0020000a0
:10001800d0020000d0020000d0020000d002000090
:10002800d0020000d0020000d0020000d002000080
:10003800d0020000d0020000d0020000d002000070
:10004800d0020000d0020000d0020000d002000060
:10005800d0020000d0020000d0020000d002000050
:10006800d0020000d0020000d0020000d002000040
:10007800d0020000d0020000d0020000d002000030
:10008800d0020000d0020000d0020000d002000020
:10009800d0020000d0020000d0020000d002000010
:1000a800d0020000d0020000d0020000d002000000
:1000b800d0020000d0020000d0020000d0020000f0
:1000c800d0020000d0020000d0020000d0020000e0
:1000d800d0020000d0020000d0020000d0020000d0
:1000e800d0020000d0020000d0020000d0020000c0
:1000f800d0020000d0020000d0020000d0020000b0
:10010800d0020000d0020000d0020000d00200009f
:10011800d0020000d0020000d0020000d00200008f
:10012800d0020000d0020000d0020000d00200007f
:10013800d0020000d0020000d0020000d00200006f
:10014800d0020000d0020000d0020000d00200005f
:10015800d0020000d0020000d0020000d00200004f
:10016800d0020000d0020000d0020000d00200003f
:10017800d0020000d0020000d2070000d002000028
:10018800d0020000d0020000d0020000d00200001f
:10019800d0020000d0020000d0020000d00200000f
:1001a800d0020000d0020000d0020000d0020000ff
:1001b800d0020000d0020000d0020000d0020000ef
:1001c800d0020000d0020000d0020000d0020000df
:1001d800d0020000d0020000d0020000d0020000cf
:1001e800d0020000d0020000d0020000d0020000bf
:0801f800d0020000d00200005b
:020000040000fa
:10020800d0020000d0020000d0020000d00200009e
:10021800d0020000d0020000d0020000d00200008e
:10022800d0020000d0020000d0020000d00200007e
:10023800d0020000d0020000d0020000d00200006e
:10024800d0020000d0020000d0020000d00200005e
:10025800d0020000d0020000d0020000d00200004e
:10026800d0020000d0020000d0020000d00200003e
:10027800d0020000d0020000d0020000d00200002e
:10028800d0020000d0020000d0020000d00200001e
:10029800d0020000d0020000d0020000d00200000e
:1002a800d0020000d0020000d0020000d0020000fe
:1002b800d0020000d0020000d0020000d0020000ee
:1002c800d0020000d0020000d0020000d0020000de
:1002d800d0020000d0020000d0020000d0020000ce
:1002e800d0020000d0020000d0020000d0020000be
:1002f800d0020000d0020000d0020000d0020000ae
:10030800d0020000d0020000d0020000d00200009d
:10031800d0020000d0020000d0020000d00200008d
:10032800d0020000d0020000d0020000d00200007d
:10033800d0020000d0020000d0020000d00200006d
:10034800d0020000d0020000d0020000d00200005d
:10035800d0020000d0020000d0020000d00200004d
:10036800d0020000d0020000d0020000d00200003d
:10037800d0020000d0020000d2070000d002000026
:10038800d0020000d0020000d0020000d00200001d
:10039800d0020000d0020000d0020000d00200000d
:1003a800d0020000d0020000d0020000d0020000fd
:1003b800d0020000d0020000d0020000d0020000ed
:1003c800d0020000d0020000d0020000d0020000dd
:1003d800d0020000d0020000d0020000d0020000cd
:1003e800d0020000d0020000d0020000d0020000bd
:0803f800d0020000d002000059
:020000040000fa
:1008a000e2000000003200008000000000000000b4
:1008b00000010000002a000050790000002600001e
:1008c0008000000000000000a00000008000000088
:1008d0000000000000000000000000000080000098
:1008e0000000000000080000313200003334000036
:1008f000353600003738000002bc0000000100005f
:10090000010000000000000000000000e7000000ff
:10091000008400000082000000530000010100007c
:10092000007c000000000000ffff0000ffff00004f
:100930000d1c00000072000002bc0000000200005c
:10094000006c00000006000000010000000600002e
:1009500000380000092f0000000400000002000021
:100960004a0400000a46000000020000f0400000b7
:100970000a73000000020000030300000a76000072
:10098000000a000000030000000600004a05000005
:100990004a0600004a070000099600000002000015
:1009a0000f2000000a550000000c000000020000ab
:1009b000000800000a750000000a0000099000000d
:1009c0000008000000060000000200000004000013
:1009d00000240000092f00000004000000020000b5
:1009e000482a00000a46000000020000f040000013
:1009f00009960000000200000aa000000a5500004d
:100a0000000c000000020000000800000a4c00007a
:100a1000000200000990000000080000e70000004c
:100a2000009c0000009a0000000500000203000086
:100a3000009400000000000000080000008e00008c
:100a40000a5a000000080000000100000004000035
:100a5000100700000001000009280000001a000033
:100a6000000a00004d690000637200006f6300001f
:100a70006869000070200000000c00004250000077
:100a8000204d00006f6e0000697400006f7200005e
:100a90002020000009840000000a00000008000077
:100aa00031320000333400003536000037380000a2
:100ab0000a4400000002000002bc0000092d0000f2
:100ac0000012000000010000000e00000001000004
:100ad0000000000000080000444500003132000022
:100ae00034350000363700000a4b000000160000c5
:100af00000020000001200000201000000080000d7
:100b000001050000000100000002000020070000b5
:100b10000202000000020000000000000a45000080
:100b200000100000c02000001f000000ffff0000b8
:100b3000ffff0000000000000000000000000000b7
:100b400000000000098700000008000020110000dc
:100b5000111800001439000000000000e700000038
:100b6000003e0000003c00000054000001010000b5
:100b70000036000000000000ffff0000ffff000043
:100b80000d1d0000002c0000f0000000000000001f
:100b9000000200000024000000010000001200001c
:100ba0000003000000060000007800000050000074
:100bb0000064000020070000120600001210000070
:100bc0000000000000020000000a0000f2580000cf
:100bd00020070000120600001210000000000000b4
:100be00012010000000200000000000000080000e8
:100bf000d8040000430e00000001000001020000c4
:100c000000010000090200003c000000010100009a
:100c100000c00000320900000400000000020000d3
:100c20000f0000000000000004200000020000008f
:100c3000063000000001000007100000070500005a
:100c400082020000400000000004000021010000ba
:100c5000080700000502000002400000000000003c
:100c60000421000001080000040300000904000042
:100c7000340300004d000000690000006300000024
:100c8000720000006f0000006300000068000000b8
:100c90006900000070000000200000005400000007
:100ca0006500000063000000680000006e000000a6
:100cb0006f0000006c0000006f0000006700000083
:100cc0007900000020000000490000006e000000d4
:100cd000630000002e0000002a0300005000000006
:100ce0004800000044000000430000002000000015
:100cf0004200000050000000200000004d000000f5
:100d00006f0000006e000000690000007400000029
:100d10006f0000007200000020000000440000008e
:100d2000650000006d0000006f00000002860000fa
:100d300034860000388600006c860000e300000066
:100d4000002c000000010000000000000000000076
:100d50000000000000000000000000000000000093
:100d60000000000000000000000000000000000083
:100d70000000000000000000000000000000000073
:100d80000000000000000000000000000000000063
:100d9000000000000000000000000000e40000006f
:100da0000002000000000000e5000000000200005a
:040db000000000003f
:020000040000fa
:100db4000200fa009ec0a9000080eb0070248800a5
:100dc4000080eb00502488000000eb0050258800d0
:100dd400620020008000eb00c04a2000a8fe07004b
:100de40020002000302588000000eb00402588000a
:100df4008644a900f009200080248800f00920001e
:100e0400602488008804a800008020004800de00d8
:100e1400c02488000040eb00004f78000800370031
:100e24009e4078000180fb00c200dd0000802000ad
:100e3400008140006000b8000089be001e4fe80039
:100e44009e407800f0c0b30080cf5000f4ff36001d
:100e54009424a8000000eb00b024880094a4a90006
:100e64009424a9000c00370080002000502488003e
:100e74000040eb005ce8b7000040eb0062e8b7001c
:100e840063c8bf006040600063e8b70064c8bf0087
:100e94006040600064e8b70050248000e80060000f
:100ea4000000eb00808f5000efff3a00100020009c
:100eb400f043880010002000004488000000eb008c
:100ec400104488000000eb00204488000000eb0080
:100ed400604388000040eb00004f78001b0037009f
:100ee4009e4078000180fb00018520000000400046
:100ef400008040008000eb00010878009e407800ec
:100f04000180fb008184200000004000008040003c
:100f14008000eb00010878001e4078008080fb0010
:100f240020872000808040000040eb00804878004b
:100f34001e4078008080fb00608720008080400095
:100f44000040eb00804878001e4fe8009e40780087
:100f540030c0b30080cf5000e1ff36000085200090
:100f64008180200001087800d000200050258800ee
:100f7400608820001040880080c0b30000e8b700fb
:100f840040c8b30001e8b7000040eb0042e8b700f6
:100f94000000eb00004288000080fa000000060018
:100fa4003600f800809fbe00829fbe00849fbe0072
:100fb400869fbe003200f8000020200090018800c7
:100fc4000200fa000142800010002000808f5000cf
:100fd4000c003a00a12480000004200080806000fe
:100fe4000000eb00808f500006003a000080eb0008
:100ff400502488008c04a8008c84a80020002000c1
:101004000042880000248000f00060000000eb0033
:10101400808f50000800320010248000f00060002f
:101024000000eb00808f500003003200000120001c
:1010340000248800b904070040248000e200600016
:101044000000eb00808f5000020032008ec0a90027
:10105400b200370050248000e10060000000eb0083
:10106400808f50000b00320060248000e10060009b
:101074000000eb00808f5000060032004cff070098
:101084009ec0a800400020000042880010002000fc
:101094005024880050248000f00060000000eb0021
:1010a400808f50000800320060248000f00060004f
:1010b4000000eb00808f5000030032008b04070017
:1010c400000120005024880050248000e4006000c7
:1010d4000000eb00808f5000190032006024800073
:1010e400e40060000000eb00808f50000400320038
:1010f400120020008000eb0030072000e50f0700fd
:101104004000200050248800a187200091407800ee
:101114000040eb0080cf5000030032007ac8bf00cb
:101124000040e9007ae8b700a187200091407800e8
:101134000040eb0080cf500001003a00b7010700e7
:101144005124800000082000808060000000eb0033
:10115400808f5000070032006124800000082000c6
:10116400808060000000eb00808f5000010032009e
:101174004504070050248000e20060000000eb00fa
:10118400808f50000d00320060248000e200600077
:101194000000eb00808f5000080032001200200095
:1011a4008000eb00f0ff2700ba0f07000080eb007f
:1011b4007024880020002000502488000142800010
:1011c40030002000808f500002003e008ec0a90035
:1011d4005200370060248000e80060000000eb004b
:1011e400808f50004c0032000040eb00004f78002c
:1011f4004300370050248000e80060000000eb004a
:10120400808f50004300320090248000004078001a
:101214006ee8b7006ec8bf000080fb004400de002b
:10122400004078006fe8b700800020005024880058
:101234006ec8bf00e84060000040eb0080cf500063
:1012440012003a006fc8bf000081fb008080fb00e1
:1012540060872000008040009040780061c06000fa
:101264000004a20061406000618720008101410008
:101274006140600013417800e1cfb3008140610018
:1012840000c0700080497800110037006fc8bf00ab
:101294000081fb008080fb0020872000008040004c
:1012a4009040780061c060000004a20061406000ca
:1012b40021872000810141006140600013417800d2
:1012c400e1cfb3008140610000c070008049780024
:1012d400f1862000914078000040eb0080cf500060
:1012e40002003a0019040700040037000001eb0073
:1012f400e186200020072000660f07001e4fe8004b
:101304009e40780030c0b30080cf5000b9ff360053
:1013140001003700000000008ec0a9000080fa0020
:101324003200f9004f03be004f02be004f01be0061
:101334004f00be003600f900004006000400fa0029
:1013440020479800314798003e4090000080fb0001
:10135400e80060000000eb00808f500003003200c2
:101364008040eb002e409000940107003e40900026
:101374000080fb00e40060000000eb00808f500060
:101384000300320011c0b3002e4090008b0107000f
:10139400a14a20002e4090000080fb000000400085
:1013a400008f40001e007800be4090000148780085
:1013b4000080fa00000006000800fa0020479800a8
:1013c400314798002207980063479800be40900078
:1013d4000040eb0080cf5000070032002e40900008
:1013e4000080fb00018520000000400000804000d8
:1013f400100f7800060037002e4090000080fb009c
:10140400818420000000400000804000100f78001c
:101414009e0078000000eb00808f500002003a002c
:101424000000eb0031003700ae0090001e00780091
:10143400110098001e007800ee40900001487800ea
:101444001e007800104090000044b2009e00780016
:10145400904098001e0078009040900080c8b3002f
:1014640000c070009e00780090409800be4090003c
:101474000040eb0080cf50000e00320001852000b8
:101484002e4090000080fb0000004000808040005f
:10149400028520002e4090000080fb0000004000e8
:1014a40000004100104078000024a2008048780029
:1014b4000d003700818420002e4090000080fb0046
:1014c4000000400080804000828420002e40900074
:1014d4000080fb0000004000000041001040780044
:1014e4000024a200804878001e0078000080fa00e2
:1014f400000006000400fa002047980031479800d5
:10150400ae4090000040eb0080cf50000e003a0047
:101514003142800080c0b3008048780030428000af
:10152400618820001100980031428000c0c8b300d7
:1015340090409800008520009000780040c8b300d7
:1015440090409800220037002e4090000080fb005d
:1015540000004000800078003e4090000080fb00c6
:10156400008040004300dd008000780000802000ff
:10157400008f40001e0078009040900040c8b300e7
:1015840000c070009e007800904098002e409000ab
:101594000080fb0000004000800078003e40900086
:1015a4000080fb00008040004300dd00e4004000b8
:1015b40000802000008f40001e00780090409000c2
:1015c40040c8b30000c070009e00780090409800ae
:1015d4000080fa00000006000200fa00004f7800c4
:1015e400a124800000022000808060000000eb0045
:1015f400808f50005b0032009e4078000180fb0029
:1016040001852000000040000080400010027800a6
:101614001e4178000280fb0001852000000040008c
:1016240000804000100078001001be00000420007b
:101634000100200082027800030178008001780014
:101644000100780083826200000061000100200034
:10165400c000dd00000020000001be006128b800c9
:101664000001710081817100028abe009e417800f0
:101674000380fb0001852000000040000080400042
:10168400100278009e4078000180fb000185200054
:101694000000400000804000100078001001be00ef
:1016a400000420000100200000006900818069001e
:1016b400008abe00018520001e4178000280fb00e4
:1016c4000000400080804000028520009e41780098
:1016d4000380fb000000400000004100104078003f
:1016e4000024a200804878009e4078000180fb001e
:1016f4000185200000004000008040009000780038
:101704001e4178000280fb0002852000000040009a
:101714000000410010007800104090000044b20026
:10172400904098009e4178000380fb0001852000d2
:101734000000400000804000100178009e407800c6
:101744000180fb0001852000000040000080400073
:10175400100078009040900000c4b30000c06800fe
:10176400104198000080fa00000006000000fa0012
:101774000000eb00a02488000000eb006024880037
:101784000000eb00004288000080fa000000060020
:101794000000fa00014280000000eb00808f50003e
:1017a4001c003a0020248000e80060000000eb00e8
:1017b400808f5000170032000000eb00a024880046
:1017c4000000eb0060248800200020003025880001
:1017d4000000eb00402588008644a900f0092000a1
:1017e40080248800f0092000602488009ec0a8009e
:1017f400010037009404a800a0248000e1006000e8
:101804000000eb00808f5000faff3200100020002f
:10181400004288000080fa00000006000000fa0080
:10182400f14380000000eb00808f500031003a004b
:1018340010002000f0438800014480000000eb0009
:10184400808f50002b003a001000200000448800d4
:10185400918520009140780020c0b30080cf5000d3
:1018640009003a0000852000900078000040eb0059
:1018740080487800008520009000780080ccb30078
:10188400904098001b00370091852000914078001b
:1018940010c0b30080cf500016003a000000eb00e7
:1018a400804388002142800080c0b30080487800d3
:1018b40020428000618820001100980021428000ad
:1018c40040c8b30090409800100020008043880076
:1018d4003142800080c0b3008048780030428000ec
:1018e40061882000110098003142800000c8b300d4
:1018f400904098000080fa00000006000000fa0002
:101904000000eb00104488000000eb002044880035
:10191400918520009140780020c0b30080cf500012
:101924000a003a003142800080c0b3008048780049
:1019340030428000e188200011009800314280008c
:1019440080ccb300904098001a0037008cc8bf00c8
:101954008080fb008dc8bf000080fb004800dd00d4
:101964000100700080007800f0428000808f5000f9
:10197400070031008cc8bf008080fb008dc8bf0009
:101984000080fb004800dd0001007000f042880088
:10199400920007000085200010007800e1882000f4
:1019a40011009800008520009000780080ccb300de
:1019b400904098000080fa00000006000400fa003d
:1019c400204798003147980000802000000f7800dd
:1019d4002e4090000080fb00000040008000780052
:1019e4003e4090000080fb00008040004300dd008a
:1019f4001e0f40001e00780010017800f1ff270040
:101a04008100610001087800be4090000040eb00b6
:101a140080cf500007003a002e4090000080fb0069
:101a24008184200000004000008040001e087800ef
:101a3400060037002e4090000080fb000185200046
:101a440000004000008040001e0878001e0078005e
:101a540010017800f1ff2b0081006100010878007b
:101a64009e0078006480400010017800010024008a
:101a740081007100010878000080fa00000006006f
:101a84000000fa0094a4a900e142800000082000ac
:101a9400808060000000eb00808f500021003a003d
:101aa400218620009140780000c8b30080c0600007
:101ab4000040eb0080cf50000c00320020c0b30087
:101ac40059e8b700214480000000eb00808f5000eb
:101ad40001003a0089ff07000000eb000044880081
:101ae4000000eb00f04388003a00370031428000e8
:101af40080c0b300804878003042800061882000b4
:101b04001100980031428000c0c8b3009040980092
:101b1400008520009000780040c8b30090409800f1
:101b24002c003700618820009140780000c8b30081
:101b340080c060000040eb0080cf500011003200f4
:101b440010c0b30059e8b700114480000000eb0056
:101b5400808f500001003a0068ff07000000eb008e
:101b6400004488000000eb00f0438800e14380005b
:101b74000000eb00808f500016003a0027ff07009a
:101b84001400370020c0b30059e8b7003142800088
:101b940080c0b30080487800304280006188200013
:101ba400110098003142800040c8b3009040980072
:101bb4000000eb00004488000000eb00f0438800c4
:101bc400e14380000000eb00808f500001003a00e8
:101bd40012ff07000080fa00000006000200fa006d
:101be40080c0b300004f7800f142800070002000f4
:101bf400808f500011003e00f0428000004f7800ba
:101c040081852000914078000040eb0080cf500097
:101c140003003a0010c0b30058e8b70007003700cb
:101c2400818520009140780010c0b30080cf50001f
:101c340002003a0020c0b30058e8b700f142800027
:101c44001e4178000280fb0000805000f0428800b2
:101c540000852000100078001e487800e0882000ed
:101c640040438800e0428000e10060000000eb0097
:101c7400808f500018003a0009003700424380006a
:101c8400d142800011407800004978000200e80049
:101c9400404388000100e800d04288001e4fe9005c
:101ca4009e4078000040eb0080cf5000f3ff3a00e4
:101cb4000d00370042438000d1428000114078007b
:101cc400004978000200e800404388000100e80071
:101cd400d04288001e4fe9009e4078000040eb008f
:101ce40080cf5000f3ff3a000080fa0000000600a5
:101cf4000200fa0020428000104f78001e40780055
:101d04008080fb0063c8bf000081fb0064c8bf0083
:101d14000080fb004800dd0002007000808f50004e
:101d24000700360063c8bf008080fb0064c8bf00a2
:101d34000080fb004800dd0001007000004f7800c7
:101d440063c8bf008080fb0064c8bf000080fb0044
:101d54004800dd0001007000800078001e4178001a
:101d64000280fb0080805000f00f200000816000a2
:101d740063c8bf00604060000240700063e8b700c1
:101d8400c808de0064c8bf00604060000140700005
:101d940064e8b7000040eb00104798001c003700cf
:101da40060c8bf008080fb0061c8bf000080fb00ea
:101db4004800dd0001007000800078001e409000a3
:101dc4000081fb00e0882000000041001040780002
:101dd400804878008100e800f00f20000081600056
:101de40060c8bf00604060000240700060e8b70057
:101df400c808de0061c8bf00604060000140700098
:101e040061e8b7001e4090000040e80010479800c9
:101e14009e4090001e40780080cf5000e0ff3900c3
:101e240063c8bf008080fb0064c8bf000080fb0063
:101e34004800dd0001007000800078000000eb0025
:101e4400808f5000150032003142800080c0b30002
:101e54008048780030428000e1882000110098001a
:101e64002042800090007800000024008080600000
:101e74000000eb00808f500004003a0031428000e3
:101e840080ccb30090409800240037003142800099
:101e940080c8b30090409800200037003142800091
:101ea40080c0b30080487800304280006188200000
:101eb400110098003142800040c8b300904098005f
:101ec40065c8bf008080fb0066c8bf000080fb00bf
:101ed4004800dd0001007000800078000000eb0085
:101ee400808f50000700320065c8bf008080fb006f
:101ef40066c8bf000080fb004800dd0001007000e0
:101f04000000010062e8a900e14380000000eb004a
:101f1400808f500001003a0040fe07000080fa0064
:101f2400000006000200fa005ce8a800620020003d
:101f34008000eb00c04a200051fa07000204200090
:101f44008000eb00008020004dfa07009424a800d4
:101f54000040eb00004f78000d0037001e40780071
:101f64008080fb0020872000808040000040eb0040
:101f7400804878001e4078008080fb006087200045
:101f8400808040000040eb00804878001e4fe8004d
:101f94009e40780030c0b30080cf5000efff360081
:101fa400120020008000eb003084200034fa070087
:101fb4009424a90000852000818020000108780075
:101fc40000802000204288002042800030428800a7
:101fd40088c8bf0042e8b7002184200091407800ff
:101fe4000040eb0080cf500003003a0000012000c5
:101ff40000428800060037001200200021842000df
:1020040010002000230c070000022000004288007a
:102014000080fa00000006000000fa006188200039
:102024009140780000c8b30080cf50003b003a00d4
:1020340000ccb3005ce8b70089c8bf000080fb0097
:1020440021002000810f50000b00320031002000dd
:10205400810f50001900320011002000810f500040
:102064002b003a00005f2800d042880020012000a5
:10207400f04288002900370088c8bf000080fb00b8
:102084000000400080007800606928000080400063
:1020940010007800d0428800d04280000080e80020
:1020a400104078005ee8b700d04280006300400032
:1020b400104078005fe8b7001800370081882000de
:1020c4009140780020c0b30080cf50000d003e0046
:1020d40088c8bf000080fb0000004000800078003a
:1020e400806928000080400010007800d0428800f9
:1020f400d0428000104078000080fb00f04288004d
:10210400060037000040eb005ce8b700030037002e
:102114000040eb005ce8b700000000000080fa001b
:10212400000006000200fa000040eb008ee8b70051
:102134000040eb008fe8b70086c8bf007f40600016
:102144000080fb0011002000810f500012003200bb
:1021540021002000810f5000110032008000eb00ac
:10216400810f50003b003a005ce8a8008ec8bf0015
:102174000004a0008ee8b700514380001000200046
:10218400808f50002e003a008ec8bf000014a000bb
:102194008ee8b7002f0037005ce8a8002d00370058
:1021a4005ce8a800a18820009140780000c8b30032
:1021b40080c060000040eb0080cf500008003a006f
:1021c4008ac8bf006f4060000080fb00818420004b
:1021d4000000400000804000100f78000700370026
:1021e4008ac8bf006f4060000080fb0001852000aa
:1021f4000000400000804000100f78001e007800ae
:102204009000780000002800808060000000eb004f
:10221400808f50000c0032001e007800900078007f
:1022240000402000808060000000eb00808f5000a0
:102234000700320010c0b3008ee8b7000500370075
:102244000000000003003700000000000100370018
:1022540000000000e142800000082000808060004f
:102264000000eb00808f500005003200e088200061
:10227400d04288005c08a80020c0b3005ee8b70024
:102284000080fa00000006000000fa0050258000db
:10229400e20060000000eb00808f50000f0032006d
:1022a400204280009040900000c8b30080cf5000ce
:1022b40009003a000085200010007800904090004a
:1022c40040c8b30080cf500003003a002142800090
:1022d400c0c8b30090409800aa24a90000082000b8
:1022e400502488000080fa00000006000000fa0074
:1022f4008284a800000120005024880010002000df
:10230400604388000001eb008000eb0050072000d0
:10231400600b07000080fa00000006000000fa00cd
:102324000000eb00604388000001eb008000eb003c
:1023340040072000570b07008284a90000012000f9
:10234400002488000080fa00000006000200fa0061
:10235400d0c2b3007ae8b7006ec8bf008080fb002b
:10236400b0ff2f00808060000000eb00808f5000e1
:1023740032003a006ec8bf000080fb004200de005d
:10238400004078000080fb00c200dd0000802000d7
:1023940000804000204288002042800030428800b3
:1023a4006184200060842000104078000024a20092
:1023b40080487800204280009000780000c023000c
:1023c4008080600000402300808f500019003a0094
:1023d4000040eb00004f78000d0037001e407800ed
:1023e4008080fb00608820008080400020428000c4
:1023f400100090001040780080487800204280004f
:10240400900090008100e800110098001e4fe80041
:102414009e40780070c0b30080cf5000efff3600bc
:102424002042800061882000110098000d00070000
:102434000a00370049000700080037006ec8bf00d3
:102444008080fb00b0ff2f008080600080002000af
:10245400808f500001003a005c0007000080fa0001
:10246400000006000000fa000040eb0058e8b70046
:102474000000eb00e04388000000eb0010448800fb
:102484000000eb00204488000000eb00804388003b
:102494000040eb0059e8b700008520009000780068
:1024a4000085200010007800104090000074a10006
:1024b400904098000185200000852000104078009d
:1024c4000024a20080487800008520009000780055
:1024d4000085200010007800104090000074a100d6
:1024e400904098000185200000852000104078006d
:1024f4000024a200804878003142800030428000ed
:10250400104090000074a100904098000040eb003f
:102514005ce8b7000000eb00f04288000040eb00ec
:1025240062e8b70063c8bf006040600063e8b700ba
:1025340064c8bf006040600064e8b7007e00070024
:102544000001eb008000eb0030002000d10a0700fe
:102554004bfd07000080fa00000006000000fa00ae
:10256400918520009140780020c0b30080cf5000b6
:1025740002003a00defd0700120037000040eb00c5
:1025840059e8b700814380000000eb00808f5000c1
:102594000a003a003142800080c0b30080487800cd
:1025a4003042800061882000110098003142800090
:1025b400c0c8b30090409800020037000000eb0050
:1025c400804388000080fa00000006000200fa0040
:1025d4000085200010007800100078004e00de0016
:1025e40061406000004f78000185200000852000d4
:1025f400104078000024a200804878000142800046
:1026040080002000808f50000c003a0088c8bf0072
:102614000080fb00b0248800b12480000000eb009f
:10262400808f500003003200000120000042880027
:1026340002003700400020000042880091852000fd
:102644009140780010c0b30080cf50001d003a00c4
:102654000085200010007800e18820001100980017
:102664005efd0700818520009140780020c0b30002
:1026740080cf500005003a000085200090007800cb
:1026840040c8b30090409800290037009e4078006d
:102694000040eb0080cf500005003a000085200088
:1026a4009000780080ccb300904098002000370060
:1026b400008520009000780080c8b3009040980006
:1026c4001b003700218620009140780000c8b30029
:1026d40080c060000040eb0080cf50001200320048
:1026e40065c8bf008080fb0066c8bf000080fb0097
:1026f4004800dd0001007000800078000000eb005d
:10270400808f50000700320065c8bf008080fb0046
:1027140066c8bf000080fb004800dd0001007000b7
:102724000000010062e8a9000040eb0059e8b7008e
:102734000080fa00000006000000fa0086c8bf000e
:1027440002c6b300824060000040eb0080cf50001e
:102754003f003a0087c8bf000080fb00cf80de0046
:10276400b200200003002000820f5000838f580025
:1027740039003e00006001001a0037001b003700da
:1027840037003700190037003500370006003700de
:1027940009003700290037000b0037000800370014
:1027a400140037001d0037005ce8a80080002000fa
:1027b400004288002b00370017fe0700290037006d
:1027c400d8fd07002700370020842000d04288006d
:1027d4005c08a80010c0b3005ee8b7005ce8a8007d
:1027e400200037004ffe07001e0037001f000700bf
:1027f4001c0037008ac8bf008080fb0030842000a2
:1028040000804000d04288005c08a80010c0b300db
:102814005ee8b7005ce8a800120037005ce8a80096
:102824008ac8bf000081fb0088c8bf003184200033
:1028340081004100804878000a0037000001eb0065
:102844008000eb0020002000120a0700050037007a
:102854000000000003003700000000000100370002
:10286400000000000080fa00000006000600fa00e4
:10287400818820009140780010c0b30080cf5000c0
:1028840010003a0086c8bf00ff4060000040eb0023
:1028940080cf50000b003a005ce8a800718820004b
:1028a4009140780030c0b30080cf500003003a005c
:1028b4001000200050438800020037000000eb00a5
:1028c4005043880081882000914078000040eb004c
:1028d40080cf5000f9003a0086c8bf00ff40600076
:1028e40020c0b30080cf5000f4003a008ac8bf0073
:1028f400ef4060000040eb0080cf5000ef0032005a
:102904008ac8bf006f4060008080fb003000200058
:10291400808f5000e9003c0001428000000220004a
:10292400808f5000e5003a005ce8a800a1882000f0
:102934009140780000c8b30080c060000040eb0004
:1029440080cf500010003a008ac8bf006f4060007a
:102954000080fb00818420000000400000804000d3
:1029640010007800100798008ac8bf006f4060000c
:102974008080fb00608720000080400010407800c9
:10298400404798000f0037008ac8bf006f406000be
:102994000080fb0001852000000040000080400012
:1029a40010007800100798008ac8bf006f406000cc
:1029b4008080fb00208720000080400010407800c9
:1029c400404798004e409000e14060000040eb001a
:1029d40080cf500007003a000e81e8000e80e80026
:1029e40090407800b0cfb30000c060000049780088
:1029f400050037008e80e8000e80e8001040780063
:102a04000024a00080487800a1882000914078002c
:102a140000c8b30080c060000040eb0080cf5000cd
:102a240009003a008ac8bf006f4060000080fb00c4
:102a34009e009000828420000000400000004100bd
:102a440001087800080037008ac8bf006f406000a2
:102a54000080fb009e0090000285200000004000e2
:102a6400000041000108780071882000914078003e
:102a740030c0b30080cf500026003a001e00900002
:102a84009000780000002800808060000000eb00c7
:102a9400808f500018003200a188200091407800f7
:102aa40000c8b30080c060000040eb0080cf50003d
:102ab40009003a008ac8bf006f4060008080fb00b4
:102ac4006087200080804000114078000014a0003e
:102ad40080487800080037008ac8bf006f40600053
:102ae4008080fb0020872000808040001140780017
:102af4000014a000804878001e0190001e00900081
:102b04009040900040c8b30000c07000104198008d
:102b14006a0037008e80e8000e80e80010407800dc
:102b24000024a200804878001e00900090007800e5
:102b340000002800808060000000eb00808f5000bf
:102b4400110032009e0090001e0090001040900082
:102b54000074a100904098001e0190001e00900097
:102b64009040900000c4b30000c070001041980071
:102b74001e009000220020008000780050002000f9
:102b840044090700060037001e0190001e00900053
:102b94009040900000c4b30000c070001041980041
:102ba4008e80e8000e80e800104078000024a20027
:102bb400804878004e409000e24060000040eb0006
:102bc40080cf500007003a001e009000900078006b
:102bd40000002800808060000000eb00808f50001f
:102be40025003200a18820009140780000c8b3007d
:102bf40080c060000040eb0080cf50000a003a0023
:102c04008ac8bf006f4060008080fb00608720009e
:102c14000081400092407800d0cfb30000c0600033
:102c240000497800090037008ac8bf006f4060007f
:102c34008080fb00208720000081400092407800c3
:102c4400d0cfb30000c06000004978009e0090001f
:102c54001e00900010409000b043b20090409800d5
:102c64001e00900022002000800078005000200008
:102c740008090700050037009e0090001e00900020
:102c840010409000b043b20090409800a14a200048
:102c94008ac8bf006f4060000080fb000000400055
:102ca400008f40001e00780090407800d0cfb30021
:102cb40000c060009e007800804878000080fa0020
:102cc400000006000200fa00000f780010c0b300f4
:102cd400d4e8b7001e00780090468800e068210020
:102ce400d404070010c0b300d4e8b700f50307000c
:102cf4000000eb00404788000080fa000000060056
:102d04000200fa00000f78001e0078005047880087
:102d14000080fa00000006000c00fa00004f980042
:102d2400510798000e4890000080fb00210020000d
:102d3400810f50001200320031002000810f50003a
:102d44001700320011002000810f50002a003a00c1
:102d5400418d20009140780030c0b30080cf5000f6
:102d640027003a0040c0b300d4e8b70010002000a8
:102d7400e046880000712200f046880021003700f8
:102d8400504780000001eb008000780080c0b30051
:102d9400c8040700504780001c00070019003700d2
:102da4005e009000000f78005047800010079800e4
:102db4001e00900010009000c800dd004800de00f6
:102dc40000807000200798001e009000100078001a
:102dd400c800dd004800de00008070003007980065
:102de4002e009000e40040001e00780001087800e6
:102df400000000000300370000000000010037005d
:102e0400000000000080fa00000006000600fa003e
:102e1400200798002e00900010407800304798005a
:102e24002e0090000000e800104078002047980031
:102e34002e0090000080e8001040780010479800b1
:102e44002e0090006300400010407800004f78008e
:102e54001e00900001402e00810f50001a00320025
:102e640001402e00810f500007003e0001202e007b
:102e7400810f50000e00320001302e00810f5000ef
:102e84000e0032001c00370001602e00810f50003c
:102e94001300320001702e00810f50001300320025
:102ea40001502e00810f50000a003200120037003a
:102eb4002e00900070000700270037002e009000bd
:102ec40094000700240037002e009000370207000a
:102ed400210037002e0090001a0207001e00370060
:102ee4002e009000630207001b0037002e009000a4
:102ef400d300070018003700418d2000914078006e
:102f040020c0b30080cf50000f003200418d20005c
:102f14009140780040c0b30080cf50000a003200d6
:102f2400418d20009140780050c0b30080cf500004
:102f340005003200418d20009140780060c0b3004c
:102f440080cf500003003a000000eb00530207005a
:102f540001003700000000000080fa0000000600b5
:102f64000000fa00418d20009140780010c0b300a9
:102f740080cf500012003a0020c0b300d4e8b7005c
:102f840013002000620320000145280080c0b30024
:102f940089040700504780000001eb00800078009e
:102fa40080c0b3004304070010002000b04688002e
:102fb40000712200c046880030c0b300dae8b700d0
:102fc4000080fa00000006000000fa00418d200095
:102fd4009140780020c0b30080cf5000110032002f
:102fe400418d20009140780060c0b30080cf500034
:102ff4000c003200418d20009140780010c0b300d5
:1030040080cf50000700320060c0b300d4e8b7009e
:103014001300200062002000e16c280080c0b3008f
:1030240065040700270307000080fa00000006007b
:103034000000fa00504780008001eb0022042000c9
:103044008000780080c0b3005b0407005047800014
:103054000001eb008000780080c0b3001504070075
:10306400100020002047880080bb200030478800e3
:103074000080fa00000006000200fa00000f780049
:10308400418d20009140780020c0b30080cf5000d3
:103094000d003a0010c0b300d4e8b70013002000bc
:1030a40002032000e169280080c0b3004204070045
:1030b400504780000001eb008000780080c0b3001e
:1030c400fc03070011003700418d20009140780077
:1030d40050c0b30080cf50000a003200418d200060
:1030e4009140780040c0b30080cf5000050032000a
:1030f400418d20009140780060c0b30080cf500023
:1031040002003a000000eb00e40107000080fa002e
:10311400000006000a00fa00400798000000eb00d7
:10312400b04688004e009000104078005047980048
:103134004e0090000000e8001040780040479800de
:103144004e0090000080e80010407800304798005e
:103154004e00900063004000104078002047980023
:10316400418d20009140780050c0b30080cf5000c2
:103174000a003200418d20009140780040c0b30025
:1031840080cf500005003200418d2000914078002e
:1031940060c0b30080cf500003003a000000eb0091
:1031a400be01070024003700418d200091407800c3
:1031b40020c0b30080cf50001f003a00ae00900042
:1031c40000302e00808f50001b003a004e0090000b
:1031d400640f40004e0090006400400010407800ee
:1031e400704798004e009000650040001040780041
:1031f40060479800be00900030002000808f50008f
:1032040008003a0030c0b300d4e8b700130020002f
:10321400820820006148280080c0b300e60307004c
:103224000500370050c0b300d4e8b70091468000d1
:1032340020c0b300010001000080fa000000060075
:103244001000fa00700798007e0090000080e800eb
:1032540010407800104f98007e00900063004000fa
:1032640010407800004f98007e00900068004000f5
:1032740010407800104798007e00900069004000dc
:1032840010407800004f78007e00900066004000f7
:1032940010407800504798007e009000670040007e
:1032a4001040780040479800ce009000f00f2000b6
:1032b400808f5000030036002e0090007101200022
:1032c400ce010700418d20009140780060c0b3001a
:1032d40080cf500009003a009e00780000302000a2
:1032e400808f50000200320000402000000f780060
:1032f4000000eb006901070010013700418d200038
:103304009140780020c0b30080cf500003003a0001
:103314000000eb006101070008013700418d200027
:103324009140780040c0b30080cf500005003200c7
:10333400418d20009140780030c0b30080cf500010
:1033440053003a009e00780010202000808f500027
:103354001d003a007e009000780040001040780084
:10336400304798007e0090007900400010407800bb
:10337400204798009e0090000000eb00808f5000d2
:1033840008003a0050c0b300d4e8b700914680006a
:1033940020c0b300010001000000eb00e0468800fb
:1033a400e60037009e00900010002000808f50003f
:1033b400e1003a0060c0b300d4e8b7001000200078
:1033c40062010700dd0037009e0078003010200005
:1033d400808f500013003a007e0090006c00400083
:1033e40010407800704798007e0090006d00400007
:1033f4001040780060479800be0090000000eb0089
:10340400808f500003003a007e00900038020700cd
:10341400ca0037002e009000110020007701070039
:10342400c60037009e00780000102000808f5000f6
:10343400100032009e00780010102000808f500091
:103444000c0032009e00780040102000808f500055
:10345400080032009e00780050102000808f500039
:10346400040032009e00780060102000808f50001d
:1034740004003a002e009000110020005f010700b4
:10348400ae0037000000eb0004010700ab0037007a
:10349400418d20009140780050c0b30080cf50008f
:1034a400a6003a009e00780030102000808f500063
:1034b40013003a007e0090006c0040001040780039
:1034c400704798007e0090006d0040001040780026
:1034d40060479800be0090000000eb00808f500011
:1034e40003003a007e0090000102070093003700b9
:1034f4002e00900011002000400107008f003700cb
:103504009e00780010202000808f500012003a00a6
:103514007e0090007200400010407800304f980008
:103524007e0090007300400010407800204f980007
:10353400de009000d0d12000808f50007f003a0040
:103544000000eb00204788009146800040c0b30093
:1035540001000100790037009e00780070102000ff
:10356400808f500065003a007e0090006e0040009d
:1035740010407800504f98007e0090006f0040008b
:1035840010407800404f9800ee00900070c1200079
:10359400808f500055003a007e0090004b020700d7
:1035a40010002000404788005147800070ceb300cf
:1035b40080487800504780008000e8000040eb001d
:1035c40080487800504780008080e8000040eb008d
:1035d4008048780050478000e3004000e0c0b3001a
:1035e4008048780050478000e40040000040eb0031
:1035f4008048780050478000e5004000c0c0b30018
:103604008048780050478000e60040002e0090007b
:103614004800de0000407800804878005047800071
:10362400e70040002e0090000040780080487800b9
:1036340050478000e800400020c0b3008048780074
:1036440050478000e900400070c0b3008048780013
:1036540050478000ea0040000040eb0080487800ba
:1036640050478000eb00400060c0b3008048780001
:1036740050478000ec0040000040eb008048780098
:1036840050478000ed0040000040eb008048780087
:1036940050478000ee004000c0c0b300804878006e
:1036a40050478000ef00400070c1b30080487800ac
:1036b40050478000f00040000040eb008048780054
:1036c40050478000f10040000040eb008048780043
:1036d400504780008001eb00220120008000780028
:1036e40080c0b300b4020700140037002e0090001d
:1036f40091002000c1000700100037009e007800f0
:1037040040102000808f500004003a002e009000ea
:1037140091002000b9000700080037009e007800df
:1037240030202000808f500004003a000000eb009d
:103734005a00070001003700000000000080fa0072
:10374400000006000200fa00000f7800418d2000fe
:103754009140780020c0b30080cf50000f003200a9
:10376400418d20009140780040c0b30080cf5000cc
:103774000a003200418d20009140780060c0b300ff
:1037840080cf500005003200418d20009140780028
:1037940050c0b30080cf500002003a000000eb009c
:1037a4003e0007000080fa00000006000200fa0054
:1037b400000f7800418d20009140780020c0b300b4
:1037c40080cf500003003a000000eb0033000700f4
:1037d40024003700418d20009140780060c0b30080
:1037e40080cf500006003a00130020006200200041
:1037f400416d280080c0b3006f0207001900370034
:10380400418d20009140780050c0b30080cf50001b
:103814000a003200418d20009140780030c0b3008e
:1038240080cf500005003200418d20009140780087
:1038340040c0b30080cf50000a003a0010c0b3006b
:10384400d4e8b7001300200062002000416d280076
:1038540080c0b30058020700914680000040eb008e
:10386400010001000000eb00004788000080fa001e
:10387400000006000200fa00000f780010c0b30038
:10388400d4e8b700914680000040eb00010001003d
:103894000c0107000080fa00000006000200fa0094
:1038a400000f78005147800060ceb3008048780054
:1038b400504780008000e8000040eb00804878001a
:1038c400504780008080e8000040eb00804878008a
:1038d40050478000e300400020c0b30080487800d7
:1038e40050478000e40040001e007800004078004b
:1038f4000080fb004880de000040780080487800ab
:1039040050478000e50040001e0078000040780029
:103914008048780010c0b300d4e8b7005047800056
:103924008001eb00620020008000780080c0b300ba
:1039340021020700914680000040eb0001000100d5
:10394400e00007000080fa00000006000200fa0010
:10395400000f78005147800040ceb30080487800c3
:10396400504780008000e8000040eb008048780069
:10397400504780008080e8000040eb0080487800d9
:1039840050478000e300400020c0b3008048780026
:1039940050478000e40040001e007800004078009a
:1039a4000080fb004880de000040780080487800fa
:1039b40050478000e50040001e0078000040780079
:1039c4008048780060c0b300d4e8b7005047800056
:1039d4008001eb00620020008000780080c0b3000a
:1039e400f5010700100020000047880080bb20007c
:1039f400104788000080fa00000006000400fa0066
:103a0400000f7800110798005147800070ceb30072
:103a140080487800504780008000e8000040eb00b8
:103a240080487800504780008080e8000040eb0028
:103a34008048780050478000e3004000c0c0b300d5
:103a44008048780050478000e40040000040eb00cc
:103a54008048780050478000e5004000a0c0b300d3
:103a64008048780050478000e60040001e0078003f
:103a74004800de000040780080487800504780000d
:103a8400e70040001e00780000407800804878007d
:103a940050478000e800400030c0b3008048780000
:103aa40050478000e90040000040eb008048780067
:103ab40050478000ea0040000040eb008048780056
:103ac40050478000eb00400040c0b30080487800bd
:103ad40050478000ec0040001e0090004800de00cb
:103ae400004078008048780050478000ed00400096
:103af4001e00900000407800804878005047800005
:103b0400ee0040000040eb00804878005047800001
:103b1400ef0040000040eb008048780050478000f0
:103b24008001eb00020120008000780080c0b30017
:103b3400a10107000080fa00000006000000fa005e
:103b4400b146800010002000808f500029003a0008
:103b5400418d20009140780020c0b30080cf5000f8
:103b640024003a00c04680000000e900c0468800f6
:103b7400c14680000000eb00808f50001d003c0017
:103b8400a18d2000914078000040eb0080cf5000d0
:103b940014003400dac8bf000040e900dae8b700d6
:103ba40020c0b300d4e8b700130020006203200053
:103bb4000145280080c0b3007f0107005047800002
:103bc4000001eb008000780080c0b30039010700d9
:103bd40010002000b046880000712200c046880012
:103be400040037000000eb00b046880020002000ed
:103bf4002aff0700e146800010002000808f50005b
:103c040010003a00418d20009140780040c0b3007c
:103c140080cf50000b003a00f04680000000e9001d
:103c2400f0468800f14680000000eb00808f5000d1
:103c340004003c000000eb00e04688002000200067
:103c440016ff07000147800010002000808f5000fd
:103c54000b003a00104780000000e900104788007c
:103c6400114780000000eb00808f500004003c00ee
:103c74000000eb00004788002000200007ff070039
:103c84002147800010002000808f50000b003a0074
:103c9400304780000000e900304788003147800049
:103ca4000000eb00808f500004003c000000eb009b
:103cb4002047880020002000f8fe07000080fa005a
:103cc400000006000000fa000000eb00b046880087
:103cd4000000eb00e04688000000eb00004788008d
:103ce4000000eb00204788000080fa000000060076
:103cf4001200fa00000f98000e08900066004000c1
:103d040010407800504798000e089000670040006b
:103d140010407800404798000e0890006e00400064
:103d240010407800304798000e0890006f00400063
:103d340010407800204798009e0090000000eb009f
:103d4400808f50005c003a00e05028003007980053
:103d54000000eb00000f7800080037005047800097
:103d64001e014000be009000114078000049780018
:103d74000100e800300798001e0fe800f009200059
:103d84009e007800808f5000f4ff3600504780007a
:103d9400e60040002e0090004800de00004078005d
:103da4008048780050478000e70040002e009000d3
:103db40000407800804878006800470010f207004f
:103dc40050478000810920008080400000c2b30079
:103dd400804878005047800091092000808040008e
:103de4000e4890008048780050478000a1092000c8
:103df400808040003e489000804878005047800012
:103e0400b1092000808040002e489000804878004e
:103e140050478000c1092000808040004e48900037
:103e24008048780050478000d109200080804000fd
:103e34007e4890008048780050478000e1092000c7
:103e4400808040006e489000804878005047800091
:103e5400f1092000808040000040eb008048780099
:103e64004147800010002000808f500006003a0077
:103e740050478000510820008080400000cab300f1
:103e84008048780005003700504780005108200022
:103e94008080400000c2b300804878005047800012
:103ea4008001eb00020a20008000780080c0b3008b
:103eb400c1000700030037002e009000810120009c
:103ec400cefe07000080fa00000006000a00fa0097
:103ed400400798004e0090007300400010407800a6
:103ee400004f78004e0090007400400010407800ad
:103ef400304798004e009000750040001040780054
:103f0400204798004e009000760040001040780052
:103f1400404798004e009000770040001040780021
:103f2400704798004e0090007800400010407800e0
:103f340060479800110020000e007800cdf10700c2
:103f44000080fa00000006000000fa0086c8bf00e6
:103f5400ff40600010c0b30080cf50002a003a0038
:103f640086c8bf0002c6b3008240600000c2b3002e
:103f740080cf500026003a00a188200091407800ac
:103f84000040eb0080cf500023003a0087c8bf00f8
:103f94008080fb000000eb00808f500020003a007e
:103fa40088c8bf008080fb0089c8bf000080fb0078
:103fb4004800dd0001007000800078000000eb0084
:103fc400808f500018003a0080468000004078003e
:103fd4008ee8b70080468000004078000080fb0037
:103fe4004880de00004078008fe8b700e0882000b9
:103ff400d042880020002000f042880010c8b3009e
:104004005ce8b70009003700000000000700370033
:104014000000000005003700000000000300370026
:104024000000000001003700000000000080fa00da
:10403400000006000200fa00000f780020c0b30060
:104044009ee8b7000000eb002045880080c0b30064
:10405400a2e8b7000000eb00004588000000eb0078
:104064000045880000c4b300a6e8b70020c0b30030
:10407400ace8b7000000eb00a045880080c0b300a6
:10408400b2e8b7000000eb00704588000000eb00c8
:10409400b045880000c4b300b8e8b7001e0078003b
:1040a400e04488000000eb00804688000080fa00ad
:1040b400000006000a00fa00404798003107980003
:1040c400420798000040eb00104798000040eb00c6
:1040d400004f78000e0037009e4078000180fb00fe
:1040e4006e00b90000007800e4004000e089200080
:1040f40000804000904078004e40900080c06000f6
:104104000040eb0080cf500006003a001e4fe8004c
:104114009e4078000040eb0080cf5000eeff32005c
:1041240001003700000000009e40780010c0b3007a
:1041340080cf500002003a000040eb001c00370022
:104144009e4078000180fb006e00b900800078007a
:10415400e089200000804000100798001e009000b5
:10416400be009000510098001e009000ce409000c8
:10417400414098004e009000004078009e0090005e
:10418400904898001e009000804890001e00900007
:10419400104078008141780002a020008040eb00ac
:1041a40085f407009e009000e00098001e409000f7
:1041b4000080fa00000006000c00fa004047980056
:1041c4003107980042079800530798000040eb001d
:1041d400004f78000e0037009e4078000180fb00fd
:1041e4007200b90000007800e6004000c08a200098
:1041f40000804000904078004e40900080c06000f5
:104204000040eb0080cf500006003a001e4fe8004b
:104214009e40780010c0b30080cf5000eeff3600ff
:1042240001003700000000009e40780020c0b30069
:1042340080cf5000710032009e4078000180fb0066
:104244007200b90080007800c08a2000008040001d
:10425400100798001e009000900090000000eb00f2
:10426400808f500067003a001e009000c00090004c
:104274000000eb00808f500064003a001e009000a4
:10428400ce009000110098001e009000de00900007
:10429400210098001e009000900090001e009000e5
:1042a400404890000080fb00808f500006003600dc
:1042b4001e009000404890008080fb001e0090008b
:1042c40051009800040037001e00900090009000f8
:1042d4001e009000510098009ec0a9001e0090008e
:1042e400be009000710098001e00900050009000e5
:1042f4001047980000a42000c04488001e009000cd
:10430400a000900010002000808f500015003a009b
:104314003e009000b04488000d003700c144800086
:10432400b04480001040780080487800c044800089
:104334000000e800c0448800b04480000000e800a9
:10434400b04488001e4090000040e90010479800e7
:104354009e4090000040eb0080cf5000efff3a00f9
:1043640014003700be009000b14488000d003700ef
:10437400c1448000b0448000104078008048780038
:10438400c04480000000e800c0448800b0448000bd
:104394000000e800b04488001e4090000040e9009e
:1043a400104798009e4090000040eb0080cf5000e2
:1043b400efff3a001e00900050009000804078000b
:1043c4001e009000104078008141780002a4200073
:1043d40011c0b300f8f307009e0090008008980015
:1043e4001e009000104078000080fb0011002000a7
:1043f400800107009ec0a8000500370000000000ef
:104404000300370000000000010037000000000036
:104414000080fa00000006000a00fa004007980035
:104424004e00900090407800614798006e409000e4
:10443400e84060000040eb0080cf5000c80032002c
:104444000040eb00104798000f0037001e4090001a
:104454000080fb007200b90080007800c08a200050
:1044640000804000904078003e0090004400de0050
:104474006f40600080cf5000080032001e40900062
:104484000040e800104798009e40900010c0b30020
:1044940080cf5000edff360001003700000000001f
:1044a4001e4090000080fb007200b900800078007c
:1044b400c08a200000804000100798001e00900071
:1044c400104078000080fb008000eb0049010700e9
:1044d4001e009000c00090001e0090000008900094
:1044e400104078000080fb00808040001e00900097
:1044f400410098001e009000c00090001e00900033
:1045040010009000808f500021003a001e0090009f
:1045140000089000904078000040eb0080cf5000ed
:104524001b0032001e009000900090001e009000be
:10453400404890000080fb00000178001100090051
:104544008280d8008000fd00800078000000eb002d
:10455400808f50000e003a001e009000104078003a
:104564008041eb000001eb0011c0b30092f307009f
:104574009e009000800898001e0090001040780073
:104584000080fb00110020001a010700170137000a
:104594001e009000c00090001e00900010009000cb
:1045a400808f50000b0039001e0090008000eb004b
:1045b400110098001e0090008000eb00410098005c
:1045c400e24480008000eb0010c0b3000200010050
:1045d400060137001e009000c00090001e009000ed
:1045e40010009000808f5000130031001e009000d6
:1045f400900090001e0090004000900080805000c9
:104604001e009000510098001e009000d000900001
:104614001e009000404890000080fb00808f5000f6
:10462400050036001e009000404890008080fb008a
:104634001e009000510098009ec0a9001e0090002a
:1046440050009000004f780000a42000c04488006f
:104654001e009000a000900010002000808f5000e9
:1046640017003a001e009000f00090001e00900019
:104674004000900000804000b04488000b003700e8
:10468400c1448000b0448000104078008048780025
:10469400c04480000000e800c0448800b0448000aa
:1046a4000000e800b04488001e4fe9009e407800f6
:1046b4000040eb0080cf5000f1ff3a0016003700b5
:1046c4001e009000f00090001e009000400090003a
:1046d40000804000b04488000b003700c1448000d3
:1046e400b04480001040780080487800c0448000c6
:1046f4000000e800c0448800b04480000000e800e6
:10470400b04488001e4fe9009e4078000040eb0052
:1047140080cf5000f1ff3a001e009000500090003e
:10472400804078001e00900010407800814178009d
:1047340002a4200011c0b3001ff307009e009000e4
:10474400800898001e009000104078000080fb0054
:1047540011002000a70007009ec0a800a200370097
:104764000040eb00104798000f0037001e409000f7
:104774000080fb006e00b90080007800e089200012
:1047840000804000904078003e0090004400de002d
:104794006f40600080cf5000080032001e4090003f
:1047a4000040e800104798009e4090000040eb0055
:1047b40080cf5000edff3200010037000000000000
:1047c4001e4090000080fb006e00b900800078005d
:1047d400e089200000804000200798002e0090000f
:1047e4006000900010407800ae009000904898005f
:1047f4002e009000904890000040eb0080cf5000c5
:104804002c0032002e009000900090000000eb007d
:10481400808f500013003a002e0090008000eb00bf
:10482400310098002e009000104890008080fb001a
:104834002e009000500090000101780001a020009b
:1048440008f00700e2448000a189200030c0b300d2
:1048540002000100d14480002e0090001100980055
:10486400140037002e00900090009000f00f2000fc
:10487400808f5000040036002e0090008000eb0072
:10488400310098000b0037002e0090001048900073
:104894008080fb002e009000500190002e009000bc
:1048a40030009000000041000101780001a02000c8
:1048b400ecef07002e009000b00090002e00900056
:1048c400104890000080fb00808040002e00900083
:1048d400310098002e009000b00090002e0090004f
:1048e40010009000808f50000e0031002e009000c8
:1048f400904890002e009000004890008180fb00ba
:104904000080fb0000017800110009008280d800bb
:104914008000fd00804078000040eb0080cf500014
:10492400240032002e009000900090002e00900091
:10493400004890000080fb0000017800110009008d
:104944008280d8008000fd00800078000000eb0029
:10495400808f50000b003a002e0090009048900089
:104964000040eb0080cf5000060032002e00900083
:10497400104078008041eb000001eb008040eb0028
:104984008df207002e0090008000eb0031009800ab
:104994002e0090008000eb0011009800e24480009b
:1049a4008000eb0020c0b300020001009ec0a800fc
:1049b4000e0037002e009000100090008040780018
:1049c4002e009000300090000040780080c050001d
:1049d4002e009000104078008141780002a0200051
:1049e4008040eb0074f207009ec0a8000080fa002b
:1049f400000006000400fa00000f78001107980078
:104a04009e00900010002000808f500008003a00a3
:104a14001e007800110020000008dd0080007800ee
:104a240080468000008070008046880008003700bf
:104a34001e007800110020000008dd000080ea005c
:104a440080007800804680000080600080468800f6
:104a54000080fa00000006000000fa0019000700b8
:104a640020248000e80060000000eb00808f5000ec
:104a740002003a003df30700c00107002024800033
:104a8400e80060000000eb00808f50000600320058
:104a9400014280000000eb00808f500002003a00c9
:104aa4003bf30700b501070001428000f00120003c
:104ab400808f500001003e00b00107005500070040
:104ac400e7ff37000200fa000000eb00002788002f
:104ad4000000eb00102788000000eb00202788006e
:104ae4000000eb00302788000000eb00402788001e
:104af4000000eb00502788000000eb0060278800ce
:104b040080252000000f780044a7a80000000000c2
:104b14001e00ea001e0070004f00de008040780096
:104b24001e0fe9000040eb0080cf5000f8ff3a0070
:104b3400c8a2a800030007009df007000080fa0047
:104b4400000006000800fa000040eb00f0e8b7009f
:104b54000000eb00604788000040eb00f1e8b7007c
:104b64000000eb007047880021178000f0df2f0061
:104b7400008060002017880001178000f0df2f00fc
:104b84000080600000178800a1178000f0ef2f005c
:104b940000806000a017880081178000f0ef2f00cc
:104ba4000080600080178800c8a2a800e2a4a900c1
:104bb400c8a2a800e2a4a9007001070079ee0700ca
:104bc40010ef070010c1b3004047980010c2b300b3
:104bd4007047980060c5b3006047980000c1b300f7
:104be4002047980020c1b3003047980010c1b3009b
:104bf400004f780060c0b3005047980011002000b7
:104c04000e0078009bee070027e6a8000080fa005b
:104c1400000006000000fa001000070001428000b6
:104c2400f0012000808f50000700360040248000ef
:104c3400e20060000000eb00808f500004003a00a6
:104c44005f01070003003700000000000100370087
:104c5400000000000080fa00000006000000fa00d6
:104c6400f14780000000eb00808f500002003a0002
:104c740000712200f0478800f04780000000e9003e
:104c8400f047880040248000e20060000000eb0050
:104c9400808f50001e003200f14780000000eb00be
:104ca400808f500071003a00a1178000001020008e
:104cb4000081600010c0b3008000eb00810f510040
:104cc400010032000040eb000080fb006100600046
:104cd4004800dd00a2178000f1ef2f008100610081
:104ce40000807000a0178800a11780000010200029
:104cf400808060000000eb00808f500002003200d2
:104d0400e522a80059003700e522a9005700370022
:104d1400014280000000eb00808f500003003a0045
:104d2400f502a900e522a9005000370001428000e5
:104d340010002000808f500003003a00f502a80004
:104d4400e522a8004900370001428000200020002d
:104d5400808f500003003a00f502a800e522a90064
:104d6400420037000142800040002000808f500044
:104d740003003a00f502a900e522a8003b00370031
:104d84000142800000012000808f500016003a008c
:104d9400f14780000000eb00808f500033003a00a0
:104da400a1178000001020000081600010c0b30033
:104db4008000eb00810f5100010032000040eb0045
:104dc4000080fb00610060004800dd00a217800045
:104dd400f1ef2f008100610000807000a0178800af
:104de400e522a900210037000142800000022000d2
:104df400808f50001d003a00f14780000000eb0056
:104e0400808f500019003a00a11780000010200084
:104e14000081600010c0b3008000eb00810f5100de
:104e2400010032000040eb000080fb0061006000e4
:104e34004800dd00a2178000f1ef2f00810061001f
:104e440000807000a0178800a117800000102000c7
:104e5400808060000000eb00808f50000200320070
:104e6400e522a90001003700e522a8000080fa002d
:104e7400000006000000fa00b00107000080fa00fc
:104e8400000006000000fa000080fa00000006009e
:104e94000000fa00a5010700501680004500de005e
:104ea400614060008080fb0060478000808f50007c
:104eb40015003a00018f2000914078000040eb007b
:104ec40080cf500004003200f0c8bf000040e90069
:104ed400f0e8b700140037005116800000022000eb
:104ee40000816000100020008000eb00810f510061
:104ef400010032000000eb006047880040c6b300a8
:104f0400f0e8b70008003700018f200091407800d6
:104f14000040eb0080cf500003003200f0c8bf0017
:104f24000040e900f0e8b700501680004500de00bc
:104f3400614060008080fb0070478000808f5000db
:104f440015003a00118f2000914078000040eb00da
:104f540080cf500004003200f1c8bf000040e900d7
:104f6400f1e8b70014003700511680000002200059
:104f740000816000100020008000eb00810f5100d0
:104f8400010032000000eb007047880040c6b30007
:104f9400f1e8b70008003700118f20009140780035
:104fa4000040eb0080cf500003003200f1c8bf0086
:104fb4000040e900f1e8b7000080fa0000000600b4
:104fc4000000fa000080fa00000006000000fa0069
:104fd400ddfb07000080fa00000006000000fa0074
:104fe4000080fa00000006000000fa00d1c1b300fe
:104ff40020c0b300d1f007000080fa0000000600d2
:105004000000fa005143800010002000808f5000ff
:105014001e003a006143800010002000808f500081
:105024001a003a009ec0a90096ff07008824a90030
:105034000000eb006043880000e12000e0478800a6
:10504400e04780000000e900e0478800e147800075
:105054000000eb00808f5000f9ff3a009444a80050
:1050640080702000e0478800e04780000000e900ed
:10507400e0478800e14780000000eb00808f50008b
:10508400f9ff3a009444a9009ec0a8000080fa00e9
:10509400000006000600fa00000f780011079800cf
:1050a400220798001e00780021072000810f50007d
:1050b4001e00320021072000810f50000e003e0028
:1050c40021002000810f5000230032002100200025
:1050d400810f500004003e0011002000810f500099
:1050e4001b0032002200370031002000810f5000e5
:1050f4001b0032001e00370041072000810f5000c2
:105104001100320041072000810f50000a003900cd
:1051140051072000810f500009003200f1ff2700e1
:10512400810f500010003200110037001e00900063
:10513400b9fc07000e00370055ff07000c003700cc
:105144004cff07000a0037004eff07000800370035
:10515400a5ff070006003700a0ff07000400370082
:105164009aff07000200370095ff070000000000c7
:10517400100020000080fa00000006000000fa0081
:105184000040eb00f2e8b70040962200cdf607009d
:1051940000902000daf607000040eb00f6e8b700c4
:1051a4000000eb00a04788000080fa000000060021
:1051b4000000fa00f2c8bf000080fa0000000600f8
:1051c4000000fa00614780000000eb00808f50006f
:1051d40038003200d14780000000eb00808f50007f
:1051e40036003a00f6c8bf000040e800f6e8b70011
:1051f400218f2000914078000040eb0080cf5000c8
:1052040002003a0056f7070027003700218f2000dc
:105214009140780020c0b30080cf500022003a00b3
:10522400618f20009140780020c0b30080cf5000ef
:1052340003003a003c0007007df707001a0037001e
:10524400618f20009140780030c0b30080cf5000bf
:1052540003003a003400070075f707001200370016
:10526400618f20009140780040c0b30080cf50008f
:1052740003003a002c0007006df707000a0037000e
:10528400618f20009140780050c0b30080cf50005f
:1052940005003a0030c0b300f2e8b7004af707004f
:1052a4000040eb00f6e8b70010002000d04788006b
:1052b400020037000000eb00d04788000080fa00ad
:1052c400000006000200fa00004f78009e407800bb
:1052d4000180fb0021002000810f500007003200f4
:1052e40041002000810f5000070032008000eb00d5
:1052f400810f5000070032000900370020c0b300be
:10530400f2e8b7000600370020c0b300f2e8b700a7
:10531400030037000040eb00f2e8b7000000000093
:105324000080fa00000006001400fa00e05a280089
:10533400100f98000040eb00004f78000900370080
:105344001e4078000081fb009e0890001140780008
:1053540003902000807179000100e800100f98008c
:105364001e4fe80010c4b3009e40780080cf500068
:10537400f3ff3600f5c8bf00819120008048780013
:10538400f4c8bf009191200080487800a0478000b5
:105394000000e800a04788000e80e80054000700e1
:1053a4003e40900061922000804878002e4090009a
:1053b40071922000804878005e4090008192200025
:1053c400804878004e4090009192200080487800f8
:1053d4007e409000a1922000804878006e409000aa
:1053e400b1922000804878001e48900081932000ec
:1053f400804878000e4890009193200080487800ff
:105404006a0047007eec0700a193200000c2b300ad
:1054140080487800a093200010407800c1922000ba
:10542400804878002e489000b1932000804878008e
:10543400b093200010407800d1922000804878007a
:105444005e489000c193200080487800c0932000fb
:1054540010407800e1922000804878004e48900087
:10546400d193200080487800d09320001040780029
:10547400f1922000804878006e489000e19320006b
:1054840080487800e09320001040780001932000c9
:10549400804878001e509000f193200080487800e6
:1054a400f093200010407800119320008048780089
:1054b4000e50900001942000804878000094200051
:1054c4001040780021932000804878001194200037
:1054d4000040eb00804878001094200010407800d1
:1054e40031932000804878000080fa000000060014
:1054f4000800fa0081072000010f78000105200050
:10550400110798004106200021079800810420001b
:10551400310798003e02be002e03be000498be0070
:105524000690be000080fa00000006000000fa00a9
:1055340082f907000080fa00000006000800fa0063
:1055440080248000000f78006024800010079800f9
:105554001024800020079800f00480004600de003c
:1055640061406000604798000000eb0080248800e0
:105574000000eb00602488000000eb001024880089
:105584008ec0a9008284a8000001200000248800a5
:105594009ec0a8000040fe006e4090006140600084
:1055a4000080fb00610060004600dd00f204800022
:1055b400f1fb2f008100610000807000f00488007e
:1055c4001e007800802488001e009000602488005b
:1055d4002e00900010248800100020000080fa00a3
:0455e40000000600bd
:020000040000fa
:1055e800000900000001000080000000ec08000035
:1055f8000a00000080000000f60800000600000015
:10560800820000000000000000000000fc0800000c
:105618000400000080000000400800005600000060
:10562800800000000008000040000000800000002a
:10563800000a0000800000008000000096080000ba
:105648003c00000080000000d20800001a000000a2
:085658008000000000000000ca
:00000001FF
