:020000040000fa
:080000000002040000000000f2
:020000040000fa
:100400000fde21000eff27000e0188000000000013
:100410000c000700a0b32700010020000f00070018
:10042000000020000000e000020032000000020096
:1004300000000000e27a0200000000000040da0044
:100440000000fe00c00020000000e00002003200ba
:10045000002020009001880000000600a102880012
:10046000800078000000eb001a003700e2804000b6
:1004700054a0b4009101ba00e280400054a0b4003e
:100480009102ba00e280400054a0b4000002eb00e8
:10049000472bde00f507b200a6018800602ce100c2
:1004a00008003a000049eb000201e80002003900b0
:1004b0003420ec0002f0a0008301e900f9ff3e00c7
:1004c000040037006128e100010032000082eb00e7
:1004d000040007001101ba000200e000e3ff3a0047
:1004e0000000060004d0a300e20f49001c00390000
:1004f000810278003549ba000201e80002003900a3
:100500003420ec0002f0a0008301e9000f0032006b
:100510002549ba000201e800020039003420ec004d
:1005200002f0a0008301e900080032000400e000ae
:100530000600320015c9ba000201e80002003900c5
:100540003420ec0002f0a0008301e9008180e80083
:1005500054a0b4000300e000e2ff3a0000000600ef
:100560009102ba00055978008301e900f7ff3200d3
:10057000c82ade00055978008301e900f3ff320044
:100580000400e000f1ff320011d9ba00eeff37009d
:10059000546e040000000000766e040000000000ad
:1005a0006c6a040000000000626c0400000000009f
:1005b000800078001104b100030035009101b10002
:1005c00001003c000050a000000006008000780000
:1005d0001106b100030035009101b10001003c009b
:1005e0000050a100000006006022b80006022000b2
:1005f0000000d0008180d2000482d2008582d20027
:100600000000a0000202520083825a000300310061
:100610000202420083824a000000a1000603e900b2
:10062000f3ff3a0000000600e8874700889fbe00fd
:100630008a9fbe008c9fbe008e1f7800014e210055
:1006400002a78000e00f51000b003a0064814000d7
:1006500002a7880052a78800a100980041a788003f
:10066000214190000204a000a24098006141900046
:100670000204a000e2409800670440004244de000b
:100680004244dd0040a780000e61210009de210008
:100690008e84540026002000801f7800110009007d
:1006a0008604d800000378004f0078008880e800b6
:1006b000818240008001eb006146b80034de2100f9
:1006c0000e02520008024200010037000a007800c2
:1006d000a0409000e1806000020032000a00370074
:1006e0001208780010017800a2409000e1806000bc
:1006f000fbff320088004000810f510002003900ea
:10070000e00f540049003d0010057800800f5500af
:10071000eeff3e008e0f550003003900014e210010
:10072000810f5500e9ff390051a78000810f50006b
:100730004f003a00004e2100800f55004c003a0057
:100740008301e800e18f5100e0ff3600860f54007e
:1007500002003600890f54000d0039006148b900cd
:10076000b2ff2f00030020000000510081805900db
:10077000800f5600818f5e0007003d0011000900c8
:100780000982d8000980b90080057800030037008d
:100790008505780001003700880578000b00780097
:1007a00084bf9f00e5b79f00f6b79f007a0007005f
:1007b0000fba9700efb297007fb39700e10f4000a8
:1007c0002b00320051a780008008780051a78000dc
:1007d000e481400021419000830f5000020032006c
:1007e0000204a000010037000204a100a24098000a
:1007f000e48555008b0540000b0878005ba7880056
:10080000014e2100810d780052a78000a240900087
:100810000104a00021419800a04090000104a10023
:10082000214098008001eb00a8ff370041a7880015
:10083000810f5100070036001101be0062a7880039
:1008400073a788009008780042a780008000eb0022
:100850002141980043a7800003087800a040900041
:100860000104a0002140980064004000010037000e
:100870000000eb004f0778004f06be004f05be009a
:100880004f04be008f00b10000000600640050005d
:1008900040a78800a04090000104a10021409800da
:1008a00000000600889fbe008a9fbe00800478007a
:1008b00001047800648154009205780069f997007a
:1008c000610161000200320009007800efff0700bb
:1008d0000800780054ff070000047800e00f54007f
:1008e0001b003200890f54001900320068bd9700c8
:1008f0000805550042d5de00098055004280de0023
:100900000a017800800f55000100360000017800d0
:100910004211dd000800be0011000700890f5400dd
:100920000b0031004255dd000a054400890f5500d7
:100930000700360089045500c2ccde00c24cdd0041
:100940008904440060a7800071a78000808cbe00ed
:10095000080078004f05be004f04be0000000600ee
:100960008001780002003700b15978000201e900e7
:10097000e00f5100fcff3a00000006008000780004
:100980000041eb00b14f1100fdff3a000080ea008a
:100990000080400000000600889fbe008a1f78008b
:1009a0000005780089a78000e08f540005003a0018
:1009b000090078000f0007000084eb00890f500049
:1009c0000800350088a78000e00f550005003200c0
:1009d0000a00440007000700e00f500001003d003e
:1009e0000084eb00080078004f0578004f04be003b
:1009f00000000600e00f500004003a0001612100f1
:100a000081a7880080007800060037008080eb0016
:100a100002de2100820f500002003e0080a7880005
:0c0a20008000eb000100780000000600e0
:020000040000fa
:020000040005f5
:0457f8009e1b0000f4
:020000040000fa
:020000040005f5
:0457fc007f3e0000ec
:020000040000fa
:020000040001f9
:105000000002040000000000607c040000000000ba
:10501000607c040000000000607c040000000000d0
:10502000607c040000000000607c040000000000c0
:10503000607c040000000000607c040000000000b0
:10504000607c040000000000607c040000000000a0
:10505000607c040000000000607c04000000000090
:10506000607c040000000000607c04000000000080
:10507000607c040000000000607c04000000000070
:10508000607c040000000000607c04000000000060
:10509000607c040000000000607c04000000000050
:1050a000607c040000000000607c04000000000040
:1050b000607c040000000000607c04000000000030
:1050c000607c040000000000607c04000000000020
:1050d000607c040000000000607c04000000000010
:1050e000607c040000000000607c04000000000000
:1050f000607c040000000000607c040000000000f0
:10510000607c040000000000607c040000000000df
:10511000607c040000000000607c040000000000cf
:10512000607c040000000000607c040000000000bf
:10513000607c040000000000607c040000000000af
:10514000607c040000000000607c0400000000009f
:10515000607c040000000000607c0400000000008f
:10516000607c040000000000607c0400000000007f
:10517000607c040000000000607c0400000000006f
:10518000607c040000000000607c0400000000005f
:10519000607c040000000000607c0400000000004f
:1051a000607c040000000000607c0400000000003f
:1051b000607c040000000000607c0400000000002f
:1051c000607c040000000000607c0400000000001f
:1051d000607c040000000000162a040000000000ab
:1051e000607c040000000000607c040000000000ff
:1051f000607c040000000000607c040000000000ef
:10520000607c040000000000607c040000000000de
:10521000607c040000000000607c040000000000ce
:08522000607c040000000000a6
:020000040000fa
:1000080004a8000008a800000ca8000010a8000020
:1000180014a8000004a8000004a8000004a8000018
:1000280018a800001ca8000020a8000024a80000b0
:1000380004a8000028a800002ca8000030a8000090
:1000480034a8000038a800003ca8000040a8000020
:1000580044a8000048a8000004a8000004a8000064
:100068004ca8000050a8000054a8000058a80000a0
:100078005ca8000004a8000060a8000064a80000b4
:1000880004a8000068a800006ca8000070a8000080
:1000980074a8000078a800007ca8000080a80000d0
:1000a80084a8000088a8000004a8000004a8000094
:1000b80004a800008ca8000090a8000094a80000e4
:1000c80098a800009ca80000a0a80000a4a8000010
:1000d800a8a80000aca8000004a8000004a800001c
:1000e80004a80000b0a80000b4a8000004a80000fc
:1000f80004a80000b8a80000bca8000004a80000dc
:1001080004a8000004a8000004a8000004a8000037
:1001180004a8000004a80000c0a8000004a800006b
:1001280004a80000c4a80000c8a80000cca80000cb
:1001380004a8000004a8000004a8000004a8000007
:10014800d0a8000004a8000004a8000004a800002b
:1001580004a80000d4a8000004a8000004a8000017
:1001680004a80000d8a80000dca80000e0a800004f
:10017800e4a80000e8a80000eca80000f0a800002f
:10018800f4a80000f8a80000fca8000000a90000de
:1001980004a9000008a9000004a8000004a80000a1
:1001a80004a8000004a8000004a8000004a8000097
:1001b8000ca9000004a8000004a8000004a800007e
:1001c80004a8000004a8000004a8000004a8000077
:1001d80004a8000004a8000004a8000004a8000067
:1001e80004a8000004a8000004a8000004a8000057
:0801f80004a8000004a80000a7
:020000040000fa
:10020800607c0000607c0000607c0000607c000076
:10021800607c0000607c0000607c0000607c000066
:10022800607c0000607c0000607c0000607c000056
:10023800607c0000607c0000607c0000607c000046
:10024800607c0000607c0000607c0000607c000036
:10025800607c0000607c0000607c0000607c000026
:10026800607c0000607c0000607c0000607c000016
:10027800607c0000607c0000607c0000607c000006
:10028800607c0000607c0000607c0000607c0000f6
:10029800607c0000607c0000607c0000607c0000e6
:1002a800607c0000607c0000607c0000607c0000d6
:1002b800607c0000607c0000607c0000607c0000c6
:1002c800607c0000607c0000607c0000607c0000b6
:1002d800607c0000607c0000607c0000607c0000a6
:1002e800607c0000607c0000607c0000607c000096
:1002f800607c0000607c0000607c0000607c000086
:10030800607c0000607c0000607c0000607c000075
:10031800607c0000607c0000607c0000607c000065
:10032800607c0000607c0000607c0000607c000055
:10033800607c0000607c0000607c0000607c000045
:10034800607c0000607c0000607c0000607c000035
:10035800607c0000607c0000607c0000607c000025
:10036800607c0000607c0000607c0000607c000015
:10037800607c0000607c0000162a0000607c0000a1
:10038800607c0000607c0000607c0000607c0000f5
:10039800607c0000607c0000607c0000607c0000e5
:1003a800607c0000607c0000607c0000607c0000d5
:1003b800607c0000607c0000607c0000607c0000c5
:1003c800607c0000607c0000607c0000607c0000b5
:1003d800607c0000607c0000607c0000607c0000a5
:1003e800607c0000607c0000607c0000607c000095
:0803f800607c0000607c000045
:020000040000fa
:100a2c00696d000061670000652e000068650000bc
:080a3c007800000072000000c8
:020000040000fa
:100a44000400fa002047980031479800d14721005c
:100a5400914078002e40900080cf50000200320078
:100a640060c0b300140037003e4090006c0a0700d9
:100a7400000f78009e0078000000eb00808f50008b
:100a84000c0032001e00780010019000f1fd2f00d0
:100a940081006100110098001e0078001001900090
:100aa400f1fb2f0081006100110098000040eb0071
:100ab4000100370040c1b3000080fa0000000600c6
:100ac4000200fa00004f780040a480004600de00d7
:100ad400614060000080fb000080fa000000060016
:100ae4000200fa00004f780081a3800000f020008b
:100af400808060000000eb00808f500002003a000c
:100b040010c3b3001900370081a3800000f0200057
:100b14008080600000402000808f50000a003a006e
:100b240081a38000000f200080806000000120006d
:100b3400808f500002003a00a0c3b3000b003700be
:100b440000c3b3000900370081a3800000f0200037
:100b54008080600000502000808f500002003a0026
:100b64007ed4bf000100370020c3b3000080fa0028
:100b7400000006000400fa00008fbe0031a48000cb
:100b84000000eb00808f50000d003a00200220008e
:100b9400a4fe070030a4880031a480000000eb000c
:100ba400808f500002003a000000eb001100370073
:100bb40030a480008000eb000108780001003700b9
:100bc400c60c070030a4800060a388000000eb007e
:100bd40080a388000080eb0090a388000040eb0015
:100be4007cf4b7000040eb007df4b7008a14a80041
:100bf400100020000080fa00000006001400fa0033
:100c04006047980071479800024f98005307980076
:100c14006407980075079800060f980027579800f6
:100c2400d1472100914078006e40900080cf500061
:100c34000200320060c0b300ae00370081a3800020
:100c440000f020008080600000402000808f500071
:100c54000200320010c0b300a600370030a48000a8
:100c64009000900000202000808060000000eb00d5
:100c7400808f500002003a0000c1b3009d0037008d
:100c84008e489000b0c0b30080cf500049003a00b5
:100c940020a4800010079800030037001e00900075
:100ca40090007800110798009e0090000000eb006f
:100cb400808f5000060032001e00900060409000bb
:100cc4008080fb006e009000808f5000f3ff3a009c
:100cd4009e0090000000eb00808f50000500320061
:100ce4001e009000a00090000000eb00808f5000d8
:100cf40002003a0030c0b3007e0037001e009000ae
:100d040020009000a0009000010f78000b00370035
:100d14001e00780090009000002020008080600079
:100d24000000eb00808f500002003a0030c0b30096
:100d3400700037001e007800100f78009e007800c5
:100d44000000eb00808f5000f1ff3a001e0090007d
:100d54009000900021079800030037002e009000b7
:100d64009000780021079800ae0090000000eb008e
:100d7400808f5000060032002e009000204090002a
:100d84008080fb005e009000808f5000f3ff3a00eb
:100d9400ae0090000000eb00808f500002003a008b
:100da40030c0b300530037001e009000ae00900026
:100db400210098008e48900010c0b30080cf5000ee
:100dc4000f003a00de0090000000eb00808f50001e
:100dd4000b003a007e4090000080fb00e0004000e1
:100de40020002000808f500004003e006e00900020
:100df400004078001e1007000100370000000000ca
:100e040070a38000fe4090000148780070a3800029
:100e14000000e8008e4890000148780070a380002c
:100e24008080e8005e0090000040780080487800f0
:100e340070a38000e30040005e0090004800de00e4
:100e4400004078008048780070a38000e4004000ef
:100e54006e009000004078008048780070a3800005
:100e6400e50040006e0090004800de00004078007d
:100e74008048780070a38000e60040007e00900067
:100e8400004078008048780070a38000e7004000ac
:100e94007e0090004800de00004078008048780022
:100ea40030a480008ef8970011589800ae5090003e
:100eb4000040eb0080cf500007003a0071a380008f
:100ec40030a480007e0290008e09900082002000f1
:100ed4006d0c07000600370071a3800030a4800069
:100ee4007e0290008e09900082002000230c0700ef
:100ef4000040eb000080fa00000006000a00fa003f
:100f0400204798003147980022079800340798003a
:100f140045079800d1472100914078002e40900069
:100f240080cf50000200320060c0b300430037009d
:100f340081a3800000f02000808060000040200039
:100f4400808f50000200320010c0b3003b00370015
:100f54003e40900032090700000f78009e007800a0
:100f64000000eb00808f5000330032001e00780038
:100f7400d008900000302000808060000000eb006a
:100f8400808f500002003a0080c1b3002b0037006c
:100f94001e00780020589000804078000040eb004c
:100fa40080cf50000200350050c1b3002300370049
:100fb4001e007800900090000002200080806000f5
:100fc4000000eb00808f50000200320010c1b3001b
:100fd4001a0037001e0078009000900000042000e2
:100fe400808060000000eb00808f5000020032001f
:100ff40020c1b300110037001e007800900090005b
:1010040000202000808060000000eb00808f5000f2
:1010140002003a0000c1b300080037003e0090000f
:1010240000017800ae0090001e007800610c0700fb
:101034000040eb000100370040c1b3000080fa001b
:10104400000006000200fa00004f7800d14721009a
:10105400914078001e40780080cf5000020032009a
:1010640060c0b3000b00370081a3800000f02000b3
:10107400808060000000eb00808f500002003a0086
:1010840030c0b300030037000000eb0080a38800e9
:101094000040eb000080fa00000006000200fa00a5
:1010a400004f7800d1472100914078001e4078001d
:1010b40080cf50000200320060c0b3000a00370045
:1010c40081a3800000412000808f50000200320084
:1010d40030c0b3000400370080a380000000e800a3
:1010e40080a388000040eb000080fa0000000600a6
:1010f4000200fa00004f780011479800d147210000
:10110400914078001e40780080cf500002003200e9
:1011140060c0b3001600370081a3800000f02000f7
:101124008080600000402000808f50000200320068
:1011340010c0b3000e003700861007008000eb00db
:10114400810f50000200320020c0b30008003700b5
:101154001e4090007af4b70031a4800000c0eb0078
:10116400905898000033200080a388000040eb00d2
:101174000080fa00000006000800fa0020479800ea
:10118400314798002207980033079800d14721007f
:10119400914078002e40900080cf50000200320031
:1011a40060c0b3001b0037003e4090009c0807005d
:1011b400000f78009e0078000000eb00808f500044
:1011c400130032002e00900000407800614060005f
:1011d40061406000614060009e0078000080fb0078
:1011e400610060004d00dd0091019000f2ff2d00d0
:1011f4000281610000007100900098001e007800d8
:10120400be009000011098000040eb000100370080
:1012140040c1b3000080fa00000006000200fa009a
:101224000000eb0040248800d14721009140780061
:101234000040eb0080cf50000d0032000040eb0076
:10124400004f78007dd4bf0024002000050020005a
:101254000e017800a1062000833507007dd4bf006d
:1012640013002000d247210011072000690c070059
:101274006000b8003ffe07000080fa00000006008e
:101284000200fa00004f7800d14721009140780015
:101294001e40780080cf50000200320060c0b300ce
:1012a4000a00370081a3800000402000808f500096
:1012b4000200320030c0b300040037009404a900d7
:1012c4000041200080a388000040eb000080fa0069
:1012d400000006000800fa00881f780091a380002f
:1012e4000080eb00808f50000400320090a3800047
:1012f40080a388000080eb0090a3880081a3800075
:1013040000f020000080600001202000810f5000c8
:101314006d02320001202000810f500007003e00c2
:101324008000eb00810f50000e00320001102000fd
:10133400810f5000bd003200190637000140200023
:10134400810f50006405320001502000810f5000cd
:101354009705320001302000810f5000bf02320097
:101364000f06370081a38000000f2000008060007a
:1013740001012000810f50007200320001012000a1
:10138400810f500004003e008000eb00810f5000ec
:10139400080032000206370001022000810f5000cd
:1013a4007300320001032000810f50009d003200c1
:1013b400fb05370099ff070030a480008000eb0094
:1013c4000108780030a480008000eb001100980030
:1013d40030a48000100190000140200081007100c1
:1013e4001100980030a4800010019000012020001a
:1013f400810071001100980030a480001001900059
:1014040001002200810071001100980030a48000c6
:10141400810c20000110980030a4800001042000f9
:101424004100980032a480006000b80000099800d0
:101434001109980031a480000040eb00a0589800e6
:1014440031a480000040eb008058980030a4800054
:1014540050099000f1cf2f008100610051089800dd
:1014640031a4800000c0eb009058980030c0b30055
:1014740068f4b7000040eb007af4b7000040eb00da
:101484007bf4b7000040eb007cf4b7000000eb00f5
:1014940040a488000000eb0020a488000000eb00ba
:1014a400a0a388000000eb0060248800f00f200057
:1014b4005024880011248000c008200000806000af
:1014c40010248800d0072000002488000000eb00ce
:1014d40080248800f00f2000702488000060210020
:1014e4004800de00c024880080002000a02488007a
:1014f400a0002000a024880080002000a0248800f0
:1015040000032000302488002000200030258800bb
:101514000000eb00402588000000eb00b0248800a8
:10152400aae4a900a00420000025880081a380006b
:1015340000ff2000008060007000400080a388004d
:10154400390037008ad4bf00e14060000040eb005e
:1015540080cf50000500320081a3800000ff2000ee
:10156400008060007000400080a388002e003700d7
:10157400e60047000040eb0080487800e6004700a2
:1015840020c3b30090409800660047002400200068
:1015940005002000000178009106200000c0eb0047
:1015a400b13407008000eb00810f500019003200b5
:1015b400100020004024880071048000f0fb2f00fc
:1015c400008060007004880071068000f00f2f0016
:1015d40000806000700688007106800000602000b2
:1015e4000080700070068800f10480000004200070
:1015f40000807000f004880081a3800000ff2000b8
:10160400008060007000400080a388008cc4a800a3
:10161400030037008a14a9000001200080a3880079
:1016240001003700000000005d05370081a3800041
:10163400000f20000080600001022000810f500094
:10164400ae00320001022000810f500007003e006e
:101654008000eb00810f50000b00320001012000dc
:10166400810f5000280032004d053700010320008f
:10167400810f50002f01320001042000810f50001f
:10168400890132004605370080a380006f006000a6
:1016940011002000810f50001300320011002000bf
:1016a400810f50000400390021002000810f5000f8
:1016b4000e00320013003700100020005024880070
:1016c4008c04a800b00f200050a388000004200060
:1016d4000024880082c4a80080a380000000e800e1
:1016e40080a38800070037000600370081a380002c
:1016f40000ff2000008060007000400080a388008c
:10170400000000006f01370080a380006f006000bc
:10171400010020004200200003002000820f50003e
:10172400838f580073003e000060010004003700fe
:101734005900370059003700630037006300370051
:1017440071a380000000eb00808f50000400320081
:1017540070a380004cfc07000000eb0070a388001d
:1017640080002000affb070070a3880071a38000f5
:101774000000eb00808f500005003a0030c3b30036
:101784007ef4b7000050200080a388005a00370080
:101794000040eb007af4b7000040eb007bf4b700a4
:1017a4000000eb0040a4880030c0b30067f4b70029
:1017b400d0002000502588000000eb006025880040
:1017c4000000eb00702588000000eb0080258800f5
:1017d4000000eb00902588000000eb00a0258800a5
:1017e4000000eb00b02588000000eb00c025880055
:1017f4000000eb00d02588000000eb00e025880005
:101804000000eb00f02588000000eb0000268800b3
:101814000000eb00102688000000eb002026880062
:101824000000eb00302688000000eb004026880012
:10183400a124800000082000808060000000eb00ec
:10184400808f500006003a008814a80000c8b30036
:101854007cf4b70000082000b0248800aae4a800a3
:101864009424a8009424a9008894a90088b4a90009
:101874009484a8003003200050a3880000042000b2
:101884000024880082c4a80080a380000000e8002f
:1018940080a3880018003700170037009484a9003b
:1018a4009404a800b000200050a388000004200085
:1018b4000024880082c4a80080a380000000e800ff
:1018c40080a388000c0037000b003700f0002000d4
:1018d40060248800f00f20008024880081a3800009
:1018e40000ff2000008060007000400080a388009a
:1018f4000100370000000000f200370080a38000e0
:101904006f00600011002000810f50003900320088
:1019140011002000810f5000040039002100200034
:10192400810f50005200320081003700d1a68000a0
:101934000000eb00808f500004003200d0a680002d
:10194400d1fb07000000eb00d0a6880071a3800043
:1019540000c8b3008048780070a380008000e800cd
:1019640060c0b3008048780070a380008080e800e5
:101974000040eb008048780070a38000e300400042
:1019840010c0b3008048780070a38000e4004000d9
:101994000040eb008048780070a38000e500400020
:1019a4000040eb008048780070a38000e60040000f
:1019b40080c0b3008048780070a38000e700400036
:1019c4000040eb008048780072a3800071a380007f
:1019d40030a480008400200082017800820020006e
:1019e4006609070080a380000000e80080a3880047
:1019f4004f00370030a480009000900000202000a9
:101a0400808060000000eb00808f500017003200df
:101a140030a48000900090000010200080806000be
:101a24000000eb00808f50000f00320070a3800094
:101a3400640040009040780090c0b30080cf500014
:101a440005003a0050c3b3007ef4b70000502000f4
:101a540080a388000500370080a380000000e80010
:101a640080a38800010037002e05070030003700ee
:101a740070a38000104078000080fb00e9fa0700a2
:101a8400d0a68800d1a680000000eb00808f500013
:101a940005003a0030c3b3007ef4b70000502000c4
:101aa40080a3880022003700d1a6800070a38000a4
:101ab400104078008048780031a4800070a3800032
:101ac400704090000080fb00c000980070a380006c
:101ad4006dfb07000000eb0070a3880030a48000b9
:101ae40040009000cffa070070a3880071a3800023
:101af4000000eb00808f500005003a0030c3b300b3
:101b04007ef4b7000050200080a38800080037004e
:101b140030c0b30067f4b70081a3800000ff200049
:101b2400008060007000400080a388000000000076
:101b34006400370080a380006f0060001100200063
:101b4400810f50003b00320011002000810f500033
:101b54000400390021002000810f500049003200a8
:101b640050003700a0a38000f00060000000eb00ec
:101b7400808f5000010032004a00370071a38000ba
:101b840000c8b3008048780070a380008000e8009b
:101b940060c0b3008048780070a380008080e800b3
:101ba4000040eb008048780070a38000e300400010
:101bb40010c0b3008048780070a38000e4004000a7
:101bc4000040eb008048780070a38000e5004000ee
:101bd4000040eb008048780070a38000e6004000dd
:101be400d0a68000104078008048780070a3800060
:101bf400e70040000040eb0080487800d0a6800059
:101c0400104078008081fb00d2a6800071a3800080
:101c140030a4800003027800820178008200200052
:101c2400d608070080a380000000e80080a3880095
:101c34001c00370030a48000900090000020200099
:101c4400808060000000eb00808f50000c003200a8
:101c540030a480009000900000102000808060007c
:101c64000000eb00808f50000400320080a380004d
:101c74000000e80080a3880001003700a9040700e1
:101c84000800370030c0b30067f4b70081a38000b8
:101c940000ff2000008060007000400080a38800e6
:101ca40000000000070037002705070081a380001b
:101cb40000f02000008060000010b00080a38800c5
:101cc40000000000b603370081a38000000f20004d
:101cd400808060000000eb00808f5000ad033a006c
:101ce40080a380006f00600011002000810f50006d
:101cf4003200320011002000810f5000040039002e
:101d040021002000810f50004000320051003700b4
:101d140010c0b3007df4b70071a380000040eb0055
:101d24008048780070a380008000e80050c0b300b1
:101d34008048780070a380008080e8007dd4bf00d4
:101d44008048780070a38000e30040000040eb006e
:101d54008048780070a38000e40040000040eb005d
:101d64008048780070a38000e50040000040eb004c
:101d74008048780070a38000e60040000040eb003b
:101d84008048780070a38000e70040000040eb002a
:101d94008048780071a3800030a480000002eb002a
:101da4008001eb0082002000b708070080a38000b8
:101db4000000e80080a388002600370030a48000db
:101dc4009000900000202000808060000000eb0064
:101dd400808f50001e00320030a4800090009000dc
:101de40000102000808060000000eb00808f500015
:101df4000400320080a380000000e80080a3880073
:101e040014003700470407001200370040a4800084
:101e140000407800614060000080fb004700dd0066
:101e2400804078007dd4bf0000c070007cf4b7000f
:101e340030c0b30067f4b70081a3800000f0200035
:101e4400008060000010b00080a38800010037000b
:101e540000000000000000005103370081a380004f
:101e6400000f20000080600001022000810f50005c
:101e7400ca00320001022000810f500007003e001a
:101e84008000eb00810f50000b00320001012000a4
:101e9400810f500025003200410337000103200068
:101ea400810f50002d01320001042000810f5000e9
:101eb400e90132003a033700d0a6800010509000a8
:101ec40066f4b7000f00370010a4800010009000e3
:101ed4002007980010a48000100078006afa070018
:101ee40010a480008000eb000108780010a480009a
:101ef40065fa07000000eb0010a488002e00900093
:101f040010a4880011a480000000eb00808f500012
:101f1400edff3a0081a3800000ff200000806000f4
:101f24007000400080a388006a02370080a380000c
:101f34006f00600011002000810f50003200320059
:101f440011002000810f50000400390021002000fe
:101f5400810f5000400032008f00370071a38000d1
:101f640000c8b3008048780070a380008000e800b7
:101f740060c0b3008048780070a380008080e800cf
:101f840066d4bf000040e9008048780070a3800058
:101f9400e300400020c0b3008048780070a38000b4
:101fa400e40040000040eb008048780070a380000b
:101fb400e50040000040eb008048780070a38000fa
:101fc400e600400080c0b3008048780070a3800021
:101fd400e70040000040eb008048780072a38000d6
:101fe40071a3800030a48000840020008201780066
:101ff40082002000e107070080a380000000e800c1
:1020040080a388006400370030a480009000900012
:1020140000202000808060000000eb00808f5000d2
:102024000c00320030a480009000900000102000ca
:10203400808060000000eb00808f500004003200bc
:1020440080a380000000e80080a38800010037001e
:10205400b4030700500037006000200071f9070046
:1020640020079800ae0090000000eb00808f500025
:1020740005003a0030c3b3007ef4b70000502000de
:1020840080a38800440037002e04900070a38000d1
:1020940063004000104078000080fb00c800dd00b1
:1020a40070a380000080e800104078000080fb00ee
:1020b400008040005bf90700000c7800980078006d
:1020c4000000eb00808f500009003a002e009000c1
:1020d400edf907000000eb002007980030c3b300bf
:1020e4007ef4b7000050200080a388002a00370047
:1020f4002e0090001000780071a38000e38040005f
:10210400914078008180fb004809dd0071a38000c4
:102114008180e800914078008180fb00010141004a
:10212400f10f200081016100a0409000e0c0600038
:1021340083c07000214098004811de00b040900038
:10214400e0c0600082c07000314098002e00900012
:1021540011a48000110098002e00900010a48800a3
:102164002e00900010007800c0a68800ae009000f9
:1021740066d4bf00c040980030c0b30067f4b70015
:1021840081a3800000ff20000080600070004000f8
:1021940080a3880000000000ce01370080a38000e7
:1021a4006f00600011002000810f500043003200d6
:1021b40011002000810f500004003900210020008c
:1021c400810f5000510032006300370071a380007a
:1021d40000c8b3008048780070a380008000e80045
:1021e40060c0b3008048780070a380008080e8005d
:1021f40066d4bf000040e9008048780070a38000e6
:10220400e300400020c0b3008048780070a3800041
:10221400e40040000040eb008048780070a3800098
:10222400e50040000040eb008048780070a3800087
:10223400e600400010a48000100078000080e80050
:10224400104078008048780070a38000e7004000c8
:1022540010a4800010007800630040001040780053
:102264008048780010a48000100078008000780076
:10227400214090000081fb00314090000080fb0071
:102284004800dd00020070008001780010a4800086
:102294001001780071a3800030a48000030278004c
:1022a40082017800820020003407070080a38000a8
:1022b4000000e80080a388002700370030a48000d5
:1022c4009000900000202000808060000000eb005f
:1022d400808f50000c00320030a4800090009000e9
:1022e40000102000808060000000eb00808f500010
:1022f4000400320080a380000000e80080a388006e
:1023040001003700070307001300370030c0b30093
:1023140067f4b70066d4bf000040e90066f4b70074
:1023240061462100914078000040eb0080cf5000ce
:10233400030032000031200080a38800050037002c
:1023440081a3800000ff2000008060007000400036
:1023540080a38800000000005e01370080a3800095
:102364006f00600001002000320020000300200004
:10237400820f5000838f5800b5003e0000600100ba
:10238400030037004c0037008a0037009d003700f7
:1023940095060700a1472100914078000040eb001a
:1023a40080cf500013003a0010a4800070a488006d
:1023b4000b00370070a4800010007800c0a68800cd
:1023c400730807008000eb00810f500023003a00df
:1023d4008506070070a480001000900070a4880097
:1023e40071a480000000eb00808f5000f1ff3a00e0
:1023f4001b00370010a4800070a48800030037007d
:1024040070a480001000900070a4880071a4800063
:102414000000eb00808f50000500320070a48000a3
:10242400c04090007ad4bf0080cf5000f4ff3a003f
:1024340070a4800010007800c0a68800540807002b
:102444008000eb00810f500005003a00660607008b
:102454000000eb0070a488000100370000000000b9
:1024640040a48000e40060000000eb00808f500076
:102474000d00320071a480000000eb00808f50003a
:1024840005003a0040c3b3007ef4b70000502000ba
:1024940080a388000700370080a380000000e800c4
:1024a40080a388000300370080a380000000e800b8
:1024b40080a388006700370040a48000e400600027
:1024c4000000eb00808f500034003a008854a800cc
:1024d40071a380000040eb008048780070a3800066
:1024e4008000e80030c0b3008048780040a4800039
:1024f400e80060000000eb00808f5000050032000f
:1025040070a380008080e80030c0b3008048780069
:102514000400370070a380008080e80040c0b3004e
:102524008048780070a38000e30040000040eb0086
:102534008048780070a38000e40040000040eb0075
:102544008048780070a38000e50040000040eb0064
:102554008048780070a38000e60040000040eb0053
:102564008048780070a38000e70040000040eb0042
:102574008048780071a3800030a480000002eb0042
:102584008001eb0082002000bf06070080a38000ca
:102594000000e80080a388000500370081a38000c4
:1025a40000ff2000008060007000400080a38800cd
:1025b4002800370030a48000900090000020200004
:1025c400808060000000eb00808f50000c0032001f
:1025d40030a48000900090000010200080806000f3
:1025e4000000eb00808f50000400320080a38000c4
:1025f4000000e80080a388000100370049020700ba
:102604001400370030c0b30067f4b70071a4800031
:102614000000eb00808f500005003a0040c3b30077
:102624007ef4b7000050200080a388000700370024
:1026340030c0b30067f4b70081a3800000ff20001e
:10264400008060007000400080a388000100370013
:10265400000000009f00370080a380006f0060002e
:10266400010020003200200003002000820f5000ef
:10267400838f580095003e0000600100030037007e
:102684002b0037003e0037004300370071a3800061
:102694000040eb008048780070a380008000e800d0
:1026a40090c0b3008048780070a380008080e80068
:1026b4007ad4bf008048780070a38000e300400013
:1026c4000040eb008048780070a38000e4004000e4
:1026d4000040eb008048780070a38000e5004000d3
:1026e4000040eb008048780070a38000e6004000c2
:1026f4000040eb008048780070a38000e7004000b1
:102704000040eb008048780071a3800030a4800072
:102714000002eb008001eb00820020005a06070053
:1027240080a380000000e80080a3880068003700d0
:1027340030a4800090009000002020008080600081
:102744000000eb00808f50000c00320030a48000a9
:102754009000900000102000808060000000eb00da
:10276400808f50000400320080a380000000e80045
:1027740080a3880001003700ea01070054003700f5
:1027840030c0b30067f4b70080a380000000e80005
:1027940080a388004e00370081a3800000f0200051
:1027a400008060000010b00080a3880041a4800075
:1027b40000042000808060000000eb00808f500047
:1027c4001c0032007fd4bf00204798002e409000a8
:1027d4000080fb006a00b90080007800a049210055
:1027e40000804000100278002e4090000080fb0022
:1027f4006a00b90000007800e6004000a04921000a
:10280400008040001001be007dd4bf00ae409000a7
:10281400040001008000eb00810f50002a003a0000
:1028240090c3b3007ef4b7000050200080a388005a
:102834002500370021a48000010f78001e00370016
:102844001e007800f0409000214798002e40900030
:102854000080fb006a00b90080007800a0492100d4
:1028640000804000100278002e4090000080fb00a1
:102874006a00b90000007800e6004000a049210089
:10288400008040001001be007dd4bf00ae40900027
:10289400040001008000eb00810f500004003a00a6
:1028a40090c3b3007ef4b7000050200080a38800da
:1028b4001e007800100f78009e0078000000eb00e6
:1028c400808f5000deff3a00010037000000000056
:1028d40000000000b200370081a38000000f200038
:1028e400008060008000eb00810f50000400320083
:1028f40001012000810f500002003200a8003700bf
:102904002a00370080a380006f00600001002000cf
:102914005200200003002000820f5000838f5800d3
:102924009e003e00006001000500370005003700ee
:102934000e0037000e00370018003700180037006b
:102944001a0037009444a8005001200050a38800c6
:10295400000420000024880082c4a80080a3800012
:102964000000e80080a38800100037000f00370043
:102974009444a9009404a800b000200050a3880047
:10298400000420000024880082c4a80080a38000e2
:102994000000e80080a3880004003700030037002b
:1029a4000040200080a38800000000007c00370065
:1029b40081a38000000f2000808060000000eb00f5
:1029c400808f500070003a0080002000a02488000e
:1029d4000000eb0060248800f00f200050248800e1
:1029e40011248000c00820000080600010248800aa
:1029f400d0072000002488000000eb008024880019
:102a0400f00f2000702488008c04a8007ed4bf003e
:102a14000080fb006101b90090ff2f00f1ff2f003f
:102a240002004000838048002203200003002000ad
:102a3400820f5000838f580043003e000060010065
:102a440038003700400037003f0037003e003700b1
:102a54003d0037003c0037003b0037003a003700a8
:102a640039003700380037003700370036003700a8
:102a740035003700340037003300370032003700a8
:102a840031003700300037002f0037002e003700a8
:102a94002d0037002c0037002b0037002a003700a8
:102aa40029003700280037002700370026003700a8
:102ab40025003700240037002300370022003700a8
:102ac40021003700200037001f0037001e003700a8
:102ad4001d0037001c0037001b0037001a003700a8
:102ae40019003700180037001700370016003700a8
:102af40012003700080037000400370012003700c6
:102b040011003700100037000900370050c6b30029
:102b1400204798000f003700c0c6b3002047980034
:102b24000c003700d0c6b3002047980009003700d6
:102b3400e0c6b3002047980006003700f0c6b30093
:102b4400204798000300370000c7b30020479800cf
:102b5400000000002e4090008080fb007dd4bf0068
:102b64001400200005002000024821003e2f070029
:102b740081a3800000ff20000080600070004000fe
:102b840080a388000100370000000000000000005e
:102b940003003700000000000100370000000000bf
:102ba4004f0478000080fa00000006000400fa00d8
:102bb4002047980031479800d14721009140780080
:102bc4002e40900080cf500012003a003e4090000a
:102bd40013020700000f78009e0078000000eb004d
:102be400808f50000c0032001e007800100190000d
:102bf4000108200081007100110098001e00780077
:102c04001001900001202000810071001100980043
:102c140001003700000000000080fa0000000600f8
:102c24000a00fa004047980051479800320798007c
:102c340043079800d1472100914078004e4090000e
:102c440080cf500008003200be00900060c0b30086
:102c5400804878004e0190006000b8000089be00f2
:102c6400100020003d0037005e409000ec0107009a
:102c7400000f78009e0078000000eb00808f500069
:102c8400320032001e007800100090004900de007f
:102c940061406000204798001e007800900090007a
:102ca40000102000808060000000eb00808f500046
:102cb40009003200be0090000040eb00804878001c
:102cc4001e00780090089000000890004e019000cb
:102cd4000089be001a0037001e00780090009000a2
:102ce40000022000808060000000eb00808f500014
:102cf40004003200be00900010c1b3008048780088
:102d04000f0037001e00780090009000000420009f
:102d1400808060000000eb00808f500005003200ce
:102d24001e00780040589000be0090008048780053
:102d340003003700be00900090c1b30080487800c3
:102d44002e4090000080fb0004003700be0090007d
:102d540040c1b30080487800100020000080fa00d1
:102d6400000006000400fa00000f780021479800d4
:102d740032479800ae40900000c0eb0080cf500076
:102d840013003a00be4090000040eb0080cf50009a
:102d94000f003a00800620009e007800808f5000cb
:102da40004003a001df907008a14a9000040eb0052
:102db40008003700b00620009e007800808f500085
:102dc40003003a008a14a8000040eb000100370019
:102dd40030c0b3000080fa00000006000a00fa00c8
:102de400204798003147980022079800340798003c
:102df40045079800d1472100914078002e4090006b
:102e040080cf50000200320060c0b300430037009e
:102e140081a3800000f0200080806000004020003a
:102e2400808f50000200320010c0b3003b00370016
:102e34003e4090007a010700000f78009e00780061
:102e44000000eb00808f5000330032001e00780039
:102e5400d008900000302000808060000000eb006b
:102e6400808f500002003a0080c1b3002b0037006d
:102e74001e00780020589000804078000040eb004d
:102e840080cf500002003d0050c1b3002300370042
:102e94001e007800900090000002200080806000f6
:102ea4000000eb00808f50000200320010c1b3001c
:102eb4001a0037001e0078009000900000042000e3
:102ec400808060000000eb00808f50000200320020
:102ed40020c1b300110037001e007800900090005c
:102ee40000202000808060000000eb00808f5000f4
:102ef40002003a0000c1b300080037003e00900011
:102f040000017800ae0090001e007800f504070070
:102f14000040eb000100370040c1b3000080fa001c
:102f2400000006000000fa0060a380001001900079
:102f3400f1fb2f00810061001100980060a3800064
:102f440010019000f1fd2f00810061001100980034
:102f540067d4bf000040e90067f4b7007146210060
:102f6400914078000040eb0080cf50000500320013
:102f740081a3800000ff2f000080600080a38800f0
:102f84000f00370068d4bf000040e90068f4b700c0
:102f940081462100914078000040eb0080cf500032
:102fa400030032000011200080a3880004003700d1
:102fb40070c0b3007ef4b7000050200080a38800e6
:102fc4000080fa00000006001200fa00404f98004a
:102fd400514f9800624f9800030f9800d0a68000cc
:102fe400100798000000eb00000f78004f00370036
:102ff4001e0078004300dd00e6004000404a210046
:1030040000804000100078000000d100e140600022
:1030140010c0b30080cf500043003a001e00780077
:10302400c300dd00404a2100008040009040780049
:103034004e48900080cf50003b003a001e007800bc
:10304400c300dd00404a2100008040009040900011
:103054005e48900080cf500033003a001e00780094
:103064004300dd008080e800404a210000804000e9
:10307400904078006e48900080cf50002a003a00bb
:103084009e009000014890000081fb0011489000d0
:103094000080fb004800dd0002007000200798005b
:1030a4009e009000214890000081fb003148900070
:1030b4000080fb004800dd0002007000300798002b
:1030c4004e489000004f98005e489000104f9800c2
:1030d4006e489000204f9800640047008400200050
:1030e40005002000000178009107200000c0eb00db
:1030f400dd2d07008000eb00810f50000a003a002c
:103104001e0078004300dd00e4004000404a210036
:1031140000804000104090008e08900080487800a5
:1031240010002000060037001e0fe8009e00780003
:1031340010002000808f5000adff34000000eb0031
:103144000080fa00000006000c00fa00d0a68000ff
:10315400100798000000eb00000f780088d4a90045
:10316400a80037001e0078004300dd00e6004000a0
:10317400404a210000804000100078000000d10087
:10318400e14060000040eb0080cf50001e003200a0
:103194001e007800c300dd00404a2100008040008a
:1031a400904078001e0090004040900080cf500076
:1031b40072003a001e007800c300dd00404a21007e
:1031c40000804000904090001e009000504090000d
:1031d40080cf500069003a001e0078004300dd00f3
:1031e4008080e800404a2100008040009040780040
:1031f4001e0090006040900080cf50005f003a00b5
:1032040088d4a8005d0037001e007800c300dd00ec
:10321400404a210000804000100178009e00900088
:10322400014890008081fb00114890000080fb0061
:103234004800dd0003007000800f510010003a00c8
:103244001e0078004300dd008080e800404a210031
:1032540000804000100178009e00900021489000fa
:103264008081fb00314890000080fb004800dd00b5
:1032740003007000800f510001003a0088d4a800b8
:103284001e007800c300dd00404a21000080400099
:10329400900078000080eb00808f500037003a00e7
:1032a4001e0078004300dd008080e800404a2100d1
:1032b40000804000900078000080eb00808f500078
:1032c4002e003a009e009000014890000081fb000f
:1032d400114890000080fb004800dd0002007000ef
:1032e400200798009e009000214890000081fb0078
:1032f400314890000080fb004800dd0002007000af
:10330400300798001e007800c300dd00404a210009
:103314000080400010407800004f98001e007800a4
:10332400c300dd00404a21000080400010409000ae
:10333400104f98001e0078004300dd008080e800f4
:10334400404a21000080400010407800204f98003f
:10335400640047008400200005002000000178007c
:103364009107200000c0eb003f2d07008000eb0018
:10337400810f500001003a0088d4a80041a48000c5
:1033840000042000808060000000eb00808f50006b
:103394001b0032001e0078004300dd00e400400002
:1033a400404a210000804000104090007ff4b700a4
:1033b4001e0078004300dd00e6004000404a210082
:1033c40000804000100078004200de00e140600010
:1033d4000040eb0080cf5000070032001e00780050
:1033e4004300dd00e4004000404a2100008040002a
:1033f400104078007af4b70010002000060037006f
:103404001e0fe8009e00780010002000808f5000fe
:1034140054ff36000000eb000080fa0000000600b4
:103424000600fa0040479800ce4090000040eb00b0
:1034340080cf500002003a0030a480002200370000
:1034440020a48000100798001a0037001e00900086
:10345400a00090000000eb00808f500012003200aa
:103464001e00900020009000a0009000010f780042
:10347400090037001e007800a05890004e409000cc
:1034840080cf500002003a001e0078000e00370082
:103494001e007800100f78009e0078000000eb00fa
:1034a400808f5000f3ff3a001e00900090007800d7
:1034b400110798009e0090000000eb00808f5000e0
:1034c400e2ff3a000000eb000080fa000000060072
:1034d4000200fa000000eb00000f780080a38000d7
:1034e400a0a38000f00060000000eb00808f50007b
:1034f400ad013a00a0a38000e10060000000eb00f1
:10350400808f500025013a000040eb00ab0107001a
:103514008000eb00810f50001f01320060a3800087
:10352400005890008080fb00000f200000806000a5
:1035340001022000810f50005700320001032000d7
:10354400810f5000ad00320001012000810f5000b6
:1035540003013a0060a38000005890000080fb0043
:103564006f006000cf80de00f20020000300200026
:10357400820f5000838f580043003e00006001001a
:103584000f0037001b0037002d0037003e003700c6
:103594003d0037003c0037003b0037003a0037005d
:1035a400390037003800370037003700360037005d
:1035b4003500370034003700330037002900370066
:1035c40060a3800010019000f17f2f008100610052
:1035d40011009800d0c0b3008e06070060a38000dd
:1035e40020589000d1c0b3005a0607007414a800f4
:1035f4007001370062a3800060a3800090089000ef
:1036040000089000500198006101980060a38000b8
:1036140010019000018020008100710011009800c9
:1036240090c0b3007b06070060a380002058900080
:1036340091c0b300470607007414a8005d01370069
:1036440061a380000040eb008058980060a38000d4
:1036540010019000012020008100710011009800e9
:103664000c00370061a380000040eb0080589800f4
:1036740060a38000100190000120200081007100ef
:10368400110098000300370010002000000f78009c
:1036940000000000b400370060a3800000589000d0
:1036a4000080fb006f006000cf80de00f20020008d
:1036b40003002000820f5000838f58004b003e000f
:1036c400006001000f0037001b00370022003700a4
:1036d400340037004500370044003700430037000a
:1036e4004200370041003700400037003f003700f8
:1036f4003e0037003d0037003c0037003b003700f8
:103704003100370060a3800010019000f17f2f008a
:103714008100610011009800d0c0b3003d0607008d
:1037240060a3800020589000d1c0b30009060700b0
:103734007414a8001f01370090c0b30035060700b9
:1037440060a380002058900091c0b30001060700d8
:103754007414a8001701370062a3800060a38000de
:1037640090089000000890005001980061019800b2
:1037740060a380001001900001802000810071008e
:103784001100980010c0b3002206070060a3800057
:103794002058900011c0b300ee0507007414a8006f
:1037a4000401370061a380000040eb0080589800ba
:1037b40060a38000100190000120200081007100ae
:1037c400110098000c00370061a380000040eb005a
:1037d4008058980060a38000100190000120200010
:1037e40081007100110098000300370010002000d0
:1037f400000f7800000000005b00370060a3800029
:10380400005890000080fb006f006000cf80de0055
:10381400f200200003002000820f5000838f580024
:103824004b003e00006001000f0037001b00370012
:1038340022003700340037004500370044003700c9
:103844004300370042003700410037004000370092
:103854003f0037003e0037003d0037003c00370092
:103864003b0037003100370060a380001001900056
:10387400f17f2f008100610011009800d0c0b300d7
:10388400e405070060a3800020589000d1c0b30075
:10389400b00507007414a800c600370010c0b300b8
:1038a400dc05070060a380002058900011c0b3001d
:1038b400a80507007414a800be00370062a38000a6
:1038c40060a38000900890000008900050019800c8
:1038d4006101980060a38000100190000180200025
:1038e400810071001100980090c0b300c905070061
:1038f40060a380002058900091c0b3009505070094
:103904007414a800ab00370061a380000040eb00f2
:103914008058980060a380001001900001202000ce
:1039240081007100110098000c00370061a3800031
:103934000040eb008058980060a3800010019000c4
:10394400012020008100710011009800030037005d
:1039540010002000000f7800000000000200370073
:1039640010002000000f78009e0078000000eb009b
:10397400808f50000800320061a380000040eb00fb
:103984008058980060a3800010019000012020005e
:1039940081007100110098007414a800a0a3800095
:1039a400e80060000000eb00808f500080003a00c7
:1039b40020c0b300810007008000eb00810f50009d
:1039c4006f00320060a38000005890008080fb00ec
:1039d400000f20000080600001082000810f5000cb
:1039e4000400320001092000810f50002b00320036
:1039f4005400370060a38000005890000080fb0052
:103a04006f00600011002000810f50000d00320093
:103a1400f1002000810f5000130032008000eb0001
:103a2400810f500019003a0090c0b30079050700d7
:103a340060a380002058900091c0b30045050700a2
:103a44005c00370061a380000040eb0080589800c0
:103a540060a380001001900001202000810071000b
:103a6400110098000c00370061a380000040eb00b7
:103a74008058980060a3800010019000012020006d
:103a8400810071001100980003003700100020002d
:103a9400000f7800000000002d00370060a38000b4
:103aa400005890000080fb006f00600011002000af
:103ab400810f50000d003200f1002000810f5000f2
:103ac400130032008000eb00810f500019003a000f
:103ad40010c0b3004f05070060a380002058900079
:103ae40011c0b3001b0507003200370061a380003a
:103af4000040eb008058980060a380001001900003
:103b04000120200081007100110098000c00370092
:103b140061a380000040eb008058980060a38000ff
:103b24001001900001202000810071001100980014
:103b34000300370010002000000f78000000000090
:103b44000300370010002000000f78000000000080
:103b54009e0078000000eb00808f500008003200c7
:103b640061a380000040eb008058980060a38000af
:103b740010019000012020008100710011009800c4
:103b840071472100914078000040eb0080cf500045
:103b9400030032000040eb0076f4b7007fff3700eb
:103ba4007474a8000300370000000000010037000f
:103bb400000000000080fa00000006000600fa0081
:103bc4004047980030a48000500890004800de0070
:103bd400634060008080fb004e4090000080fb004a
:103be400808f50000b003a0030a4800090009000b9
:103bf40000202000808060000000eb00808f5000d7
:103c040004003a0030a4800060a388001000200063
:103c1400730037000040eb0077f4b7000000eb00be
:103c2400000f780020a48000100798009e009000e8
:103c34000000eb00808f5000640032001e009000f2
:103c4400a00090000000eb00808f50005f00320065
:103c54001e00900020009000a0009000010f78004a
:103c64005a0037009e0078000000eb00808f50005f
:103c7400420032001e007800500890004800de0028
:103c8400634060008080fb004e4090000080fb0099
:103c9400808f500037003a004e4090000080fb00b7
:103ca4008000eb00810f500004003200210020004e
:103cb400810f50000c0032002e0037001e007800e7
:103cc4009000900000202000808060000000eb0045
:103cd400808f500020003a001e00780060a3880006
:103ce400100020003e0037001e0078009000900075
:103cf40000202000808060000000eb00808f5000d6
:103d040017003a001e007800900090000000210087
:103d1400808060000000eb00808f500012003a00a9
:103d240077d4bf000040e80077f4b7007147210062
:103d34009140780076d4bf0080cf50000c0036004c
:103d440077d4bf0076f4b7001e00780060a3880023
:103d5400100020002200370000000000050037009a
:103d640000000000030037000000000001003700dd
:103d7400000000001e007800100f78009e007800fc
:103d84000000eb00808f500010003a001e009000ed
:103d940090007800110798009e0090000000eb004e
:103da400808f5000090032001e009000a000900097
:103db4000000eb00808f5000040032001e009000d1
:103dc40020009000a0009000010f78009e00900059
:103dd4000000eb00808f5000a2ff3a000000eb00cf
:103de4000080fa00000006000600fa0033003700e5
:103df40020a48000100f78002500370020a4800044
:103e0400100090009000780011079800110037000e
:103e140020a4800010009000200090009000780002
:103e24002107980020a4800010009000200090003a
:103e340095f2070020a48000100090008000eb00a1
:103e44002100980020a4800010009000ae00900093
:103e54002100980020a4800010009000a000900091
:103e64000000eb00808f5000e9ff3a0020a480009e
:103e74001000900084f2070020a480008000eb0072
:103e84001100980020a480009e009000110098006a
:103e940020a48000900090000000eb00808f500070
:103ea400d6ff3a0020a4800077f207000000eb0060
:103eb40020a488001e00780020a4880021a480008b
:103ec4000000eb00808f5000c9ff3a0030a480004e
:103ed40060a388000080fa00000006000200fa00d7
:103ee4000f00370010a4800010009000000f78002d
:103ef40010a480001000780063f2070010a4800072
:103f04008000eb000108780010a480005ef2070036
:103f14000000eb0010a488001e00780010a48800a4
:103f240011a480000000eb00808f5000edff3a00e8
:103f3400d1a680000000eb00808f50000400320006
:103f4400d0a6800050f207000000eb00d0a6880045
:103f540071a380000000eb00808f50000400320049
:103f640070a3800048f207000000eb0070a38800f3
:103f74009dff07000080fa00000006000a00fa0016
:103f8400000f780011079800220798003307980063
:103f9400440798001e00780010019000f1fd2f00e6
:103fa40081006100110098001e007800100190004b
:103fb400f1fb2f0081006100110098001e007800c1
:103fc40010019000f1f72f008100610011009800aa
:103fd4001e00780010019000f1ef2f0081006100b5
:103fe400110098001e0078001001900001fe2f00bf
:103ff40081006100110098001e00780010019000fb
:10400400f1ff2e0081006100110098001e0078006d
:10401400be009000310898001e0178006000b800ce
:1040240000099800110998004e009000010020003a
:104034001e01780050019800610198001e0078006c
:104044008000eb00710898001e0078009e0090002c
:10405400210898001e007800ae00900071009800be
:104064009e00780000c2b300805898001e007800bb
:1040740010019000f1df2f00810061001100980011
:104084000080fa00000006000a00fa00000f780021
:1040940011079800220798003307980044079800f6
:1040a4001e00780010019000f1fd2f0081006100d6
:1040b400110098001e00780010019000f1fb2f0001
:1040c40081006100110098001e007800100190002a
:1040d400f1f72f0081006100110098001e007800a4
:1040e40010019000f1ef2f00810061001100980091
:1040f4001e0078001001900001fe2f008100610075
:10410400110098001e00780010019000f1ff2e00ad
:1041140081006100110098001e007800be0090002c
:10412400310898001e0178006000b800000998006a
:10413400110998004e009000010020001e01780033
:1041440050019800610198001e0078008000eb0087
:10415400710898001e0078009e00900021089800c5
:104164001e007800ae00900071009800ce00900010
:104174000000eb00808f500004003a009e0078009d
:1041840000c1b30080589800030037009e007800f7
:1041940000c3b300805898001e00780010019000fe
:1041a400f1df2f0081006100110098000080fa0007
:1041b400000006000600fa00000f780011079800be
:1041c400220798001e00780010019000f1f72f00dc
:1041d40081006100110098001e0078001001900019
:1041e400f1ef2f0081006100110098001e0078009b
:1041f4001001900001fe2f00810061001100980061
:104204001e00780010019000f1ff2e008100610073
:10421400110098001e0078009e009000310898005c
:104224001e0178006000b800000998001109980088
:104234002e009000010020001e017800500198001b
:10424400610198001e0078008000eb00710898005e
:104254001e007800d00890000030200080806000ac
:1042640000302000808f500004003a009e00780047
:1042740000c4b30080589800130037001e00780073
:10428400d0089000003020008080600000102000e2
:10429400808f500009003a009e00780000c6b300e9
:1042a400805898001e007800300890008000780044
:1042b4000040eb0090409800030037009e00780017
:1042c40000c8b300805898001e00780010019000c8
:1042d400f1df2f0081006100110098000080fa00d6
:1042e400000006000600fa00000f7800110798008d
:1042f400220798001e00780010019000f1f72f00ab
:1043040081006100110098001e00780010019000e7
:10431400f1ef2f0081006100110098001e00780069
:104324001001900001fe2f0081006100110098002f
:104334001e00780010019000f1ff2e008100610042
:10434400110098001e0078009e009000310898002b
:104354001e0178006000b800000998001109980057
:104364002e009000010020001e01780050019800ea
:10437400610198001e0078008000eb00710898002d
:104384001e007800d008900000302000808060007b
:1043940000302000808f500004003a009e00780016
:1043a40000c5b30080589800130037001e00780041
:1043b400d0089000003020008080600000102000b1
:1043c400808f500009003a009e00780000c7b300b7
:1043d400805898001e007800300890008000780013
:1043e4000040eb0090409800030037009e007800e6
:1043f40000c9b300805898001e0078001001900096
:10440400f1df2f0081006100110098000080fa00a4
:10441400000006000a00fa002047980021079800cf
:1044240032079800430798002e00900021072000cf
:10443400810f500003003200f1ff2700810f50006c
:1044440016003a003e0090009048900000c0eb0037
:1044540080cf50002b0032003e00900010489000a6
:104464000080fb006a00b900000078008080e8004a
:10447400a049210000804000900178004e00900087
:10448400010020000002be003e019000ae0090003a
:104494002e409000030001001b00370020a4800080
:1044a400000f7800120037001e0078007040900062
:1044b4000080fb006a00b900000078008080e800fa
:1044c400a049210000804000900178004e00900037
:1044d400010020000002be003e019000ae009000ea
:1044e4002e409000030001001e007800100f780099
:1044f4009e0078000000eb00808f5000eaff3a0035
:1045040001003700000000000080fa0000000600ef
:104514000a00fa0020479800210798003207980003
:104524004307980020a48000000f78001200370091
:104534001e007800704090000080fb006a00b90003
:1045440000007800e4004000a04921000080400001
:10455400900178004e009000010020000002be008f
:104564003e019000ae0090002e4090000300010038
:104574001e007800100f78009e0078000000eb0009
:10458400808f5000eaff3a000080fa000000060025
:104594002400fa000040eb00204798000000eb00e4
:1045a400000f78000000eb0020079800c0a68000f0
:1045b400600798000040eb00604f98000040eb005b
:1045c400704f980021a48000510798008834a900f6
:1045d4008854a8006e00900090407800015798001d
:1045e4006e0090000000e800600798006e009000e4
:1045f40090407800115798006e0090000000e80089
:10460400600798006e009000104078000080fb0066
:10461400100f98006e0090000000e80060079800fa
:104624006e009000104078000080fb004800dd0020
:104634009e08900000804000100f98006e009000cb
:104644000000e800600798006e0090009040780039
:10465400415798006e0090000000e8006007980041
:104664006e00900090407800515798006e009000c2
:104674000000e800600798006e0090000000e80069
:10468400600798006e0090000000e8006007980042
:104694006e0090009040780061579800100220004e
:1046a4000e004000ee5090001140980011022000ce
:1046b4008e8040000040eb0080487800100220000b
:1046c4000e004000240020000500200000017800b6
:1046d4009106200000c0eb00632807008000eb0077
:1046e400810f500004003a0080c2b3007ef4b7008a
:1046f40010002000000f78000e5090000080fb0096
:10470400ae0090000080400020079800c1a6800001
:104714002e0090000080400060079800840137005c
:104724006e00900090407800015798006e00900051
:104734000000e800600798006e0090009040780048
:10474400115798006e0090000000e8006007980080
:104754009e50900090c0b30080cf500012003a00e9
:104764008834a8006e009000104078007bf4b700f5
:104774007bd4bf000080fb00e20060000000eb007f
:10478400808f50000700320040a48000e8006000e1
:104794000000eb00808f5000020032008854a90012
:1047a400010037008874a9009e50900040c0b300f7
:1047b40080cf50000a0032000e5090000080fb00b1
:1047c400ae0090000080400020079800c1a6800041
:1047d4002e009000008040006007980054013700cc
:1047e4006e00900090407800715798006e00900021
:1047f4000000e800600798006e0090009040780088
:10480400015f98006e0090000000e80060079800c7
:104814006e00900090407800115f98006e00900048
:104824000000e800600798006e0090009040780057
:10483400215f98006e0090000000e8006007980077
:104844006e00900090407800315f98006e009000f8
:104854000000e800600798006e0090009040780027
:10486400415f98006e0090000000e8006007980027
:1048740041a4800000042000808060000000eb0060
:10488400808f5000030032007fd4bf00006798007f
:1048940014003700000220000e0040008001780060
:1048a4004e599000be5890002e589000c6f907004b
:1048b4008000eb00810f50000a003a000e50900077
:1048c4000080fb00ae0090000080400020079800ac
:1048d400c1a680002e009000008040006007980070
:1048e400130137005e009000300798000300370082
:1048f4003e0090009000780031079800be009000c0
:104904000000eb00808f5000050032003e00900054
:10491400e04090007e50900080cf5000f4ff3a00b9
:10492400be0090000000eb00808f50001e003a0093
:10493400800020003bef070030079800be00900085
:104944000000eb00808f500002003a0010002000ad
:10495400000f78009e0078000000eb00808f50006c
:1049640011003a003e009000fe5090006140980013
:104974000e609000be009000f04098003e00900051
:104984008000eb00110098003e0090008000eb00d6
:10499400210098003e009000de009000010878009d
:1049a4003e009000500798009e0078000000eb0045
:1049b400808f500009003a006000200019ef0700c2
:1049c40040079800ce0090000000eb00808f50005c
:1049d40002003a0010002000000f78009e007800ca
:1049e4000000eb00808f5000cb003a003e009000a6
:1049f400900090004e009000010878004e00900056
:104a04008e589000214098004e0090008000eb00ea
:104a1400210098003e009000ce0090001100980004
:104a24008e5890000040eb0080cf500003003a0005
:104a34003e009000ce009000210098000e5090009f
:104a44000080fb00ae00900000804000200798002a
:104a5400c1a680002e0090000080400060079800ee
:104a64000040eb00204798009f0037006e00900044
:104a740090407800015798006e0090000000e80014
:104a8400600798006e0090009040780011579800dd
:104a94006e0090000000e800600798009e509000af
:104aa40050c0b30080cf50000a0032000e50900076
:104ab4000080fb00ae0090000080400020079800ba
:104ac400c1a680002e00900000804000600798007e
:104ad4008500370020022000d2ee0700700f9800f6
:104ae400fe0890000000eb00808f500002003a00a6
:104af40010002000000f78006e0090001040780035
:104b0400fe089000a05898006e0090000000e80095
:104b1400600798006e00900010407800fe08900036
:104b2400b05898006e0090000000e80060079800fc
:104b34006e009000104078008080fb007e0890009a
:104b4400410098006e0090000000e80060079800a3
:104b54007e089000c00090006e0090001040780025
:104b64000080fb004800dd00808040007e0890004b
:104b7400410098006e0090000000e8006007980073
:104b84006e009000104078008080fb007e0890004a
:104b9400210098006e0090000000e8006007980073
:104ba4007e0890008000eb00110098007e089000c1
:104bb4001001900001402000810071001100980054
:104bc4007e089000100190000120200081007100f7
:104bd400110098007e0990006000b8000009980058
:104be40011099800fe0890000040eb0080589800de
:104bf4000e609000fe089000905898007e08900087
:104c0400d008900000302000808060000010200058
:104c1400808f50001d003a007e089000a000900094
:104c24000000eb00808f500003003a007e089000e3
:104c340011002000210098007e089000a000900040
:104c440000012000808f5000030036007e08900091
:104c540001012000210098007e08900020009000af
:104c64000000e900110020000008dd008000780049
:104c74007e089000210098007e08900010019000aa
:104c8400f1bf2f0081006100110098007e089000a0
:104c9400a00090007e089000310098004e00900023
:104ca400a00090007e089000010878004e0090005b
:104cb400fe089000210098002e4090000040e8007b
:104cc400204798000e5090000080fb00ae0090003a
:104cd4000080400020079800c1a680002e009000ac
:104ce40000804000600798009e0078000000eb0000
:104cf400808f500008003a00ae0090001e0890001b
:104d0400808f500004003100ae4090001e58900087
:104d140080cf500055ff3900ae4090001e589000df
:104d240080cf50000200320010002000000f7800f5
:104d34009e0078000000eb00808f500004003a00d1
:104d4400ae0090001e089000808f500074fe390061
:104d5400de0090000000eb00808f500002003a005b
:104d640010002000000f78009e0078000000eb0087
:104d7400808f5000340032002d0037005e00900018
:104d8400300798005e00900090007800510798006a
:104d94001e0037003e0090009000900041079800ec
:104da4003e00900010009000900078003e009000bb
:104db400110098000c0037004e009000a0009000f5
:104dc400710f98004e009000200090009000780031
:104dd4004e009000210098007e089000aaee070083
:104de4000000eb00700f98004e009000a0009000af
:104df4000000eb00808f5000efff3a004e0090005f
:104e0400a1ee07000000eb00400798003e00900070
:104e1400900090000000eb00808f5000ddff3a000e
:104e24003e00900098ee07000000eb003007980069
:104e3400de0090000000eb00808f5000cfff3a00ae
:104e44000000eb00080037005e5090007af4b700d1
:104e54006e5090000080fb0000a48800de009000eb
:104e640021a48800100020000080fa000000060041
:104e74000800fa0060479800ee4090000040eb0004
:104e840080cf500025003a0020a48000100798002d
:104e94001d0037001e00900090009000210798002c
:104ea400120037002e009000a0009000010f78003f
:104eb400070037001e00780010019000f17f2f00da
:104ec40081006100110098001e007800100f780026
:104ed4009e0078000000eb00808f5000f5ff3a0040
:104ee4002e0090009000780021079800ae009000fa
:104ef4000000eb00808f5000eaff3a001e00900093
:104f040090007800110798009e0090000000eb00cc
:104f1400808f5000dfff3a000c0037006e40900095
:104f24003ff90700000f78009e0078000000eb00b6
:104f3400808f5000050032001e00780010019000a0
:104f4400f17f2f0081006100110098000080fa00b9
:104f5400000006000400fa0020479800314798003a
:104f6400d0c5b300004f780040a48000e100600089
:104f74000000eb00808f50000200320000c8b30034
:104f84001e4f700060a38000d00890000030200005
:104f9400808060000000eb00808f500002003a0027
:104fa400f0ceb3001e4f600060a38000d0089000d4
:104fb400003020008080600000102000808f5000ae
:104fc40002003a00e0cfb3001e4f60009e4078001c
:104fd4000180fb00502588007cd4bf000080fb00ca
:104fe400b02488003e4090000080fb00c400dd0037
:104ff4002e4090000081fb00f007200000006100bb
:1050040000807000f02488007494a8000080fa00e6
:10501400000006000600fa0040479800ce409000c9
:1050240090c0b30080cf500017003a000060210008
:105034001007980040a48000f00060000000eb001e
:10504400808f500002003200406021001007980059
:1050540040a480004400de006140600000c0ea001b
:10506400614060000080fb00610060004400dd00de
:1050740042a48000f1fe2f008100610000807000d6
:1050840040a48800170037008060210010079800b2
:1050940041a4800000022000808060000000eb003a
:1050a400808f500002003200c06021001007980079
:1050b40040a480004500de006140600000c0ea00ba
:1050c400614060000080fb00610060004500dd007d
:1050d40042a48000f1fd2f00810061000080700077
:1050e40040a48800ce409000d0c0b30080cf5000d0
:1050f4001a003a0060a38000700090006101b800bb
:1051040060a3800090089000000890000001510006
:105114008181590060a380004000900001002000bc
:10512400800f5100818f59000400360060a3800075
:10513400c0009000010f78002e00370060a38000ab
:105144007001900060a38000900890000008900017
:1051540000007800000f51002600370060a3800093
:10516400d0089000003020008080600000102000f3
:10517400808f500004003a0060a38000c0009000bb
:10518400010f78001b00370060a3800050019000dd
:10519400e001900060a38000900890000008900057
:1051a400000151008181590060a3800040009000fb
:1051b40001002000800f5100818f59000400360047
:1051c40060a38000c0009000010f78000900370040
:1051d40060a38000e000900050009000000178007f
:1051e40060a3800090089000000890000000780000
:1051f400000f5100ce409000d0c0b30080cf5000cb
:1052040006003a0060a38000200890008000780027
:105214001e009000110098002000370060a3800059
:10522400d008900000302000808060000010200032
:10523400808f50000f003a0060a380003008900077
:105244000001780060a380003008900010409000b6
:105254000080fb000000e8006600b9000000780050
:1052640062007800800078001e0090001100980011
:105274000a00370060a38000300890000001780025
:1052840060a380009008900000089000000078005f
:10529400800041001e009000110098009e009000c4
:1052a4000040eb0090409800f03f20001e01600099
:1052b4001e009000f13f2000810061009001780001
:1052c40002c02f0002816100810071000108780092
:1052d40060a38000100090004b00de00614060007d
:1052e4009e0090000080fb00610060004e00dd0025
:1052f40091017800f2ff2b0002816100000071002f
:105304008008780060a38000100090004a00de004e
:10531400614060009e0090000080fb00610060001e
:105324004b00dd0091017800f27f2f0002816100c3
:1053340000007100800878001e00900010017800c1
:105344000100280081007100010878000080fa0043
:10535400000006000600fa0030a4800090009000cf
:1053640000202000808060000000eb00808f50004f
:1053740002003a00100020002900370020a4800019
:1053840010079800210037001e0090009000900044
:1053940021079800160037002e009000a00090000e
:1053a400010f78000b0037001e0078009000900079
:1053b40000202000808060000000eb00808f5000ff
:1053c40002003a0010002000150037001e0078008b
:1053d400100f78009e0078000000eb00808f5000d2
:1053e400f1ff3a002e009000900078002107980009
:1053f400ae0090000000eb00808f5000e6ff3a0002
:105404001e00900090007800110798009e00900004
:105414000000eb00808f5000dbff3a000000eb003f
:105424000080fa00000006003600f800809fbe00ed
:10543400829fbe00849fbe00869fbe000a00fa00c1
:1054440071048000f0fb2f0000806000700488006d
:105454001124800000042000808060000000eb0024
:10546400808f50001d0032000124800000042000c1
:10547400808060000000eb00808f50001700320035
:10548400000420000024880051a380000000eb00e9
:10549400808f50001100320050a380000000e9000a
:1054a40050a3880051a380000000eb00808f5000bf
:1054b4000a003a0082c4a90081a3800000f0200001
:1054c400808060000000eb00808f500003003200f9
:1054d40080a380000000e80080a38800612480008d
:1054e40000042000808060000000eb00808f5000ea
:1054f4000f003200512480000004200080806000ee
:105504000000eb00808f5000090032008cc4a90019
:10551400000420005024880081a3800000032000a0
:10552400808f500002003a000010200090a38800f1
:1055340060248000e10060000000eb00808f5000d8
:105544000a00320050248000e10060000000eb00fb
:10555400808f500005003200100020005024880085
:105564008c04a9000000eb0090a388006024800054
:10557400e80060000000eb00808f5000c60132009c
:1055840050248000e80060000000eb00808f500091
:10559400c101320060248000e20060000000eb00e2
:1055a400808f50000c00320050248000e200600024
:1055b4000000eb00808f50000700320060a38000e1
:1055c400d00890000030200080806000001020008f
:1055d400808f5000b0013a007494a9009024800098
:1055e40040079800800020005024880060a38000b9
:1055f400205890008080fb00f02480000080680028
:10560400ef0060000000eb00808f5000a1013a0021
:105614004e009000e80060000000eb00808f500016
:105624000a00320080602100000f78004e009000d4
:10563400e40060000000eb00808f50000c0032009a
:10564400c0602100000f78000900370000602100cd
:10565400000f78004e009000e40060000000eb00b2
:10566400808f50000200320040602100000f78005b
:105674001e0078009000780000c023008080600045
:1056840000802000808f500060003a009e00780067
:10569400f03f2000110060003007980064a38000f0
:1056a40060a3800000099000900990003e009000e3
:1056b400010020000200400083804800000a980096
:1056c400110a980060a380008000eb007108980024
:1056d40061a3800060a38000100090004b00de00f6
:1056e400614060000004a200614060000080fb0093
:1056f400610060004b00dd0091019000f27f2f00fb
:1057040002816100000071009000980060a3800095
:105714008058900000c1b30080cf50000a003200ce
:1057240060a380008058900000c2b30080cf500076
:105734000500320060a380008058900000c3b300cd
:1057440080cf500012003a0060a38000000990004e
:105754009009900060a38000700090000100200078
:10576400800f5100818f59004a01390062a38000e3
:105774006000b800000998001109980061a3800036
:10578400015890000040e80080589800410137001b
:1057940060a38000d008900000302000808060006a
:1057a40000102000808f50000e00320060a38000a3
:1057b400c00090003e009000808f500009003e0021
:1057c40060a38000000990009009900060a380000d
:1057d400e000900050009000800f5100818f59002c
:1057e4001d01390060a38000100190000110200009
:1057f400810071001100980061a38000015890009d
:105804000040e80080589800220137001e0078000c
:105814009000780000c023008080600000c0200059
:10582400808f5000070032001e007800900078003e
:1058340000c023008080600000c02200808f5000e0
:105844003f003a009e007800f03f20001100600005
:105854003007980064a3800060a3800000099000d2
