:020000040000fa
:080000000002040000000000f2
:020000040000fa
:100400008f6021000e7f24000e0188000000000094
:100410000c00070060632e0001002000110007009f
:10042000000020000000e000020032000000020096
:1004300000000000d8df0200000000000040da00e9
:100440000000fe004440a900600f20000000e00012
:100450000300320000002000a00188004440a800f2
:100460000000060091018800800078000000eb0089
:1004700015003700e280400032a0b4009101ba00bc
:10048000e280400032a0b4009102ba00e280400055
:1004900032a0b4000002eb00472bde00f507b200eb
:1004a000602ce10004003a000059eb008301e900f0
:1004b000fdff3e00040037006128e100010032002a
:1004c0000082eb00040007001101ba000200e00006
:1004d000e8ff3a00000006003159ba008301e90044
:1004e0000c0032002159ba008301e90008003200f3
:1004f0000400e00003003a00e280400032a0b400b3
:10050000f5ff370011d9ba008301e900faff3a007c
:100510008100e800e180400032a0b4000000060045
:100520005ad90400000000007cd90400000000003b
:100530000ec504000000000008c704000000000011
:100540000040da000000fe00800078001104b100d5
:10055000030035009101b10001003c000050a000f3
:1005600000000600800078001106b100030035008d
:100570009101b10001003c000050a1000000060004
:100580006022b800060220000000d0008180d20066
:100590000482d2008582d2000000a0000202520034
:1005a00083825a00030031000202420083824a0023
:1005b0000000a1000603e900f3ff3a000000060076
:1005c000efff07000400be00000006000800fa006c
:1005d000889fbe008a9fbe0084bf9f0095bf9f007a
:1005e000a6bf9f00b7bf9f003004be002005be001d
:1005f0000fba97009fba97002fbb9700bfbb970019
:100600000404440085844c0006054d0087854d0098
:100610000898be000a90be000440e10005c8e10051
:1006200006d0e10007d8e100020031006800400078
:100630001008e8004f05be004f04be000080fa001d
:1006400000000600fe874700889fbe008a9fbe000c
:100650008c9fbe008e1f7800d0b79f00e1b79f002f
:10066000f2b79f0083bf9f0084b79f0095b79f009c
:10067000a6b79f00b7b79f008000eb00f1af9f00c7
:10068000e1af9f00d1af9f00c1af9f00b1af9f000e
:10069000010678000d042000ccb79f000605be00bf
:1006a0000404be007fae97006faf97005fa897006d
:1006b000e00f56000f003d00cf71de000c01460038
:1006c00002817100f2af9f005d0007004f20de0045
:1006d0008180400081007000640007000802be00b5
:1006e0000a03be0060fd2f000f004000b7ff0700a7
:1006f0001d003700520007004f21de0081804000be
:1007000081007100590007003faa9700cfaa970007
:100710005fab9700efab97000800520089805a004a
:100720000a015b008b815b00b0af9f00c1af9f00ef
:10073000d2af9f00e3af9f004f70de000c01460078
:1007400002007000130020000820e10009a8e10069
:100750000ab0e1000bb8e100010039008001eb00b4
:1007600003005000f0af9f007fae9700e00f5600ef
:100770000f00350010002000010020006011b800bb
:100780005fb29700efb297007fb397008fbb9700df
:100790000402700085827000060371008783710077
:1007a000d4b79f00e5b79f00f6b79f0087bf9f00b3
:1007b000cfb297008502e800c5b79f008d8f520029
:1007c000b8ff3a000c017800e00f510007003d002f
:1007d0000fb297009fb297002fb39700bfb3970057
:1007e00060fd2f000f00400078ff0700ffa097007a
:1007f000e08f500008003a003fac9700cfac970064
:100800005fad9700efad9700d8b79f00e9b79f00a5
:10081000fab79f008bbf9f005fb09700efb09700c3
:100820007fb197008fb997004f0778004f06be0041
:100830004f05be004f04be00ef01b10000000600ee
:100840004f01de008e00470081007100c1af9f00a4
:10085000afa897004f09de000000400000007100c3
:10086000b0af9f001faa970000000600a1af9f0035
:100870000e0007004f18de00040242000002720062
:1008800094af9f00090007000000400081804800ed
:100890000201490083814900b0b79f00c1b79f00a2
:1008a000d2b79f00e3b79f00000006001fb097007b
:1008b000afb097003fb19700cfb19700000006009e
:1008c000881f780018002000881f78005dff07004f
:1008d0008f87e9004f04780000000600801feb00be
:1008e00058ff07008f87e90000000600889fbe00c0
:1008f0008a9fbe008c1f78006044b8006055b80025
:100900000800e1000988e1000a90e1000b98e1008d
:100910000d003d000000540081805c0002015d007c
:1009200083815d001c0020000820e10009a8e1008f
:100930000ab0e1000bb8e1000b003d002100070008
:100940000006eb00080037000006eb00e00f520045
:10095000e08f5a00e00f5b00e08f5b0002003d007b
:10096000180007001c002000d5ff07008005780054
:100970000105780082047800030478000b027800f7
:100980008a0278000903780088037800e00f560097
:10099000060032006000b8006011b8000402500088
:1009a0008582580006035900878359000400be0061
:1009b0000601be004f0678004f05be004f04be0082
:1009c000000006000402540085825c0006035d00fe
:1009d00087835d0000000600889fbe008a9fbe00de
:1009e0008c1f78006044b8006055b8000800e10032
:1009f0000988e1000a90e1000b98e1000b003d003e
:100a00000000540081805c0002015d0083815d0074
:100a10001c0020000820e10009a8e1000ab0e10064
:100a20000bb8e1000b003d00060037000006eb00ac
:100a3000e00f5200e08f5a00e00f5b00e08f5b0098
:100a400004003d000402540085825c0006035d0042
:100a500087835d00a1ff070080057800010578000d
:100a600082047800030478000b0278008a02780080
:100a70000903780088037800e00f56000600320072
:100a80006000b8006011b800040250008582580070
:100a900006035900878359000400be000601be000a
:100aa0004f0678004f05be004f04be000000060050
:100ab000e8874700889fbe008a9fbe008c9fbe00cb
:100ac0008e1f7800010d210082868000e00f51000a
:100ad0000b003a006481400082868800d28688003c
:100ae000a1009800c1868800214190000204a00066
:100af000a2409800614190000204a000e2409800ea
:100b0000670440004244de004244dd00c0868000ad
:100b10000e222100896021008e84540026002000ce
:100b2000801f7800110009008604d80000037800b7
:100b30004f0078008880e800818240008001eb004f
:100b40006146b800b46021000e0252000802420063
:100b5000010037000a007800a0409000e1806000aa
:100b6000020032000a0037001208780010017800f5
:100b7000a2409000e1806000fbff3200880040004e
:100b8000810f510002003900e00f540049003d0080
:100b900010057800800f5500eeff3e008e0f5500c7
:100ba00003003900010d2100810f5500e9ff3900d4
:100bb000d1868000810f50004f003a00000d2100c7
:100bc000800f55004c003a008301e800e18f51008e
:100bd000e0ff3600860f540002003600890f5400f3
:100be0000d0039006148b900b2ff2f00030020005a
:100bf0000000510081805900800f5600818f5e00f7
:100c000007003d00110009000982d8000980b900e1
:100c10008005780003003700850578000100370063
:100c2000880578000b00780084bf9f00e5b79f001f
:100c3000f6b79f00980007000fba9700efb2970031
:100c40007fb39700e10f40002b003200d186800077
:100c500080087800d1868000e48140002141900026
:100c6000830f5000020032000204a0000100370090
:100c70000204a100a2409800e48555008b054000c5
:100c80000b087800db868800010d2100810d7800bb
:100c9000d2868000a24090000104a000214198006b
:100ca000a04090000104a100214098008001eb00c9
:100cb000a8ff3700c1868800810f51000700360069
:100cc0001101be00e2868800f38688009008780053
:100cd000c28680008000eb0021419800c38680001e
:100ce00003087800a04090000104a0002140980073
:100cf00064004000010037000000eb004f0778005f
:100d00004f06be004f05be004f04be008f00b1006d
:100d10000000060064005000c0868800a0409000db
:100d20000104a1002140980000000600889fbe0039
:100d30008a9fbe008004780001047800648154001a
:100d40009205780069f997006101610002003200a4
:100d500009007800efff07000800780054ff070043
:100d600000047800e00f54001b003200890f54008b
:100d70001900320068bd97000805550042d5de0015
:100d8000098055004280de000a017800800f55007e
:100d900001003600000178004211dd000800be00ad
:100da00011000700890f54000b0031004255dd008f
:100db0000a054400890f55000700360089045500d4
:100dc000c2ccde00c24cdd0089044400e086800015
:100dd000f1868000808cbe00080078004f05be00c0
:100de0004f04be00000006008001780002003700ba
:100df000b15978000201e900e00f5100fcff3a0010
:100e00000000060080017800020037008159780058
:100e10000201e900e00f5100fcff3a00000006006b
:100e2000800178003141780082597800e04f51000c
:100e3000fcff3a0000000600800078000041eb0053
:100e4000b14f1100fdff3a000080ea000080400031
:100e50000000060080017800060037000201e9006a
:100e6000b14278008559780003027800e0cf520043
:100e70000600320003027800e00f5100f7ff3a004d
:100e800002003700005aeb000201e900e00f5100b8
:100e9000fcff3a0000000600889fbe008a1f780011
:100ea00000057800c9878000e08f540005003a00f3
:100eb000090078000f0007000084eb00890f500044
:100ec00008003500c8878000e00f5500050032009b
:100ed0000a00440007000700e00f500001003d0039
:100ee0000084eb00080078004f0578004f04be0036
:100ef00000000600e00f500004003a00012221002b
:100f0000c187880080007800060037008080eb00f1
:100f100082602100820f500002003e00c0878800de
:0c0f20008000eb000100780000000600db
:020000040000fa
:020000040005f5
:0457f800fe1300009c
:020000040000fa
:020000040005f5
:0457fc007f3e0000ec
:020000040000fa
:10000800a0020000a0020000a0020000a002000060
:10001800a0020000a0020000a0020000a002000050
:10002800a0020000a0020000a0020000a002000040
:10003800a0020000a0020000a0020000a002000030
:10004800a0020000a0020000a0020000a002000020
:10005800a0020000a0020000a0020000a002000010
:10006800a0020000a0020000a0020000a002000000
:10007800a0020000a0020000a0020000a0020000f0
:10008800a0020000a0020000a0020000a0020000e0
:10009800a0020000a0020000a0020000a0020000d0
:1000a800a0020000a0020000a0020000a0020000c0
:1000b800a0020000a0020000a0020000a0020000b0
:1000c800a0020000a0020000a0020000a0020000a0
:1000d800a0020000a0020000a0020000a002000090
:1000e800a0020000a0020000a0020000a002000080
:1000f800a0020000a0020000a0020000a002000070
:10010800a0020000a0020000a0020000a00200005f
:10011800a0020000a0020000a0020000a00200004f
:10012800a0020000a0020000a0020000a00200003f
:10013800a0020000a0020000a0020000a00200002f
:10014800a0020000a0020000a0020000a00200001f
:10015800a0020000a0020000a0020000a00200000f
:10016800a0020000a0020000a0020000a0020000ff
:10017800a0020000a002000088aa0000a00200005f
:10018800a0020000a0020000a0020000a0020000df
:10019800a0020000a0020000a0020000a0020000cf
:1001a800a0020000a0020000a0020000a0020000bf
:1001b800a0020000a0020000a0020000a0020000af
:1001c800a0020000a0020000a0020000a00200009f
:1001d800a0020000a0020000a0020000a00200008f
:1001e800a0020000a0020000a0020000a00200007f
:0801f800a0020000a0020000bb
:020000040000fa
:10020800a0020000a0020000a0020000a00200005e
:10021800a0020000a0020000a0020000a00200004e
:10022800a0020000a0020000a0020000a00200003e
:10023800a0020000a0020000a0020000a00200002e
:10024800a0020000a0020000a0020000a00200001e
:10025800a0020000a0020000a0020000a00200000e
:10026800a0020000a0020000a0020000a0020000fe
:10027800a0020000a0020000a0020000a0020000ee
:10028800a0020000a0020000a0020000a0020000de
:10029800a0020000a0020000a0020000a0020000ce
:1002a800a0020000a0020000a0020000a0020000be
:1002b800a0020000a0020000a0020000a0020000ae
:1002c800a0020000a0020000a0020000a00200009e
:1002d800a0020000a0020000a0020000a00200008e
:1002e800a0020000a0020000a0020000a00200007e
:1002f800a0020000a0020000a0020000a00200006e
:10030800a0020000a0020000a0020000a00200005d
:10031800a0020000a0020000a0020000a00200004d
:10032800a0020000a0020000a0020000a00200003d
:10033800a0020000a0020000a0020000a00200002d
:10034800a0020000a0020000a0020000a00200001d
:10035800a0020000a0020000a0020000a00200000d
:10036800a0020000a0020000a0020000a0020000fd
:10037800a0020000a002000088aa0000a00200005d
:10038800a0020000a0020000a0020000a0020000dd
:10039800a0020000a0020000a0020000a0020000cd
:1003a800a0020000a0020000a0020000a0020000bd
:1003b800a0020000a0020000a0020000a0020000ad
:1003c800a0020000a0020000a0020000a00200009d
:1003d800a0020000a0020000a0020000a00200008d
:1003e800a0020000a0020000a0020000a00200007d
:0803f800a0020000a0020000b9
:020000040000fa
:100f2c001201000000020000000000000008000098
:100f3c00d80400003f000000020000000102000085
:100f4c00000100000902000029000000010100005e
:100f5c0000c0000032090000040000000002000084
:100f6c000300000000000000092100001101000036
:100f7c0000010000221d0000000700000581000098
:100f8c000340000000010000070500000103000001
:100f9c0040000000010000000403000009040000f0
:100fac00340300004d0000006900000063000000e5
:100fbc00720000006f000000630000006800000079
:100fcc0069000000700000002000000054000000c8
:100fdc006500000063000000680000006e00000067
:100fec006f0000006c0000006f0000006700000044
:100ffc007900000020000000490000006e00000095
:10100c00630000002e0000002e03000053000000bf
:10101c00690000006d000000700000006c00000012
:10102c00650000002000000048000000490000009e
:10103c004400000020000000440000006500000097
:10104c0076000000690000006300000065000000ed
:10105c002000000044000000650000006d0000004e
:10106c006f00000006000000ff09000001a1000055
:10107c0001190000012900004015000000260000a5
:10108c00ff00000075080000954000008102000080
:10109c00190100002940000091020000c00000006e
:1010ac00a8870000d2870000d68700000a880000bd
:1010bc007700000074650000737400002e7400004b
:1010cc007874000000540000686900007320000070
:1010dc00697300002061000020740000657300003b
:1010ec007400000030310000323300003435000051
:1010fc00363700003839000061620000636400007c
:0c110c0065660000002e00002e000000b0
:020000040000fa
:101118000200fa000000eb00000f7800050037001d
:1011280080ef20009e00400010c0b3008048780087
:101138001e0fe8009e00780010002000808f5000ed
:10114800f7ff3400c10c21000040eb008048780014
:10115800210c21000040eb00804878000080eb0063
:101168008080eb00f0858800018688000080eb0015
:101178008080eb00308688004186880040fb200094
:10118800840207008040eb00814f500036003a008f
:101198007086800041fb200001087800708680007e
:1011a8008000eb0051009800708680008000eb0002
:1011b80061009800728680006000b8007001980095
:1011c80001099800728680006000b8001009980034
:1011d8002109980071868000c0c5b300c0589800e6
:1011e80010002000000f780006003700708680008d
:1011f8001e004000fc00400000c2b3008048780098
:101208001e0fe8009e007800a0002000808f50008c
:10121800f6ff3400708680008000eb0041109800d3
:10122800708680000101200061109800728680009d
:10123800307880004178800070119800011998007a
:1012480072868000307880004178800010199800fc
:1012580021199800a1f020000040eb008048780098
:1012680010002000010037000000eb000080fa00a9
:10127800000006001400fa00881f78007007980024
:10128800010f980022579800335798007e0090006d
:101298004010900060079800b0002000000f780010
:1012a8007e00900080189000701090007e019000e1
:1012b80010199800211998000e08900060119000ec
:1012c800020078000080ea008180ea002007980088
:1012d800ee0090000000eb00808f50000b003a00f9
:1012e8006c00470012c0b300800078007e009000b8
:1012f800441307008000eb00810f500012003a00f1
:10130800b0012000000f78000f0037006e00900039
:10131800ef0060000000eb00808f50000a003200f0
:101328006c00470012c0b300800078007e00900077
:10133800341307008000eb00810f500002003a00d0
:10134800b0012000000f78009e007800b001200056
:10135800808f5000e60032009e0078000000eb000d
:10136800808f5000df0032006c004700800078005a
:101378007e009000e417070060479800ee40900058
:1013880020c0b30080cf5000d8003200ee4090005b
:101398000040eb0080cf5000be003a007e00900075
:1013a800e010900041079800ce009000f003200064
:1013b80000806000400798003e5090000080fb00cd
:1013c8008000eb00810f5000040032001100200063
:1013d800810f500032003200be003700ce0090006e
:1013e80080002000808f5000b10032000000eb0028
:1013f800000f7800d0c6b300204f98000040eb00e3
:1014080020479800210037002e4090000080fb0004
:10141800fe0090007c0040000080400010407800f2
:10142800204f98002e4090000080fb008e0890000e
:101438007c0040000080400010407800304f980049
:101448002e4890000080fb00a4020200000000006b
:10145800000478003e4890000080fb00a4020200cf
:1014680000000000800f540005003200b00020008a
:10147800000f780000000000000000009500370011
:101488002e4090000040e80020479800ae409000b1
:10149800a0c0b30080cf5000dbff36008d003700be
:1014a800ce0090002e009000808060000000eb00cd
:1014b800808f500080003a00ce009000f00020009d
:1014c800808f50007e0032000000eb00000f780093
:1014d800d0c6b300204f98000e089000c058900066
:1014e800a0c2b30080cf5000300032000040eb00b3
:1014f80020479800270037002e4090000080fb000e
:10150800fe0090007c004000008040001040780001
:10151800204f98002e4090000080fb008e0890001d
:101528007c0040000080400010407800304f980058
:10153800be489000a0c2b30080cf50001a0032000d
:10154800be489000f0c3b30080cf50000e003200b8
:101558002e4890000080fb00a4020200000000005a
:10156800000478003e4890000080fb00a4020200be
:1015780000000000800f540003003200b00020007b
:10158800000f7800090037002e4090000040e80066
:1015980020479800ae40900070c0b30080cf500044
:1015a800d5ff360001003700000000000e0890004b
:1015b800c0609000a0c2b30080cf5000420032004b
:1015c8009e0078000000eb00808f500040003a0039
:1015d80080c0b30020479800280037002e409000b4
:1015e8000080fb00fe0090007c004000008040006e
:1015f80010407800204f98002e4090000080fb009b
:101608008e0890007c004000008040001040780068
:10161800304f9800be489000a0c2b30080cf500061
:1016280001003a001a003700be489000f0c3b3002a
:1016380080cf50000e0032002e4890000080fb0042
:10164800a402020000000000000478003e48900058
:101658000080fb00a402020000000000800f54007c
:1016680003003200b0002000000f780008003700a7
:101678002e4090000040e80020479800ae409000bf
:10168800a0c0b30080cf5000d4ff3600110037004f
:1016980010003700ae5090000040eb0080cf5000a3
:1016a8000c003a000000eb00000f7800090037003a
:1016b80000000000070037000000000005003700a8
:1016c80000000000030037000000000001003700a0
:1016d800000000006e0090000000e800600798001d
:1016e8001dff370000000000010037000000000067
:1016f8001e0078004f0478000080fa000000060001
:101708001000fa005007980061079800624f98008f
:101718000000eb00000f78005e0090009000780059
:10172800110798001e009000b06090000040eb0088
:1017380080cf500003003a0070002000000f7800ae
:101748009a0037005e00900080189000701090009a
:101758005e01900010199800211998006e00900001
:10176800900078000000eb00808f50000a003a00db
:1017780012c0b300ee0090005e0090002112070036
:101788008000eb00810f500012003a00b0012000e9
:10179800000f78000f0037006e00900010007800ee
:1017a800ef0060000000eb00808f5000090032005d
:1017b80012c0b300ee0090005e0090001112070006
:1017c8008000eb00810f500002003a00b0012000b9
:1017d800000f7800ee0090005e009000ca16070027
:1017e80040479800ce4090000040eb0080cf50006a
:1017f80003003200b0002000000f78006b003700b3
:101808005e0190006000b80070019800010998001e
:101818005e009000a0009000100090005e01900013
:1018280030019800410198005e0090008000eb00b4
:10183800510098005e0090008000eb006100980065
:10184800ce40900010c0b30080cf500003003a0093
:10185800b0002000000f7800340037005e009000d0
:10186800c0009000300090000001be001e009000f3
:10187800741c07003007980041079800a00c21004d
:10188800904078000040eb0080cf50000600320006
:10189800bf1e07008040eb00814f5000020032005d
:1018a80090002000420037005e01900022868800e8
:1018b80032868000438680003e009000ce00900073
:1018c800800f5100818f590018003200c10c21008f
:1018d8000040eb00804878001e009000104178001e
:1018e8008280fb00104090000080fb004800dd0073
:1018f80001007000000178003e009000ce009000ca
:10190800a0dd0200000000008040eb00814f500085
:1019180002003a0080002000000f78003e0090008e
:10192800ce00900030868800418688005e009000d6
:1019380030099000b1ff2f00810061003108980044
:10194800ee48900070c7b30080cf5000040032000a
:10195800ee48900010c6b30080cf50000a003a004d
:101968005e009000b00890000100a00031089800c7
:101978005e00900030099000d1ff2f0081006100c7
:1019880031089800090037005e0090003009900087
:10199800e1ff2f0081006100310898005e0090008f
:1019a800b00890000110a000310898001e007800cf
:1019b8000080fa00000006001a00fa00200f9800c4
:1019c800320f9800430f98000040eb00004f98003a
:1019d8002e08900090007800510798005e00900053
:1019e800206090000080fb0011002000810f500053
:1019f8000b00320031002000810f500010003a0027
:101a080080ff2f00f1ff2000200798003107980081
:101a1800f0ff2f00f1ff2000008fbe0010003700fc
:101a280080ff20000100200020079800310798005f
:101a3800f0ff2f0001002000008fbe0008003700d3
:101a480080ff2f0001002000200798003107980030
:101a5800f0ff2f0001002000008fbe0000000000f2
:101a68002e08900030019000c00190006207980095
:101a7800730798006e019000fe0190005e009000d0
:101a88004f230700000f9800110f98000e099000cf
:101a98009e0990001e00be00800f5100818f5900e2
:101aa80003003a0080c0b300004f98001f003700c1
:101ab8005e019000c25190000382fb00d251900059
:101ac8008381fb00c819dd00848171000300780060
:101ad800e25190008381fb00725190000281fb006b
:101ae8004811dd0003017100820078000e099000a2
:101af8009e099000820f5000838f580002003e001c
:101b0800a0c0b300004f98000e0990009e099000f5
:101b18002e009000be009000800f5100818f590068
:101b280002003900c0c3b300004f98002e0890008f
:101b38000e0990009e09900032009800430098001a
:101b48003e099000ce0990000080eb008080eb00f9
:101b58000200400083804800300f9800410f980031
:101b68003e099000ce0990006000b800800f510037
:101b7800818f5900040032008e4890000040eb002d
:101b880080cf5000b6ff32000e4890000080fa0067
:101b9800000006000600fa00200798000040eb004d
:101ba800004f7800ae0090000040eb00b060980055
:101bb8002e009000c2a82000f10f200081016100d2
:101bc80090407800e0c0600083c070000148780051
:101bd8004811de0090409000e0c0600082c07000b4
:101be8001140980006da0200000000001007980073
:101bf8001e009000904078000040eb0080cf50001d
:101c08000600320060c0b300004f7800a1f0200049
:101c180060c0b300804878003e0037001e00900086
:101c28009000780000102000808060000000eb0029
:101c3800808f5000260032001e0090001000900097
:101c48006101b8002e009000f10f20000102610030
:101c580080589000e0c0600084c07000015898006f
:101c68004812de0090589000e0c0600084c0700008
:101c780011589800f10f200001826100a0589000cf
:101c8800e0c0600084c07000215898004819de0048
:101c9800b0589000e0c0600082c0700031589800d1
:101ca8001e0090009000900000202000808f5000bf
:101cb8000700360010c2b300004f7800a1f02000e2
:101cc80010c2b300804878001e4078001200370028
:101cd8002e00900012000700004f78009e40780008
:101ce8000040eb0080cf50000a003a002e00900020
:101cf8003b010700004f78009e4078000040eb0051
:101d080080cf500003003a00ae00900010c0b3002e
:101d1800b06098001e4078000080fa0000000600bd
:101d28000a00fa00400798000040eb00004f7800d6
:101d38004e009000104178008280fb001040900017
:101d48000080fb004800dd00010070000001780001
:101d58006000b800a0dd02000000000011c0b30060
:101d6800814f50000600320080c0b300004f780059
:101d7800a1f0200080c0b30080487800150137002a
:101d88004e009000104178008280fb0010409000c7
:101d98000080fb004800dd0001007000100798007b
:101da8001e009000e0f8930050c5b30080cf5000ab
:101db800a1003a001e009000f0f89300a0cab300fa
:101dc80080cf50009c003a004e00900010417800ef
:101dd8008280fb00104090000080fb004800dd007e
:101de8000100700061032000d01a070061c4b3002d
:101df800814f500042003a004e0090001041780098
:101e08008280fb00104090000080fb004800dd004d
:101e18000100700071032000c41a070011c4b30048
:101e2800814f500036003a004e0090001041780073
:101e38008280fb00104090000080fb004800dd001d
:101e48000100700081032000b81a070041c5b300e3
:101e5800814f50002a003a004e009000104178004f
:101e68008280fb00104090000080fb004800dd00ed
:101e78000100700091032000ac1a070011c3b300e1
:101e8800814f50001e003a004e009000104178002b
:101e98008280fb00104090000080fb004800dd00bd
:101ea8000100700061022000a01a070091c2b3006f
:101eb800814f500012003a004e009000a040900060
:101ec800e0c0600021409800b0409000e0c0600091
:101ed80031409800c0409000e0c060004140980048
:101ee800d0409000e0c0600051409800ce009000c3
:101ef80020c0b300a06098000040eb00b600370097
:101f08004e009000104178008280fb001040900045
:101f18000080fb004800dd00010070002105200062
:101f2800821a070061c4b300814f500042003a0092
:101f38004e009000104178008280fb001040900015
:101f48000080fb004800dd00010070003105200022
:101f5800761a070011c4b300814f500036003a00ca
:101f68004e009000104178008280fb0010409000e5
:101f78000080fb004800dd000100700041052000e2
:101f88006a1a070041c5b300814f50002a003a0081
:101f98004e009000104178008280fb0010409000b5
:101fa8000080fb004800dd000100700051052000a2
:101fb8005e1a070031c3b300814f50001e003a007b
:101fc8004e009000104178008280fb001040900085
:101fd8000080fb004800dd000100700021042000a3
:101fe800521a070091c2b300814f500012003a0004
:101ff8004e009000a0409000e0c060002140980092
:10200800b0409000e0c0600031409800c0409000af
:10201800e0c0600041409800d0409000e0c06000ff
:1020280051409800ce00900030c0b300a0609800e6
:102038000040eb00680037004e0090001041780027
:102048008280fb00104090000080fb004800dd000b
:1020580001007000200798002e009000e0f893001f
:1020680050c5b30080cf500005003a002e00900004
:10207800f0f89300a0cab30080cf500006003200e9
:10208800a1f0200040c0b3008048780040c0b300f1
:10209800004f78004f0037002e009000e0c09300fa
:1020a8000182fb00f0c093008180fb00c808dd00be
:1020b800848070000101780080c893008180fb0053
:1020c80010c893000080fb004800dd00010070008c
:1020d800800178004e009000f10f2000010261009d
:1020e800a0409000e0c0600084c0700021409800cb
:1020f8004812de00b0409000e0c0600084c070006c
:1021080031409800f10f200001826100c04090002a
:10211800e0c0600084c07000414098004819de00ab
:10212800d0409000e0c0600082c07000514098002c
:102138002e009000a0c09300614798006e40900068
:102148000080fb00e1002000810f50001c003e00d1
:10215800110020000008dd000105240001016000d5
:102168008000eb00810f51000d003a000180210032
:10217800010160008000eb00810f51000c003a0063
:10218800e20060000000eb00808f50000c0032007d
:10219800ce00900010c0b300a06098000d0037007a
:1021a800ce00900020c0b300a0609800090037005e
:1021b800ce00900030c0b300a06098000500370042
:1021c800a1f0200050c0b3008048780050c0b30090
:1021d800004f78001e4078000080fa0000000600da
:1021e8001a00fa00889fbe00400f98000040eb00dc
:1021f800404798000000eb00300798000000eb0013
:10220800400798004e089000104178008280fb003b
:10221800104090000080fb004800dd0001007000c5
:10222800000278004e099000a24190008382fb00d2
:10223800b24190008381fb00c819dd0085817100df
:1022480003007800c24190008381fb005241900056
:102258000281fb004811dd00030171008200780053
:1022680004017800a0dd02000000000011c0b300e6
:10227800814f50000300320080c0b30040479800ef
:102288001b0337004e089000904178008380fb00c4
:10229800104090000080fb004800dd000100700045
:1022a800500798005e009000e0f8930050c5b30016
:1022b80080cf500005003a005e009000f0f89300cf
:1022c800a0cab30080cf50000300320030c0b30072
:1022d800404798002c0237004e08900010417800c3
:1022e8008280fb00104090000080fb004800dd0069
:1022f80001007000e10020009419070060079800b1
:102308004e089000904178008380fb0010409000b8
:102318000080fb004800dd0001007000d1002000b3
:1023280082190700ce089000906098004e0990002e
:10233800a24190000382fb00b24190008381fb0020
:10234800c819dd008481710003007800c241900043
:102358008381fb00524190000281fb004811dd009f
:1023680003017100820078006e01900003002000d4
:1023780000014100818149004e089000f10f2000c2
:1023880001026100e0409000e0c0600084c070007d
:10239800614098004812de00f0409000e0c0600004
:1023a80084c0700071409800f10f20000182610024
:1023b80080489000e0c0600084c070000148980028
:1023c8004819de0090489000e0c0600082c07000ac
:1023d800114898004e089000104178008280fb0058
:1023e800104090000080fb004800dd0001007000f4
:1023f800010120004d190700ce0890008060980068
:102408004e089000904178008380fb0010409000b7
:102418000080fb004800dd00010070006101200021
:102428004a1907006101b8004e089000f10f20001a
:1024380001026100c0589000e0c0600084c07000d4
:10244800415898004812de00d0589000e0c0600063
:1024580084c0700051589800f10f2000018261007b
:10246800e0589000e0c0600084c070006158980097
:102478004819de00f0589000e0c0600082c070008b
:10248800715898004e099000c25990000382fb00d1
:10249800d25990008381fb00c819dd008481710046
:1024a80003007800e25990008381fb007259900084
:1024b8000281fb004811dd000301710082007800f1
:1024c8006011b800820f5000838f580021003a0035
:1024d8004e089000104178008280fb001040900068
:1024e8000080fb004800dd00010070004102200070
:1024f800311907000001be004e089000f10f2000be
:1025080001026100c0589000e0c0600084c0700003
:10251800415898004812de00d0589000e0c0600092
:1025280084c0700051589800f10f200001826100aa
:10253800e0589000e0c0600084c0700061589800c6
:102548004819de00f0589000e0c0600082c07000ba
:10255800715898004e089000e04090000181fb00ff
:10256800f04090008180fb00c808dd008280700088
:1025780001027800804890008180fb00104890009c
:102588000080fb004800dd00010070008002780038
:102598004e089000006090000081fb0003002000be
:1025a8004e0b9000c65b90000784fb00d65b900042
:1025b8008783fb00c83bdd00888373000700780031
:1025c800e65b90008783fb00765b90000683fb0048
:1025d8004833dd000703730086007800009bb900cc
:1025e80006037800028cb9008803780007034300cb
:1025f8000010b80001034300860078000401400081
:10260800858148004e089000f10f2000010261000a
:10261800a0489000e0c0600084c070002148980085
:102628004812de00b0489000e0c0600084c070002e
:1026380031489800f10f200001826100c0489000e5
:10264800e0c0600084c07000414898004819de006e
:10265800d0489000e0c0600082c0700051489800e7
:102668004e089000904178008380fb001040900055
:102678000080fb004800dd0001007000110120000f
:10268800b2180700000178004e089000f10f2000f2
:1026980081016100a0509000e0c0600083c070001c
:1026a800215098004811de00b0509000e0c0600052
:1026b80082c07000315098004e0890001041780098
:1026c8008280fb00104090000080fb004800dd0085
:1026d80001007000310120009c1807000100200053
:1026e800008fbe001e01be006000b800800f5100c0
:1026f800818f59000a003a004e08900090417800f6
:102708008380fb00104090000080fb004800dd0043
:102718000100700001022000a7180700008fbe000a
:102728004e089000104178008280fb001040900015
:102738000080fb004800dd0001007000b1002000af
:102748008218070070079800fe0090000000eb0058
:10275800808f5000060032007e009000610060000b
:10276800804078000040eb0080cf5000030032002a
:1027780010c2b3004047980003013700ce0890000c
:10278800215090000081fb00315090000080fb0038
:102798004800dd0002007000c500dd007e009000ea
:1027a800008040008000e9007e00900080017800f1
:1027b800110009008380d80001002000000f980054
:1027c800110f98006e0090006103b8004e08900049
:1027d800006090000081fb00030020004e0a90007a
:1027e800c45a90000584fb00d45a90008582fb00ef
:1027f800c82add008882720005007800e45a90003b
:102808008582fb00745a90000482fb004822dd0098
:102818000502720084007800009ab900040278006a
:10282800028cb90088027800050242000010b80046
:1028380001024200840078000601400087814800b8
:102848000e0890009e089000020040008380480017
:102858003e011000ae8118000200be00200f980053
:10286800310f98004e089000106090000080fb0027
:10287800010020000001be002e089000be08900054
:10288800c0020200000000000001be004e089000d7
:10289800f10f200001026100c0509000e0c060000c
:1028a80084c07000415098004812de00d05090005b
:1028b800e0c0600084c0700051509800f10f200003
:1028c80001826100e0509000e0c0600084c07000a8
:1028d800615098004819de00f0509000e0c0600098
:1028e80082c07000715098004e099000c25190004b
:1028f8000382fb00d25190008381fb00c819dd00e0
:102908008481710003007800e25190008381fb000c
:10291800725190000281fb004811dd000301710033
:102928008200780042ff200003002000820f500040
:10293800838f580004003e00ce08900010c0b300fa
:10294800a06098001b0037004e099000c25190000b
:102958000382fb00d25190008381fb00c819dd007f
:102968008481710003007800e25190008381fb00ac
:10297800725190000281fb004811dd0003017100d3
:102988008200780042ff2f0003002000820f5000d1
:10299800838f580004003e00ce08900020c0b3008a
:1029a800a060980003003700ce08900030c0b30044
:1029b800a06098004e089000a060900030c0b3005e
:1029c80080cf500036003a004e08900090417800c1
:1029d8008380fb00104090000080fb004800dd0071
:1029e80001007000c1022000f3170700307888004a
:1029f800417888004e099000a24990000382fb00ac
:102a0800b24990008381fb00c819dd008481710000
:102a180003007800c24990008381fb00524990006e
:102a28000281fb004811dd0003017100820078007b
:102a38000e0990009e099000000141008181490023
:102a48004e089000f10f200001026100e04890005c
:102a5800e0c0600084c07000614898004812de0041
:102a6800f0489000e0c0600084c070007148980091
:102a7800f10f20000182610080509000e0c06000ea
:102a880084c07000015098004819de0090509000f2
:102a9800e0c0600082c07000115098003400370018
:102aa8006000b80030788800417888004e099000ae
:102ab800a24990000382fb00b24990008381fb0089
:102ac800c819dd008481710003007800c2499000b4
:102ad8008381fb00524990000281fb004811dd0010
:102ae8000301710082007800ce0990002351900004
:102af8000282fb00335190000281fb004811dd0087
:102b0800040171004411de000300200000014100af
:102b1800818149004e089000f10f200001026100f8
:102b2800e0489000e0c0600084c0700061489800f0
:102b38004812de00f0489000e0c0600084c07000d9
:102b480071489800f10f20000182610080509000c8
:102b5800e0c0600084c07000015098004819de0091
:102b680090509000e0c0600082c070001150980042
:102b7800fe00900000202000808f500002003600e8
:102b880010c2b300404798004e089000a060900023
:102b980030c0b30080cf50000e003200ce4090000d
:102ba8000040eb0080cf5000ca0032005e00900069
:102bb800a0c0900090c2b30080cf50000500320042
:102bc8005e009000a0c0900080c2b30080cf50008b
:102bd800c2003a00de009000315090000081fb00f6
:102be800415090000080fb004800dd0002007000aa
:102bf800800078000000eb00808f500046003a000b
:102c08005e009000c07090000040eb0080cf500044
:102c180041003a005e009000d07090000040eb0048
:102c280080cf50003c003a005e009000e0709000b9
:102c38000040eb0080cf500037003a005e00900063
:102c4800f07090000040eb0080cf500032003a0056
:102c58005e009000807890000040eb0080cf50002c
:102c68002d003a005e009000907890000040eb0044
:102c780080cf500028003a005e009000a0789000b5
:102c88000040eb0080cf500023003a005e00900027
:102c9800b07890000040eb0080cf50001e003a0052
:102ca8005e009000c07890000040eb0080cf50009c
:102cb80019003a005e009000d07890000040eb00c8
:102cc80080cf500014003a005e009000e078900039
:102cd8000040eb0080cf50000f003a005e009000eb
:102ce800f07890000040eb0080cf50000a003a00d6
:102cf8005e009000a0c0900090c2b30080cf50004a
:102d0800070032005e009000a0c0900080c2b300af
:102d180080cf50000200320030c0b3004047980016
:102d2800ce4090000040eb0080cf500035003200cc
:102d3800be0090000000eb00808f500031003a0088
:102d480010002000300798004e08900010417800cd
:102d58008280fb00104090000080fb004800dd00ee
:102d680001007000000278004e099000a241900016
:102d78008382fb00b24190008381fb00c819dd000b
:102d88008581710003007800c24190008381fb00b7
:102d9800524190000281fb004811dd0003017100df
:102da80082007800de019000237190008282fb008f
:102db800337190000281fb004811dd0005017100ac
:102dc80003002000000041008180490004017800d0
:102dd800a0dd02000000000011c0b300814f5000c8
:102de80005003200a1f0200080c0b30080487800c0
:102df80080c0b300460037000040eb004047980011
:102e080033003700ce4090000040eb0080cf5000e8
:102e180034003200ce0090000000eb00808f50009c
:102e280032003a0010002000400798004e08900039
:102e3800904178008380fb00104090000080fb00e8
:102e48004800dd0001007000000278004e09900083
:102e5800a24190008382fb00b24190008381fb0075
:102e6800c819dd008581710003007800c241900017
:102e78008381fb00524190000281fb004811dd0074
:102e88000301710082007800620020000300200026
:102e9800000041008180490004017800a0dd0200a3
:102ea8000000000011c0b300814f5000050032003f
:102eb800a1f0200080c0b3008048780080c0b30033
:102ec800130037000040eb00404798000000000066
:102ed800f4fc370000000000050037000000000087
:102ee8000300370000000000010037000000000068
:102ef800ce4090000040eb0080cf5000030032002d
:102f0800a0f02000ce409000014878004e4090008c
:102f18004f04be000080fa00000006000600fa0018
:102f2800200798006000b800008fbe002e009000b7
:102f38002008900001002000008fbe001e00be0087
:102f4800c000dd0000002000008fbe002e009000b1
:102f580050089000010020001e1f70001e9770008e
:102f68001e00be000080fa00000006001200fa00f1
:102f7800500798006107980072079800030f98009f
:102f88006000b800008fbe005e019000ee01900066
:102f98006000b800800f5100818f5900070032008f
:102fa8007e0190008e099000100020000100200092
:102fb800800f5100818f590002003e000080eb0015
:102fc800330137007e0190008e0990000080eb00ed
:102fd8008080eb0002014000838148005e00900081
:102fe800ee009000800f5100818f590002003100df
:102ff8000080eb0026013700a00c210090407800eb
:103008000040eb0080cf500006003200e0180700b7
:103018008040eb00814f5000020032000080eb003e
:103028001b013700022020008000eb00c0a8200010
:103038000207020000000000c0a820002007980036
:103048005e009000ee00900030079800410798005d
:103058003e009000ce00900012ec230003002000f8
:10306800c0020200000000000001be004e18dd0092
:10307800c210de00810070004e10dd00008fbe001f
:103088003e009000ce00900012ec230003002000c8
:10309800e002020000000000300798004107980095
:1030a8003e009000ce009000f203200003002000b4
:1030b800c0020200000000000001be004618dd004a
:1030c800ca10de00810070004610dd001e1f70006f
:1030d8001e9770003e009000ce009000f203200082
:1030e80003002000e0020200000000003007980002
:1030f800410798003e019000ce019000100020008a
:103108000100200002004000838048001e1f70005c
:103118001e9770001e00be004008de00010020005f
:1031280000407800b1c42000804878001e00be002e
:103138004809dd004800de0000007100c808de0014
:1031480000407800c1c42000804878001e00780044
:1031580000407800d1c42000804878007e019000ab
:103168008e0990005e009000ee0090000001510072
:10317800818159002e009000f10f200001026100aa
:10318800a0c89300e0c0600084c0700021c89b0004
:103198004812de00b0c89300e0c0600084c0700030
:1031a80031c89b00f10f200001826100c0c8930064
:1031b800e0c0600084c0700041c89b004819de0070
:1031c800d0c89300e0c0600082c0700051c89b0066
:1031d8002e019000a2c993000382fb00b2c993009c
:1031e8008381fb00c819dd00848171000300780029
:1031f800c2c993008381fb0052c993000281fb007e
:103208004811dd000301710082007800820321006b
:1032180003002000820f5000838f580004003e00f6
:10322800ae00900010c0b300a0c09b001a00370089
:103238002e019000a2c993000382fb00b2c993003b
:103248008381fb00c819dd008481710003007800c8
:10325800c2c993008381fb0052c993000281fb001d
:103268004811dd000301710082007800f2d52f00bb
:10327800f3032000820f5000838f580004003e00a3
:10328800ae00900060c0b300a0c09b0002003700f1
:103298000080eb007e0037002e0090005e01900059
:1032a800f10f200001016100e0c09300e0c0600060
:1032b80082c0700061c09b00de0090004809de00fb
:1032c800f0c09300e0c0600082c0700071c09b0035
:1032d8006e019000f10f20000101610080c8930089
:1032e800e0c0600082c0700001c89b00ee00900042
:1032f8004809de0090c89300e0c0600082c07000fa
:1033080011c89b005e019000ee0190007e009000c5
:103318008e08900002014000838148000080eb0085
:103328008080eb000200400083804800300798004e
:10333800410798003e009000ce00900012ec230058
:1033480003002000c0020200000000000001be00cf
:103358004e18dd00c210de00810070004e10dd0046
:10336800008fbe003e009000ce00900012ec2300bb
:1033780003002000e002020000000000300798006f
:10338800410798003e009000ce009000f203200014
:1033980003002000c0020200000000000001be007f
:1033a8004618dd00ca10de00810070004610dd00fe
:1033b8001e1f70001e9770003e009000ce00900007
:1033c800f203200003002000e002020000000000d9
:1033d80030079800410798003e019000ce01900008
:1033e80010002000010020000200400083804800f7
:1033f8001e1f70001e9770001e00be004008de00f1
:103408000100200000407800f1c4200080487800c6
:103418001e00be004809dd004800de000000710003
:10342800c808de000040780001c520008048780008
:103438001e0078000040780011c520008048780000
:10344800ae0090000040eb00e0789b00ae009000da
:1034580050c5b300e0f89b00ae009000a0cab300ce
:10346800f0f89b0013c0b300c2a820006000b800a9
:1034780068de02000000000011c0b300814f500058
:10348800020032000080eb00010037000000eb0072
:103498000080fa00000006004e00fa00889fbe0077
:1034a80060c7980042279800532798006127980022
:1034b800200220000e004000000f9800a1f020001c
:1034c8000040eb0080487800c10c21000040eb0070
:1034d80080487800210c21000040eb0080487800eb
:1034e8000080eb008080eb00f08588000186880072
:1034f8000080eb008080eb003086880041868800e1
:103508000e089000c2a82000f10f20008101610080
:1035180090407800e0c0600083c0700001487800e7
:103528004811de0090409000e0c0600082c070004a
:103538001140980006da020000000000100f980001
:103548001e089000904078000040eb0080cf5000ab
:1035580005003200a1f0200060c0b3008048780068
:103568000080eb00ad093700c2a820006000b80059
:10357800a0dd0200000000008040eb00814f5000f9
:1035880005003a00a1f02000b0c1b30080487800df
:103598000080eb00a10937000e0890001041780068
:1035a8008280fb00104090000080fb004800dd0096
:1035b80001007000200f98002e089000e0f893009a
:1035c80050c5b30080cf50009c003a002e089000f0
:1035d800f0f89300a0cab30080cf500097003a00db
:1035e8000e089000104178008280fb001040900087
:1035f8000080fb004800dd0001007000610320002e
:10360800ca14070061c4b300814f500056003a0045
:103618000e089000104178008280fb001040900056
:103628000080fb004800dd000100700071032000ed
:10363800be14070011c4b300814f50004a003a007d
:103648000e089000104178008280fb001040900026
:103658000080fb004800dd000100700081032000ad
:10366800b214070041c5b300814f50003e003a0034
:103678000e089000104178008280fb0010409000f6
:103688000080fb004800dd0001007000910320006d
:10369800a614070011c3b300814f500032003a004e
:1036a8000e089000104178008280fb0010409000c6
:1036b8000080fb004800dd0001007000610220006e
:1036c8009a14070091c2b300814f500026003a00b7
:1036d8000000eb00000f78006ec090000000fb00b7
:1036e8008000eb00810f500008003200110020001c
:1036f800810f500045003a00a1f02000f0c1b3004e
:10370800804878000080eb00440937000e089000dc
:10371800a0409000e0c0600021409800b0409000b8
:10372800e0c0600031409800c0409000e0c06000f8
:1037380041409800d0409000e0c06000514098009f
:103748000e089000a6fa07008040eb00814f500059
:1037580030003200a1f02000b0c1b30080487800ea
:103768000080eb002d093700c0a82000000f78006a
:103778001e007800e0c093000182fb00f0c09300b7
:103788008180fb00c808dd0084807000010178009a
:1037980080c893008180fb0010c893000080fb0064
:1037a8004800dd0001007000800178000e089000dc
:1037b800f10f200001026100a0409000e0c060000d
:1037c80084c07000214098004812de00b04090008c
:1037d800e0c0600084c0700031409800f10f200004
:1037e80001826100c0409000e0c0600084c07000a9
:1037f800414098004819de00d0409000e0c06000c9
:1038080082c070005140980003003700000000009b
:1038180001003700000000006ec090000000fb00af
:103828008000eb00810f5000a1053200110020003c
:10383800810f500006003200a7053700a1f02000d4
:1038480040c0b300804878000080eb00f3083700e0
:103858001e017800a2c993000382fb00b2c993003d
:103868008381fb00c819dd008481710003007800a2
:10387800c2c993008381fb0052c993000281fb00f7
:103888004811dd000301710082007800300f9800b4
:10389800410f98003e099000ce0990008003210056
:1038a80001002000800f5100818f590079003e00ef
:1038b8008e08900010c0b300a06098009e007800a9
:1038c80010c0b300a0c09b0013c0b300c2a8200062
:1038d8006000b80068de0200000000008040eb00d5
:1038e800814f500005003a00a1f0200090c0b300bd
:1038f800804878000080eb00c80837003e09900037
:10390800ce0990007002210001002000800f5100b4
:10391800818f5900040036008e08900020c0b30043
:1039280090609800030037008e08900010c0b30024
:1039380090609800022020008000eb00c0a82000c2
:10394800020702000000000061ac200020c3b300a1
:10395800804878000e089000106090000080fb00fe
:10396800000040006101b9003e089000ce089000b8
:103978000201400083814800f0fd2f00f1ff2f0075
:1039880002004000838048004007980051079800d3
:103998000e089000106090008080fb0050152000f9
:1039a8000088b900000078000080e800cf80de00c1
:1039b800500f9800610f98005e099000ee09900082
:1039c8004e009000de009000020140008381480014
:1039d8000080eb008080eb000200400083804800fc
:1039e8005e099000ee099000c0020200000000008d
:1039f80040079800510798008e08900020c0b30037
:103a0800806098000e089000a0509000e0c0600010
:103a180021509800b0509000e0c060000114a00050
:103a2800315098000e0890004e019000f10f2000d0
:103a380001016100c0589000e0c0600082c07000c1
:103a480041589800ce0090004809de00d0589000f8
:103a5800e0c0600082c07000515898005e0190007c
:103a6800f10f200001016100e0589000e0c0600003
:103a780082c0700061589800de0090004809de009e
:103a8800f0589000e0c0600082c070007158980043
:103a98001a0137003e099000ce099000f0d52f009a
:103aa800f1032000800f5100818f590091003e00e2
:103ab8008e08900020c0b300a06098009e00780097
:103ac80060c0b300a0c09b0013c0b300c2a8200010
:103ad8006000b80068de0200000000008040eb00d3
:103ae800814f500005003a00a1f0200090c0b300bb
:103af800804878000080eb00480837003e099000b5
:103b0800ce09900080de2f00f1ff2f000200400058
:103b18008380480010079800210798008e089000bd
:103b280010c0b300906098000b0037000e0890009a
:103b380010609000004040008e089000906098004f
:103b48001e009000ae0090008100d1000080d300dc
:103b580010079800210798001e019000ae01900000
:103b6800d0fe2f0001002000800f5100818f5900e6
:103b7800eeff3e000e0890009060900000c8b30071
:103b880080cf500005003600a1f0200040c0b300ef
:103b9800804878000080eb002008370002202000d1
:103ba8008000eb00c0a8200002070200000000000f
:103bb80061ac200060c3b300804878000e08900014
:103bc800106090000080fb00000040006101b90017
:103bd8003e089000ce089000020140008381480012
:103be800f0fd2f00f1ff2f00020040008380480005
:103bf80040079800510798000e0890001060900048
:103c08000080fb004800dd000080e800cf80de0077
:103c1800500f9800610f98005e099000ee0990001f
:103c28004e009000de0090000201400083814800b1
:103c38000080eb008080eb00020040008380480099
:103c48005e099000ee099000c0020200000000002a
:103c580040079800510798008e08900020c0b300d4
:103c6800806098000e089000a0509000e0c06000ae
:103c780021509800b0509000e0c060000114a000ee
:103c8800315098000e0890004e019000f10f20006e
:103c980001016100c0589000e0c0600082c070005f
:103ca80041589800ce0090004809de00d058900096
:103cb800e0c0600082c07000515898005e0190001a
:103cc800f10f200001016100e0589000e0c06000a1
:103cd80082c0700061589800de0090004809de003c
:103ce800f0589000e0c0600082c0700071589800e1
:103cf800820037008e08900030c0b300a0609800a2
:103d08009e007800b0c0b300a0c09b0013c0b300f1
:103d1800c2a820006000b80068de020000000000b1
:103d28008040eb00814f500005003a00a1f02000d0
:103d380090c0b300804878000080eb00b7073700d8
:103d48003e089000ce0890001007980021079800c0
:103d58008e08900010c0b300906098000b003700e8
:103d68000e08900010609000004040008e089000ff
:103d7800906098001e009000ae0090008100d10075
:103d88000080d30010079800210798001e019000ba
:103d9800ae019000e0ff2b00f1032000800f5100de
:103da800818f5900eeff3e000e0890009060900051
:103db80000c8b30080cf500005003600a1f02000f5
:103dc80040c0b300804878000080eb0093073700bc
:103dd800022020008000eb00c0a82000020702009b
:103de800000000003e099000ce09900000fe2f0060
:103df800f1ff2f0002004000838048004007980030
:103e0800510798000e089000106090000080fb0099
:103e18004700dd000000e800cf80de00500f98006a
:103e2800610f98005e099000ee0990004e00900026
:103e3800de00900002014000838148000080eb0012
:103e48008080eb0002004000838048005e099000fb
:103e5800ee099000c0020200000000004007980030
:103e6800510798008e08900020c0b3008060980029
:103e78000e089000a0509000e0c06000215098000b
:103e8800b0509000e0c060000114a00031509800cc
:103e98000e0890004e019000f10f20000101610012
:103ea800c0589000e0c0600082c07000415898007f
:103eb800ce0090004809de00d0589000e0c06000b5
:103ec80082c07000515898005e019000f10f2000e8
:103ed80001016100e0589000e0c0600082c07000fd
:103ee80061589800de0090004809de00f058900004
:103ef800e0c0600082c0700071589800c1a820001e
:103f0800b0ceb30080487800d1a82000c0c3b30069
:103f180080487800e1a8200000c9b30080487800f4
:103f2800f1a82000d0c4b3008048780001a920007f
:103f380030c4b3008048780011a9200080c4b300c1
:103f48008048780021a9200000c5b3008048780087
:103f580031a9200000c2b3008048780041a92000a0
:103f680060c4b3008048780051a9200010c4b30091
:103f78008048780061a9200040c5b30080487800d7
:103f880071a920000040eb008048780081a920003a
:103f980020c0b300804878000e08900010609000a0
:103fa80091a92000804878000e089000a060900039
:103fb80010c0b30080cf5000050032000e089000fa
:103fc800a060900020c0b30080cf50007b013a0071
:103fd800a1a9200080c0b30080487800b1a92000c2
:103fe8000040eb00804878000e099000a241900044
:103ff8000382fb00b24190008381fb00c819dd00f9
:104008008481710003007800c24190008381fb0025
:10401800524190000281fb004811dd00030171004c
:104028008200780082002000030020000001410087
:10403800818149000e089000f10f20000102610003
:10404800e0409000e0c0600084c0700061409800cb
:104058004812de00f0409000e0c0600084c07000ac
:1040680071409800f10f20000182610080489000a3
:10407800e0c0600084c07000014898004819de0064
:1040880090489000e0c0600082c07000114898001d
:10409800c1a9200020c0b30080487800d1a9200021
:1040a8000040eb0080487800e1a9200020c0b30060
:1040b80080487800f1a920000040eb008048780093
:1040c80001aa20000040eb008048780011aa2000d7
:1040d80080cfb300804878004e0090000040780000
:1040e80021aa2000804878004e009000de00900051
:1040f8004809dd004800de0000007100c808de0045
:104108000040780031aa20008048780041aa2000a9
:10411800f0c3b3008048780051aa20000040eb00ab
:104128008048780061aa200000c0eb008048780031
:1041380071aa20000040eb00804878000e0990002a
:10414800a24190000382fb00b24190008381fb00f2
:10415800c819dd008481710003007800c241900015
:104168008381fb00524190000281fb004811dd0071
:1041780003017100820078000040780081aa2000c5
:10418800804878000e099000a24190000382fb004d
:10419800b24190008381fb00c819dd008481710061
:1041a80003007800c24190008381fb0052419000d7
:1041b8000281fb004811dd000301710082007800d4
:1041c8004809dd004800de0000007100c808de0074
:1041d8000040780091aa2000804878000e099000dd
:1041e800a24190000382fb00b24190008381fb0052
:1041f800c819dd008481710003007800c241900075
:104208008381fb00524190000281fb004811dd00d0
:1042180003017100820078004008de0001002000e0
:1042280000407800a1aa2000804878000e0990007c
:10423800a24190000382fb00b24190008381fb0001
:10424800c819dd008481710003007800c241900024
:104258008381fb00524190000281fb004811dd0080
:1042680003017100820078004808de000100200088
:1042780000407800b1aa2000804878003e089000ed
:1042880000407800c1aa2000804878003e089000cd
:10429800ce0890004809dd004800de0000007100eb
:1042a800c808de0000407800d1aa200080487800c5
:1042b8003e089000ce0890004008de000100200073
:1042c80000407800e1aa2000804878003e0890006d
:1042d800ce0890004808de00010020000040780069
:1042e800f1aa20008048780001ab20000040eb00d4
:1042f8008048780011ab20000040eb00804878002f
:1043080021ab200090c2b300804878004e20900076
:104318000040780031ab2000804878004e209000a3
:10432800de2090006011b800820f5000838f580083
:1043380004003d00f20f20000300200000004100af
:10434800818049004809dd004800de000000710056
:10435800c888de000040780041ab20008048780023
:104368004e209000de2090006011b800820f5000af
:10437800838f580004003d00f2ff2f000300200047
:1043880000004100818049004088de00cf80de00c7
:104398000040780051ab2000804878004e20900003
:1043a800de2090006011b800820f5000838f580003
:1043b80004003d00f2ff2f00f30f20000000410031
:1043c800818049004888de00cf80de000040780008
:1043d80061ab200080487800ee2090000000eb00e0
:1043e800808f5000420032006000b80060079800db
:1043f80071079800150037006e019000fe019000cb
:10440800b002200001002000020040008380480024
:104418006e019000ee219000028141001241780067
:10442800c3a8200003004000024878006e019000f5
:10443800fe01900010002000010020000200400052
:104448008380480060079800710798006e0090000c
:10445800ee20900000804000904078000040eb0083
:1044680080cf50001a0032006e019000fe019000cb
:10447800a000200001002000800f5100818f59000a
:10448800ddff3600120037006e019000fe0190003b
:10449800b002200001002000020040008380480094
:1044a800c2a820008200400000c2b3008048780003
:1044b8006e019000fe019000100020000100200015
:1044c8000200400083804800600798007107980048
:1044d8006e019000fe019000a00020000100200065
:1044e800800f5100818f5900e7ff36001d0037000b
:1044f8006000b80060079800710798001200370044
:104508006e019000fe019000b00220000100200022
:104518000200400083804800c2a8200082004000ba
:104528000040eb00804878006e019000fe0190008a
:104538001000200001002000020040008380480095
:1045480060079800710798006e019000fe019000c6
:10455800a000200001002000800f5100818f590029
:10456800e7ff360021ac200060c4b3008048780023
:1045780031ac200010c4b3008048780041ac200062
:1045880040c5b3008048780051ac200010c3b30088
:104598008048780071ac200000c2b30080487800e1
:1045a80081ac200000c2b3008048780091ac2000a4
:1045b80000c2b30080487800d9013700a1a92000c3
:1045c80000c2b30080487800b1a920000040eb0089
:1045d800804878000e099000a24190000382fb00f9
:1045e800b24190008381fb00c819dd00848171000d
:1045f80003007800c24190008381fb005241900083
:104608000281fb004811dd0003017100820078007f
:1046180002022000030020000001410081814900be
:104628000e089000f10f200001026100e0409000a8
:10463800e0c0600084c07000614098004812de004d
:10464800f0409000e0c0600084c0700071409800a5
:10465800f10f20000182610080489000e0c06000f6
:1046680084c07000014898004819de009048900006
:10467800e0c0600082c0700011489800c1a9200005
:1046880020c0b30080487800d1a920000040eb008a
:1046980080487800e1a920000040eb0080487800bd
:1046a800f1a920000040eb008048780001aa200012
:1046b8000040eb008048780011aa200080cfb300aa
:1046c8008048780021aa20000040eb00804878004c
:1046d80031aa20000040eb008048780041aa200061
:1046e800f0c3b3008048780051aa20000040eb00d6
:1046f8008048780061aa200000c0eb00804878005c
:1047080071aa20000040eb00804878000e09900054
:10471800a24190000382fb00b24190008381fb001c
:10472800c819dd008481710003007800c24190003f
:104738008381fb00524190000281fb004811dd009b
:1047480003017100820078000040780081aa2000ef
:10475800804878000e099000a24190000382fb0077
:10476800b24190008381fb00c819dd00848171008b
:1047780003007800c24190008381fb005241900001
:104788000281fb004811dd000301710082007800fe
:104798004809dd004800de0000007100c808de009e
:1047a8000040780091aa2000804878000e09900007
:1047b800a24190000382fb00b24190008381fb007c
:1047c800c819dd008481710003007800c24190009f
:1047d8008381fb00524190000281fb004811dd00fb
:1047e80003017100820078004008de00010020000b
:1047f80000407800a1aa2000804878000e099000a7
:10480800a24190000382fb00b24190008381fb002b
:10481800c819dd008481710003007800c24190004e
:104828008381fb00524190000281fb004811dd00aa
:1048380003017100820078004808de0001002000b2
:1048480000407800b1aa2000804878003e08900017
:1048580000407800c1aa2000804878003e089000f7
:10486800ce0890004809dd004800de000000710015
:10487800c808de0000407800d1aa200080487800ef
:104888003e089000ce0890004008de00010020009d
:1048980000407800e1aa2000804878003e08900097
:1048a800ce0890004808de00010020000040780093
:1048b800f1aa2000804878004e009000004078005f
:1048c80001ab2000804878004e009000de00900088
:1048d8004809dd004800de0000007100c808de005d
:1048e8000040780011ab2000804878004e0090000e
:1048f800de0090004008de00010020000040780043
:1049080021ab2000804878004e009000de00900027
:104918004808de00010020000040780031ab20008c
:104928008048780041ab20000040eb0080487800c8
:1049380051ab20000040eb008048780061ab2000bc
:104948000040eb008048780071ab20000040eb008d
:104958008048780081ab200020c0b30080487800f0
:1049680091ab20000040eb0080487800a1ab20000c
:104978000040eb0080487800b1ab20000040eb001d
:1049880080487800c1ab200010c0b3008048780090
:10499800d1ab20000040eb0080487800e1ab20005c
:1049a8000040eb0080487800f1ab20000040eb00ad
:1049b8008048780001ac20000040eb008048780077
:1049c80011ac20000040eb008048780021ac2000aa
:1049d8000040eb008048780031ac20000040eb003c
:1049e8008048780041ac20000040eb008048780007
:1049f80051ac20000040eb008048780061ac2000fa
:104a08000040eb008048780071ac20000040eb00cb
:104a18008048780081ac20000040eb008048780096
:104a280091ac20000040eb0080487800a1ac200049
:104a38000040eb0080487800b1ac20000040eb005b
:104a480080487800c1ac20000040eb008048780026
:104a5800d1ac20000040eb0080487800e1ac200099
:104a680090c2b300804878004e2090000040780043
:104a7800f1ac2000804878004e209000de209000a5
:104a88006011b800820f5000838f580004003d0069
:104a9800f20f20000300200000004100818049003f
:104aa8004809dd004800de0000007100c888de000b
:104ab8000040780001ad2000804878004e2090002a
:104ac800de2090006011b800820f5000838f5800dc
:104ad80004003d00f2ff2f00030020000000410009
:104ae800818049004088de00cf80de0000407800e9
:104af80011ad2000804878004e209000de20900004
:104b08006011b800820f5000838f580004003d00e8
:104b1800f2ff2f00f30f20000000410081804900c0
:104b28004888de00cf80de000040780021ad2000fc
:104b380080487800ee2090000000eb00808f500045
:104b4800420032006000b8006007980071079800c2
:104b5800150037006e019000fe01900070042000df
:104b68000100200002004000838048006e01900090
:104b7800ee2190000281410012417800c3a8200074
:104b880003004000024878006e019000fe0190008a
:104b9800100020000100200002004000838048002f
:104ba80060079800710798006e009000ee20900052
:104bb80000804000904078000040eb0080cf50001b
:104bc8001a0032006e019000fe019000a000200043
:104bd80001002000800f5100818f5900ddff360051
:104be800120037006e019000fe0190007004200052
:104bf800010020000200400083804800c2a8200075
:104c08008200400000c2b300804878006e01900026
:104c1800fe0190001000200001002000020040006a
:104c28008380480060079800710798006e01900023
:104c3800fe019000a000200001002000800f51001c
:104c4800818f5900e7ff36001d0037006000b8006b
:104c58006007980071079800120037006e019000f5
:104c6800fe019000700420000100200002004000b6
:104c780083804800c2a82000820040000040eb006a
:104c8800804878006e019000fe019000100020001e
:104c9800010020000200400083804800600798005f
:104ca800710798006e019000fe019000a00020009e
:104cb80001002000800f5100818f5900e7ff360066
:104cc800e1ad200060c4b30080487800f1ad200059
:104cd80010c4b3008048780001ae200040c5b3007e
:104ce8008048780011ae200030c3b30080487800b7
:104cf80021ae200020c3b3008048780031ae2000e8
:104d080000c2b3008048780041ae200000c2b30062
:104d18008048780051ae200000c2b3008048780077
:104d2800a1c8200050c5b30080487800b1c8200051
:104d3800a0cab300804878000e089000e0409000b8
:104d48000181fb00f04090008180fb00c808dd0075
:104d58008280700001027800804890008180fb000a
:104d6800104890000080fb004800dd000100700042
:104d7800800278000e089000006090000081fb001f
:104d8800030020000e0b9000c65b90000784fb0018
:104d9800d65b90008783fb00c83bdd0088837300e7
:104da80007007800e65b90008783fb00765b900045
:104db8000683fb004833dd00070373008600780094
:104dc800009bb90006037800028cb90088037800bc
:104dd800070343000010b800010343008600780071
:104de80004014000858148000e089000f10f200062
:104df80001026100a0489000e0c0600084c070001b
:104e0800214898004812de00b0489000e0c06000d9
:104e180084c0700031489800f10f200001826100c1
:104e2800c0489000e0c0600084c07000414898000d
:104e38004819de00d0489000e0c0600082c07000d1
:104e4800514898000e099000a24190000382fb008f
:104e5800b24190008381fb00c819dd008481710094
:104e680003007800c24190008381fb00524190000a
:104e78000281fb004811dd00030171008200780007
:104e88008041eb00c2a8200068de0200000000009c
:104e98008040eb00814f500014003a00a1f0200040
:104ea80090c0b300804878000080eb005b033700b7
:104eb8000e089000caf407008040eb00814f5000b4
:104ec8000c003200a1f02000b0c1b3008048780087
:104ed8000080eb0051033700a1f02000f0c1b300bf
:104ee800804878000080eb004c0337000000000089
:104ef8000100370000000000022020008000eb00c5
:104f0800c0a8200002070200000000000e08900060
:104f1800a060900030c0b30080cf50008a013a00f2
:104f2800c1a8200080cfb30080487800d1a8200015
:104f380000c0eb0080487800e1a8200000c0eb002a
:104f480080487800f1a8200000c0eb008048780075
:104f580001a920000040eb008048780011a920003a
:104f68000040eb008048780021a920000040eb00b9
:104f78008048780031a92000c0c0b300804878007c
:104f880041a9200000c0eb008048780051a920000a
:104f980000c0eb008048780061a9200000c0eb0049
:104fa8008048780071a9200000c0eb008048780094
:104fb8000e089000006090000080fb000000e900ef
:104fc80030079800360037000e089000e040900047
:104fd8000181fb00f04090008180fb00c808dd00e3
:104fe8008280700001027800804890008180fb0078
:104ff800104890000080fb004800dd0001007000b0
:10500800800278003e0090006101b8000e0b90000d
:10501800c65b90000784fb00d65b90008783fb008b
:10502800c83bdd008883730007007800e65b9000ca
:105038008783fb00765b90000683fb004833dd0026
:105048000703730086007800009bb9000603780008
:10505800028cb90088037800070343000010b800e9
:105068000103430086007800040040008580480062
:105078008041eb00c2a8200068de020000000000aa
:105088008040eb00814f500002003a000080eb00a6
:10509800e20237003e0090000000e9003007980067
:1050a800be0090000080eb00808f5000c6ff3a00e1
:1050b800c20020008000eb00c0a820000207020008
:1050c800000000000e099000e24190000382fb00fe
:1050d800f24190008381fb00c819dd0084817100d2
:1050e80003007800824990008381fb0012499000f8
:1050f8000281fb004811dd00030171008200780085
:1051080012002000030020000000410081804900b7
:1051180060079800710798003b0037000e08900060
:10512800006090000080fb000000e9003007980054
:10513800290037003e0090006101b8000e0a900077
:10514800c45a90000583fb00d45a90008582fb0066
:10515800c82add008682720005007800e45a9000b3
:105168008582fb00745a90000482fb004822dd000f
:105178000502720084007800009ab90004027800e1
:10518800028bb90086027800050242000010b800c0
:1051980001024200840078006e019000fe01900038
:1051a80000004100818049008041eb00c2a8200036
:1051b80068de0200000000008040eb00814f5000d4
:1051c80002003a000080eb00940237003e00900095
:1051d8000000e90030079800be0090000080eb0056
:1051e800808f5000d3ff3a006e019000fe019000be
:1051f80010002000010020000200400083804800c9
:1052080060079800710798000e089000e040900031
:105218000182fb00f04090008180fb00c808dd009f
:105228008480700001017800804890008180fb0034
:10523800104890000080fb004800dd00010070006d
:10524800800178000e0a9000c45a90000583fb0084
:10525800d45a90008582fb00c82add00868272003d
:1052680005007800e45a90008582fb00745a90008b
:105278000482fb004822dd000502720084007800e9
:1052880002014000838148006e009000fe009000fb
:10529800800f5100818f5900a0ff3e0010002000b0
:1052a800010020006007980071079800240037006b
:1052b8000e099000a24990000382fb00b2499000b9
:1052c8008381fb00c819dd00848171000300780028
:1052d800c24990008381fb00524990000281fb0083
:1052e8004811dd0003017100820078006e01900012
:1052f800fe01900000004100818049008041eb00e0
:10530800c2a8200068de0200000000008040eb0018
:10531800814f500002003a000080eb003f02370046
:105328006e019000fe019000100020000100200096
:1053380002004000838048006007980071079800c9
:105348000e089000106090000081fb000300200010
:105358006e009000fe009000800f5100818f590070
:10536800d3ff3e00ee2090000000eb00808f50003d
:105378005b0032006000b800600798007107980071
:10538800100037006e009000ee2090000080400072
:10539800104078006e019000c1a8200081004100f3
:1053a800804878006e019000fe01900010002000f7
:1053b8000100200002004000838048006007980038
:1053c800710798006e009000ee2090000080400069
:1053d800904078000040eb0080cf5000150032006c
:1053e8006e019000fe019000a00020000100200046
:1053f800800f5100818f5900e2ff36000d00370001
:10540800ee009000c0a820008080400000c2b300d9
:10541800804878006e019000fe0190001000200086
:1054280001002000020040008380480060079800c7
:10543800710798006e019000fe019000a000200006
:1054480001002000800f5100818f5900ecff3600c9
:1054580071a9200080c0b30080487800d1a920003d
:1054680010c1b30080487800f1a9200010c1b30032
:105478008048780031aa200010c1b3008048780025
:105488000e099000a24990000382fb00b2499000e7
:105498008381fb00c819dd00848171000300780056
:1054a800c24990008381fb00524990000281fb00b1
:1054b8004811dd0003017100820078008041eb0093
:1054c800c2a8200068de0200000000008040eb0057
:1054d800814f50001a003a000080eb00cf013700de
:1054e8000e099000a24990000382fb00b249900087
:1054f8008381fb00c819dd008481710003007800f6
:10550800c24990008381fb00524990000281fb0050
:105518004811dd0003017100820078008041eb0032
:10552800c2a8200068de0200000000008040eb00f6
:10553800814f500002003a000080eb00b7013700ad
:105548000000eb00b5013700c1a8200080cfb300f0
:1055580080487800d1a8200000c0eb00804878007f
:10556800e1a8200000c0eb00804878000e089000f9
:10557800a060900020c0b30080cf500003003a0024
:10558800f1a8200000c0eb00804878000e089000c9
:10559800006090000080fb000000e90030079800e0
:1055a800360037000e089000e04090000181fb00b3
:1055b800f04090008180fb00c808dd008280700008
:1055c80001027800804890008180fb00104890001c
:1055d8000080fb004800dd000100700080027800b8
:1055e8003e0090006101b8000e0b9000c65b900071
:1055f8000784fb00d65b90008783fb00c83bdd0077
:105608008883730007007800e65b90008783fb00bf
:10561800765b90000683fb004833dd0007037300c8
:1056280086007800009bb90006037800028cb90058
:1056380088037800070343000010b8000103430003
:105648008600780004004000858048008041eb0017
:10565800c2a8200068de0200000000008040eb00c5
:10566800814f500002003a000080eb006b013700c8
:105678003e0090000000e90030079800be0090004e
:105688000080eb00808f5000c6ff3a0042002000e7
:105698008000eb00c0a82000020702000000000004
:1056a8000e099000e24190000382fb00f241900055
:1056b8008381fb00c819dd00848171000300780034
:1056c800824990008381fb00124990000281fb000f
:1056d8004811dd00030171008200780012002000eb
:1056e8000300200000004100818049006007980005
:1056f800710798003b0037000e089000006090008a
:105708000080fb000000e9003007980029003700fe
:105718003e0090006101b8000e0a9000c45a900043
:105728000583fb00d45a90008582fb00c82add005f
:105738008682720005007800e45a90008582fb009a
:10574800745a90000482fb004822dd0005027200b2
:1057580084007800009ab90004027800028bb9002e
:1057680086027800050242000010b80001024200db
:10577800840078006e019000fe0190000000410056
:10578800818049008041eb00c2a8200068de020049
:10579800000000008040eb00814f500002003a00fa
:1057a8000080eb001d0137003e0090000000e9007a
:1057b80030079800be0090000080eb00808f5000fa
:1057c800d3ff3a006e019000fe0190001000200007
:1057d8000100200002004000838048006007980014
:1057e800710798000e089000e04090000182fb00cd
:1057f800f04090008180fb00c808dd0084807000c4
:1058080001017800804890008180fb0010489000da
:105818000080fb004800dd00010070008001780076
:105828000e0a9000c45a90000583fb00d45a9000d9
:105838008582fb00c82add00868272000500780098
:10584800e45a90008582fb00745a90000482fb00a1
:105858004822dd0005027200840078000201400041
:10586800838148006e009000fe009000800f510078
:10587800818f5900a0ff3e000e08900080589000cc
:10588800e0c060000158980090589000e0c06000a7
:105898000114a00011589800a0589000e0c06000c2
:1058a80021589800b0589000e0c060003158980026
:1058b8008e089000215090000081fb00315090002c
:1058c8000080fb004800dd00020070004500dd009c
:1058d8006101b8000e0a9000845a90000583fb000d
:1058e800945a90008582fb00c82add0086827200e7
:1058f80005007800a45a90008582fb00345a900075
:105908000482fb004822dd00050272008400780052
:1059180002014000838148000080eb008080eb009a
:1059280002024000838248000e09900082599000cc
:105938000383fb00925990008381fb00c819dd00a6
:105948008681710003007800a25990008381fb00d2
:10595800325990000281fb004811dd0003017100fb
:10596800820078000001be000400be00c0020200f0
:1059780000000000700f9800011798001000200028
:105988000100200060079800710798002400370084
:105998000e099000a24990000382fb00b2499000d2
:1059a8008381fb00c819dd00848171000300780041
:1059b800c24990008381fb00524990000281fb009c
:1059c8004811dd0003017100820078006e0190002b
:1059d800fe01900000004100818049008041eb00f9
:1059e800c2a8200068de0200000000008040eb0032
:1059f800814f500002003a000080eb00870037001a
:105a08006e019000fe0190001000200001002000af
:105a180002004000838048006007980071079800e2
:105a28006e019000fe0190007e0890008e1090009c
:105a3800800f5100818f5900d5ff3900ee2090006a
:105a48000000eb00808f50005b0032006000b8005f
:105a58006007980071079800100037006e009000ea
:105a6800ee20900000804000104078006e01900009
:105a7800c1a8200081004100804878006e01900094
:105a8800fe019000100020000100200002004000ec
