:020000040000fa
:080000000002040000000000f2
:020000040000fa
:10040000af9b20000e7f22000e018800000000003c
:100410000c00070040e3210001002000110007004c
:10042000000020000000e000020032000000020096
:1004300000000000ca120200000000000040da00c4
:100440000000fe004440a900a00d20000000e000d4
:100450000300320000002000a00188004440a800f2
:100460000000060091018800800078000000eb0089
:1004700015003700e280400032a0b4009101ba00bc
:10048000e280400032a0b4009102ba00e280400055
:1004900032a0b4000002eb00472bde00f507b200eb
:1004a000602ce10004003a000059eb008301e900f0
:1004b000fdff3e00040037006128e100010032002a
:1004c0000082eb00040007001101ba000200e00006
:1004d000e8ff3a00000006003159ba008301e90044
:1004e0000c0032002159ba008301e90008003200f3
:1004f0000400e00003003a00e280400032a0b400b3
:10050000f5ff370011d9ba008301e900faff3a007c
:100510008100e800e180400032a0b4000000060045
:1005200000000000000000000040da000000fe00b3
:100530006022b800060220000000d0008180d200b6
:100540000482d2008582d2000000a0000202520084
:1005500083825a00030031000202420083824a0073
:100560000000a1000603e900f3ff3a0000000600c6
:100570008001780002003700815978000201e9000b
:0c058000e00f5100fcff3a0000000600f4
:020000040000fa
:020000040001f9
:0457f00033ff000083
:020000040000fa
:020000040001f9
:0457f400c0ff0000f2
:020000040000fa
:020000040001f9
:0457f8008e1b000004
:020000040000fa
:020000040001f9
:0457fc00603f00000a
:020000040000fa
:100008009402000094020000940200009402000090
:100018009402000094020000940200009402000080
:100028009402000094020000940200009402000070
:100038009402000094020000940200009402000060
:020000040000fa
:020000040000fa
:10058c001201000000020000020000000008000040
:10059c00d80400000a000000000100000102000065
:1005ac0000010000090200004300000002010000ed
:1005bc0000c000003209000004000000000100002f
:1005cc0002020000010000000524000000100000e1
:1005dc0001040000240200000205000024060000b3
:1005ec0000010000052400000100000001070000cc
:1005fc0005810000030a000000010000090400004e
:10060c0001000000020a00000000000000070000ca
:10061c000502000002400000000000000705000079
:10062c0082020000400000000000000004030000f3
:10063c0009040000340300004d00000069000000b4
:10064c0063000000720000006f00000063000000f7
:10065c00680000006900000070000000200000002d
:10066c0054000000650000006300000068000000fa
:10067c006e0000006f0000006c0000006f000000b6
:10068c006700000079000000200000004900000015
:10069c006e000000630000002e0000003403000018
:1006ac004300000044000000430000002000000054
:1006bc0052000000530000002d000000320000002a
:1006cc003300000032000000200000004500000054
:1006dc006d000000750000006c000000610000005f
:1006ec0074000000690000006f0000006e00000044
:1006fc002000000044000000650000006d000000b8
:10070c006f000000d88200001c83000020830000d2
:10071c0054830000303100003233000034350000c7
:10072c0036370000383900004142000043440000d5
:04073c00454600002e
:020000040000fa
:100740000200fa009ec0a9000080eb00702488001f
:100750000080eb00502488000000eb00502588004a
:10076000420020008000eb00c04a200080ff07000c
:1007700020002000302588000000eb004025880084
:100780008644a900f009200080248800f009200098
:10079000602488008804a800008020004800de0053
:1007a000c02488000040eb00004f780008003700ac
:1007b0009e4078000180fb00c200dd000080200028
:1007c000008140006000b8000089be001e4fe800b4
:1007d0009e407800b0c0b30080cf5000f4ff3600d8
:1007e0009424a8000000eb00b024880094a4a90081
:1007f0009424a9000c0037008000200050248800b9
:100800000040eb00d4e8b7000040eb00dae8b700a6
:10081000dbc8bf0060406000dbe8b700dcc8bf0099
:1008200060406000dce8b70050248000e800600011
:100830000000eb00808f5000efff3a001000200016
:10084000a047880010002000b04788000000eb009f
:10085000c04788000000eb00d04788000000eb0094
:10086000204788000040eb00004f78001b00370055
:100870009e4078000180fb0080004000a08c20009a
:10088000008040008000eb00010878009e40780066
:100890000180fb0080004000408c20000080400070
:1008a0008000eb00010878001e4078008080fb008b
:1008b000a08e2000808040000040eb00804878003f
:1008c0001e4078008080fb00d08e20008080400099
:1008d0000040eb00804878001e4fe8009e40780002
:1008e00020c0b30080cf5000e1ff360080802000a0
:1008f00050468800d000200050258800c08f20007e
:100900001040880080c0b30000e8b70040c8b300c2
:1009100001e8b7000040eb00bce8b7000000eb00c6
:10092000d04588000080fa00000006000200fa00ae
:10093000d14580000000eb00808f500016003a0087
:100940000000eb00a02488000000eb006024880079
:1009500020002000302588000000eb0040258800a2
:100960008644a900f009200080248800f0092000b6
:1009700060248800010037009404a800a0248000af
:10098000e10060000000eb00808f5000faff3200b1
:1009900010002000d0458800d145800010002000c4
:1009a000808f50000e003a00a12480000004200037
:1009b000808060000000eb00808f500008003a004b
:1009c0000080eb00502488000000eb0060248800c9
:1009d0008c04a8008c84a80020002000d04588004a
:1009e00000248000f00060000000eb00808f5000c9
:1009f0000800320010248000f00060000000eb00ce
:100a0000808f500003003200000120000024880085
:100a10007f04070040248000e20060000000eb003b
:100a2000808f5000020032008ec0a900b300370052
:100a300050248000e10060000000eb00808f500037
:100a40000a00320060248000e10060000000eb003a
:100a5000808f50000500320039ff07004000200061
:100a6000d0458800100020005024880050248000c9
:100a7000f00060000000eb00808f500008003200a2
:100a800060248000f00060000000eb00808f5000c8
:100a900003003200520407000001200050248800a7
:100aa00050248000e40060000000eb00808f5000c4
:100ab0001900320060248000e40060000000eb00b8
:100ac000808f500004003200120020008000eb00f4
:100ad000300720007b0807004000200050248800d9
:100ae000018f2000914078000040eb0080cf500043
:100af00003003200f0c8bf000040e900f0e8b70092
:100b0000018f2000914078000040eb0080cf500022
:100b100001003a00860107005124800000082000ef
:100b2000808060000000eb00808f500007003200e2
:100b30006124800000082000808060000000eb003d
:100b4000808f5000010032000d0407005024800007
:100b5000e20060000000eb00808f50000d003200ca
:100b600060248000e20060000000eb00808f5000f5
:100b700008003200120020008000eb00f0ff270088
:100b8000500807000080eb0070248800200020003f
:100b900050248800d145800030002000808f500014
:100ba00002003e008ec0a90054003700602480007f
:100bb000e80060000000eb00808f50004e00320023
:100bc0000040eb00004f78004500370050248000c3
:100bd000e80060000000eb00808f5000450032000c
:100be0009024800000407800e6e8b700e6c8bf0027
:100bf0000080fb004400de0000407800e7e8b7001a
:100c00008000200050248800e6c8bf00e840600053
:100c10000040eb0080cf500013003a00e7c8bf004f
:100c20000081fb00e7c8bf008080fb00d08e200061
:100c3000008040009040780061c060000004a20085
:100c400061406000d18e2000810141006140600060
:100c500013417800e1cfb3008140610000c0700013
:100c60008049780012003700e7c8bf000081fb0010
:100c7000e7c8bf008080fb00a08e200000804000fd
:100c80009040780061c060000004a20061406000f4
:100c9000a18e200081014100614060001341780075
:100ca000e1cfb3008140610000c07000804978004e
:100cb000718e2000914078000040eb0080cf500002
:100cc00002003a00de030700040037000001eb00d9
:100cd000618e200020072000fa0707001e4fe80061
:100ce0009e40780030c0b30080cf5000b7ff360080
:100cf00001003700000000008ec0a9000080fa004b
:100d0000000006000400fa002047980031479800d0
:100d10003e4090000080fb00e80060000000eb0017
:100d2000808f5000030032008040eb002e40900086
:100d3000630107003e4090000080fb00e40060007b
:100d40000000eb00808f50000300320011c0b300a0
:100d50002e4090005a010700a14a20002e4090002a
:100d60000080fb0000004000008f40001e00780063
:100d7000be409000014878000080fa0000000600a4
:100d80000800fa0020479800314798002207980091
:100d900063479800be4090000040eb0080cf5000b9
:100da000070032002e4090000080fb0080004000d1
:100db000a08c200000804000100f78000600370053
:100dc0002e4090000080fb0080004000408c2000fe
:100dd00000804000100f78009e0078000000eb00bb
:100de000808f500002003a000000eb003100370015
:100df000ae0090001e007800110098001e007800e0
:100e0000ee409000014878001e00780010409000ed
:100e10000044b2009e007800904098001e007800c8
:100e20009040900080c8b30000c070009e00780021
:100e300090409800be4090000040eb0080cf5000f2
:100e40000e003200a18c20002e4090000080fb009c
:100e50000000400080804000a28c20002e409000c6
:100e60000080fb00000040000000410010407800be
:100e70000024a200804878000d003700418c20003b
:100e80002e4090000080fb00000040008080400069
:100e9000428c20002e4090000080fb0000004000ab
:100ea00000004100104078000024a2008048780033
:100eb0001e0078000080fa00000006000400fa001e
:100ec0002047980031479800ae4090000040eb006a
:100ed00080cf50000d003a001146800080c0b30062
:100ee0008048780010468000c18f200011009800d3
:100ef00011468000c0c8b300904098005146800061
:100f000040c8b30090409800220037002e40900067
:100f10000080fb0000004000800078003e40900010
:100f20000080fb00008040004300dd00800078006e
:100f300000802000008f40001e007800904090004c
:100f400040c8b30000c070009e0078009040980038
:100f50002e4090000080fb000000400080007800e0
:100f60003e4090000080fb00008040004300dd0018
:100f7000e400400000802000008f40001e00780048
:100f80009040900040c8b30000c070009e00780000
:100f9000904098000080fa00000006000200fa006d
:100fa000004f7800a12480000002200080806000b3
:100fb0000000eb00808f50005b0032009e40780004
:100fc0000180fb0080004000a08c200000804000d9
:100fd000100278001e4178000280fb008000400073
:100fe000a08c200000804000100078001001be009e
:100ff0000004200001002000820278000301780034
:1010000080017800010078008382620000006100a6
:1010100001002000c000dd00000020000001be0033
:101020006128b8000001710081817100028abe0050
:101030009e4178000380fb0080004000a08c2000cf
:1010400000804000100278009e4078000180fb0084
:1010500080004000a08c200000804000100078003c
:101060001001be0000042000010020000000690003
:1010700081806900008abe00a18c20001e4178009a
:101080000280fb000000400080804000a28c200015
:101090009e4178000380fb000000400000004100fa
:1010a000104078000024a200804878009e4078001c
:1010b0000180fb0080004000a08c200000804000e8
:1010c000900078001e4178000280fb000001400083
:1010d000a08c20000000410010007800104090001b
:1010e0000044b200904098009e4178000380fb00cd
:1010f00080004000a08c200000804000100178009b
:101100009e4078000180fb0080004000a08c200001
:1011100000804000100078009040900000c4b300b0
:1011200000c06800104198000080fa00000006002e
:101130000000fa00a14780000000eb00808f500003
:101140002f003a0010002000a0478800b14780001f
:101150000000eb00808f500029003a0010002000b2
:10116000b0478800118d20009140780020c0b30066
:1011700080cf500007003a00514680000040eb004d
:10118000804878005146800080ccb30090409800a1
:101190001b003700118d20009140780010c0b30073
:1011a00080cf500016003a000000eb004047880056
:1011b0000146800080c0b30080487800004680006f
:1011c000c18f2000110098000146800040c8b30084
:1011d0009040980010002000404788001146800091
:1011e00080c0b3008048780010468000c18f200086
:1011f000110098001146800000c8b300904098008c
:101200000080fa00000006000000fa000000eb0079
:10121000c04788000000eb00d0478800118d2000f7
:101220009140780020c0b30080cf50000a003a00ff
:101230001146800080c0b3008048780010468000ce
:1012400041902000110098001146800080ccb3002e
:10125000904098001800370002c9bf008080fb0052
:1012600003c9bf000080fb004800dd0001007000e2
:1012700080007800b0468000808f50000700310069
:1012800002c9bf008080fb0003c9bf000080fb00d3
:101290004800dd0001007000b04688008f000700a4
:1012a0005046800041902000110098005146800077
:1012b00080ccb300904098000080fa000000060047
:1012c0000400fa0020479800314798000080200071
:1012d000000f78002e4090000080fb0000004000ce
:1012e000800078003e4090000080fb0000804000bd
:1012f0004300dd001e0f40001e0078001001780042
:10130000f1ff27008100610001087800be409000d5
:101310000040eb0080cf500007003a002e409000c4
:101320000080fb0080004000408c200000804000d6
:101330001e087800060037002e4090000080fb0059
:1013400080004000a08c2000008040001e08780033
:101350001e00780010017800f1ff2b008100610071
:10136000010878009e007800648040001001780039
:101370000100240081007100010878000080fa005b
:10138000000006000000fa0094a4a900a146800015
:1013900000082000808060000000eb00808f50007b
:1013a00020003a00a18d20009140780000c8b300d1
:1013b00080c060000040eb0080cf50000c00320085
:1013c00020c0b300d1e8b700d14780000000eb0097
:1013d000808f500001003a008bff07000000eb00f7
:1013e000b04788000000eb00a047880039003700b4
:1013f0001146800080c0b30080487800104680000d
:10140000c18f20001100980011468000c0c8b300b1
:10141000904098005146800040c8b300904098002a
:101420002c003700c18f20009140780000c8b30025
:1014300080c060000040eb0080cf500011003200ff
:1014400010c0b300d1e8b700c14780000000eb0036
:10145000808f500001003a006bff07000000eb0096
:10146000b04788000000eb00a0478800914780004b
:101470000000eb00808f500016003a002cff0700a0
:101480001400370020c0b300d1e8b7001146800037
:1014900080c0b3008048780010468000c18f2000d3
:1014a000110098001146800040c8b3009040980099
:1014b0000000eb00b04788000000eb00a047880068
:1014c000914780000000eb00808f500001003a003f
:1014d00017ff07000080fa00000006000200fa0073
:1014e00080c0b300004f7800b1468000700020003b
:1014f000808f500011003e00b0468000004f780001
:10150000018d2000914078000040eb0080cf50001a
:1015100003003a0010c0b300d0e8b700070037005e
:10152000018d20009140780010c0b30080cf5000a2
:1015300002003a0020c0b300d0e8b700b1468000f6
:101540001e4178000280fb0000805000b0468800f9
:10155000504680001e4878004090200000478800d8
:10156000a0468000e10060000000eb00808f50008a
:1015700018003a00090037000247800091468000b9
:1015800011407800004978000200e8000047880018
:101590000100e800904688001e4fe9009e40780058
:1015a0000040eb0080cf5000f3ff3a000d00370001
:1015b0000247800091468000114078000049780081
:1015c0000200e800004788000100e800904688001b
:1015d0001e4fe9009e4078000040eb0080cf500095
:1015e000f3ff3a000080fa00000006000200fa0053
:1015f00000468000104f78001e4078008080fb007d
:10160000dbc8bf000081fb00dcc8bf000080fb001e
:101610004800dd0002007000808f50000700360097
:10162000dbc8bf008080fb00dcc8bf000080fb007f
:101630004800dd0001007000004f7800dbc8bf00eb
:101640008080fb00dcc8bf000080fb004800dd009c
:1016500001007000800078001e4178000280fb00cd
:1016600080805000f00f200000816000dbc8bf00c8
:101670006040600002407000dbe8b700c808de0090
:10168000dcc8bf006040600001407000dce8b700cb
:101690000040eb00104798001c003700d8c8bf007e
:1016a0008080fb00d9c8bf000080fb004800dd003f
:1016b00001007000800078001e4090000081fb0057
:1016c00040902000000041001040780080487800e1
:1016d0008100e800f00f200000816000d8c8bf0042
:1016e0006040600002407000d8e8b700c808de0023
:1016f000d9c8bf006040600001407000d9e8b70061
:101700001e4090000040e800104798009e40900066
:101710001e40780080cf5000e0ff3900dbc8bf00da
:101720008080fb00dcc8bf000080fb004800dd00bb
:1017300001007000800078000000eb00808f5000f6
:10174000150032001146800080c0b3008048780048
:101750001046800041902000110098000046800053
:101760009000780000002400808060000000eb0002
:10177000808f500004003a001146800080ccb300f6
:1017800090409800240037001146800080c8b300c4
:1017900090409800200037001146800080c0b300c0
:1017a0008048780010468000c18f2000110098000a
:1017b0001146800040c8b30090409800ddc8bf00cb
:1017c0008080fb00dec8bf000080fb004800dd0019
:1017d00001007000800078000000eb00808f500056
:1017e00007003200ddc8bf008080fb00dec8bf00fc
:1017f0000080fb004800dd000100700000000100d7
:10180000dae8a900914780000000eb00808f5000cb
:1018100001003a0046fe07000080fa0000000600c2
:101820000200fa00d4e8a800420020008000eb008b
:10183000c04a20004efb0700020320008000eb009e
:10184000008020004afb07009424a8000040eb0021
:10185000004f78000d0037001e4078008080fb00ac
:10186000a08e2000808040000040eb00804878007f
:101870001e4078008080fb00d08e200080804000d9
:101880000040eb00804878001e4fe8009e40780042
:1018900020c0b30080cf5000efff360022002000b0
:1018a0008000eb00d08b200031fb07009424a900be
:1018b000808020005046880000802000004688007c
:1018c0000046800010468800fec8bf00bce8b70094
:1018d000c18b2000914078000040eb0080cf500089
:1018e00003003a0000012000d045880006003700c0
:1018f00012002000c18b200010002000f10407001e
:1019000000022000d04588000080fa000000060098
:101910000000fa00c18f20009140780000c8b30099
:1019200080cf50003b003a0000ccb300d4e8b700b1
:10193000ffc8bf000080fb0021002000810f500085
:101940000b00320031002000810f500019003200de
:1019500011002000810f50002b003a00602c28005d
:101960009046880020012000b046880029003700fa
:10197000fec8bf000080fb0000004000800078002f
:1019800080382800008040001000780090468800d1
:10199000904680000080e80010407800d6e8b7004c
:1019a000904680006300400010407800d7e8b70000
:1019b00018003700e18f20009140780020c0b3006c
:1019c00080cf50000d003e00fec8bf000080fb002d
:1019d0000000400080007800a0382800008040000f
:1019e00010007800904688009046800010407800f3
:1019f0000080fb00b0468800060037000040eb0086
:101a0000d4e8b700030037000040eb00d4e8b7008b
:101a1000000000000080fa00000006000200fa004a
:101a20000040eb0004e9b7000040eb0005e9b70017
:101a3000fcc8bf007f4060000080fb001100200058
:101a4000810f50001200320021002000810f500051
:101a5000110032008000eb00810f50003b003a0083
:101a6000d4e8a80004c9bf000004a00004e9b7003e
:101a70001147800010002000808f50002e003a0097
:101a800004c9bf000014a00004e9b7002f0037000c
:101a9000d4e8a8002d003700d4e8a8000190200069
:101aa0009140780000c8b30080c060000040eb00a7
:101ab00080cf500008003a0000c9bf006f406000ae
:101ac0000080fb0080004000408c2000008040002f
:101ad000100f78000700370000c9bf006f4060009a
:101ae0000080fb0080004000a08c200000804000af
:101af000100f78001e007800900078000000280089
:101b0000808060000000eb00808f50000c003200ed
:101b10001e00780090007800004020008080600067
:101b20000000eb00808f50000700320010c0b300af
:101b300004e9b7000500370000000000030037008b
:101b4000000000000100370000000000a1468000f6
:101b500000082000808060000000eb00808f5000b3
:101b6000050032004090200090468800d408a8006c
:101b700020c0b300d6e8b7000080fa0000000600dd
:101b80000000fa0050258000e20060000000eb0039
:101b9000808f50000e003200004680009040900080
:101ba00000c8b30080cf500008003a0050468000c3
:101bb0009040900040c8b30080cf500003003a002e
:101bc00001468000c0c8b30090409800aa24a90034
:101bd00000082000502488000080fa000000060061
:101be0000000fa008284a800000120005024880030
:101bf00010002000204788000001eb008000eb006f
:101c0000500720002f0407000080fa0000000600a3
:101c10000000fa000000eb00204788000001eb0004
:101c20008000eb0040072000260407008284a90002
:101c300000012000002488000080fa000000060057
:101c40000200fa00d0c2b300f0e8b700e6c8bf0057
:101c50008080fb00b0ff2f00808060000000eb0060
:101c6000808f500032003a00e6c8bf000080fb00c1
:101c70004200de00004078000080fb00c200dd0072
:101c80000080200000804000004688000046800060
:101c900010468800218c2000208c20001040780005
:101ca0000024a20080487800004680009000780060
:101cb00000c023008080600000402300808f50001f
:101cc00019003a000040eb00004f78000d0037008b
:101cd0001e4078008080fb00c08f20008080400084
:101ce0000046800010009000104078008048780086
:101cf00000468000900090008100e80011009800ec
:101d00001e4fe8009e40780070c0b30080cf5000a6
:101d1000efff360000468000c18f200011009800c0
:101d20000d0007000a0037004500070008003700d3
:101d3000e6c8bf008080fb00b0ff2f0080806000fd
:101d400080002000808f500001003a0058000700fa
:101d50000080fa00000006000000fa000040eb00de
:101d6000d0e8b7000000eb00904788000000eb00cf
:101d7000c04788000000eb00d04788000000eb005f
:101d8000404788000040eb00d1e8b7005146800092
:101d900050468000104090000074a10090409800d0
:101da000a18c2000a08c2000104078000024a2000c
:101db00080487800514680005046800010409000d6
:101dc0000074a10090409800a18c2000a08c2000fd
:101dd000104078000024a20080487800114680005e
:101de00010468000104090000074a10090409800c0
:101df0000040eb00d4e8b7000000eb00b0468800dc
:101e00000040eb00dae8b700dbc8bf0060406000cc
:101e1000dbe8b700dcc8bf0060406000dce8b7006a
:101e2000790007000001eb008000eb00300020008b
:101e3000a403070053fd07000080fa00000006001d
:101e40000000fa00118d20009140780020c0b300fe
:101e500080cf500002003a00e4fd07001200370076
:101e60000040eb00d1e8b700414780000000eb00e4
:101e7000808f50000a003a001146800080c0b300f5
:101e80008048780010468000c18f20001100980023
:101e900011468000c0c8b30090409800020037008f
:101ea0000000eb00404788000080fa0000000600b8
:101eb0000200fa0050468000100078004e00de005c
:101ec00061406000004f7800a18c2000a08c2000b1
:101ed000104078000024a20080487800d14580009e
:101ee00080002000808f50000c003a00fec8bf0028
:101ef0000080fb00b0248800b12480000000eb00cb
:101f0000808f50000300320000012000d04588007f
:101f10000200370040002000d0458800118d2000cd
:101f20009140780010c0b30080cf500019003a00f3
:101f300050468000419020001100980067fd070086
:101f4000018d20009140780020c0b30080cf500068
:101f500004003a005146800040c8b3009040980009
:101f6000270037009e4078000040eb0080cf5000f3
:101f700004003a005146800080ccb30090409800a5
:101f80001f0037005146800080c8b3009040980081
:101f90001b003700a18d20009140780000c8b300dd
:101fa00080c060000040eb0080cf50001200320083
:101fb000ddc8bf008080fb00dec8bf000080fb00e2
:101fc0004800dd0001007000800078000000eb0098
:101fd000808f500007003200ddc8bf008080fb000a
:101fe000dec8bf000080fb004800dd00010070007b
:101ff00000000100dae8a9000040eb00d1e8b700da
:102000000080fa00000006000000fa00fcc8bf00d3
:1020100002c6b300824060000040eb0080cf500059
:102020003f003a00fdc8bf000080fb00cf80de000b
:10203000b200200003002000820f5000838f580060
:1020400039003e00006001001a0037001b00370015
:102050003700370019003700350037000600370019
:1020600009003700290037000b003700080037004f
:10207000140037001d003700d4e8a80080002000bd
:10208000d04588002b00370021fe070029003700cb
:10209000e3fd070027003700c08b20009046880032
:1020a000d408a80010c0b300d6e8b700d4e8a80050
:1020b0002000370059fe07001e0037001f000700f0
:1020c0001c00370000c9bf008080fb00d08b2000bf
:1020d0000080400090468800d408a80010c0b300db
:1020e000d6e8b700d4e8a80012003700d4e8a8006a
:1020f00000c9bf000081fb00fec8bf00d18b2000db
:1021000081004100804878000a0037000001eb00a0
:102110008000eb0020002000ea02070005003700e5
:10212000000000000300370000000000010037003d
:10213000000000000080fa00000006000600fa001f
:10214000e18f20009140780010c0b30080cf500094
:1021500010003a00fcc8bf00ff4060000040eb00e8
:1021600080cf50000b003a00d4e8a800d18f2000a7
:102170009140780030c0b30080cf500003003a0097
:102180001000200010478800020037000000eb001c
:1021900010478800e18f2000914078000040eb005c
:1021a00080cf5000f9003a00fcc8bf00ff4060003b
:1021b00020c0b30080cf5000f4003a0000c9bf0037
:1021c000ef4060000040eb0080cf5000ef00320095
:1021d00000c9bf006f4060008080fb00200020002d
:1021e000808f5000e9003c00d145800000022000b3
:1021f000808f5000e5003a00d4e8a800019020004c
:102200009140780000c8b30080c060000040eb003f
:1022100080cf500010003a0000c9bf006f4060003e
:102220000080fb0080004000408c200000804000c7
:10223000100078001007980000c9bf006f406000d0
:102240008080fb00d08e200000804000104078008d
:10225000404798000f00370000c9bf006f40600082
:102260000080fb0080004000a08c20000080400027
:10227000100078001007980000c9bf006f40600090
:102280008080fb00a08e200000804000104078007d
:10229000404798004e409000e14060000040eb0055
:1022a00080cf500007003a000e81e8000e80e80061
:1022b00090407800b0cfb30000c0600000497800c3
:1022c000050037008e80e8000e80e800104078009e
:1022d0000024a00080487800019020009140780000
:1022e00000c8b30080c060000040eb0080cf500009
:1022f00009003a0000c9bf006f4060000080fb0089
:102300009e00900000014000408c20000000410031
:10231000010878000800370000c9bf006f40600066
:102320000080fb009e00900000014000a08c200077
:102330000000410001087800d18f20009140780012
:1023400030c0b30080cf500026003a001e0090003d
:102350009000780000002800808060000000eb0002
:10236000808f5000180032000190200091407800ca
:1023700000c8b30080c060000040eb0080cf500078
:1023800009003a0000c9bf006f4060008080fb0078
:10239000d08e200080804000114078000014a00002
:1023a000804878000800370000c9bf006f40600017
:1023b0008080fb00a08e20008080400011407800cb
:1023c0000014a000804878001e0190001e009000bc
:1023d0009040900040c8b30000c0700010419800c9
:1023e0006a0037008e80e8000e80e8001040780018
:1023f0000024a200804878001e0090009000780021
:1024000000002800808060000000eb00808f5000fa
:10241000110032009e0090001e00900010409000bd
:102420000074a100904098001e0190001e009000d2
:102430009040900000c4b30000c0700010419800ac
:102440001e00900022002000800078005000200034
:102450001c020700060037001e0190001e009000bd
:102460009040900000c4b30000c07000104198007c
:102470008e80e8000e80e800104078000024a20062
:10248000804878004e409000e24060000040eb0041
:1024900080cf500007003a001e00900090007800a6
:1024a00000002800808060000000eb00808f50005a
:1024b00025003200019020009140780000c8b30050
:1024c00080c060000040eb0080cf50000a003a005e
:1024d00000c9bf006f4060008080fb00d08e2000ec
:1024e0000081400092407800d0cfb30000c060006f
:1024f000004978000900370000c9bf006f40600044
:102500008080fb00a08e2000008140009240780077
:10251000d0cfb30000c06000004978009e0090005a
:102520001e00900010409000b043b2009040980010
:102530001e00900022002000800078005000200043
:10254000e0010700050037009e0090001e0090008b
:1025500010409000b043b20090409800a14a200083
:1025600000c9bf006f4060000080fb000000400019
:10257000008f40001e00780090407800d0cfb3005c
:1025800000c060009e007800804878000080fa005b
:10259000000006000000fa0003000700e3f807004f
:1025a0009f000700fdff37000200fa000080eb00eb
:1025b0006019880080252000000f780044a7a8003b
:1025c000000000001e00ea001e0070004f00de0048
:1025d000804078001e0fe9000040eb0080cf5000e3
:1025e000f8ff3a000300070055f807000080fa00e2
:1025f000000006000200fa00260007000040eb0081
:10260000004f7800070037001e4078008080fb00f4
:1026100000832000808040000040eb00804878006c
:102620001e4fe800f0c3b3009e40780080cf5000fa
:10263000f5ff36000040eb00b0e8b7000040eb00cb
:10264000b1e8b7000000eb00a0458800211680002b
:10265000f0d72f000080600020168800011680004f
:10266000f0d72f00008060000016880061168000ff
:1026700030ff2f0000806000601688004116800047
:1026800030ff2f0000806000401688000080fa00b4
:10269000000006000000fa003135800000fe2f0027
:1026a000008060003001b30030358800c136800002
:1026b000f00f2e008080600000502000008070002d
:1026c000c0368800b40307000080fa00000006004e
:1026d0000200fa00004f78001e407800dc0307007b
:1026e0000080fa00000006000400fa0002932000b7
:1026f000124078000081fb00139320001342780001
:102700008481fb00c819dd0002817100020078009d
:1027100022932000924178000381fb003393200034
:10272000134278008481fb00c819dd00028171002a
:102730008200780002202c0013002000820f50003d
:10274000838f58002e003e00029320001240780034
:102750000081fb0013932000134278008481fb006a
:10276000c819dd0002817100020078002293200068
:10277000924178000381fb003393200013427800dc
:102780008481fb00c819dd0002817100820078009d
:102790006048880071488800624880007348800063
:1027a00000202100a1072000020040008380480093
:1027b0000000400081804800c20ade004e09dd00b2
:1027c0004202de000402710060488000714880000f
:1027d0000001be000400be0055f707000001be0066
:1027e0000080eb008080eb00020040008380480006
:1027f000008fbe001e00be0000007800c0118800df
:102800000080fa00000006000200fa0054030700ee
:10281000004f78001e4078000080fa00000006009b
:102820000000fa00881f780066000700d14580008c
:10283000f0012000808f50005c00360040248000b2
:10284000e20060000000eb00808f500059003a0069
:10285000e1922000914078000040eb0080cf5000d2
:102860000d003a0001c4b300008720001a020700df
:10287000b1e8b700118b2000914078000040eb00d8
:1028800080cf50000400320010c0b3002ee9b70022
:102890000040eb00b2e8b700e192200091407800e0
:1028a0000040eb0080cf50001600320091118000f4
:1028b00000102000808060000000eb00808f50003e
:1028c00010003200b2c8bf008080fb0000872000eb
:1028d00000804000104078007dff0700b2c8bf00b4
:1028e0000040e800b2e8b700218b2000914078005a
:1028f000b1c8bf0080cf500002003a000040eb009a
:102900002ee9b700310307008040eb00814f5000f3
:1029100014003200018b200091407800e0c3b30026
:1029200080cf50000f003e00b0c8bf000084fb0005
:10293000b5ff070001832000810044008048780033
:10294000b0c8bf000040e800b0e8b700b0c8bf00a2
:102950008080fb0000832000808040000040eb006e
:102960008048780051912000914078000040eb00b1
:1029700080cf50000b003a00018b2000914078007e
:102980000040eb0080cf500006003200b0c8bf000e
:102990008040780000832000030207000040eb0025
:1029a000b0e8b7006602070003003700000000002f
:1029b00001003700000000004f0478000080fa009a
:1029c000000006000000fa00c14580000000eb0096
:1029d000808f500002003a0000712200c04588003c
:1029e000c04580000000e900c04588004024800008
:1029f000e20060000000eb00808f50001e003200fb
:102a0000c14580000000eb00808f500071003a004b
:102a100021168000000820000081600010c0b30073
:102a20008000eb00810f5100010032000040eb00fc
:102a30000080fb00610060004700dd00221680007e
:102a4000f1f72f00810061000080700020168800df
:102a50002116800000082000808060000000eb004c
:102a6000808f500002003200cc62a800590037006d
:102a7000cc62a90057003700d14580000000eb0070
:102a8000808f500003003a00c4e2a900cc62a90084
:102a900050003700d145800010002000808f50008a
:102aa00003003a00c4e2a800cc62a8004900370045
:102ab000d145800020002000808f500003003a00a4
:102ac000c4e2a800cc62a90042003700d1458000d2
:102ad00040002000808f500003003a00c4e2a900ab
:102ae000cc62a8003b003700d145800000012000e7
:102af000808f500016003a00c14580000000eb00b6
:102b0000808f500033003a0021168000000820001a
:102b10000081600010c0b3008000eb00810f510005
:102b2000010032000040eb000080fb00610060000b
:102b30004700dd0022168000f1f72f0081006100c0
:102b40000080700020168800cc62a90021003700a8
:102b5000d145800000022000808f50001d003a0007
:102b6000c14580000000eb00808f500019003a0042
:102b700021168000000820000081600010c0b30012
:102b80008000eb00810f5100010032000040eb009b
:102b90000080fb00610060004700dd00221680001d
:102ba000f1f72f008100610000807000201688007e
:102bb0002116800000082000808060000000eb00eb
:102bc000808f500002003200cc62a9000100370063
:102bd000cc62a8000080fa00000006000000fa00a5
:102be0000080fa00000006000000fa000080fa00f1
:102bf000000006000000fa000080fa000000060055
:102c00000000fa000080fa00000006000000fa0050
:102c1000640007000080fa00000006000000fa00cf
:102c20000080fa00000006000000fa00ec00070037
:102c30000080fa00000006000000fa001147800042
:102c400010002000808f50001c003a0021478000b7
:102c500010002000808f500018003a00e2ff0700ab
:102c60008824a9000000eb002047880000e1200034
:102c7000b0458800b04580000000e900b0458800fc
:102c8000b14580000000eb00808f5000f9ff3a0052
:102c90009444a80080702000b0458800b0458000b2
:102ca0000000e900b0458800b14580000000eb005d
:102cb000808f5000f9ff3a009444a9000080fa0088
:102cc000000006000600fa00000f780011079800c7
:102cd000220798001e00780021072000810f500075
:102ce0002c00320021072000810f50000e003c0014
:102cf00021002000810f5000200032002100200020
:102d0000810f500004003c0011002000810f500092
:102d1000180032002000370031002000810f5000e1
:102d2000180032001c00370041072000810f5000be
:102d30000e00320041072000810f500007003500cf
:102d400051072000810f500006003200f1ff2700dc
:102d5000810f50000d0032000f003700a5ff070063
:102d60000d0037009dff07000b0037009eff070096
:102d700009003700acff070007003700a7ff070076
:102d800005003700a1ff0700030037009cff070084
:102d90000100370000000000100020000080fa0051
:102da000000006000000fa00fcc8bf00ff40600001
:102db00010c0b30080cf50007e003a00fcc8bf00b6
:102dc00002c6b3008240600000c2b30080cf500052
:102dd0007a003a0001902000914078000040eb001a
:102de00080cf500005003200019020009140780013
:102df00010c0b30080cf500072003a00fdc8bf0081
:102e00000080fb00cf80de002202200003002000b3
:102e1000820f5000838f58006c003e00006001005c
:102e200022003700280037006a00370069003700a9
:102e3000680037006700370066003700650037001c
:102e4000640037006300370062003700610037001c
:102e5000600037005f0037005e0037005d0037001c
:102e60005c0037005b0037005a003700590037001c
:102e7000580037005700370056003700550037001c
:102e8000540037005300370052003700510037001c
:102e9000500037004f0037004e0037004d0037001c
:102ea0000d003700380037003e00370060922000e8
:102eb0009046880080002000b0468800d408a80012
:102ec000d4e8a800440037006092200090468800b3
:102ed000d4e8a8004000370002c9bf008080fb0092
:102ee00003c9bf000080fb004800dd000100700046
:102ef00080007800f00f200000816000dbc8bf0078
:102f00006040600002407000dbe8b700c808de00e7
:102f1000dcc8bf006040600001407000dce8b70022
:102f200001932000f00f200000816000d8c8bf008e
:102f30006040600002407000d8e8b700c808de00ba
:102f4000d9c8bf006040600001407000d9e8b700f8
:102f500041372100f00f200000816000ddc8bf0074
:102f60006040600002407000dde8b700c808de0085
:102f7000dec8bf006040600001407000dee8b700be
:102f8000dae8a80014003700c090200090468800be
:102f900070002000b046880010ccb300d4e8b70021
:102fa0000d003700fec8bf0020e9b700d4e8a80034
:102fb0000900370000000000070037000000000093
:102fc000050037000000000003003700000000008b
:102fd00001003700000000000080fa000000060039
:102fe0000000fa0000b024000100200060488800c2
:102ff000714888000040eb0010e9b7000040eb008a
:1030000011e9b70080c0b30012e9b7000040eb003f
:1030100014e9b70051c1b30010c0b30039f707007d
:10302000d1c1b30020c0b30036f7070003c4b3001a
:10303000a29320008040eb0020c0b30050f70700af
:10304000e04888000000eb00f04888000040eb00fa
:1030500015e9b7000080fa00000006000600fa003b
:10306000000f780011079800220798009e00780052
:1030700050002000808f500014003a00e04880008b
:103080009e009000808f500006003a0003c4b300f9
:10309000a29320008040eb0020c0b30038f7070067
:1030a000e0488800f04880009e009000808f50002b
:1030b00004003a000040eb0015e9b7000040eb00c7
:1030c0001ae9b70010002000010037000000eb00f3
:1030d0000080fa00000006000400fa00000f7800eb
:1030e000214798000040eb0014e9b700e148800058
:1030f0000000eb00808f500007003200e0488000a5
:103100009000780000002800808060000000eb0044
:10311000808f500021003a00e04880009040780005
:103120002e40900080cf500003003100e048800026
:1031300090407800214798000040eb0014e9b70068
:103140000b00370014c9bf000080fb009e00400048
:1031500014c9bf000080fb00a293200062407800e9
:103160008048780014c9bf000040e80014e9b700a7
:1031700041912000914078002e40900080cf500077
:10318000f0ff390003c4b300a29320008040eb009d
:1031900020c0b300faf60700e048880014c9bf0059
:1031a0000080fa00000006000400fa00000f78001a
:1031b0002147980051912000914078000040eb0099
:1031c00080cf500008003a001e007800b048880008
:1031d0002e4090001ae9b70010c0b3001be9b700f9
:1031e00010c0b30015e9b7000080fa000000060027
:1031f0000600fa00200798005191200091407800c5
:103200000040eb0080cf500020003a000040eb006f
:10321000004f78002e009000100798001e4fe80025
:103220009e40780000c0eb0080cf50000d003200bf
:103230001e009000104078000080fb000000ea00b3
:103240004f00de00804078001e0090000000e80083
:10325000100798000040eb0080cf5000efff3a00cd
:1032600001003700000000002e009000b0488800e8
:103270001e4078001ae9b70010c0b3001be9b70080
:1032800010c0b30015e9b7000100370000000000ce
:103290000080fa00000006000600fa0020079800ef
:1032a00051912000914078000040eb0080cf500009
:1032b00020003a000040eb00004f78002e00900004
:1032c000100798001e4fe8009e40780000c0eb00f9
:1032d00080cf50000d0032001e009000104078009a
:1032e0000080fb000000ea004f00de008040780014
:1032f0001e0090000000e800100798000040eb005e
:1033000080cf5000efff3a000100370000000000be
:103310002e009000b04888001e4078001ae9b700df
:103320000040eb001be9b70010c0b30015e9b7007f
:1033300001003700000000000080fa0000000600d5
:103340000200fa00f14880000000eb00808f50007e
:1033500007003200f048800090007800000028004c
:10336000808060000000eb00808f50006e003a000b
:10337000519120009140780030c0b30080cf5000c0
:1033800002003a000040eb0015e9b700519120001f
:10339000914078000040eb0080cf50006400320084
:1033a000519120009140780020c0b30080cf5000a0
:1033b00009003a008041eb000001eb0011c0b300ae
:1033c00020c0b3006ef60700f048880030c0b3009c
:1033d00015e9b7005700370051912000914078005f
:1033e00010c0b30080cf500052003a00a1912000dd
:1033f0009140780000c4b30080cf50000300360035
:1034000000c4b300004f7800020037001ac9bf00a3
:10341000004f78001ac9bf001e4050001ae9b700db
:10342000a0972000c04888001e40780010479800f0
:10343000b1912000914078000040eb0080cf500017
:1034400020003a000d003700c1488000b0488000dd
:103450001040780080487800c04880000000e800f4
:10346000c0488800b04880000000e800b0488800ec
:103470001e4090000040e900104798009e409000d8
:103480000040eb0080cf5000efff3a001100370002
:10349000c1488000b0488000104078008048780023
:1034a000c04880000000e800c0488800b0488000a4
:1034b0000000e800b04888001e4090000040e9008d
:1034c000104798009e4090000040eb0080cf5000d5
:1034d000efff3a00a1912000914078000040eb00fe
:1034e00080cf500009003a0000c4b3009e4078002d
:1034f00080cf500003003a0020c0b30015e9b700a8
:103500000200370030c0b30015e9b7009e417800d3
:10351000a297200011c0b30020c0b30018f6070026
:10352000f048880003003700000000000100370069
:10353000000000000080fa00000006000200fa000f
:103540000000eb00000f780010002000000f780052
:103550001e007800004078000080fa00000006009d
:103560000200fa0000000000310480000000240086
:10357000808060000000eb00808f5000faff320076
:10358000b0118000004f780087c0a9001e4078006d
:103590000080fa00000006000000fa00400420004d
:1035a000c01188000000eb00801188003062a80084
:1035b0000000eb009011880031e2a8003342a8001f
:1035c00087c0a9000080fa00000006000000fa0091
:1035d0003104800000002400808060000000eb00c7
:1035e000808f50000200320010c0b300010037008d
:1035f0000040eb000080fa00000006000400fa0022
:1036000010079800020037001e40780010000700e5
:103610001e00900010407800004f78009e40780017
:103620000180fb000000ea004f00de0080407800cf
:103630001e0090000000e800100798000040eb001a
:1036400080cf5000f0ff3a000080fa000000060032
:103650000200fa00004f78001e00fb00a011880055
:103660000000000000000000000000009111800038
:1036700000102000808060000000eb00808f500070
:10368000faff32000080fa00000006000400fa0091
:10369000204798000040eb00004f78002e4090003b
:1036a000104798009e40900030c6b30080cf500075
:1036b0000b0036001e4090008080fb00400620007a
:1036c00000017800110009008280d80000407800d5
:1036d0000043b000deff070010c0b300004f7800c9
:1036e0001e4090008080fb00400620000001780012
:1036f000110009008280d80000407800c1f92f0035
:103700000180b90000007800004078009e409000e1
:1037100000c04000104798009e40900090c0b30049
:1037200080cf500004003e009e40780010c0b300df
:1037300080cf500009003a001e4090008080fb00be
:10374000a000200000017800110009008280d8004c
:10375000004078000043b000bdff07001e4090000d
:103760008080fb00a000200000017800110009000b
:103770008280d8000040780061ff2f000180b900ee
:1037800000007800004078009e40900000c040009b
:10379000104798001e4090000043b000acff0700a7
:1037a0000080fa00000006000400fa0010079800ec
:1037b0001e009000000f78001e0090004480de0084
:1037c0006f00600010079800013928001e0090006b
:1037d00000804000104078009dff07009e007800a8
:1037e0006f80600010079800013928001e009000cb
:1037f000008040001040780095ff07000080fa002c
:10380000000006000400fa00100798001e00900057
:103810004c00de00000f7800003928001e00400038
:10382000104078008aff07001e0090004800de006c
:103830006f0f6000003928001e0040001040780023
:1038400083ff07001e0090004400de006f0f600041
:10385000003928001e004000104078007cff07005f
:103860001e0090006f0f6000003928001e0040000d
:103870001040780076ff07000080fa000000060084
:103880000800fa0020079800310798002e009000e9
:10389000be0090004c08de0001002000008fbe003a
:1038a000003928001e0040001040780068ff070023
:1038b0002e009000be0090004809de0003002000aa
:1038c000f00020000100200002027800830178004f
:1038d00000017800010078000201620000806100b0
:1038e00001002000c000dd0000002000008fbe00ad
:1038f0006110b8001e1f70001e977000003928006c
:103900001e0040001040780051ff07002e0090007c
:10391000be0090004409de0003002000f0002000fb
:103920000100200002027800830178000001780085
:1039300001007800020162000080610001002000a7
:10394000c000dd0000002000008fbe006110b80044
:103950001e1f70001e977000003928001e004000d6
:10396000104078003aff07002e009000be00900043
:103970004009de0003002000f000200001002000cc
:1039800002027800830178000001780001007800cd
:10399000020162000080610001002000c000dd0023
:1039a00000002000008fbe006110b8001e1f7000d4
:1039b0001e977000003928001e004000104078005b
:1039c00023ff07002e009000be009000cc09de000f
:1039d000440add004c01de0002017200f00020000c
:1039e00001002000020278008301780000017800c5
:1039f00001007800020162000080610001002000e7
:103a0000c000dd0000002000008fbe006110b80083
:103a10001e1f70001e977000003928001e00400015
:103a2000104078000aff07002e009000be009000b2
:103a3000c809de00480add004801de00020172000c
:103a4000f0002000010020000202780083017800cd
:103a5000000178000100780002016200008061002e
:103a600001002000c000dd0000002000008fbe002b
:103a70006110b8001e1f70001e97700000392800ea
:103a80001e00400010407800f1fe07002e0090005c
:103a9000be009000c409de004c0add004401de00d7
:103aa00002017200f00020000100200002027800f4
:103ab00083017800000178000100780002016200b3
:103ac0000080610001002000c000dd000000200037
:103ad000008fbe006110b8001e1f70001e9770009e
:103ae000003928001e00400010407800d8fe070072
:103af0002e019000be019000f00020000100200087
:103b0000020278008301780000017800010078004b
:103b1000020162000080610001002000c000dd00a1
:103b200000002000008fbe006110b8001e1f700052
:103b30001e977000003928001e00400010407800d9
:103b4000c3fe07000080fa00000006000200fa0031
:103b5000004f780060c6b3009e40780080cf5000d0
:103b6000020034000040eb002500370000c6b3001f
:103b70009e40780080cf5000040034009e407800c2
:103b800090cab30000c040001d00370060c4b300fd
:103b90009e40780080cf5000020034000040eb00cf
:103ba0001700370000c4b3009e40780080cf50005b
:103bb000040034009e40780090ccb30000c0400068
:103bc0000f00370090c3b3009e40780080cf5000b4
:103bd000020034000040eb0009003700f0c2b300df
:103be0009e40780080cf5000040034009e40780052
:103bf00000cdb30000c04000010037000040eb00e2
:103c00000080fa00000006000400fa002047980037
:103c10002e4090006f4f60009e40780090c0b3002f
:103c200080cf5000030034001e4078007043b00085
:103c3000020037001e4078000043b0000080fa0008
:103c4000000006000000fa0090118000e200600011
:103c50000000eb00808f5000010032003222a900ea
:083c60000080fa0000000600dc
:020000040000fa
:103c6800300800008a000000000000002e09000053
:103c7800020000000200000000000000ba08000076
:103c880052000000000000000008000030000000a2
:103c980000000000300900008a0000000000000059
:103ca8000c090000220000000000000000000000d5
:00000001FF
