:020000040000fa
:080000000002040000000000f2
:020000040000fa
:10040000ef2b21000eff27000e01880000000000e6
:100410000c00070000582a0001002000110007000e
:10042000000020000000e000020032000000020096
:10043000000000008e880200000000000040da008a
:100440000000fe004440a900e05421000000e0004c
:100450000300320000002000a00188004440a800f2
:100460000000060091018800800078000000eb0089
:1004700015003700e280400032a0b4009101ba00bc
:10048000e280400032a0b4009102ba00e280400055
:1004900032a0b4000002eb00472bde00f507b200eb
:1004a000602ce10004003a000059eb008301e900f0
:1004b000fdff3e00040037006128e100010032002a
:1004c0000082eb00040007001101ba000200e00006
:1004d000e8ff3a00000006003159ba008301e90044
:1004e0000c0032002159ba008301e90008003200f3
:1004f0000400e00003003a00e280400032a0b400b3
:10050000f5ff370011d9ba008301e900faff3a007c
:100510008100e800e180400032a0b4000000060045
:100520000040da000000fe000003b1000b003500bf
:100530009000b100080034008000b10007003500d1
:100540005000b10004003400b001b10003003500d8
:100550005000b10001003c00100005000000050043
:100560002b0107000400be0000000600020ab900cb
:10057000001bb9000200b800810042008100430066
:1005800000000600889fbe008a9fbe003004be00a7
:100590002005be000404440085844c0006054d007f
:1005a00087854d000898be000a90be000440e10017
:1005b00005c8e10006d0e10007d8e10002003100e3
:1005c000680040001008e8004f05be004f04be0060
:1005d00000000600889fbe008a9fbe008c1f780026
:1005e000000678003c04be002c05be000400540048
:1005f00085805c0006015d0087815d00009ebe0075
:10060000029ebe00100020000440e10005c8e10089
:1006100006d0e10007d8e100010039000000eb003e
:100620001c0e10004f0678004f05be004f04be00a0
:10063000000006001200fa00889fbe008a9fbe00dc
:100640008c9fbe000205be000004be00e4b79f0000
:10065000f5b79f0086bf9f0097bf9f000000eb008b
:10066000d0b79f00c0b79f00b0b79f00a0b79f0052
:1006700090b79f0000067800fd032000dfb19700cf
:100680004fb0970003814100bfb09700e08f510049
:1006900004003d00290007007e805700b9ff0700d5
:1006a00003003700250007007e805700c9ff0700c0
:1006b000dfb09700e08f50000700350014002000e5
:1006c000050020006033b8000804720089847200bd
:1006d0000a0573008b8573000c06e8008d0f560029
:1006e000e6ff3400e08f500006003d006fb2970037
:1006f000ffb297000fbb97009fbb97007e8057000b
:10070000a0ff07005fa89700e00f500004003a0028
:100710001fb49700afb497003fb59700cfb59700cf
:100720000800be000a01be004f06be004f05be0015
:100730004f04be000080fa0000000600cf01de007a
:1007400002817100b2b79f004f09de000000400037
:1007500000007100a0b79f000fb097004f01de00ae
:10076000818040008100710091b79f007faa9700af
:10077000cf20de00000040000080700080b79f00a6
:100780000800be000a01be004f18de00040242004d
:1007900000027200f4af9f000804440089844c00fa
:1007a0000a054d008b854d004fb29700dfb29700d0
:1007b0006fb39700ffb3970000000600881f780012
:1007c00018002000881f78009aff07008f87e90033
:1007d0004f04780000000600801feb0095ff070023
:1007e0008f87e90000000600889fbe008a9fbe0038
:1007f0008c1f7800e00f5000e08f5800e00f590088
:10080000e08f59000f003d006044b8006055b8000b
:100810000000540081805c0002015d0083815d0066
:100820001c0020000820e10009a8e1000ab0e10056
:100830000bb8e1000d003d00190007000006eb00b9
:100840000a0037000006eb00e00f5200e08f5a006c
:10085000e00f5b00e08f5b0004003d006044b800e7
:100860006055b8000e0007001c002000d3ff0700f1
:10087000e00f5600060032006022b8006033b80076
:100880000000520081805a0002015b0083815b00fe
:100890004f0678004f05be004f04be000000060062
:1008a0000402540085825c0006035d0087835d00be
:1008b00000000600889fbe008a9fbe008c1f780043
:1008c000e00f5000e08f5800e00f5900e08f590012
:1008d0000d003d006044b8006055b80000005400b1
:1008e00081805c0002015d0083815d001c002000ae
:1008f0000820e10009a8e1000ab0e1000bb8e1001e
:100900000d003d00080037000006eb00e00f52002c
:10091000e08f5a00e00f5b00e08f5b0006003d00b7
:100920006044b8006055b8000402540085825c0041
:1009300006035d0087835d00a7ff0700e00f5600f8
:10094000060032006022b8006033b8000000520098
:1009500081805a0002015b0083815b004f067800b2
:100960004f05be004f04be0000000600889fbe0079
:100970008a9fbe008c1f78000006eb00e00f50003d
:10098000e08f5800e00f5900e08f590007003d004c
:100990006044b8006055b8000000540081805c00dd
:1009a00002015d0083815d001c002000e00f520009
:1009b000e08f5a00e00f5b00e08f5b0007003d0016
:1009c0006044b8006055b8000402540085825c00a1
:1009d00006035d0087835d000c00a2001c00070079
:1009e000e00f5600060032006022b8006033b80005
:1009f0000000520081805a0002015b0083815b008d
:100a00004f0678004f05be004f04be0000000600f0
:100a10006022b800060220000000d0008180d200d1
:100a20000482d2008582d2000000a000020252009f
:100a300083825a00030031000202420083824a008e
:100a40000000a1000603e900f3ff3a0000000600e1
:100a5000889fbe008a9fbe008c9fbe000404b80021
:100a60000506b8008904460060854e000606b800f9
:100a70000a054600e0854e000706b8008b054600d3
:100a8000040eb800890446000a854e00e0854d003a
:100a9000050eb8000a0546008b854e00060eb8000c
:100aa0008b0546000416b8000a0546008b854e00eb
:100ab0000516b8008b054600041eb8008b054600dd
:100ac0000800be000a01be004f06be004f05be0072
:100ad0004f04be000000060002c2b3000100370050
:100ae0000000e8009040780082cf5000fcff320008
:100af000e9cf5000faff3200d2c2b30082cf5000db
:100b000003003a000000e80012c0b30005003700ff
:100b10000041eb00b3c2b30083cf500001003a00a4
:100b20000000e8008000eb00050037006a0ab90009
:100b300001fd2f0084804000838040000000e80019
:100b40009001fb0004fd2f0003024200e90f520058
:100b5000f6ff3600e04f5100010032008100ea004c
:100b60000100780000000600889fbe008a9fbe003a
:100b70008004780000c2b30039447800804f5400ec
:100b8000fdff3200e94f5400fbff3200d0c2b3003a
:100b9000804f540003003a00394478001ac0b30073
:100ba000050037000045eb00b0c2b300804f540091
:100bb00001003a00394478006000b8000bcdb30062
:100bc00009003700a20020000300200067fe070094
:100bd0000b4144000281fb000300200002004000a2
:100be00083804800394478000881fb000203b1008b
:100bf000e90f5100f3ff3600e04f550002003200cc
:100c000060001000e08018004f05be004f04be00d9
:100c100000000600889fbe008a9fbe008c9fbe0019
:100c2000800678000204be00010578000200be00c4
:100c3000cfd5de0001003700820678000a01be0031
:100c400073ff07000d01e800e00f5000e08f58002f
:100c5000f9ff3a000049eb000a01be000800be009f
:100c60003ffe0700004678000a01be000800be00f3
:100c700067ff07000004be00e94f56000100340082
:100c80006746460000c3b30080564600e00f54009c
:100c9000e08f5c00f0ff3a000d0078004f06be00c8
:100ca0004f05be004f04be0000000600881f7800fc
:100cb00000047800e00f5100e08f590006003d006d
:100cc00008027800d0c2b300005a78006001110019
:100cd000e081190001003700080278000400780064
:100ce000ccff0700080078004f04780000000600e1
:100cf000e68747008e1f7800d0bf9f0066875700a9
:100d0000012f78000e003700dfb9970013417800fb
:100d10006fb8970090407800814f51000400320076
:100d20000280fb008180fb000100500008003700ba
:100d30008301e800d3bf9f00000fe80004017800a2
:100d40000202e900e00f5100efff3a0002007800d4
:100d50004f0778006f00b1000000060080017800a6
:100d600002003700b1597800040178000202e9005e
:100d7000e00f5100fbff3a00000006008001780000
:100d80000200370081597800040178000202e9006e
:100d9000e00f5100fbff3a00000006009041780090
:100da00031c1510004003a00e0cf5100020032008e
:100db0000000e800f9ff37000200fb000000060019
:100dc000800178003141780082597800e04f51006d
:100dd000fcff3a0000000600800078000041eb00b4
:100de000b14f1100fdff3a000080ea000080400092
:100df0000000060080017800060037000201e900cb
:100e00001142780084597800e04f52000600320009
:100e10008100e800e00f5100f8ff3a0002003700bf
:100e20008059eb00010178008200e900e00f5100d9
:100e3000fbff3a00000006000c00fa00889fbe008d
:100e400000047800f0ff2700d0bf9f008004eb0073
:100e500099bf9f0088bf9f00a8bf9f00200c200063
:100e6000b0bf9f0078815700cfb0970070805700c7
:100e7000070007000fb89700094878008fb897005f
:100e8000088050004f04be000080fa0000000600f9
:100e90000f04b000889fbe008a9fbe008c9fbe00da
:100ea0008e1f7800c0b79f00d1af9f00a2b79f00f0
:100eb0000000eb00c0033700dfa897008100e800c6
:100ec000d1af9f0052c2b30082cf520006003a0059
:100ed0000007eb0006c3b30003c2b300b1c2b30006
:100ee0005fa8970014003700cfb19700330190003e
:100ef0000204b20005003200030278009401780079
:100f000085497800030ae800070037000501fb0067
:100f1000cfb0970002007800b4030700000178000a
:100f2000e10f4100a5033200bfb297008502e8003f
:100f3000b5b79f00a103370090427800d7c2b30035
:100f400087cf52000b0032000001e80087cf52002b
:100f500005003c0083cf52000900320081cf5200cf
:100f60000e003a000800370086cf52000b003a000e
:100f7000070037000e30a0000000e800eeff370049
:100f80000e00a000030037000e10a0000100370083
:100f90000e20a00002007800e7ff3700d0af9f00ce
:100fa000e2016700010032000e00a100e8016700c5
:100fb000010032000e20a1008501fb000303b100f7
:100fc000e98f51000d003e00000020005fa997004e
:100fd0006a00b9000003b1009200fb00010040006c
:100fe000d200fb000103b100e98f5000f8ff36008a
:100ff000c0af9f00d2af9f000c0037008004eb0011
:10100000c9af9f00a3c2b30083cf520007003a00cc
:101010002fb59700ca057800aab79f00cbaf9f00f5
:101020005fa897000000e800d0af9f008000eb00b1
:10103000e1af9f00e3c2b3005fa9970092cf110018
:101040001e003a000ee0a000e4c151000201e800d9
:10105000d2af9f0012427800834f52000d003a0039
:10106000afb2970045037800a5b79f00e6af9f0099
:10107000820378008703e80007017800100037003a
:101080006a00b9000003b100020040008301e800db
:10109000020037006fa89700dfa997001301fb003b
:1010a00001fd2f0082804000e98f5000f4ff3600e0
:1010b000e0af9f0003017800010037005fa99700af
:1010c00032427800c4779f00c8c6b300884f5200f0
:1010d00023003200d2af9f000f003c0035c6b300a2
:1010e000854f5200a700320004003c00e04f520040
:1010f0003703320083c5b3000f00370043c6b30087
:10110000834f5200c4003200e5c14100834f5200ba
:10111000ba003a00c000370035c7b300854f52000f
:101120001a00320007003c00f3c6b300834f5200a0
:10113000110032008341e800834f5200af003a00b3
:101140000f00370053c7b300834f5200b100320085
:10115000e3c14100834f5200a8003a000900370064
:10116000700067000100280001003a000101200022
:1011700001077700d2ff37000e60a000a6003700fd
:101180000e50a0000e70a000a3003700afb497006f
:10119000c9027800a9b79f00d5b79f00e08f520021
:1011a00002003a002bea2000dbb79f000000eb00b2
:1011b000e0b79f005fb09700efb097007fb1970056
:1011c0008fb99700010037008500e80081027800a0
:1011d00061427800e04f5200fbff3a00d0b79f0019
:1011e000e1b79f00f2b79f0083bf9f00efaa97006f
:1011f000e08f5200050032006fb39700868f5200d7
:101200000200310085037800e7b79f00efb2970036
:101210000006eb004fac9700850f5400010036002c
:1012200005065400680767002f003a008c0178001b
:1012300008c2b300cfb69700100037003d00900001
:101240000004b200040032001d0078000848780055
:10125000800ee800050037008d00780000022000b5
:10126000e2020700e10f400003003200bfb4970024
:101270008904e800b9b79f008c0178000c06e900ea
:10128000e08f5100edff3a00170037003d0090005d
:101290000004b200090032009d01780008017800c6
:1012a0003240780080497800830ee800020478001c
:1012b000e04f500008003a001000370008017800a5
:1012c0003200fb00020478008d007800c70207009e
:1012d000e10f4000090032003fb097000000e80035
:1012e000b0b79f00050037005fb49700efb49700d8
:1012f0007fb597008fbd9700cfb6970009007800a3
:101300008004e900e00f5000e0ff3a00d8b79f00ea
:10131000e9b79f00fab79f008bbf9f00e00f57000f
:10132000a602320011003700380090000004b2001d
:1013300004003200180078000d487800000ce80026
:10134000050037008800780000022000a70207008f
:10135000e10f400003003200bfb297008502e800b1
:10136000b5b79f000e067800020037000dc2b3002b
:101370004fb497000c07e900e00f5600eaff3a006f
:101380008e0237002fb3970046047800a6b79f005f
:10139000cfc4de00090578008a0578000802be0087
:1013a0000a03be004822de004828dd000402700067
:1013b000c4779f007006670009003200e04f5200ba
:1013c00007003200e14f420005003200d4779f0051
:1013d000e8779f0021002000e1b79f00030037005d
:1013e000d8779f0012002000e2b79f0053fb2f0028
:1013f00083814700d3b79f007cff370044fb2f0059
:1014000004824700d4b79f0015002000e5b79f0075
:1014100076ff37000e0cb3000e007800000cb2000f
:101420003b003a00e00f570005003d002fb0970049
:101430004005be004004be00a0b79f000f0037006b
:1014400070006700120032002fb297004401be0006
:10145000a4b79f00e29f9f00f39f9f00140090009d
:101460004f80de0080a79f0090a79f006f9c970091
:10147000ff9c97000fa597009fa59700d8b79f00e6
:10148000e9b79f00fab79f008bbf9f000b003700a2
:10149000afb4970049027800a9b79f000400780014
:1014a000cf80de000101780082017800d0b79f0074
:1014b000e1b79f00f2b79f0083bf9f005fb2970024
:1014c000efb297007fb397008fbb9700e00f5200f9
:1014d000e08f5a00e00f5b00e08f5b0032003d00c0
:1014e0003e00b3006022b8006033b8005fb49700dc
:1014f000efb497007fb597008fbd970008045200a6
:1015000089845a000a055b008b855b002200370046
:10151000e00f570005003d002fb297004401be00c8
:101520004400be00a4b79f000f00370070006700a2
:10153000120032002fb497004803be00a8b79f00e6
:10154000e6a79f00f7a79f008004eb0089af9f00ec
:101550000005eb009aaf9f006fa09700ffa09700d7
:101560000fa997009fa99700d0b79f00e1b79f00f0
:10157000f2b79f0083bf9f000b003700afb097000a
:1015800041027800a1b79f00040478000900200000
:101590000a0020000b002000d8b79f00e9b79f0089
:1015a000fab79f008bbf9f00efac9700e08f54000d
:1015b0000d003a001a002000eaaf9f005fb09700cc
:1015c000efb097007fb197008fb99700e00f500000
:1015d000e08f5800e00f5900e08f59000200320000
:1015e0008000eb00e1af9f000e017800020cb2001a
:1015f000b2af9f0005042000850f51003f0032006c
:1016000003003c00e00f5100080032005600370094
:1016100004082000bfa99700848f51001b003200ee
:10162000040c2000848f51004f003a0013c0b30017
:10163000c3779f0001de2000100037000200fb008e
:101640004300dd00008040003002be002003be00e9
:101650005fb49700efb497007fb597008fbd9700f8
:101660000440e10005c8e10006d0e10007d8e10030
:101670003d0039000241e800c2779f004f7197009a
:10168000f44f5100edff3a003700370013c0b300ac
:10169000c3779f0004012000050020006033b800dc
:1016a000120037005fb49700efb497007fb5970042
:1016b0008fbd97000440e10005c8e10006d0e100bd
:1016c00007d8e10028003900490020000402d000ba
:1016d0008582d2000683d2008783d2008904e90084
:1016e000faff3a000040e800c0779f004f70970073
:1016f000f04f5000ebff3a001b00370013c0b3005f
:10170000c3779f0084002000050020006033b800ec
:10171000120037005fb49700efb497007fb59700d1
:101720008fbd97000440e10005c8e10006d0e1004c
:1017300007d8e1000c003900390020000402d00075
:101740008582d2000683d2008783d2008904e90013
:10175000faff3a000040e800c0779f004f70970002
:10176000f54f5000ebff3a004f7597008a02fb00df
:10177000efad97008b8f520002003d00cb779f00aa
:10178000040037006fa89700850f500001003d004e
:10179000e5af9f00cfa89700e08f50000400320013
:1017a00063026700020032008100e900c1af9f00c0
:1017b0000400240004026700090032004fa99700ca
:1017c000efa99700830f510003003400030151007b
:1017d000c2af9f00020037000002eb00c4af9f00c1
:1017e0004f7397008602fb008003eb00a7af9f00ba
:1017f0004fac9700850f540002003400850254005e
:10180000a5af9f00640267004c003200e20267004f
:1018100061036700e08f52001b003200cfb49700d5
:10182000390290000404b2000900320099037800e4
:10183000b5c2b300e00f53000100320085c2e800da
:10184000854b78004fb59700070de8000a00370078
:10185000d5022000e00f530001003a008582e90024
:10186000cfb0970005007800600107000002780003
:10187000e10f420018003200bfb597008b05e80069
:10188000bbb79f0014003700e00f53001200320076
:101890004fb09700300290000404b20005003200ff
:1018a0009002780003c2b300834a78000508e8007c
:1018b00006003700cfb09700000220004b01070060
:1018c00000027800e10f420003003200bfb0970031
:1018d0008100e800b1b79f002fa99700e00f5100e9
:1018e0001101320008c3b300820678004fb697009a
:1018f0003c0090000004b200040032001c0078009c
:1019000008487800000ee800050037008c007800d9
:101910000003200035010700e10f40000300320002
:10192000bfb197008301e800b3b79f008d06e900bf
:10193000efff3a00adaf9f00fb0037002faa9700e2
:10194000e00f5200170032006802670015003a00ed
:1019500008c2b300afae97004fb697003c009000ae
:101960000004b200040032001c007800084878002f
:10197000000ee800050037008c007800000220000f
:101980001a010700e10f400003003200bfb29700c8
:101990008502e800b5b79f008d06e900efff3a0029
:1019a000adaf9f00e202670061036700e08f520065
:1019b0001c003200cfb39700370290000404b2003d
:1019c0000a0032000704780098037800b5c2b3001b
:1019d000e00f53000100320085c2e800854b78001b
:1019e000cfb49700870ce8000a003700d50220002a
:1019f000e00f530001003a008582e900cfb0970064
:101a000005007800f900070000027800e10f4200ad
:101a1000c50032003fb597000a05e800bab79f003d
:101a2000c1003700e00f5300bf003200cfb5970070
:101a30003b0290000404b200050032009b027800d3
:101a400003c2b300834a7800850de8000600370022
:101a5000cfb0970000022000e400070000027800e9
:101a6000e10f4200b00032003fb097000000e800f4
:101a7000b0b79f00ac0037000e07e900000420005b
:101a8000bfa89700808f50008200320003003c0006
:101a9000e08f5000080032008e0037000008200060
:101aa0003fa99700800f510065003200000c200014
:101ab000800f510087003a004370dd00cfa99700e6
:101ac000e08f51002a003d0004de200000004200ab
:101ad0003004be002005be00e8af9f00f9af9f00b4
:101ae0008ab79f009bb79f000802be000a03be0092
:101af0005fb09700efb097007fb197008fb9970064
:101b00002efb0700c0779f000004fb00cfc4de005f
:101b1000090578008a0578006faa9700ffaa970048
:101b20000fb397009fb397000800be000a01be00e4
:101b30008efb07000203be000002be005fb09700ec
:101b4000efb097007fb197008fb997000400500065
:101b5000858058000601590087815900d0b79f0041
:101b6000e1b79f00f2b79f0083bf9f0030003700ae
:101b7000df989700e08f50001f0032005fb697009b
:101b8000efb6970002de2000000041003004be00e6
:101b90002005be000801be000c00be009cfb070033
:101ba000c0779f000000fb00cf80de000801be0070
:101bb0006efa07000002560081825e00a4a79f0013
:101bc000b5a79f008002eb00c5a79f000003eb00b4
:101bd000d6a79f002fa49700bfa497004fa59700fa
:101be000dfa59700d8b79f00e9b79f00fab79f001d
:101bf0008bbf9f000e00370009de200069017800ce
:101c00005fb59700811f7800110009000285d80098
:101c1000cf007800a2002000811f78001100090089
:101c20000280d80001007800cf007800c0779f00c4
:101c3000cf7597000b43b000cb779f00250037008e
:101c400004e820004f989700e00f500001003a0090
:101c500014e920004270dd005fb49700efb49700f4
:101c60007fb597008fbd9700800278008502e9005c
:101c7000050033008b05d1000a85d3008984d30089
:101c80000884d300f9ff37006f00640064407800d7
:101c90000f0037006370b9005fb49700efb497008e
:101ca0007fb597008fbd9700000278000402e9001d
:101cb000050033008b05d1000a85d3008984d30049
:101cc0000884d300f9ff3700674064000043b00088
:101cd000c0779f00cfb29700350090000004b2009b
:101ce00007003200150178004f7097000049780016
:101cf000820ae800e04f500007003a001200370067
:101d00004f7397000600fb00cfb097003700070025
:101d1000e10f40000c003200bfb397008703e800da
:101d2000b7b79f000800370070046700d89f9f0076
:101d30008e0478000902b200c99f9f000e0578004a
:101d4000caaf9f006faf9700e00f57004aff3a00fd
:101d50004faf97006801670018003200afad9700e1
:101d6000e08f55001500340008c2b3008b067800e0
:101d70003fb797004fb697003c0090000004b200b8
:101d8000040032001c00780008487800000ee800cb
:101d9000050037008c0078000002200013000700c7
:101da000e10f4000010032000e07e8008d06e90057
:101db000f1ff3a000e007800b0b79f00dfa897004f
:101dc00091427800c5779f00e0cf52003afc3a007c
:101dd0003fb097004f0778004f06be004f05be008a
:101de0004f04be000f04b10000000600889fbe0033
:101df00001047800b8009000628160008084eb00ec
:101e00003c003200810178000320b20018019000ec
:101e100002003a00e00f510036003a000190a000a5
:101e20003104980080047800f90fb200e00f5100ef
:101e300002003a0028009000000c7800ea8f54005d
:101e400006003a00010078000008b20003003a00e2
:101e500088007800d0002000e4ff07001800900000
:101e6000d8009000810f50000b0032000000e80005
:101e7000100498001800780009487800000ce80069
:101e800010c0b30001ed200080487800ea8f5400b4
:101e900018003a00050037008800780009407800f3
:101ea0001700070080047800120037003800900007
:101eb0000010b2000f00320018019000a80090003e
:101ec000480090005000070098009000810f5000db
:101ed00004003200380090000003b3003004980082
:101ee0008084eb000000eb001004980028009000b4
:101ef000000c7800090078004f04be0000000600c6
:101f00000200fa00889fbe00a0ff9f000104780035
:101f100038009000800078000104b20033003a00dd
:101f2000e200600005003a000003b30030049800ae
:101f3000110498000080eb002e003700d8049000b8
:101f4000e08f540006003a0012002000e68057009f
:101f5000480090002c000700190498002300370067
:101f6000a8009000e08f500008003a0031ed2000fa
:101f700021049800010c78002100200051049800f1
:101f8000110498000030a00030049800180190005f
:101f9000a8009000480090001b0007002800900057
:101fa0008080eb0011049800aff89700014878009a
:101fb000000ce8002ff89700ea4f50000b003a00a1
:101fc000380090000010b2000800320018019000a4
:101fd000a8009000480090000b0007000000eb00f4
:101fe00010049800a8009000010c7800aff897004a
:101ff0000100fb004f04be000080fa000000060054
:1020000000c0da00000006000a00fa00e20f5000eb
:1020100021003e00206e8000e10f500006003200db
:1020200085232000442320002323200000232000b8
:10203000e08f520004003a00852220004422200054
:1020400023222000002220000600280090036300c5
:1020500002003a00870a7800100873000040200050
:102060001300600001003a0013a0a00002007800f5
:1020700006003700930278000510b200fdff320021
:10208000b102fb00050a78000000e900e00f5000f3
:10209000f8ff3a000800370033002000b3bf9f006c
:1020a000c0bf9f00d1bf9f00e2bf9f006a80570062
:1020b000d3ff07006fb99700020078000080fa0094
:0420c0000000060016
:020000040000fa
:0200000401f009
:04000c00fbff0000f6
:020000040000fa
:0200000401f009
:04001000fdff0000f0
:020000040000fa
:0200000401f009
:040014007fff00006a
:020000040000fa
:10000800900200009002000092860000988600008e
:100018009002000090020000900200009002000090
:100028009002000090020000900200008eb60000ce
:100038009002000090020000900200009002000070
:100048009002000090020000900200009002000060
:100058009002000090020000900200009002000050
:100068009002000090020000900200009002000040
:100078001cbb0000900200009002000090020000eb
:100088009002000090020000900200009002000020
:100098009002000090020000900200009002000010
:1000a8009002000090020000900200009002000000
:1000b80090020000900200009002000090020000f0
:1000c80090020000900200009002000090020000e0
:1000d80090020000900200009002000090020000d0
:1000e80090020000900200009002000090020000c0
:1000f80090020000900200009002000090020000b0
:10010800900200009002000090020000900200009f
:10011800900200009002000090020000900200008f
:10012800900200009002000090020000900200007f
:10013800900200009002000090020000900200006f
:10014800900200009002000090020000900200005f
:10015800900200009002000090020000900200004f
:10016800900200009002000090020000900200003f
:10017800900200009002000090020000900200002f
:10018800900200009002000090020000900200001f
:10019800900200009002000090020000900200000f
:1001a80090020000900200009002000090020000ff
:1001b80090020000900200009002000090020000ef
:1001c80090020000900200009002000090020000df
:1001d80090020000900200009002000090020000cf
:1001e80090020000900200009002000090020000bf
:0801f8009002000090020000db
:020000040000fa
:10020800900200009002000092860000988600008c
:10021800900200009002000090020000900200008e
:100228009002000090020000900200008eb60000cc
:10023800900200009002000090020000900200006e
:10024800900200009002000090020000900200005e
:10025800900200009002000090020000900200004e
:10026800900200009002000090020000900200003e
:100278001cbb0000900200009002000090020000e9
:10028800900200009002000090020000900200001e
:10029800900200009002000090020000900200000e
:1002a80090020000900200009002000090020000fe
:1002b80090020000900200009002000090020000ee
:1002c80090020000900200009002000090020000de
:1002d80090020000900200009002000090020000ce
:1002e80090020000900200009002000090020000be
:1002f80090020000900200009002000090020000ae
:10030800900200009002000090020000900200009d
:10031800900200009002000090020000900200008d
:10032800900200009002000090020000900200007d
:10033800900200009002000090020000900200006d
:10034800900200009002000090020000900200005d
:10035800900200009002000090020000900200004d
:10036800900200009002000090020000900200003d
:10037800900200009002000090020000900200002d
:10038800900200009002000090020000900200001d
:10039800900200009002000090020000900200000d
:1003a80090020000900200009002000090020000fd
:1003b80090020000900200009002000090020000ed
:1003c80090020000900200009002000090020000dd
:1003d80090020000900200009002000090020000cd
:1003e80090020000900200009002000090020000bd
:0803f8009002000090020000d9
:020000040000fa
:1020c4000d0a00000d0a0000000d00000a0d0000ba
:1020d4000a4d0000504600005302000001000000b9
:1020e400666f00006f740000657200002e690000c6
:1020f4006e63000000680000656100006465000014
:10210400722e0000696e000063000000214400008c
:102114004546000000470000455400000050000000
:102124004f530000540000006d70000066730000ff
:10213400757000006c6f00006164000000690000ad
:102144006e640000657800002e680000746d000065
:10215400000d00000a0d00000a33000030340000b6
:10216400205200006564000069720000656300008d
:10217400743a000020000000436f00006e740000f9
:10218400656e0000742d0000547900007065000035
:102194003a200000004300006f6e000074650000e8
:1021a4006e7400002d4500006e6300006f64000033
:1021b400696e0000673a0000206700007a69000039
:1021c400700d00000a000000436100006368000015
:1021d400652d0000436f00006e740000726f0000f4
:1021e4006c3a0000200000006e6f00002d630000b8
:1021f4006163000068650000006d00006178000004
:102204002d610000676500003d00000036300000cd
:102214003000000053650000742d0000436f00007f
:102224006f6b0000696500003a2000000074000034
:102234007874000000680000746d000000680000fd
:10224400746d00006c00000063670000690000000a
:10225400786d00006c0000006373000073000000e0
:102264006769000066000000706e000067000000ef
:102274006a70000067000000636c000061000000e9
:1022840077610000760000000000000000000000fc
:10229400199100001d910000219100002691000079
:1022a4002a9100002e910000329100003691000026
:1022b4003a9100003e9100004291000046910000d6
:1022c400436f00006f6b0000696500003a00000076
:1022d40041750000746800006f720000697a0000a4
:1022e40061740000696f00006e3a00000043000052
:1022f4006f6e0000746500006e7400002d4c0000c9
:10230400656e000067740000683a00000000000079
:10231400629100006a910000799100004854000025
:10232400545000002f3100002e31000020320000f4
:1023340030300000204f00004b0d00000a43000025
:102344006f6e00006e65000063740000696f00002a
:102354006e3a0000206300006c6f0000736500009b
:102364000d0a00000048000054540000502f0000e3
:10237400312e0000312000003430000030200000f5
:102384004261000064200000526500007175000085
:1023940065730000740d00000a4300006f6e0000b6
:1023a4006e65000063740000696f00006e3a0000ff
:1023b400206300006c6f0000736500000d0a0000cc
:1023c4000d0a00003430000030200000426100009b
:1023d4006420000052650000717500006573000000
:1023e400743a000020630000616e0000277400004e
:1023f40020680000616e0000646c0000652000002d
:10240400436f00006e740000656e0000742d0000c0
:102414004c6500006e670000746800000d0a00003f
:102424000048000054540000502f0000312e0000da
:10243400312000003430000031200000556e0000cf
:1024440061750000746800006f720000697a000012
:10245400656400000d0a000057570000572d000066
:102464004175000074680000656e00007469000026
:1024740063610000746500003a20000042610000be
:10248400736900006320000072650000616c000045
:102494006d3d000022500000726f00007465000062
:1024a4006374000065640000220d00000a4300000c
:1024b4006f6e00006e65000063740000696f0000b9
:1024c4006e3a0000206300006c6f0000736500002a
:1024d4000d0a00000d0a0000343000003120000015
:1024e400556e000061750000746800006f72000092
:1024f400697a0000656400003a2000005061000021
:1025040073730000776f0000726400002072000093
:10251400657100007569000072650000640d0000bb
:102524000a00000048540000545000002f310000fd
:102534002e3100002034000030340000204e000012
:102544006f740000206600006f7500006e64000068
:102554000d0a0000436f00006e6e0000656300000a
:10256400746900006f6e00003a200000636c000084
:102574006f730000650d00000a4300006f6e0000d9
:10258400746500006e7400002d5400007970000022
:10259400653a00002074000065780000742f000084
:1025a400687400006d6c00000d0a00000d0a000044
:1025b40034300000343a000020460000696c00000a
:1025c400652000006e6f000074200000666f00003c
:1025d400756e0000643c0000627200003e5500000d
:1025e40073650000203c0000612000006872000058
:1025f400656600003d2200002f6d0000706600003b
:1026040073750000706c00006f61000064220000ac
:102614003e4d00005046000053200000557000005d
:102624006c6f0000616400003c2f0000613e0000fc
:10263400207400006f200000707200006f670000bb
:10264400726100006d2000007765000062200000c8
:102654007061000067650000730d00000a0000004f
:1026640048540000545000002f3100002e31000067
:102674002034000031340000205200006571000055
:1026840075650000737400002d5500005249000068
:10269400205400006f6f0000204c00006f6e00009b
:1026a400670d00000a4300006f6e00006e650000b5
:1026b40063740000696f00006e3a0000206300003c
:1026c4006c6f0000736500000d0a00000d0a000025
:1026d40034310000342000005265000071750000a0
:1026e40065730000742d000055520000492000005d
:1026f400546f00006f2000004c6f00006e670000f4
:102704003a20000042750000666600006572000011
:10271400206f000076650000726600006c6f000098
:102724007720000064650000746500006374000095
:10273400656400000d0a00000048000054540000c5
:10274400502f0000312e00003120000035300000f1
:1027540030200000496e000074650000726e0000b5
:10276400616c000020530000657200007665000073
:102774007220000045720000726f0000720d0000ac
:102784000a4300006f6e00006e6500006374000071
:10279400696f00006e3a0000206300006c6f000057
:1027a400736500000d0a00000d0a000035300000ba
:1027b40030200000496e000074650000726e000055
:1027c400616c000020530000657200007665000013
:1027d4007220000045720000726f0000723a00001f
:1027e40020450000787000006563000074650000f7
:1027f400642000006461000074610000206e000029
:102804006f740000207000007265000073650000a2
:102814006e7400000d0a00000048000054540000cb
:10282400502f0000312e0000312000003530000010
:10283400312000004e6f000074200000496d00003c
:10284400706c0000656d0000656e0000746500002a
:10285400640d00000a4300006f6e00006e65000006
:1028640063740000696f00006e3a0000206300008a
:102874006c6f0000736500000d0a00000d0a000073
:1028840035300000312000004e6f0000742000003d
:10289400496d0000706c0000656d0000656e0000fd
:1028a40074650000643a0000204f00006e6c000064
:1028b400792000004745000054200000616e0000ac
:1028c40064200000504f00005354000020730000a7
:1028d40075700000706f0000727400006564000081
:1028e4000d0a00000048000054540000502f00005e
:1028f400312e000031200000323000003020000072
:102904004f4b00000d0a0000436f00006e6e000084
:1029140065630000746900006f6e00003a200000d7
:10292400636c00006f730000650d00000a43000033
:102934006f6e0000746500006e7400002d5400007a
:1029440079700000653a000020740000657800008a
:10295400742f0000687400006d6c00000d0a000004
:102964000d0a00003c680000746d00006c3e00001d
:102974003c6200006f640000792000007374000062
:10298400796c0000653d0000226d0000617200005a
:10299400676900006e3a00003130000030700000ba
:1029a400782200003e3c0000666f0000726d00005b
:1029b400206d000065740000686f0000643d000035
:1029c400706f0000737400002061000063740000e5
:1029d400696f00006e3d0000222f00006d70000042
:1029e40066730000757000006c6f00006164000085
:1029f40022200000656e00006374000079700000fe
:102a0400653d0000226d0000756c000074690000d3
:102a140070610000727400002f6600006f72000085
:102a24006d2d00006461000074610000223e00000e
:102a34003c6200003e4d0000504600005320000060
:102a4400496d0000616700006520000055700000ba
:102a54006c6f0000616400003c2f0000623e0000c7
:102a64003c7000003e3c0000696e00007075000080
:102a74007420000074790000706500003d66000059
:102a8400696c0000652000006e6100006d65000047
:102a94003d69000020730000697a0000653d000074
:102aa400343000003e200000266e000062730000f7
:102ab400703b0000203c0000696e0000707500004f
:102ac4007420000074790000706500003d730000fc
:102ad400756200006d6900007420000076610000da
:102ae4006c750000653d000022550000706c00000c
:102af4006f610000642200003e3c00002f6600006d
:102b04006f7200006d3e00003c2f0000626f0000f9
:102b1400647900003e3c00002f680000746d0000e2
:102b24006c3e0000000000004854000054500000b7
:102b34002f3100002e310000203200003030000020
:102b4400204f00004b0d00000a4300006f6e000090
:102b54006e65000063740000696f00006e3a000047
:102b6400206300006c6f0000736500000d0a000014
:102b7400436f00006e740000656e0000742d000049
:102b840054790000706500003a200000746500006c
:102b9400787400002f680000746d00006c0d000054
:102ba4000a0d00000a3c0000687400006d6c00000f
:102bb4003e3c0000626f0000647900002073000056
:102bc400747900006c6500003d2200006d61000016
:102bd40072670000696e00003a3100003030000076
:102be40070780000223e00003c6200003e4d000070
:102bf400504600005320000055700000646100003e
:102c040074650000205300007563000063650000d4
:102c140073730000667500006c3c00002f620000b6
:102c24003e3c0000703e00003c6100002068000053
:102c340072650000663d0000222f0000223e000065
:102c44005369000074650000206d00006169000094
:102c54006e20000070610000676500003c2f0000da
:102c6400613e00003c2f0000626f000064790000a8
:102c74003e3c00002f680000746d00006c3e0000b4
:102c84000048000054540000502f0000312e000072
:102c9400312000003530000030200000496e000073
:102ca40074650000726e0000616c00002053000027
:102cb4006572000076650000722000004572000015
:102cc400726f0000720d00000a4300006f6e000076
:102cd4006e65000063740000696f00006e3a0000c6
:102ce400206300006c6f0000736500000d0a000093
:102cf400436f00006e740000656e0000742d0000c8
:102d040054790000706500003a20000074650000ea
:102d1400787400002f680000746d00006c0d0000d2
:102d24000a0d00000a3c0000687400006d6c00008d
:102d34003e3c0000626f00006479000020730000d4
:102d4400747900006c6500003d2200006d61000094
:102d540072670000696e00003a31000030300000f4
:102d640070780000223e00003c6200003e4d0000ee
:102d74005046000053200000496d000061670000c8
:102d840065200000436f000072720000757000003f
:102d9400742000006f72000020570000726f000062
:102da4006e67000020560000657200007369000021
:102db4006f6e00003c2f0000623e00003c7000007b
:102dc4003e3c00006120000068720000656600005f
:102dd4003d2200002f6d0000706600007375000036
:102de400706c00006f610000642200003e5400001b
:102df400727900002061000067610000696e0000c4
:102e04003f3c00002f6100003e3c00002f620000a8
:102e14006f640000793e00003c2f000068740000dd
:102e24006d6c00003e000000485400005450000047
:102e34002f3100002e31000020330000303200001a
:102e4400204600006f7500006e6400000d0a00004b
:102e5400436f00006e6e000065630000746900003b
:102e64006f6e00003a200000636c00006f73000076
:102e7400650d00000a4c00006f63000061740000df
:102e8400696f00006e3a0000200000004854000002
:102e9400545000002f3100002e3100002034000077
:102ea40030330000204600006f72000062690000a9
:102eb40064640000656e00000d0a0000436f0000aa
:102ec4006e6e000065630000746900006f6e0000a0
:102ed4003a200000636c00006f730000650d000071
:102ee4000a0d00000a3400003033000020460000c0
:102ef4006f7200006269000064640000656e000087
:102f04003a200000535300004c200000526500009a
:102f1400717500006972000065640000202d0000d6
:102f24002075000073650000204800005454000020
:102f3400505300000d0a00000000000090910000b2
:102f440090910000b591000013920000949200004b
:102f5400329300009f9300000f94000075940000ca
:102f64009595000096950000439600001697000082
:102f7400489700000d0a0000007400006578000006
:102f8400742f0000706c0000616900006e00000086
:102f940074650000787400002f680000746d0000f0
:102fa4006c00000074650000787400002f78000045
:102fb4006d6c00000074000065780000742f000040
:102fc4006373000073000000696d00006167000016
:102fd400652f00006769000066000000696d00004d
:102fe40061670000652f0000706e0000670000003c
:102ff400696d000061670000652f00006a700000c1
:103004006567000000610000707000006c690000da
:1030140063610000746900006f6e00002f6a000095
:1030240061760000612d0000766d000000610000f3
:1030340075640000696f00002f7800002d77000090
:103044006176000065000000bf970000ca97000089
:10305400ca970000ca970000d4970000dd970000cb
:10306400e6970000f0970000fa970000059800002a
:1030740019980000959500004643000043000000a5
:103084000d0a000000450000766500006e74000023
:103094003a200000436f00006e6e0000656300007c
:1030a400746900006f6e000020540000656d00001c
:1030b400706f000072610000726900006c7900009a
:1030c400204c00006f730000742000002d2d0000c0
:1030d40020650000766500006e740000496e0000f3
:1030e400666f0000203d0000200000002564000001
:1030f4002c20000000450000766500006e7400007e
:103104003a200000436f00006e6e0000656300000b
:10311400746900006f6e00002046000061690000c1
:103124006c65000064200000202d00002d200000ac
:1031340065760000656e0000744900006e6600004c
:103144006f2000003d20000000450000766500006f
:103154006e7400003a200000436f00006e6e0000a1
:1031640065630000746900006f6e00002050000069
:10317400657200006d6100006e6500006e740000f1
:103184006c790000204c00006f7300007420000074
:103194002d2d000020650000766500006e7400008f
:1031a400496e0000666f0000203d00002000000012
:1031b4004d410000433a0000202000002020000080
:1031c40020200000202000002020000020200000fb
:1031d40020000000253000003258000020000000cc
:1031e4005365000063750000726900007479000083
:1031f4003a200000202000002020000020200000b1
:10320400200000004f700000656e00000d0a0000f1
:10321400002a00002a2a0000205700006946000006
:103224006920000054430000502f00004950000062
:1032340020440000656d00006f2000002a2a000071
:103244002a0d00000a00000053740000617200009f
:103254007420000057690000466900002043000004
:103264006f6e00006e650000637400000d0a0000bc
:10327400004400006f6d0000616900006e3a0000b8
:10328400202000002020000020200000202000003a
:10329400202000000053000053490000443a00007d
:1032a400202000002020000020200000202000001a
:1032b4002020000020200000002800006e6f000085
:1032c4006e650000290000004e6500007477000060
:1032d4006f7200006b2000005479000070650000dc
:1032e4003a2000002020000020000000496e000069
:1032f4006672000061730000747200007563000060
:1033040074750000726500000d0a0000005300008f
:10331400636100006e2000005479000070650000b5
:103324003a2000002020000020200000202000007f
:10333400004100006374000069760000652000000d
:1033440053630000616e00000d0a0000004300009a
:10335400686100006e6e0000656c0000204c000087
:1033640069730000743a000020200000202000004f
:1033740000250000640000002c2000000052000022
:103384006574000072790000204300006f7500002e
:103394006e7400003a20000020200000202000006d
:1033a400005200006574000072790000204600009d
:1033b4006f72000065760000657200000d0a00005f
:1033c4000042000065610000636f00006e20000091
:1033d400546900006d6500006f750000743a0000c8
:1033e4002020000000250000640d00000a000000f9
:1033f400506f0000776500007220000053610000e8
:10340400766500003a200000202000002020000003
:10341400200000004469000073610000626c000039
:10342400656400000d0a00000057000046200000fb
:10343400415300005345000052540000494f00001e
:103444004e2000006174000020000000257300007d
:1034540020200000004c0000696e00006520000080
:103464004e7500006d62000065720000203d000092
:103474002000000057690000466900002041000058
:1034840073730000657200007420000020200000a7
:10349400202000004d3a0000004d00006963000048
:1034a400726f0000636800006970000044650000ea
:1034b4006d6f000041500000004600006174000080
:1034c400616c000020450000727200006f72000001
:1034d4003a200000204d00007573000074200000a5
:1034e40064650000666900006e65000020610000ec
:1034f4006e20000053530000494400002066000081
:103504006f720000207400006869000073200000de
:10351400636f00006e66000069670000757200004a
:1035240061740000696f00006e0d00000a00000065
:103534004e5500004c4c000000570000465f000050
:103544004a4f0000494e00005f4600004149000018
:103554004c5500005245000000570000465f000033
:103564004155000054480000454e000054490000f5
:1035740043410000544900004f4e00005f460000e4
:10358400414900004c55000052450000005700001e
:10359400465f000041530000534f000043490000c0
:1035a40041540000494f00004e5f000046410000b6
:1035b400494c0000555200004500000057460000e9
:1035c4005f570000455000005f480000414e000076
:1035d40044530000484100004b4500005f46000092
:1035e400414900004c5500005245000000570000be
:1035f400465f0000505300004b5f00004341000051
:103604004c430000554c000041540000494f000059
:103614004e5f000046410000494c00005552000036
:1036240045000000574600005f500000534b000067
:103634005f480000414e0000445300004841000030
:103644004b4500005f460000414900004c55000016
:103654005245000000570000465f0000414400004e
:10366400484f0000435f00004a4f0000494e0000ed
:103674005f460000414900004c55000052450000df
:1036840000570000465f000053450000435500000a
:1036940052490000545900005f4d00004953000096
:1036a4004d41000054430000485f000046410000c3
:1036b400494c0000555200004500000057460000e8
:1036c4005f4e00004f5f0000535500004954000056
:1036d400414200004c4500005f410000505f000083
:1036e400464f0000554e0000445f00004641000074
:1036f400494c0000555200004500000057460000a8
:103704005f52000045540000525900005f4600001b
:103714004f52000045560000455200005f4e000025
:103724004f5400005f53000055500000504f0000fc
:1037340052540000454400005f4600004149000027
:103744004c5500005245000000570000465f000041
:103754004c4900004e4b00005f4c00004f530000ea
:103764005400000000570000465f00005253000060
:103774004e5f00004d49000058450000445f0000c2
:103784004d4f0000444500005f4e00004f540000c0
:103794005f53000055500000504f00005254000089
:1037a4004544000000570000465f000052450000f9
:1037b400435600005f44000045410000555400009a
:1037c40048000000574600005f52000045430000d7
:1037d400565f000044490000534100005353000069
:1037e4004f43000000570000465f000057500000a0
:1037f400535f000046410000494c00005552000050
:1038040045000000574600005f50000032500000a1
:103814005f460000414900004c550000524500003d
:1038240000570000465f00004c4900004e4b00006a
:103834005f4400004f5700004e0000004173000039
:10384400736f00006369000061740000696f000019
:103854006e20000046610000696c00007572000073
:1038640065000000574600005f420000454100002b
:10387400434f00004e5f0000544900004d450000d6
:103884004f55000054000000574600005f440000fc
:103894004541000055540000485f000052450000b7
:1038a400434500004956000045440000005700000d
:1038b400465f000044490000534100005353000098
:1038c4004f43000049410000544500005f5200008e
:1038d40045430000454900005645000044000000ef
:1038e400574600005f5400004b490000505f000041
:1038f4004d490000435f000046410000494c000070
:1039040055520000450000004d610000696e000042
:10391400446500006d6f00002e6300000057000036
:10392400465f0000436f00006e6600006967000098
:103934002e63000000570000465f00004569000048
:103944006e7400002e63000000570000465f000004
:1039540053700000692e0000630000005746000009
:103964004d610000632e0000630000005746000014
:1039740050610000726100006d4d0000736700002b
:103984002e63000000570000464300006f6e0000e5
:103994006e65000063740000696f00006e500000e3
:1039a400726f0000666900006c6500002e63000001
:1039b40000570000464300006f6e00006e65000073
:1039c40063740000696f00006e4100006c670000c2
:1039d4006f72000069740000686d00002e630000bf
:1039e40000570000464300006f6e00006e65000043
:1039f40063740000696f00006e4d0000616e00008a
:103a040061670000657200002e630000005700002b
:103a140046440000726900007665000072430000ad
:103a24006f6d00002e63000000570000464900003f
:103a34006e690000742e0000630000005746000009
:103a44004472000069760000657200005261000053
:103a5400772e000063000000574600004d67000009
:103a64006d7400004d730000672e000063000000b9
:103a7400574600004d6700006d7400004d73000050
:103a84006754000065730000742e0000630000009a
:103a94005746000054780000506f0000776500001e
:103aa400722e00006300000057460000506f0000b3
:103ab400776500007253000061760000652e0000f7
:103ac400630000005746000045760000656e000064
:103ad40074480000616e0000646c000065720000b0
:103ae4002e6300000057000046530000636100008d
:103af4006e2e000063000000574600004461000081
:103b040074610000547800005278000000490000fd
:103b1400706500007266000041700000702e0000a5
:103b24006300000057460000486f000073740000f3
:103b34004272000069640000676500002e630000a3
:103b440000570000465f00006970000065720000c5
:103b5400664300006c690000656e0000742e00006e
:103b640063000000574600005f69000070650000b4
:103b740072660000536500007276000065720000f2
:103b84002e63000000570000465f000069700000cb
:103b940065720000664300006f6d00006d6f0000e9
:103ba4006e2e000063000000010200000304000008
:103bb4000506000007080000090a00000b000000c9
:103bc4000d0a00000d0a00000d4d0000696300009d
:103bd400726f0000636800006970000020540000e8
:103be400435000002f49000050200000436f0000a4
:103bf4006e660000696700002041000070700000dc
:103c04006c69000063610000746900006f6e00005d
:103c140020280000763500002e340000322c0000ed
:103c2400204f0000637400002031000039200000a0
:103c34003230000031320000290d00000a0d00006e
:103c44000a000000093100003a2000004368000027
:103c5400616e00006765000020730000657200005b
:103c6400696100006c2000006e7500006d62000048
:103c7400657200003a090000090000000d0a000006
:103c8400093200003a20000043680000616e000021
:103c940067650000206800006f7300007420000056
:103ca4006e6100006d6500003a090000090900001a
:103cb400000d00000a090000333a00002043000010
:103cc400686100006e6700006520000073740000e6
:103cd4006174000069630000204900005020000066
:103ce400616400006472000065730000733a0000b0
:103cf40009090000000d00000a090000343a000020
:103d040020430000686100006e6700006520000029
:103d14007374000061740000696300002067000090
:103d24006174000065770000617900002061000083
:103d34006464000072650000737300003a090000b7
:103d4400000d00000a090000353a0000204300007d
:103d5400686100006e670000652000007374000055
:103d64006174000069630000207300007562000044
:103d74006e650000742000006d610000736b00002c
:103d84003a090000090000000d0a0000093600008d
:103d94003a20000043680000616e0000676500007f
:103da4002073000074610000746900006320000047
:103db40070720000696d00006172000079200000db
:103dc400444e00005320000073650000727600002a
:103dd400657200003a090000000d00000a090000a5
:103de400373a000020430000686100006e6700005d
:103df40065200000737400006174000069630000b2
:103e040020730000656300006f6e000064610000b1
:103e140072790000204400004e530000207300001b
:103e24006572000076650000723a00000900000027
:103e34000d0a0000093800003a2000000044000088
:103e440069730000004500006e000000616200001c
:103e54006c6500002044000048430000502000002e
:103e64002620000049500000204700006c65000037
:103e7400616e0000696e0000673a000009090000e5
:103e840044480000435000002069000073200000f3
:103e94006375000072720000656e0000746c0000af
:103ea40079200000006500006e610000626c000073
:103eb4006564000000640000697300006162000032
:103ec4006c650000640000000d0a00000939000060
:103ed4003a200000446f0000776e00006c6f000011
:103ee40061640000204d0000504600005320000093
:103ef400696d000061670000652e0000000d000080
:103f04000a090000303a00002053000061760000e6
:103f1400652000002620000051750000697400002f
:103f24002e0000000d0a0000456e000074650000bc
:103f340072200000612000006d6500006e750000b5
:103f440020630000686f000069630000653a0000a8
:103f5400200000000d0a0000004e000065770000fc
:103f64002073000065740000746900006e6700002f
:103f74003a200000004900006e760000616c0000e9
:103f840069640000206900006e7000007574000010
:103f94002e0d00000a000000536500007474000038
:103fa400696e0000677300002073000061760000f2
:103fb400656400002e0d00000a0000006c63000020
:103fc400640000002f6600006f7200006d73000033
:103fd4002e680000746d0000000d00000a0000004f
:103fe4000d0a00000d0a00000069000070000000c6
:103ff4006777000000730000756200000064000031
:104004006e73000031000000646e00007332000023
:10401400006d000061630000006800006f73000021
:10402400740000006468000063700000002f00004a
:10403400707200006f74000065630000742f00004c
:1040440072650000626f00006f7400002e6800004b
:10405400746d00003f0000002f700000726f0000bc
:1040640074650000637400002f6300006f6e00002d
:1040740066690000672e0000687400006d0000008f
:10408400707200006f74000065630000740000002b
:10409400736e00006d70000000610000646d00002c
:1040a400696e0000006d000069630000726f00001b
:1040b4006368000069700000006600006f72000011
:1040c4006d7300002e680000746d0000006c000029
:1040d40065640000340000006c6500006433000077
:1040e400006c000065640000320000006c65000094
:1040f40064310000006300006f6f00006b69000012
:10410400657300002e680000746d0000006c0000f0
:1041140065640000732e00006367000069000000fe
:104124006c65000064000000757000006c6f000096
:10413400616400002e680000746d000000700000cf
:10414400726f000074650000637400002f63000048
:104154006f6e000066690000672e0000687400003e
:104164006d0000004f63000074200000313900002e
:1041740020320000303100003220000030300000d6
:104184003a300000383a0000303000000076000079
:10419400352e00003432000000530000454c00006e
:1041a4004543000054450000440000003c62000008
:1041b400722000002f3e0000002600006e62000006
:1041c400737000003b0000006e6100006d6500002c
:1041d40000480000656c00006c6f00002c2000009b
:1041e400006e00006f74000020730000657400000e
:1041f400003c0000623e0000557000006c6f00003f
:10420400616400002061000020460000696c000029
:10421400653c00002f6200003e0000003c6200008c
:104224003e550000706c00006f6100006465000082
:1042340064200000466900006c65000027730000dc
:10424400204d000044350000207700006173000019
:104254003a3c00002f6200003e3c00006272000005
:10426400202f00003e00000063680000656300002a
:104274006b6500006400000066610000696c00006a
:10428400005400006865000020440000796e0000be
:10429400616d000069630000204400004e5300007b
:1042a400204300006c690000656e0000742000006b
:1042b40069730000206e00006f7400002065000028
:1042c4006e610000626c0000656400002e00000056
:1042d4006e6f00006e650000006200006c6f0000ed
:1042e400636b00000075000070000000646e000045
:1042f4000000000078a400006ad7000056b7000050
:10430400c7e80000db70000020240000eece0000af
:10431400bdc10000af0f00007cf500002ac60000fc
:10432400874700001346000030a8000001950000f4
:1043340046fd0000d898000080690000aff7000037
:10434400448b0000b15b0000ffff0000bed70000fb
:104354005c89000022110000906b00009371000042
:1043640098fd00008e43000079a60000210800009b
:10437400b4490000622500001ef6000040b30000ae
:1043840040c00000515a00005e260000aac7000089
:10439400b6e900005d1000002fd6000053140000a1
:1043a4004402000081e60000a1d80000c8fb000020
:1043b400d3e70000e6cd0000e1210000d6070000ad
:1043c40037c30000870d0000d5f40000ed14000091
:1043d4005a45000005e90000e3a90000f8a3000025
:1043e400effc0000d90200006f6700008a4c000057
:1043f4002a8d000042390000faff000081f6000017
:1044040071870000226100009d6d00000c380000df
:10441400e5fd000044ea0000bea40000a9cf0000ae
:10442400de4b0000604b0000bbf6000070bc0000d7
:10443400bfbe0000c67e00009b280000fa270000d3
:10444400a1ea000085300000efd40000051d000043
:104454008804000039d00000d4d90000e599000098
:10446400dbe60000f87c0000a21f00006556000097
:10447400acc400004422000029f4000097ff0000af
:104484002a430000a723000094ab000039a00000d9
:1044940093fc0000c35900005b65000092cc00004f
:1044a4000c8f00007df40000efff0000d15d0000e0
:1044b400848500004f7e0000a86f0000e0e6000045
:1044c4002cfe00001443000001a30000a111000011
:1044d400084e0000827e000053f7000035f2000011
:1044e4003abd0000bbd20000d72a000091d30000df
:1044f40086eb0000070c000011160000070c0000fa
:1045040011160000070c000011160000070c000033
:1045140011160000050900000e1400000509000032
:104524000e140000050900000e1400000509000027
:104534000e140000040b000010170000040b000010
:1045440010170000040b000010170000040b0000fb
:1045540010170000060a00000f150000060a0000ec
:104564000f150000060a00000f150000060a0000df
:104574000f1500004d43000048500000424f00005a
:1045840041520000440000004d69000063720000c5
:104594006f6300006869000070440000656d0000ee
:1045a4006f410000500000005443000050530000cd
:1045b40074610000636b000020760000352e00005b
:1045c40034320000202000002020000020200000c1
:1045d40020200000202000002020000020200000d7
:1045e4002020000020200000000d00000a0d000023
:1045f4000a42000055540000544f00004e300000a1
:1046040020680000656c000064200000666f0000f4
:10461400722000006d6f00007265000020740000bd
:10462400686100006e200000342000007365000003
:10463400636f00006e640000732e000020200000f1
:104644004465000066610000756c00007420000081
:104654007365000074740000696e000067730000e5
:104664002072000065730000746f00007265000022
:10467400642e00000d0a00000d0a0000000d000069
:104684000a4e000065770000204900005020000019
:10469400416400006472000065730000733a000016
:1046a400200000000d0a00000001000002030000c9
:1046b4000405000006070000080900000a0b0000ba
:1046c40000040000a3000000000000006865000072
:1046d4006c700000004c00006973000074730000eb
:1046e400206100006c6c0000206300006f6d00000e
:1046f4006d6100006e6400007300000067650000d7
:1047040074770000667600006572000000470000c0
:1047140065740000732000005769000046690000ba
:1047240020640000657600006963000065200000d5
:104734007665000072730000696f00006e0000006f
:10474400726500007365000074000000526500008b
:104754007365000074200000686f0000737400002b
:10476400204d000043550000006300006c730000fe
:10477400004300006c6500006172000073200000bb
:104784007363000072650000656e00000073000032
:1047940065650000206400006f630000756d000013
:1047a400656e000074610000746900006f6e0000a3
:1047b40000700000696e000067000000706900006e
:1047c4006e67000020310000393200002e310000f5
:1047d400363800002e3100002e31000000000000a9
:1047e40068a300006da300000200000080a3000085
:1047f40089a3000001000000a2a30000a8a30000f8
:1048040001000000b7a30000bba3000001000000ea
:10481400dba30000e0a3000001000000050000008d
:1048240044690000736300006f6e00006e65000051
:104834006374000020660000616900006c6500007c
:10484400642e00002044000069730000636f0000c0
:104854006e6e000065630000742000006973000040
:10486400206100006c6c00006f770000656400003c
:10487400206f00006e6c0000792000007768000053
:10488400656e0000206d00006f640000756c000010
:104894006520000069730000206900006e2000009c
:1048a400636f00006e6e00006563000074650000b5
:1048b400642000007374000061740000650d000042
:1048c4000a0000004e6f000020730000746f0000a7
:1048d400726500006420000073630000616e0000d4
:1048e4002072000065730000756c00007473000092
:1048f4000d0a00000000000045760000656e00000f
:10490400743a0000204300006f6e00006e650000e2
:1049140063740000696f00006e200000537500008e
:10492400636300006573000073660000756c00002b
:104934000d0a000000450000766500006e7400005a
:104944003a200000436f00006e6e000065630000b3
:10495400746900006f6e000020520000656500005d
:1049640073740000616200006c69000073680000e9
:10497400656400000d0a0000004500007665000033
:104984006e7400003a20000053630000616e000062
:104994002052000065730000756c00007473000001
:1049a4002052000065610000647900002c000000c2
:1049b400202500006400000072650000737500008b
:1049c4006c740000730d00000a0000003a2000001f
:1049d400576500002061000072650000206300003c
:1049e40075720000726500006e7400006c7900003e
:1049f40020610000636800006965000076690000ba
:104a04006e6700002000000020200000202000002d
:104a14002020000020000000303000002062000050
:104a240079740000657300002f7300006563000053
:104a34006f6e0000642000005458000020740000d1
:104a4400687200006f7500006768000070750000f0
:104a5400742e00000d0a000000200000627900009e
:104a640074650000732f000073650000636f00001d
:104a74006e6400000d0a0000000000000d0a000032
:104a840044480000435000002f5000006f7700009e
:104a94006572000020650000766500006e740000f9
:104aa400206f0000636300007572000072650000ef
:104ab40064000000444800004350000020630000ec
:104ac4006c690000656e00007420000073750000be
:104ad400636300006573000073660000756c00007a
:104ae4000d0a000000000000426f00006f74000017
:104af4006c6f0000616400006572000020520000c9
:104b040065730000657400000000000005000000eb
:104b1400c80000000100000008000000e8030000d5
:104b2400e803000008000000e8030000e8030000b8
:104b34004d50000046530000020100000000000038
:104b440000040000a3000000000000003078000012
:0c4b540000000000010100000100000052
:020000040000fa
:104b600080407800c8cdbf00814f5000180032004f
:104b7000e24f400008003200e2c1b3000440bc0034
:104b80006384200003004100028020001d00090012
:104b900032587800e001b1008000fd00c8edb70098
:104ba0008000fd00e2cf40000900320001407800a3
:104bb000e2c1b3000440bc006084200080004100da
:104bc000028020001d00090031597800e101b10088
:104bd00000000600889fbe008a1f7800000478004d
:104be000814278008204780004057800e0cf51000b
:104bf00015003200e1cf510029003a00e0cf520009
:104c000007003200e1cf520025003a000a01780087
:104c10000800be00ae0602000000000020003700c1
:104c2000e10f440003003200080078004a600200ef
:104c3000000000008a007800090078007e6202000f
:104c40000000000016003700e0cf52000c003200d8
:104c5000e1cf520012003a00e18f4400030032001d
:104c6000090078005a600200000000008a00780005
:104c7000080078001e6202000000000008003700f3
:104c80000a0178000800be006a600200000000000f
:104c9000fc61020000000000e00f5000fcff320049
:104ca0004f0578004f04be0000000600c9cdbf00cc
:104cb00081dc200091407800814f500017003200c5
:104cc000e24f40000b003200e2c1b3000440bc00e0
:104cd000fc02410061842000610079008002b10083
:104ce0008402200013c0b300e2812000e1c07a00fa
:104cf000b8ff0700c8cdbf00c9edb7000240800073
:104d00008202b10084022000c38120009341780018
:104d100011c0b300e0812000aeff070000000600d4
:104d2000881f78000004780018007800467d020093
:104d300000000000000c780018009000467d020082
:104d4000000000001004980028009000b8009000b7
:104d50004e7d0200000000002004980031049800fd
:104d600048009000d80090004e7d02000000000036
:104d7000400498005104980078009000467d02009d
:104d8000000000007004980008089000467d0200b2
:104d900000000000000c980018089000467d0200fa
:104da00000000000100c98004f047800000006007e
:104db0002600fa00889fbe008a1f78008044780091
:104dc00001457800b9ff07006180640002003200ed
:104dd0001968a8000904a10018a8a90018c8a9000a
:104de00018e8a9001928a9001948a9001908a9005c
:104df000e85e020000000000e00f5000fcff3200ff
:104e00006684640054003a003040800052418000c3
:104e1000820f5000430032001300360081418000b1
:104e200002045000810f5400010036000104780094
:104e300010428000800f5400020036001948a8007c
:104e40000004780008027800c381200093417800b4
:104e50008040eb00e00921005eff070008007800b9
:104e60002a28b4002f0037001140800082815000b2
:104e7000a3b79f0008408000088451008141800052
:104e800000044400810f5400010036000104780042
:104e900010428000800f5400020036001948a8001c
:104ea00000047800888f510001003600a8b79f00e9
:104eb0002fb29700c3812000934178008040eb001f
:104ec000e009210043ff07002fb2970004025400bd
:104ed000a4b79f0009003200e00921000208b400d5
:104ee0005141800001005000c381200093417800af
:104ef000024080008040eb0036ff070050418000f8
:104f0000000044005041880011408000810f500093
:104f10000400390002408000810051000080400000
:104f20005041880000802000c14080000080600067
:104f30000700320080418000800f540004003200de
:104f400010428000800f5400010032000904a000cc
:104f5000e00f540003003a00638064001700320041
:104f60000004eb00080078003028b500e00f540082
:104f7000010032000934a00061056500050032001f
:104f80004468ef00a1252600f140880021002000a0
:104f90000141880030b6020000000000f2408000ad
:104fa0000341800000024100818249007440880072
:104fb000854088001888a800290037000a85fb0072
:104fc00062006500c84080000e0032000840e80022
:104fd0006700600081ff2f0001046400000474007a
:104fe000c8408800104180002141800061005000cd
:104ff000e0805800104188002141880018002000fe
:105000001700370070046400150032006105650068
:105010000a003a0044c8bf00080032000040e9001e
:1050200044e8b700f0408000014180008100d100d9
:105030000080d300f04088000141880030b60200b3
:1050400000000000f24080000341800000024100a7
:105050008182490074408800854088000004eb008c
:1050600075418000b5b79f0060418000c0b79f00c8
:105070001041800021418000d0b79f00e1b79f0020
:105080003241800043418000f2b79f0083bf9f0000
:105090009fb99700f2ff23000281610003ff2f00f8
:1050a0000301610092bf9f00b9f79f000001eb0070
:1050b000c2bf9f0008014000e08148001241880003
:1050c000234188008984fb0062856400110032005e
:1050d0007082640003003a006022b800f4b79f00b9
:1050e00085bf9f004028ab000500320061005000e2
:1050f000e0805800d0b79f00e1b79f00050037005f
:1051000061024100e0824900144188002541880085
:105110004028a800e1846400010032004008a80093
:105120005040800061408000810f50000500390030
:105130002240800082804000124080008280500027
:10514000010037008100e90000805000a0bf9f00ef
:10515000245f020000000000f1032000810f5000d6
:1051600003003e008002eb00a5af9f000300370064
:1051700001fc2f0081004000a1af9f002fa89700e5
:10518000afb89700808f500001003600a0bf9f008d
:105190007a805700e2fe0700f40444001fb897002d
:1051a000f2f02f00020060000005b30090bf9f00e6
:1051b000e00f55000a003200f804440021c0b3009b
:1051c000e1d79f0041c0b300f1d79f0021802100ab
:1051d000c1af9f00020060000006b30090bf9f00b7
:1051e000b4c9bf000080fb00519b200091407800b3
:1051f000c808dd0000827000b6c9bf000080fb0057
:10520000719b200091407800c808dd00808270000a
:10521000d4af9f00e5af9f00a2418000b341800062
:10522000f2af9f0083b79f000040eb00a0e79f0014
:1052300068c0b300b8e79f00a9b79f0009007800d5
:10524000467d020000000000a0b79f00c1002000c2
:10525000a0fd2f000f004000787d0200000000003c
:10526000000078000080ea008180ea00b0bf9f0063
:10527000600721004a600200000000000901780078
:1052800088407800408320006eae020000000000dd
:10529000410120007a8057007e6202000000000079
:1052a000e00f5500050032004100200060fd2f0096
:1052b0000f0040007e62020000000000a0082100f4
:1052c0005a6002000000000009007800f662020047
:1052d00000000000a0af9f00a00921004a6002006a
:1052e000000000002100200040fd2f000f004000c2
:1052f0007e62020000000000ea5f02000000000081
:105300004f0578004f04be000080fa000000060040
:10531000889fbe008a9fbe008c1f780080047800a2
:105320000104780019009000e00f5000980032004e
:10533000184178008280fb00184690004866dd0026
:1053400001067600284190000281fb00b8409000e1
:10535000c808dd008280700001064600190646007c
:1053600000066e00ebcfb3000045eb000a4078006a
:10537000fbfd0700b1408000ed8f5000220032009d
:10538000d0408000e48f500004003a009900900063
:10539000810f50001c003a001a0037008c0f50009b
:1053a00019003a0041fe070099009000704180000a
:1053b000808f500014003a0060418000990f100067
:1053c00011003a00984178000380fb00984090005b
:1053d000c808dd0000817000284090000080fb00bc
:1053e000b8409000c808dd0080817000a4418000b2
:1053f000b5418000840f5100858f590002003a00aa
:10540000620037008a4578000a45e800e24f5500ff
:10541000d6ff3600e2cf45000f0032000b40780087
:10542000cffd070021fe0700dc40880040832000fc
:105430000900090038587800a800b10099007800e8
:105440006141880099049000794188000008f800c3
:105450002a08f9004d003700690090000020b200d2
:105460004b003200cb4680000000eb00808f5500df
:1054700047003a00028a20007458b90000057800fd
:105480007000450062007800e00f500002003a0012
:105490000045eb001900370099009000810f500083
:1054a00012003a006a00450062007800990f50002f
:1054b0000e003a008a014100184078000082fb008b
:1054c00098429000c82add000480720028429000b3
:1054d0000482fb00b8429000c82add00848072007c
:1054e000b30f1000a38f18001e0032008b05e800d8
:1054f000e28f5500e0ff3600e5ff37000a407800f4
:1055000097fd07001868ab001b003200e7fd07009d
:105510001900900071418000808f500016003a0001
:10552000745db900008a20000a00400009000900eb
:1055300038587800a000b100a800b100a08a20006f
:1055400019307d000080e8000a0040002901900029
:10555000b90190000288be00008b200099049000e1
:1055600009307d0038b6020000000000228b2000c8
:1055700000317d00030037000a45e800e24f550086
:10558000deff36000000eb000100370010002000b5
:105590004f0678004f05be004f04be000000060015
:1055a0000200fa00889fbe00c0002000f6ae020094
:1055b00000000000fe61020000000000000fb200c9
:1055c0004204de0074445400802120003700320081
:1055d000710020000000eb001e62020000000000cd
:1055e0002f003700fe61020000000000e04f500075
:1055f0002d0032000844e900e14f5000280032003d
:10560000e24f50001a003a0080212000e24f54007f
:10561000260036000000eb00d0bf9f00fe610200b4
:1056200000000000e44f500006003a00fe61020056
:1056300000000000b0ff9f00fe61020000000000bb
:10564000a0ff9f00dfb8970080212000722120007a
:10565000828f50001500360001007800415b200069
:10566000810f500011003600010078000f00370054
:10567000e14f54000c003600fe6102000000000003
:1056800080447800894f5400070039008980fb006e
:105690000000eb001e6202000000000009445400fc
:1056a000e04f5400cfff3a00802120004f04be009d
:1056b0000080fa00000006007cfd07002e08f800bc
:1056c0001a08f900004080003040880040408800ff
:1056d000114080005140880061408800c240800035
:1056e00068016100d100200001003200410020006b
:1056f000b14088001808a9001828a9001848a90076
:105700001888a90018a8a90018c8a90018e8a900b5
:105710001908a9001928a9001948a9001968a900a1
:105720001988a8004008a9004028a9004068a900dd
:105730004088a90050418800e6790200000000007e
:1057400010418800e6790200000000002041880036
:105750003ea8ef00100020008041880000000600f5
:10576000f4874700889fbe008a9fbe008c9fbe00c2
:105770008e1f7800b0b79f00e1b79f00504c90009b
:105780008000780041009000d1009000f0b79f00a9
:1057900081bf9f00bfb1970023019000b30190002b
:1057a00092b79f00a3b79f001808a9001828a90066
:1057b0001848a9001888ab0008003a0030b602006b
:1057c0000000000046782d00770120000002430011
:1057d00081824b007440880085408800b64080007c
:1057e0000884fb00d8b79f00e40f53000300320089
:1057f000e50f530052003a0018003700dfb297005f
:10580000e48062009f023a005fb59700f0016500f6
:10581000060032007fb197008fb9970012418800cf
:10582000234188000640780095023700dfb19700d9
:10583000e2826100930232001fb29700afb297007c
:1058400061024200e0824a003441880045418800fc
:1058500053ff07001042880033003700dfb2970083
:10586000e48062008c023a00708562000f00320012
:1058700018418000294180007fb097008fb89700c1
:10588000880f5000898f58000800320010418800ae
:105890002141880011c0b30040c0b30044fd07009f
:1058a00018418800294188007b023700dfb097004b
:1058b000e2826000780232001fb19700afb197001a
:1058c00061014100e0814900324188004341880084
:1058d000bfb19700f30190008341880030ff0700bb
:1058e00010428800e00f55000f00320011c0b300d5
:1058f00000c1b3002efd070070002000b0408800fa
:1059000030b602000000000042782d007301200034
:10591000000241008182490074408800854088006f
:105920001888a9005c02370011c0b30020c1b30081
:105930001ffd070060002000b040880056023700bd
:10594000dfb29700e182620085b79f000400320059
:105950006fb597000a05e800cab79f00020037003c
:10596000efb59700cbb79f005fb09700e2016000f2
:1059700003003200cfb097008100e800c1b79f005c
:105980005340800068408000888f51000600390035
:10599000274080008703440019408000898353001a
:1059a00003845300020037000804e9000304540094
:1059b0003a4180004b4180001fb19700afb1970082
:1059c0000a0551008b8559000a077800cfb197006e
:1059d000e08f510020003200e00f54002b00320015
:1059e000e00f5500e08f5d00050035006146b8000e
:1059f000190020008a0f56008b8f5e000d003e00bc
:105a00004fb2970004064500e0864d008004eb008d
:105a10004240a9000700340004065400cfe6de002f
:105a2000190020008c0f55008d8f5d00010034009f
:105a30008004eb006146b8008c0f55008d8f5d002f
:105a400010003d00cfb297008e8342004240a90073
:105a500012003c000b003700e00f5500e08f5d00a6
:105a60000e003200e00f5500e08f5d0007003500aa
:105a70006146b8008a0f56008b8f5e0007003e001b
