:0400000080310D2816
:10000800803120007F08ED008C3190246D08FF00BE
:100018000900813106298D31302D8D31312D8D31F9
:10002800322D8D31462D8D31462D8D31462D8D3118
:10003800462D8D31462D8D31462D8D31462D8D31F4
:10004800462D8D31462D8D31462D8D31462D8D31E4
:10005800462D8D31462D8D31462D8D31462D8D31D4
:10006800462D8D31462D8D31462D8D31462D8D31C4
:10007800462D8D31462D8D31462D8D31462D8D31B4
:10008800462D8D31462D8D31462D8D31462D8D31A4
:10009800462D8D31462D8D31462D8D31462D8D3194
:1000A800462D8D31462D8D31462D8D31462D8D3184
:1000B800462D8D31462D8D31462D8D31462D8D3174
:1000C800462D8D31462D8D31462D8D31462D8D3164
:1000D800462D8D31462D8D31462D8D31462D8D3154
:1000E800462D8D31462D8D31462D8D31462D8D3144
:1000F800462D8D31462D8D31462D8D31462D8D3134
:10010800462D8D31462D8D31462D8D31462D8D3123
:10011800462D8D31462D8D31462D8D31462D8D3113
:10012800462D8D31462D8D31462D8D31462D8D3103
:10013800462D8D31462D8D31462D8D31462D8D31F3
:10014800462D8D31462D8D31462D8D31462D8D31E3
:10015800462D8D31462D8D31462D8D31462D8D31D3
:10016800462D8D31462D8D31462D8D31462D8D31C3
:10017800462D8D31462D8D31462D8D31462D8D31B3
:10018800462D8D31462D8D31462D8D31462D8D31A3
:10019800462D8D31462D8D31462D8D31462D8D3193
:1001A800462D8D31462D8D31462D8D31462D8D3183
:1001B800462D8D31462D8D31462D8D31462D8D3173
:1001C800462D8D31462D8D31462D8D31462D8D3163
:1001D800462D8D31462D8D31462D8D31462D8D3153
:0A01E8002C2D8D312E2D8D312D2D83
:10020000002981318207032986316E2E5030840007
:10021000003085000F308631B3268131A030840054
:100220000030850043308631B32681316030840050
:100230000130850007308631B32681312000202926
:100240008822813197228131272181312429082276
:10025000813120008C192E29DB21813120302000B2
:100260005402031C08003D008E180800BE21813195
:10027000510B3B290800EC08031D4F2920008C1965
:100280004D292100D308031D4D29D301D30A6D0840
:10029000003A003003190130ED008531042D6C085F
:1002A000023A031955296C0B080012112B08AD00F6
:1002B0002A08AC00121520008C19BA292100D30895
:1002C000031DBA29D301D30AD001D00AD2011211D9
:1002D000AA01AB011215AC01AD012200E001E10160
:1002E00021000C30CF01CF0AD40A5402031C7A2912
:1002F000D401D40A6030B4000930B500DC30C0004D
:100300000530C1003508B7003408B6009030B60794
:100310000130B73D4108C3004008C2007030C20739
:10032000FE30C33D3508B9003408B8001830B807AE
:10033000FC30B93D4108C5004008C400E030C407A6
:10034000FC30C53D3508AF003408AE004108BB00A5
:100350004008BA003708B1003608B0004308BD00B5
:100360004208BC003908B3003808B2004508BF0095
:100370004408BE002100500B0800B02A20008C1950
:10038000C5292100A801A901CD298C1DCD29210055
:10039000530BCD29A80A0319A90A2100530B080001
:1003A0002908033AE83003192806031D0800A801AC
:1003B000A901D3010800520B08002100550B0800C9
:1003C0001211072281313D008E102100D50110301D
:1003D000A6000E30A7000130A6020030A73B270878
:1003E0002604031DEB293D000E1508302100A60050
:1003F0000730A7000130A6020030A73B27082604DB
:10040000031DFA293D000E112100121508000800F5
:100410003D008E1C282A200051085004031D132A79
:100420000530D000D1010130D0020030D13B220094
:100430000E118E11200051085004031D08002200E7
:100440000E158E150000000022000E118E110800FE
:10045000200051085004031D312A1030D0002730ED
:10046000D1000130D0020030D13BD408031D3C2A1A
:1004700022000E118E110800540B422A22000E1584
:100480008E1508005408023A031D4A2A22000E1550
:100490008E1108005408043A031D522A22000E113E
:1004A0008E1508005408103A031D6C2A5108500498
:1004B000031D0800003022000E1D01302100E30062
:1004C000E30DE30D22000E0821006306FB396306ED
:1004D00022008E008E1108005408203A031D0800E7
:1004E00051085004031D0800003022000E1D013089
:1004F0002100E300E30DE30D22000E082100630656
:10050000FB39630622008E000E196A2A8E15080038
:1005100023008C0110308D008E0121009801FC30E9
:100520009900903027009B00E7248531862DD40860
:10053000031D08003D008E019201163091009F308E
:1005400097007B309200210012150B178B173D008E
:100550008E19AC2A8E15A72A01302000D40008007D
:100560005A080319BC2A5A0886008701010D010D9B
:1005700001392200E700BE2A2200E701E8016808ED
:100580006704031D080021002D082200EA00210055
:100590002C082200E9006008E9026108EA3B023009
:1005A000A001A00AA100A700AD00B30021004F0BDD
:1005B000802C03302200A100A700AD00722C220085
:1005C000E935EA0DE935EA0DE935EA0D690821005A
:1005D000AE0722006A082100AF3D3408F63EEA006B
:1005E0000030353DEB002F086B02031DF92A2E0861
:1005F0006A02031CCF012200B301B30A802C22003F
:10060000E935EA0DE935EA0DE935EA0D6908210019
:10061000AE0222006A082100AF3B34080A3EEA001D
:10062000FF30353DEB002F02031DF92A6A082E0228
:10063000F92A2200EA36E90C69082100AE022200FC
:100640006A082100AF3B3408A03EEA00FE30353D89
:10065000EB002F02031D2E2B6A082E02031CCF0174
:10066000220069082100BA0722006A082100BB3D68
:1006700040082C3EEA000130413DEB003B086B0294
:10068000031D442B3A086A02031CCF0122006908AB
:100690002100B00722006A082100B13D3608603E03
:1006A000EA000130373DEB0031086B02031D5A2B85
:1006B00030086A02031CCF01220069082100BC0235
:1006C00022006A082100BD3B4208D43EEA00FE3009
:1006D000433DEB003D02031D6F2B6A083C020318EB
:1006E000802CCF01802C192B220069082100AE023A
:1006F00022006A082100AF3B3408B63EEA00FD3014
:10070000353DEB002F02031D872B6A082E02031CC8
:10071000CF01220069082100B00222006A082100EE
:10072000B13B3608B63EEA00FD30373DEB00310202
:10073000031D6F2B6A0830026F2B2200690821000D
:10074000AE0722006A082100AF3D34084A3EEA00A5
:100750000230353DEB002F086B02031DB12B2E0834
:100760006A02031CCF01220069082100B0072200A1
:100770006A082100B13D36084A3EEA000230373DA2
:10078000EB0031086B02031D6F2B30084A2C22004E
:1007900069082100BA0722006A082100BB3D400811
:1007A000F43EEA000130413DEB003B086B02031DC3
:1007B000DB2B3A086A02031CCF012200AD01AD0A0F
:1007C000802C220069082100BA0222006A08210058
:1007D000BB3B40080C3EEA00FE30413DEB003B02D3
:1007E000031DF92A6A083A02F92A2200EA36E90CBE
:1007F00069082100AE0722006A082100AF3D3408D5
:10080000603EEA000130353DEB002F086B02031D0E
:100810000B2C2E086A02031CCF012200690821005C
:10082000BA0222006A082100BB3B4008D43EEA001D
:10083000FE30413DEB003B02031D202C6A083A02CA
:10084000031CCF01220069082100B00222006A08BF
:100850002100B13B3608A03EEA00FE30373DEB00F8
:100860003102031D352C6A083002031CCF0122001F
:1008700069082100BC0722006A082100BD3D42082A
:100880002C3EEA000130433DEB003D086B02031DA6
:100890006F2B3C086A026F2B2200EA36E90C6908CC
:1008A0002100AE0722006A082100AF3D220069083E
:1008B0002100BC0222006A082100BD3B2200690819
:1008C0002100B20722006A082100B33D2200690816
:1008D0002100BE0222006A082100BF3B0330220033
:1008E000B300802C21005408FF3E031C802C8400A0
:1008F0000B3004020318802C86310435873E8200B9
:100900008531F82581312200A201A20A21002E089A
:100910002200A30021002F082200A40021003A0891
:100920002200A50021003B082200A60021006C083F
:10093000023A031DC72C02302200A8002100300813
:100940002200A900210031082200AA0021003C0851
:100950002200AB0021003D082200AC000330AE00B5
:10096000210032082200AF00210033082200B0002D
:1009700021003E082200B10021003F082200B20001
:1009800021002030E301E30AE4001430D12C0530CB
:100990002200A000A20121002030E301E30AE400CC
:1009A0000730E500013085315125DA00D20A5208BE
:1009B000463A0319CF015208503A0319D0012D08C5
:1009C0002200E10021002C082200E0000800F030A5
:1009D00022008E0521008E052000D001D1012100CA
:1009E000D401A801A901D301DA01D1012200EB0150
:1009F000EB0A2100FF30EC01EC0AD0012200EC00F0
:100A00002100ED01ED0A080021005A080319102DFC
:100A10005A0886008701010D010D0139EA00112DE8
:100A2000EA01EB016B086A04031D08000430220090
:100A3000A00021006D0B402D0F3022006C02031C22
:100A4000442DA10121005B080739013E840090304C
:100A50000318013E850000082200A20021005B0867
:100A6000023E0739013E840090300318013E8500A4
:100A700000082200A3002100DB0A2200EC01442D23
:100A80002200A301A201A10121002030E301E30A19
:100A9000E4000430E50001305125DA002200EC0AC0
:100AA0000800E80063080319582D6808CA3E5A2D4B
:100AB0006808CC3E860087010108E900E9080319AF
:100AC00000346408E6000130E7006908023E860051
:100AD0006608C03F6708C13F690A86006508810053
:100AE00069088600403081056908860088308104E5
:100AF000630803197E2D6808CA3E802D6808CC3E25
:100B000086000430870181066908080012113D0043
:100B10009301900198010E302100E6009930E50024
:100B2000E70165088600660887008101E50A031968
:100B3000E60AE70A0319912D16303D0091009F3017
:100B400097007B3092002100E80168080907090737
:100B5000203E860000308701C03FC13FC23FC33FF7
:100B60000830E80A6802031CA52D3D000E17960107
:100B70000E120E133D00901DC42D90112100DE01B8
:100B8000A201A301A401BA2D01302100D800D9008F
:100B9000D601D701D501E8016808CA3E8600870161
:100BA00081016808CC3E860081016808C63E860047
:100BB00081016808C83E860002308101E80A6802A7
:100BC000031CCC2D2830CA0016303D009800403060
:100BD0002100E300E4012000A200210064082000BD
:100BE000A3000830A1008430A000DC01D40108007B
:100BF0002100AF1FFD2DAE01AF01BB1F012EBA01B9
:100C0000BB01B11F052EB001B101BD1F092EBC01F2
:100C1000BD01B31F0D2EB201B301BF1F112EBE01C6
:100C2000BF0112302F02C13003192E02031C1C2EEB
:100C3000C030AE001230AF000B303B02B9300319A8
:100C40003A02031C272EB830BA000B30BB0012301A
:100C50003102C13003193002031C322EC030B00003
:100C60001230B1000B303D02B93003193C02031CB5
:100C70003D2EB830BC000B30BD0012303302C13005
:100C800003193202031C482EC030B2001230B300E8
:100C90000B303F02B93003193E02031C0800B83084
:100CA000BE000B30BF0008008831F3288831F428DB
:100CB0008831E1288831F4288831E1288831E22818
:100CC0008831E828893102298831EA288831E928E1
:100CD0008831F5288831F8288831E1282300200858
:100CE000033A031D842E210803197D2E21030319C5
:100CF0007D2E2108023A031D842E21082100EC00DC
:100D0000230022082200EB002100D10108008231DB
:100D1000DF2A8231FF2A8331192B8331732B8331F0
:100D2000732B8331742B83319D2B8331C72B8331FC
:100D3000E12B8331F52B84314C2C8F31012F8F31F6
:100D4000032F8F31152F8F31342F8F31342F8F3167
:100D5000342F8F31342F8F31342F8F31022F8F3139
:100D60000D2F8F311F2F640080010131890BB42EAC
:020D700000344D
:10114C00DB01D3012100D601D701CE012000D6014D
:10115C0021004A088600043087018113CA064A0818
:10116C00860004308113CA062000590886008113BA
:10117C002100DE01DF01E001A201A301A401D120C5
:10118C00883103302000DF00E001E101E201E301DE
:10119C0024258831642A2000400E890C0339031D54
:1011AC000800410884000D30040203180800863141
:1011BC000435543E820008002100DE170830200060
:1011CC00D40008004729AE295C302100DC00DD0189
:1011DC005E140130DF00DE1708000929C82B440813
:1011EC005D3EEB282100DE17200044085D3E8600A2
:1011FC0087014208810008000230DF00E001E101B4
:10120C00E201E301242D2000C801C901322921008B
:10121C00DE1720004814520B3D29C8143D2921002B
:10122C00DE173D292100DE172000C41B21294408AC
:10123C000F39CC3E242944080F39CA3E8600870159
:10124C000108F0008600811F3D2970088600011DF1
:10125C003D290130C8003D2940081F3903190D29CB
:10126C00013A03191529033A031918293D292100BC
:10127C00DE1F08004830DC00DD015E140230DF00A8
:10128C00080020004008803A031D0800C0302100EF
:10129C00DE00A129FB302100DC009130DD00123092
:1012AC00DF00E00108004208F0000F30F101F035DA
:1012BC00F10D700784009030713D8500003F2100D6
:1012CC00DC00013FDD005D08F1005C08F000023E2F
:1012DC00840071080318710A85000008DF005D089E
:1012EC00F1005C08F000033E840071080318710AD9
:1012FC0085000008E00008000330420203189E2914
:10130C004208F0000930F101F035F10D700784004E
:10131C009030713D8500003F2100DC00013FDD0075
:10132C005C0884005D0885000008DF00E00108000F
:10133C002100DE01080020004308013A031950295E
:10134C00033A03195929013A031982299E290800E5
:10135C002100DE170E30FB009930FA00FC017A08F0
:10136C0086007B0887008101FA0A0319FB0AFC0A34
:10137C000319B5292030F001F101F200F301FE212F
:10138C0088313D000E17FD017D08C63E86008701A1
:10139C0081017D08C83E860002308101FD0A7D0274
:1013AC00031CCA295D30F001F101F201F20AF301CC
:1013BC00FE2188313D000E1328302100CA00203058
:1013CC002000D800D9004208DC00DC08031DF129FC
:1013DC001030D40008005C30DF01DF0AE001E100CE
:1013EC00E201E20AE301242520302000D4000800A9
:1013FC00F400F5000130F2020030F33B720A0319DD
:10140C00730A0319080075088600870170088100AB
:10141C00F50A002A21004A08860000308701011BCA
:10142C000130F5000430CA0620005408083A031DA8
:10143C002A2A42083D00960016080319272A103064
:10144C00282A04302000D400560B572A4830F300C9
:10145C00F40121004A08023E860087017308C03F50
:10146C007408C13FFB22883120005B08023A031D3F
:10147C00462A21004A088600843087018100080032
:10148C00F508031D502A21004A088600C830870140
:10149C008100080021004A088600883087018100FD
:1014AC0008002100A21F612A25080319602A2508BB
:1014BC0081310121A2132000D60108003D000E123B
:1014CC002100DE1B912AA21F772A02302000D600B1
:1014DC002100D708031D732ABA222100D901D80193
:1014EC0008002000590A860008308701810040302E
:1014FC00F500F6015908023E86007508C03F7608D3
:10150C00C13F590886008C30810021004A088600B2
:10151C008430810008002000C01FA42A0130D600AE
:10152C002100D608031D9C2ABA2288312100D9013A
:10153C00D8012000D308031D0800B42D0230D600BA
:10154C00590A86000830870181004030F500F60109
:10155C005908023E86007508C03F7608C13F5908FD
:10156C008600843081009C2AD601D70120005608C1
:10157C00023A031DD52A590A8600083087018100DA
:10158C004830F300F4015908023E86007308C03F4E
:10159C007408C13F59088600C8308100080021003A
:1015AC00600820004702031DDF2A21005F0820008D
:1015BC0046020318E82A47082100E00020004608EC
:1015CC002100DF00FB2288314830F300F4012100B8
:1015DC004A08023E860087017308C03F7408C13F69
:1015EC004A088600C830810008000830F20000303C
:1015FC0021006002083003195F020318112B5F08E9
:10160C00F2002000DB08031D0D2B0130102B5B0BAF
:10161C00112B0230DB0021006008F10072085F0220
:10162C00F000031CF103DF007108E0004A0A860099
:10163C0087017208810048302000DA0021005E1C0E
:10164C00392B4E2B20005A088600870121005C089C
:10165C0084005D08850000088100DC0A0319DD0A9E
:10166C002000DA0AF203F20803190800282B2000E4
:10167C005A088600870121005C0884005D088500FB
:10168C0000088100DC0A0319DD0A2000DA0AF203E3
:10169C00F208031908003D2B580886008701413FCA
:1016AC00F500F200F301730821002402031D602BE6
:1016BC00720823020318642B2308F5002408F30096
:1016CC0075082302F200031CF303A3007308A400A3
:1016DC00F401750874020318802B20088600013071
:1016EC0087007408483E8400850100088100A00A28
:1016FC00F40A6F2B0330A03E86008701160001040C
:10170C000319A62B2000590A860008308701810096
:10171C004830F200F3015908023E86007208C03FBF
:10172C007308C13F580886005908011BA12B86007D
:10173C00C8308100080086008830870181000800CD
:10174C002000590A86000830870181004030F200E1
:10175C00F3015908023E86007208C03F7308C13F6E
:10176C005908860084308100210025080319C22BFA
:10177C002508813101218831A2132000D308031DD3
:10178C000800B42D2000420BDA2B40081F39031D32
:10179C00DA2B2100DE1720004108033A031DD92B58
:1017AC000130D200DA2BD2014208031D0800400898
:1017BC001F39023A031D080044080F3903190800A9
:1017CC0044080F39FA0002307A0203180800540852
:1017DC00203A031D08002100DE172000C41B012C39
:1017EC0044080F39CC3E860087010108E700440805
:1017FC000F39C83E0B2C44080F39CA3E86008701AE
:10180C000108E70044080F39C63E86000108E600CF
:10181C006618122C6711132C6715C41B192C44085D
:10182C000F39CC3E1C2C44080F39CA3E8600870168
:10183C00670881004108033A031D3A2C67088600AB
:10184C00811F342CC41B2E2C44080F39C83E312C5C
:10185C0044080F39C63E860087018114670886004C
:10186C0084308701810408000430E706670886008D
:10187C0087016708811F512C860081138600053073
:10188C000117DF00E0016708E100E201E20AE30171
:10189C0024258831542C8600870101170430200040
:1018AC00E706E6185E2C670886008701811F792CF5
:1018BC00C41B642C44080F39C83E672C44080F39EC
:1018CC00C63E860087018110670886003B30810583
:1018DC000530DF00E0016708E100E201E20AE30104
:1018EC00242588317E2C670886003B3087018105D2
:1018FC00200044080F39983EFA000E30FB01FB3DE6
:10190C007A08E4007B08E500640886006508870017
:10191C00011008005403031D9C2C3D008E1A9C2CB6
:10192C0090011214121602302000D4003D00101940
:10193C00121DA32C1011702688318E1CA82C20008F
:10194C00121108001018121CB42C472588312100E4
:10195C00121504302000D4003D001010101A121E75
:10196C00BB2C622688313D001012101FD42C121F84
:10197C00C92C73302000DF00E001E101E201E20A32
:10198C00E301242588313D00101320005508031D68
:10199C00D503D508031DD42CB42588313D00901AED
:1019AC00921EDA2C482688319018921CEA2CFF30B3
:1019BC002000DF007F30E000E101E201E20AE301F8
:1019CC00242588313D009301043020005402031C6F
:1019DC00A52C3D00921DA52C2000EC013D00901D76
:1019EC00A52C0F082000DE005E0CEB00EB0C6B0C42
:1019FC000F39D7003D00901120005E19082D5708B3
:101A0C00C83E0A2D5708C63E860001308701810664
:101A1C00D708031D142DFC2588311D2D7230DF00D5
:101A2C005E30E001E100E201E30124258831200071
:101A3C000430EC0A6C020318A52CF42C6008003A54
:101A4C000319342D7F3A0319412D462D362F3B2F88
:101A5C007F260800802EC82EC92E352F5F08FF3E2A
:101A6C00031C080084007530040203180800803140
:101A7C0004350F3E82005F08FF3A0319332D462DC3
:101A8C000800210012113D009301900198010E30C5
:101A9C00F3009930F200F401720886007308870095
:101AAC008101F20A0319F30AF40A0319522D1630B4
:101ABC0091009F3097007B309200F5017508090763
:101ACC000907203E860000308701C03FC13FC23F5E
:101ADC00C33F0830F50A7502031C642D0E179601DE
:101AEC000E120E133D00901D822D90112100DE016F
:101AFC00A201A301A401782D01302100D800D90046
:101B0C00D601D701D501F5017508CA3E86008701BB
:101B1C0081017508CC3E860081017508C63E8600A1
:101B2C0081017508C83E860002308101F50A7502F4
:101B3C00031C8A2D28302100CA0016303D00980065
:101B4C004030F000F1012000A2007108A300083021
:101B5C00A1008430A000DC01D40108002100D808C9
:101B6C00031D08000130D800D908031D0800D90056
:101B7C0020005608023A031DCD2D21004A0A86008A
:101B8C00870181014A088600C83081000800560B85
:101B9C0008002100CE012000580A86000830870179
:101BAC0081004030F000F1015808023E86007008B8
:101BBC00C03F7108C13F5808860084308100013055
:101BCC002100CE002000590A8600083081004030E8
:101BDC00F000F1015908023E86007008C03F710800
:101BEC00C13F590886008030810008002D30D50097
:101BFC005E08FD39031D412E5E363F390907090782
:101C0C00203ED800D9000430D90658088600870138
:101C1C00010C890C0F390D3A031D402EEA016A089C
:101C2C00403E860087015808023E84008501003F33
:101C3C00E800013FE9006808840069088500000895
:101C4C0081005808023E860001308107413103189B
:101C5C00810A0830EA0A6A02031C152E4030E8009B
:101C6C00E9015808023E860087016808C03F6908F0
:101C7C00C13FA628DF2FFD305E05E800043A031DA6
:101C8C000800102A181C602E2000580886008701B6
:101C9C000108803A031D5E2E21004A0886000108C7
:101CAC00843A031D5E2E2000580886008C3081007B
:101CBC003D00181090120800121510128E140130ED
:101CCC002100D50075302000DF00E001E101E201C8
:101CDC00E301242D2100D50174302000DF00E00148
:101CEC00E101E201E30124253D008E1012111011D7
:101CFC00080008001A30F4000130842EF900741D1D
:101D0C008A2EF001A3268831F41C902EF001F00AE3
:101D1C007908A3267908983EF5000E30F601F63DB9
:101D2C007508F7007608F8007408F5007708860047
:101D3C0078088700750881000800F2002030F30055
:101D4C007008F100F13572080907090771070907D6
:101D5C000907F3077308860087018113F008031D38
:101D6C00BA2E7208CC3EBC2E7208CA3E8600870181
:101D7C00730881007308860001137308043E860003
:101D8C00011708000800CA2E40081F39013A031D2C
:101D9C0008004408031D08004108063A0319EE2EFA
:101DAC00F92E5C0BF92EEB302100DC009130DD00BC
:101DBC000930DF00E001EB2E11302100DC00903007
:101DCC00DD000130E0006A30DF00C030DE00F92EAB
:101DDC004308213A0319D72E033A0319E22E013A8C
:101DEC000319F92EF92E2000400E890C0339013A03
:101DFC00031D0800272F9E2F3C2FE2302100DC0012
:101E0C00DD010130DF00E001C130DE000800803070
:101E1C002100DE00200043082100E2000800E13030
:101E2C002100DC00DD010130DF00E0018130DE004B
:101E3C00080080302100DE00200042082100E10073
:101E4C0008004108FF3E031C080084000B3004020C
:101E5C0003180800863104359D3E820008000800F6
:101E6C002100AA0A0319AB0A080008004308033A28
:101E7C00033003194206031D08002100D101D10AC9
:101E8C005A080319512F5A0886008701010D010DBC
:101E9C000139F100522FF101F2017208710403199A
:101EAC00592F01306827A0302100A00020004708DE
:101EBC002100A400200046082100A3000130A50049
:101ECC00A2170800F0003D000E1E08007008CA3E64
:101EDC0086008701010886004030810541310030C1
:101EEC00810541318105413181017008CA3E86006E
:101EFC00870101088600403081064131003081069F
:101F0C004131810641317008CA3E86000430870198
:101F1C0081067008CA3E86000108860040308105A3
:101F2C007008CA3E86000108860040308106080011
:101F3C004308033A023003194206031DC12F023035
:101F4C002200E5000330E60000302000470202309A
:101F5C00031946020318B42F4608B52F0230F000BF
:101F6C0065302100DC000130DD007008DF00E0018D
:101F7C008130DE0008004308033A0330031942069F
:101F8C00031D080003302200E20021006C0822002F
:101F9C00E3006B08E4000030200047020330031913
:101FAC0046020318DB2F4608DC2F0330F0006230AA
:101FBC00B72F5608023A031DE42F522BD6012100ED
:101FCC00CE08031DFE2F2000590A86000830870119
:101FDC0081004030F600F7015908023E8600760871
:101FEC00C03F7708C13F590886008C30810008003B
:101FFC00CE0108000034FC34FC34FC3400340434CE
:10200C000434043400340D3492347B349134AF34C2
:10201C009134D934913405340D3409340434A13459
:10202C0001348534013409342234A13402340934A6
:10203C00423415340034253401347534013495346C
:10204C00013481340234093432348134023495340D
:10205C0006348134033475340834093451349534DE
:10206C00013481340234053401342634C034123442
:10207C007534103455340E346534333409343034FB
:10208C00353400344634403406348134023426343A
:10209C00B8340B344634E8340334093431348134E5
:1020AC000234C034A134023405340D3409344234C2
:1020BC00153400342534013475340134953401342D
:1020CC008134023409343234813402349534063488
:1020DC008134033475340834093451349534013463
:1020EC0081340234053401342634C034123475344E
:1020FC00103455340E3465343334093430343534BB
:10210C000034463440340634813402342634B83436
:10211C000B344634E834033409343134813402341A
:10212C00C034A134023405340D340934423415342E
:10213C000034253401347534013495340134813440
:10214C000234093432348134023495340634813407
:10215C0003347534083409345134953401348134E2
:10216C000234053401342634C0341234753410343E
:10217C0055340E346534333409343034353400344A
:10218C00463440340634813402342634B8340B34AB
:10219C004634E83403340934313481340234C034E5
:1021AC0005340D3409345434953401347534083401
:1021BC0025340334813402348534023409345534E3
:1021CC00B1340234C03409340E34A13401348534B2
:1021DC00033409342334A13402340934523409341D
:1021EC0053341534003425340A347534083495349A
:1021FC000234B1340234C034C034053401340934EF
:10220C000234A13401348534043409340134A1344A
:10221C0000340534093419340134293403341534A9
:10222C00003425340134453400346534003495349D
:10223C0003347534013481340234953401347534EB
:10224C000534813401340534013409343034093413
:10225C0031341534813425347F3475340834953455
:10226C00023481340634C034C03405340D3409349E
:10227C000234A13401348534053409342034A134BA
:10228C0000340934423409343234153400342534E2
:10229C00013475340134953402348134023495346C
:1022AC000E3481340334053401342634C0341234F2
:1022BC00753410349534013455340E34653433345C
:1022CC0009343034353400344634403406348134E7
:1022DC0002342634B8340B344634E834033409342D
:1022EC00313481340234C034C034343403344D348A
:1022FC0000346934003463340034723400346F3485
:10230C00003463340034683400346934003470347D
:10231C0000342034003454340034653400346334D5
:10232C000034683400346E3400346F3400346C3450
:10233C0000346F3400346734003479340034203482
:10234C000034493400346E340034633400342E3499
:10235C0000342A34033448340034493400344434CF
:10236C000034203400344D340034753400346C3473
:10237C00003474340034693400342D340034543453
:10238C0000346F34003475340034633400346834F2
:10239C0000342034003444340034653400346D345B
:1023AC0000346F34003409340234223400340134E4
:1023BC0001340034E0343234093404340034003451
:1023CC000134033400340034003409342134123421
:1023DC0001340034013422346A34013407340534B6
:1023EC008134033440340034043412340134003466
:1023FC0002340034003400340834D83404346334E8
:10240C000034013400340134023400340134043417
:06241C000334093404340E
:020000040001F9
:04000E0084CFCFDFED
:00000001FF
