:020000040000fa
:080000000002040000000000f2
:020000040000fa
:100400008f5521000e7f22000e01880000000000a1
:100410000c000700e09422000100200011000700fa
:10042000000020000000e000020032000000020096
:1004300000000000c0020200000000000040da00de
:100440000000fe004440a900200120000000e00060
:100450000300320000002000a00188004440a800f2
:100460000000060091018800800078000000eb0089
:1004700015003700e280400032a0b4009101ba00bc
:10048000e280400032a0b4009102ba00e280400055
:1004900032a0b4000002eb00472bde00f507b200eb
:1004a000602ce10004003a000059eb008301e900f0
:1004b000fdff3e00040037006128e100010032002a
:1004c0000082eb00040007001101ba000200e00006
:1004d000e8ff3a00000006003159ba008301e90044
:1004e0000c0032002159ba008301e90008003200f3
:1004f0000400e00003003a00e280400032a0b400b3
:10050000f5ff370011d9ba008301e900faff3a007c
:100510008100e800e180400032a0b4000000060045
:1005200000000000000000000000000000000000cb
:1005300000000000000000000000000000000000bb
:1005400000000000000000000000000000000000ab
:10055000000000000000000000000000000000009b
:10056000000000000000000000000000000000008b
:100570000000000000000000ffff3700ffff370011
:10058000ee874700889fbe008a9fbe008c9fbe00fa
:100590008e1f78006000b800c0b79f00d1b79f00e1
:1005a0005d0407000081200028120700f0ff2100f1
:1005b0002223b60024e3ef00f0f12f002023b60041
:1005c00021198000f00f2e000080600000c0a00004
:1005d00020198800f0cf2f002023b60031fc2f0017
:1005e0008000fd002223b6008000fd0021e3a8006a
:1005f0000004eb0088bf9f00f8b79f000805780053
:1006000013002000e3b79f008806780008077800f1
:1006100080c5eb000b467800050037008c4578005c
:1006200009467800bf0037008c45780009467800fd
:100630000c07070053120700c2478000e00f51006b
:100640000b003a006000b800c0b79f00d1b79f0010
:10065000f0cf2f00cc22b600c822b60002047800ea
:1006600088bf9f001d0020000d077800f0ff3700b5
:100670006fb19700e10f510009003a000204200019
:1006800003002000c18f2000d04780001312070014
:10069000e0e79f00e04f5000040032000500370003
:1006a0008001eb00e3b79f00020037000000eb0081
:1006b000e0b79f006000b800c0b79f00d1b79f00af
:1006c00078815700fa805700d04780001012070049
:1006d000e10f50002e003a00efe09700e0cf50000d
:1006e0002b003a00c28f2000f2b79f00280037008d
:1006f000ffb19700134178008fb99700e08f510048
:1007000003003a00e24f410019003a00130037009d
:10071000e14f510003003200e14f410014003a0064
:1007200012003700ffb19700134190000281fb00d7
:10073000e101610002003200cd22a8000100370073
:10074000cd22a9006201610002003200cd02a800a2
:1007500007003700cd02a900050037000fbc970045
:100760001200200082bf9f00010037001800200007
:1007700062005000e0805800ffb197008381e800dc
:10078000f3b79f00e10f540003003a000500370063
:100790004fb09700dfb09700e00f5000e08f580097
:1007a000d3ff3a00c0b79f00d1b79f004fb097006a
:1007b000dfb09700e00f5000e08f580002003a00d1
:1007c00010002000e0b79f00c8e2a800501680008b
:1007d0000008b20029c0b300010032008044eb00e1
:1007e0008ccf5400010032001e0020007100200058
:1007f000411988002023a8002023a90001198000a6
:10080000e1806000fdff32000018800041062000fa
:100810000100b800f23f2000030020006c00070038
:10082000004678008b4f5600010032001d0020006a
:10083000e10f550009003a0078815700fa8057000f
:10084000d0478000951107008a0f500003003a003e
:10085000e10f540037003a0034003700e10f540034
:100860000c003a00e00f55000a003a003ce9ef00a6
:100870000a0078003de9b7002200200003002000b4
:10088000c1932000d047800077110700e0e79f0068
:10089000080578008fb89700e08f500062ff3200a3
:1008a000e10f57000d003a00e00f55000c003a0030
:1008b00020c0b3003ce9b700090078003de9b7006b
:1008c0002200200003002000c1932000d0478000b8
:1008d00065110700e0e79f000e0578000007eb00b8
:1008e000e18f56004dff3a00e00f55004eff3a00f1
:1008f00030c0b3003ce9b7000c0078003de9b70018
:100900002200200003002000c1932000d047800077
:1009100055110700e0e79f008c45780009467800f4
:100920000d0578008006eb0041ff37000004eb0066
:1009300088bf9f000005eb00d6ff370000000500d0
:1009400010072000808f50000b003c006500500015
:10095000808f500014003d0063005000808f5000d5
:100960000c0032000000e800808f50000e003200c2
:10097000650050000400370000712200808f500095
:100980000b0032000000e800808f50000c003a009d
:10099000050037001000200092409000e6cf400094
:1009a0000800360000000500f828ef0010000500e0
:1009b00010002000c0478800d247880000000600d1
:1009c0000000eb00000006000040da000000fe001e
:1009d0006022b800060220000000d0008180d20012
:1009e0000482d2008582d2000000a00002025200e0
:1009f00083825a00030031000202420083824a00cf
:100a00000000a1000603e900f3ff3a000000060021
:100a1000020ab900001bb9000200b80081004200c0
:100a20008100430000000600e8874700889fbe0061
:100a30008a9fbe008c9fbe008e1f7800e198200028
:100a4000724c8000e00f51000b003a0064814000be
:100a5000724c8800c24c8800a1009800b14c8800fc
:100a6000214190000204a000a24098006141900042
:100a70000204a000e2409800670440004244de0007
:100a80004244dd00b04c80000e9a200089552100c0
:100a90008e84540026002000801f78001100090079
:100aa0008604d800000378004f0078008880e800b2
:100ab000818240008001eb006146b800b4552100fe
:100ac0000e02520008024200010037000a007800be
:100ad000a0409000e1806000020032000a00370070
:100ae0001208780010017800a2409000e1806000b8
:100af000fbff320088004000810f510002003900e6
:100b0000e00f540049003d0010057800800f5500ab
:100b1000eeff3e008e0f550003003900e1982000e3
:100b2000810f5500e9ff3900c14c8000810f500052
:100b30004f003a00e0982000800f55004c003a002a
:100b40008301e800e18f5100e0ff3600860f54007a
:100b500002003600890f54000d0039006148b900c9
:100b6000b2ff2f00030020000000510081805900d7
:100b7000800f5600818f5e0007003d0011000900c4
:100b80000982d8000980b900800578000300370089
:100b90008505780001003700880578000b00780093
:100ba00084bf9f00e5b79f00f6b79f007a0007005b
:100bb0000fba9700efb297007fb39700e10f4000a4
:100bc0002b003200c14c800080087800c14c8000ae
:100bd000e481400021419000830f50000200320068
:100be0000204a000010037000204a100a240980006
:100bf000e48555008b0540000b087800cb4c88003d
:100c0000e1982000810d7800c24c8000a240900045
:100c10000104a00021419800a04090000104a1001f
:100c2000214098008001eb00a8ff3700b14c8800fc
:100c3000810f5100070036001101be00d24c880020
:100c4000e34c880090087800b24c80008000eb00f4
:100c500021419800b34c800003087800a040900028
:100c60000104a0002140980064004000010037000a
:100c70000000eb004f0778004f06be004f05be0096
:100c80004f04be008f00b100000006006400500059
:100c9000b04c8800a04090000104a10021409800c1
:100ca00000000600889fbe008a9fbe008004780076
:100cb00001047800648154009205780069f9970076
:100cc000610161000200320009007800efff0700b7
:100cd0000800780054ff070000047800e00f54007b
:100ce0001b003200890f54001900320068bd9700c4
:100cf0000805550042d5de00098055004280de001f
:100d00000a017800800f55000100360000017800cc
:100d10004211dd000800be0011000700890f5400d9
:100d20000b0031004255dd000a054400890f5500d3
:100d30000700360089045500c2ccde00c24cdd003d
:100d400089044400d04c8000e14c8000808cbe00bf
:100d5000080078004f05be004f04be0000000600ea
:100d60008001780002003700b15978000201e900e3
:100d7000e00f5100fcff3a000000060080017800ff
:100d800002003700815978000201e900e00f5100ac
:100d9000fcff3a0000000600889fbe008a1f780012
:100da00000057800f94c8000e08f540005003a00ff
:100db000090078000f0007000084eb00890f500045
:100dc00008003500f84c8000e00f550005003200a7
:100dd0000a00440007000700e00f500001003d003a
:100de0000084eb00080078004f0578004f04be0037
:100df00000000600e00f500004003a00019a2000b5
:100e0000f14c880080007800060037008080eb00fd
:100e100082552100820f500002003e00f04c8800f5
:0c0e20008000eb000100780000000600dc
:020000040000fa
:020000040001f9
:0457f00033ff000083
:020000040000fa
:020000040001f9
:0457f400c0ff0000f2
:020000040000fa
:020000040001f9
:0457f800af7b000083
:020000040000fa
:020000040001f9
:0457fc00603f00000a
:020000040000fa
:10000800e4040000e4040000bc020000be0200009a
:10001800e4040000e4040000e4040000e404000038
:10002800e4040000e4040000e4040000e404000028
:10003800e4040000e4040000e4040000e404000018
:10004800e4040000e4040000e4040000e404000008
:10005800e4040000e4040000e4040000e4040000f8
:10006800e4040000e4040000e4040000e4040000e8
:10007800e4040000e4040000e4040000e4040000d8
:10008800e4040000e4040000e4040000e4040000c8
:10009800e4040000e4040000e4040000e4040000b8
:1000a800e4040000e4040000e4040000e4040000a8
:1000b800e4040000e4040000e4040000e404000098
:1000c800e4040000e4040000e4040000e404000088
:1000d800e4040000e4040000e4040000e404000078
:1000e800e4040000e4040000e4040000e404000068
:1000f800e4040000e4040000e4040000e404000058
:10010800e4040000e4040000e4040000e404000047
:10011800e4040000e4040000e4040000e404000037
:10012800e4040000e4040000e4040000e404000027
:10013800e4040000e4040000e4040000e404000017
:10014800e4040000e4040000e4040000e404000007
:10015800e4040000e4040000e4040000e4040000f7
:10016800e4040000e4040000e4040000e4040000e7
:10017800e4040000e4040000e61f0000e4040000ba
:10018800e4040000e4040000e4040000e4040000c7
:10019800e4040000e4040000e4040000e4040000b7
:1001a800e4040000e4040000e4040000e4040000a7
:1001b800e4040000e4040000e4040000e404000097
:1001c800e4040000e4040000e4040000e404000087
:1001d800e4040000e4040000e4040000e404000077
:1001e800e4040000e4040000e4040000e404000067
:0801f800e4040000e40400002f
:020000040000fa
:10020800e4040000e4040000bc020000be02000098
:10021800e4040000e4040000e4040000e404000036
:10022800e4040000e4040000e4040000e404000026
:10023800e4040000e4040000e4040000e404000016
:10024800e4040000e4040000e4040000e404000006
:10025800e4040000e4040000e4040000e4040000f6
:10026800e4040000e4040000e4040000e4040000e6
:10027800e4040000e4040000e4040000e4040000d6
:10028800e4040000e4040000e4040000e4040000c6
:10029800e4040000e4040000e4040000e4040000b6
:1002a800e4040000e4040000e4040000e4040000a6
:1002b800e4040000e4040000e4040000e404000096
:1002c800e4040000e4040000e4040000e404000086
:1002d800e4040000e4040000e4040000e404000076
:1002e800e4040000e4040000e4040000e404000066
:1002f800e4040000e4040000e4040000e404000056
:10030800e4040000e4040000e4040000e404000045
:10031800e4040000e4040000e4040000e404000035
:10032800e4040000e4040000e4040000e404000025
:10033800e4040000e4040000e4040000e404000015
:10034800e4040000e4040000e4040000e404000005
:10035800e4040000e4040000e4040000e4040000f5
:10036800e4040000e4040000e4040000e4040000e5
:10037800e4040000e4040000e61f0000e4040000b8
:10038800e4040000e4040000e4040000e4040000c5
:10039800e4040000e4040000e4040000e4040000b5
:1003a800e4040000e4040000e4040000e4040000a5
:1003b800e4040000e4040000e4040000e404000095
:1003c800e4040000e4040000e4040000e404000085
:1003d800e4040000e4040000e4040000e404000075
:1003e800e4040000e4040000e4040000e404000065
:0803f800e4040000e40400002d
:020000040000fa
:100e2c00010000000c2300004e230000842300006e
:100e3c00ea2300007e2500002024000092260000fa
:040e4c004e2600002e
:020000040000fa
:100e5000c04580004600de00610060000000060022
:100e60000245800001f020000101610010c3b300c1
:100e700013003200024580000101610000402000a3
:100e8000800f510007003a0001458000010fb200b9
:100e900000c3b300f08f500009003a006a404000e0
:100ea00000000600004580008100600020c3b30000
:100eb00002502000828f500001003a00aec8bf00ef
:100ec000000006008040780060c0b300d28a200095
:100ed0001241780082cf500007003a00014580009f
:100ee00000f020008080600030c0b30002003200bb
:100ef000a028ef000040eb000000060080407800d2
:100f000060c0b300d28a20001241780082cf500026
:100f100007003a000245800030c0b30001412000c4
:100f2000810f510002003a00a028ec000040eb00c5
:100f3000000006008040780060c0b300d28a200024
:100f40001241780082cf500009003a00024580002b
:100f500030c0b30001402000810f510004003a006e
:100f60009404a90000412000004588000040eb00e7
:100f70000000060010458000900090000160a10074
:100f800011009800900090000150a10011009800fd
:100f9000f248ed00804078008000fd00f2e8b700e4
:100fa0008000fd00e0cf50000300320000ff2f0062
:100fb000a028b60000000600f348ed00f3e8b700f3
:100fc000814f500002003200001120000300370062
:100fd00070c0b300aee8b7000050200000458800a4
:100fe00000000600ee874700889fbe008a9fbe0073
:100ff0008c9fbe008e1f78008046780001467800e6
:1010000082457800694c8000289520000005eb009f
:10101000080378004357dd0066004700660078004b
:101020000000d10061406000e14f500029003a000b
:1010300098cf160027003a00184090008c4f5000bf
:1010400024003a00284090008b4f500021003a00c5
:10105000094890000080fb0099489000c808dd0016
:1010600080807000b1b79f00a94890008180fb008c
:10107000394890004800dd0001007000c0b79f00b3
:10108000adef9f00bcef9f00cbef9f0084002000de
:10109000050020007a8157009107200000c0eb0076
:1010a000f3b79f0086bf9f0025fe0700ffb19700a2
:1010b0000fbb9700e00f500006003a00209520007b
:1010c0000e0740005e4790008e4978001000200017
:1010d000050037000a05e80068044400e30f5500e6
:1010e000ccff3a000000eb004f0778004f06be002f
:1010f0004f05be004f04be00ef00b1000000060027
:101100000800fa00889fbe008a9fbe008c1f7800ee
:10111000684c8000b8c8a900399520000905e8008e
:101120008005eb002c9520004358dd006600400050
:101130006c0078000000d100614060000b003200bc
:10114000f9f897004840900080cf500038003a00ee
:1011500058409000994f100035003a0068409000c8
:101160009a4f100032003a00300037008848900053
:101170008180fb00184890004800dd0001007000ed
:101180008900e900910f100008003a00a84890007b
:101190008180fb00384890004800dd0001007000ad
:1011a0009a0f100001003a00b8c8a8000900e90031
:1011b00090007800e18f40001d003a001a0078008e
:1011c000810f50001a003a00884890008180fb008f
:1011d000184990004811dd0001017100f2b79f002d
:1011e000284990000281fb00b8489000c808dd0043
:1011f0008280700081bf9f00f9f89700a1f79f00df
:1012000099407800b1f79f009a407800c1f79f009d
:101210008400200005002000728157009107200003
:10122000c7fd0700e00f500001003a00b8c8a80051
:10123000c04580000004b20013003200c35ddd0031
:1012400064814500209520000201400092409000fa
:101250008000fd00afe8b7008000fd00e685450096
:10126000e0807d00c208de00e1c0600010002000c8
:101270000a003200801f780012407800aae8b70008
:101280004f007800050037008b05e800e884440033
:1012900068054500e38f5500a3ff3a004f0678002c
:1012a0004f05be004f04be000080fa00000006009b
:1012b00000417800e04f510002003a00b045800044
:1012c00000000600a14580000c00370021009000be
:1012d000e00f5000080032002000900004003700aa
:1012e000a059900082cf5100070032001000780012
:1012f000e00f5000faff3a0091007800e08f5000b4
:10130000f2ff3a0001007800000006000200fa0037
:10131000881f780002047800d28a200012417800e9
:10132000824f50000500320060c0b300004c7800ce
:101330008009eb00b31178002300370001407800ea
:10134000e3bf9f00daff0700efb99700e00f5000fe
:101350001b003200100290004922de006142620050
:10136000100190000210b20005003200004ceb00aa
:10137000000b9000900b90008689be000e00370095
:10138000900090000102b200828f500002003200f3
:1013900010c1b30007003700100190000204b20032
:1013a000810f5100020032004058900001003700c8
:1013b00090c1b300004c78000480fb0003003700ac
:1013c00040c1b300004c7800100020004f047800aa
:1013d0000080fa0000000600d28a20001241780046
:1013e000824f50000a003a0001407800b0ff070029
:1013f000e00f500006003200900090000170a00045
:1014000011009800900090000190a0001100980039
:10141000000006000200fa00881f7800020478002d
:1014200064c0b300d28a200012417800824f50007d
:101430000f003a0001407800e3bf9f009cff0700c7
:1014400044c1b300efb99700e00f5000080032002c
:10145000610164004d11dd009000900001d0a100f9
:101460008280700011009800031098000042eb0089
:10147000044078004f0478000080fa000000060065
:1014800062c0b300d38a200093417800834f50009c
:101490000c003a000140780085ff070042c1b3000c
:1014a000e00f500007003200900090000150a100b2
:1014b00011009800900090000160a10011009800b8
:1014c0000041eb00024078000000060080417800f7
:1014d000b04580008382fb00d0089000c808de0081
:1014e000e3806000858f500005003a009000900076
:1014f0000120b20002003a00104588003900370090
:10150000a768ef00a2458000e00f510005003200ff
:10151000a2009000e08f50003e003200a100900039
:101520003c003700820078003a003700e08f50001e
:1015300030003200510890004800de006300600077
:10154000850f500028003a00e2cf5100150032000c
:10155000e3cf510006003200e0cf510022003a00f4
:10156000110090000020b2001f003a001c0037005c
:10157000110090000020b2000600320031009000ff
:10158000e00f500018003a0021009000b0009800d1
:101590001500370031029000800f520012003a000f
:1015a0000f003700110090000020b2000e003a003a
:1015b0001102900006026200800f52000a003a00f9
:1015c000a768ec00748a200014427800a6c8bf0007
:1015d000804f520004003600a7c8bf00a6e8b7003d
:1015e000114588001000050091007800e08f500040
:1015f00009003a0012017800e00f510008003200a3
:10160000a2009000e08f500003003200a100900083
:101610000100370006002100e00f5100c3ff3a002f
:101620000200780000000600889fbe008a1f780034
:10163000180037001004780010003700910478007b
:10164000050037001005780090fd0700a0458000d8
:10165000100090002a009800a045800090009000a3
:1016600021009000e00f5000f6ff3a0001007800e2
:1016700086fd0700a045800019009800a045800065
:1016800090009000e08f5000ecff3a007ffd0700d3
:10169000a8458800a0458000e00f5000e5ff3a0013
:1016a000b608f800a208f9004f0578004f04be0004
:1016b00000000600889fbe000700370098049000d5
:1016c0001800780071fd0700904580000008eb00cd
:1016d0006efd07009945880098458000e00f540092
:1016e000f6ff3a00604c8000880f50000200320084
:1016f00066fd0700684c8800d0458000e00f500070
:101700000200320061fd0700ba28ef00c6ff0700a3
:101710004f04be0000000600881f7800b845800016
:10172000e00f540007003a0020022000befc070032
:10173000b0458800880f50000f003200080878007c
:1017400001003700dbff0700b608f800a208f90027
:10175000a028ef009aa8ef00ac68ef00ad68ef009a
:10176000f408a80040002000e0458800f04588000b
:10177000c028ef00100020004f0478000000060091
:10178000900290000550a100150098009002900072
:101790000560a10015009800900290000570a1005e
:1017a00015009800900290000580a1001500980097
:1017b0001003900005fe2f008502630015009800bd
:1017c0009002900005c0a100150098003308980011
:1017d0006033b80006089800170898008001eb00f5
:1017e000540098006300980073089800210898003e
:1017f0007200980001c2b300015898009000900058
:101800000190a100110098000000060090029000d5
:101810000550a10015009800900290000560a100fd
:1018200015009800900290000570a1001500980026
:10183000900290000580a100150098001003900010
:1018400005fe2f00850263001500980090029000ad
:1018500005c0a10015009800330898006033b80057
:1018600006089800170898008001eb0054009800c3
:10187000630098007308980021089800720098008f
:1018800001c1b300830f52000100320001c3b30055
:1018900001589800900090000190a100110098005c
:1018a00000000600900190000370a1001300980052
:1018b000900190000380a100130098001002900096
:1018c00003fe2f0083016200130098009001900036
:1018d00003c0a10013009800310898006022b800ee
:1018e00004089800150898008001eb005200980049
:1018f0006300980073089800500990000230b2000d
:1019000004302000840f510002003a0001c4b300eb
:101910000800370004102000840f510004003a0032
:1019200002c6b300025898009340980002003700a6
:1019300001c8b30001589800900090000190a100e8
:1019400011009800000006000200fa00889fbe0007
:1019500080427800014078008204780063c0b300c0
:10196000d18a20009140780081cf520027003a00b0
:101970000245800001f020000101610013c0b300a6
:1019800001402000810f510020003a00d4bf9f0089
:1019900047fe070043c1b3005fba9700e00f500055
:1019a0001a003200d00a90000530b20083c1b300a3
:1019b00016003200a058900053c1b300e0cf500091
:1019c00012003d00900290000502b20013c1b30066
:1019d0000e003a00100490000804b20023c1b300c6
:1019e000850f540009003a00900290000520b200d3
:1019f00003c1b300888f5200040032000401780054
:101a000089007800a7ff070088417800034078002c
:101a10004f04be000080fa00000006009001900014
:101a20000370a10013009800900190000380a100b2
:101a3000130098001002900003fe2f008301620043
:101a4000130098009001900003c0a10013009800bb
:101a5000310898006022b800040898001508980022
:101a60008001eb0052009800630098007308980012
:101a7000500990000230b20004302000840f510061
:101a800002003a0001c5b30008003700041020002e
:101a9000840f510004003a0002c7b30002589800b6
:101aa000934098000200370001c9b3000158980024
:101ab000900090000190a100110098000000060025
:101ac0000200fa00889fbe00804278000140780042
:101ad0008204780063c0b300d18a2000914078006e
:101ae00081cf520027003a000245800001f020001b
:101af0000101610013c0b30001402000810f5100bb
:101b000020003a00d4bf9f00e9fd070043c1b300a5
:101b10005fba9700e00f50001a003200d00a900020
:101b20000530b20083c1b30016003200a058900007
:101b300053c1b300e0cf5000120035009002900076
:101b40000502b20013c1b3000e003a001004900069
:101b50000804b20023c1b300850f540009003a0005
:101b6000900290000520b20003c1b300888f52009c
:101b7000040032000401780089007800a7ff070004
:101b800088417800034078004f04be000080fa00ce
:101b9000000006000200fa00889fbe008a9fbe0077
:101ba00080457800010478000205780020072000b5
:101bb000800f540003003200f0ff2700800f540014
:101bc0000f003a001a489000e14f40001f00320019
:101bd000a2c0b3000440bc000280e800e1932000f2
:101be00061037800030278008002eb000a017800ac
:101bf000880078000b4078000600010013003700d1
:101c0000a94580000f00370079409000a2c0b300c2
:101c10000440bc000281e800e093200060037900ea
:101c2000030278008002eb000a0178008800780047
:101c30000b407800b3bf9f000600010099047800b4
:101c4000bfb99700e08f5400efff3a004f05be0088
:101c50004f04be000080fa00000006000200fa00f7
:101c60008824ef00adc8bf000c0032008040eb00bc
:101c7000e1ff9f0024002000050020000f81e90003
:101c8000a10620002efb070013002000d28a2000ae
:101c900011072000adc8bf00beff07006000b800fc
:101ca0009dfe07000080fa0000000600881f7800f3
:101cb000800178000244780030c0b300e1cf4000da
:101cc0000d003a00e04f54000b003a00810620005e
:101cd000818f510003003a00e0ff0700f408a900db
:101ce00004003700b1062000818f510002003a0045
:101cf000f408a800084078004f04780000000600af
:101d00000200fa00889fbe008a9fbe0080447800cf
:101d10008105780002057800a84580000f00370093
:101d200078409000a2c0b3000440bc0064014100b0
:101d3000e093200060037900030278008002eb004a
:101d40000a0178008b00780009407800b3bf9f003b
:101d50000600010018047800bfb99700e00f540096
:101d6000efff3a004f05be004f04be000080fa00ae
:101d7000000006000200fa00889fbe008a9fbe0095
:101d80000044780081047800020578008005eb00ab
:101d9000030278008b0278000a017800890078003d
:101da00008407800164a8000b3bf9f00060001007b
:101db0003fba97008b0278000a017800890078000a
:101dc00008407800634a8000030001004f05be0010
:101dd0004f04be000080fa0000000600f2874700b2
:101de000889fbe008a9fbe008c9fbe008e1f780019
:101df000a6458000b828a900b848a800514c80002a
:101e0000314478008100e800314078000081fb0017
:101e1000314078008081fb00c819dd0082814100db
:101e2000d3b79f008100e80031407800e0e79f00d1
:101e3000a140900081ef9f00c1e79f008040eb0030
:101e4000b1e79f0024002000050020007d8157009d
:101e50009106200000c0eb0086bf9f00b8fa070083
:101e6000800078000000eb00e0b79f000fbb9700f8
:101e7000808f500005003a0081c2b3000100780055
:101e8000aee8b70011002000e1b79f000887fb0013
:101e90000e0078008a09b400000178008046eb004b
:101ea000b2003700b2447800b2407800e9cf500069
:101eb0000e003a00b828a800924078008000fd008b
:101ec000abe8b7008000fd00e28060000500320052
:101ed000c1458000e880600002003200b848a900d7
:101ee0001a003700b868a90018003700e4cf500086
:101ef00016003a0012467800d2457800d2407800a9
:101f0000f1e79f0052407800d24078000205780047
:101f10005a427800c34580000304b2000300320037
:101f2000afc8bf00a0e79f000e003700fe8157003a
:101f30000441780086bf9f002afc070080007800db
:101f40000fbb9700e08f500006003a008984fb0029
:101f5000090747000e0078008a09b40000017800e4
:101f60008500370006047800010037001804780067
:101f7000e00f540004003200684090008c4f500085
:101f8000faff3a000f0037008000200086bf9f0054
:101f9000a5fa0700000478000fbb9700e00f54007b
:101fa0000f0032006c449800afe097007144980035
:101fb0000000eb001004980020049800060c780044
:101fc000080378006000200086bf9f0096fa070093
:101fd000000678000fbb9700e00f560098003a000b
:101fe0000a01e80011002000e1b79f005c00370003
:101ff0002c0498008980fb00010747005a4c8000a0
:102000000e0145008046eb000b1020004b0037000e
:102010001244780050c0b300d24f100004003200c8
:102020008880fb00010747000e0145004300370090
:1020300020022000f2b79f0086bf9f007afa0700b7
:102040007fb19700d240780021589800d2407800a4
:1020500031589800d24078000182fb00440098007b
:10206000d24078008181fb00c819dd0084814100e5
:1020700043009800124190000282fb002400980067
:102080008000eb00110098009001900003a0a000d8
:1020900013009800900190000390a0001300980096
:1020a0006011b800020898001308980001589800c1
:1020b000afe0970011589800d00990000330b200ab
:1020c0000fbb97008b8f510011003a00e00f5200b8
:1020d00002003a0012002000220098002001900027
:1020e000f00f51000200360002012000220098008b
:1020f000200190000201e900130020000219dd0018
:10210000220098001001900002a0a1001200980087
:10211000a000900031009800ac0090000108780009
:10212000200698008d46e8008880fb0001074700e4
:102130000e014500e00f5000070032005fb097002d
:10214000800f570006003100ffe0970081cf560056
:10215000afff39000200370010002000e0b79f00f9
:10216000ffe0970081cf560007003a006fb097005c
:10217000e00f500004003a00dfb09700810f5700d5
:1021800048ff39000200370010002000e0b79f0030
:10219000e00f530018003200efb09700e08f5000be
:1021a0001a00320014003700180578000b003700c1
:1021b00019007800100498000300370090007800a0
:1021c000a1049800b1fa070029009000e00f500028
:1021d000faff3a0009007800acfa07009804900072
:1021e000e08f5400f2ff3a0008007800a7fa0700d9
:1021f0000a0478000100370006047800e00f54005c
:10220000e9ff3a0008007800070037006fe0970008
:10221000aae8b7000fe897008080fb00814588009e
:10222000a6458800100020004f0778004f06be002a
:102230004f05be004f04be002f01b1000000060094
:1022400098009000010e78002b4698000000eb00eb
:10225000200698001c049800e0cf550064ff32006f
:1022600064ff37000200fa00889fbe008a1f7800d2
:10227000f8ff27001d003700f0458000228c200069
:10228000e20f500004003c000001e8006c11b900ae
:10229000208c2000000141009200780020072000df
:1022a000808f500002003200888f500004003a00f6
:1022b0000281e800a3002000adc8bf0035fe070082
:1022c000612480008c24ef00c028ed00f0458000e0
:1022d000e20f500003003c000000e800f0458800d9
:1022e00001003700be28ef0061248800004680000e
:1022f000e00f5000e0ff3a00d0448000e10f4000c2
:10230000030032009a08f800a008f9009aa8ef002c
:102310000045800008f02000080060000120200037
:10232000810f50005f01320006003e00e00f5000b8
:102330000e00320001102000810f500085033a008a
:102340007a00370001402000810f50003503320031
:102350000110b000810f50004a033200013020000c
:10236000810f50007b033a0095013700084580003b
:10237000080fb200f00f54004800320001022000a4
:10238000810f540049003200e00f540071033a00fd
:1023900032fe0700b0458000080878001800980059
:1023a0009000900001a0a000110098009000900003
:1023b0000190a000110098009000900001d0a000b2
:1023c0001100980041012000011098000104200034
:1023d000410098006011b8000208980013089800a6
:1023e000285898000858980050099000f1cf2f0005
:1023f000810061005108980080c0eb0011589800de
:1024000030c0b300f3e8b7000004fd00aae8b7004d
:10241000abe8b700ace8b7000004fd00c845880091
:10242000a84588002845880068248800f00f20000f
:1024300050248800c10820008000fd008224b600de
:102440008000fd00ef80500001248800882488006f
:1024500070248800008020004800de00c02488002e
:1024600080002000a0248800a1002000a124880072
:10247000a0248800000320003024880020002000d1
:102480003025880048258800b8248800aae4a900df
:10249000a00420000025880029033700f4c8bf00ed
:1024a000614060002b0332002503370080ff9f004e
:1024b00020c3b30090ff9f002400200005002000ef
:1024c000688157009106200000c0eb001cf907004e
:1024d000e00f50001200320010002000402488005d
:1024e0008ec0a900f00f2f00ce20b60000602000a3
:1024f000ce20b7009ec0a8000145800000ff20004c
:102500000080600070004000004588008cc4a80076
:10251000000420000024880082c4a8000d033700b6
:10252000f408a900000120000903370001458000dc
:10253000010fb20002022000828f500059003200c9
:1025400005003e00e08f50000a003200f08f50007e
:1025500000033a001300370002032000828f50006e
:102560008900320000042000808f5000f9023a00f8
:10257000ca003700004580006f006000810f5000e6
:1025800003003200e20f5000f2023a00ec02370082
:1025900010002000502488008c04a800b00f2000f8
:1025a000b202370001458000ef806000e28f5000ea
:1025b00035003200e48f500035003200e08f5000cb
:1025c000e4023a00d0458000810f50000100320043
:1025d000aef907008000200013f90700d0458800fd
:1025e000e00f500060013200aa68ef00ab68ef0016
:1025f000b828ef0030c0b300f2e8b700d0002000e8
:1026000050258800ac24ef00ae24ef00b024ef008a
:10261000b224ef00b424ef00b624ef00b824ef009a
:10262000ba24ef00bc24ef00be24ef00c024ef006a
:10263000c224ef00c424ef00c624ef00c824ef003a
:10264000a02480000008b20006003a00b808a800e4
:1026500000c8b300ace8b70000082000b024880030
:10266000aae4a8009424a8009424a900b888a9008a
:10267000b8a8a9009484a80030032000f044880082
:102680006d0040007b0237009484a900750237007a
:10269000f000200060248800f00f200080248800d3
:1026a000a702370001458000ef806000e18f5000f5
:1026b0001300320003003900e28f5000a5023a00f7
:1026c0001c003700604c8000e00f50000200320018
:1026d0006ef907008c29ef00d145800000c8b300d7
:1026e0008048780060c0b300904098000040eb0044
:1026f000a040980012c0b300b2409800e300370039
:10270000b2458000920090000120b2009102320098
:1027100092009000008060000a023200d0458000e4
:1027200040409000e94f500054023a0050c3b300bb
:1027300020023700d8458000984078000180fb00d7
:10274000b9f80700604c8800e00f50000601320025
:1027500018487800784090000080fb00b145800068
:10276000c00098000800780048f90700b0458000d4
:1027700040009000acf80700d0458800e00f500002
:102780000b013a00f800370001458000ef8060003f
:10279000e18f50003a00320003003900e28f500010
:1027a0006c023a0002013700204580007000600092
:1027b00068023a00d145800000c8b3008048780024
:1027c00060c0b300904098000040eb00a04098002b
:1027d00012c0b300b2409800c0409800d0409800aa
:1027e000624c800012417800e2409800f04098006e
:1027f000634c8000134178000282fb00b0458000ea
:10280000100190000250a1001200980010019000e9
:102810000260a10012009800100190000270a10057
:1028200012009800100190000280a1001200980090
:102830009002900002fe2f000281620012009800b8
:102840001001900002c0a100120098003308980007
:102850006011b80002089800130898000001eb000e
:1028600054009800620098007208980021089800af
:102870008100200071009800f8c04000a3013700db
:10288000b2458000920090000120b2003102320077
:102890009200900000806000a801370018fa07003d
:1028a0004200370001458000010fb20029023a00c2
:1028b000024580006f016100e10f51002e003200df
:1028c00003003900e20f510022023a002e003700c7
:1028d00010002000ade8b700d24580000149780023
:1028e00050c0b30010419800adc8bf00204198000f
:1028f0003141980041419800514198006141980050
:1029000071419800b0458000900190000350a100f3
:1029100013009800900190000360a100130098003c
:10292000900190000370a1001300980090019000a6
:102930000380a100130098001002900003fe2f00f6
:1029400083016200130098009001900003c0a10071
:1029500013009800310898006022b800040898001d
:1029600015089800540098006500980071089800b8
:102970002208980062013700b145800011019000e3
:102980000000610069013700c045800061006000ff
:102990004700dd00d18a20009140780000c070001f
:1029a000ace8b70030c0b300f2e8b70000458000e3
:1029b000080460000810b00008458800e5013700f1
:1029c00001458000010fb20000022000808f5000fe
:1029d0007a00320005003e00e08f50000a0032000d
:1029e000f08f5000db013a00160037000003200092
:1029f000808f5000bb00320070004000808f50007c
:102a0000d4013a0009013700604c8000105090005a
:102a1000f5e8b700070037001004900010007800b8
:102a20009af80700904580000008eb0097f807002f
:102a30009845880090458000e00f5000f6ff3a006e
:102a4000bf013700004580006f006000e10f5000bb
:102a50003301320003003900e20f5000bd013a009b
:102a60002d003700d145800000c8b30080487800b1
:102a700060c0b30090409800f548ed00a040980079
:102a800020c0b300b04098000040eb00c040980068
:102a9000d040980082c0b300e2409800f040980017
:102aa000b0458000100190000250a1001200980073
:102ab000100190000260a100120098001001900027
:102ac0000270a10012009800100190000280a10085
:102ad000120098009001900002fe2f000281610018
:102ae000120098001001900002c0a100120098008e
:102af000310898006011b800020898001308980087
:102b0000820020000300200052009800630098001b
:102b10000001eb0054ff370060002000c2f70700ff
:102b200000047800e00f54000f003200d945800007
:102b3000638544008984e8009a4078000180fb00a6
:102b40004800dd00194178008280fb000100400050
:102b5000b5f70700000c7800e00f500004003a00c1
:102b60000800780049f8070030c3b30011013700ae
:102b70001a4578008a80fb00c808dd009944780077
:102b80000981fb008280400021409800c808de00d7
:102b900031409800914580001104980098458800c4
:102ba000504c8800528f2000124178004244980017
:102bb00030c0b300f2e8b700610137000045800083
:102bc0006f006000e10f5000d500320003003900b3
:102bd000e20f50005f013a003b003700d245800011
:102be00000c8b3000049780060c0b30010419800ed
:102bf000f548ed002041980020c0b3003041980016
:102c00000040eb0040419800504198009045800002
:102c100010007800204090006041980090458000ae
:102c2000100078003040900070419800904580007e
:102c300090017800234090000080fb003343900017
:102c40004833dd0000037300b0458000100290009f
:102c50000450a10014009800100290000460a1002c
:102c600014009800100290000470a1001400980055
:102c7000100290000480a1001400980090029000bf
:102c800004fe2f00048262001400980010029000dd
:102c900004c0a10014009800330898006022b80016
:102ca00004089800150898008001eb005600980071
:102cb00063009800730898002208980082002000a2
:102cc000720098009100370030c0b300f2e8b700fe
:102cd000f548ed00f5e8b700190132000031200099
:102ce0001b013700004580006f00600001002000dc
:102cf000e30f5000e08f580016013e000060010015
:102d000003003700300037008500370040003700ef
:102d100045fa0700a18a200091407800e0cf5000da
:102d200010003a00b208f800f608f9000900370070
:102d300010007800504c880028fc0700e00f50007d
:102d40001a003a0038fa0700b047800010009000df
:102d5000b0478800b0478000e00f5000f4ff3a0011
:102d60001200370090458000b0478800010037000e
:102d700010009000e00f500003003200404190002e
:102d8000814f5100faff3a00b047880010007800e8
:102d9000504c880011fc070000047800e00f54003c
:102da00002003a0020fa0700b8478800c0458000ba
:102db00064006000b1003200b0478000e00f5000b6
:102dc000ae003a0017003700c04580006400600084
:102dd000db003a00b848a800d14580008048780060
:102de00032c0b30092409800c3458000e881610082
:102df000808f510002003200a2409800020037008c
:102e000040c0b300a04098000040eb001a0037001b
:102e100030c0b300f2e8b700b0478000e00f5000c8
:102e2000c7003a0040c3b30062003700004580008d
:102e30006f00600001002000e30f5000e08f580099
:102e4000c4003e000060010003003700340037007a
:102e50003e00370040003700d14580000040eb00c5
:102e60008048780092c0b30092409800a28a200067
:102e700012417800a2409800b0409800c0409800ed
:102e8000d0409800e0409800f0409800b0458000a5
:102e9000100190000250a100120098001001900053
:102ea0000260a10012009800100190000270a100c1
:102eb00012009800100190000280a10012009800fa
:102ec0009001900002fe2f00028161001200980024
:102ed0001001900002c0a100120098000002eb0057
:102ee000340898006011b800020898001308980090
:102ef0005200980063009800740898002108980018
:102f0000810020007100980001c1b30001589800b1
:102f1000900090000190a100110098005700370028
:102f2000b1458000110090000020b200e00f500079
:102f300088003200110090000010b200e00f500035
:102f40004e003a000bf807008200370030c0b30093
:102f5000f2e8b700490037000145800000f020008a
:102f6000008060000010b00000458800c04580006f
:102f70000004b20012003200f18a20009140780073
:102f800001407800a2c0b3000440bc00e0932000e0
:102f9000820140006002790033019000c30190007b
:102fa000adc8bf0004000100e00f500069003a0006
:102fb00090c3b300aee8b7000050200064003700b3
:102fc000a845800099c3b3000a50200012003700c2
:102fd000f840900001407800a2c0b3000440bc005b
:102fe000e0932000820140006002790033019000ec
:102ff000c3019000adc8bf0004000100e00f500005
:1030000004003a008004fd00aee8b7008004fd0033
:103010000a45880018047800e00f5400ecff3a00dd
:103020004c00370001458000010fb200f08f5000c6
:1030300048003a0001458000ef806000e38f5000b7
:1030400007003200e58f500041003200e18f500050
:1030500040003a009444a8005001200003003700cb
:103060009444a9009404a800b0002000f044880013
:10307000000420000024880082c4a800a028ec00de
:103080003400370000458000000fb20031003a00e4
:1030900081002000a124880060248800f10f200016
:1030a00051248800c20820000001fd008224b600df
:1030b0000001fd006f015100022488008024880077
:1030c000712488008c04a8000004200000248800db
:1030d00082c4a800aec8bf0042c3b300c1c6b300db
:1030e000824f50001000320006003e008140e80090
:1030f000e74f50000c00320081c0e8000241e900b7
:103100000600370051c6b30052c3b300824f5000cf
:1031100005003200e9c0400064414100824f500088
:103120000100320001c7b3008180fb0014002000c1
:1031300005002000028b2000adc8bf0000f607008c
:103140000145800000ff200000806000700040000a
:10315000004588004f0578004f04be000080fa004b
:1031600000000600e04f500013003a00a145800027
:103170000e00370011019000090037002200900076
:10318000040037009001900003b0a10013009800e4
:1031900010007800e00f5000faff3a0012017800aa
:1031a000e00f5100f5ff3a0091007800e08f5000e9
:1031b000f0ff3a00000006003df80700e00f500065
:1031c000030032009000900001b0a10011009800af
:1031d000000006000800fa00889fbe008a9fbe001b
:1031e00000447800014578008244780087457800e3
:1031f00060c0b300d18a200091407800814f540014
:1032000098003a000245800000f0200000016100b3
:1032100010c0b30001402000810f510091003a001e
:10322000b0458000900090000120b20000c1b300c2
:103230008c003200ebcf54001c003a00a8458000ff
:103240000100370018047800e00f540084003200b9
:10325000684090000080fb00840f5000f9ff3a00a6
:103260008400370021009000040037009000900097
:103270000120b2007a00320010007800e00f500008
:10328000faff3a00180090000100370010007800a3
:10329000e00f500072003200a04090008180fb00df
:1032a000838f5000f9ff3a0077003700e1cf5400d8
:1032b0000e003a00e08f51000c003a00e24f55003a
:1032c0000a003e000440780083bf9f0094bf9f0027
:1032d000a5bf9f00b6bf9f00a2ff07003fbb97009e
:1032e000afba97001fba97008fb99700d8458000f2
:1032f0000a4c78001944980023449800c819de004d
:1033000033449800444498004822de005444980016
:10331000654498004828de0070449800b14580005c
:103320000fe8970090589800e0cf550028003a0029
:10333000110090000050a100900098001100900032
:103340000060a10090009800110090000070a100a2
:1033500090009800110090000080a100900098005b
:103360001101900000fe2f00000061009000980005
:103370001100900000c0a10090009800b6089800cd
:103380006011b80082089800930898000000eb00d4
:10339000d5009800e0009800f0089800a808980070
:1033a00080002000f000980000c1b300e08f5200c0
:1033b0000100320000c3b300805898001100900053
:1033c0000090a100900098000040eb00250037001d
:1033d000110090000050a100900098001100900092
:1033e0000060a10090009800110090000070a10002
:1033f00090009800110090000080a10090009800bb
:103400001101900000fe2f00000061009000980064
:103410001100900000c0a10090009800b60898002c
:103420006011b80082089800930898000000eb0033
:10343000d5009800e0009800f0089800a8089800cf
:1034400082002000f20098007841410082589800e4
:10345000110190000290a100920098000100370035
:1034600030c0b3004f05be004f04be000080fa001c
:1034700000000600a800900030c0b300e08f5000ac
:1034800078ff3a00f7ff37002004980097ff3700d5
:10349000c3458000e1816100d2cdb30001003a0054
:1034a000d2c5b30014458000d40990000330b200a7
:1034b00001003a000244a100d40990000330b20098
:1034c00004102000848f510001003a000204a10082
:1034d0000281fb0052258800c28a20001241780038
:1034e0000281fb00b22488008180fb00c408dd005b
:1034f000f007b20000807000f0248800a488a800c3
:1035000000000600e94f50000f003a00c04580005f
:10351000700060004180200001003a00018020001e
:10352000c24580004411de000281ea0061016100b1
:103530004411dd00c04580000040a1000200700081
:10354000c045880023003700c24580000202b20057
:10355000c180200001003a00e4805000c345800093
:10356000c519de008381ea00e1816100c519dd0033
:10357000c24580000250a10003017100c2458800cd
:10358000ed4f500013003a0010458000700290008b
:10359000000b9000900b900040019000050020006f
:1035a0000602520087825a0003002000820f520058
:1035b000838f5a0002003600400190001e00370041
:1035c00070029000000990009009900002015200e2
:1035d0001900370010458000500990000230b200f9
:1035e00003102000830f51000b00320050039000a5
:1035f000e0039000000a9000900a900040019000c3
:103600000402530085825b0003002000820f5200f9
:10361000838f5a0002003600400190002f003700cf
:1036200050029000e0029000000990009009900084
:1036300002015200290037002008900090009800f5
:103640000e003700b0099000300890001042900042
:103650000482fb000402e8006622b900e3017a005c
:103660009300980005003700b0099000000a900010
:10367000900a900004824100940098000040eb0002
:1036800090409800f23fb20000c02f00110060008f
:1036900002017000820878001045800090019000bf
:1036a000cb19de00e1816100ce19dd0002e0a1004e
:1036b0000301710082087800100090004a00de00cb
:1036c000610060004b00dd0002b0a100000171004c
:1036d000000028008008710000000600d00990005a
:1036e0000330b20004102000848f5100deff3a0046
:1036f000d4ff3700e4874700889fbe008a9fbe0042
:103700008c9fbe008e1f7800004580002a458000f7
:1037100070056500ef013a0029458000e1846400ee
:103720008a8f5400c9003a000940780067f7070003
:10373000890f5000c40032001845800008589000de
:10374000000fb20001022000810f50002200320061
:10375000f0804000810f50003b003200f00f50001d
:10376000d5013a00085890006f006000e10f50004a
:103770000900320003003c00890f5000ce013a00de
:1037800045003700e20f500011003200ef0f5000eb
:10379000c9013a007d0037000808900098089000a1
:1037a00050049800610498001800900000b0a00038
:1037b0001004980090c0b30052ff070028589000f2
:1037c00091c0b30032ff0700a408a800c101370070
:1037d000095c980044003700085890006f006000b2
:1037e000cf80de00006001002b003700f1ff3700c2
:1037f0000d0037003a003700af013700ae01370047
:10380000ad013700ac013700ab013700aa0137002a
:10381000a9013700a8013700a7013700a60137002a
:10382000a501370059003700080b9000980b900055
:1038300056049800670498001800900000b0a0009b
:10384000100498001c003700085890006f006000ba
:10385000cf80de00006001000f0037001600370047
:103860001a0037001e00370093013700920137001d
:1038700091013700900137008f0137008e0137002a
:103880008d0137008c0137008b0137008a0137002a
:10389000890137003d0037001800900000b0a100fa
:1038a00010049800d0c0b30016ff070028589000fd
:1038b000d1c0b300c3ff370010c0b30011ff070031
:1038c0002858900011c0b300beff3700080b9000cd
:1038d000980b90005604980067049800b2ff3700d8
:1038e0000040eb00005c9800180090000090a000e1
:1038f0001004980000468000e30f50004f003c0089
:103900000000e80000468800e0458000e20f50001b
:1039100003003c000000e800e0458800010037009b
:10392000bc28ef00e24580006c10b900230720009e
:10393000218c2000833078008180e8008080400066
:10394000080a9000980a90008488be000201e800ee
:103950006c11b900c18b2000b80a90008530790045
:103960006e814000000141008040eb001141980051
:10397000285b900006497800c18c20000080400040
:10398000b85b900007487800290037000040eb0042
:10399000005c9800180090000090a00010049800af
:1039a00000468000e30f500024003c000000e800c7
:1039b00000468800e0458000e20f500003003c0014
:1039c0000000e800e045880001003700bc28ef0057
:1039d000e24580006c10b900f3ff2700218c200025
:1039e000833078008180e800808040008008eb0010
:1039f000b11078000201e8006c11b900c18b200001
:103a0000028140000009eb00ee8040008080400011
:103a10004859900092409800285a900084487800b5
:103a2000c18c200000804000b85a90000548780002
:103a3000185c9000184098000200370080c0b30066
:103a4000305c98000005eb00a408a8002045800029
:103a50006200600087003a007b0037001845800054
:103a600008589000000fb20002042000820f50009e
:103a70000400320070014100820f500068003a00db
:103a800009003700085890006f006000e10f5000f7
:103a90000e003200ef0f500036003200e00f5000f1
:103aa0005f003a0093003700085890006f006000f4
:103ab000e10f500005003200ef0f50002d003200e2
:103ac000e00f500056003a0097003700015c980064
:103ad0002803900036049800180090000090a00081
:103ae0001004980000468000e30f500047003c009f
:103af0000000e80000468800e0458000e20f50002a
:103b000003003c000000e800e045880001003700a9
:103b1000e1458800e24580006c10b90021072000d3
:103b20008136780080004600080a9000980a9000cc
:103b30008488be000201e8006c11b900c18b20002e
:103b4000b80a900085307900008145008040eb0084
:103b500011419800285b90000649780000804400dd
:103b6000b85b900007487800185c900018409800f7
:103b700028003700015c980028009000300498006d
:103b8000180090000090a0001004980000468000eb
:103b9000e30f50001d003c000000e80000468800d4
:103ba000e0458000e20f500003003c000000e80008
:103bb000e045880001003700e1458800e2458000cb
:103bc0006c10b9008e367800800046008008eb004b
:103bd000b11078000201e8006c11b900c18b20001f
:103be000028140000009eb008080450048599000a8
:103bf00092409800285a9000844878000080440041
:103c0000b85a900005487800d7ff370080c0b3004d
:103c1000305c9800e00f55001000320001003700c2
:103c20001a002000104580008040eb0001589800e9
:103c30002003900036009800900090000190a000b2
:103c400011009800050037002d8c20000d86e8003b
:103c5000e60546008b84e800feff270030c0b30075
:103c60001af607008000eb00810f50007bff3a003e
:103c7000a428a8002e8c20008e86e80066864600c8
:103c80008c85e800f4ff270029458000e884640063
:103c900090003a0020c0b30084bf9f000bf60700dd
:103ca0000fba9700890f50007d0032001845800040
:103cb00008589000000fb20001082000810f50004a
:103cc00004003200f0804000810f50006d003a0087
:103cd0000d003700085890006f006000e10f5000a1
:103ce00017003200ef0f50003d003200e00f50008f
:103cf00064003a0090c0b30002fe0700285890000c
:103d000091c0b3000c003700085890006f006000ad
:103d1000e10f50000a003200ef0f50003000320077
:103d2000e00f500057003a0010c0b300f5fd070047
:103d30002858900011c0b300d5fd0700650037007a
:103d4000095c9800180090000090a00010049800f2
:103d500000468000e30f500045003c000000e800f2
:103d600000468800e0458000e20f500003003c0060
:103d70000000e800e045880001003700e9458800c0
:103d8000e24580006c10b90021072000013778005f
:103d900080804600080b9000980b90008688be003b
:103da0000201e8006c11b900c18b2000b80b900033
:103db00087307900000146008040eb0011419800f7
:103dc000a8589000014978000080450038599000bb
:103dd00002487800185c90001840980026003700d0
:103de000095c9800180090000090a0001004980052
:103df00000468000e30f50001d003c000000e8007a
:103e000000468800e0458000e20f500003003c00bf
:103e10000000e800e045880001003700e94588001f
:103e2000e24580006c10b9000437780080804600bd
:103e30008008eb00b11078000201e8006c11b900b5
:103e4000c18b2000028140000009eb008000460089
:103e5000c85a900095409800285b900086487800ea
:103e600000804500b85b900007487800d9ff370014
:103e700080c0b300305c9800e00f550008003200ad
:103e8000010037001a002000104580008040eb0040
:103e900001589800900090000190a0001100980037
:103ea000a7c8bf0002003200a668ef0076ff370007
:103eb000a468a800070037000040eb00005c9800f1
:103ec000180090000090a000100498001a00200034
:103ed000ddfe37004f0778004f06be004f05be00dd
:103ee0004f04be004f00b10000000600b045800046
:103ef000900090000120b200100020001400320059
:103f0000a04580000e0037009000900009003700a7
:103f10002101900004003700920190000320b200bc
:103f20000a00320012017800e00f5100faff3a0057
:103f300091007800e08f5000f5ff3a001000780003
:103f4000e00f5000f0ff3a000000060010002000d3
:103f500000000600881f78000144780062c0b300aa
:103f6000d18a200091407800814f500014003a001f
:103f70000145800000f020008080600012c0b30086
:103f800000402000808f50000d003a00d7ff07004e
:103f900022c0b300e00f500009003a000004fd0009
:103fa000aae8b7000004fd0080c0eb00b245800025
:103fb0001159980001332000014588000041780024
:103fc000024078004f047800000006003600f80038
:103fd000809fbe00829fbe00849fbe00869fbe0061
:103fe0008ec0a900102480000004b2001800320026
:103ff000002480000004b2001500320000042000fc
:10400000002488009c28ec008001eb00c28920007d
:10401000a10720000340780056f70700f044800015
:10402000e00f50000a0032009e28ed00f0448000ae
:10403000e00f500006003a000245800001f0200029
:1040400081006100808f500001003200a028ec0048
:10405000602480000004b2000c0032005024800074
:104060000004b200090032008cc4a9000004200042
:10407000502488000145800070005000808f50005f
:1040800002003a0000102000d04488006024800024
:104090006100600007003200502480006100600071
:1040a0000400320010002000502488008c04a90075
:1040b0009a28ef006024800068006000ca00320087
:1040c0005024800068006000c70032006024800037
:1040d000620060000900320050248000620060002d
:1040e0000600320010458000500890000030b200f9
:1040f00001102000810f5000bb003a00a488a900e5
:104100009324800080002000502488001045800007
:10411000a0589000f224800081006900ef806000c8
:10412000b0003a0068816100e4816100810f5100b4
:104130000400320081802000e08f51000500320031
:104140000300370001802000828f510001003200ff
:10415000e480400002c023001101610003802000c0
:10416000830f510029003a00f43f20001102620041
:10417000000990009009900004014100e08149008d
:1041800002089800130898008000eb00710898005e
:10419000100190004b11de000281ea006101610014
:1041a0004b11dd009000900001b0a10082807000f2
:1041b0001100980080589000f0cf500008003200a5
:1041c0000059900001c2b300814f51000400320039
:1041d00000599000f0c04000814f510024003a0087
:1041e000000a9000900a90007001900003002000e7
:1041f000820f5200838f5a007a0039006011b80094
:1042000002089800130898005300370003c02000ec
:10421000830f51000300320003c02200830f5100be
:1042200023003a00f43f20001102620000099000d0
:104230009009900004014100e081490002089800c3
:10424000130898008000eb0071089800100190009e
:104250004b11de000281ea00610161004b11dd00bb
:104260009000900001b0a1008280700011009800c1
:10427000d00890000130b20002102000828f500060
:1042800032003200c0009000810f52002f00390030
:10429000000a9000900a900050019000e001900008
:1042a000820f5200838f5a004e00390027003700da
:1042b00001802200810f51002a003a0090009000f6
:1042c00001c0a00011009800f00890008100e800f3
:1042d00071089800d0089000c808de00e3806000f4
:1042e000e28f500008003200e38f500003003200dc
:1042f000e18f500004003a0014003700a0589000ed
:10430000e0cf5000110035001001900001002200a4
:10431000810061003300320070099000801090002d
:10432000810f51002f003600900090000160a00026
:104330001100980071c1b300415898008058900056
:10434000f140b3000158980026003700900090001b
:104350000180a00011009800805890008140e80082
:10436000f8ff370001802300810f510005003a005b
:10437000900090000150a0001100980011c1b300fe
:10438000edff3700900090008140e8007f816000e1
:104390009001900001fe2f008180610082807000fa
:1043a0001100980090009000ff806000f38f500093
:1043b0000c003400900090000160a00011009800f3
:1043c000310120004158980080589000f140b3001e
:1043d00001589800f00f2000702488002000200071
:1043e00050248800c3fc0700602480006400600043
:1043f0002b0032005024800064006000280032004e
:104400004000200050248800a14580000430200096
:10441000031020001800370021009000e00f50002a
:104420001400320020009000100037005009900066
:104430000230b200840f510002003200830f51009d
:1044400006003a0030019000e00f510003003200f6
:10445000300190000201e900320098001001900044
:1044600002c0a1001200980010007800e00f500078
:10447000eeff3a0091007800e08f5000e6ff3a002e
:10448000a408a900a428a900a448a900a468a90018
:104490008000fd00a6e8b7008000fd0095fc070045
:1044a00060248000620060004300320050248000dd
:1044b0006200600040003200a488a900104580001e
:1044c000d00890000130b20002102000828f50000e
:1044d00035003200900090008140e8007f8160004c
:1044e0009001900001fe2f008180610082807000a9
:1044f0001100980090009000ff806000f38f500042
:1045000029003400712480000108b200020032004a
:1045100001c2b30041589800712480000102b2002a
:104520000200320011c2b30041589800712480008b
:10453000f08060000200320021c2b30041589800b0
:1045400071248000e88060000200320031c2b300b4
:104550004158980071248000e4806000020032001d
:1045600041c2b3004158980071248000e28060008d
:104570000200320051c2b3004158980071248000fb
:10458000e18060000200320061c2b300415898002f
:10459000900090000160a0001100980080589000e9
:1045a000f140b30001589800f00f200070248800fb
:1045b00020002000502488004f03be004f02be00a0
:1045c0004f01be004f00be003600f900004006005b
:1045d000010278000203780090409000811f78006b
:1045e0008043eb00830278008001eb0042c3b300fc
:1045f00001c4b30010407800f6fa07008f87e90085
:1046000000000600020120008000eb00a0972000bf
:10461000daf1070000000600881f78000004780027
:1046200060c0b300e00f54001a0032001843780055
:10463000e04f5300170032005802900010c0b30042
:10464000ec0f520013003a00780290006102620001
:1046500000c1b3000f003a000202be000101780061
:10466000a84090000640780015f50700e04f500084
:1046700002003200f04f500003003a00f8009000b2
:104680000100a00002003700f80090000100a10026
:10469000710498004f04780000000600881f78001d
:1046a000000478008201780060002000e00f5400d0
:1046b0001300320018427800e04f52001000320020
:1046c0005801900010002000ec0f51000c003a003f
:1046d00001017800a8409000044078000bf3070027
:1046e000000178000000eb00e10f510004003a00e7
:1046f000f80090000100a100710498000200780009
:104700004f04780000000600889fbe008a9fbe000c
:104710008c1f780000057800010678000200be00ba
:1047200063c0b300e00f5500250032009a457800c1
:10473000e0cf5500220032005a01900013c0b300b0
:10474000ec0f51001e003a007a01900062016100f6
:1047500003c1b3001a003a004a0490000900200087
:1047600003c5b300880f5000898f5800140039002a
:104770000801be0096f007000801be00a4f0070083
:104780000002be000c017800ea4090000b40780067
:104790006df4070080417800e0cf51000200320044
:1047a000f0cf510003003a007a0090000010a00002
:1047b000020037007a0090000010a10070059800f8
:1047c000034078004f0678004f05be004f04be003e
:1047d00000000600881f780000047800820178003d
:1047e00060002000e00f54001300320018427800ef
:1047f000e04f5200100032005801900010002000dd
:10480000ec0f51000c003a0001017800e8409000e4
:1048100004407800bdf20700000178000000eb00c2
:10482000e10f510004003a00f80090000110a100cf
:1048300071049800020078004f0478000000060020
:104840000800fa00204c80000100200061005000a8
:10485000e0805800ea0f5000e08f5800a5003e00ad
:10486000006001000a003700090037001800370017
:104870002b0037003d0037004f0037006100370044
:10488000730037008e0037009a0037009100370020
:1048900066815700e88057007ac9bf00cf01070042
:1048a000e10f500093003a00504b8000a04190006f
:1048b0008381fb00100178008000eb00a0972000ae
:1048c00043ff07008849a80030002000120037008d
:1048d000404c80006400600086003a00668157000a
:1048e000e88057007ac9bf00bc010700e10f500003
:1048f00080003a00514b8000e14190008381fb0031
:104900002101900080007800a097200030ff070070
:104910008849a80040002000204c8800750037001e
:10492000404c80006400600072003a0066815700cd
:10493000e88057007ac9bf00a8010700e10f5000c6
:104940006c003a00504b8000a04990008381fb002e
:104950004001900021002000a09720001cff0700cc
:104960008849a80050002000ebff3700404c800031
:10497000640060005f003a0066815700e8805700dd
:104980007ac9bf0095010700e10f500059003a00b5
:10499000504b8000e04990008381fb006001900053
:1049a00031002000a097200009ff07008849a800d7
:1049b00060002000d8ff3700404c80006400600099
:1049c0004c003a0066815700e88057007ac9bf0062
:1049d00082010700e10f500046003a00504b800072
:1049e000a05190008381fb0000099000410020004d
:1049f000a0972000f6fe07008849a800700020005c
:104a0000c5ff3700404c80006400600039003a0068
:104a100066815700e88057007ac9bf006f01070020
:104a2000e10f500033003a00504b8000e0519000fd
:104a30008381fb002009900051002000a0972000f6
:104a4000e3fe07008849a80080002000b2ff37007d
:104a5000464c80006403630026003a0066815700dc
:104a6000e88057007ac9bf00f6bf9f005b010700ce
:104a70007fbb9700e10f50001e003a00c05d200090
:104a8000304c88007bc9bf00801f780086437800c7
:104a900086027800060278008601780052c3b300cf
:104aa00001c4b3007ac9bf00caf907008849a80049
:104ab00090002000204c88008f87e9000d0037000f
:104ac000404c8000640060000a003a00a000200012
:104ad00091ff3700c0002000204c880024002000f7
:104ae00005002000a2972000017122007ac9bf00b2
:104af00093ef07000080fa00000006000200fa00b1
:104b000000427800604c8000e80140009342780049
:104b1000e5ff9f0090499000f3ff9f00138d210057
:104b20007fbb9700830f53000d003a006a004000de
:104b300090437800e7ff9f0010409000f0ff9f0037
:104b400000302d00ffb9970000804100e10f5000b8
:104b500003003e00204c8000ea0f500007003200a6
:104b60000000eb00234c8000808f510008003a00c9
:104b700061016100800f510002003200b00020008e
:104b80000100370010002000204c8800a097200072
:104b9000524c80008281e80093427800e5ff9f003c
:104ba000b2419000f3ff9f007fbb97008602410057
:104bb000924378008781fb00050037009241900006
:104bc000e4cf510004003200124378008681fb00dc
:104bd000030141002d00370004487800114098007f
:104be000d2419000924378000783fb00e1cf41005f
:104bf00025003a00e243900083cf530022003a00a0
:104c0000f2419000e0cf51001f003a000601410040
:104c100017003700e5cf510012003a00a241900082
:104c2000e0cf510008003d006340980052439000df
:104c30004833dd00c24190008381fb0083014300c3
:104c4000430098000700370023409800524390002b
:104c50004833dd00c24190008381fb0083014300a3
:104c600023009800124378008681fb000301410075
:104c700092419000e4cf510004003200850f5100b2
:104c8000e4ff39000100370006014100850f5100a3
:104c9000caff39000080fa0000000600881f780073
:104ca0001800200030072000808f50001a003200ca
:104cb00067004000808f500016003a00204c8000b2
:104cc000ea0f500014003a00314c8000e08f500091
:104cd00011003200888f50000b003a0024002000a1
:104ce00005002000a2972000117122007ac9bf00a0
:104cf00013ef0700020120008000eb00a0972000c6
:104d00001ef00700040037008100e900314c8800e4
:104d1000010037000004eb00080078004f04780021
:104d200000000600881f780013072000838f5000c2
:104d30001600320006003e00e08f500011003200e5
:104d40005106b100e18f500037003e000d003700e2
:104d500063072000838f500007003e008381e90035
:104d6000838f5000070031008381e900838f50005a
:104d70002d003a0030003700f0ff2700808f5000f0
:104d800029003a001800200028003700a2972000d0
:104d90001241780018002000804f510023003a0093
:104da000204c8000e90f500002003a00a0002000d3
:104db000204c880018002000204c8000ea0f500092
:104dc0001a003200c197200091407800024078001c
:104dd00081f1070001982000914078007ac9bf0056
:104de0007df107002400200005002000a29720008c
:104df000117122007ac9bf00d1ee07000201200024
:104e00008000eb00a0972000dcef070007003700d0
:104e10006240900018002000e04f500003003a006c
:104e20008849a900010037000004eb000800780061
:104e30004f04780000000600a19720009140780000
:104e400080cf5000f8ff3a00f1ff3700504b880048
:104e5000e20020008000eb00c0962000c7ef0700b2
:104e6000e8fd0700000006000002be0060c0b300bd
:104e7000a14b8000810f520007003a007209ed003b
:104e80007200b9000080e8006171280061037800b9
:104e90000400be000600010000000600a34b8000d5
:104ea000830f500008003a00944b80000402e90090
:104eb0007222b9006402420063712800e3017a00a3
:104ec000030001000000060060c0b30080487800c5
:104ed0000009eb0032117800100005000002be004e
:104ee00060c0b300a14b8000810f520007003a0060
:104ef0007209ed007200b90066004000617128007f
:104f0000610378000400be000600010000000600f6
:104f1000a34b8000830f500008003a00944b8000a0
:104f20000402e9007222b90068024200637128009d
:104f3000e3017a00030001000000060060c0b30036
:104f4000804878000009eb0032117800100005005d
:104f50000103780090409000811f780017c0b300d3
:104f6000250020000002eb008401780032c3b3006a
:104f700001ccb3001040780096f807008f87e90055
:104f800000000600c04b800001002000e40f50002c
:104f9000e08f58000e003e00006001000d00370059
:104fa000030037000b003700090037000900370005
:104fb00021972000c0962000e5ff0700e04f500039
:104fc00004003a0020002000c04b88000100370098
:104fd0007829ef001afe0700000006008201780021
:104fe000010178008040eb00c8f0070000000600d7
:104ff000881f7800c44b8000e00f52000b00320085
:10500000984b80000000eb00e10f54001f003a00b5
:10501000b04b8800d196200091407800724b800000
:10502000834b80006cc9bf000e0037006103610034
:1050300018002000840f53000d003200984b8800a8
:10504000b44b8800724b8800834b880044002000da
:10505000c44b88008000fd006de9b7008000fd00b2
:105060006ce9b700a5fe0700a04b880006003700da
:10507000c84b88006ce9b700724b8800834b8800ee
:10508000010078006de9b700080078004f0478004f
:1050900000000600889fbe008a9fbe008c1f78001b
:1050a00080457800020678000404be001a00200043
:1050b00030072000808f50001a0032006700400047
:1050c000808f500016003a00b14b8000e08f5000f6
:1050d000090032008a8f500005003a00e2002000eb
:1050e0008000eb00c096200024ef0700020037008c
:1050f0008100e900b14b88001a002000904b80002d
:105100008a0f500007003a000802be000c01780028
:10511000a10720000b407800e0fe070001003700e7
:105120000005eb000a0078004f0678004f05be002e
:105130004f04be0000000600889fbe008a1f780052
:10514000804478000104780002057800c04b80009c
:10515000e40f50000a003a006cc9bf00894f5000ac
:1051600007003a00904b8000e10f500004003a0025
:105170000a0178008800780009407800e9fe0700fd
:1051800010072000800f54001600320006003e0079
:10519000e00f5400110032005806b100e10f540036
:1051a00039003e000d00370060072000800f5400da
:1051b00007003e000080e900800f54000700310026
:1051c0000080e900800f54002f003a001d003700d6
:1051d000f0ff2700800f54002b003a001a00200037
:1051e0002a0037001a0020006cc9bf00894f500008
:1051f00026003a00c04b8000e40f500006003a0041
:10520000904b80008a0f500020003a00c05d2000c3
:10521000b04b88001d00370024002000050020004e
:10522000a24b80008800780009407800c4ed070098
:10523000e20020008000eb00c0962000cfee0700c7
:10524000120037006a4090001a002000e04f500022
:105250000e003a00c04b8000e20f50000b003a00f5
:1052600040002000c04b8800d1962000914078007b
:10527000724b8000834b80006cc9bf001ffe07008b
:10528000a04b8800010037000005eb000a00780001
:0c5290004f0578004f04be00000006002f
:020000040000fa
:10529c00100800008a0000000200000028081a0014
:1052ac000042080015005700081a0000710804009d
:1052bc000075080021009600080400004d69630089
:1052cc00726f6300686970002054650063686e003b
:1052dc006f6c6f0067792000496e63002e004200ee
:1052ec0061736900632041006363650073736f0031
:1052fc007279200044656d006f0050004943320004
:10530c0034464a00363447004235300032204d00d6
:10531c00696372006f73740069636b0000322e0056
:10532c0030006800747470003a2f2f007777770084
:10533c002e6d690063726f0063686900702e6300e4
:10534c006f6d2f00616e6400726f690064004e0017
:10535c002f410000f808000046000000000000008b
:10536c003e0900002c00000002000000f8279c0001
:10537c00284a28000000000000f827009c284a005a
:10538c00280100000000d10018002d0000010000d1
:10539c0000d11800012d000001000000ffffff00ec
:1053ac00ff000000000000008a090000040000005b
:1053bc000200000000000000000000009a0800003d
:1053cc005e0000000000000000080000100000005b
:1053dc00000000006a09000010000000000000003e
:1053ec007a09000010000000000000008e09000087
:1053fc0010000000000000009e09000002000000e8
:08540c00000000000000000098
:00000001FF
