:020000040000FA
:0600000065EF6FF0120035
:0600080004EF50F01200AD
:060018000CEF50F0120095
:06A0000065EF6FF0120095
:02A00600120046
:06A008001CEF50F01200F5
:06A0180025EF50F01200DC
:02A01E0002003E
:10A02000E6DE0000B00E00000B0000006DD900005D
:08A03000BF0E0000010000005A
:08A03800DACFE4FFE2CFDAFF0A
:10A04000E652E552E5CFDAFF1100D8CFE4FFE0CFCA
:10A05000E4FFE46EDACFE4FFE2CFDAFFE652E55246
:10A06000E5CFDAFFE550E5CFE0FFE5CFD8FF100000
:10A07000B5DA4AEC5BF0F2DAFCD712000E01B5510A
:10A080000B0A01E169D2010A01E103D2030A01E1ED
:10A09000FAD1010A01E193D10F0A01E18AD1010A43
:10A0A00001E123D1030A01E11AD1010A01E1B2D091
:10A0B000070A01E1A9D0010A3EE0030A36E0010ADD
:10A0C00001E050D264EC64F0E66A49EC65F0E552D8
:10A0D000E66AE66AE66A360EE66ED20EE66E00ECD8
:10A0E00067F00B6E050EE15E0B50E66AE66A010E44
:10A0F000E66E200EE66ED20EE66E00EC67F00B6E9A
:10A10000050EE15E0B50E66AE66A060EE66E0A0E82
:10A11000E66ED20EE66E00EC67F00B6E050EE15EA9
:10A120000B500E01010EB56F1DD21DDA010802E1C0
:10A130000E01B52B17D2E66A49EC65F0E552E66AE6
:10A14000E66AE66AF40EE66ED10EE66E00EC67F0A3
:10A150000B6E050EE15E0B50E66AE66A010EE66ED6
:10A16000DE0EE66ED10EE66E00EC67F00B6E050EAD
:10A17000E15E0B50E66AE66A020EE66EC80EE66E17
:10A18000D10EE66E00EC67F00B6E050EE15E0B5033
:10A19000E66AE66A030EE66EB20EE66ED10EE66E73
:10A1A00000EC67F00B6E050EE15E0B50E66AE66AA6
:10A1B000040EE66EB20EE66ED10EE66E00EC67F0AF
:10A1C0000B6E050EE15E0B50E66AE66A050EE66E62
:10A1D000B20EE66ED10EE66E00EC67F00B6E050E69
:10A1E000E15E0B50E66AE66A060EE66E0A0EE66E61
:10A1F000D20EE66E00EC67F00B6E050EE15E0B50C2
:10A200000E01030EB56FAED1AED9010802E10E0109
:10A21000B52BA8D1E66AE66AE66A9C0EE66ED10E18
:10A22000E66E00EC67F00B6E050EE15E0B50E66A21
:10A23000E66A010EE66E860EE66ED10EE66E00EC64
:10A2400067F00B6E050EE15E0B50E66AE66A020EE1
:10A25000E66E700EE66ED10EE66E00EC67F00B6EE9
:10A26000050EE15E0B50E66AE66A030EE66E5A0ED4
:10A27000E66ED10EE66E00EC67F00B6E050EE15E49
:10A280000B50E66AE66A040EE66EB20EE66ED10E7A
:10A29000E66E00EC67F00B6E050EE15E0B50E66AB1
:10A2A000E66A050EE66EB20EE66ED10EE66E00ECC4
:10A2B00067F00B6E050EE15E0B50E66AE66A060E6D
:10A2C000E66E0A0EE66ED20EE66E00EC67F00B6EDE
:10A2D000050EE15E0B500E01050EB56F43D143D95B
:10A2E000010802E10E01B52B3DD1E66AE66AE66A95
:10A2F000440EE66ED10EE66E00EC67F00B6E050EB6
:10A30000E15E0B50E66AE66A010EE66E2E0EE66E20
:10A31000D10EE66E00EC67F00B6E050EE15E0B50A1
:10A32000E66AE66A020EE66E180EE66ED10EE66E7C
:10A3300000EC67F00B6E050EE15E0B50E66AE66A14
:10A34000030EE66E020EE66ED10EE66E00EC67F0CE
:10A350000B6E050EE15E0B50E66AE66A040EE66ED1
:10A36000EC0EE66ED00EE66E00EC67F00B6E050E9E
:10A37000E15E0B50E66AE66A050EE66EB20EE66E28
:10A38000D10EE66E00EC67F00B6E050EE15E0B5031
:10A39000E66AE66A060EE66E0A0EE66ED20EE66E15
:10A3A00000EC67F00B6E050EE15E0B500E01B52B55
:10A3B000D9D0D9D8010802E10E01B52BD3D0E66A75
:10A3C000E66AE66AD60EE66ED00EE66E00EC67F040
:10A3D0000B6E050EE15E0B50E66AE66A010EE66E54
:10A3E000C00EE66ED00EE66E00EC67F00B6E050E4A
:10A3F000E15E0B50E66AE66A020EE66EAA0EE66EB3
:10A40000D00EE66E00EC67F00B6E050EE15E0B50B1
:10A41000E66AE66A030EE66E940EE66ED00EE66E0F
:10A4200000EC67F00B6E050EE15E0B50E66AE66A23
:10A43000040EE66E7E0EE66ED00EE66E00EC67F061
:10A440000B6E050EE15E0B50E66AE66A050EE66EDF
:10A45000B20EE66ED10EE66E00EC67F00B6E050EE6
:10A46000E15E0B50E66AE66A060EE66E0A0EE66EDE
:10A47000D20EE66E00EC67F00B6E050EE15E0B503F
:10A480000E01B52B6FD06FD8010802E10E01B52B7C
:10A4900069D0E66AE66AE66A680EE66ED00EE66E97
:10A4A00000EC67F00B6E050EE15E0B50E66AE66AA3
:10A4B000010EE66E520EE66ED00EE66E00EC67F010
:10A4C0000B6E050EE15E0B50E66AE66A020EE66E62
:10A4D0003C0EE66ED00EE66E00EC67F00B6E050EDD
:10A4E000E15E0B50E66AE66A030EE66E260EE66E45
:10A4F000D00EE66E00EC67F00B6E050EE15E0B50C1
:10A50000E66AE66A040EE66EB20EE66ED10EE66EFE
:10A5100000EC67F00B6E050EE15E0B50E66AE66A32
:10A52000050EE66E100EE66ED00EE66E00EC67F0DD
:10A530000B6E050EE15E0B50E66AE66A060EE66EED
:10A54000FA0EE66ECF0EE66E00EC67F00B6E050EAF
:10A55000E15E0B500E01B52B06D8010802E10E0199
:10A56000B52B00D0120081B01FD00E01B7CE0BF07A
:10A57000B8CE0CF0B9CE0DF0BACE0EF0B72B000E5F
:10A58000B823B923BA23D880580E0B541B0E0C5491
:10A59000000E0D54000E0E5406E2B76BB86BB96B8B
:10A5A000BA6B010EB66F11D00E01B6050EE1B751B0
:10A5B000B811B911BA1104E1B66B010E08D005D07B
:10A5C000B707000EB85BB95BBA5B000E00D0120093
:10A5D000CADF010801E1FF0000D01200D9CFE6FF79
:10A5E000E1CFD9FF020EE1260F0EC112580EDE6E2A
:10A5F000020EDD6E9B8CDFCF0BF0DF06010EDBCF92
:10A600000CF001E2DB060B500C1001E0F4D70F0157
:10A6100048694969BAEC5AF00AD8020EE15C02E2D4
:10A62000E16AE552E16EE552E7CFD9FF120086EC10
:10A630006AF0F1EC6AF026EC69F015EC6FF00E01AF
:10A64000B16BB26BB36BB46B0E01946B956B846B97
:10A65000856B866B876B9A6B9B6B1200D9CFE6FF7D
:10A66000E1CFD9FF110EE126FF0E0E01B55D01E12C
:10A67000AFDF200E0001E76E6019E8AE02D0E734CC
:10A6800002D0E750605D03E36550020B02E081EF0A
:10A6900057F0A5EC6DF0000902E181EF57F0EEDC18
:10A6A0000E01B151B21102E1000E08D0B1CEE9FFA6
:10A6B000B2CEEAFFEF50800B01E0010E000902E08C
:10A6C00081EF57F00E010451430A01E1D4D3010A8E
:10A6D00001E187D3030A01E104D3010A01E186D233
:10A6E000730A01E1ABD1010A01E169D1030A01E179
:10A6F00027D1010A4EE0100A06E0A00A01E0EED3DD
:10A70000F1EC6AF0EBD30E01B351B41102E1000E8B
:10A7100008D0B3CEE9FFB4CEEAFFEF50800B01E0E2
:10A72000010E000935E1C30EC2141009C26E9E9CD1
:10A73000C2829EACFED7C3CFDEFFC4CFDDFF0E01C9
:10A74000200E446FDFCF45FEDECF0BF0DDCF0CF0E7
:10A750000CC00BF00C6A0BC046FE400EE66E440EB9
:10A76000E66E0E0EE66E010EE66EE66E56EC5CF0E0
:10A770000B6E050EE15E0B50F3CFB3FEF4CFB4FECB
:10A78000DE500E01A127DD50A223D890A233A133C1
:10A79000A5D30E01B351B41102E1000E08D0B3CE1F
:10A7A000E9FFB4CEEAFFEF50800B01E0010E000993
:10A7B00001E0C5D0E66A89EC6AF0E552020EF3CFFB
:10A7C000DBFF030EF4CFDBFF0E01300E446F020EF1
:10A7D000DBCF45FEDBCF0BF0030EDBCF0CF00CC064
:10A7E0000BF00C6A0BC046FE400EE66E440EE66EA1
:10A7F0000E0EE66E010EE66EE66E56EC5CF00B6E2B
:10A80000050EE15E0B50F3CFB3FEF4CFB4FE0E01A4
:10A81000B5510A0801E362D30E019A5101E05ED3FB
:10A82000D950020FE96EDACFEAFFEE0ED880EE546F
:10A83000020EED5403E29B6BA7DB50D3020EDBCF7D
:10A840000BF0030EDBCF0CF0580E0B5C020E0C5815
:10A8500076E2955174E184CE90FE85CE91FE86CE4F
:10A8600092FE87CE93FE010E956F945165E1E66AE4
:10A8700049EC65F0E552E66AE66AE66AB20EE66E13
:10A88000D10EE66E00EC67F00B6E050EE15E0B502C
:10A89000E66AE66A010EE66EB20EE66ED10EE66E6E
:10A8A00000EC67F00B6E050EE15E0B50E66AE66A9F
:10A8B000020EE66EB20EE66ED10EE66E00EC67F0AA
:10A8C0000B6E050EE15E0B50E66AE66A030EE66E5D
:10A8D000E40EE66ECF0EE66E00EC67F00B6E050E32
:10A8E000E15E0B50E66AE66A040EE66ECE0EE66E98
:10A8F000CF0EE66E00EC67F00B6E050EE15E0B50BE
:10A90000E66AE66A050EE66EB80EE66ECF0EE66EF5
:10A9100000EC67F00B6E050EE15E0B50E66AE66A2E
:10A92000060EE66EB20EE66ED10EE66E00EC67F035
:10A930000B6E050EE15E0B500E01010E9B6FCED229
:10A940000E01B351B41102E1000E08D0B3CEE9FFFD
:10A95000B4CEEAFFEF50800B01E0010E00092EE1BA
:10A96000010EE66E89EC6AF0E552040EF3CFDBFFD0
:10A97000050EF4CFDBFF0E01310E446F040EDBCF6A
:10A9800045FEDBCF0BF0050EDBCF0CF00CC00BF05F
:10A990000C6A0BC046FE400EE66E440EE66E0E0ECE
:10A9A000E66E010EE66EE66E56EC5CF00B6E050E82
:10A9B000E15E0B50F3CFB3FEF4CFB4FE8FD20E01A5
:10A9C000B351B41102E1000E08D0B3CEE9FFB4CE0A
:10A9D000EAFFEF50800B01E0010E00092EE1020EAC
:10A9E000E66E89EC6AF0E552060EF3CFDBFF070E48
:10A9F000F4CFDBFF0E01320E446F060EDBCF45FEB7
:10AA0000DBCF0BF0070EDBCF0CF00CC00BF00C6AA9
:10AA10000BC046FE400EE66E440EE66E0E0EE66E6F
:10AA2000010EE66EE66E56EC5CF00B6E050EE15E16
:10AA30000B50F3CFB3FEF4CFB4FE50D20E01B3519E
:10AA4000B41102E1000E08D0B3CEE9FFB4CEEAFFA4
:10AA5000EF50800B01E0010E000901E0C6D0030EAB
:10AA6000E66E89EC6AF0E552080EF3CFDBFF090EC3
:10AA7000F4CFDBFF0E01330E446F080EDBCF45FE33
:10AA8000DBCF0BF0090EDBCF0CF00CC00BF00C6A27
:10AA90000BC046FE400EE66E440EE66E0E0EE66EEF
:10AAA000010EE66EE66E56EC5CF00B6E050EE15E96
:10AAB0000B50F3CFB3FEF4CFB4FE0E01B5510A082C
:10AAC00001E30CD20E019B5101E008D2D950080FCE
:10AAD000E96EDACFEAFFEE0ED880EE54020EED54A6
:10AAE00003E29A6B51DAFAD1080EDBCF0BF0090EB4
:10AAF000DBCF0CF0580E0B5C020E0C5876E2945132
:10AB000074E184CE8CFE85CE8DFE86CE8EFE87CE01
:10AB10008FFE010E946F955165E1E66A49EC65F090
:10AB2000E552E66AE66AE66AE40EE66ECF0EE66E87
:10AB300000EC67F00B6E050EE15E0B50E66AE66A0C
:10AB4000010EE66ECE0EE66ECF0EE66E00EC67F0FE
:10AB50000B6E050EE15E0B50E66AE66A020EE66ECB
:10AB6000A20EE66ECF0EE66E00EC67F00B6E050EE1
:10AB7000E15E0B50E66AE66A030EE66EB20EE66E22
:10AB8000D10EE66E00EC67F00B6E050EE15E0B5029
:10AB9000E66AE66A040EE66EB20EE66ED10EE66E68
:10ABA00000EC67F00B6E050EE15E0B50E66AE66A9C
:10ABB000050EE66EB20EE66ED10EE66E00EC67F0A4
:10ABC0000B6E050EE15E0B50E66AE66A060EE66E57
:10ABD000B20EE66ED10EE66E00EC67F00B6E050E5F
:10ABE000E15E0B500E01010E9A6F78D10E01B35148
:10ABF000B41102E1000E08D0B3CEE9FFB4CEEAFFF3
:10AC0000EF50800B01E0010E00096AE1020EE66ED2
:10AC100009EC6AF0E552E76E0B0EE7CFDBFF030E9F
:10AC2000E66E09EC6AF0E552E76E0A0EE7CFDBFF4D
:10AC30000E01400E446F060E0B6E0B0EDB500BC068
:10AC4000E7FFE75204E0E8427F0BE706FCE10E0174
:10AC5000456F0A0EDBCF46FE400EE66E440EE66EF2
:10AC60000E0EE66E010EE66EE66E56EC5CF00B6EB6
:10AC7000050EE15E0B50F3CFB3FEF4CFB4FE46CE2B
:10AC80009DFE0E019E6B9DBF9E699DCE0BF09ECEDC
:10AC90000CF0D8900B360C36D8900B360C3645514C
:10ACA0000B249D6F000E0C209E6F040EE66E84CE6A
:10ACB000E6FF85CEE6FF2FD9E552E552E552F3CF08
:10ACC0009FFEF4CFA0FE0E019D5184250B6E9E5178
:10ACD00085210C6E9F510B5C846FA0510C58856FC1
:10ACE000FDD00E01B351B41102E1000E08D0B3CE75
:10ACF000E9FFB4CEEAFFEF50800B01E0010E00093E
:10AD00006FE1040EE66E09EC6AF0E552E76E0D0E97
:10AD1000E7CFDBFF050EE66E09EC6AF0E552E76E61
:10AD20000C0EE7CFDBFF0E01410E446F060E0B6EDB
:10AD30000D0EDB500BC0E7FFE75204E0E8427F0B4B
:10AD4000E706FCE10E01456F0C0EDBCF46FE400E20
:10AD5000E66E440EE66E0E0EE66E010EE66EE66ED2
:10AD600056EC5CF00B6E050EE15E0B50F3CFB3FEBC
:10AD7000F4CFB4FE46CE9DFE0E019E6B9DBF9E6934
:10AD80009DCE0BF09ECE0CF0D8900B360C36D890A2
:10AD90000B360C3645510B249D6F000E0C209E6F18
:10ADA000040EE66E86CEE6FF87CEE6FFB4D8E55207
:10ADB000E552E552F3CF9FFEF4CFA0FE0E019D5168
:10ADC00086250B6E9E5187210C6E9F510B5C866F02
:10ADD000A0510C58876FFF0E0E01B55D01E108D937
:10ADE0007DD00E01B351B41102E1000E08D0B3CEF4
:10ADF000E9FFB4CEEAFFEF50800B01E0010E00093D
:10AE000039E1060EE66E09EC6AF0E552E76E0F0EC8
:10AE1000E7CFDBFF070EE66E09EC6AF0E552E76E5E
:10AE20000E0EE7CFDBFF0E01420E446F060E0B6ED7
:10AE30000F0EDB500BC0E7FFE75204E0E8427F0B48
:10AE4000E706FCE10E01456F0E0EDBCF46FE400E1D
:10AE5000E66E440EE66E0E0EE66E010EE66EE66ED1
:10AE600056EC5CF00B6E050EE15E0B50F3CFB3FEBB
:10AE7000F4CFB4FE33D00E01B351B41102E1000E91
:10AE800008D0B3CEE9FFB4CEEAFFEF50800B01E06B
:10AE9000010E000922E1080EE66E09EC6AF0E552A7
:10AEA000E76E100EE7CFDBFF0E01430E446F100E6E
:10AEB000DBCF45FE400EE66E440EE66E0E0EE66EED
:10AEC000010EE66EE66E56EC5CF00B6E050EE15E72
:10AED0000B50F3CFB3FEF4CFB4FE00D0400EE66EBD
:10AEE000040EE66E0E0EE66EE66A010EE66E56EC97
:10AEF0005CF00B6E050EE15E0B50F3CFB1FEF4CFAC
:10AF0000B2FE110EE15C02E2E16AE552E16EE55249
:10AF1000E7CFD9FF1200D9CFE6FFE1CFD9FF020E6C
:10AF2000E126FD0EDBCFDEFFDBCFDDFFFC0EDB50CD
:10AF300018E0FC0EDB06DECF0BF0DDCF0CF0D89076
:10AF40000C320B320BC0DEFF0CC0DDFFD9CFE9FFA6
:10AF5000DACFEAFFEE52EF50400B02E0010EDB8E3B
:10AF6000E5D7DECF0BF0DDCF0CF00BC0F3FF0CC04C
:10AF7000F4FF020EE15C03E200D0E16AE552E16E0B
:10AF8000E552E7CFD9FF12000E01945130E0955100
:10AF90002EE0010EE66E8C5190250B6E8D519121A5
:10AFA0000C6E0BC0E6FF0CC0E6FFB5DFE552E552C4
:10AFB000E552F3CF88FEF4CF89FE010EE66E0E0156
:10AFC0008E5192250B6E8F5193210C6E0BC0E6FFB4
:10AFD0000CC0E6FFA0DFE552E552E552F3CF8AFE52
:10AFE000F4CF8BFE0E01946B956B0E01B5691200C8
:10AFF000D9CFE6FFE1CFD9FF040EE1260E0194512F
:10B00000951101E0F8D00B0E9C6F030EE66E88518F
:10B01000845D0D6E855189550E6E0DC0E6FF0EC024
:10B02000E6FF79DFE552E552E552F3CF0BF0F4CFBE
:10B030000CF00B6C0C1E000E0C22010E0BC0DBFF83
:10B04000030EE66E0E018A51865D0D6E87518B559B
:10B050000E6E0DC0E6FF0EC0E6FF5DDFE552E55265
:10B06000E552F3CF0BF0F4CF0CF00B6C0C1E000E7E
:10B070000C220B50DF6E010EDBCF0BF0200E0E0109
:10B08000D8809C55E76E0B18E8AE02D00B3403D085
:10B09000E750D8800B5408E2200ED8809C55E76E0C
:10B0A000010EE7CFDBFF14D0010EDBCF0BF0E00E7B
:10B0B0009C25E76E0B18E8AE02D0E73402D0E750CB
:10B0C0000B5C06E2E00E9C25E76E010EE7CFDBFF8E
:10B0D000DFCF0BF0400ED8809C55E76E0B18E8AE22
:10B0E00002D00B3403D0E750D8800B5405E2400E59
:10B0F000D8809C55DF6E10D0DFCF0BF0C00E9C25A2
:10B10000E76E0B18E8AE02D0E73402D0E7500B5CD4
:10B1100003E2C00E9C25DF6EE66A49EC65F0E5525D
:10B12000010EE66E200EE66E400EE66E11EC6DF03E
:10B13000E552E552E552030E0E019C25E66EE66AE5
:10B14000E66A63D8E552E552E552020EDB6ADB504F
:10B150000B6E0C6AD8900C5004E6800E0B5C000E4F
:10B160000C581AE2010EE66EE66A020EDBCFE6FF2D
:10B1700011EC6DF0E552E552E552010EE66E3F0E20
:10B18000E66E020EDBCFE6FF11EC6DF0E552E55204
:10B19000E552020EDB2ADBD7030EDB6A400EF36EAC
:10B1A000030EDBCFF4FFF350F45C1AE2010EE66EFF
:10B1B000030EDBCFE6FFE66A11EC6DF0E552E552D7
:10B1C000E552010EE66E030EDBCFE6FF7F0EE66E64
:10B1D00011EC6DF0E552E552E552030EDB2ADED7A5
:10B1E0009CCEE6FF010EDBCFE6FFDFCFE6FF0DD8FA
:10B1F000E552E552E552040EE15C02E2E16AE552F5
:10B20000E16EE552E7CFD9FF1200D9CFE6FFE1CFDB
:10B21000D9FF030EE126FC0EDB50DF6E010EDB6A68
:10B22000FC0EDBCFE6FF010EE552D880E754E76E57
:10B23000020EE7CFDBFFFD0EDBCFE6FFFE0EDBCF1E
:10B24000E6FF010EDBCFE6FFDFCFE6FF41D8E55298
:10B25000E552E552E552010EDB2A020EDBCF0BF080
:10B260000B3410E3010EDBCFE6FFDB50E552E724A1
:10B270000B6E020EDBCFE7FF0B50E726020EE7CF87
:10B28000DBFF0ED0DF06010EDB50D880DF54020D4D
:10B29000020EDBCFE7FFF350E726020EE7CFDBFF1E
:10B2A000DB2ADFCF0BF0010EDB50E76E0B18E8AEA8
:10B2B00002D0E73402D0E7500B5CBDE2030EE15C44
:10B2C00002E2E16AE552E16EE552E7CFD9FF1200F2
:10B2D000D9CFE6FFE1CFD9FF010EE66EFD0EDBCF41
:10B2E000E6FFFB0EDB50E552E724200FE66EFE0E74
:10B2F000DBCFE6FFFC0EDB50E552E724400FE66EA5
:10B3000011EC6DF0E552E552E552010EE66EFD0ED0
:10B31000DBCFE6FFFB0EDB50E552E724200FE66EA5
:10B32000FC0EDBCFE6FFFE0EDB50E552E75C400F84
:10B33000E66E11EC6DF0E552E552E552010EE66E57
:10B34000FB0EDBCFE6FFFD0EDB50E552E75C200F86
:10B35000E66EFC0EDBCFE6FFFE0EDB50E552E75C4F
:10B36000400FE66E11EC6DF0E552E552E552010E2C
:10B37000E66EFB0EDBCFE6FFFD0EDB50E552E75C31
:10B38000200FE66EFE0EDBCFE6FFFC0EDB50E55233
:10B39000E724400FE66E11EC6DF0E552E552E55200
:10B3A000010EE66EFE0EDBCFE6FFFB0EDB50E55234
:10B3B000E724200FE66EFD0EDBCFE6FFFC0EDB5030
:10B3C000E552E724400FE66E11EC6DF0E552E552D0
:10B3D000E552010EE66EFE0EDBCFE6FFFB0EDB5004
:10B3E000E552E724200FE66EFC0EDBCFE6FFFD0EF4
:10B3F000DB50E552E75C400FE66E11EC6DF0E55274
:10B40000E552E552010EE66EFB0EDBCFE6FFFE0EC7
:10B41000DB50E552E75C200FE66EFC0EDBCFE6FF6B
:10B42000FD0EDB50E552E75C400FE66E11EC6DF06F
:10B43000E552E552E552010EE66EFB0EDBCFE6FF6C
:10B44000FE0EDB50E552E75C200FE66EFD0EDBCF13
:10B45000E6FFFC0EDB50E552E724400FE66E11ECF0
:10B460006DF0E552E552E552E552E7CFD9FF120003
:10B470009FEF6DF0A5EC6DF0000901E1FBD7120024
:10B4800012001200F7EF6DF012001E0EE66E010EB4
:10B49000E66E1FEC5CF0E552E552400EE66E040EDF
:10B4A000E66E0E0EE66EE66A010EE66E56EC5CF097
:10B4B0000B6E050EE15E0B50F3CFB1FEF4CFB2FE82
:10B4C000120065840E01080EA36F070EA46FA30778
:10B4D000000EA45BA351A411FAE165941200D9CF28
:10B4E000E6FFE1CFD9FFFD0EDBCF06F0FE0EDBCF8E
:10B4F00007F0720E061801E1075033E0E8680618FD
:10B5000002E17F0E07182BE0740E061801E10750C8
:10B5100024E0750E061801E107501DE0730E0618B1
:10B5200001E1075016E0030E061801E107500FE095
:10B53000020E061801E1075008E0010E061801E1AD
:10B54000075001E010D0A1DF0FD09EDF0DD09ADFB1
:10B550000BD096DF09D08CDF07D08CDF05D091DFD0
:10B5600003D0000001D000D0010E00D0E552E7CF9B
:04B57000D9FF1200ED
:0CB57400D9CFE6FFE1CFD9FFE652A09846
:10B58000636A626A0F01266B010EE66EE66AE66A7E
:10B59000270EE66E0F0EE66E3BEC6FF00B6E050E9F
:10B5A000E15E0B500F01160E396F9F0E376F7B0E49
:10B5B000366FDF6ADF500B6E0C6A080E0B5C000EF4
:10B5C0000C5810E2DF50040DF3CFE9FFF4CFEAFF8F
:10B5D000000EE926040EEA22EE6AEE6AEE6AEE6AD0
:10B5E000DF2AE8D7658C0F01386B6598659C62A6E9
:10B5F00007D062960001736B786B796B7A6BF7D723
:10B600000001010E8A6F8B6F8C6B8D6B806BDF6A14
:10B61000020EDF5C26E2EA6ADF34FE0BEA36E96EF0
:10B620006B0EE926000EEA22EE6AED6AEA6ADF3462
:10B63000FE0BEA36E96E670EE926000EEA22EE6A94
:10B64000ED6ADF50EA6A840FE96E000EEA22EF6AC3
:10B65000DF50EA6A860FE96E000EEA22EF6ADF2AFF
:10B66000D7D70001080E6B6F040E6C6F0F01160E1A
:10B67000266F0401200E026F040E036F080E016F87
:10B68000840E006F0001616B606BE552E552E7CFFD
:10B69000D9FF1200D9CFE6FFE1CFD9FFE652000172
:10B6A000605118E107D0656A0F01366B0001606BCD
:10B6B000A198C0D0656A0F01366B160E396F9F0EC8
:10B6C000376F7B0E366F65B602D06586FCD70001FA
:10B6D000010E606F60050AE165BA08D0626A0F0169
:10B6E000366B368136890001020E606F6250040BA2
:10B6F00007E00F013651040B03E062945DEC61F04A
:10B7000065A202D0A19896D06250010B09E00F010A
:10B710003651010B05E02EDF0001040E606F6290D0
:10B720006250100B07E00F013651100B03E047EC9D
:10B7300061F0629862AC13D00F0136AD0FD0010EEC
:10B74000E66EE66A000EE66EE66A730EE66EE66A7E
:10B750006FEC5AF00B6E060EE15E0B50629C62506D
:10B76000200B06E00F013651200B02E02DEC61F0BA
:10B770006250020B14E00F013651020B10E0010E73
:10B78000E66EE66A000EE66EE66AE6687F0EE66E34
:10B790006FEC5AF00B6E060EE15E0B50636A040EFE
:10B7A0000001E76E6019E8AE02D0E73402D0E7503E
:10B7B000605D02E2A1983ED00F0136A73AD0DF6A61
:10B7C000040EDF5C36E262A631D064CF81F0000166
:10B7D0008151780BE842E842E842826F629681B577
:10B7E00008D08251EA6A860FE96E000EEA22EF70F5
:10B7F00007D08251EA6A840FE96E000EEA22EF70E8
:10B80000825103E175EC61F010D0000EE66EE66A3D
:10B81000810EE66E000EE66E720EE66EE66A6FEC64
:10B820005AF00B6E060EE15E0B5001D002D0DF2AFB
:10B83000C7D7A198E552E552E7CFD9FF1200D9CF7B
:10B84000E6FFE1CFD9FF020EE126FD0EDBA407D013
:10B85000E66AFE0EDBCFE6FF05DAE552E552FD0EA5
:10B86000DBA208D0010EE66EFE0EDBCFE6FFFAD9B2
:10B87000E552E552FE0EDB500C6A260F0B6E0F0EE2
:10B880000C220BC0DEFF0CC0DDFFDECFE9FFDDCFF9
:10B89000EAFFFD0EDBCFEFFF020EE15C02E2E16AA0
:10B8A000E552E16EE552E7CFD9FF1200D9CFE6FFAE
:10B8B000E1CFD9FF020EE126FD0EDB500FE0FE0EB8
:10B8C000EA6ADB34FE0BEA36E96E6B0EE926000EFF
:10B8D000EA22EECFDEFFEDCFDDFF0ED0FE0EEA6AEC
:10B8E000DB34FE0BEA36E96E670EE926000EEA222B
:10B8F000EECFDEFFEDCFDDFFD9CFE9FFDACFEAFFF4
:10B90000EE50ED1003E1F36AF46A49D0DECFE9FFAF
:10B91000DDCFEAFF020EE926000EEA22FB0EDBCFA6
:10B92000EEFFFC0EDBCFEDFFDECFE9FFDDCFEAFF60
:10B93000EE52FA0EDBCFEFFF400E0B6EDECFE9FFCB
:10B94000DDCFEAFF0B50EF16880E0B6EDECFE9FF5E
:10B95000DDCFEAFF0B50EF12FD0EDB500CE0FE0EC8
:10B96000EA6ADB34FE0BEA36E96E6B0EE926000E5E
:10B97000EA22EF740BD0FE0EEA6ADB34FE0BEA36E5
:10B98000E96E670EE926000EEA22EF74DECF0BF0B7
:10B99000DDCF0CF00BC0F3FF0CC0F4FF00D0020EA3
:10B9A000E15C02E2E16AE552E16EE552E7CFD9FFE0
:10B9B0001200D9CFE6FFE1CFD9FF020EE126FE0E3D
:10B9C000DB5020E165C0E9FF66C0EAFFEE52080ED9
:10B9D000EF6E65C0E9FF66C0EAFF020EE926000EC1
:10B9E000EA22200EEE6E040EED6E65C0E9FF66C021
:10B9F000EAFF8C0EEF6E6BC0E9FF6CC0EAFF840EAD
:10BA0000EF6E3DD0FD0EDB50E8240D6EFE0EDB50D8
:10BA1000040DF3500D24040DF3CF0BF0F4CF0CF014
:10BA2000000E0B26040E0C220BC0DEFF0CC0DDFF47
:10BA3000840E0B6EDECFE9FFDDCFEAFF0B50EF1275
:10BA4000FD0EDB50E8240D6EFE0EDB50040DF350AE
:10BA50000D24010F040DF3CF0BF0F4CF0CF0000E0A
:10BA60000B26040E0C220BC0DEFF0CC0DDFF840E83
:10BA70000B6EDECFE9FFDDCFEAFF0B50EF12020EB7
:10BA8000E15C02E2E16AE552E16EE552E7CFD9FFFF
:10BA90001200D9CFE6FFE1CFD9FF65A84ED0FE0E48
:10BAA000EA6ADB34FE0BEA36E96E6B0EE926000E1D
:10BAB000EA22EE50EFCFEAFFE96E400EEE16EE6A94
:10BAC000EE6AEE6AFE0EEA6ADB34FE0BEA36E96ED7
:10BAD0006B0EE926000EEA22EE50EFCFEAFFE96E88
:10BAE000EE7CFE0EEA6ADB34FE0BEA36E96E6B0E84
:10BAF000E926000EEA22EF74400E0B6EFE0EEA6A93
:10BB0000DB34FE0BEA36E96E6B0EE926000EEA2204
:10BB1000EE50EFCFEAFFE96E0B50EF16FE0EEA6A29
:10BB2000DB34FE0BEA36E96E6B0EE926000EEA22E4
:10BB3000EE50EFCFEAFFE96EEF7CE552E7CFD9FF99
:10BB4000120000018A514DE1010E8A6F8B5149E1CB
:10BB5000010E8B6F020E705D0DE16BC0E9FF6CC0D2
:10BB6000EAFFEE52EF6A6BC0E9FF6CC0EAFFC80E55
:10BB7000EF6E37D0700535E1836B63C0E9FF64C0B9
:10BB8000EAFFEE52080EEF6E63C0E9FF64C0EAFF01
:10BB9000020EE926000EEA22200EEE6E040EED6E75
:10BBA00063C0E9FF64C0EAFF840EEF6E010E836F8D
:10BBB00065C0E9FF66C0EAFFEE52080EEF6E65C091
:10BBC000E9FF66C0EAFF020EE926000EEA22200E17
:10BBD000EE6E040EED6E65C0E9FF66C0EAFF800EF2
:10BBE000EF6E120000018C6B8D6B020E705D1AE11E
:10BBF00065C0E9FF66C0EAFFEE52080EEF6E65C051
:10BC0000E9FF66C0EAFF020EE926000EEA22280ECE
:10BC1000EE6E040EED6E65C0E9FF66C0EAFFC80E69
:10BC2000EF6E1FD074510401265D000175510401AF
:10BC3000275904E226C474F027C475F0D1D86BC02C
:10BC4000E9FF6CC0EAFF020EE926000EEA22280E88
:10BC5000EE6E040EED6E6BC0E9FF6CC0EAFFC80E1D
:10BC6000EF6E1200D9CFE6FFE1CFD9FF020EE12639
:10BC7000000EDE6E040EDD6EFD0EDB50E8240D6E50
:10BC8000FE0EDB50040DF3500D24040DF3CF0BF02A
:10BC9000F4CF0CF0D9CFE9FFDACFEAFF0B50EE2654
:10BCA0000C50ED22DECFE9FFDDCFEAFFEF9EFD0E67
:10BCB000DB500FE1FE0EEA6ADB34FE0BEA36E96E7A
:10BCC000670EE926000EEA22DECFEEFFDDCFEDFFA4
:10BCD0000ED0FE0EEA6ADB34FE0BEA36E96E6B0E1E
:10BCE000E926000EEA22DECFEEFFDDCFEDFFDECF4C
:10BCF000E9FFDDCFEAFFEF9CDECFE9FFDDCFEAFF12
:10BD0000040EE926000EEA22EF8C020EE15C02E24C
:10BD1000E16AE552E16EE552E7CFD9FF120065987E
:10BD2000000173BF2BD078AF09D0020E706F8D5118
:10BD300001E158DF00018B6B8A6B1FD065C0E9FF02
:10BD400066C0EAFFEE52080EEF6E65C0E9FF66C0FE
:10BD5000EAFF020EE926000EEA22200EEE6E040E25
:10BD6000ED6E65C0E9FF66C0EAFF8C0EEF6E6BC03A
:10BD7000E9FF6CC0EAFF840EEF6E31D0040120AF02
:10BD80000DD00001010E706F8C5101E12BDF00011D
:10BD90008B6B8A6B895101E1D4DE21D00001020E48
:10BDA000706F65C0E9FF66C0EAFFEE52080EEF6EE5
:10BDB00065C0E9FF66C0EAFF020EE926000EEA222E
:10BDC000200EEE6E040EED6E65C0E9FF66C0EAFF60
:10BDD000840EEF6E8B6B8A6B895101E1B2DE12002B
:10BDE000D9CFE6FFE1CFD9FFE652080EDF6E0001A2
:10BDF000745D000E75590BE274C0DFFF6F5103E1F3
:10BE0000010E6F6F04D06F0502E1020E6F6FDF50FD
:10BE10000B6E0C6A0B50745D746F0C507559756F16
:10BE20006BC0E9FF6CC0EAFFEE52DFCFEFFF280ED8
:10BE30007D6F040E7E6F73B119D0DF5016E071C0B4
:10BE4000F6FF72C0F7FF712B000E72230800F55049
:10BE5000E66E7DC0E9FF7EC0EAFF7D2B000E7E23EB
:10BE6000E552E750EF6EDF06E8D717D0DF5015E058
:10BE700071C0E9FF72C0EAFF712B000E7223EF5010
:10BE8000E66E7DC0E9FF7EC0EAFF7D2B000E7E23BB
:10BE9000E552E750EF6EDF06E9D7E552E552E7CF0E
:10BEA000D9FF1200D9CFE6FFE1CFD9FF020EE1267C
:10BEB00063C0E9FF64C0EAFFEE52EFCFDFFFDFCFE0
:10BEC0000BF00B500001795D000E7A5902E279C047
:10BED000DFFFDF500B6E0C6A0B50795D796F0C50F1
:10BEE0007A597A6F010EDB6ADF50F36E010EDBCFF9
:10BEF000F4FFF350F45C16E2010EDB50EA6A280FFF
:10BF0000E96E040EEA22EF50E66E76C0E9FF77C0D4
:10BF1000EAFF762B000E7723E552E750EF6E010E15
:10BF2000DB2AE2D7000ED8807955000E7A5528E238
:10BF300065C0E9FF66C0EAFFEE52080EEF6E65C00D
:10BF4000E9FF66C0EAFF020EE926000EEA22280E8B
:10BF5000EE6E040EED6E63C0E9FF64C0EAFFEF50C1
:10BF6000400B07E165C0E9FF66C0EAFFC80EEF6E4F
:10BF700006D065C0E9FF66C0EAFF880EEF6E28D0E4
:10BF800065C0E9FF66C0EAFFEE52080EEF6E65C0BD
:10BF9000E9FF66C0EAFF020EE926000EEA22200E43
:10BFA000EE6E040EED6E65C0E9FF66C0EAFF840E1A
:10BFB000EF6E7B517C1107E005D07CC0FAFF0001D9
:10BFC0007B51F96EFADF0001789F895101E1B9DDFB
:10BFD000020EE15C02E2E16AE552E16EE552E7CF72
:10BFE000D9FF1200D9CFE6FFE1CFD9FFE652000119
:10BFF000738F010EE66EE66AE66A270EE66E0F0E96
:10C00000E66E3BEC6FF00B6E050EE15E0B50200E02
:10C01000E66EE66AE66A000EE66E040EE66E3BEC3D
:10C020006FF00B6E050EE15E0B50658CDF6A020E41
:10C03000DF5C10E2DF50EA6A840FE96E000EEA224C
:10C04000EF6ADF50EA6A860FE96E000EEA22EF6AB5
:10C05000DF2AEDD7010EE66EE66AE66A620EE66E4C
:10C06000000EE66E3BEC6FF00B6E050EE15E0B50C2
:10C07000659C0001080E6B6F040E6C6F000E636F01
:10C08000040E646F63C065F064C066F022C461F0A2
:10C09000615103E1100E606F13D0010EE66EE66A87
:10C0A000610EE66E000EE66E010EE66EE66A6FEC5D
:10C0B0005AF00B6E060EE15E0B500001200E606F11
:10C0C000E552E552E7CFD9FF1200800E0401205D52
:10C0D0005BE10001C00E736F04012351030A34E0D9
:10C0E000010A0EE0030A03E00001736B4DD000016A
:10C0F000C60E716FDC0E726F120E746F756B44D0CA
:10C100002251F66EF76AD890F636F736840EF62688
:10C11000DD0EF7220900F5CF71F00A00F5CF72F0BD
:10C12000020E0001F76A7125F66E7251F7220800BF
:10C13000F5CF74F0030EF76A7125F66E7251F7228F
:10C140000800F5CF75F020D0030E225D1AE22251CF
:10C15000F66EF76AD890F636F736860EF626DD0EBE
:10C16000F7220900F5CF71F00A00F5CF72F071C027
:10C17000F6FF72C0F7FF0800F5500001746F756B91
:10C1800002D00001736B00D01200D9CFE6FFE1CFDF
:10C19000D9FF020EE1260401286B296B20511F0BE9
:10C1A000020A12E0030A0DE0010A01E042D0000198
:10C1B000738F0401288100017F0502E104012883B7
:10C1C00038D00001738F35D00001738F040124BF74
:10C1D00010D024510F0BE96EEA6AD890E936EA369E
:10C1E000670EE926000EEA22EECFDEFFEDCFDDFF7F
:10C1F0000FD024510F0BE96EEA6AD890E936EA367F
:10C200006B0EE926000EEA22EECFDEFFEDCFDDFF5A
:10C21000DECFE9FFDDCFEAFFEF50800B09E0DECF94
:10C22000E9FFDDCFEAFFEF50040B02E0010E286FBB
:10C2300000D0000173AF07D0280E716F040E726F2B
:10C240007381020E746F020EE15C02E2E16AE55254
:10C25000E16EE552E7CFD9FF12000F0126A115D0FC
:10C2600063C0E9FF64C0EAFFEF5080080DE16BC0D6
:10C27000E9FF6CC0EAFFEF50840806E163C0E9FF04
:10C2800064C0EAFF8C0EEF6E2691629A12000F01D5
:10C290003685629865820001010E806F000EE66EA1
:10C2A000E66AE66EE66A750EE66EE66A6FEC5AF0CE
:10C2B0000B6E060EE15E0B5012000001806B000E4B
:10C2C000E66EE66AE66EE66A740EE66EE66A6FECA5
:10C2D0005AF00B6E060EE15E0B5065920F0136951B
:10C2E00062A402D06294FCD71200D9CFE6FFE1CF5E
:10C2F000D9FFE652FD0E0001811553E17E0E811536
:10C30000E8407F0B040DF3CF63F0F4CF64F0000E30
:10C310006327040E642363C065F064C066F065752E
:10C3200063C0E9FF64C0EAFFEF503C0BE842E8421B
:10C330000D0835E1DF6A080EDF5C23E263C0E9FF28
:10C3400064C0EAFF020EE926000EEA22EE50EFCFAB
:10C35000EAFFE96EEF50E66EDF50EA6A200FE96E01
:10C36000040EEA22E552E750EF6E63C0E9FF64C0B5
:10C37000EAFF020EE926000EEA22EE2AEF22DF2A69
:10C38000DAD763C0E9FF64C0EAFF020EE926000EB7
:10C39000EA22200EEE6E040EED6E0DD801D03AD8D2
:10C3A00005D0FD0E8115040801E159D8E552E5528A
:10C3B000E7CFD9FF120000016F6B896B8C6B8D6B1F
:10C3C000836B706B6BC0E9FF6CC0EAFFEF9E6B750F
:10C3D0006BC0E9FF6CC0EAFFEF9E6B7565C0E9FFBB
:10C3E00066C0EAFFEF9E736B746B756B786B796B4D
:10C3F0007A6B92D8000EE66EE66AE66EE66A030E87
:10C40000E66EE66A6FEC5AF00B6E060EE15E0B50BC
:10C410008FEF5EF0020E0001705D02E143DD1ED081
:10C42000706B83511AE165C0E9FF66C0EAFFEE5206
:10C43000080EEF6E65C0E9FF66C0EAFF020EE9264E
:10C44000000EEA22200EEE6E040EED6E65C0E9FFCE
:10C4500066C0EAFF8C0EEF6E01D0836B1200D9CF5D
:10C46000E6FFE1CFD9FFE6526BC0E9FF6CC0EAFFFF
:10C47000EF50400B01E0010EDF6E00016B75080EFE
:10C48000605D0CE122C438FF0F01385104E0000167
:10C49000100E606F03D00001040E606F700528E17C
:10C4A0006BC0E9FF6CC0EAFF020EE926000EEA222B
:10C4B000280EEE6E040EED6E93DC020E00016F5D31
:10C4C00007E16BC0E9FF6CC0EAFF840EEF6E0FD08E
:10C4D000DF5007E16BC0E9FF6CC0EAFFC80EEF6EEA
:10C4E00006D06BC0E9FF6CC0EAFF880EEF6E0FD07C
:10C4F00078AF0CD07B517C1107E005D07CC0FAFFEF
:10C5000000017B51F96EFADF0001789F706BE552F4
:10C51000E552E7CFD9FF120004012051600BE84239
:10C52000E842E842E842E842000901E058D02151DF
:10C530000C0A54E00B0A43E00C0A35E0010A26E03D
:10C540000B0A22E0020A20E0030A1CE0080A10E0BD
:10C55000010A0CE00F0A08E0030A01E03FD00001E5
:10C56000738F080E606F3BD0B0DD39D03BDD37D024
:10C570000001610E716F000E726F7381010E746F96
:10C58000738F2DD002DE2BD02BD829D0245100015F
:10C59000716F726B620E7127000E72237381010E30
:10C5A000746F738F1CD00001738F04012451EA6AE9
:10C5B000620FE96E000EEA2222C4EFFF10D0000ED7
:10C5C000E66EE66AE66EE66A020EE66EE66A6FEC14
:10C5D0005AF00B6E060EE15E0B5001D000D0120037
:10C5E000D9CFE6FFE1CFD9FF050EE12604012205F0
:10C5F00010E120511F0B00090CE10001738F030EA5
:10C600000401215D04E10001010E7F6F02D00001F1
:10C610007F6B0401225101E020D120511F0B020841
:10C6200001E01BD124510F0B000901E116D1245167
:10C630000F0B010801E211D1200E0001605D01E045
:10C640000CD1738F040124BF1AD024510F0BE96E53
:10C65000EA6AD890E936EA36670EE926000EEA2241
:10C66000EECFDEFFEDCFDDFF24510F0BEA6A860F20
:10C67000E96E000EEA22020EEFCFDBFF19D0245143
:10C680000F0BE96EEA6AD890E936EA366B0EE926B6
:10C69000000EEA22EECFDEFFEDCFDDFF24510F0BBF
:10C6A000EA6A840FE96E000EEA22020EEFCFDBFF8A
:10C6B000D950020FE96EDACFEAFFEF50010B03E128
:10C6C000000EDF9401D0DF8424BF10D024510F0B63
:10C6D000E96EEA6AD890E936EA36670EE926000E76
:10C6E000EA22DECFEEFFDDCFEDFF0FD024510F0B9E
:10C6F000E96EEA6AD890E936EA366B0EE926000E52
:10C70000EA22DECFEEFFDDCFEDFF030E215D23E158
:10C71000DECFE9FFDDCFEAFFEF50800B13E024BF4F
:10C7200009D024510F0BEA6A860FE96E000EEA2247
:10C73000EF8208D024510F0BEA6A840FE96E000ED5
:10C74000EA22EF82840E0B6EDECFE9FFDDCFEAFF37
:10C750000B50EF1282D0DF74DECFE9FFDDCFEAFFAE
:10C76000EF50800B1BE0DECFE9FFDDCFEAFFEF9E4D
:10C77000DECFE9FFDDCFEAFFEF8C020EE66EE66A60
:10C78000DECFE6FFDDCFE6FF050EE66EE66A6FEC74
:10C790005AF00B6E060EE15E0B5005D0DECFE9FFBE
:10C7A000DDCFEAFFEF8CDF74D950020FE96EDACFEC
:10C7B000EAFFEF50020B07E1DECFE9FFDDCFEAFF32
:10C7C000EF50800B2DE0040124BF09D024510F0B42
:10C7D000EA6A860FE96E000EEA22EF9208D0245131
:10C7E0000F0BEA6A840FE96E000EEA22EF923B0E0D
:10C7F0000B6EDECFE9FFDDCFEAFF0B50EF16020E26
:10C80000E66EE66ADECFE6FFDDCFE6FF050EE66EFA
:10C81000E66A6FEC5AF00B6E060EE15E0B5008D024
:10C820003B0E0B6EDECFE9FFDDCFEAFF0B50EF16BC
:10C83000040124510F0B0C6A260F0B6E0F0E0C22F5
:10C84000030E0BC0DBFF040E0CC0DBFF030EDBCFBF
:10C85000E9FF040EDBCFEAFFEF90050EE15C02E298
:0EC86000E16AE552E16EE552E7CFD9FF120022
:02C86E00D9CF20
:10C87000E6FFE1CFD9FF020EE126FD0EDBCF0BF084
:10C88000DB06FE0EDBCF0CF001E2DB060B500C10DA
:10C8900011E0DE6ADD6ADECF0BF0DDCF0CF0E30ED7
:10C8A0000B5C0D0E0C5805E2DF2A010E01E3DB2ABA
:10C8B000F2D7E3D7020EE15C02E2E16AE552E16EF3
:10C8C000E552E7CFD9FF1200D9CFE6FFE1CFD9FF7C
:10C8D000060EE1268D9296928D9096908D84969478
:10C8E0008A9A939A8C92DE6ADE6ADE6ADD6ADD528B
:10C8F000DD52D9CFE9FFDACFEAFF640EEE5C000E1D
:10C90000EE58000EEE58000EEE580AE2D9CFE9FFBD
:10C91000DACFEAFFEE2A000EEE22EE22EE22E9D76F
:10C920008C82DE6ADE6ADE6ADD6ADD52DD52D9CFD4
:10C93000E9FFDACFEAFF640EEE5C000EEE58000E5F
:10C94000EE58000EEE580AE2D9CFE9FFDACFEAFF3F
:10C95000EE2A000EEE22EE22EE22E9D7AE0EE66EB1
:10C9600070D8E552DB0EE66E6CD8E552230EE66E0B
:10C9700068D8E552D90EE66E64D8E552220EE66E0E
:10C9800060D8E552A10EE66E5CD8E552C80EE66EA0
:10C9900058D8E552DA0EE66E54D8E552120EE66E1D
:10C9A00050D8E552A80EE66E4CD8E5523F0EE66E22
:10C9B00048D8E552D50EE66E44D8E552A00EE66E94
:10C9C00040D8E552810EE66E3CD8E552600EE66E28
:10C9D00038D8E552D30EE66E34D8E552E66A31D83F
:10C9E000E552A60EE66E2DD8E552AD0EE66E29D8BC
:10C9F000E5528B0EE66E25D8E552AF0EE66E21D8D5
:10CA0000E5520A0EE66EE66A32DFE552E552A40E02
:10CA1000E66E17D8E552400EE66E13D8E552020EC8
:10CA2000E66E0FD8E552100EE66E0BD8E552060EF4
:10CA3000E15C02E2E16AE552E16EE552E7CFD9FF3F
:10CA40001200D9CFE6FFE1CFD9FF956AFE0EDB5089
:10CA50008C6E8D808D828A9A8D948D928D828D843C
:10CA60009568E552E7CFD9FF1200D9CFE6FFE1CFB5
:10CA7000D9FF956AFE0EDB508C6E8D808D828A8A7E
:10CA80008D948D928D828D849568E552E7CFD9FF84
:10CA90001200D9CFE6FFE1CFD9FF020EE126B00E9A
:10CAA000DF6EB80EDF5C23E2DFCFE6FFCADFE552C0
:10CAB000020EE66EC6DFE552100EE66EC2DFE552EC
:10CAC000010EDB6ADB500B6E0C6AD8900C5004E64A
:10CAD000840E0B5C000E0C5808E2FE0EDBCFE6FF66
:10CAE000C4DFE552010EDB2AEDD7DF2ADAD7020ECA
:10CAF000E15C03E200D0E16AE552E16EE552E7CF86
:10CB0000D9FF1200D9CFE6FFE1CFD9FFE652200EC0
:10CB10000B6EFE0EDBCFE7FF0B50E75EFE0EE7CF9E
:10CB2000DBFFFD0EDBCFE6FF8CDFE552020E0B6E66
:10CB3000FC0EDBCFE7FF0B50E726FC0EE7CFDBFF59
:10CB4000DB500F0BE66E7DDFE552FC0EDB380F0B82
:10CB50000F0B100FE66E75DFE552FB0EDB5001E1A7
:10CB6000A5D0FE0EDBCFF6FFF76AF6BEF768060E1D
:10CB7000F702F3CFF7FFF602F3CFF6FFF450F726F4
:10CB80001E0EF626D70EF7220800F51CE66E6DDFA6
:10CB9000E552FE0EDBCFF6FFF76AF6BEF768060E2B
:10CBA000F702F3CFF7FFF602F3CFF6FFF450F726C4
:10CBB0001E0EF626D70EF722010EF626000EF722DD
:10CBC0000800F51CE66E51DFE552FE0EDBCFF6FFE6
:10CBD000F76AF6BEF768060EF702F3CFF7FFF60224
:10CBE000F3CFF6FFF450F7261E0EF626D70EF722E7
:10CBF000020EF626000EF7220800F51CE66E35DF61
:10CC0000E552FE0EDBCFF6FFF76AF6BEF768060EBA
:10CC1000F702F3CFF7FFF602F3CFF6FFF450F72653
:10CC20001E0EF626D70EF722030EF626000EF7226A
:10CC30000800F51CE66E19DFE552FE0EDBCFF6FFAD
:10CC4000F76AF6BEF768060EF702F3CFF7FFF602B3
:10CC5000F3CFF6FFF450F7261E0EF626D70EF72276
:10CC6000040EF626000EF7220800F51CE66EFDDE27
:10CC7000E552FE0EDBCFF6FFF76AF6BEF768060E4A
:10CC8000F702F3CFF7FFF602F3CFF6FFF450F726E3
:10CC90001E0EF626D70EF722050EF626000EF722F8
:10CCA0000800F51CE66EE1DEE552A4D0FE0EDBCFF7
:10CCB000F6FFF76AF6BEF768060EF702F3CFF7FF46
:10CCC000F602F3CFF6FFF450F7261E0EF626D70E27
:10CCD000F7220800F550E66EC8DEE552FE0EDBCF07
:10CCE000F6FFF76AF6BEF768060EF702F3CFF7FF16
:10CCF000F602F3CFF6FFF450F7261E0EF626D70EF7
:10CD0000F722010EF626000EF7220800F550E66E17
:10CD1000ACDEE552FE0EDBCFF6FFF76AF6BEF76833
:10CD2000060EF702F3CFF7FFF602F3CFF6FFF4504B
:10CD3000F7261E0EF626D70EF722020EF626000E56
:10CD4000F7220800F550E66E90DEE552FE0EDBCFCE
:10CD5000F6FFF76AF6BEF768060EF702F3CFF7FFA5
:10CD6000F602F3CFF6FFF450F7261E0EF626D70E86
:10CD7000F722030EF626000EF7220800F550E66EA5
:10CD800074DEE552FE0EDBCFF6FFF76AF6BEF768FB
:10CD9000060EF702F3CFF7FFF602F3CFF6FFF450DB
:10CDA000F7261E0EF626D70EF722040EF626000EE4
:10CDB000F7220800F550E66E58DEE552FE0EDBCF96
:10CDC000F6FFF76AF6BEF768060EF702F3CFF7FF35
:10CDD000F602F3CFF6FFF450F7261E0EF626D70E16
:10CDE000F722050EF626000EF7220800F550E66E33
:10CDF0003CDEE55200D0E552E552E7CFD9FF120004
:10CE0000D9CFE6FFE1CFD9FFE652FB0EDB50DF6E54
:10CE1000FC0EDB50B10FE76EFC0EE7CFDBFFFD0E23
:10CE2000DBCFF6FFFE0EDBCFF7FF0800F5501EE06C
:10CE3000FA0EDBCFE6FFDFCFE6FFFC0EDBCFE6FF2F
:10CE4000FD0EDBCFF6FFFE0EDBCFF7FF0800F5503F
:10CE5000E66E58DEE552E552E552E552FD0EDB2A5C
:10CE6000FE0E01E3DB2A060EDF26D9D7E552E55296
:10CE7000E7CFD9FF1200D9CFE6FFE1CFD9FFE652C5
:10CE8000FB0EDB50DF6EFC0EDB50B10FE76EFC0ECD
:10CE9000E7CFDBFFFD0EDBCFE9FFFE0EDBCFEAFFC6
:10CEA000EF501DE0FA0EDBCFE6FFDFCFE6FFFC0E12
:10CEB000DBCFE6FFFD0EDBCFE9FFFE0EDBCFEAFFA7
:10CEC000EF50E66E1FDEE552E552E552E552FD0EEB
:10CED000DB2AFE0E01E3DB2A060EDF26DBD7E55256
:10CEE000E552E7CFD9FF1200D9CFE6FFE1CFD9FF56
:10CEF000050EE126030EDB6A040EDB6A020E0B6EE2
:10CF0000FA0EDBCFE7FF0B50E726FA0EE7CFDBFF89
:10CF1000F90EDB50B00FDF6EFB0EDB50B00FDF5CA5
:10CF200035E2DFCFE6FF8DDDE552FA0EDB500F0B69
:10CF3000E66E87DDE552FA0EDB380F0B0F0B10099A
:10CF4000E66E7FDDE552010EDB6AFC0EDB50F36E10
:10CF5000010EDBCFF4FFF350F45C16E2030EDB2A84
:10CF6000040E01E3DB2AFD0EDBCFF6FFDB2AFE0E0B
:10CF7000DBCFF7FF01E3DB2A0800F550E66E75DD35
:10CF8000E552010EDB2AE1D7DF2AC6D7050EE15CA8
:10CF900003E200D0E16AE552E16EE552E7CFD9FF46
:02CFA00012007D
:0ECFA2002020616E642070726573732052202F
:10CFB00020202020202020002020616E642070721C
:10CFC000657373204C20202020202020200020206A
:10CFD0003138302064656772656573202020202019
:10CFE00020202000526F7461746520746865206C85
:10CFF0006576656C202020202000202043616C692C
:10D0000062726174696F6E20202020202020200031
:10D010005072657373204C20746F20737461727446
:10D0200020202020200020636F6D706C6574652CBB
:10D030002020202020202020202020002064697231
:10D040006563746F72792E20204F6E6365202020F7
:10D0500020002070726F6772616D20696E207468A5
:10D06000652064656D6F2000506C65617365206F8D
:10D0700070656E20746865202E657865200020201C
:10D080005072657373204C206F7220522020202034
:10D0900020202000546F2043616C696272617465C6
:10D0A00020202020202020202000202064656D6F7B
:10D0B000206D656E752E202020202020202020004D
:10D0C0002020746F2072657475726E20746F2074E6
:10D0D000686520202000486F6C6420746865206DAE
:10D0E000656E7520627574746F6E20002020616E0D
:10D0F0006420706F74656E74696F6D657465722EEF
:10D1000020002020706164732C20616363656C656E
:10D11000726F6D6574657200202066726F6D207489
:10D1200068652063617061636974697665002020B9
:10D1300072656164696E67207261772064617461F1
:10D1400020202000546865205043206170706C6975
:10D15000636174696F6E2069730020204849442020
:10D16000506E502044656D6F2E657865202020003C
:10D170002020616E642072756E2074686520202006
:10D18000202020202000202074686520686F7374A0
:10D1900020636F6D7075746572202000436F6E6E32
:10D1A0006563742074686520626F61726420746FB7
:10D1B000200020202020202020202020202020208F
:10D1C0002020202020202000202061206C65766512
:10D1D0006C20202020202020202020202000202023
:10D1E000626F6172642077696C6C20616374206C7B
:10D1F000696B6500496E20746869732064656D6FA2
:10D200002C207468652020202000507265737320E4
:10D210004D656E7520746F2070726F636565640074
:10D2200050524741204C6576656C2044656D6F20F7
:10D2300076312E3020002050494331384620537437
:0CD240006172746572204B69742020003C
:04D24C00D9CFE6FF51
:10D25000E1CFD9FF030EE12659D8736A820E726EB0
:10D26000739C94949396958C7288728A949EE66AC5
:10D27000D0D8E552E76E020EE7CFDBFF0000D950B1
:10D28000020FE96EDACFEAFFEF50070B020801E068
:10D290000000140EE66EBDD8E552E76E020EE7CF31
:10D2A000DBFF020EDB96DB88020EDB80DB92DB9479
:10D2B000020EDBCFE6FF140EE66E3AD8E552E552D9
:10D2C000010EE66EA6D8E552DE6EDD6A0000110E94
:10D2D000E66E9FD8E552DE6EDD6A0000E66A110E4A
:10D2E000E66E26D8E552E5520000110EE66E91D8A2
:10D2F000E552DE6EDD6A0000030EE15C02E2E16AE7
:10D30000E552E16EE552E7CFD9FF1200550EA76E48
:10D31000AA0EA76E0E01FF91090ECC6F0A0ED36FF5
:10D32000170EFB6F550EA76EAA0EA76EFF81120097
:10D33000D9CFE6FFE1CFD9FFE652DF6AFE0EDB5020
:10D34000140804E0FE0EDB50340806E1140EE66E0D
:10D3500060D8E552E00BDF6E8B9EA49EFE0EDB5084
:10D36000756EA4AEFED700000000000000000000B3
:10D3700000000000000000000000000000000000AD
:10D38000000000000000000000000000000000009D
:10D39000000000000000000000000000000000008D
:10D3A000000000000000000000000000000000007D
:10D3B000000000000000000000000000000000006D
:10D3C000000000000000000000000000000000005D
:10D3D000000000000000000000000000000000004D
:10D3E000000000000000A49EFE0EDB500A0805E1CC
:10D3F000FD0EDB507F0B756E04D0FD0EDB50DF1091
:10D40000756EA4AEFED78B8EE552E552E7CFD9FFFD
:10D410001200D9CFE6FFE1CFD9FF8B9EA49EFE0E6E
:10D42000DB508009756EA4AEFED70000000000003E
:10D4300000000000000000000000000000000000EC
:10D4400000000000000000000000000000000000DC
:10D4500000000000000000000000000000000000CC
:10D4600000000000000000000000000000000000BC
:10D4700000000000000000000000000000000000AC
:10D48000000000000000000000000000000000009C
:10D49000000000000000000000000000000000008C
:10D4A00000000000000000000000A49E756AA4AE09
:10D4B000FED78B8E755000D0E552E7CFD9FF120012
:10D4C000030EB16EB392B390B396B288B28EB2909F
:10D4D000B292A494B38E12002F0E926E0F01E00E42
:10D4E000486F1F0E496FC18EC19CC70EC114080939
:10D4F000C16EF80EC1140209C16E498FC29CC29E52
:10D50000C30EC2140809C26EC2801200D9DF6CEFCC
:10D510006AF0D9CFE6FFE1CFD9FF020EE126FE0E79
:10D52000DB500F0BF36EF346F346C30EC214F31039
:10D53000C26EFE0EDB50EA6ABB0FE96E0E0EEA22E7
:10D54000EF503F0BF36EF346F346030EB114F310A6
:10D55000B16EB38EB3820000000000000000000036
:10D5600000000000000000000000000000000000BB
:10D570000000000000000000000000000000B39266
:10D58000B280000000000000000000000000000069
:10D59000000000000000000000000000000000008B
:10D5A00000000000000000000000B2909E9CC282BB
:10D5B0009EACFED7C3CFDEFFC4CFDDFFDECF0BF0C6
:10D5C000DDCF0CF00BC0F3FF0CC0F4FF00D0020E57
:10D5D000E15C02E2E16AE552E16EE552E7CFD9FF94
:10D5E0001200D9CFE6FFE1CFD9FF030EE126020EEC
:10D5F000DB6A040EF36E020EDBCFF4FFF350F45C33
:10D6000001E383D0020EDB50EA6ABB0FE96E0E0E17
:10D61000EA22EF6A020EDBCFE6FF7BDFE552F3CFB3
:10D62000DEFFF4CFDDFFDECF0BF0DDCF0CF0200E00
:10D630000B5C030E0C582EE2020EDB50EA6ABB0FA5
:10D64000E96E0E0EEA22EF501F0809E1020EDB50D0
:10D65000EA6ABB0FE96E0E0EEA22EF6A1AD0020EDA
:10D66000DB50EA6ABB0FE96E0E0EEA22EF2A020EC9
:10D67000DBCFE6FF4EDFE552F3CFDEFFF4CFDDFF79
:10D68000DECF0BF0DDCF0CF0200E0B5C030E0C5840
:10D69000D3E338D0D9CFE9FFDACFEAFF200ED88024
:10D6A000EE54030EED542EE2020EDB50EA6ABB0F7D
:10D6B000E96E0E0EEA22EF50E10809E1020EDB509E
:10D6C000EA6ABB0FE96E0E0EEA22EF6A1BD0020E69
:10D6D000DB50EA6ABB0FE96E0E0EEA22EF06020E7D
:10D6E000DBCFE6FF16DFE552F3CFDEFFF4CFDDFF41
:10D6F000D9CFE9FFDACFEAFF200ED880EE54030E2F
:10D70000ED54D2E3020EDB2A74D7030EE15C02E291
:0ED71000E16AE552E16EE552E7CFD9FF120063
:02D71E00000009
:10D720000000000000004F0000000007000700009C
:10D73000147F147F1400242A7F2A12002313086404
:10D740006200364955225000000503000000001C0D
:10D75000224100000041221C000014083E08140071
:10D7600008083E08080000503000000008080808BB
:10D7700008000060600000002010080402003E5114
:10D7800049453E0000427F40000042615149460049
:10D790002141454B31001814127F100027454545A3
:10D7A00039003C4A494930000171090503003649F6
:10D7B00049493600064949291E0000363600000056
:10D7C00000563600000008142241000014141414FE
:10D7D00014000041221408000201510906003249D8
:10D7E00079413E007E1111117E007F494949360082
:10D7F0003E41414122007F4141221C007F4949496D
:10D8000041007F09090901003E4149497A007F082A
:10D8100008087F0000417F4100002040413F010097
:10D820007F08142241007F40404040007F020C02EC
:10D830007F007F0408107F003E4141413E007F0988
:10D84000090906003E4151215E007F091929460061
:10D8500046494949310001017F0101003F404040F4
:10D860003F001F2040201F003F4038403F0063140E
:10D870000814630007087008070061514945430018
:10D88000007F414100000204081020000041417F58
:10D89000000004020102040040404040400000013A
:10D8A000020400002054545478007F484444380057
:10D8B000384444442000384444487F003854545489
:10D8C0001800087E090102000C5252523E007F08E7
:10D8D0000404780000447D4000002040443D0000E6
:10D8E0007F102844000000417F4000007C041804A1
:10D8F00078007C08040478003844444438007C14E0
:10D9000014140800081414187C007C08040408008F
:10D91000485454542000043F444020003C404020E0
:10D920007C001C2040201C003C4030403C0044282F
:10D93000102844000C5050503C004464544C4400A7
:10D9400000083641000000007F000000004136085A
:10D950000000020102040200000000000000007F3D
:0DD9600045454547444444447C0080810017
:01D96D0000B9
:02D96E00D9CF0F
:10D97000E6FFE1CFD9FFE65295688A8A8D828D80D5
:10D980008D948D9000000000000000008350DF6E39
:10D990008D808D9000000000000000008350DF6E3D
:10D9A0008D808D84DF5000D0E552E552E7CFD9FF5E
:10D9B0001200D9CFE6FFE1CFD9FFE652E00EE66EC6
:10D9C00021EC65F0E5528A8A8D828D808D948D9050
:10D9D00000000000000000008350DF6E8D808D90FD
:10D9E00000000000000000008350DF6E8D80DF50DB
:10D9F00000D0E552E552E7CFD9FF1200D9CFE6FFBC
:10DA0000E1CFD9FF956AFE0EDB508C6E8D928D8230
:10DA1000EE0EE66E21EC65F0E552E552E7CFD9FF58
:10DA20001200D9CFE6FFE1CFD9FF020EE126FE0EAC
:10DA3000DB50020FDF6E0F0EDF14E66E21EC65F097
:10DA4000E552DF380F0B0F0B100FE66E21EC65F07F
:10DA5000E552FD0EDB40E840E8401F0B070BB00924
:10DA6000E66E21EC65F0E552A4DFE76E010EE7CF2C
:10DA7000DBFFFC0EDB5015E0010EDBCFE6FFFD0EF9
:10DA8000DB50070B0B6E010E0B5204E0E846FE0B59
:10DA90000B06FCE1E552E710E76E010EE7CFDBFF76
:10DAA00019D0010EDBCFE6FFFD0EDB50070B0B6E2E
:10DAB000010E0B5204E0E846FE0B0B06FCE10009E8
:10DAC00002E0000E01D0010EE552E714E76E010EF0
:10DAD000E7CFDBFFDBCFE6FF91DFE552020EE15C33
:10DAE00003E200D0E16AE552E16EE552E7CFD9FFEB
:02DAF000120022
:0EDAF2000E01BFB122D0BF838B809490550EE1
:10DB0000A76EAA0EA76E0E01FF910E0ED16F550ED5
:10DB1000A76EAA0EA76EFF810F0EBA6ECF0EBA14B3
:10DB20000009BA6EBB6A0F01526B800ECB6E040EF9
:10DB3000CA6EA496600E776E7F0E766E12000E018E
:10DB4000BF91BF938B80949012000E01BFA10BD0A8
:10DB50008B50010B06E19450010B03E1010E46D0FE
:10DB600002D0BF91C6DF0E01BFA3C3DFA4A63CD085
:10DB7000A496BA50300BE842E842E842E842030873
:10DB80001AE1400EBB5C11E18B909490BA6ACA6AAC
:10DB90000E01D16B0F01526BCB68766A7768A49641
:10DBA0000E01BF81BF93010E21D0BB2ACF0EBA1444
:10DBB0000009BA6E19D0BA0EE96E0F0EEA6EEF5078
:10DBC000300BE842E842E842E842E82AF36EF350BC
:10DBD000030BF36EF46EF346F346F346F346CF0EB3
:0EDBE000EF14F310EF6EF450000E00D01200A0
:02DBEE00040130
:10DBF00020511F0B010801E065D0245101E062D0E3
:10DC0000060E215D22E12351230A1EE0010A11E0E4
:10DC1000030A01E01AD0000161050AE10001EA0EE1
:10DC2000716FDC0E726F090E746F756BC00E736FBF
:10DC30000CD00001670E716FDD0E726F1D0E746FD8
:10DC4000756BC00E736F01D000D004012051600BC2
:10DC5000E842E842E842E842E842010801E032D006
:10DC600021510B0A29E0080A1CE0090A14E0080AFD
:10DC700007E00B0A04E0080A01E024D023D022D0F8
:10DC800000019E0E716F000E726F010E746F756B46
:10DC9000C10E736F17D00001800E736F23C49EF006
:10DCA00011D000019F0E716F000E726F010E746F24
:10DCB000756B810E736F06D00001800E736F22C4E6
:06DCC0009FF000D01200ED
:0ADCC6001201000200000008D8045B
:10DCD0005E0002000102000109022900010100C0EA
:10DCE000960904000002030000000921110100014F
:10DCF000221D0007058103400001070501034000C4
:10DD0000010403090434034D006900630072006FCD
:10DD10000063006800690070002000540065006323
:10DD20000068006E006F006C006F006700790020D3
:10DD30000049006E0063002E002E03530069006D41
:10DD40000070006C0065002000480049004400207D
:10DD5000004400650076006900630065002000440F
:10DD60000065006D006F000600FF0901A1011901A7
:10DD70002940150026FF00750895408102190129E8
:0CDD8000409102C0D8DC01DD05DD39DD7A
:04DD8C001E0EF66E03
:10DD9000A00EF76E000EF86E00010900F550936FAB
:10DDA0000900F550946F03E1936701D03DD009005D
:10DDB000F5508E6F0900F5508F6F0900F550906F88
:10DDC00009000900F550E96E0900F550EA6E0900F6
:10DDD00009000900F550916F0900F550926F090094
:10DDE0000900F6CF95F0F7CF96F0F8CF97F08EC0F8
:10DDF000F6FF8FC0F7FF90C0F8FF0001915302E1DA
:10DE0000925307E00900F550EE6E9107F8E2920791
:10DE1000F9D795C0F6FF96C0F7FF97C0F8FF00014D
:0ADE20009307000E945BBFD71200B9
:06DE2A00D9CFE6FFE1CFB5
:10DE3000D9FF030EE126140EE66E09EC6AF0E552F6
:10DE4000E76E020EE7CFDBFFDB96DB98DB90DB9221
:10DE5000DB94DBCFE6FF140EE66E98EC69F0E5523A
:10DE6000E552030EE15C02E2E16AE552E16EE55241
:06DE7000E7CFD9FF12000C
:0ADE7600FE0EE3CFE9FFFF0EE3CF3D
:10DE8000EAFFE9CFF3FFEACFF4FFFB0EE35003E133
:10DE9000FC0EE35009E0FB0EE30602E2FC0EE30693
:0ADEA000FD0EE350EE6EF1D7120004
:06DEAA00C00EF36E00EE55
:10DEB00000F00E0E01D81200EA6002D0EE6AFCD724
:0ADEC000F350E9601200EE6AFCD78F
:06DECA001DEE00F02DEE3C
:10DED00000F0F86A0A9CC6EC6EF003EC50F038ECE7
:06DEE00050F0FBD7120018
:0ADEE6000000000000000000000032
:01DEF0000031
:01FFF800AA5E
:01FFF900F710
:01FFFA001FE7
:01FFFB00FF06
:01FFFC0063A1
:01FFFD00F80B
:01FFFE008181
:01FFFF00F110
:00000001FF
