:020000040000FA
:06000000BFEF62F01200E8
:020006001200E6
:0600080075EF48F0120044
:02000E000001EF
:06001000020304050607CF
:020016001200D6
:0600180075EF48F0120034
:02001E000400DC
:10002000C6C50000BD0E000002000000C2C50000F1
:100030006603000004000000B7A90000FF020000F2
:1000400001000000B9C500005503000009000000D0
:1000500000001200D9CFE6FFE1CFD9FF82E949E8DD
:1000600000EBE6FFD6CFE6FF64EC5AF041E9E7503B
:10007000026E025056E002062AEC61F05EC33DF3C8
:100080005FC33EF360C33FF361C340F303013D51DF
:10009000036E3E51046E3F51056E4051066E2AECD0
:1000A00061F05EC33DF35FC33EF360C33FF361C3E2
:1000B00040F303013D51076E3E51086E3F51096EFA
:1000C00040510A6E07EB41F308EB42F309EB43F3AF
:1000D0000AEB44F3D950030FE96EDACFEAFFEE5092
:1000E0000301415D03013D6FEE50030142590301DD
:1000F0003E6FEE500301435903013F6FEE50030181
:1001000044590301406FD8803E0E03013D55000E57
:100110003E55000E3F55000E405501E201D0BFD7BD
:10012000A8D74AE9E7CFD9FF1200D9CFE6FFE1CF40
:10013000D9FF81E970E846EC45F0000902E185EF5E
:1001400017F00E0149A502D04EEF1CF00E01016B15
:100150000E018551040B01E0010E0E01030BF36E3D
:10016000FC0E0115F310016F0E010E0185510E01F9
:100170000197080B01E001870E018551030B01086F
:1001800002E1010E01D0000E0E01019BE8B0018BCF
:100190000E010E0185510E01019D800B01E0018DC4
:1001A0000E0185AF06D00E01018F86CE04FE87CEEC
:1001B00005FE8CCE0AFE8BCE09FE0E0149950E017E
:1001C0008551030B010A02E1DFEF0FF0020A02E1A1
:1001D00072EF0EF0030A02E07FEF17F00A0E0E0135
:1001E0008A5D02E280EF17F0020E0E01EA6A8825AE
:1001F000E96E8951EA22EF500A6E030E0E01EA6A97
:100200008825E96E8951EA22EF500B6E040E0E012B
:10021000EA6A8825E96E8951EA22EF50106E050ED0
:100220000E01EA6A8825E96E8951EA22EF50116EC3
:10023000060E0E01EA6A8825E96E8951EA22EF501E
:100240000C6E070E0E01EA6A8825E96E8951EA22D2
:10025000EF500D6E080E0E01EA6A8825E96E89518D
:10026000EA22EF500E6E090E0E01EA6A8825E96E49
:100270008951EA22EF500F6E0E010E0185510E01D9
:100280000197080B01E001870E010151030B0009E2
:1002900006E11050FC08FF0E115401E3B5D10E0128
:1002A00039510E1802E13A510F1809E10E013B5184
:1002B0000C1802E13C510D1802E180EF17F0016AC1
:1002C000050E015C3EE20150080DF3CFE9FFF4CFCB
:1002D000EAFF8D0EE9260E0EEA22030EE926000E35
:1002E000EA22EF502CE00150080DF3CFE9FFF4CFE4
:1002F000EAFF8D0EE9260E0EEA220E50EE1802E1FC
:100300000F50ED181CE10150080DF3CFE9FFF4CFB9
:10031000EAFF8D0EE9260E0EEA22020EE926000EF5
:10032000EA22EFCF3DF30A0E0E01EA6A8825E96E54
:100330008951EA22EF5003013D5D01E102D0012A1B
:10034000BFD7050E015C02E280EF17F0016A050ECF
:10035000015C13E20150080DF3CFE9FFF4CFEAFF8F
:100360008D0EE9260E0EEA22030EE926000EEA2281
:10037000EF5001E102D0012AEAD7050E015C58E2F4
:100380000150080DF3CFE9FFF4CFEAFF8D0EE92607
:100390000E0EEA220EEBEEFF0FEBEDFF0A0E0E0142
:1003A000EA6A8825E96E8951EA22EF50E66E01502B
:1003B000080DF3CFE9FFF4CFEAFF8D0EE9260E0E0C
:1003C000EA22020EE926000EEA22E552E750EF6E1D
:1003D0000150080DF3CFE9FFF4CFEAFF8D0EE926B7
:1003E0000E0EEA22030EE926000EEA22030EEF6E3D
:1003F0002AEC61F05EC33DF35FC33EF360C33FF39D
:1004000061C340F30150080DF3CFE9FFF4CFEAFFD9
:100410008D0EE9260E0EEA22040EE926000EEA22CF
:100420003DC3EEFF3EC3EEFF3FC3EEFF40C3EEFF12
:10043000101C01E1111C04E10E010181019313D094
:10044000FE0E101802E1FF0E111804E10E010181E9
:10045000018309D0FD0E101802E1FF0E111803E10F
:100460000E010191018388CEE9FF89CEEAFFEF50AA
:10047000010801E3C8D088CEE9FF89CEEAFFEF0684
:100480000E014CA10FD068C0E6FF690EE66E000EAB
:10049000E66E64C0E6FF65C0E6FF66C0E6FFB1EC4D
:1004A00043F046E90001686B016A0E018A51015C64
:1004B00016E201500E01EA6A8825E96E8951EA22A6
:1004C000EF50E66E00016851682BEA6A690FE96E29
:1004D000000EEA22E552E750EF6E012AE6D785CEFC
:1004E00064F02AEC61F05EC360F05FC361F060C34A
:1004F00062F061C363F0C80EE66EE66AD650E66E3F
:10050000E66A92EC5AF0E552E5CF3EF3E7CF3DF3D1
:100510003DC367F00E014C81101C01E1111C73E119
:1005200088CEE9FF89CEEAFFEF5001086CE2016A4C
:100530000A0E015C36E201500A0DF3CFE9FFF4CF59
:10054000EAFF960EE926010EEA22080EE926000EC1
:10055000EA22EF50800B23E001500A0DF3CFE9FFB0
:10056000F4CFEAFF960EE926010EEA22080EE926EC
:10057000000EEA22EF50010B12E101500A0DF3CFF9
:10058000E9FFF4CFEAFF960EE926010EEA22080EF3
:10059000E926000EEA22EF50200B01E002D0012AEA
:1005A000C7D70A0E015C2FE288CEE9FF89CEEAFFA9
:1005B000EF068ACE38FE126A0E013851125C14E240
:1005C00012500E01EA6A8825E96E8951EA22EF503D
:1005D000E66E1250EA6A000FE96E000EEA22E5525A
:1005E000E750EF6E122AE8D70E018551080B01E0A3
:1005F000010EE66EE66A000EE66EE66A010EE66E33
:10060000FEEC29F045E988D00E013B510A1802E1C1
:100610003C510B1802E0FBEF0DF00E0139511018A0
:1006200002E13A51111802E0FBEF0DF0010E0E014C
:10063000EA6A8825E96E8951EA22EF50040B6CE0E2
:100640005DC300F00001020E016F0CEB02F00DEB38
:1006500003F00EEB04F00FEB05F03BCE06F03CCEC2
:1006600007F039CE08F03ACE09F00A0E0E01EA6A18
:100670008825E96E8951EA22EFCF0AF000010B6B61
:100680000001300E0C6F0E010D0E386F0E013A5145
:100690000F5C0DE0E66A0EEBE6FF0FEBE6FF0CEBFE
:1006A000E6FF0DEBE6FFF3EC1EF045E933D00E015B
:1006B000826B0E01828B0EEB42FE0FEB43FE0CEBC6
:1006C00044FE0DEB45FE7BEC2BF0016EFF0E015C52
:1006D00012E001500A0DF3CFE9FFF4CFEAFF960EC6
:1006E000E926010EEA22040EE926000EEA22E9CFED
:1006F00083FEEACF84FE38CEE6FF000EE66E000EE3
:10070000E66E82CEE6FF83CEE6FF84CEE6FFB1EC56
:1007100043F046E90E0101850B0E0E01EA6A8825B9
:10072000E96E8951EA22EF5002E0BAEF0DF00C0EAB
:100730000E01EA6A8825E96E8951EA22EF503008F5
:1007400002E1A0EF0DF00C0E0E01EA6A8825E96EB9
:100750008951EA22EF50420A02E19BEF0DF0030AB1
:1007600002E121EF0DF0010A02E1F7EF0CF0F30ACC
:1007700002E1E2EF0CF0010A02E197EF0CF0030A4C
:1007800002E164EF0CF0010A02E134EF0CF0A10A7F
:1007900002E168EF0BF0B50A02E190EF09F0070AF9
:1007A00002E169EF09F0010A02E12EEF09F0030A04
:1007B00002E140EF08F0010A01E1C8D1B00A02E00D
:1007C0009EEF0DF00E016FB354D02AEC61F05EC3C2
:1007D0007EFE5FC37FFE60C380FE61C381FE080EA4
:1007E0000E01EA6A8825E96E8951EA22EFCF71FE8F
:1007F000090E0E01EA6A8825E96E8951EA22EFCFD7
:1008000072FE136A040E135C16E2020E13240B0F21
:100810000E01EA6A8825E96E8951EA22EF50E66EF8
:100820001350EA6A730FE96E0E0EEA22E552E750A2
:10083000EF6E132AE7D70E016F830E016F91136AD3
:10084000010E135C15E2110E13240E01EA6A8825CD
:10085000E96E8951EA22EF50E66E1350EA6A770F8B
:10086000E96E0E0EEA22E552E750EF6E132AE8D742
:100870006BD1080E0E01EA6A8825E96E8951EA22D9
:10088000EF500E01715D0CE1090E0E01EA6A882538
:10089000E96E8951EA22EF500E01725D01E154D1F7
:1008A0000E017151721101E0B8D0136A040E135C8D
:1008B00026E20D0E13240E01EA6A8825E96E89519D
:1008C000EA22EF50E66E1350EA6A7A0FE96E0E0ED6
:1008D000EA22E552E750EF6E1350EA6A7A0FE96EAA
:1008E0000E0EEA22EF50E66E1350EA6A3E0FE96EF2
:1008F0000E0EEA22E552E750EF6E132AD7D7080E04
:100900000E01EA6A8825E96E8951EA22EFCF78FE66
:10091000090E0E01EA6A8825E96E8951EA22EFCFB5
:1009200079FE78CE42FE79CE43FE3BCE44FE3CCEED
:1009300045FE7BEC2BF00E01706FFF0E0E01705D1B
:1009400067E10E018D0E4A6F0E0142AF02D00E011B
:100950004A91BDEC2CF00E01706FFF0E0E01705D20
:1009600057E2136A010E135C29E2110E13240E01E3
:10097000EA6A8825E96E8951EA22EF50E66E0E0197
:1009800070510A0DF3CFE9FFF4CFEAFF960EE92686
:10099000010EEA22090EE926000EEA22E9CF3DF314
:1009A000EACF3EF313500301EA6A3D25E96E3E515A
:1009B000EA22E552E750EF6E132AD4D70A0EE66E0C
:1009C000E66A0E0170510A0D030103012B51F32455
:1009D00003013D6F030103012C51F42003013E6F1D
:1009E0003DC3E6FF3EC3E6FF0E0170510A0DF3CF93
:1009F0003FF3F4CF40F3960E03013F27010E0301AE
:100A000040233FC3E6FF40C3E6FF1CEC5CF046E931
:100A10000E016F830E016F8197D0A00EE66EA90EB6
:100A2000E66EDEEC5FF042E90E010B0E386F0E0150
:100A30003851382BEA6A000FE96E000EEA22EF6A9D
:100A40000E013851382BEA6A000FE96E000EEA22D7
:100A5000110EEF6E136A040E135C28E20D0E1324C0
:100A60000E01EA6A8825E96E8951EA22EF50E66EA6
:100A70001350EA6A7A0FE96E0E0EEA22E552E75049
:100A8000EF6E1350EA6A7A0FE96E0E0EEA22EF500B
:100A9000E66E0E013851382BEA6A000FE96E000E3F
:100AA000EA22E552E750EF6E132AD5D7080E0E0161
:100AB000EA6A8825E96E8951EA22EFCF78FE090EAD
:100AC0000E01EA6A8825E96E8951EA22EFCF79FEA4
:100AD0000E013851382BEA6A000FE96E000EEA2247
:100AE00078CEEFFF0E013851382BEA6A000FE96E1D
:100AF000000EEA2279CEEFFF136A010E135C17E2B3
:100B0000110E13240E01EA6A8825E96E8951EA2242
:100B1000EF50E66E0E013851382BEA6A000FE96E8D
:100B2000000EEA22E552E750EF6E132AE6D7E66A96
:100B3000E66A710EE66E0E0EE66E67EC35F044E97D
:100B40000E016F830E016F819FEF0DF0020E0E01FB
:100B5000655D01E093D20D0E0E01EA6A8825E96E0B
:100B60008951EA22EF5001E09FD10E010B0E386F40
:100B70000E013851382BEA6A000FE96E000EEA22A6
:100B8000EF6A0E013851382BEA6A000FE96E000E49
:100B9000EA22A10EEF6E016A040E015C2AE20E0E3B
:100BA00001240E01EA6A8825E96E8951EA22EF5094
:100BB000E66E0150EA6A3E0FE96E0E0EEA22E55239
:100BC000E750EF6E0E0E01240E01EA6A8825E96EE9
:100BD0008951EA22EF50E66E0E013851382BEA6A4D
:100BE000000FE96E000EEA22E552E750EF6E012A8F
:100BF000D3D75BEC2CF0146EFF0E145C01E0A8D090
:100C00000E01426B010E016E100E015C0BE201EB56
:100C100043FE7BEC2BF0146EFF0E145C01E102D05E
:100C2000012AF2D7100E015C01E388D00150EA6A74
:100C3000CE0FE96E000EEA220FEBEFFF0E013851E6
:100C4000382BEA6A000FE96E000EEA2201EBEFFF93
:100C50000E019D0E4A6F3BCE44FE3CCE45FEBDECE0
:100C60002CF0146E0A0E145C58E2016A010E015C4D
:100C700028E2120E01240E01EA6A8825E96E8951E4
:100C8000EA22EF50E66E14500A0DF3CFE9FFF4CFDD
:100C9000EAFF960EE926010EEA22090EE926000E69
:100CA000EA22E9CF3DF3EACF3EF301500301EA6ABD
:100CB0003D25E96E3E51EA22E552E750EF6E012AEA
:100CC000D5D70A0E145C28E20A0EE66EE66A1450C6
:100CD0000A0D030103012B51F32403013D6F0301AE
:100CE00003012C51F42003013E6F3DC3E6FF3EC3D8
:100CF000E6FF14500A0DF3CF3FF3F4CF40F3960E06
:100D000003013F27010E030140233FC3E6FF40C319
:100D1000E6FF1CEC5CF046E910D00150EA6ACE0F09
:100D2000E96E000EEA22EF680E013851382BEA6AAC
:100D3000000FE96E000EEA22EF6809D00E0138516B
:100D4000382BEA6A000FE96E000EEA22EF6885D0C0
:100D500014500A0DF3CFE9FFF4CFEAFF960EE9260F
:100D6000010EEA22020EE926000EEA22EF5065E1AA
:100D70008FEB15F0155027E01550EA6ACE0FE96E9B
:100D8000000EEA22EFCF3DF314500A0DF3CFE9FF36
:100D9000F4CFEAFF960EE926010EEA22020EE926BA
:100DA000000EEA22E92A000EEA22EF5003013D5D1F
:100DB00001E109D01550EA6ACE0FE96E000EEA2271
:100DC000EF50156ED7D7155019E114500A0DF3CF17
:100DD000E9FFF4CFEAFF960EE926010EEA22020EA1
:100DE000E926000EEA22E92A000EEA22EF50EA6A1A
:100DF000CE0FE96E000EEA220FEBEFFF14500A0D42
:100E0000F3CFE9FFF4CFEAFF960EE926010EEA22BE
:100E1000020EE926000EEA22E92A000EEA22EF502D
:100E2000E66E0E013851382BEA6A000FE96E000EAB
:100E3000EA22E552E750EF6E10D014500A0DF3CFBE
:100E4000E9FFF4CFEAFF960EE926010EEA22080E2A
:100E5000E926000EEA22EF6AD3D6E66AE66AD9509E
:100E60000E0FE66EDACFE6FF67EC35F044E90E01CF
:100E70004C834C854C972AEC61F05EC34DFE5FC3FA
:100E80004EFE60C34FFE61C350FE120E0E014D5F59
:100E90007A0E0E014E5B000E0E014F5B000E0E012E
:100EA000505B0E014B81EAD0016A040E015C15E231
:100EB0000E0E01240E01EA6A8825E96E8951EA22A4
:100EC000EF50E66E0150EA6A3E0FE96E0E0EEA221E
:100ED000E552E750EF6E012AE8D75BEC2CF0146E78
:100EE000FF0E145C01E1CAD00F0E016E01505DE0EF
:100EF00081EB16F0176A165056E01650EA6ACE0FCC
:100F0000E96E000EEA22EF50FF0801E14CD01650C6
:100F1000EA6ACE0FE96E000EEA22EFCF3DF31450DD
:100F20000A0DF3CFE9FFF4CFEAFF960EE926010E92
:100F3000EA22020EE926000EEA22E92A000EEA223F
:100F4000EF5003013D5D21E10150EA6ACE0FE96EE9
:100F5000000EEA22EF680E01426B01EB43FE7BECD0
:100F60002BF0186EFF0E185C0FE018500A0DF3CF2F
:100F7000E9FFF4CFEAFF960EE926010EEA22080EF9
:100F8000E926000EEA22EF6A0ED01650EA6ACE0F6A
:100F9000E96E000EEA22EF50166E1750172A10085D
:100FA00001E201D0A8D70106A1D714500A0DF3CF52
:100FB000E9FFF4CFEAFF960EE926010EEA22020EBF
:100FC000E926000EEA22E92A000EEA22EF50EA6A38
:100FD000CE0FE96E000EEA22EF6814500A0DF3CF2F
:100FE000E9FFF4CFEAFF960EE926010EEA22080E89
:100FF000E926000EEA22EF6A0A0EE66EE66A14504F
:101000000A0D030103012B51F32403013D6F03017A
:1010100003012C51F42003013E6F3DC3E6FF3EC3A4
:10102000E6FF14500A0DF3CF3FF3F4CF40F3960ED2
:1010300003013F27010E030140233FC3E6FF40C3E6
:10104000E6FF1CEC5CF046E90E014C834C854C97A6
:101050002AEC61F05EC34DFE5FC34EFE60C34FFEDF
:1010600061C350FE120E0E014D5F7A0E0E014E5BF3
:10107000000E0E014F5B000E0E01505B9FEF0DF056
:101080001B6A016A040E015C15E20D0E01240E01BB
:10109000EA6A8825E96E8951EA22EF50E66E01502E
:1010A000EA6A3E0FE96E0E0EEA22E552E750EF6E55
:1010B000012AE8D70E01BF0E4A6F110E0E01EA6A2F
:1010C0008825E96E8951EA22EF50FF0839E15BEC8F
:1010D0002CF0196E0A0E195C30E23ACE43FE010E76
:1010E0001A6E016A0A0E015C12E21AEB42FE7BECF8
:1010F0002BF0FF0809E1800E1A240E01426F7BECF1
:101100002BF0FF0801E103D01A2A012AEBD70A0EBF
:10111000015C12E21A5003013D6F3E6B800E030129
:10112000D8903EBF03D03D5D000E3E5903E21AEB5E
:1011300042FE02D0010E1B6E02D09FEF0DF00BD0CD
:101140000E01426B110E0E01EA6A8825E96E895183
:10115000EA22EFCF43FE3BCE44FE3CCE45FEBDEC43
:101160002CF0196E0001020E006F42CE01F043CE4A
:1011700002F01BEB03F0016A010E015C14E2015066
:10118000EA6ABD0FE96E0E0EEA22EF50E66E040E1B
:101190000124EA6A000FE96E000EEA22E552E750E8
:1011A000EF6E012AE9D73ACE05F00E01060E386F30
:1011B0001950040DF3CFE9FFF4CFEAFF330EE9260F
:1011C000000EEA22EE6AEE6AEE6AEE6A010EE66E42
:1011D00019500A0DF3CFE9FFF4CFEAFF960EE92686
:1011E000010EEA22040EE926000EEA22E9CF3DF3C1
:1011F000EACF3EF33DC3E6FF3EC3E6FF07EC21F036
:1012000043E90A0E195C28E20A0EE66EE66A1950F6
:101210000A0D030103012B51F32403013D6F030168
:1012200003012C51F42003013E6F3DC3E6FF3EC392
:10123000E6FF19500A0DF3CF3FF3F4CF40F3960EBB
:1012400003013F27010E030140233FC3E6FF40C3D4
:10125000E6FF1CEC5CF046E99FEF0DF00E010B0E73
:10126000386F0E013851382BEA6A000FE96E000E14
:10127000EA22EF6A0E013851382BEA6A000FE96E54
:10128000000EEA22A30EEF6E016A100E015C15E259
:101290000150EA6ACE0FE96E000EEA22EF50E66EC8
:1012A0000E013851382BEA6A000FE96E000EEA226F
:1012B000E552E750EF6E012AE8D7E66AE66AD950B0
:1012C0000E0FE66EDACFE6FF67EC35F044E99FEFEC
:1012D0000DF0016A100E015C15E20D0E01240E01E5
:1012E000EA6A8825E96E8951EA22EF50E66E0150DC
:1012F000EA6ACE0FE96E000EEA22E552E750EF6E81
:10130000012AE8D72AEC61F05EC34DFE5FC34EFEB2
:1013100060C34FFE61C350FE0E014B819FEF0DF085
:101320000E018B51010801E3D2D10E0E1C6E1C5030
:101330000E01EA6A8825E96E8951EA22EF501D6E96
:10134000016A020E015C45E20F50020DF3CF3EF33D
:10135000F4CF3FF3DE0E03013E27000E03013F23CF
:1013600001500301EA6A3E25E96E3F51EA22EFCFC0
:101370003DF31C2801240E01EA6A8825E96E895193
:10138000EA22EF5003013D5D22E01C2801240E01FA
:10139000EA6A8825E96E8951EA22EF50E66E0F501D
:1013A000020DF3CF3DF3F4CF3EF3DE0E03013D27F4
:1013B000000E03013E2301500301EA6A3D25E96E58
:1013C0003E51EA22E552E750EF6E0E014B85012AAD
:1013D000B8D70F50F80BE842E842E842EA6ABC0F7F
:1013E000E96E000EEA22EFCF3DF31C040E01EA6A1B
:1013F0008825E96E8951EA22EF50070B03013E6F01
:10140000010E03013E5304E0E846FE0B3E07FCE1FB
:1014100003013D1524E11C040E01EA6A8825E96EEA
:101420008951EA22EF50070B03013E6F010E0301C1
:101430003E5304E0E846FE0B3E07FCE103013D6F2E
:101440000F50F80BE842E842E842EA6ABC0FE96E46
:10145000000EEA2203013D51EF120E014B83016A97
:10146000040E015C14E201500E01EA6A8625E96E61
:101470008751EA22EF50E66E0150EA6A3E0FE96EAC
:101480000E0EEA22E552E750EF6E012AE9D70E016F
:10149000426B1C040E01EA6A8825E96E8951EA2232
:1014A000EFCF43FE0E018F0E4A6F3BCE44FE3CCE83
:1014B00045FE5BEC2CF0016E0A0E015C4FE2015020
:1014C0000A0DF3CFE9FFF4CFEAFF960EE926010EED
:1014D000EA22020EE926000EEA22EECF3DF3EFCF1C
:1014E0003EF30E01425103013D1904E10E01435147
:1014F00003013E1923E001500A0DF3CFE9FFF4CFB9
:10150000EAFF960EE926010EEA22020EE926000EF7
:10151000EA2242CEEEFF43CEEDFF01500A0DF3CF9B
:10152000E9FFF4CFEAFF960EE926010EEA22080E43
:10153000E926000EEA22EF860E014B8701500A0DC4
:10154000F3CFE9FFF4CFEAFF960EE926010EEA2277
:10155000080EE926000EEA22EF820AD0BDEC2CF03C
:1015600003013D6F0A0E03013D5D02E20E014B8750
:101570001C040E01EA6A8825E96E8951EA22EF50BF
:101580001D5C01E086D00E014CA111D068C0E6FFC1
:10159000690EE66E000EE66E64C0E6FF65C0E6FF0B
:1015A00066C0E6FFB1EC43F046E90E014C91000144
:1015B000010E696F0001020E6A6F3BCE6BF03CCEEC
:1015C0006CF00001FD0E6D6F00016E693BCE6FF097
:1015D0003CCE70F039CE71F03ACE72F00E01485127
:1015E000482B0001736F0001746B0001A40E756F2E
:1015F00000010D0E686F00016851682BEA6A690FDF
:10160000E96E000EEA223ACEEFFF00016851682B26
:10161000EA6A690FE96E000EEA221DEBEFFF016A2C
:10162000020E015C15E20150EA6ABC0FE96E000E81
:10163000EA22EF50E66E00016851682BEA6A690FF2
:10164000E96E000EEA22E552E750EF6E012AE8D774
:101650000001646B000164850001648FC80EE66EB2
:10166000E66AD650E66EE66A92EC5AF0E552E5CFAD
:101670003EF3E7CF3DF33DC367F02AEC61F05EC374
:1016800060F05FC361F060C362F061C363F00E019C
:101690004C810F50EA6A550FE96E0E0EEA22EF50A8
:1016A00004E10E014B830E014B850F50EA6A550F82
:1016B000E96E0E0EEA22030EEF6E2AEC61F05EC3B5
:1016C0004DFE5FC34EFE60C34FFE61C350FE37D276
:1016D0001E6A040E1E5C16E20B0E1E24020F0E0183
:1016E000EA6A8825E96E8951EA22EF50E66E1E50BB
:1016F000EA6A3E0FE96E0E0EEA22E552E750EF6EFF
:101700001E2AE7D70E018D0E4A6F110E0E01EA6AEE
:101710008825E96E8951EA22EF50800B02E00E0124
:101720004A91110E0E01EA6A8825E96E8951EA2272
:10173000EFCF42FE120E0E01EA6A8825E96E89514A
:10174000EA22EFCF43FE3BCE44FE3CCE45FE7BEC8F
:101750002BF00E01706FFF0E0E01705D16E00E0192
:1017600070510A0DF3CFE9FFF4CFEAFF960EE92698
:10177000010EEA22080EE926000EEA22EFCF4AFE09
:101780000E014A850E014A8708D00E018D0E4A6F60
:101790000E0142AF02D00E014A91BDEC2CF00E01B9
:1017A000706FFF0E0E01705D5AE21E6A010E1E5C24
:1017B00029E2130E1E240E01EA6A8825E96E89517A
:1017C000EA22EF50E66E0E0170510A0DF3CFE9FFE9
:1017D000F4CFEAFF960EE926010EEA22090EE92669
:1017E000000EEA22E9CF3DF3EACF3EF31E5003019B
:1017F000EA6A3D25E96E3E51EA22E552E750EF6E76
:101800001E2AD4D70A0EE66EE66A0E0170510A0D42
:10181000030103012B51F32403013D6F0301030175
:101820002C51F42003013E6F3DC3E6FF3EC3E6FFAB
:101830000E0170510A0DF3CF3FF3F4CF40F3960E33
:1018400003013F27010E030140233FC3E6FF40C3CE
:10185000E6FF1CEC5CF046E90E016F8102D00E0140
:101860006F910E016F936BD10D0E0E01EA6A882500
:10187000E96E8951EA22EF501F6E0E0E0E01EA6AE0
:101880008825E96E8951EA22EF50206E0F0E0E0175
:10189000EA6A8825E96E8951EA22EF50216E100E1E
:1018A0000E01EA6A8825E96E8951EA22EF50226E1C
:1018B0001FEBE6FF20EBE6FF21EBE6FF22EBE6FF66
:1018C000EEEC3BF044E93BD10D0E0E01EA6A8825AF
:1018D000E96E8951EA22EFCF67FE0E0E0E01EA6A29
:1018E0008825E96E8951EA22EFCF68FE0F0E0E01BE
:1018F000EA6A8825E96E8951EA22EFCF69FE100E67
:101900000E01EA6A8825E96E8951EA22EFCF6AFE64
:101910000E01666B0E0166812AEC61F05EC36BFE00
:101920005FC36CFE60C36DFE61C36EFE08D1030130
:10193000800E3D6F0D0E0E01EA6A8825E96E895111
:10194000EA22EF50EA6A9C0FE96E000EEA22EF509D
:1019500003013D5D36E20E010B0E386F0E0138516A
:10196000382BEA6A000FE96E000EEA22EF6A0E01D8
:101970003851382BEA6A000FE96E000EEA22B30EE6
:10198000EF6E0D0E0E01EA6A8825E96E8951EA2292
:10199000EF50E66E0E013851382BEA6A000FE96EFF
:1019A000000EEA22E552E750EF6E0E01426B436BE8
:1019B000E66AE66A420EE66E0E0EE66E67EC35F0FB
:1019C00044E9BDD00D0E0E01EA6A8825E96E895101
:1019D000EA22EFCF3DF30E016651F80BE842E842F0
:1019E000E84203013D5D02E10E016685A8D00D0EBF
:1019F0000E01EA6A8825E96E8951EA22EF50030157
:101A0000595D1EE12AEC61F05EC36BFE5FC36CFEA4
:101A100060C36DFE61C36EFE0E0166830E0E0E0185
:101A2000EA6A8825E96E8951EA22EF500E011F0B00
:101A3000F36EF346F346F346070E6615F310666F32
:101A40007ED00D0E0E01EA6A8825E96E8951EA22E0
:101A5000EF500301595D01E072D00E01386B5DC398
:101A600000F00001020E016F3BCE02F03CCE03F00D
:101A7000080E0E01EA6A8825E96E8951EA22EFCF45
:101A800004F0090E0E01EA6A8825E96E8951EA22FE
:101A9000EFCF05F03BCE06F03CCE07F039CE08F094
:101AA0003ACE09F00E014851482B00010A6F00019F
:101AB0000B6B0001420E0C6F0E01826B0E01828BCC
:101AC000080E0E01EA6A8825E96E8951EA22EFCFF5
:101AD00042FE090E0E01EA6A8825E96E8951EA2262
:101AE000EFCF43FE7BEC2BF0016EFF0E015C01E1BA
:101AF00026D001500A0DF3CFE9FFF4CFEAFF960E8E
:101B0000E926010EEA22040EE926000EEA22E9CFB8
:101B100083FEEACF84FE0D0EE66E000EE66E000E2A
:101B2000E66E82CEE6FF83CEE6FF84CEE6FFB1EC22
:101B300043F046E904D00E01499D01D000D019D0F0
:101B40000A0E0E01EA6A8825E96E8951EA22EF50F1
:101B500003015B5D09E10E0146510E1802E1475198
:101B60000F1802E10E0149970E50800800E280EF45
:101B700017F040D00B0E0E018A5D0E01086F0B0EA0
:101B80000E0188250E01066F000E0E0189210E013F
:101B9000076F0CEB02FE0DEB03FE080E0E01EA6A66
:101BA0008825E96E8951EA22EF50FF080FE1090EFE
:101BB0000E01EA6A8825E96E8951EA22EF50FF0892
:101BC00005E186CE04FE87CE05FE0CD00E01018F06
:101BD000080E0E0188250E01046F000E0E018921EA
:101BE0000E01056F0E01018D0E010851000802E281
:101BF0000E01498575D088CEE9FF89CEEAFFEF5006
:101C000000086EE288CEE9FF89CEEAFFEF060E01FA
:101C1000386B016A0E018A51015C16E201500E0117
:101C2000EA6A8825E96E8951EA22EF50E66E0E01D4
:101C30003851382BEA6A000FE96E000EEA22E552AD
:101C4000E750EF6E012AE6D70E013A51115C37E1F9
:101C500000010B5134E1300E00010C5D30E10E014A
:101C6000826B0E01828B10EB42FE11EB43FE7BEC8C
:101C70002BF0016EFF0E015C21E001500A0DF3CF45
:101C8000E9FFF4CFEAFF960EE926010EEA22040EE0
:101C9000E926000EEA22E9CF83FEEACF84FE38CEA1
:101CA000E6FF000EE66E000EE66E82CEE6FF83CE05
:101CB000E6FF84CEE6FFB1EC43F046E911D00E0119
:101CC0008551080B01E0010EE66E10EBE6FF11EB0B
:101CD000E6FF0AEBE6FF0BEBE6FFF3EC1EF045E94F
:101CE00080EF17F0040E236E040E23240E01EA6A1F
:101CF0008825E96E8951EA22EF505D0802E080EF05
:101D000017F00E0149A159D188CEE9FF89CEEAFF2B
:101D1000EFCF44FE010E0E01EA6A8825E96E895173
:101D2000EA22EFCF45FE020E0E01EA6A8825E96E2F
:101D30008951EA22EFCF42FE030E0E01EA6A88259E
:101D4000E96E8951EA22EFCF43FE23500E01EA6A81
:101D50008825E96E8951EA22EF50FF0801E02DD174
:101D600023280E01EA6A8825E96E8951EA22EF509C
:101D7000246E040E0E010B5D01E31FD1D950240F18
:101D8000E96EDACFEAFFEF50300BE842E842E84272
:101D9000E842010801E211D10E010B510B0DF3CF06
:101DA000E9FFF4CFEAFF0C0EE9260E0EEA2259C332
:101DB000EFFF0E010B510B0DF3CFE9FFF4CFEAFF5C
:101DC0000C0EE9260E0EEA22070EE926000EEA2284
:101DD00009CEEFFF0E010B510B0DF3CFE9FFF4CF4E
:101DE000EAFF0C0EE9260E0EEA22080EE926000E86
:101DF000EA220ACEEFFF0E010B510B0DF3CFE9FFE4
:101E0000F4CFEAFF0C0EE9260E0EEA22050EE926B3
:101E1000000EEA2244CEEEFF45CEEDFF0E010B513F
:101E20000B0DF3CFE9FFF4CFEAFF0C0EE9260E0EFF
:101E3000EA22090EE926000EEA22EF6A0E010B5192
:101E40000B0DF3CFE9FFF4CFEAFF0C0EE9260E0EDF
:101E5000EA22090EE926000EEA22EF8CD950240F5F
:101E6000E96EDACFEAFFEF50060BE84203013D6F5F
:101E70000E010B510B0DF3CFE9FFF4CFEAFF0C0E6F
:101E8000E9260E0EEA22090EE926000EEA220301D7
:101E90003D51030BF36EFC0EEF14F310EF6ED950AF
:101EA000240FE96EDACFEAFFEF50080B10E00E01C5
:101EB0000B510B0DF3CFE9FFF4CFEAFF0C0EE9262F
:101EC0000E0EEA22090EE926000EEA22EF86D9500C
:101ED000240FE96EDACFEAFFEF50300BE842E84218
:101EE000E842E842010810E30E010B510B0DF3CF5D
:101EF000E9FFF4CFEAFF0C0EE9260E0EEA22090EE6
:101F0000E926000EEA22EF8A016A040E015C25E24E
:101F100001500E01EA6A0425E96E0551EA22EF50EC
:101F2000E66E0E010B510B0DF3CFE9FFF4CFEAFF84
:101F30000C0EE9260E0EEA22EE52E9CF3DF3EACF6F
:101F40003EF301500301EA6A3D25E96E3E51EA2263
:101F5000E552E750EF6E012AD8D7016A010E015C05
:101F60002AE2060E232401240E01EA6A8825E96E7E
:101F70008951EA22EF50E66E0E010B510B0DF3CFA3
:101F8000E9FFF4CFEAFF0C0EE9260E0EEA220A0E54
:101F9000E926000EEA22E9CF3DF3EACF3EF30150F5
:101FA0000301EA6A3D25E96E3E51EA22E552E75017
:101FB000EF6E012AD3D70E010B2B80EF17F088CEDE
:101FC000E9FF89CEEAFFEF50070A02E15EEF17F062
:101FD000030A02E148EF17F0070A02E123EF14F0C9
:101FE000010A01E1CAD2030A02E07DEF17F0266A76
:101FF00003015A51010802E27EEF17F00E0149B3C6
:1020000002D07EEF17F0016A040E015C14E2015069
:102010000E01EA6A8625E96E8751EA22EF50E66EE4
:102020000150EA6A3E0FE96E0E0EEA22E552E750D1
:10203000EF6E012AE9D75BEC2CF0256EFF0E255CD4
:102040006BE025500A0DF3CFE9FFF4CFEAFF960EBF
:10205000E926010EEA22080EE926000EEA22EF50D8
:10206000200B5AE00E013D51255C56E025500A0D2B
:10207000F3CFE9FFF4CFEAFF960EE926010EEA223C
:10208000080EE926000EEA22EF50080B45E0255025
:102090000A0DF3CFE9FFF4CFEAFF960EE926010E11
:1020A000EA22020EE926000EEA22EECF42FEEDCF32
:1020B00043FE03015A51010802E27EEF17F0016A64
:1020C000010E015C28E2020E01240E01EA6A882555
:1020D000E96E8951EA22EF50E66E25500A0DF3CFE2
:1020E000E9FFF4CFEAFF960EE926010EEA22090E77
:1020F000E926000EEA22E9CF3DF3EACF3EF3015094
:102100000301EA6A3D25E96E3E51EA22E552E750B5
:10211000EF6E012AD5D7E0D103015A51000802E23F
:102120007EEF17F00E01A70E4A6F3BCE44FE3CCE69
:1021300045FEBDEC2CF0256EFF0E255C07E1010E7F
:10214000266E0E01FE0E426F4369C6D1016A010E72
:10215000015C28E2020E01240E01EA6A8825E96E7C
:102160008951EA22EF50E66E25500A0DF3CFE9FFC0
:10217000F4CFEAFF960EE926010EEA22090EE926BF
:10218000000EEA22E9CF3DF3EACF3EF3015003010E
:10219000EA6A3D25E96E3E51EA22E552E750EF6ECC
:1021A000012AD5D7010E0E01EA6A8825E96E895108
:1021B000EA22EF50400B01E1CFD0020E0E01655D27
:1021C00060E00E010B0E386F0E013851382BEA6AB1
:1021D000000FE96E000EEA22EF6A0E013851382B2B
:1021E000EA6A000FE96E000EEA22A00EEF6E0E0101
:1021F0003851382BEA6A000FE96E000EEA22EF6AC6
:10220000016A040E015C15E20150EA6A3E0FE96EB4
:102210000E0EEA22EF50E66E0E013851382BEA6AB4
:10222000000FE96E000EEA22E552E750EF6E012A38
:10223000E8D7016A010E015C15E20150EA6ABD0FA0
:10224000E96E0E0EEA22EF50E66E0E013851382B81
:10225000EA6A000FE96E000EEA22E552E750EF6EDF
:10226000012AE8D70E01426B436BE66AE66A420E2A
:10227000E66E0E0EE66E67EC35F044E97EEF17F081
:102280006AD00E01426B010E286E100E285C32E2FD
:1022900028EB43FE7BEC2BF0276EFF0E275C28E13A
:1022A0000E01426B28EB43FE2850EA6ACE0FE96E1E
:1022B000000EEA22EF6A0E014C834C854C972AEC03
:1022C00061F05EC34DFE5FC34EFE60C34FFE61C34F
:1022D00050FE120E0E014D5F7A0E0E014E5B000E87
:1022E0000E014F5B000E0E01505B0E014B8102D0C0
:1022F000282ACBD7100E285C2EE10E01436B010E6D
:10230000016E015003013D6F3E6B800E0301D890BA
:102310003EBF03D03D5D000E3E5913E201EB42FE8D
:102320007BEC2BF0FF080BE1800E01240E01426FC5
:102330007BEC2BF0FF0803E101EB42FE02D0012A07
:10234000E0D701507F0807E2010E266E0E01FE0E57
:10235000426F4369C1D02ED03ACE43FE010E016ECA
:10236000015003013D6F3E6B800E0301D8903EBFCC
:1023700003D03D5D000E3E5913E201EB42FE7BECC3
:102380002BF0FF080BE1800E01240E01426F7BEC65
:102390002BF0FF0803E101EB42FE02D0012AE0D757
:1023A00001507F0807E2010E266E0E01FE0E426FFD
:1023B000436992D00E01BF0E4A6F010E0E01EA6A08
:1023C0008825E96E8951EA22EF50010B04E10E01E4
:1023D0004A910E01428F11D025500A0DF3CFE9FF2B
:1023E000F4CFEAFF960EE926010EEA22080EE9264E
:1023F000000EEA22EF6A020E266E26506DE13BCEF9
:1024000044FE3CCE45FEBDEC2CF0256E0A0E255C4C
:1024100063E225500A0DF3CFE9FFF4CFEAFF960EF1
:10242000E926010EEA22080EE926000EEA22EF88CC
:10243000016A010E015C28E2020E01240E01EA6A23
:102440008825E96E8951EA22EF50E66E25500A0D83
:10245000F3CFE9FFF4CFEAFF960EE926010EEA2258
:10246000090EE926000EEA22E9CF3DF3EACF3EF35A
:1024700001500301EA6A3D25E96E3E51EA22E55228
:10248000E750EF6E012AD5D70A0EE66EE66A2550B0
:102490000A0D030103012B51F32403013D6F0301D6
:1024A00003012C51F42003013E6F3DC3E6FF3EC300
:1024B000E6FF25500A0DF3CF3FF3F4CF40F3960E1D
:1024C00003013F27010E030140233FC3E6FF40C342
:1024D000E6FF1CEC5CF046E90001020E006F42CE04
:1024E00001F043CE02F026EB03F0016A010E015C1D
:1024F00014E20150EA6ABD0FE96E0E0EEA22EF50B7
:10250000E66E040E0124EA6A000FE96E000EEA226C
:10251000E552E750EF6E012AE9D73ACE05F00E01F9
:10252000060E386F2550040DF3CFE9FFF4CFEAFF14
:10253000330EE926000EEA22EE6AEE6AEE6AEE6AD1
:10254000010EE66E25500A0DF3CFE9FFF4CFEAFF46
:10255000960EE926010EEA22040EE926000EEA2272
:10256000E9CF3DF3EACF3EF33DC3E6FF3EC3E6FFCE
:1025700007EC21F043E97EEF17F0030E0E01EA6A43
:102580008825E96E8951EA22EF5001E02CD1010E35
:102590000E01EA6A8825E96E8951EA22EFCF39FEF9
:1025A000020E0E01EA6A8825E96E8951EA22EFCF10
:1025B0003AFE0E01395115E18B0EE66EA90EE66E5C
:1025C000DEEC5FF042E90E01010E656F0E01655110
:1025D0000E01030BF36EF346F90E0015F310006FB6
:1025E00013D0760EE66EA90EE66EDEEC5FF042E9E1
:1025F0000E01656B0E0165510E01030BF36EF34680
:10260000F90E0015F310006F010EE66EE66A39C38D
:10261000E6FF3AC3E6FF650EE66E0E0EE66E1CECB4
:102620005CF046E93B0EE66E0E0EE66E390EE66E87
:102630000E0EE66E5BEC42F044E90E0149830E019A
:10264000BF0E4A6F016A040E015C14E201500E01D4
:10265000EA6A8625E96E8751EA22EF50E66E01505C
:10266000EA6A3E0FE96E0E0EEA22E552E750EF6E7F
:10267000012AE9D70E01426B050E0E01EA6A882590
:10268000E96E8951EA22EFCF43FE3BCE44FE3CCEB9
:1026900045FEBDEC2CF00E013D6F0E013D51040DC9
:1026A000F3CFE9FFF4CFEAFF330EE926000EEA226A
:1026B000EE6AEE6AEE6AEE6A016A010E015C29E2D8
:1026C000040E01240E01EA6A8825E96E8951EA2286
:1026D000EF50E66E0E013D510A0DF3CFE9FFF4CF46
:1026E000EAFF960EE926010EEA22090EE926000EFF
:1026F000EA22E9CF3DF3EACF3EF301500301EA6A53
:102700003D25E96E3E51EA22E552E750EF6E012A7F
:10271000D4D70E014C894C8B4C9D2AEC61F05EC3E2
:102720004DFE5FC34EFE60C34FFE61C350FE020EFE
:10273000E66EE66A25C3E6FF26C3E6FF3B0EE66EBD
:102740000E0EE66E1CEC5CF046E9020EE66EE66AE2
:102750002FC3E6FF30C3E6FF390EE66E0E0EE66EBF
:102760001CEC5CF046E9010EE66EE66A31C3E6FF5A
:1027700032C3E6FF3D0EE66E0E0EE66E1CEC5CF01C
:1027800046E90A0EE66EE66A0E013D510A0D0301A6
:1027900003012B51F32403013D6F030103012C516D
:1027A000F42003013E6F3DC3E6FF3EC3E6FF0E018A
:1027B0003D510A0DF3CF3FF3F4CF40F3960E0301E2
:1027C0003F27010E030140233FC3E6FF40C3E6FF5E
:1027D0001CEC5CF046E9540EE66EA90EE66EDEECEB
:1027E0005FF042E92FD00E013D690E013B693C6963
:1027F0000E01426943693B0EE66E0E0EE66E420E16
:10280000E66E0E0EE66E5BEC42F044E9010EE66EFB
:10281000E66A31C3E6FF32C3E6FF3D0EE66E0E0EFA
:10282000E66E1CEC5CF046E9020EE66EE66A25C335
:10283000E6FF26C3E6FF3B0EE66E0E0EE66E1CECD0
:102840005CF046E95BD30E0149A358D3016A040E3C
:10285000015C14E201500E01EA6A8625E96E875197
:10286000EA22EF50E66E0150EA6A3E0FE96E0E0E64
:10287000EA22E552E750EF6E012AE9D75BEC2CF033
:10288000296EFF0E295C01E139D329500A0DF3CFDF
:10289000E9FFF4CFEAFF960EE926010EEA22080EC0
:1028A000E926000EEA22EF50200B01E1F0D20E01E2
:1028B0003D51295C01E171D129500A0DF3CFE9FFA7
:1028C000F4CFEAFF960EE926010EEA22020EE9266F
:1028D000000EEA22EF5001E028D1020E0E01655DE4
:1028E00001E0CBD00F0E016E01505DE081EB2AF0CC
:1028F0002B6A2A5056E02A50EA6ACE0FE96E000E83
:10290000EA22EF50FF0801E14CD02A50EA6ACE0FCC
:10291000E96E000EEA22EFCF3DF329500A0DF3CF06
:10292000E9FFF4CFEAFF960EE926010EEA22020E35
:10293000E926000EEA22E92A000EEA22EF500301FE
:102940003D5D21E10150EA6ACE0FE96E000EEA22F8
:10295000EF680E01426B01EB43FE7BEC2BF02C6E1B
:10296000FF0E2C5C0FE02C500A0DF3CFE9FFF4CFE3
:10297000EAFF960EE926010EEA22080EE926000E6D
:10298000EA22EF6A0ED02A50EA6ACE0FE96E000EF4
:10299000EA22EF502A6E2B502B2A100801E201D0B8
:1029A000A8D70106A1D729500A0DF3CFE9FFF4CF2C
:1029B000EAFF960EE926010EEA22020EE926000E33
:1029C000EA22E92A000EEA22EF50EA6ACE0FE96E07
:1029D000000EEA22EF6829500A0DF3CFE9FFF4CF89
:1029E000EAFF960EE926010EEA22080EE926000EFD
:1029F000EA22EF6A0A0EE66EE66A29500A0D030122
:102A000003012B51F32403013D6F030103012C51FA
:102A1000F42003013E6F3DC3E6FF3EC3E6FF2950AD
:102A20000A0DF3CF3FF3F4CF40F3960E03013F2797
:102A3000010E030140233FC3E6FF40C3E6FF1CEC49
:102A40005CF046E90E014C834C854C972AEC61F012
:102A50005EC34DFE5FC34EFE60C34FFE61C350FEBA
:102A6000120E0E014D5F7A0E0E014E5B000E0E012E
:102A70004F5B000E0E01505B58D00E010B0E386FED
:102A80000E013851382BEA6A000FE96E000EEA2277
:102A9000EF6A0E013851382BEA6A000FE96E000E1A
:102AA000EA22A00EEF6E0E013851382BEA6A000FB1
:102AB000E96E000EEA22010EEF6E016A040E015C5F
:102AC00028E229500A0DF3CFE9FFF4CFEAFF960E72
:102AD000E926010EEA22040EE926000EEA22E9CFD9
:102AE0003DF3EACF3EF301500301EA6A3D25E96E6A
:102AF0003E51EA22EF50E66E0E013851382BEA6A59
:102B0000000FE96E000EEA22E552E750EF6E012A4F
:102B1000D5D70E01426B436BE66AE66A420EE66E5B
:102B20000E0EE66E67EC35F044E929500A0DF3CF3E
:102B3000E9FFF4CFEAFF960EE926010EEA22080E1D
:102B4000E926000EEA22EF6A0A0EE66EE66A2950CE
:102B50000A0D030103012B51F32403013D6F03010F
:102B600003012C51F42003013E6F3DC3E6FF3EC339
:102B7000E6FF29500A0DF3CF3FF3F4CF40F3960E52
:102B800003013F27010E030140233FC3E6FF40C37B
:102B9000E6FF1CEC5CF046E97AD1016A0A0E015CA2
:102BA00073E201500A0DF3CFE9FFF4CFEAFF960E6E
:102BB000E926010EEA22080EE926000EEA22EF506D
:102BC000800B51E001500A0DF3CFE9FFF4CFEAFF8B
:102BD000960EE926010EEA22080EE926000EEA22E8
:102BE000EF50200B40E00E013D51015C3CE00E0136
:102BF000386B0E013851382BEA6A000FE96E000E6F
:102C0000EA22030EEF6E0E01826B0E01828B0E0123
:102C1000828182930E01828F01500A0DF3CFE9FF6A
:102C2000F4CFEAFF960EE926010EEA22040EE92609
:102C3000000EEA22E9CF83FEEACF84FE38CEE6FF1B
:102C4000000EE66E000EE66E82CEE6FF83CEE6FF55
:102C500084CEE6FFB1EC43F046E9640EE66EE66A28
:102C600077EC5FF042E901500A0DF3CFE9FFF4CFB2
:102C7000EAFF960EE926010EEA22080EE926000E6A
:102C8000EA22EF6A012A8AD70E010B0E386F0E0175
:102C90003851382BEA6A000FE96E000EEA22EF6A1B
:102CA0000E013851382BEA6A000FE96E000EEA2255
:102CB000A00EEF6E0E013851382BEA6A000FE96E54
:102CC000000EEA22010EEF6E016A040E015C28E29A
:102CD00029500A0DF3CFE9FFF4CFEAFF960EE9265B
:102CE000010EEA22040EE926000EEA22E9CF3DF3A6
:102CF000EACF3EF301500301EA6A3D25E96E3E51F9
:102D0000EA22EF50E66E0E013851382BEA6A000FC6
:102D1000E96E000EEA22E552E750EF6E012AD5D7A0
:102D20000E01426B436BE66AE66A420EE66E0E0ED9
:102D3000E66E67EC35F044E90E013D690E01396934
:102D40003A690E013B693C693B0EE66E0E0EE66E7B
:102D5000390EE66E0E0EE66E5BEC42F044E90E01B3
:102D60004993016A100E015C23E20150EA6ACE0F1A
:102D7000E96E000EEA22EF68296A020E295C16E26B
:102D80000150020DF3CF3DF3F4CF3EF3DE0E03010D
:102D90003D27000E03013E2329500301EA6A3D2529
:102DA000E96E3E51EA22EF6A292AE7D7012ADAD7EB
:102DB000016A020E015C09E20150EA6ABC0FE96E89
:102DC000000EEA22EF6A012AF4D7010EE66EE66AE7
:102DD00031C3E6FF32C3E6FF3D0EE66E0E0EE66E31
:102DE0001CEC5CF046E9020EE66EE66A2FC3E6FFD5
:102DF00030C3E6FF390EE66E0E0EE66E1CEC5CF09C
:102E000046E9020EE66EE66A25C3E6FF26C3E6FF44
:102E10003B0EE66E0E0EE66E1CEC5CF046E9100E04
:102E2000E66EE66A37C3E6FF38C3E6FFCE0EE66E0F
:102E3000000EE66E1CEC5CF046E9020EE66EE66AF9
:102E400033C3E6FF34C3E6FFBC0EE66E000EE66E4B
:102E50001CEC5CF046E9200EE66EE66A35C3E6FF40
:102E600036C3E6FFDE0EE66E000EE66E1CEC5CF08E
:102E700046E9640EE66EE66A2BC3E6FF2CC3E6FF66
:102E8000960EE66E010EE66E1CEC5CF046E936D05E
:102E9000010EE66E88CE3DF389CE3EF303013D2B55
:102EA000000E3E233DC3E6FF3EC3E6FF86CEE6FFAF
:102EB00087CEE6FF41EC21F045E920D003015A51CD
:102EC000020801E21BD00E0149A316D0010E0E012B
:102ED000EA6A8825E96E8951EA22EF500301595DBB
:102EE00001E00CD00E01655107E0C80EE66E2AEC39
:102EF00000F041E9CDEC2BF001D000D001D000D0A2
:102F00000E0149B502D08BEC47F02AEC61F05EC3AC
:102F10003DF35FC33EF360C33FF361C340F303017E
:102F20003D51026E3E51036E3F51046E4051056E9D
:102F3000016A020E015C53E201503D0DF3CFE9FF3F
:102F4000F4CFEAFF000EE926020EEA22080EE92677
:102F5000000EEA22EF50010B40E002EB41F303EBDD
:102F600042F304EB43F305EB44F301503D0DF3CF83
:102F7000E9FFF4CFEAFF000EE926020EEA22EE5046
:102F80000301415D03013D6FEE500301425903010E
:102F90003E6FEE500301435903013F6FEE500301B2
:102FA00044590301406FD880400E03013D55420E45
:102FB0003E550F0E3F55000E40550FE201503D0D9E
:102FC000F3CFE9FFF4CFEAFF000EE926020EEA2272
:102FD000080EE926000EEA22EF6A012AAAD7016A42
:102FE000050E015C57E20150080DF3CFE9FFF4CF65
:102FF000EAFF8D0EE9260E0EEA22030EE926000EE8
:10300000EA22EF50000844E202EB41F303EB42F303
:1030100004EB43F305EB44F30150080DF3CFE9FF54
:10302000F4CFEAFF8D0EE9260E0EEA22040EE92601
:10303000000EEA22EE500301415D03013D6FEE50A8
:103040000301425903013E6FEE500301435903014E
:103050003F6FEE50030144590301406FD880120EB8
:1030600003013D557A0E3E55000E3F55000E40556A
:103070000FE20150080DF3CFE9FFF4CFEAFF8D0E08
:10308000E9260E0EEA22030EE926000EEA22EF6A76
:10309000012AA6D7D950020FE96EDACFEAFF0E0156
:1030A0004D51EE5C03013D6F0E014E51EE58030190
:1030B0003E6F0E014F51EE5803013F6F0E0150510C
:1030C000EE580301406F03013D51066E3E51076EFD
:1030D0003F51086E4051096E0E014C510E0BE842F3
:1030E000000859E206502408F40E0754000E085454
:1030F000000E09544FE24C0EE96E0E0EEA6EEF50D0
:103100000E0BE842E806F36EF350070BF36EF46E15
:10311000F346F10EEF14F310EF6E0E010B0E386F45
:103120000E013851382BEA6A000FE96E000EEA22D0
:10313000EF6A0E013851382BEA6A000FE96E000E73
:10314000EA22A30EEF6E016A100E015C15E2015037
:10315000EA6ACE0FE96E000EEA22EF50E66E0E012B
:103160003851382BEA6A000FE96E000EEA22E55268
:10317000E750EF6E012AE8D7E66A020EE66EA0EC91
:1031800033F042E902EB4DFE03EB4EFE04EB4FFE43
:1031900005EB50FE72D10E014C51700BE842E84233
:1031A000E842E842000801E379D006502408F40E12
:1031B0000754000E0854000E09546FE24C0EE96EDD
:1031C0000E0EEA6EEF50700BE842E842E842E84229
:1031D000E806F36EF350070BF36EF46EF346F34616
:1031E000F346F3468F0EEF14F310EF6E0E010B0E45
:1031F000386F0E013851382BEA6A000FE96E000E65
:10320000EA22EF6A0E013851382BEA6A000FE96EA4
:10321000000EEA22A40EEF6E0E013851382BEA6A36
:10322000000FE96E000EEA223ACEEFFF0E01385190
:10323000382BEA6A000FE96E000EEA223ACEEFFF61
:10324000016A020E015C15E20150EA6ABC0FE96EE8
:10325000000EEA22EF50E66E0E013851382BEA6A72
:10326000000FE96E000EEA22E552E750EF6E012AE8
:10327000E8D70301010E5D6FE66A020EE66EA0EC70
:1032800033F042E90301110E5D6F02EB4DFE03EBDB
:103290004EFE04EB4FFE05EB50FEEFD0FF0E00019B
:1032A000CE5D36E10E01650533E10E010E01495197
:1032B000020B2EE006502408F40E0754000E0854AA
:1032C000000E095424E20E010B0E386F0E01385126
:1032D000382BEA6A000FE96E000EEA22EF6A0E014F
:1032E0003851382BEA6A000FE96E000EEA22A20E6E
:1032F000EF6EE66A3DCEE6FF2EEC34F042E902EBDB
:103300004DFE03EB4EFE04EB4FFE05EB50FEB5D039
:103310000E014BA15CD006509008D00E0754030E4E
:103320000854000E095452E20E014B91020E0E0198
:10333000655D3EE00E013A51EA6ACE0FE96E000E7D
:10334000EA22EFCF3DF30E013D510A0DF3CFE9FF25
:10335000F4CFEAFF960EE926010EEA22020EE926D4
:10336000000EEA22E92A000EEA22EF5003013D5D39
:103370001FE00E01426B0E013A51EA6ACE0FE96E70
:10338000000EEA22EFCF43FE7BEC2BF0016E0A0E1B
:10339000015C03E201EB3DFE0BD00E01BB0E4A6F58
:1033A0003BCE44FE3CCE45FEBDEC2CF00E013D6F05
:1033B000100EE66EE66A37C3E6FF38C3E6FFCE0EB0
:1033C000E66E000EE66E1CEC5CF046E956D00E018F
:1033D0004BA31AD006509008D00E0754030E085481
:1033E000000E095410E20E014B93020EE66EE66ADF
:1033F00033C3E6FF34C3E6FFBC0EE66E000EE66E96
:103400001CEC5CF046E939D00E014BA51AD00650F1
:103410009008D00E0754030E0854000E095410E211
:103420000E014B95200EE66EE66A35C3E6FF36C305
:10343000E6FFDE0EE66E000EE66E1CEC5CF046E982
:103440001CD00E014BA719D006509008D00E07547F
:10345000030E0854000E095410E20E014B97640E3F
:10346000E66EE66A2BC3E6FF2CC3E6FF960EE66E19
:10347000010EE66E1CEC5CF046E90E014CA150D04A
:10348000D950020FE96EDACFEAFF00016051EE5C1D
:1034900003013D6F00016151EE5803013E6F0001D1
:1034A0006251EE5803013F6F00016351EE58030172
:1034B000406F67C0E6FFE66AE66AE66A3E0EE66EC1
:1034C000E66AE66AE66AFFEC5AF0E552E5CF44F3B5
:1034D000E5CF43F3E5CF42F3E7CF41F303013D519D
:1034E0000301415D03013E510301425903013F5174
:1034F00003014359030140510301445911E20E01F4
:103500004C9168C0E6FF690EE66E000EE66E64C080
:10351000E6FF65C0E6FF66C0E6FFB1EC43F046E9B2
:103520000E01655101E1A0D0D950020FE96EDACF4A
:10353000EAFF0E015151EE5C03013D6F0E01525145
:10354000EE5803013E6F0E015351EE5803013F6FD9
:103550000E015451EE580301406FD880400E030114
:103560003D553A0E3E55690E3F550D0E405501E34F
:103570007BD00E014C894C9B4C9D2AEC61F05EC3C4
:103580004DFE5FC34EFE60C34FFE61C350FE4DCE85
:1035900051FE4ECE52FE4FCE53FE50CE54FE016A27
:1035A000100E015C61E20150EA6A550FE96E0E0EE1
:1035B000EA22EF50000856E20150EA6A550FE96E20
:1035C0000E0EEA22EF060150EA6A550FE96E0E0E62
:1035D000EA22EF5047E10150F80BE842E842E842A6
:1035E000EA6ABC0FE96E000EEA22EFCF3DF301500C
:1035F000070B03013E6F010E03013E5304E0E84652
:10360000FE0B3E07FCE1FF0A03013D15E66E01508B
:10361000F80BE842E842E842EA6ABC0FE96E000EA5
:10362000EA22E552E750EF6E2E6A020E2E5C16E299
:103630000150020DF3CF3DF3F4CF3EF3DE0E030154
:103640003D27000E03013E232E500301EA6A3D256B
:10365000E96E3E51EA22EF6A2E2AE7D70E014B832C
:103660000E014B85012A9CD70E0166A331D0D9509B
:10367000020FE96EDACFEAFF0E016B51EE5C030137
:103680003D6F0E016C51EE5803013E6F0E016D51FE
:10369000EE5803013F6F0E016E51EE580301406F6B
:1036A000D880480E03013D55E80E3E55010E3F55AA
:1036B000000E40550CE20E016651F80BE842E8425C
:1036C000E842E66ED9EC2FF041E90E01666B44D07A
:1036D0000E0166A141D0D950020FE96EDACFEAFFA0
:1036E0000E016B51EE5C03013D6F0E016C51EE5803
:1036F00003013E6F0E016D51EE5803013F6F0E0145
:103700006E51EE580301406FD880480E03013D55BD
:10371000E80E3E55010E3F55000E40551DE20301D7
:1037200059512F6ED950010FE66EDACFE6FFE66AE7
:103730000A0EE66E67CEE6FF68CEE6FF69CEE6FFCC
:103740006ACEE6FF2BEC39F048E92FEBE6FFD9EC27
:103750002FF041E90E0166910E016FA39FD00E017B
:103760006FA16FD0360EE66EA90EE66EDEEC5FF04E
:1037700042E90E010B0E386F0E013851382BEA6A00
:10378000000FE96E000EEA22EF6A0E013851382B65
:10379000EA6A000FE96E000EEA22110EEF6E306A3F
:1037A000040E305C15E23050EA6A730FE96E0E0EBB
:1037B000EA22EF50E66E0E013851382BEA6A000F0C
:1037C000E96E000EEA22E552E750EF6E302AE8D7A4
:1037D0000E013851382BEA6A000FE96E000EEA221A
:1037E00071CEEFFF0E013851382BEA6A000FE96EF7
:1037F000000EEA2272CEEFFF306A010E305C15E255
:103800003050EA6A770FE96E0E0EEA22EF50E66E4C
:103810000E013851382BEA6A000FE96E000EEA22D9
:10382000E552E750EF6E302AE8D7E66AE66A780E8E
:10383000E66E0E0EE66E67EC35F044E90E016F930E
:103840002DD0D950020FE96EDACFEAFF0E017E517A
:10385000EE5C03013D6F0E017F51EE5803013E6F98
:103860000E018051EE5803013F6F0E018151EE5859
:103870000301406F03013D51066E3E51076E3F51FB
:10388000086E4051096E06506C08DC0E0754020E9B
:103890000854000E095402E20E016F9371E9E7CF5C
:1038A000D9FF1200D9CFE6FFE1CFD9FF82E943E883
:1038B000005002E1000E2CD00050EA6ACE0FE96EF3
:1038C000000EEA22EFCF3DF3100E03013D5D02E34F
:1038D000000E1ED0010E026E80EB03F0046A03504E
:1038E000EA6ACE0FE96E000EEA22EF500FE00350B5
:1038F000EA6ACE0FE96E000EEA22EF50036E022A4A
:103900000450042A100801E201D0E9D7025000D087
:1039100044E9E7CFD9FF1200D9CFE6FFE1CFD9FFC5
:1039200082E947E8076A005010080CE30001CE5115
:103930000BE10050EA6ACE0FE96E000EEA22EF506A
:10394000100802E2FF0E4BD20050F80BE842E842AA
:10395000E842EA6ABC0FE96E000EEA22EFCF3DF3BF
:103960000050070B03013E6F010E03013E5304E0BC
:10397000E846FE0B3E07FCE103013D1502E0005066
:103980002ED2026A100E025C2CE20250020DF3CF1E
:103990003EF3F4CF3FF3DE0E03013E27000E03019A
:1039A0003F230050F80BE842E842E8420301EA6A8C
:1039B0003E25E96E3F51EA22EFCF3DF30050070B61
:1039C0000301406F010E0301405304E0E846FE0B83
:1039D0004007FCE103013D1502E0025000D2022A3B
:1039E000D1D780EB04F0066A04502DE00450EA6A57
:1039F000CE0FE96E000EEA22EF500E013A5D15E19E
:103A0000020E076E00EBE6FF4DDF41E903013D6F5B
:103A10003DC3E6FF3ACEE6FF45DF41E9E552E7CF99
:103A20003DF303013D5D056E0ED00450EA6ACE0FF2
:103A3000E96E000EEA22EF50046E0650062A1008C6
:103A400001E201D0D1D7075032E10E013A51046EA4
:103A5000066A04502CE00450EA6ACE0FE96E000EAC
:103A6000EA22EF50005C15E1010E076E3ACEE6FF48
:103A700019DF41E903013D6F3DC3E6FF00EBE6FFBF
:103A800011DF41E9E552E7CF3DF303013D5D056EEE
:103A90000ED00450EA6ACE0FE96E000EEA22EF5013
:103AA000046E0650062A100801E201D0D2D7075052
:103AB00007E1030E076E00EBE6FFF4DE41E9056E59
:103AC000010E026E0550025C01E306D180EB04F0AA
:103AD000036A0250035C0AE20450EA6ACE0FE96E00
:103AE000000EEA22EF50046E032AF3D70450F80BBD
:103AF000E842E842E842EA6ABC0FE96E000EEA22B8
:103B0000EFCF3DF30450070B03013E6F010E03019D
:103B10003E5304E0E846FE0B3E07FCE103013D1581
:103B200002E004505CD1086A100E085C3EE20850C6
:103B3000EA6ACE0FE96E000EEA22EFCF3DF3100ED7
:103B400003013D5D30E288EB04F0036A0250035C40
:103B50000AE20450EA6ACE0FE96E000EEA22EF5044
:103B6000046E032AF3D70050045C1DE10850F80BE3
:103B7000E842E842E842EA6ABC0FE96E000EEA2237
:103B8000EFCF3DF30850070B03013E6F010E030119
:103B90003E5304E0E846FE0B3E07FCE103013D1501
:103BA00002E008501CD1082ABFD780EB04F0036A5A
:103BB0000250035C0AE20450EA6ACE0FE96E000E7E
:103BC000EA22EF50046E032AF3D7086A100E085C4D
:103BD0002CE20850020DF3CF3EF3F4CF3FF3DE0E9C
:103BE00003013E27000E03013F230450F80BE84277
:103BF000E842E8420301EA6A3E25E96E3F51EA22C3
:103C0000EFCF3DF30450070B0301406F010E03019A
:103C1000405304E0E846FE0B4007FCE103013D157C
:103C200002E00850DCD0082AD1D7086A100E085CE0
:103C300051E20850EA6ACE0FE96E000EEA22EFCF99
:103C40003DF3100E03013D5D43E288EB04F0036A8F
:103C50000250035C0AE20450EA6ACE0FE96E000EDD
:103C6000EA22EF50046E032AF3D70050045C30E1DF
:103C7000036A100E035C2CE20350020DF3CF3EF3F7
:103C8000F4CF3FF3DE0E03013E27000E03013F2376
:103C90000850F80BE842E842E8420301EA6A3E2590
:103CA000E96E3F51EA22EFCF3DF30850070B0301C5
:103CB000406F010E0301405304E0E846FE0B40074D
:103CC000FCE103013D1502E0035089D0032AD1D75E
:103CD000082AACD7022AF6D6020E075C39E180EB3F
:103CE00002F0066A0250EA6ACE0FE96E000EEA227E
:103CF000EF500E013A5D1BE10250F80BE842E8423A
:103D0000E842EA6ABC0FE96E000EEA22EFCF3DF30B
:103D10000250070B03013E6F010E03013E5304E006
:103D2000E846FE0B3E07FCE103013D150EE00250A4
:103D3000EA6ACE0FE96E000EEA22EF50026E0650DC
:103D4000062A100801E201D0CDD7025048D045D054
:103D50000E013A51EA6ACE0FE96E000EEA22EF50E8
:103D6000026E82EB04F0066A0250EA6ACE0FE96E38
:103D7000000EEA22EF50025C2EE00050025C2BE0C5
:103D80000250F80BE842E842E842EA6ABC0FE96EEA
:103D9000000EEA22EFCF3DF30250070B03013E6F06
:103DA000010E03013E5304E0E846FE0B3E07FCE132
:103DB00003013D1502E082EB04F00250EA6ACE0FE7
:103DC000E96E000EEA22EF50026E0650062A100835
:103DD00001E201D0C9D7045002D0FF0E00D048E95B
:103DE000E7CFD9FF1200D9CFE6FFE1CFD9FF86E9AF
:103DF00043E882EB07F007507F0802E2000E03D28F
:103E00000001CE510BE10750EA6ACE0FE96E000EB9
:103E1000EA22EF50100802E2000EF5D1066A050E04
:103E2000065C45E20650080DF3CFE9FFF4CFEAFF48
:103E30008D0EE9260E0EEA22030EE926000EEA2276
:103E4000EF50000832E20650080DF3CFE9FFF4CF3F
:103E5000EAFF8D0EE9260E0EEA220150EE1802E16D
:103E60000250ED1822E10650080DF3CFE9FFF4CF20
:103E7000EAFF8D0EE9260E0EEA22020EE926000E5A
:103E8000EA22EF5000010A5D10E10E014C894C8BD3
:103E90004C9D2AEC61F05EC34DFE5FC34EFE60C3D5
:103EA0004FFE61C350FE000EAED1062AB8D7066A97
:103EB000050E065C61E20650080DF3CFE9FFF4CF72
:103EC000EAFF8D0EE9260E0EEA22030EE926000E09
:103ED000EA22EF504FE10650080DF3CFE9FFF4CF8F
:103EE000EAFF8D0EE9260E0EEA22030EE926000EE9
:103EF000EA22030EEF6E0650080DF3CFE9FFF4CF70
:103F0000EAFF8D0EE9260E0EEA22020EE926000EC9
:103F1000EA220AC0EFFF0650080DF3CFE9FFF4CF05
:103F2000EAFF8D0EE9260E0EEA2201EBEEFF02EB10
:103F3000EDFF2AEC61F05EC33DF35FC33EF360C367
:103F40003FF361C340F30650080DF3CFE9FFF4CF10
:103F5000EAFF8D0EE9260E0EEA22040EE926000E77
:103F6000EA223DC3EEFF3EC3EEFF3FC3EEFF40C378
:103F7000EEFF02D0062A9CD70E013A51075C72E18F
:103F80000150800837E201EB42FE02EB43FE7BEC7E
:103F90002BF0066EFF0E065C0EE100EBE6FF010E55
:103FA000E66ED950010FE66EDACFE6FFE66AFEEC68
:103FB00029F045E928D100EBE6FFE66A06500A0D34
:103FC000F3CFE9FFF4CFEAFF960EE926010EEA22CD
:103FD000040EE926000EEA22E9CF3DF3EACF3EF3D4
:103FE0003DC3E6FF3EC3E6FFE66AFEEC29F045E985
:103FF0000AD138D00E01826B0E01828B00500E0167
:104000008297E8B0828701EB42FE02EB43FE7BEC35
:104010002BF0066EFF0E065C13E006500A0DF3CF80
:10402000E9FFF4CFEAFF960EE926010EEA22040E1C
:10403000E926000EEA22E9CF83FEEACF84FE02D011
:10404000000EE1D038CEE6FF000EE66E000EE66E02
:1040500082CEE6FF83CEE6FF84CEE6FFB1EC43F0EE
:1040600046E9D1D002EBE6FF57DC41E9076EFF0ECF
:10407000075C02E1000EC7D00750EA6ABE0FE96E86
:10408000000EEA22EFCF3DF3030E03013D5D69E32D
:104090000750EA6ABE0FE96E000EEA22EF6A075087
:1040A000070B03013E6F010E03013E5304E0E84697
:1040B000FE0B3E07FCE1FF0A03013D6F0750F80BC2
:1040C000E842E842E842EA6ABC0FE96E000EEA22E2
:1040D00003013D51EF16086A020E085C16E2075014
:1040E000020DF3CF3DF3F4CF3EF3DE0E03013D2787
:1040F000000E03013E2308500301EA6A3D25E96EE4
:104100003E51EA22EF6A082AE7D7020EE66EE66A17
:1041100033C3E6FF34C3E6FFBC0EE66E000EE66E68
:104120001CEC5CF046E9200EE66EE66A35C3E6FF5D
:1041300036C3E6FFDE0EE66E000EE66E1CEC5CF0AB
:1041400046E90E014C894C8B4C9D2AEC61F05EC314
:104150004DFE5FC34EFE60C34FFE61C350FE000EB6
:1041600052D00E01826B0E01828B00500E0182979D
:10417000E8B082870E01426B07EB43FE7BEC2BF02D
:10418000066EFF0E065C13E006500A0DF3CFE9FF42
:10419000F4CFEAFF960EE926010EEA22040EE92684
:1041A000000EEA22E9CF83FEEACF84FE09D0075051
:1041B000EA6ABE0FE96E000EEA22EF2A000E23D053
:1041C00038CEE6FF000EE66E000EE66E82CEE6FF0B
:1041D00083CEE6FF84CEE6FFB1EC43F046E900096A
:1041E00009E10750EA6ABE0FE96E000EEA22EF2AE3
:1041F000000E09D00750EA6ABE0FE96E000EEA22EF
:10420000EF6A010E00D044E9E7CFD9FF1200D9CF01
:10421000E6FFE1CFD9FF84E90E01826B00500E0169
:10422000030BF36EFC0E8215F310826F0150021027
:1042300002E10E0182850E010E018251040B02E0A3
:10424000000E01D0010E0E01829BE8B0828B0E01A0
:10425000828F01EB83FE02EB84FE38CEE6FF000E78
:10426000E66E000EE66E82CEE6FF83CEE6FF84CEDB
:10427000E6FFB1EC43F046E900D041E9E7CFD9FFD2
:104280001200D9CFE6FFE1CFD9FF86E944E8096AF9
:104290000E01386B005015E001EBE9FF02EBEAFF7D
:1042A000EFCF42FE0128E96E000E0220EA6EEFCF4A
:1042B00043FE7BEC2BF0086EFF0E085C01E1FDD2A3
:1042C0001ED0066A040E065C13E206500324E96E53
:1042D000000E0420EA6EEF50E66E0650EA6A3E0FCA
:1042E000E96E0E0EEA22E552E750EF6E062AEAD793
:1042F0005BEC2CF0086EFF0E085C01E1DED2066A72
:10430000020E065C01E31ED206503D0DF3CFE9FF1D
:10431000F4CFEAFF000EE926020EEA22080EE92693
:10432000000EEA22EF50010B01E10AD206503D0DCA
:10433000F3CFE9FFF4CFEAFF000EE926020EEA22EE
:10434000080EE926000EEA22EF50020B01E001D12F
:1043500006503D0DF3CFE9FFF4CFEAFF000EE9264A
:10436000020EEA22080EE926000EEA22EF50100B98
:1043700001E1EFD008500A0DF3CFE9FFF4CFEAFFD7
:10438000960EE926010EEA22020EE926000EEA2226
:10439000EECF3DF3EFCF3EF306503D0DF3CFE9FFF7
:1043A000F4CFEAFF000EE926020EEA22040EE92607
:1043B000000EEA22EF5003013D5D01E0CAD0085033
:1043C0000A0DF3CFE9FFF4CFEAFF960EE926010EBE
:1043D000EA22020EE926000EEA22E92A000EEA226B
:1043E000EFCF3FF306503D0DF3CFE9FFF4CFEAFFE7
:1043F000000EE926020EEA22040EE926000EEA2249
:10440000E92A000EEA22EF5003013F5D01E0A1D04E
:10441000076A06503D0DF3CFE9FFF4CFEAFF000E27
:10442000E926020EEA22090EE926000EEA22EF50E2
:10443000075C28E206503D0DF3CFE9FFF4CFEAFF19
:10444000000EE926020EEA220A0EE926000EEA22F2
:10445000E9CF3DF3EACF3EF307500301EA6A3D2579
:10446000E96E3E51EA22EF50E66E0E013851382BCC
:10447000EA6A000FE96E000EEA22E552E750EF6E9D
:10448000072AC7D70E01826B09500E01030BF36E8A
:10449000FC0E8215F310826F0E01828B06503D0DCB
:1044A000F3CFE9FFF4CFEAFF000EE926020EEA227D
:1044B000080EE926000EEA220E018297EF50080B43
:1044C00001E0828708500A0DF3CFE9FFF4CFEAFF3D
:1044D000960EE926010EEA22040EE926000EEA22D3
:1044E000E9CF83FEEACF84FE06503D0DF3CFE9FF0E
:1044F000F4CFEAFF000EE926020EEA22080EE926B2
:10450000000EEA22EF50040B05E00E018281829337
:104510000E01828F38CEE6FF000EE66E000EE66ECC
:1045200082CEE6FF83CEE6FF84CEE6FFB1EC43F019
:1045300046E906503D0DF3CFE9FFF4CFEAFF000E48
:10454000E926020EEA22080EE926000EEA22EF9082
:10455000D3D106503D0DF3CFE9FFF4CFEAFF000EB3
:10456000E926020EEA22080EE926000EEA22EF50A2
:10457000020B01E0E5D006503D0DF3CFE9FFF4CF8B
:10458000EAFF000EE926020EEA22080EE926000ED6
:10459000EA22EF50100B01E0D3D006503D0DF3CFCF
:1045A000E9FFF4CFEAFF000EE926020EEA22040E2C
:1045B000E926000EEA22E9CF3DF3EACF3EF33DC300
:1045C000E6FF3EC3E6FF08500A0DF3CFE9FFF4CF44
:1045D000EAFF960EE926010EEA22040EE926000EF5
:1045E000EA22E9CF3FF3EACF40F33FC3E6FF40C3FF
:1045F000E6FF4CEC2DF044E9000901E1A1D0076A87
:1046000006503D0DF3CFE9FFF4CFEAFF000EE92697
:10461000020EEA22090EE926000EEA22EF50075C9C
:1046200028E206503D0DF3CFE9FFF4CFEAFF000E7C
:10463000E926020EEA220A0EE926000EEA22E9CF56
:104640003DF3EACF3EF307500301EA6A3D25E96EE8
:104650003E51EA22EF50E66E0E013851382BEA6ADD
:10466000000FE96E000EEA22E552E750EF6E072ACE
:10467000C7D70E01826B09500E01030BF36EFC0EBF
:104680008215F310826F0E01828B06503D0DF3CF21
:10469000E9FFF4CFEAFF000EE926020EEA22080E37
:1046A000E926000EEA220E018297EF50080B01E086
:1046B000828708500A0DF3CFE9FFF4CFEAFF960E88
:1046C000E926010EEA22040EE926000EEA22E9CFCD
:1046D00083FEEACF84FE06503D0DF3CFE9FFF4CF11
:1046E000EAFF000EE926020EEA22080EE926000E75
:1046F000EA22EF50040B05E00E01828182930E0145
:10470000828F38CEE6FF000EE66E000EE66E82CE99
:10471000E6FF83CEE6FF84CEE6FFB1EC43F046E948
:1047200006503D0DF3CFE9FFF4CFEAFF000EE92676
:10473000020EEA22080EE926000EEA22EF90DCD0F3
:10474000062ADED5066A020E065C01E3B6D00650E4
:104750003D0DF3CFE9FFF4CFEAFF000EE926020E8C
:10476000EA22080EE926000EEA22EF50010B01E1D1
:10477000A2D006503D0DF3CFE9FFF4CFEAFF000EC3
:10478000E926020EEA22080EE926000EEA22EF5080
:10479000020B01E190D0076A06503D0DF3CFE9FF0F
:1047A000F4CFEAFF000EE926020EEA22090EE926FE
:1047B000000EEA22EF50075C28E206503D0DF3CFD1
:1047C000E9FFF4CFEAFF000EE926020EEA220A0E04
:1047D000E926000EEA22E9CF3DF3EACF3EF3075087
:1047E0000301EA6A3D25E96E3E51EA22EF50E66E8A
:1047F0000E013851382BEA6A000FE96E000EEA22EA
:10480000E552E750EF6E072AC7D70E01826B0950B9
:104810000E01030BF36EFC0E8215F310826F0E0176
:10482000828B06503D0DF3CFE9FFF4CFEAFF000E77
:10483000E926020EEA22080EE926000EEA220E01FF
:104840008297EF50080B01E0828706503D0DF3CFB1
:10485000E9FFF4CFEAFF000EE926020EEA22080E75
:10486000E926000EEA22EF50040B03E00E018281DC
:10487000829308500A0DF3CFE9FFF4CFEAFF960EBA
:10488000E926010EEA22040EE926000EEA22E9CF0B
:1048900083FEEACF84FE38CEE6FF000EE66E000E01
:1048A000E66E82CEE6FF83CEE6FF84CEE6FFB1EC75
:1048B00043F046E921D0062A46D70E01826B095003
:1048C0000E01030BF36EFC0E8215F310826F0E01C6
:1048D000828B03EB83FE04EB84FE38CEE6FF000EF2
:1048E000E66E000EE66E82CEE6FF83CEE6FF84CE55
:1048F000E6FFB1EC43F046E945E9E7CFD9FF120006
:10490000D9CFE6FFE1CFD9FF81E941E8016A0A0E7C
:10491000015C15E201500A0DF3CFE9FFF4CFEAFF85
:10492000960EE926010EEA22080EE926000EEA227A
:10493000EF50800B02E1015004D0012AE8D7FF0EAE
:1049400000D042E9E7CFD9FF1200D9CFE6FFE1CF8F
:10495000D9FF82E942E8FF0E005C48E1260EE66ED0
:10496000A90EE66EDEEC5FF042E9026A040E025C1C
:104970000FE2030ED8800254EA6A550FE96E030E67
:10498000EA22EFCFE6FF0DEC60F041E9022AEED714
:10499000170EE66EA90EE66EDEEC5FF042E93ACE47
:1049A000E6FF0DEC60F041E939CEE6FF0DEC60F07A
:1049B00041E90D0EE66EA90EE66EDEEC5FF042E90F
:1049C0003CCEE6FF0DEC60F041E93BCEE6FF0DEC9E
:1049D00060F041E9010EE66EA90EE66EDEEC5FF0D6
:1049E00042E959C3E6FF37EC60F041E9B90EE66EE3
:1049F000A80EE66EDEEC5FF042E9FF0E005C01E01F
:104A00009DD1026A0A0E025C01E397D102500A0DA1
:104A1000F3CFE9FFF4CFEAFF960EE926010EEA2272
:104A2000080EE926000EEA22EF50800B01E183D147
:104A300002EBE6FF0DEC60F041E9200EE66EF9ECCA
:104A40005FF041E9200EE66EF9EC5FF041E9200EDF
:104A5000E66EF9EC5FF041E9200EE66EF9EC5FF0EE
:104A600041E9200EE66EF9EC5FF041E902500A0DD3
:104A7000F3CFE9FFF4CFEAFF960EE926010EEA2212
:104A8000080EE926000EEA22EF50010B06E0590E4F
:104A9000E66EF9EC5FF041E905D04E0EE66EF9ECFA
:104AA0005FF041E9200EE66EF9EC5FF041E9200E7F
:104AB000E66EF9EC5FF041E902500A0DF3CFE9FF31
:104AC000F4CFEAFF960EE926010EEA22080EE92647
:104AD000000EEA22EF50020B06E0590EE66EF9ECEA
:104AE0005FF041E905D04E0EE66EF9EC5FF041E96A
:104AF000200EE66EF9EC5FF041E9200EE66EF9EC6F
:104B00005FF041E902500A0DF3CFE9FFF4CFEAFF6D
:104B1000960EE926010EEA22080EE926000EEA2288
:104B2000EF50080B5AE002500A0DF3CFE9FFF4CF23
:104B3000EAFF960EE926010EEA22E92A000EEA2291
:104B4000EFCFE6FF0DEC60F041E902500A0DF3CF24
:104B5000E9FFF4CFEAFF960EE926010EEA22EFCF35
:104B6000E6FF0DEC60F041E9200EE66EF9EC5FF037
:104B700041E9200EE66EF9EC5FF041E902500A0DC2
:104B8000F3CFE9FFF4CFEAFF960EE926010EEA2201
:104B9000020EE926000EEA22E92A000EEA22EFCFF1
:104BA000E6FF0DEC60F041E902500A0DF3CFE9FF9A
:104BB000F4CFEAFF960EE926010EEA22020EE9265C
:104BC000000EEA22EFCFE6FF0DEC60F041E9200E87
:104BD000E66EF9EC5FF041E937D03F0EE66EF9EC96
:104BE0005FF041E93F0EE66EF9EC5FF041E93F0E00
:104BF000E66EF9EC5FF041E93F0EE66EF9EC5FF02E
:104C000041E9200EE66EF9EC5FF041E9200EE66E18
:104C1000F9EC5FF041E93F0EE66EF9EC5FF041E937
:104C20003F0EE66EF9EC5FF041E93F0EE66EF9ECFF
:104C30005FF041E93F0EE66EF9EC5FF041E9200ECE
:104C4000E66EF9EC5FF041E902500A0DF3CFE9FF9F
:104C5000F4CFEAFF960EE926010EEA22080EE926B5
:104C6000000EEA22EF50040B26E0036A040E035CF8
:104C700022E202500A0DF3CFE9FFF4CFEAFF960ECD
:104C8000E926010EEA22040EE926000EEA22E9CF07
:104C90003DF3EACF3EF3030ED88003540301EA6AE2
:104CA0003D25E96E3E51EA22EFCFE6FF0DEC60F0C4
:104CB00041E9032ADBD7200EE66EF9EC5FF041E90B
:104CC000036A040E035C09E2B60EE66EA80EE66EF9
:104CD000DEEC5FF042E9032AF4D7036A010E035CBD
:104CE00020E202500A0DF3CFE9FFF4CFEAFF960E5F
:104CF000E926010EEA22090EE926000EEA22E9CF92
:104D00003DF3EACF3EF303500301EA6A3D25E96E25
:104D10003E51EA22EFCFE6FF0DEC60F041E9032AB5
:104D2000DDD70D0EE66EF9EC5FF041E90A0EE66E96
:104D3000F9EC5FF041E9022A65D695D100500A0DE1
:104D4000F3CFE9FFF4CFEAFF960EE926010EEA223F
:104D5000080EE926000EEA22EF50800B01E183D114
:104D600000EBE6FF0DEC60F041E9200EE66EF9EC99
:104D70005FF041E9200EE66EF9EC5FF041E9200EAC
:104D8000E66EF9EC5FF041E9200EE66EF9EC5FF0BB
:104D900041E9200EE66EF9EC5FF041E900500A0DA2
:104DA000F3CFE9FFF4CFEAFF960EE926010EEA22DF
:104DB000080EE926000EEA22EF50010B06E0590E1C
:104DC000E66EF9EC5FF041E905D04E0EE66EF9ECC7
:104DD0005FF041E9200EE66EF9EC5FF041E9200E4C
:104DE000E66EF9EC5FF041E900500A0DF3CFE9FF00
:104DF000F4CFEAFF960EE926010EEA22080EE92614
:104E0000000EEA22EF50020B06E0590EE66EF9ECB6
:104E10005FF041E905D04E0EE66EF9EC5FF041E936
:104E2000200EE66EF9EC5FF041E9200EE66EF9EC3B
:104E30005FF041E900500A0DF3CFE9FFF4CFEAFF3C
:104E4000960EE926010EEA22080EE926000EEA2255
:104E5000EF50080B5AE000500A0DF3CFE9FFF4CFF2
:104E6000EAFF960EE926010EEA22E92A000EEA225E
:104E7000EFCFE6FF0DEC60F041E900500A0DF3CFF3
:104E8000E9FFF4CFEAFF960EE926010EEA22EFCF02
:104E9000E6FF0DEC60F041E9200EE66EF9EC5FF004
:104EA00041E9200EE66EF9EC5FF041E900500A0D91
:104EB000F3CFE9FFF4CFEAFF960EE926010EEA22CE
:104EC000020EE926000EEA22E92A000EEA22EFCFBE
:104ED000E6FF0DEC60F041E900500A0DF3CFE9FF69
:104EE000F4CFEAFF960EE926010EEA22020EE92629
:104EF000000EEA22EFCFE6FF0DEC60F041E9200E54
:104F0000E66EF9EC5FF041E937D03F0EE66EF9EC62
:104F10005FF041E93F0EE66EF9EC5FF041E93F0ECC
:104F2000E66EF9EC5FF041E93F0EE66EF9EC5FF0FA
:104F300041E9200EE66EF9EC5FF041E9200EE66EE5
:104F4000F9EC5FF041E93F0EE66EF9EC5FF041E904
:104F50003F0EE66EF9EC5FF041E93F0EE66EF9ECCC
:104F60005FF041E93F0EE66EF9EC5FF041E9200E9B
:104F7000E66EF9EC5FF041E900500A0DF3CFE9FF6E
:104F8000F4CFEAFF960EE926010EEA22080EE92682
:104F9000000EEA22EF50040B26E0036A040E035CC5
:104FA00022E200500A0DF3CFE9FFF4CFEAFF960E9C
:104FB000E926010EEA22040EE926000EEA22E9CFD4
:104FC0003DF3EACF3EF3030ED88003540301EA6AAF
:104FD0003D25E96E3E51EA22EFCFE6FF0DEC60F091
:104FE00041E9032ADBD7200EE66EF9EC5FF041E9D8
:104FF000036A040E035C09E2B60EE66EA80EE66EC6
:10500000DEEC5FF042E9032AF4D7036A010E035C89
:1050100020E200500A0DF3CFE9FFF4CFEAFF960E2D
:10502000E926010EEA22090EE926000EEA22E9CF5E
:105030003DF3EACF3EF303500301EA6A3D25E96EF2
:105040003E51EA22EFCFE6FF0DEC60F041E9032A82
:10505000DDD70D0EE66EF9EC5FF041E90A0EE66E63
:10506000F9EC5FF041E943E9E7CFD9FF1200D9CF6E
:10507000E6FFE1CFD9FF81E941E80E016F91020E11
:105080000E01655D01E056D10E016FB340D02AECF0
:1050900061F05EC37EFE5FC37FFE60C380FE61C3BE
:1050A00081FE0E01716B726B016A040E015C13E2EA
:1050B0000150EA6A550FE96E030EEA22EF50E66EE0
:1050C0000150EA6A730FE96E0E0EEA22E552E750CC
:1050D000EF6E012AEAD70E016F830E016F91016A0C
:1050E000010E015C13E20150EA6ABD0FE96E0E0E7B
:1050F000EA22EF50E66E0150EA6A770FE96E0E0E73
:10510000EA22E552E750EF6E012AEAD711D10E01EB
:105110007151721101E16ED10E0139510E017119F7
:1051200004E10E013A510E01721901E101D10E01A3
:105130000B0E386F0E013851382BEA6A000FE96EFA
:10514000000EEA22EF6A0E013851382BEA6A000F8E
:10515000E96E000EEA22110EEF6E016A040E015C88
:1051600015E20150EA6A550FE96E030EEA22EF508C
:10517000E66E0E013851382BEA6A000FE96E000E18
:10518000EA22E552E750EF6E012AE8D70E013851C6
:10519000382BEA6A000FE96E000EEA2239CEEFFFE3
:1051A0000E013851382BEA6A000FE96E000EEA2230
:1051B0003ACEEFFF016A010E015C15E20150EA6A86
:1051C000BD0FE96E0E0EEA22EF50E66E0E01385169
:1051D000382BEA6A000FE96E000EEA22E552E7502A
:1051E000EF6E012AE8D7016A040E015C13E2015058
:1051F000EA6A730FE96E0E0EEA22EF50E66E015076
:10520000EA6A3E0FE96E0E0EEA22E552E750EF6EB3
:10521000012AEAD771CE42FE72CE43FE6CDA0E014D
:10522000706FFF0E0E01705D12E00E0170510A0DDD
:10523000F3CFE9FFF4CFEAFF960EE926010EEA224A
:10524000080EE926000EEA22EFCF4AFE08D00E0132
:105250008C0E4A6F0E0142BF02D00E014A813BCE36
:1052600044FE3CCE45FE89DB0E01706F016A010EE3
:10527000015C27E20150EA6A770FE96E0E0EEA221E
:10528000EF50E66E0E0170510A0DF3CFE9FFF4CF37
:10529000EAFF960EE926010EEA22090EE926000E23
:1052A000EA22E9CF3DF3EACF3EF301500301EA6A77
:1052B0003D25E96E3E51EA22E552E750EF6E012AA4
:1052C000D6D7E66AE66A710EE66E0E0EE66E67ECFB
:1052D00035F044E90E016F930E016F810A0EE66E00
:1052E000E66A0E0170510A0D030103012B51F324EC
:1052F00003013D6F030103012C51F42003013E6FB4
:105300003DC3E6FF3EC3E6FF0E0170510A0DF3CF29
:105310003FF3F4CF40F3960E03013F27010E030144
:1053200040233FC3E6FF40C3E6FF1CEC5CF046E9C8
:1053300061D00AD02AEC61F05EC37EFE5FC37FFEBF
:1053400060C380FE61C381FE0E01426B436B0E01A0
:105350000B0E386F0E013851382BEA6A000FE96ED8
:10536000000EEA22EF6A0E013851382BEA6A000F6C
:10537000E96E000EEA22100EEF6E016A040E015C67
:1053800015E20150EA6A550FE96E030EEA22EF506A
:10539000E66E0E013851382BEA6A000FE96E000EF6
:1053A000EA22E552E750EF6E012AE8D7016A010EC2
:1053B000015C15E20150EA6ABD0FE96E0E0EEA22A9
:1053C000EF50E66E0E013851382BEA6A000FE96E95
:1053D000000EEA22E552E750EF6E012AE8D7E66AAE
:1053E000E66A420EE66E0E0EE66E67EC35F044E9B4
:1053F0000E016F8342E9E7CFD9FF1200D9CFE6FF54
:10540000E1CFD9FF86E942E8066A020E065C01E3B5
:105410006CD106503D0DF3CFE9FFF4CFEAFF000E4B
:10542000E926020EEA22080EE926000EEA22EF50D3
:10543000010B01E058D106503D0DF3CFE9FFF4CF49
:10544000EAFF000EE926020EEA22080EE926000E07
:10545000EA22EF6A045003013D6F06503D0DF3CF81
:10546000E9FFF4CFEAFF000EE926020EEA22080E59
:10547000E926000EEA2203013D51010BF36EF346CB
:10548000FD0EEF14F310EF6E005003013D6F065058
:105490003D0DF3CFE9FFF4CFEAFF000EE926020E3F
:1054A000EA22080EE926000EEA2203013D51010B13
:1054B000F36EF346F346F346F70EEF14F310EF6E78
:1054C00006503D0DF3CFE9FFF4CFEAFF000EE926C9
:1054D000020EEA22080EE926000EEA22EF800150B1
:1054E00003013D6F06503D0DF3CFE9FFF4CFEAFF16
:1054F000000EE926020EEA22080EE926000EEA2234
:1055000003013D51010BF36EF346F346F346F346B8
:10551000EF0EEF14F310EF6E04505FE1015033E033
:1055200002EBE9FF03EBEAFFEF50E66E06503D0D9C
:10553000F3CFE9FFF4CFEAFF000EE926020EEA22DC
:10554000040EE926000EEA22E552E750EF6E02282B
:10555000E96E000E0320EA6EEF50E66E06503D0D38
:10556000F3CFE9FFF4CFEAFF000EE926020EEA22AC
:10557000040EE926000EEA22E92A000EEA22E5528C
:10558000E750EF6E2AD0076A040E075C26E2075048
:105590000224E96E000E0320EA6EEF50E66E06501C
:1055A0003D0DF3CFE9FFF4CFEAFF000EE926020E2E
:1055B000EA22040EE926000EEA22E9CF3DF3EACF03
:1055C0003EF307500301EA6A3D25E96E3E51EA22A7
:1055D000E552E750EF6E072AD7D700502BE0015075
:1055E00010E002EBE9FF03EBEAFFEFCF42FE0228F7
:1055F000E96E000E0320EA6EEFCF43FE7CD8076E03
:1056000019D0076A040E075C13E207500224E96E02
:10561000000E0320EA6EEF50E66E0750EA6A3E0F76
:10562000E96E0E0EEA22E552E750EF6E072AEAD73E
:1056300042D9076E06503D0DF3CFE9FFF4CFEAFFE4
:10564000000EE926020EEA22090EE926000EEA22E1
:1056500038CEEFFF076A0E013851075C26E207508B
:10566000EA6A000FE96E000EEA22EF50E66E06507D
:105670003D0DF3CFE9FFF4CFEAFF000EE926020E5D
:10568000EA220A0EE926000EEA22E9CF3DF3EACF2C
:105690003EF307500301EA6A3D25E96E3E51EA22D6
:1056A000E552E750EF6E072AD6D72AEC61F05EC3C9
:1056B0003DF35FC33EF360C33FF361C340F3065065
:1056C0003D0DF3CFE9FFF4CFEAFF000EE926020E0D
:1056D000EA223DC3EEFF3EC3EEFF3FC3EEFF40C3F1
:1056E000EEFF010E04D0062A90D6000E00D043E94A
:1056F000E7CFD9FF1200D9CFE6FFE1CFD9FF81E98B
:1057000041E8016A0A0E015C42E201500A0DF3CF42
:10571000E9FFF4CFEAFF960EE926010EEA22080E11
:10572000E926000EEA22EF50800B2FE001500A0D0F
:10573000F3CFE9FFF4CFEAFF960EE926010EEA2245
:10574000080EE926000EEA22EF50080B1EE0015079
:105750000A0DF3CFE9FFF4CFEAFF960EE926010E1A
:10576000EA22020EE926000EEA22EECF3DF3EFCF49
:105770003EF30E01425103013D1904E10E01435174
:1057800003013E1902E1015004D0012ABBD7FF0EEC
:1057900000D042E9E7CFD9FF1200D9CFE6FFE1CF31
:1057A000D9FF81E941E80E01386B0E013851382BE1
:1057B000EA6A000FE96E000EEA223BCEEFFF0E010F
:1057C0003851382BEA6A000FE96E000EEA223CCE0F
:1057D000EFFF0E013851382BEA6A000FE96E000E18
:1057E000EA2239CEEFFF0E013851382BEA6A000F5A
:1057F000E96E000EEA223ACEEFFF0E013851382B47
:10580000EA6A000FE96E000EEA22EF680E013851D5
:10581000382BEA6A000FE96E000EEA2200CEEFFF95
:105820000E013851382BEA6A000FE96E000EEA22A9
:10583000EF6A0E013851382BEA6A000FE96E000E4C
:10584000EA22EF6A0E013851382BEA6A000FE96E3E
:10585000000EEA225D0EEF6E0E013851382BEA6A17
:10586000000FE96E000EEA22410EEF6E016A010E92
:10587000015C15E20150EA6ABD0FE96E0E0EEA22E4
:10588000EF50E66E0E013851382BEA6A000FE96ED0
:10589000000EEA22E552E750EF6E012AE8D7030E28
:1058A000E66E000EE66EE66A07EC21F043E942E997
:1058B000E7CFD9FF1200D9CFE6FFE1CFD9FF81E9C9
:1058C00042E8016A0A0E015C52E201500A0DF3CF70
:1058D000E9FFF4CFEAFF960EE926010EEA22080E50
:1058E000E926000EEA22EF50800B3FE001500A0D3E
:1058F000F3CFE9FFF4CFEAFF960EE926010EEA2284
:10590000080EE926000EEA22EF50040B2EE0026A90
:10591000040E025C28E201500A0DF3CFE9FFF4CF38
:10592000EAFF960EE926010EEA22040EE926000E91
:10593000EA22E9CF3EF3EACF3FF302500301EA6ADD
:105940003E25E96E3F51EA22EFCF3DF30250EA6A6D
:105950003E0FE96E0E0EEA22EF5003013D5D01E0BD
:1059600004D0022AD5D7015004D0012AABD7FF0EAC
:1059700000D043E9E7CFD9FF1200D9CFE6FFE1CF4E
:10598000D9FF81E942E801680E014AA503D093DFFF
:10599000016E05D00E014AA702D0ADDE016EFF0EEA
:1059A000015C03E180EC24F0016EFF0E015C6EE00F
:1059B00001500A0DF3CFE9FFF4CFEAFF960EE92676
:1059C000010EEA22080EE926000EEA224ACEEFFF77
:1059D0000E014AA52AD0026A040E025C26E2025099
:1059E000EA6A3E0FE96E0E0EEA22EF50E66E0150B3
:1059F0000A0DF3CFE9FFF4CFEAFF960EE926010E78
:105A0000EA22040EE926000EEA22E9CF3DF3EACFAE
:105A10003EF302500301EA6A3D25E96E3E51EA2257
:105A2000E552E750EF6E022AD7D70E014AA712D0EF
:105A300001500A0DF3CFE9FFF4CFEAFF960EE926F5
:105A4000010EEA22020EE926000EEA2242CEEEFF05
:105A500043CEEDFF01500A0DF3CFE9FFF4CFEAFF8B
:105A6000960EE926010EEA2244CEEEFF45CEEDFF6A
:105A70000150040DF3CFE9FFF4CFEAFF330EE9261E
:105A8000000EEA22EE6AEE6AEE6AEE6A015000D07B
:105A900043E9E7CFD9FF1200D9CFE6FFE1CFD9FF25
:105AA00085E941E8056A040E055C16E2055002240A
:105AB000E96E000E0320EA6EEFCF3DF3055000249F
