:020000040000FA
:0600000055EF27F012008D
:0600080004EF08F01200F5
:060018000CEF08F01200DD
:0610000055EF27F012007D
:061008007CEF24F0120051
:0610180085EF24F0120038
:06102A000100C84E0000A9
:08103000A60000000B00000007
:081038005601A8FE7EFDA9038C
:10104000EE047D05960A610A83068B09E30BB70C53
:10105000E50C110AF209510A7906750585056F0438
:10106000C2FE16FE87003EFA62FA80F728F733F6D2
:10107000ADF82FF7A9F7AAF3ADF251F4A1F5F0F509
:10108000F7F771FC14FE8A03EB009802E4011701E4
:1010900013018B0132FCC7FA6AFE7D00A9018F03A0
:1010A0003905F7FF72FF03FFDDFFE6FBB0FBA6FC8F
:1010B000BBFC70FBFEF99FF455F2F9F125EF87F3C5
:1010C00007F6C0F63DF964F991FD67FB78FCD8FBA3
:1010D000B8FB8DF589FBBFFD15FDBEFF7DFC17FF3D
:1010E000D2009702C5019F0589033005E407520A23
:1010F0009C06030628028B0673076606880574069D
:10110000370341044305CD025C01ECFE59FF7EFC30
:101110006BF729F898F6FAF9FCF68DF8D6F8E4F6AC
:10112000A1F8A7F77EFBF4F8F000DAFF82019F0038
:10113000C0052A02B808880BCC0B950FCA0FC11244
:1011400049115512E10FB60FE70F6E0BB20573038D
:10115000E8010E0225038D0064FD2CF85BF701FB0E
:1011600058F510F564F914FCB6F991FCDCFA40F579
:1011700058F89CF93DFD6800C7024E057307150835
:10118000220B270AB30B8F098807C0068F08200798
:10119000DD089C07BB04EA029B01C2028AFF86FBB2
:1011A000EBFC29FEF8F927FDABF7F5EFC2F06BF584
:1011B000BCF1FBF6BCF1DAF289F566F8FEF91E0027
:1011C0006C022500C2022E014C00A4015801430309
:1011D0001C02D6019C008101C1FFFFFE0401E0005A
:1011E0009B01BA00620222FF94FF17FD90FEB3FD3F
:1011F00055FFB7FCEC003801A0FF13FDCDFD59F8F9
:1012000011F98FF74CF442F5ABF85BFBBDFB1BFC0F
:1012100095FAD6FA9EFEBBFD0AFE26033F04900512
:101220008206E8043D0149FF67FFE803D802D004C5
:101230004205AE05570232094F0B4709EC0701047E
:10124000770383001500E5FDC4006FFE65FBFEFB20
:10125000C4FF4FFCF1F91FFE06FCFCFB2BFD72FCEA
:101260003BFC33F938FCF0000C028A01E001420635
:101270003C0387057205A6086B087408D00545096C
:10128000EF049F03AE044705630350024202A2FC31
:1012900068FA6DFC0DFE4CFD6AFF9CFC78FBF4F7D0
:1012A0007DF6EFF6B1F9C0FA6AFBC4FC7EFFC0FC24
:1012B00002039002CF00A0FE72FE04FB3AFA2EFB5E
:1012C00081005503E7FE34FD60FF490147FF1B0124
:1012D000E4FF2202DD0262049603000487FE55FC4F
:1012E00098FE69001100380152010D013900D30048
:1012F000BA0326FF5BFC89F95EFA82F820F9E4FB69
:1013000050FC2CFBB2F832FA96FC6BFBF0FAA1FE13
:101310007DFF5100000129FEFFF977F86A00C3FF45
:101320009DFFCC01F60024032A0521091A0E080DA1
:10133000170C6A0BAD08E006EE03DA05E1022E0099
:101340000B0001FEC4FCDCFAF4F5BDFA8BF8ACF836
:101350007BF9EDF8D2F377F594F444F76FFACCFB10
:10136000A9024101910510027B07640423043601A0
:10137000B5068F0179015305710A7F0899091B0A87
:101380009B06D7042103B40427047E06E703BC02AE
:10139000C4FDAAFCF8F28FF4CDF7C9F5B8F485F5D1
:1013A000A5F485F85FF931FC92FA64FB4BFD23FB51
:1013B00073F8C2FB75FD3E01A0FEB8005D05AE04EA
:1013C00049048E073807650B0308B60794085F06C3
:1013D000EE037903CD0886066D026404B5040D00A2
:1013E0006304050124FE33FEA4FB7CF82CF929F7E5
:1013F0007BF604FBF0FA2DFC62FD66FD67F59CF8B8
:101400006CF9F8FD1000E902C405F002A0006C02BE
:101410002204AB04BB08F5092A08E30B6810AE0DE3
:10142000190DBA07580166F9B4FB09F54CFA0DFE1F
:10143000E7026EFF8400C6F7A9F3EEF732F469EF16
:101440004BEDF6F0C9F525FDF2EC58F4C7FEA4FD0E
:10145000E0F867F91DEFBE02C217BEFE34F219FCB8
:10146000BDFC9CFA6B11EC17A8F910F32BFEDD0004
:10147000C709132761233E19DD21E30FFEF731F27F
:10148000B6FD79F6A0021222692E9015FB0E5714B4
:10149000A1FF58F184EF5EE461E732EB22EDA8F89A
:1014A000B200EA02FD1B8B1A6005D1F640ECD6E7CC
:1014B0009AE8CAE395D7C3DFC9E805EE39E60A0220
:1014C0003DFD44F96204AD1674068E05CBFC85F132
:1014D000DDF895F4F6F060E9B1DEBBD53CDD11DC5A
:1014E000AADDDEE24FEB68F324F72006BB198C1966
:1014F000F9219F25752A6F2DB738503ABF306028E3
:101500007D1DAB12C1057E02EAF332EFD8EB29DE76
:101510008FCD8CC60CC354C6D1C6A2C1C7C41DCAC8
:10152000E8C5D4CBA7D81BDC80EDF8F45BF76800E6
:10153000890CCA0F8818322C852AAA32E8376537F9
:1015400018337C31F330DE2F7D3219237A197F1F57
:101550005C1EC210C30B5109DD005B0D7E0B7CFBD2
:101560005CFE6A012C01C6FAA50249031C0AE604C6
:101570009C014D0E0C14600F790AA50AA802660B97
:101580002A0F5C1186103D14FC1F80148509F1F0B0
:10159000BCE2E2F4C2028C084D055307E70784FC65
:1015A0004CEF1DF404F3720303090A09710E55167A
:1015B00092122A0C7704D2097813251C461FE412D4
:1015C0002119EF0FC911FF0A6A03A400E5092DFED6
:1015D000C9F5CBE7E2E6D9B5249C03A4E4C31BE339
:1015E000AAD904CBB6D0E6D2EBBC56C3CCC879E7B7
:1015F000DEEE01F24BDFC4E1CAE3A3E4CCE688F1FE
:101600006AEF3B074A14070F46182F359A346E2CA1
:10161000E52F5531A13ADB36A432D527471D4CDDE5
:10162000EFD348E9D0150D2B7C1A6A127614B80F47
:10163000A8F42CEAFDF9771675279515040515020F
:10164000C514D30A56021003D70E3E1364041704C0
:101650003B0BD31513068C0EAAFB50F4DDF394F864
:101660004DE421DE22B485882F9C31C4DBE003D316
:101670004EB0AEB1AAC0E2A61C9F1F8B67B101D6C7
:10168000CEE4BDC8BAC28ACDCBD8BECECDC6BFDAF5
:10169000FAEEB8FD9BF4CFEE670E70153419B91A47
:1016A0004B0F6E232F22D02CAF1EC41F34C4C4BDD9
:1016B00088F2B01B7539781F5815FF1BBD1EE90C49
:1016C00036014EF3A72E6044A935BC24661EDF29DF
:1016D000A82B471C5B1C8C30AF3C99445C37033A09
:1016E000464E234127502434A34745394047813B88
:1016F000BC403AF591AC03DEB6016B39283B62245D
:10170000CD1B992426F98CF3AAD5A4EEF2178F10DD
:10171000F805D4FD8BFE8F0050EF9FDD45EBE8F41C
:101720006F028C02FCF72911D607FA09F202F4FFC6
:101730003501B40498F9A1F5E5E1128D59939CB1F6
:1017400023E56D07ABEDF4D799EAF2D7A3CC2FB917
:1017500014B945EF54F801F091EC05E583EB98E6F8
:1017600090D4D6DCB3E93EF337FE5DF49EFB510125
:1017700038057B0AB5032B111B119A10A1099C0B8C
:101780008BA8BF9C0ECE91FDE626C11BE20B9513E4
:101790002C1803F485EB82E4E513A731CE227922DD
:1017A000301CAB2BE72AFF155F1B65249435AB3447
:1017B0004238B12C6742423C2D3E05393A3621333E
:1017C000BA2CDF2748242FD59CA2CDD7B1FF4826BD
:1017D000B71A5C0CC4174A1CFDF64CE81CD9DAF7A2
:1017E000391AC7079D08E60DAF10CB0BFCF377F64F
:1017F0008DF51BFF0E0CE00D0C051413220482095D
:10180000FF070A014F0220033AF6FAF70FB9AF8A31
:10181000DBAEAAD183F375ED57DE91EF97F92FD1A7
:101820009DC2B3B97CD91AF9BAE8ADE99AFA920225
:10183000A3FF50EB74ED5CFB50FB25039C07970264
:1018400093177F15D515990DF70834059B0409F4F6
:1018500028F921B26191F5C546E9C8FA62F301E7BA
:10186000EBF18904E1DA95D499D33FE9ABFFF9F3C1
:10187000D9FC3F0E200E5210EAFFE0F2FD08FC14E6
:101880003611FE205921693170283D2E243229332A
:101890009A257E23F21C0B2CA8E674BAE9F3B91042
:1018A000CD1CBA1A261AC7251F330F0739FA9FFA1B
:1018B000A5116C1C520B2B16A426A61FA41E1213D6
:1018C0009111501D421E5F176B27093787457B36E4
:1018D000B83A54446D3FD23368248722701D5ECDE0
:1018E0003ECFD50AD61E402BE8254627FE39D1200B
:1018F00089F74FF549FC3711580F2101921439151A
:10190000FD0C76FEE3F00CF9F8F3EBE7A9EF74F4C5
:101910001E03A10D49071006BD05B4FB56F9BFE52E
:1019200096E77FD5CB8DCAA2F0C79CD58AE718DC95
:10193000BBE13EFABDD73DBF0BBE48C8BFD6BCD445
:1019400042D1F1F084EC2DDD8ED674D67BDA2CD822
:10195000DFCCC5D75CE989F09DE900FC20FC5BEF9A
:1019600004E235E644DBE1E1E5B37B810CAF41D134
:10197000E0D1DDE83FE4F3F24A0468E286D7F9DD1E
:1019800095EADBF25FF58403461D681C7010F511C3
:10199000180F700E33132A0A4717312B9D29DA2AA4
:1019A00028472D45643C5F2CC7243D1B751B2ACC62
:1019B0002FA01FE2D3F856F96A1C7B237731BB4373
:1019C000E10E72089C149A0931FFB605C719583701
:1019D000A23C87350539FF3EF2332B2AD818102553
:1019E000572A4427642F073F5C41F246A3377C38CF
:1019F0000B2D041F93D2FCA3E8D472E3F4E546FF59
:101A0000F613BD2F9A39D10CB80FD01797FD97F563
:101A1000E8EB7EF28A123117D6123020D02D4C26F8
:101A20002A1AA6069F079302A8FE4802DF0D43115B
:101A30005119DA15C2264E12090CF9E0B1A18DB880
:101A40002CC4FDB942BCA8D1F3EB07FBE1F108F9C6
:101A50004707D502C4F818E80DE214E98CE61EE346
:101A600022E7C4FA93FD0B0160FA0B00390432FC43
:101A7000A7F99300E5FBBEFDF5026B04A5F70BFF8C
:101A800053F8F9C47CCB92D9ACD3C4C8E4C35BCFC0
:101A900064E239E5D6E53AF679001B030D0496F9C0
:101AA0004EF6C0FD3EF393EA28F097EF4DF7ADF206
:101AB00090F94C0359026703E40AD1156616C8125F
:101AC0007311DF0DBC09501126EA1AD908E988E91B
:101AD000FAD7DDD314D6D1DD91ECBCE8FCF32308B2
:101AE000AB188C1D8521151E9122B01DB518E5146B
:101AF000EF0C2C140C0D140E8C16B610581A5C1E1C
:101B0000612E7B2F5034A13A7E40FF3A313F2A1993
:101B10000A06C713D30108F2B0EE07E8F0EC47F667
:101B200020F3BA059D1B1A24A124E529142BDE29D4
:101B3000BF2214188D14AA0E470E1205F301970543
:101B40008802B6003E0A4F0DC712FF1DE11D1D168B
:101B50008E1C5EF761E944F18FDDBECE0DC5ECBE93
:101B6000FFCAE5C873C3CBDDDAEC2BF93706BD0736
:101B7000C61248193211330EF5091D011D0119F75E
:101B8000EFF09BEFC5F058EFFFF521F634FABE06F3
:101B90005709DB0F270C11E4EAE8EDED50DAF3C941
:101BA000D1BF11BCC6CAB1C545BF1EDA9EE570F1F2
:101BB0002B0191FFF20EB519CC102B19421B8E1080
:101BC0001015F90A6907DA07F305090852113D12E1
:101BD00016175624DB20E02D0C1518F731018AFB6F
:101BE00051E92DE657CF8DD472E5A5D191DB82F076
:101BF0008EF6BD099E11420F232D7127F8265D3008
:101C0000F62A4E24621E6316C50F68131B062506AE
:101C1000840F350F2916B220331B592BDD0A5300D0
:101C2000750A1DF93AE847E42FCF07D78CDC79C451
:101C300043D1D9E0D5E494F0D5F03CFAFE19770A07
:101C4000E102AA10850AB203000CE5F97CFF52FEFE
:101C50003FFCF9FE5A037AFFE1119F0FC91B8A105E
:101C600073F7CD0F6705EEEFBFE713DC57D674EEC1
:101C700076D2ADD40DF1B1F4DDF7AA097A0BB42315
:101C80000527C41494207A1CA80F09159609760418
:101C9000DD0742FF95FC500CE507D60FD111ED1280
:101CA000C710FAEEBD083C0235F1EEED5BE2DDD087
:101CB00095F29FD63FD796EBF1E22BF636031CF553
:101CC0009A13C921DA0DA618901AE4109F19BB04C3
:101CD00039FAC10AF6F96FF8BC0DEA079E089F0EA3
:101CE000FB15D40651E68AFFB2F428E9BEE589DA8D
:101CF000CBCE47F6BFD488DDADED97E2C4FBAB0A8F
:101D00001AF7710EA9299B14FF258228351E522A25
:101D1000421D01124A19FA14E40F781BE80CA217AD
:101D2000CA1ECD23B80BDAF73D10A1F5A1F807EDD7
:101D300041DD82E4B1F045D753EB67FC73EE480A0E
:101D40002305A5F942202225031C5B2F1024AF1D7B
:101D50006D28F613C20BAF101008130F1016AE0B40
:101D6000ED1B701A002F69EDBD05570AAEF78EEB1B
:101D70004BDF15CC5ADF52D60EC0AEE0F7E772F259
:101D800009F2CAF035F6C1103003440519FE1EFAF7
:101D9000C3F73AE886F277F650F7EEF9AD0A46084F
:101DA00061103B106C22AFF1F49C16DC20CA75A6C2
:101DB000B5A83EBB56CE320178E47EFBCE2A8D23F9
:101DC000DF00D2094B01CAF13EE956C8F2DD35EE1B
:101DD0000EE732F29305351528127F2ABF222627F7
:101DE0008A1C5623B321F92B1AF70297ECE44FE82B
:101DF00077D0F1B725FBA806513022203C180049C6
:101E0000D23828F9C304B5002CEEB3E5D6EBE10CCB
:101E10002E2B30137D20113CE831AB2A0C2B4720B0
:101E2000361E2A23091E2D13512537C046A8D3EF8D
:101E300046E46FA9E6DD3016AF0FF51BF209AF1AC5
:101E40008F28560710E3FEF725F0A3E662F4DC11B5
:101E5000E6126623E71C37306226A21F9D192C1E4E
:101E6000F4232108C916DE142F29CEBDC2A95CE4D3
:101E7000BFE9F8B83EF00815AF0C6E1F36F3211419
:101E8000022230E0F4CB9CF279E54ADC08EB09054C
:101E9000682CC325910B043001245D12000CC81876
:101EA000A915041FD9048223AE06EEA084C852F5FA
:101EB000A2DB84D38A11820F4A295A098AF7B11FFB
:101EC000CC1315C9B2D131EC63D859F150FF5B0284
:101ED000852BF910A81C7C1980135802D508A10A7B
:101EE000950F4315F814B6FFF0A11FBCA9E8B2D7AF
:101EF0001CCAB3FC3004011D711BBBE926057A0D19
:101F000043D1C7D07ADE0FDC74E858FB4BFCB51127
:101F1000D70C0600ACF501FDC6EF1FEC42FFF4F74D
:101F20002FFA180C05016FA3BAA697E523CC83BE40
:101F300003F3BC060227981B5EE65300B21354DA83
:101F400008D8A0E7B4EE0C01330D2E12AC211325F6
:101F50003F1E0527AC22170ACA21671511261E212C
:101F60005E2874D202BD96EFEBF62AD1CDF11E1B8E
:101F700088246F3A67112D0CC625BFFC3FCF70DB5C
:101F800097F9470C410F860F1227A73A641D5D1879
:101F9000AD2E8E212E149C142C287C17EB329AFC2B
:101FA0005BAD8FD750FCEBD003E28814291A88442C
:101FB0003F1C30FDDE1FEC0C6BD1FFCF30E132E96E
:101FC000A9032C10FD040421012D220B5C0C491ADD
:101FD000A5142E0E211BDE02391A1805B8A25FB710
:101FE0006BF5C9EE19DDB905130C73523F2175F677
:101FF00017077AFE92CE24D623D200F9B816080726
:10200000E00A201C781E6B0F800E21FF0E1682083E
:10201000DD085E022F271CC9809BF7CD9BF78CE162
:102020008F055C001F24E93F22000DEF430232E8D8
:1020300002D881E067D76610121F66201E1A7A2127
:10204000CF168F1E39FCFC09AE1FD40F560F21226C
:102050006EC6E4A72FEB54DC81D8F903C4FD7223CC
:10206000543057F00FE988F7D0D428D18FC070CF03
:10207000E3F9B31122151B123410951125FD8EEDD5
:102080005E068500D001C910740093A915BB78E8DD
:10209000E3DE49E585FF60F7FB34D730FEE8A8EFC3
:1020A00020F5B0DFC7E151C42DE0D42D60299D0A91
:1020B00028179E1ADE187B050604060B0E085F1C07
:1020C0000A23FEC590ABD0E755F5C4E8790E4BFC6A
:1020D000CF267557050640EAC318CBF77FEBD5F33B
:1020E00037E06C1D7B4AA820C721B027E228201DBD
:1020F000971A2719EF12051E843994D974A408DFA2
:10210000E6F39BF7D6FBBCF5C7289F4C000095DD96
:102110002BF27EEE10E220D362CB1F0A462B7C27E7
:10212000A4192F272A28F822131CB80BE80B861DA8
:102130003E26EEBB8DB48CEAC2FBDCF4A90E59F44A
:10214000712F1F3924F99DD73FEBBDE359E1AFCE85
:102150009DD8C90DD8221312BCFD0A0F371B5A1B7C
:102160002B1572128FFBC22B67EBFFA181C4E7F422
:102170005FF06109B30366091B3FA52239F354EEF2
:1021800072E0E9F032EAFFDAF9FAAE254B28D71807
:102190008C081108CB23632A6B133DFCD32037FD39
:1021A00095ABDEB199DC84EED1181112C4F1303058
:1021B0001B238DFD5FE728CDD9D61DF058D611DE43
:1021C0005C119025F81B590C79F8051D1327350A69
:1021D000B8F5DD0C3BF15BA03CB5A9BF15EAB11128
:1021E000C2081CEA052F8B1DCDF5D3D92DC2BDC168
:1021F000DCCCBAC5E5DAC0FE2B051F091B0519FCAE
:102200007321041BA10597F4381587D5A29C9DC3A3
:1022100081D095F9E6164E0A6E0E12454826760FC5
:1022200087F025CEDEF07FF1CBEE1D09A227A43189
:10223000CA3A641C3D200B3CAB341C161D085514D7
:10224000B7C895BFAEDBB9F080081A201A104C2829
:102250005837B018F30C43EC0DE2150660F1DCF4CE
:1022600006152630713BDE3A191B4C2F3D42E831F2
:102270006E08710589D829BB4FD75DDEC8F5A21A53
:10228000F612B80E472AD60D5F078BF339C986E2DE
:1022900022EFDDE435F4B615E726402E9A1B8621A1
:1022A000082A7A326C173007E1F156AD36C22CE3BA
:1022B00001F75801590E660A5F2AF91E4E00DCEB41
:1022C00088D341E068DAA3E3F4FAFA0C6A24B03266
:1022D0009914BC16CD24262C5E18D20D1EFFB4BB5B
:1022E0006CBB95D823EB1605840C74026C2AD4249D
:1022F00008FCD7E4D5CBB8D18CE3A8DECDEA1F111A
:10230000DF1E0927881BF30ACD18562CEA20500D32
:102310003DF537B4E5BCE5D7EFEBBE04880BD2132F
:10232000A13CC02D8EFB07DD2ACCAAD1AEDF13D98C
:10233000AEE13A0F5629D7235A0E6305EC1A7422E0
:10234000D8131202CED163ACB7B927D018EAD2099C
:1023500070FE5611BA33FE14E5FA7FDA4CC741D746
:1023600025E6BAD324E7B3104D2135251110B71057
:10237000E328C232111F460E53C9A8AE43C70EE46C
:1023800074F7BD145C063A29313DF61E8F030AEB43
:10239000A9D93BE218EC10E35A00571CA8362231A9
:1023A000DF1F842C1E38D8358325ED0B1BC0E1BD03
:1023B000EDDD3FFB5D0FDE1B77152232A43FB81D1C
:1023C000B3FE76EF87EBA3F541FC55F8DA13B92895
:1023D0001038762330249B2B0A392D2CAC23A8EB04
:1023E00058B56DC865E212F65202E4007B07AB26D1
:1023F0004F2564FFDEE945E093E9F3EEABEE86F8A6
:102400001210C82BED1A9C1033187129932A6A2DCB
:10241000F71240CC21C04AD8CCEF8C03FC0809FA53
:102420009B19F322E10954F0B7D731DA96ECB3E304
:1024300078E92FF8CD0AB51BEC029B02FC0DA91C14
:10244000CA16821D80DE4BB847C76CDC78F462097F
:102450009BFE5E01B424300DFBFF36E4BAD5BBE829
:10246000E8F130E99EFB9706B8175A123F08980B1F
:102470009D1BED16302299FED4BE47C12CD926F102
:102480007D08AE0B15046024FA19E4077DF506DE1D
:10249000C7E73DF98AF2B6F9CF01D512D719F80F7F
:1024A0004D0A8010600EAF113A0AA2C6BBB9CBCC60
:1024B000C4EA9905F10B41F82D15AA2275083CF8DC
:1024C00070DB1ADABDEFC0F62EF8B4FA0C06D81499
:1024D000C40D2808170B4C09A30A4F0FCCD0D8B451
:1024E00081C430DB7C03941315FB200A0122E8151C
:1024F000530BDCEBECDFA8F59902D102590B12105B
:1025000001293429B42162204227041BB82734FA58
:102510007EBFBDD295E51305F91FB910BD093C2C4E
:102520005020B117E3F313DEB8EA94FEF2FDC909B7
:10253000B20FED259D2EFB26DB1E9626C921AA266D
:102540000610E1C604C664DF9FFC991BEC1443012E
:1025500099220420BB12DFF6F3D54FDD64F202F2BC
:1025600018F98301720FFA22D32190159115F51CE9
:10257000041B5A1795CF1AB5C5CC3BEB950C2B1401
:10258000B1FA581073211F139F00C6D830D37BE5D2
:102590001DEF4BEE3EF43EFF2B17761AFD13630C36
:1025A0000712290ED618D9E017AC18BE88DBC9FE71
:1025B0007F155A030D053A24A61B9F0E9AEAE4D50F
:1025C000D4E1A6F279F822F60FFF8A15381E3A19DF
:1025D000AA128613B211A01946FAE0B8F1BBFAD1DB
:1025E00094F36712790A31FD611CA12109193101A7
:1025F00023DEB3E6B4F4CFFC6E01FB077B14B224F8
:102600002525FA1D2B1ECA197F16BE06CBC366B63A
:10261000B0C70CE1E005AE0892F35A053512860BFF
:102620000EFF80DDB3D710E492EABAF1F6F60C0A99
:10263000E5178919501886163213A20DFF0EDAD647
:10264000ACB66FC510D6A2F9450A4BF9E703BD1722
:1026500014167D0DD1EC71D9E5E0E7E7D2F227FA47
:10266000090A9E2068237827B820C121511BD11C5C
:1026700024FD7BC303C788D845FBF6189415DD0AF3
:10268000BA1D5E1E821B620127E6C5E536F372F9AC
:102690003104E10A791DB126882A4729E72210254D
:1026A000C31FE61B65DBC4C802D36AEE820FE91ABA
:1026B000A8085D13CE1FB522C11519F50EE0D1E3B0
:1026C0002DEEBEF4F3FB1F04051653173E22671CC4
:1026D0004B219212CF17F7ED7EBE35C126D203F201
:1026E000EE0CC30AB905B417931985133EFDBAE37E
:1026F00069DD44ECB5F03AFC4900F70C2F13D31810
:102700006A121917C711C512300C7ECF90BAF7C2E2
:1027100094D978FF3B0C18FE6307F20FC10C9C079D
:1027200033EF0CDC8BE60AEE1BFD610125050D0C79
:10273000EB134214201DDC1A500EDE1535F04BC28F
:102740002EC8E1CF67EE7D11640B44037413C714E8
:102750003A1057070CE703E261EC48F922016408DC
:10276000E80B4C1A901F261ECE1EB4181615CC1A54
:102770006BE75CC4AAC723D6E6F9CF114103C0FFBB
:10278000B90FCA0E0E1008F5F6D925D615E637F69C
:10279000DC006100CD09E2100F15641784186A127D
:1027A000B213BD04A9CE35BEAFC3F8DA17FC9B0344
:1027B000DDF568069D0B760EB2047DE6A8D4C2DF77
:1027C00011EB79F709F89DFA7A08BD145819D01A57
:1027D000391DAE18E61E9801F9CCB8C90DD426EE05
:1027E0005F187216EB0CAD1B002146228D1623F3E9
:1027F0009CE4A9EB23F6E704A20CAB13F11FBB2565
:102800006A27FF2531247C1F25224FF700D11DD3D5
:10281000B4DD1B00D31C4F15E711951E8120152335
:10282000E10AB6EBFEE35FEF33F70607B8059C0A53
:102830006C14C31B0B208923C31EA1199F1424E011
:102840005AC85FC96DD8CFF95D1167025A0D111CC6
:10285000611C9B17EAFDC3DF14DBC7E6FEF11D0117
:10286000A9FB5E048B0C5915A9178B1B6B15B211B4
:10287000B00212CF1BC1CFC465D5EAF81308C4F764
:1028800099074C1345168B12A5F7E6E0E1E176ECCB
:1028900005FBC1081005051193151B1E491DA32139
:1028A000A81A9C1B3B0360CDE2C4B8C478DAE000F0
:1028B000480B4500FC0F9F14F618070FF1ED37DAAF
:1028C0007CDFFBEA4DFAA406EB0BA214CA18FD2329
:1028D0007C259F25461A661FE0FFEBD107CC68CE0A
:1028E000DCE9FA0AD80DD003600F0A118D138B08AA
:1028F00015E8C3D49ED74DE108F284FCFC04D3094B
:10290000350A6412B815FC16B410DC1660F3D8C68C
:1029100080BF86C82BE87807720B6700FD0DBC0EE0
:102920009113610A34ED65D847D768DEB0F100FC39
:10293000DB0482073A0BA5125E17A0202519C11CE3
:102940002EF921CF4FC64DCDB4E5D506350FBF08C2
:102950008F18B9192D1DDE112DF82FE475E12AE924
:102960006FF954021C0C20138A1AFF1F3E26C4293B
:10297000D72027243204F4D945D050D170EAA70BD0
:10298000A919BD10E71D9E1D0B24DB1BAB0797EE9D
:102990005BE6ABE963F935050309850F1A11E51804
:1029A0008F1F59259C19B81ADBFA32CD67C0B9C3FD
:1029B00077DDC101010F1F04BB129F14CC1B3B1814
:1029C0002E00CFE550E0F0E34CF632040F09091178
:1029D000B6132E1C49238625A419FA17C8FCE6CC89
:1029E00046C56AC4EADD13FF4B0D85023F100C108B
:1029F0006516FD1102FBCFE4AFDE4DE4CAF1EBFD3D
:102A00008201AB0D5B103B1DFD225227671AE41BB0
:102A10004D04D6D133C3C0C149D820FABE0B06023B
:102A20003B0C90119C189B17B502D4E763E0ECE2D5
:102A30007DF49603EF08C30E5B14391E8528772CAE
:102A40005A2445201D0CF9D78CCB14C6CAD730F4B4
:102A5000500586FB5A063E0BD40DEC0FB7FB45E73D
:102A6000A5DDD1DC49EA54F82CFD640593053A0D47
:102A70008016041F121F211EC90A91D62AC7B2C28E
:102A8000E8D134ECDA000AF834025D0AE90E1712D4
:102A90000D00CFE84CDB24D698E375F278FC3600C5
:102AA000F10509081116CD1E4E228F1D6611D9DBC6
:102AB000BECA90C799D6DCF375098D04A10EF51B2B
:102AC0005323B12ADA18B80064F3CFED5DF4810323
:102AD0001209F90DF5114A18C724892F4832EF273A
:102AE000001DC8E836D283C9DBD010EB7501890020
:102AF000E10AF31A3120E72A5B205207C7F803EDF9
:102B0000F4EBD5F59C043D0913111913061BD422CF
:102B1000BD266C204C1F83EF98D461C79CCA63E12B
:102B20005CFAF1F91802ED0D61149C204B1B420870
:102B3000C9F35BEB83E312ED7FF5EBF7AAFF930894
:102B400064153423542C0D22FC1F80F21ACD14C2BC
:102B5000E3C34ED705F180F32CF7B308AA104E1F3C
:102B6000B922810C58F8EDEC30E44AEF3CF9DEFE76
:102B7000170B5C17141ECA2E3937EF2996258CF7D0
:102B80000DD59DC851C6D7D5FEEDF3EEFAF4700C05
:102B90009C0DA2200A1E8211E6FFB5F4F2F279F52F
:102BA000AAF943FF310A8D16AF22AF2FFD37242D2E
:102BB000222C120331E089D13CCB85D084EC84ED0A
:102BC0007EEF47FE3C0007104C11B70336F1CDE312
:102BD000EADC40E4B5E75BEA31EECEF6F6021F151B
:102BE000FB205C1C001DCCF6BFD593C7BBC45FD7D0
:102BF0004BE96CF381EFAE048D0AD8178118750785
:102C000050F837EB19E6C7EA37F155F59DFE200776
:102C1000D213CD233D2F3129B72B110327EEB7DE79
:102C2000F1D766D785E4CCE93DF61319C8227B2A93
:102C3000D123320CF8F9C4F01AF035F90B006F0209
:102C400074FDFEF9EDF9980BA41E63255033FF21A6
:102C5000BCF3FCE289D12ACF9DDC5EE25ADAE8EED1
:102C600062F9CC119028FC28E0195609DFF9CFF65B
:102C7000FCFC80FF08FB72F874FC41072C22FA1F51
:102C8000F8246A16B1F3D6E722E1FFE7C0F459034E
:102C90004CFD9E0E22166F213E291A221D0D8CF925
:102CA0008EE829E54EE80EF1D6F254FAB1098A1DF4
:102CB0006A31413CAD37292CE20FADF5F3E856E619
:102CC000A7F201057A014E02210AF30C661D7C2150
:102CD0001F0D06FA9EE5DCDFB0E7A8EA6EEB0FE910
:102CE0007BEA94F64608BA1A771C6B19C7FF1AE6F6
:102CF00095D5FFD592E138F3B4FC96FCC3050018D6
:102D0000922914373A2ABC14CE000DF80FFDDC06C8
:102D10006B0913096B10E00FA51BE129E825341E90
:102D2000330455DE56C7E6C192C979D6ECDA55D8D8
:102D300084DAE5E785FA23092904B7F0E6E2AAD7A1
:102D4000ADDD88E35FEE1DEEDCF138F8520241188C
:102D50004B286C2B3B1CE2F859E21BDD82E837F86C
:102D6000340238FA01FBC9051715F5290F2BAD1AE6
:102D7000E107B3F726F02EF53EFAC5FB68F670F2D0
:102D800027F9C406E2194220CB19F4F310DA9CCAE1
:102D900049C99FD2E2E0F6DE51DC1DE832F2D603EB
:102DA000CB0D1F0B5BFD02F3D9EA11ED8FF4E5FBB0
:102DB00083FFCAFC5F034A0ED222592BAC2D611649
:102DC00048F79EE76DE12DE843F7790075FE52075D
:102DD0000811AA214A36333B562FB31DD712110DC5
:102DE000A614E81FB124961BC91B0421DC2D683BE7
:102DF00006410C38A91775FE1FF06EEE42F8EE067C
:102E000099053F01F2FFA8040D157F21271BA90A90
:102E10007AF905ECDEEAA3F773015EFFD7F9C6F98C
:102E200084FA30054B0F031370FD72E42BD103CAF3
:102E3000AECC24DA39E0E6DA69D5E9DA3BE369F3C6
:102E40002EFC05F624EB66E0B6DB30E2ECEC7CF120
:102E500029F122EE42F1A2FAC80A8D15A11252FA06
:102E600000E103D25AD3B0DD54F181F329EE70EDC5
:102E7000DFF2BD009F14591B3E17AB08D3FE1EFBAB
:102E800023059B11C216BE10AB0D2C133625E4365C
:102E9000FC41FE35FC1664FD75F10AF39CFE550BF2
:102EA000D408A7041A02D70BFD19B827682A961E62
:102EB000820E31031B03CE0AFA11A11044077D01D3
:102EC00095074F1563230C2C9A1C660215EA22DE27
:102ED000F3DA19E8D2EE2FEDCCE672E58BEE68FD61
:102EE000FD0AA20DD5FFA5EE36E5A4E639EBE8F51F
:102EF0003EF5D6F030F18FFC4E07B216E617DD0333
:102F000077E908D45ECAB3D18CE290E94DE9A6E234
:102F10008CE6E6F0BF005D0E860A3EFAD0EA64E178
:102F2000AFE3C3EDC0FACFFA45F8BAF88900D50986
:102F30001518BB12CBFD8AE6AED865D656E4B9F6B5
:102F4000EDF90AFB2EF904FD770901196E21C81E5F
:102F5000A410550488FE2201430A1F10B30D480A2D
:102F6000A50DD815F81F042A751BC308EDF41BE73F
:102F700028E8FBF556FF6A02C504270250083616FA
:102F8000CE2215289D235A16FD0E480CD212441D40
:102F900073211B234D219B27952A1330B52DFA1A37
:102FA0001207ABF218E953EE71FAB4FE5002280092
:102FB00074FB9F04950FD2160016BC0D7E01F4FA27
:102FC0000AFB3C013F076008D906F504B4090B0A67
:102FD000AD10000905F789E33DD4D6CEB1D965E43B
:102FE00022EA29EB4EE748E8B7EF19F9AEFF5700A0
:102FF000A4F901F08FF063F070F70FFEB7FF6BFDDF
:103000009CFCD200AE04E50791FDC6EDC6D77ECC90
:10301000FBC707D30ADD68DFBEE1BEDF34E130EB7A
:1030200009F551FC49FDB4F588EDA4EBD1EEF7F6B6
:103030007300DC048705A90B6E11E418201C130E25
:1030400089FC69EC99E0A1E1D0EE1AF2A4F6BDF793
:1030500004F756FDB8065A0E670FB60D87068602AE
:10306000E4010B07590ED6135918821DED22FD25D8
:10307000292B1A256913C70587F8D3F155F66DFE7C
:10308000C700AC057E0A940A6010E91530162416B4
:103090003214420E4F0CC6085C0C47101812A216D0
:1030A0001B1C3C1FC024B227DA1E0A12950479F8B3
:1030B000BBF354F8C9FB5CFE3704D004AB06890BA4
:1030C000750FA10FE50DA30AC502A5FE44FCDAFFAA
:1030D000110123069A0BC510E713B4152213EF0252
:1030E00040F577E982DD42DBDADF95E3A1E718EB13
:1030F0007FEE1DF06FF47EF935FBF6FA26F705F446
:1031000039F17CF0F5F2D2F42CF9E2FD09036D04FB
:103110000506900020F421E90DDEFED56BD46CDAB3
:103120007DDE69E4ACE905EE49F190F7AEF945FBC7
:1031300015F97BF41AF3F5F0BAF327F77FFBE5FFF7
:103140005C04AE079609E9083D0257F731EC8BE1C4
:10315000CADC49E0C7E6EEEC15F41DF689F91BFE62
:10316000D705F40ABF0FCE0F0F0FBC0D970EF41149
:103170007414B318A51B7F1E4320A921381EE21426
:1031800018094BFDBEF404F11CF3BFF834FB82FFB9
:10319000B702A9027A05C90A690E9A111610700EB3
:1031A000CA0C180D640E49142018731C0E2202223A
:1031B000FC2213206E16AF0C8B02F2F6DAF374F5D4
:1031C000FFF77DFB180053026204FF073E0C14104A
:1031D0006B0EE80BEB08390586063C094A0C2510F6
:1031E0002B146F17F1177F19B0114308E1FDB5F2E9
:1031F000C1E820E799E780E7D8E90EEDA9EE9DF058
:10320000DCF6E4FA07FD9FFD6DFC22FAB4F6C3F884
:10321000DDF993FE7F06AA0AB50F0B118B10080A81
:103220009103DDF95FF26EEAA7E9C4E8A6E892EB44
:1032300073EDA9EEE1EF77F2D2F3EDF5EAF68BF458
:10324000C7F4E0F0C8EE8DF256F6FEFB6E009A026F
:103250008402980268FD11F87BF0E4E966E5C5E8B0
:10326000EBEC61EE58F1AFF2FDF494F7CCFE84067E
:103270002704BC0274FFC0FB55F9F8FD3902A5060E
:10328000AD0D59113912BE1225106C06660453FD9E
:10329000CDF665F459F852F996FAAD024D0126FEC5
:1032A000A501570758085E0B930B6A0739035A03A9
:1032B0004B06B408EB0FBB135418101DB41F151A9E
:1032C000DB12360E5B0209FFF7015EFF90FD610223
:1032D0008401BFFFCD02B907110CE60C2E0FA90A1D
:1032E000E1065903DF035A06B20DAC10D2104714A1
:1032F0006613930FAD0EF00551F8EDEFE1E933E8F9
:1033000096E9E0ED6BF1C8F102F485F96DFD240357
:10331000E80277FFC5FE70FF46FC9CFE1C03AA0472
:10332000ED0BC6116D0F800C560558FB0FF06CE8C5
:10333000ACE4AAE3E4E30EE85BEA6BEE83F2DAF4D2
:1033400078F99AFEF90173FEECFDD9FAE1F9ECFE89
:10335000D0026C044C09E60BE909BF080608950386
:1033600096FB11F6D1EC57E77AEA10EC6BECCEF154
:10337000F0F40BF5E1F873FC45FBC8FEA5FFDBFAA2
:1033800092F89BF9A4F9BFFC5E018709700D430F09
:103390001512140E81073202E0FAC6F3C3F6D2F614
:1033A00037F871F81EF84CF745FD100138022B0272
:1033B0001D0219FE35F9E6FAFCFEE002A709E90E46
:1033C00067131F19F51B6118AF16D311A007A703C8
:1033D0004FFE18FA23FC45027C01C902BE02D90344
:1033E000650239033D041003A40129FF98002E054E
:1033F000C70C2912BE14291CC51E8B1EDD1DEA1622
:10340000B00BBE066902B7FED7FC2BFB34FC0CF8F0
:1034100069F9ADF952FB09FBF7FA0CF797F635F6A7
:1034200058F387F647FB7FFEE4026A08EB061C09A7
:103430002B0D980B0A051EFDE6F50BEF78EB79ECEA
:10344000FDEFB7F435F5ADF522F7E0FB20FB8FF883
:10345000CFF86EF772F5B7F51BF9CBF78FFB5A0172
:10346000B1054406F209240880035BFC93F684F45A
:10347000C5F4A5F608F645F8A2FB23FA59F957FE5C
:1034800018FF20FEC8FDBEFA02F6F0F7EBFB57FF6F
:10349000DC007E045A044A055B045207BE08140887
:1034A000010385FCE0FD6FFF0BFE4F00DA017DFF9D
:1034B0008F00390286015FFFB8002C0252FF3EFFE9
:1034C0001101F9FEA5FE5CFDD5FEC304EC0A7908E6
:1034D0007B09290C230A7302A302EC00D2FD01FE32
:1034E00031FD64F9FBF636FA7EFAC0FB92FE7BFFF3
:1034F000EDF91BFAF8F981FDB6059E0918081C0DB7
:10350000501324120912BC154414FB113511610D1E
:10351000C105EC014B01A3FD2DFCDFFA7BF9B5F4ED
:103520008FF406F183F24DF582F28FF26AFBAB0065
:103530001D03A906D30B580E04104C118D10940BCB
:103540008D0AB00AC408F60882072D03F8FA00F8BD
:10355000B9F371F791F706F455F414F9ADF625F7C0
:10356000D0F6BDF7B5F998FCAF00A3FFCD026C0310
:103570004801320393030A04540292FF92FBABF713
:10358000B2F8EEF5E8F24CF6D6F970F604F7D5F39A
:10359000D5F5A5F425F3CEF43CF266F409F88DF8E0
:1035A0006DFB03FDBFFD07FFECFEF5FF08023306D0
:1035B000670550049C0A130AAD0250023BFBB5FAA2
:1035C000E7FEC10118FE01FBBFF8ADF7B4F685FDBB
:1035D0009DFD90FA01FDB2F851FB54FE290012FF47
:0C35E00039014C05A909FC0CE50F4D0E4B
:0435EC00D9CFE6FF4E
:1035F000E1CFD9FFE652A098636A626A0F01266B99
:10360000020EE66EE66AE66A270EE66E0F0EE66EBC
:103610002BEC27F00B6E050EE15E0B500F01160E22
:10362000396F9F0E376F7B0E366FDF6ADF500B6E80
:103630000C6A0C0E0B5C000E0C5810E2DF50040DEF
:10364000F3CFE9FFF4CFEAFF000EE9260D0EEA22E0
:10365000EE6AEE6AEE6AEE6ADF2AE8D7658C0F0141
:10366000386B6598659C62A607D062960001776BFF
:103670007C6B7D6B7E6BF7D70001010E906F916FB5
:10368000926B936B846BDF6A030EDF5C26E2EA6A5F
:10369000DF34FE0BEA36E96E6D0EE926000EEA22F3
:1036A000EE6AED6AEA6ADF34FE0BEA36E96E670E0F
:1036B000E926000EEA22EE6AED6ADF50EA6A880F18
:1036C000E96E000EEA22EF6ADF50EA6A8B0FE96EBC
:1036D000000EEA22EF6ADF2AD7D70001080E6D6FCD
:1036E0000D0E6E6F0F01160E266F0D01300E026F5C
:1036F0000D0E036F080E016F840E006F0001616BE9
:10370000606BE552E552E7CFD9FF1200D9CFE6FF53
:10371000E1CFD9FFE6520001605118E107D0656A98
:103720000F01366B0001606BA198C7D0656A0F016D
:10373000366B160E396F9F0E376F7B0E366F65B680
:1037400002D06586FCD70001010E606F60050AE1BA
:1037500065BA08D0626A0F01366B3681368900017E
:10376000020E606F6250040B07E00F013651040B2C
:1037700003E06294A0EC21F065A202D0A1989DD054
:103780006250010B09E00F013651010B05E02EDFFD
:103790000001040E606F62906250100B07E00F0191
:1037A0003651100B03E08AEC21F0629862AC1AD01B
:1037B0000F0136AD0FD0010EE66EE66A000EE66E22
:1037C000E66A730EE66EE66A1BEC26F00B6E060EDA
:1037D000E15E0B50629C00018E5101E08E078E511C
:1037E00001E1F2D96250200B06E00F013651200BA7
:1037F00002E070EC21F06250020B14E00F01365130
:10380000020B10E0010EE66EE66A000EE66EE66A56
:10381000E6687F0EE66E1BEC26F00B6E060EE15E90
:103820000B50636A040E0001E76E6019E8AE02D027
:10383000E73402D0E750605D02E2A1983ED00F016C
:1038400036A73AD0DF6A040EDF5C36E262A631D0DA
:1038500064CF85F000018551780BE842E842E842E8
:10386000866F629685B508D08651EA6A8B0FE96E3D
:10387000000EEA22EF7007D08651EA6A880FE96EDF
:10388000000EEA22EF70865103E1B8EC21F010D06F
:10389000000EE66EE66A850EE66E000EE66E720EAD
:1038A000E66EE66A1BEC26F00B6E060EE15E0B5030
:1038B00001D002D0DF2AC7D7A198E552E552E7CF61
:1038C000D9FF1200D9CFE6FFE1CFD9FF020EE126E2
:1038D000FD0EDBA407D0E66AFE0EDBCFE6FF05DABD
:1038E000E552E552FD0EDBA208D0010EE66EFE0E9B
:1038F000DBCFE6FFFAD9E552E552FE0EDB500C6A4B
:10390000260F0B6E0F0E0C220BC0DEFF0CC0DDFF6E
:10391000DECFE9FFDDCFEAFFFD0EDBCFEFFF020ECA
:10392000E15C02E2E16AE552E16EE552E7CFD9FFE0
:103930001200D9CFE6FFE1CFD9FF020EE126FD0E3E
:10394000DB500FE0FE0EEA6ADB34FE0BEA36E96E6E
:103950006D0EE926000EEA22EECFDEFFEDCFDDFF91
:103960000ED0FE0EEA6ADB34FE0BEA36E96E670E15
:10397000E926000EEA22EECFDEFFEDCFDDFFD9CF44
:10398000E9FFDACFEAFFEE50ED1003E1F36AF46AE3
:1039900049D0DECFE9FFDDCFEAFF020EE926000EB7
:1039A000EA22FB0EDBCFEEFFFC0EDBCFEDFFDECF1E
:1039B000E9FFDDCFEAFFEE52FA0EDBCFEFFF400E5C
:1039C0000B6EDECFE9FFDDCFEAFF0B50EF16880E5E
:1039D0000B6EDECFE9FFDDCFEAFF0B50EF12FD0EDD
:1039E000DB500CE0FE0EEA6ADB34FE0BEA36E96ED1
:1039F0006D0EE926000EEA22EF740BD0FE0EEA6A85
:103A0000DB34FE0BEA36E96E670EE926000EEA2289
:103A1000EF74DECF0BF0DDCF0CF00BC0F3FF0CC06A
:103A2000F4FF00D0020EE15C02E2E16AE552E16ED1
:103A3000E552E7CFD9FF1200D9CFE6FFE1CFD9FF9A
:103A4000020EE126FE0EDB5020E165C0E9FF66C0F4
:103A5000EAFFEE52080EEF6E65C0E9FF66C0EAFFAE
:103A6000020EE926000EEA22300EEE6E0D0EED6E0D
:103A700065C0E9FF66C0EAFF8C0EEF6E6DC0E9FF1E
:103A80006EC0EAFF840EEF6E3DD0FD0EDB50E824E1
:103A90000D6EFE0EDB50040DF3500D24040DF3CF1C
:103AA0000BF0F4CF0CF0000E0B260D0E0C220BC009
:103AB000DEFF0CC0DDFF840E0B6EDECFE9FFDDCF35
:103AC000EAFF0B50EF12FD0EDB50E8240D6EFE0EE8
:103AD000DB50040DF3500D24010F040DF3CF0BF058
:103AE000F4CF0CF0000E0B260D0E0C220BC0DEFFE7
:103AF0000CC0DDFF840E0B6EDECFE9FFDDCFEAFFE9
:103B00000B50EF12020EE15C02E2E16AE552E16E57
:103B1000E552E7CFD9FF1200D9CFE6FFE1CFD9FFB9
:103B200065A84ED0FE0EEA6ADB34FE0BEA36E96E7B
:103B30006D0EE926000EEA22EE50EFCFEAFFE96EA5
:103B4000400EEE16EE6AEE6AEE6AFE0EEA6ADB34AC
:103B5000FE0BEA36E96E6D0EE926000EEA22EE5003
:103B6000EFCFEAFFE96EEE7CFE0EEA6ADB34FE0B75
:103B7000EA36E96E6D0EE926000EEA22EF74400E79
:103B80000B6EFE0EEA6ADB34FE0BEA36E96E6D0E52
:103B9000E926000EEA22EE50EFCFEAFFE96E0B5065
:103BA000EF16FE0EEA6ADB34FE0BEA36E96E6D0EA6
:103BB000E926000EEA22EE50EFCFEAFFE96EEF7C35
:103BC000E552E7CFD9FF1200000190514DE1010EFF
:103BD000906F915149E1010E916F020E745D0DE1FC
:103BE0006DC0E9FF6EC0EAFFEE52EF6A6DC0E9FFFB
:103BF0006EC0EAFFC80EEF6E37D0740535E1876BF3
:103C000063C0E9FF64C0EAFFEE52080EEF6E63C0C6
:103C1000E9FF64C0EAFF020EE926000EEA22300E38
:103C2000EE6E0D0EED6E63C0E9FF64C0EAFF840E18
:103C3000EF6E010E876F65C0E9FF66C0EAFFEE52C6
:103C4000080EEF6E65C0E9FF66C0EAFF020EE926C6
:103C5000000EEA22300EEE6E0D0EED6E65C0E9FF2D
:103C600066C0EAFF800EEF6E12000001926B936B4C
:103C7000020E745D1AE165C0E9FF66C0EAFFEE520C
:103C8000080EEF6E65C0E9FF66C0EAFF020EE92686
:103C9000000EEA22380EEE6E0D0EED6E65C0E9FFE5
:103CA00066C0EAFFC80EEF6E1FD078510D01365D79
:103CB000000179510D01375904E236CD78F037CD46
:103CC00079F0D1D86DC0E9FF6EC0EAFF020EE92697
:103CD000000EEA22380EEE6E0D0EED6E6DC0E9FF9D
:103CE0006EC0EAFFC80EEF6E1200D9CFE6FFE1CF3B
:103CF000D9FF020EE126000EDE6E0D0EDD6EFD0E0A
:103D0000DB50E8240D6EFE0EDB50040DF3500D2445
:103D1000040DF3CF0BF0F4CF0CF0D9CFE9FFDACFDD
:103D2000EAFF0B50EE260C50ED22DECFE9FFDDCF8F
:103D3000EAFFEF9EFD0EDB500FE1FE0EEA6ADB3478
:103D4000FE0BEA36E96E670EE926000EEA22DECFA8
:103D5000EEFFDDCFEDFF0ED0FE0EEA6ADB34FE0B88
:103D6000EA36E96E6D0EE926000EEA22DECFEEFF9E
:103D7000DDCFEDFFDECFE9FFDDCFEAFFEF9CDECF49
:103D8000E9FFDDCFEAFF040EE926000EEA22EF8C00
:103D9000020EE15C02E2E16AE552E16EE552E7CF34
:103DA000D9FF12006598000177BF2BD07CAF09D0F6
:103DB000020E746F935101E158DF0001916B906B1B
:103DC0001FD065C0E9FF66C0EAFFEE52080EEF6E35
:103DD00065C0E9FF66C0EAFF020EE926000EEA228E
:103DE000300EEE6E0D0EED6E65C0E9FF66C0EAFFA7
:103DF0008C0EEF6E6DC0E9FF6EC0EAFF840EEF6EB1
:103E000031D00D0130AF0DD00001010E746F925111
:103E100001E12BDF0001916B906B8F5101E1D4DE4A
:103E200021D00001020E746F65C0E9FF66C0EAFF91
:103E3000EE52080EEF6E65C0E9FF66C0EAFF020EA3
:103E4000E926000EEA22300EEE6E0D0EED6E65C014
:103E5000E9FF66C0EAFF840EEF6E916B906B8F51A5
:103E600001E1B2DE1200D9CFE6FFE1CFD9FFE65281
:103E7000080EDF6E0001785D000E79590BE278C004
:103E8000DFFF735103E1010E736F04D0730502E18C
:103E9000020E736FDF500B6E0C6A0B50785D786FFB
:103EA0000C507959796F6DC0E9FF6EC0EAFFEE5290
:103EB000DFCFEFFF380E816F0D0E826F77B119D013
:103EC000DF5016E075C0F6FF76C0F7FF752B000EC9
:103ED00076230800F550E66E81C0E9FF82C0EAFF54
:103EE000812B000E8223E552E750EF6EDF06E8D704
:103EF00017D0DF5015E075C0E9FF76C0EAFF752BDB
:103F0000000E7623EF50E66E81C0E9FF82C0EAFF23
:103F1000812B000E8223E552E750EF6EDF06E9D7D2
:103F2000E552E552E7CFD9FF1200D9CFE6FFE1CF46
:103F3000D9FF020EE12663C0E9FF64C0EAFFEE523A
:103F4000EFCFDFFFDFCF0BF00B5000017D5D000EE8
:103F50007E5902E27DC0DFFFDF500B6E0C6A0B5012
:103F60007D5D7D6F0C507E597E6F010EDB6ADF50E8
:103F7000F36E010EDBCFF4FFF350F45C16E2010E9A
:103F8000DB50EA6A380FE96E0D0EEA22EF50E66E5A
:103F90007AC0E9FF7BC0EAFF7A2B000E7B23E55253
:103FA000E750EF6E010EDB2AE2D7000ED8807D5578
:103FB000000E7E5528E265C0E9FF66C0EAFFEE52BA
:103FC000080EEF6E65C0E9FF66C0EAFF020EE92643
:103FD000000EEA22380EEE6E0D0EED6E63C0E9FFA4
:103FE00064C0EAFFEF50400B07E165C0E9FF66C01F
:103FF000EAFFC80EEF6E06D065C0E9FF66C0EAFFB3
:10400000880EEF6E28D065C0E9FF66C0EAFFEE5269
:10401000080EEF6E65C0E9FF66C0EAFF020EE926F2
:10402000000EEA22300EEE6E0D0EED6E65C0E9FF59
:1040300066C0EAFF840EEF6E7F51801107E005D065
:1040400080C0FAFF00017F51F96EFADF00017C9F0A
:104050008F5101E1B9DD020EE15C02E2E16AE55255
:10406000E16EE552E7CFD9FF1200D9CFE6FFE1CFED
:10407000D9FFE6520001778F020EE66EE66AE66A25
:10408000270EE66E0F0EE66E2BEC27F00B6E050E7C
:10409000E15E0B50300EE66EE66AE66A000EE66EF2
:1040A0000D0EE66E2BEC27F00B6E050EE15E0B504D
:1040B000658CDF6A030EDF5C10E2DF50EA6A880F6E
:1040C000E96E000EEA22EF6ADF50EA6A8B0FE96EB2
:1040D000000EEA22EF6ADF2AEDD7010EE66EE66AED
:1040E000E66A620EE66E000EE66E2BEC27F00B6EB3
:1040F000050EE15E0B50659C0001080E6D6F0D0E04
:104100006E6F000E636F0D0E646F63C065F064C068
:1041100066F032CD61F0615103E1100E606F13D093
:10412000010EE66EE66A610EE66E000EE66E010EA8
:10413000E66EE66A1BEC26F00B6E060EE15E0B5097
:104140000001200E606FE552E552E7CFD9FF120063
:10415000800E0D01305D5BE10001C00E776F0D0137
:104160003351030A34E0010A0EE0030A03E00001C0
:10417000776B4DD00001D40E756F4C0E766F120E1A
:10418000786F796B44D03251F66EF76AD890F63674
:10419000F736B00EF6264D0EF7220900F5CF75F072
:1041A0000A00F5CF76F0020E0001F76A7525F66E6B
:1041B0007651F7220800F5CF78F0030EF76A7525DF
:1041C000F66E7651F7220800F5CF79F020D0030E75
:1041D000325D1AE23251F66EF76AD890F636F7364B
:1041E000B20EF6264D0EF7220900F5CF75F00A0043
:1041F000F5CF76F075C0F6FF76C0F7FF0800F550F2
:104200000001786F796B02D00001776B00D012004B
:10421000D9CFE6FFE1CFD9FF020EE1260D01386BC1
:10422000396B30511F0B020A12E0030A0DE0010A3C
:1042300001E042D00001778F0D0138810001830534
:1042400002E10D01388338D00001778F35D00001AD
:10425000778F0D0134BF10D034510F0BE96EEA6A2D
:10426000D890E936EA36670EE926000EEA22EECF4C
:10427000DEFFEDCFDDFF0FD034510F0BE96EEA6AA0
:10428000D890E936EA366D0EE926000EEA22EECF26
:10429000DEFFEDCFDDFFDECFE9FFDDCFEAFFEF5040
:1042A000800B09E0DECFE9FFDDCFEAFFEF50040B22
:1042B00002E0010E386F00D0000177AF07D0380E52
:1042C000756F0D0E766F7781020E786F020EE15CCE
:1042D00002E2E16AE552E16EE552E7CFD9FF120052
:1042E0000F0126A115D063C0E9FF64C0EAFFEF50BB
:1042F00080080DE16DC0E9FF6EC0EAFFEF50840851
:1043000006E163C0E9FF64C0EAFF8C0EEF6E269100
:10431000629A12000F013685629865820001010ED3
:10432000846F000EE66EE66AE66EE66A750EE66E6D
:10433000E66A1BEC26F00B6E060EE15E0B501200D7
:104340000001846B000EE66EE66AE66EE66A740EA5
:10435000E66EE66A1BEC26F00B6E060EE15E0B5075
:1043600065920F01369562A402D06294FCD71200C8
:10437000D9CFE6FFE1CFD9FFE65200012D0E8E6FB7
:10438000FD0E851553E17E0E8515E8407F0B040D6B
:10439000F3CF63F0F4CF64F0000E63270D0E6423B7
:1043A00063C065F064C066F0657563C0E9FF64C012
:1043B000EAFFEF503C0BE842E8420D0835E1DF6AC6
:1043C000080EDF5C23E263C0E9FF64C0EAFF020E6F
:1043D000E926000EEA22EE50EFCFEAFFE96EEF5039
:1043E000E66EDF50EA6A300FE96E0D0EEA22E55202
:1043F000E750EF6E63C0E9FF64C0EAFF020EE926F2
:10440000000EEA22EE2AEF22DF2ADAD763C0E9FFA4
:1044100064C0EAFF020EE926000EEA22300EEE6EBC
:104420000D0EED6E0DD801D03AD805D0FD0E8515D4
:10443000040801E159D8E552E552E7CFD9FF12004F
:104440000001736B8F6B926B936B876B746B6DC09A
:10445000E9FF6EC0EAFFEF9E6D756DC0E9FF6EC0AB
:10446000EAFFEF9E6D7565C0E9FF66C0EAFFEF9E4B
:10447000776B786B796B7C6B7D6B7E6B92D8000E63
:10448000E66EE66AE66EE66A030EE66EE66A1BEC28
:1044900026F00B6E060EE15E0B50D2EF1EF0020E00
:1044A0000001745D02E141DD1ED0746B87511AE199
:1044B00065C0E9FF66C0EAFFEE52080EEF6E65C008
:1044C000E9FF66C0EAFF020EE926000EEA22300E7E
:1044D000EE6E0D0EED6E65C0E9FF66C0EAFF8C0E54
:1044E000EF6E01D0876B1200D9CFE6FFE1CFD9FF85
:1044F000E6526DC0E9FF6EC0EAFFEF50400B01E0ED
:10450000010EDF6E00016D75080E605D0CE132CDAD
:1045100038FF0F01385104E00001100E606F03D026
:104520000001040E606F740528E16DC0E9FF6EC0E4
:10453000EAFF020EE926000EEA22380EEE6E0D0E9C
:10454000ED6E91DC020E0001735D07E16DC0E9FFC5
:104550006EC0EAFF840EEF6E0FD0DF5007E16DC032
:10456000E9FF6EC0EAFFC80EEF6E06D06DC0E9FF2E
:104570006EC0EAFF880EEF6E0FD07CAF0CD07F517B
:10458000801107E005D080C0FAFF00017F51F96E6D
:10459000FADF00017C9F746BE552E552E7CFD9FF4B
:1045A00012000D013051600BE842E842E842E84257
:1045B000E842000901E058D031510C0A54E00B0ADE
:1045C00043E00C0A35E0010A26E00B0A22E0020A69
:1045D00020E0030A1CE0080A10E0010A0CE00F0AC0
:1045E00008E0030A01E03FD00001778F080E606FFA
:1045F0003BD0AEDD39D039DD37D00001610E756FAB
:10460000000E766F7781010E786F778F2DD000DEE8
:104610002BD02BD829D034510001756F766B620EE8
:104620007527000E76237781010E786F778F1CD067
:104630000001778F0D013451EA6A620FE96E000EB6
:10464000EA2232CDEFFF10D0000EE66EE66AE66E8B
:10465000E66A020EE66EE66A1BEC26F00B6E060EAC
:10466000E15E0B5001D000D01200D9CFE6FFE1CFC0
:10467000D9FF050EE1260D01320510E130511F0B67
:1046800000090CE10001778F030E0D01315D04E19B
:104690000001010E836F02D00001836B0D013251C6
:1046A00001E020D130511F0B020801E01BD1345131
:1046B0000F0B000901E116D134510F0B020801E282
:1046C00011D1200E0001605D01E00CD1778F0D014A
:1046D00034BF1AD034510F0BE96EEA6AD890E9362C
:1046E000EA36670EE926000EEA22EECFDEFFEDCFB6
:1046F000DDFF34510F0BEA6A8B0FE96E000EEA22E0
:10470000020EEFCFDBFF19D034510F0BE96EEA6ACE
:10471000D890E936EA366D0EE926000EEA22EECF91
:10472000DEFFEDCFDDFF34510F0BEA6A880FE96E33
:10473000000EEA22020EEFCFDBFFD950020FE96E26
:10474000DACFEAFFEF50010B03E1000EDF9401D056
:10475000DF8434BF10D034510F0BE96EEA6AD89071
:10476000E936EA36670EE926000EEA22DECFEEFFD2
:10477000DDCFEDFF0FD034510F0BE96EEA6AD89010
:10478000E936EA366D0EE926000EEA22DECFEEFFAC
:10479000DDCFEDFF030E315D23E1DECFE9FFDDCF9D
:1047A000EAFFEF50800B13E034BF09D034510F0BF8
:1047B000EA6A8B0FE96E000EEA22EF8208D03451CC
:1047C0000F0BEA6A880FE96E000EEA22EF82840E70
:1047D0000B6EDECFE9FFDDCFEAFF0B50EF1282D088
:1047E000DF74DECFE9FFDDCFEAFFEF50800B1BE087
:1047F000DECFE9FFDDCFEAFFEF9EDECFE9FFDDCFC1
:10480000EAFFEF8C020EE66EE66ADECFE6FFDDCF52
:10481000E6FF050EE66EE66A1BEC26F00B6E060E52
:10482000E15E0B5005D0DECFE9FFDDCFEAFFEF8C74
:10483000DF74D950020FE96EDACFEAFFEF50020BB6
:1048400007E1DECFE9FFDDCFEAFFEF50800B2DE07F
:104850000D0134BF09D034510F0BEA6A8B0FE96E9A
:10486000000EEA22EF9208D034510F0BEA6A880F4B
:10487000E96E000EEA22EF923B0E0B6EDECFE9FFEF
:10488000DDCFEAFF0B50EF16020EE66EE66ADECFD2
:10489000E6FFDDCFE6FF050EE66EE66A1BEC26F0CE
:1048A0000B6E060EE15E0B5008D03B0E0B6EDECF9A
:1048B000E9FFDDCFEAFF0B50EF160D0134510F0B6E
:1048C0000C6A260F0B6E0F0E0C22030E0BC0DBFFC3
:1048D000040E0CC0DBFF030EDBCFE9FF040EDBCFC1
:1048E000EAFFEF90050EE15C02E2E16AE552E16E5B
:0848F000E552E7CFD9FF1200E9
:0848F800DACFE4FFE2CFDAFFA2
:10490000E652E552E5CFDAFF1100D8CFE4FFE0CF61
:10491000E4FFE46EDACFE4FFE2CFDAFFE652E552DD
:10492000E5CFDAFFE550E5CFE0FFE5CFD8FF100097
:1049300005D886EC1BF037D8FCD71200D9CFE6FF9C
:10494000E1CFD9FF020EE1260F0EC112580EDE6E26
:10495000020EDD6E9B8CDFCF0BF0DF06010EDBCF8E
:104960000CF001E2DB060B500C1001E0F4D70F0154
:104970007F0E486FBF0E496F0CD8F6EC1AF0020E8E
:10498000E15C02E2E16AE552E16EE552E7CFD9FF70
:104990001200FC0E8D16961693840001A66BA76B71
:1049A000A86BA96B1200D0D8200E0001E76E601929
:1049B000E8AE02D0E73402D0E750605D03E3655013
:1049C000020B01E001D001D81200D9CFE6FFE1CF00
:1049D000D9FFE6520001AA5104E181B402D0010ED0
:1049E000AA6FA651A71102E1000E08D0A6C0E9FFE8
:1049F000A7C0EAFFEF50800B01E0010E000901E0C3
:104A00009ED0AA0501E07BD0DF6A100EDF5C4FE28A
:104A1000DFCF0BF00C6A0D6A0E6AAB0EE96E000E6A
:104A2000EA6EEE500B26EE500C22EE500D22EE50A8
:104A30000E22380E0B24F66E100E0C20F76E0800B6
:104A4000F550E66EDF50EA6A940FE96E000EEA2236
:104A5000E552E750EF6EDFCF0FF0106A116A126A6D
:104A6000AB510F240B6EAC5110200C6EAD511120C8
:104A70000D6EAE5112200E6E0B2A000E0C220D226E
:104A80000E22380E0B24F66E100E0C20F76E080066
:104A9000F550E66EDF28EA6A940FE96E000EEA220E
:104AA000E552E750EF6E020EDF24DF6EAED7100E38
:104AB000AB27000EAC23AD23AE23B40EAB5D250EA9
:104AC000AC59000EAD59000EAE5905E3AB6BAC6BA3
:104AD000AD6BAE6BAA6B100EE66E940EE66E000E1A
:104AE000E66E010EE66EE66E99EC1CF00B6E050E9E
:104AF000E15E0B50F3CFA6F0F4CFA7F020D0DF6A31
:104B0000100EDF5C09E2DF50EA6A940FE96E000ED6
:104B1000EA22EF6ADF2AF4D7100EE66E940EE66EF4
:104B2000000EE66E010EE66EE66E99EC1CF00B6E62
:104B3000050EE15E0B50F3CFA6F0F4CFA7F0E552DF
:104B4000E552E7CFD9FF12000001AF51B01104E1E7
:104B5000100EAF6F270EB06FAF07000EB05B65A2EF
:104B60000AD0AF51B01106E18D708DA002D08D82B8
:104B700001D08D922ED00001605103E18D908D9275
:104B800028D0600503E18D808D8223D0020E605D08
:104B900003E18D808D921DD0040E605D03E18D9048
:104BA0008D8217D0100E605D07E10001AF51B0118A
:104BB00002E18D708D920DD0200E605D0AE1000142
:104BC000AF51B01106E18D708DA002D08D9201D051
:104BD0008D82120012001200120012001200120048
:104BE0000E0EE66E010EE66E62EC1CF0E552E5522A
:104BF0001200000183051EE1000184051BE1EBDFCB
:104C000065920001846B0001100EA46F0E0EA56F5B
:104C1000A407000EA55BA451A511FAE16584080E56
:104C2000A46F070EA56FA407000EA55BA451A511E4
:104C3000FAE165941200D9CFE6FFE1CFD9FFFD0E6E
:104C4000DBCF06F0FE0EDBCF07F0050E061801E104
:104C5000075039E0E868061802E17F0E071831E0D6
:104C6000030E061801E107502AE0020E061801E1C2
:104C7000075023E0010E061801E107501CE0740EF6
:104C8000061801E1075015E0750E061801E10750FE
:104C90000EE0730E061801E1075007E0720E0618C9
:104CA00001E1075001E010D00FD096DF0DD092DF68
:104CB0000BD091DF09D094DF07D091DF05D08EDFD4
:104CC00003D08BDF01D000D0010E00D0E552E7CF3A
:044CD000D9FF1200F6
:0C4CD4001201100100000008D804650067
:104CE00002000102000109026400020100C0320951
:104CF000040000000101000009240100011E000160
:104D0000010C24020101020001000000000924033B
:104D10000201010001000904010000010200000974
:104D20000401010101020000072401020101000B3E
:104D300024020101021001401F0009058101100039
:104D400001000007250100000000040309043403EA
:104D50004D006900630072006F0063006800690025
:104D60007000200054006500630068006E006F0052
:104D70006C006F0067007900200049006E0063003E
:104D80002E002E0355005300420020004D00690004
:104D9000630072006F00700068006F006E006500B5
:104DA00020004500780061006D0070006C00650017
:084DB000E64C4A4D4E4D824DC8
:084DB8002A0EF66E100EF76ED4
:104DC000000EF86E00010900F550B66F0900F550AD
:104DD000B76F03E1B66701D03DD00900F550B16F60
:104DE0000900F550B26F0900F550B36F09000900D2
:104DF000F550E96E0900F550EA6E09000900090056
:104E0000F550B46F0900F550B56F09000900F6CFF1
:104E1000B8F0F7CFB9F0F8CFBAF0B1C0F6FFB2C032
:104E2000F7FFB3C0F8FF0001B45302E1B55307E048
:104E30000900F550EE6EB407F8E2B507F9D7B8C02F
:104E4000F6FFB9C0F7FFBAC0F8FF0001B607000EC1
:064E5000B75BBFD71200A2
:0A4E5600FE0EE3CFE9FFFF0EE3CFED
:104E6000EAFFE9CFF3FFEACFF4FFFB0EE35003E1E3
:104E7000FC0EE35009E0FB0EE30602E2FC0EE30643
:0A4E8000FD0EE350EE6EF1D71200B4
:064E8A00B00EF36E00EE15
:104E900000F00E0E01D81200EA6002D0EE6AFCD7D4
:0A4EA000F350E9601200EE6AFCD73F
:064EAA001CEE00F02CEEEE
:104EB00000F0F86A0A9CDCEC26F063EC27F098EC32
:064EC00024F0FBD71200F4
:024EC6001200D8
:084EC8000000000000000000E2
:034ED000000000DF
:020000040001F9
:01FFF800BA4E
:01FFF900F710
:01FFFA003DC9
:01FFFB00FF06
:01FFFC0063A1
:01FFFD00FA09
:01FFFE008181
:01FFFF00F908
:00000001FF
