:020000040000FA
:0600000065EF14F0120090
:0600080004EF08F01200F5
:060018000CEF08F01200DD
:0610000065EF14F0120080
:06100800A6EF11F012003A
:06101800F1EF11F01200DF
:06102A000100E8280000AF
:08103000F100000002000000C5
:08103800D9CFE6FFE1CFD9FF9B
:10104000E652A098636A626A0F01266B010EE66E93
:10105000E66AE66A270EE66E0F0EE66E3BEC14F0CB
:101060000B6E050EE15E0B500F01160E396F9F0ED1
:10107000376F7B0E366FDF6ADF500B6E0C6A080E1F
:101080000B5C000E0C5810E2DF50040DF3CFE9FFAB
:10109000F4CFEAFF000EE9260D0EEA22EE6AEE6AB0
:1010A000EE6AEE6ADF2AE8D7658C0F01386B659827
:1010B000659C62A607D062960E01136B186B196BC4
:1010C0001A6BF7D70E01010E2A6F2B6F2C6B2D6B4D
:1010D000206BDF6A020EDF5C26E2EA6ADF34FE0B79
:1010E000EA36E96E0B0EE9260E0EEA22EE6AED6A8A
:1010F000EA6ADF34FE0BEA36E96E070EE9260E0EC9
:10110000EA22EE6AED6ADF50EA6A240FE96E0E0EFB
:10111000EA22EF6ADF50EA6A260FE96E0E0EEA2233
:10112000EF6ADF2AD7D70E01080E0B6F0D0E0C6F7A
:101130000F01160E266F0D01200E026F0D0E036FAC
:10114000080E016F840E006F0E01016B006BE552FB
:10115000E552E7CFD9FF1200D9CFE6FFE1CFD9FFA3
:10116000E6520E01000509E165BA07D0626A0F0177
:10117000368136890E01020E006F6250040B07E0C3
:101180000F013651040B03E06294CAEC0EF065A225
:1011900002D0A1989DD06250010B0AE00F01365198
:1011A000010B06E049DFA0880E01040E006F62907B
:1011B0006250100B07E00F013651100B03E0B4EC46
:1011C0000EF0629862AC1AD00F0136AD0FD0010E4E
:1011D000E66EE66A000EE66EE66A730EE66EE66A94
:1011E00044EC13F00B6E060EE15E0B50629C0E0198
:1011F000285101E02807285101E110DA6250200B44
:1012000006E00F013651200B02E09AEC0EF062501E
:10121000020B14E00F013651020B10E0010EE66ED6
:10122000E66A000EE66EE66AE6687F0EE66E44EC5D
:1012300013F00B6E060EE15E0B50636A040E0E0196
:10124000E76E0019E8AE02D0E73402D0E750005D47
:1012500002E2A1983DD00F0136A739D0DF6A040E13
:10126000DF5C35E262A632D064CF21FE0E0121514F
:10127000780BE842E842E842226F629621B508D036
:101280002251EA6A260FE96E0E0EEA22EF7007D0AD
:101290002251EA6A240FE96E0E0EEA22EF70225103
:1012A00003E1E2EC0EF010D0000EE66EE66A210ECD
:1012B000E66E0E0EE66E720EE66EE66A44EC13F013
:1012C0000B6E060EE15E0B50DF2AC9D700D0A19845
:1012D000E552E552E7CFD9FF1200D9CFE6FFE1CFC3
:1012E000D9FF020EE126FD0EDBA407D0E66AFE0E52
:1012F000DBCFE6FF24DAE552E552FD0EDBA208D093
:10130000010EE66EFE0EDBCFE6FF19DAE552E5527E
:10131000FE0EDB500C6A260F0B6E0F0E0C220BC05C
:10132000DEFF0CC0DDFFDECFE9FFDDCFEAFFFD0E03
:10133000DBCFEFFF020EE15C02E2E16AE552E16E13
:10134000E552E7CFD9FF1200D9CFE6FFE1CFD9FFB1
:10135000020EE126FD0EDB500FE0FE0EEA6ADB34E2
:10136000FE0BEA36E96E0B0EE9260E0EEA22EECFF0
:10137000DEFFEDCFDDFF0ED0FE0EEA6ADB34FE0BA2
:10138000EA36E96E070EE9260E0EEA22EECFDEFF00
:10139000EDCFDDFFD9CFE9FFDACFEAFFEE50ED1058
:1013A00003E1F36AF46A49D0DECFE9FFDDCFEAFF5B
:1013B000020EE926000EEA22FB0EDBCFEEFFFC0E4A
:1013C000DBCFEDFFDECFE9FFDDCFEAFFEE52FA0E15
:1013D000DBCFEFFF400E0B6EDECFE9FFDDCFEAFF84
:1013E0000B50EF16880E0B6EDECFE9FFDDCFEAFF64
:1013F0000B50EF12FD0EDB500CE0FE0EEA6ADB3400
:10140000FE0BEA36E96E0B0EE9260E0EEA22EF74A9
:101410000BD0FE0EEA6ADB34FE0BEA36E96E070EED
:10142000E9260E0EEA22EF74DECF0BF0DDCF0CF0D2
:101430000BC0F3FF0CC0F4FF00D0020EE15C02E22F
:10144000E16AE552E16EE552E7CFD9FF1200D9CF4C
:10145000E6FFE1CFD9FF020EE126FE0EDB5020E1D0
:1014600005CEE9FF06CEEAFFEE52080EEF6E05CE7E
:10147000E9FF06CEEAFF020EE926000EEA22200E60
:10148000EE6E0D0EED6E05CEE9FF06CEEAFF8C0E78
:10149000EF6E0BCEE9FF0CCEEAFF840EEF6E3DD06F
:1014A000FD0EDB50E8240D6EFE0EDB50040DF350F4
:1014B0000D24040DF3CF0BF0F4CF0CF0000E0B262F
:1014C0000D0E0C220BC0DEFF0CC0DDFF840E0B6E78
:1014D000DECFE9FFDDCFEAFF0B50EF12FD0EDB5050
:1014E000E8240D6EFE0EDB50040DF3500D24010FA9
:1014F000040DF3CF0BF0F4CF0CF0000E0B260D0E05
:101500000C220BC0DEFF0CC0DDFF840E0B6EDECFA5
:10151000E9FFDDCFEAFF0B50EF12020EE15C02E2C1
:10152000E16AE552E16EE552E7CFD9FF1200D9CF6B
:10153000E6FFE1CFD9FF65A84ED0FE0EEA6ADB34A4
:10154000FE0BEA36E96E0B0EE9260E0EEA22EE508D
:10155000EFCFEAFFE96E400EEE16EE6AEE6AEE6A33
:10156000FE0EEA6ADB34FE0BEA36E96E0B0EE92664
:101570000E0EEA22EE50EFCFEAFFE96EEE7CFE0E91
:10158000EA6ADB34FE0BEA36E96E0B0EE9260E0E34
:10159000EA22EF74400E0B6EFE0EEA6ADB34FE0B9D
:1015A000EA36E96E0B0EE9260E0EEA22EE50EFCF78
:1015B000EAFFE96E0B50EF16FE0EEA6ADB34FE0B13
:1015C000EA36E96E0B0EE9260E0EEA22EE50EFCF58
:1015D000EAFFE96EEF7CE552E7CFD9FF1200656ABA
:1015E0000F01366B0E01006B00D012000E0100518E
:1015F00014E1656A0F01366B160E396F9F0E376F57
:101600007B0E366FD08EA288A088F28E65B602D08F
:101610006586FCD70E01010E006F12000E012A51E3
:101620004DE1010E2A6F2B5149E1010E2B6F020E85
:10163000105D0DE10BCEE9FF0CCEEAFFEE52EF6A32
:101640000BCEE9FF0CCEEAFFC80EEF6E37D01005C7
:1016500035E1236B03CEE9FF04CEEAFFEE52080E1C
:10166000EF6E03CEE9FF04CEEAFF020EE926000E7C
:10167000EA22200EEE6E0D0EED6E03CEE9FF04CED3
:10168000EAFF840EEF6E010E236F05CEE9FF06CE52
:10169000EAFFEE52080EEF6E05CEE9FF06CEEAFF36
:1016A000020EE926000EEA22200EEE6E0D0EED6E01
:1016B00005CEE9FF06CEEAFF800EEF6E12000E01A6
:1016C0002C6B2D6B020E105D1AE105CEE9FF06CEE4
:1016D000EAFFEE52080EEF6E05CEE9FF06CEEAFFF6
:1016E000020EE926000EEA22280EEE6E0D0EED6EB9
:1016F00005CEE9FF06CEEAFFC80EEF6E1FD01451EB
:101700000D01265D0E0115510D01275904E226CD6C
:1017100014FE27CD15FED1D80BCEE9FF0CCEEAFF83
:10172000020EE926000EEA22280EEE6E0D0EED6E78
:101730000BCEE9FF0CCEEAFFC80EEF6E1200D9CF38
:10174000E6FFE1CFD9FF020EE126000EDE6E0D0EA0
:10175000DD6EFD0EDB50E8240D6EFE0EDB50040D39
:10176000F3500D24040DF3CF0BF0F4CF0CF0D9CFD0
:10177000E9FFDACFEAFF0B50EE260C50ED22DECF68
:10178000E9FFDDCFEAFFEF9EFD0EDB500FE1FE0E1D
:10179000EA6ADB34FE0BEA36E96E070EE9260E0E26
:1017A000EA22DECFEEFFDDCFEDFF0ED0FE0EEA6ABD
:1017B000DB34FE0BEA36E96E0B0EE9260E0EEA224A
:1017C000DECFEEFFDDCFEDFFDECFE9FFDDCFEAFFBD
:1017D000EF9CDECFE9FFDDCFEAFF040EE926000E25
:1017E000EA22EF8C020EE15C02E2E16AE552E16E70
:1017F000E552E7CFD9FF120065980E0113BF2BD039
:1018000018AF09D0020E106F2D5101E158DF0E0103
:101810002B6B2A6B1FD005CEE9FF06CEEAFFEE52F6
:10182000080EEF6E05CEE9FF06CEEAFF020EE926AE
:10183000000EEA22200EEE6E0D0EED6E05CEE9FFD3
:1018400006CEEAFF8C0EEF6E0BCEE9FF0CCEEAFF60
:10185000840EEF6E31D00D0120AF0DD00E01010EC0
:10186000106F2C5101E12BDF0E012B6B2A6B2951DC
:1018700001E1D4DE21D00E01020E106F05CEE9FF8A
:1018800006CEEAFFEE52080EEF6E05CEE9FF06CE59
:10189000EAFF020EE926000EEA22200EEE6E0D0E81
:1018A000ED6E05CEE9FF06CEEAFF840EEF6E2B6BE0
:1018B0002A6B295101E1B2DE1200D9CFE6FFE1CF58
:1018C000D9FFE652080EDF6E0E01145D000E1559A9
:1018D0000BE214CEDFFF0F5103E1010E0F6F04D0B6
:1018E0000F0502E1020E0F6FDF500B6E0C6A0B50FA
:1018F000145D146F0C501559156F0BCEE9FF0CCE0B
:10190000EAFFEE52DFCFEFFF280E1D6F0D0E1E6FA8
:1019100013B119D0DF5016E011CEF6FF12CEF7FF4B
:10192000112B000E12230800F550E66E1DCEE9FFC4
:101930001ECEEAFF1D2B000E1E23E552E750EF6E70
:10194000DF06E8D717D0DF5015E011CEE9FF12CE41
:10195000EAFF112B000E1223EF50E66E1DCEE9FFB9
:101960001ECEEAFF1D2B000E1E23E552E750EF6E40
:10197000DF06E9D7E552E552E7CFD9FF1200D9CF0C
:10198000E6FFE1CFD9FF020EE12603CEE9FF04CE48
:10199000EAFFEE52EFCFDFFFDFCF0BF00B500E016F
:1019A000195D000E1A5902E219CEDFFFDF500B6EEF
:1019B0000C6A0B50195D196F0C501A591A6F010EF1
:1019C000DB6ADF50F36E010EDBCFF4FFF350F45C03
:1019D00016E2010EDB50EA6A280FE96E0D0EEA22CC
:1019E000EF50E66E16CEE9FF17CEEAFF162B000E7B
:1019F0001723E552E750EF6E010EDB2AE2D7000E07
:101A0000D8801955000E1A5528E205CEE9FF06CEFA
:101A1000EAFFEE52080EEF6E05CEE9FF06CEEAFFB2
:101A2000020EE926000EEA22280EEE6E0D0EED6E75
:101A300003CEE9FF04CEEAFFEF50400B07E105CEED
:101A4000E9FF06CEEAFFC80EEF6E06D005CEE9FF2D
:101A500006CEEAFF880EEF6E28D005CEE9FF06CE4F
:101A6000EAFFEE52080EEF6E05CEE9FF06CEEAFF62
:101A7000020EE926000EEA22200EEE6E0D0EED6E2D
:101A800005CEE9FF06CEEAFF840EEF6E1B511C1156
:101A900007E005D01CCEFAFF0E011B51F96EFADFEC
:101AA0000E01189F295101E1B9DD020EE15C02E24D
:101AB000E16AE552E16EE552E7CFD9FF1200D9CFD6
:101AC000E6FFE1CFD9FFE6520E01138F010EE66E5D
:101AD000E66AE66A270EE66E0F0EE66E3BEC14F041
:101AE0000B6E050EE15E0B50200EE66EE66AE66AAE
:101AF000000EE66E0D0EE66E3BEC14F00B6E050E5E
:101B0000E15E0B50658CDF6A020EDF5C10E2DF5095
:101B1000EA6A240FE96E0E0EEA22EF6ADF50EA6AE3
:101B2000260FE96E0E0EEA22EF6ADF2AEDD7010ECC
:101B3000E66EE66AE66A020EE66E0E0EE66E3BECB6
:101B400014F00B6E050EE15E0B50659C0E01080E45
:101B50000B6F0D0E0C6F000E036F0D0E046F03CE96
:101B600005FE04CE06FE22CD01FE015103E1100E5A
:101B7000006F13D0010EE66EE66A010EE66E0E0EE1
:101B8000E66E010EE66EE66A44EC13F00B6E060E8E
:101B9000E15E0B500E01200E006FE552E552E7CFDB
:101BA000D9FF1200800E0D01205D5BE10E01C00E19
:101BB000136F0D012351030A34E0010A0EE0030AFA
:101BC00003E00E01136B4DD00E01260E116F270E90
:101BD000126F120E146F156B44D02251F66EF76A15
:101BE000D890F636F736D00EF626270EF7220900E3
:101BF000F5CF11FE0A00F5CF12FE020E0E01F76AB4
:101C00001125F66E1251F7220800F5CF14FE030ECF
:101C1000F76A1125F66E1251F7220800F5CF15FE6E
:101C200020D0030E225D1AE22251F66EF76AD89098
:101C3000F636F736D20EF626270EF7220900F5CF34
:101C400011FE0A00F5CF12FE11CEF6FF12CEF7FFFD
:101C50000800F5500E01146F156B02D00E01136BC6
:101C600000D01200D9CFE6FFE1CFD9FF020EE12666
:101C70000D01286B296B20511F0B020A12E0030A89
:101C80000DE0010A01E042D00E01138F0D01288101
:101C90000E011F0502E10D01288338D00E01138FBC
:101CA00035D00E01138F0D0124BF10D024510F0B1E
:101CB000E96EEA6AD890E936EA36070EE9260E0E92
:101CC000EA22EECFDEFFEDCFDDFF0FD024510F0B68
:101CD000E96EEA6AD890E936EA360B0EE9260E0E6E
:101CE000EA22EECFDEFFEDCFDDFFDECFE9FFDDCF75
:101CF000EAFFEF50800B09E0DECFE9FFDDCFEAFF1E
:101D0000EF50040B02E0010E286F00D00E0113AF5C
:101D100007D0280E116F0D0E126F1381020E146F73
:101D2000020EE15C02E2E16AE552E16EE552E7CFC4
:101D3000D9FF12000F0126A115D003CEE9FF04CE72
:101D4000EAFFEF5080080DE10BCEE9FF0CCEEAFF71
:101D5000EF50840806E103CEE9FF04CEEAFF8C0EC3
:101D6000EF6E2691629A12000F01368562986582A5
:101D70000E01010E206F000EE66EE66AE66EE66A60
:101D8000750EE66EE66A44EC13F00B6E060EE15E2D
:101D90000B5012000E01206B000EE66EE66AE66E36
:101DA000E66A740EE66EE66A44EC13F00B6E060EFD
:101DB000E15E0B5065920F01369562A402D06294E9
:101DC000FCD71200D9CFE6FFE1CFD9FFE6520E01D2
:101DD0002D0E286FFD0E211553E17E0E2115E840D2
:101DE0007F0B040DF3CF03FEF4CF04FE000E032798
:101DF0000D0E042303CE05FE04CE06FE057503CEAC
:101E0000E9FF04CEEAFFEF503C0BE842E8420D0840
:101E100035E1DF6A080EDF5C23E203CEE9FF04CE82
:101E2000EAFF020EE926000EEA22EE50EFCFEAFFAB
:101E3000E96EEF50E66EDF50EA6A200FE96E0D0E94
:101E4000EA22E552E750EF6E03CEE9FF04CEEAFF47
:101E5000020EE926000EEA22EE2AEF22DF2ADAD766
:101E600003CEE9FF04CEEAFF020EE926000EEA22C5
:101E7000200EEE6E0D0EED6E0DD801D03AD805D0C5
:101E8000FD0E2115040801E159D8E552E552E7CFCE
:101E9000D9FF12000E010F6B296B2C6B2D6B236B7E
:101EA000106B0BCEE9FF0CCEEAFFEF9E0B750BCE4D
:101EB000E9FF0CCEEAFFEF9E0B7505CEE9FF06CEDB
:101EC000EAFFEF9E136B146B156B186B196B1A6B93
:101ED00092D8000EE66EE66AE66EE66A030EE66EDD
:101EE000E66A44EC13F00B6E060EE15E0B50FCEF5D
:101EF0000BF0020E0E01105D02E141DD1ED0106BF1
:101F000023511AE105CEE9FF06CEEAFFEE52080E94
:101F1000EF6E05CEE9FF06CEEAFF020EE926000EBF
:101F2000EA22200EEE6E0D0EED6E05CEE9FF06CE16
:101F3000EAFF8C0EEF6E01D0236B1200D9CFE6FFC3
:101F4000E1CFD9FFE6520BCEE9FF0CCEEAFFEF500E
:101F5000400B01E0010EDF6E0E010B75080E005DF7
:101F60000CE122CD38FF0F01385104E00E01100EB4
:101F7000006F03D00E01040E006F100528E10BCE98
:101F8000E9FF0CCEEAFF020EE926000EEA22280E37
:101F9000EE6E0D0EED6E91DC020E0E010F5D07E18F
:101FA0000BCEE9FF0CCEEAFF840EEF6E0FD0DF50B0
:101FB00007E10BCEE9FF0CCEEAFFC80EEF6E06D0AC
:101FC0000BCEE9FF0CCEEAFF880EEF6E0FD018AFF4
:101FD0000CD01B511C1107E005D01CCEFAFF0E01DE
:101FE0001B51F96EFADF0E01189F106BE552E55296
:101FF000E7CFD9FF12000D012051600BE842E84203
:10200000E842E842E842000901E058D021510C0AB8
:1020100054E00B0A43E00C0A35E0010A26E00B0A03
:1020200022E0020A20E0030A1CE0080A10E0010A8C
:102030000CE00F0A08E0030A01E03FD00E01138F05
:10204000080E006F3BD0AEDD39D039DD37D00E0140
:10205000010E116F0E0E126F1381010E146F138F8C
:102060002DD000DE2BD02BD829D024510E01116F9A
:10207000126B020E11270E0E12231381010E146F24
:10208000138F1CD00E01138F0D012451EA6A020F29
:10209000E96E0E0EEA2222CDEFFF10D0000EE66EA2
:1020A000E66AE66EE66A020EE66EE66A44EC13F055
:1020B0000B6E060EE15E0B5001D000D01200D9CF9E
:1020C000E6FFE1CFD9FF050EE1260D01220510E163
:1020D00020511F0B00090CE10E01138F030E0D019F
:1020E000215D04E10E01010E1F6F02D00E011F6B76
:1020F0000D01225101E020D120511F0B020801E007
:102100001BD124510F0B000901E116D124510F0BF3
:10211000010801E211D1200E0E01005D01E00CD199
:10212000138F0D0124BF1AD024510F0BE96EEA6AF8
:10213000D890E936EA36070EE9260E0EEA22EECFEF
:10214000DEFFEDCFDDFF24510F0BEA6A260FE96EAB
:102150000E0EEA22020EEFCFDBFF19D024510F0B37
:10216000E96EEA6AD890E936EA360B0EE9260E0ED9
:10217000EA22EECFDEFFEDCFDDFF24510F0BEA6A3E
:10218000240FE96E0E0EEA22020EEFCFDBFFD950CC
:10219000020FE96EDACFEAFFEF50010B03E1000E08
:1021A000DF9401D0DF8424BF10D024510F0BE96EDF
:1021B000EA6AD890E936EA36070EE9260E0EEA22D8
:1021C000DECFEEFFDDCFEDFF0FD024510F0BE96E18
:1021D000EA6AD890E936EA360B0EE9260E0EEA22B4
:1021E000DECFEEFFDDCFEDFF030E215D23E1DECF7D
:1021F000E9FFDDCFEAFFEF50800B13E024BF09D0E9
:1022000024510F0BEA6A260FE96E0E0EEA22EF82C6
:1022100008D024510F0BEA6A240FE96E0E0EEA2251
:10222000EF82840E0B6EDECFE9FFDDCFEAFF0B50AD
:10223000EF1282D0DF74DECFE9FFDDCFEAFFEF508F
:10224000800B1BE0DECFE9FFDDCFEAFFEF9EDECFA4
:10225000E9FFDDCFEAFFEF8C020EE66EE66ADECF25
:10226000E6FFDDCFE6FF050EE66EE66A44EC13F00E
:102270000B6E060EE15E0B5005D0DECFE9FFDDCF21
:10228000EAFFEF8CDF74D950020FE96EDACFEAFF74
:10229000EF50020B07E1DECFE9FFDDCFEAFFEF50A1
:1022A000800B2DE00D0124BF09D024510F0BEA6AE9
:1022B000260FE96E0E0EEA22EF9208D024510F0B82
:1022C000EA6A240FE96E0E0EEA22EF923B0E0B6EC5
:1022D000DECFE9FFDDCFEAFF0B50EF16020EE66E10
:1022E000E66ADECFE6FFDDCFE6FF050EE66EE66AC4
:1022F00044EC13F00B6E060EE15E0B5008D03B0E63
:102300000B6EDECFE9FFDDCFEAFF0B50EF160D01BC
:1023100024510F0B0C6A260F0B6E0F0E0C22030EAE
:102320000BC0DBFF040E0CC0DBFF030EDBCFE9FFAD
:10233000040EDBCFEAFFEF90050EE15C02E2E16AFA
:0C234000E552E16EE552E7CFD9FF120034
:04234C00DACFE4FF01
:10235000E2CFDAFFE9CFE4FFEACFE4FFF6CFE4FF14
:10236000F7CFE4FFF5CFE4FFF3CFE4FFF4CFE4FFD2
:10237000FACFE4FF00EE00F00B0EE80403E3EECF2B
:10238000E4FFFBD700EE0BF0030EE80403E3EECF0F
:10239000E4FFFBD7E652ACEC08F0E55200EE0DF09E
:1023A000030EE80403E3E5CFEDFFFBD700EE0AF0F0
:1023B0000B0EE80403E3E5CFEDFFFBD7E5CFFAFF13
:1023C000E5CFF4FFE5CFF3FFE5CFF5FFE5CFF7FF6E
:1023D000E5CFF6FFE5CFEAFFE5CFE9FFE5CFDAFF8E
:1023E0001100D8CFE4FFE0CFE4FFE46EDACFE4FFE2
:1023F000E2CFDAFFE652E552E5CFDAFFE550E5CF6E
:10240000E0FFE5CFD8FF100005D8F6EC0AF038D889
:10241000FED71200D9CFE6FFE1CFD9FF020EE126A9
:102420000F0EC112580EDE6E020EDD6E9B8CDFCFDA
:102430000BF0DF06010EDBCF0CF001E2DB060B50E8
:102440000C1001E0F4D70F01486949690001E16B04
:10245000E26BE36BE46B0CD81CEC08F0020EE15C61
:1024600002E2E16AE552E16EE552E7CFD9FF1200E0
:10247000FC0E8D16961693840001010EE06F12007B
:102480000001E05101E074D8200E0E01E76E001942
:10249000E8AE02D0E73402D0E750005D03E36550B8
:1024A000020B01E064D00001E151E21102E1000EF3
:1024B00008D0E1C0E9FFE2C0EAFFEF50800B01E085
:1024C000010E000954E1A051810A13E0010A01E064
:1024D0003BD0E06B8D50010B0B6E8D50020B01E079
:1024E000010E0B5C03E18D708D7202D08D808D82A8
:1024F0002BD0E351E41102E1000E08D0E3C0E9FF64
:10250000E4C0EAFFEF50800B01E0010E00091BE17F
:10251000810E606F81A403D0010E616F01D0616BE9
:10252000400EE66E600EE66E000EE66E010EE66E82
:10253000E66EA4EC09F00B6E050EE15E0B50F3CFD6
:10254000E3F0F4CFE4F000D0400EE66EA00EE66EAD
:10255000000EE66EE66A010EE66EA4EC09F00B6E64
:10256000050EE15E0B50F3CFE1F0F4CFE2F0120084
:102570000001F151F21104E1100EF16F270EF26F1C
:10258000F107000EF25B65A20AD0F151F21106E1EB
:102590008D708DA002D08D8201D08D922ED00E0133
:1025A000005103E18D908D9228D0000503E18D80CC
:1025B0008D8223D0020E005D03E18D808D921DD0AF
:1025C000040E005D03E18D908D8217D0100E005D2A
:1025D00007E10001F151F21102E18D708D920DD0F1
:1025E000200E005D0AE10001F151F21106E18D704B
:1025F0008DA002D08D9201D08D82120012001200A7
:1026000012001200120012001E0EE66E010EE66E9F
:102610006DEC09F0E552E552400EE66EA00EE66E56
:10262000000EE66EE66A010EE66EA4EC09F00B6E93
:10263000050EE15E0B50F3CFE1F0F4CFE2F01200B3
:102640000E011F0520E10E0120051DE1A098D7DF36
:1026500065920E01206B0001100EE56F0E0EE66F05
:10266000E507000EE65BE551E611FAE16584080E28
:10267000E56F070EE66FE507000EE65BE551E61134
:10268000FAE16594A0881200D9CFE6FFE1CFD9FF27
:10269000FD0EDBCF06F0FE0EDBCF07F0050E0618B1
:1026A00001E1075039E0E868061802E17F0E0718DB
:1026B00031E0030E061801E107502AE0020E061869
:1026C00001E1075023E0010E061801E107501CE06C
:1026D000740E061801E1075015E0750E061801E1A9
:1026E00007500EE0730E061801E1075007E0720E66
:1026F000061801E1075001E010D00FD081DF0DD0A6
:102700007DDF0BD07CDF09D07FDF07D07CDF05D0F9
:1027100079DF03D076DF01D000D0010E00D0E55282
:06272000E7CFD9FF120013
:0A2726001201000200000008D804B0
:10273000040200000102000109022000010100C0A2
:10274000320904000002FFFFFF00070501024000FC
:1027500001070581024000010403090434034D0010
:102760006900630072006F00630068006900700018
:10277000200054006500630068006E006F006C006C
:102780006F0067007900200049006E0063002E0092
:1027900040034D006900630072006F006300680031
:1027A0006900700020004C00690062007500730031
:1027B000620020004500780061006D0070006C0030
:1027C0006500200044006500760069006300650034
:0827D000382758275C279027E9
:0827D8002A0EF66E100EF76EDA
:1027E000000EF86E00010900F550EC6F0900F5507D
:1027F000ED6F03E1EC6701D03DD00900F550E76FC4
:102800000900F550E86F0900F550E96F090009006B
:10281000F550E96E0900F550EA6E0900090009005B
:10282000F550EA6F0900F550EB6F09000900F6CF8B
:10283000EEF0F7CFEFF0F8CFF0F0E7C0F6FFE8C02A
:10284000F7FFE9C0F8FF0001EA5302E1EB5307E0AC
:102850000900F550EE6EEA07F8E2EB07F9D7EEC093
:10286000F6FFEFC0F7FFF0C0F8FF0001EC07000E25
:06287000ED5BBFD7120072
:0A287600FE0EE3CFE9FFFF0EE3CFF3
:10288000EAFFE9CFF3FFEACFF4FFFB0EE35003E1E9
:10289000FC0EE35009E0FB0EE30602E2FC0EE30649
:0A28A000FD0EE350EE6EF1D71200BA
:0628AA00B00EF36E00EE1B
:1028B00000F00E0E01D81200EA6002D0EE6AFCD7DA
:0A28C000F350E9601200EE6AFCD745
:0628CA001CEE00F02CEEF4
:1028D00000F0F86A0A9CECEC13F073EC14F004ECD2
:0628E00012F0FBD712000C
:0228E6001200DE
:0228E8000000EE
:020000040001F9
:01FFF800BA4E
:01FFF900F710
:01FFFA003DC9
:01FFFB00FF06
:01FFFC0063A1
:01FFFD00FA09
:01FFFE008181
:01FFFF00F908
:00000001FF
