:020000040000fa
:080000000002040000000000f2
:020000040000fa
:100400000f0321000eff27000e01880000000000ee
:100410000c000700a0dd2a00010020000f000700eb
:10042000000020000000e000020032000000020096
:100430000000000088050200000000000040da0013
:100440000000fe0080d621000000e0000200320023
:10045000002020009001880000000600a102880012
:10046000800078000000eb001a003700e2804000b6
:1004700054a0b4009101ba00e280400054a0b4003e
:100480009102ba00e280400054a0b4000002eb00e8
:10049000472bde00f507b200a6018800602ce100c2
:1004a00008003a000049eb000201e80002003900b0
:1004b0003420ec0002f0a0008301e900f9ff3e00c7
:1004c000040037006128e100010032000082eb00e7
:1004d000040007001101ba000200e000e3ff3a0047
:1004e0000000060004d0a300e20f49001c00390000
:1004f000810278003549ba000201e80002003900a3
:100500003420ec0002f0a0008301e9000f0032006b
:100510002549ba000201e800020039003420ec004d
:1005200002f0a0008301e900080032000400e000ae
:100530000600320015c9ba000201e80002003900c5
:100540003420ec0002f0a0008301e9008180e80083
:1005500054a0b4000300e000e2ff3a0000000600ef
:100560009102ba00055978008301e900f7ff3200d3
:10057000c82ade00055978008301e900f3ff320044
:100580000400e000f1ff320011d9ba00eeff37009d
:100590003600f800809fbe00829fbe00849fbe0090
:1005a000869fbe003200f8000020200090018800e5
:1005b000a04a2b00cec00200000000000000000096
:1005c0000000000000000000fcff37003600f800cb
:1005d000809fbe00829fbe00849fbe00869fbe009b
:1005e0003200f8000020200090018800e04c2b0031
:1005f000cec002000000000000000000000000006b
:1006000000000000fcff37003600f800809fbe00ad
:10061000829fbe00849fbe00869fbe003200f8000d
:100620000020200090018800a04f2b00cec00200c7
:1006300000000000000000000000000000000000ba
:10064000fcff37003600f800809fbe00829fbe008e
:10065000849fbe00869fbe003200f800002020006c
:100660009001880040522b00cec002000000000024
:10067000000000000000000000000000fcff370048
:100680003600f800809fbe00829fbe00849fbe009f
:10069000869fbe003200f8000020200090018800f4
:1006a000c0542b00cec0020000000000000000007b
:1006b0000000000000000000fcff37000c00fa0002
:1006c0006c805700315a2b000a000900315878001d
:1006d000b000b100f0cd2000f2a102000000000047
:1006e0000040eb003eac02000000000032c92000d8
:1006f0001241780031c72000dfccbf00c2a2020047
:100700000000000011c0b300dfccbf0038a302001e
:100710000000000010c0b3000699020000000000b5
:10072000b1c0b3006c805700569a02000000000070
:1007300000c0eb00fe99020000000000f0c1b30011
:100740001a9a02000000000080c2b300c69a02009c
:100750000000000090798000e00f50000a00320095
:1007600054cd20001442780053c9200062cd2000ef
:100770001241780041c9200091407800dfccbf00d1
:1007800070a3020000000000a2bf020000000000f1
:1007900000c42000f6a7020000000000dfccbf006c
:1007a00002be0200000000000080fa000000060007
:1007b000ea874700881f78008e1f78006c875700f3
:1007c00000afbe000044eb000880fb0000004700c3
:1007d000104078000080fb00ec805700a8920200d7
:1007e000000000006c805700cec002000000000036
:1007f000e34f54000a00320040c102000000000034
:10080000e04f5000fcff3a00e00220008ec10200e1
:10081000000000000844e800e34f5400eaff3600ff
:100820004f0778004f047800af00b10000000600c9
:10083000c0e2a9000040eb0067e7b700e122a90091
:10084000f102a900c4e2a900e522a900f502a9006d
:10085000f08f2f004427b6000000eb00002788002f
:10086000102788002027880030278800402788002c
:100870005027880060278800404e28000019880013
:100880004040200010198800300021002019880005
:100890000002200080198800e862a900d802a800a0
:1008a000000028008011880000402000901188007e
:1008b00030032000c0118800c5c2a800c1c2a90031
:1008c000f502a800f102a900103a8000f00bb20076
:1008d0006204200073052000217420008248780003
:1008e00083487800804878003135800000fc2f0074
:1008f00080806000b100b30031358800a826b600c2
:1009000001348000f40f2c00848060000520220058
:10091000858070000134880081368000808060000e
:100920005100b300813688001136800000806000dd
:100930000030a000103688000036800004026000fd
:10094000007020000002720004368800103a800017
:100950000060a0002174200082487800834878005d
:1009600080487800388d020000000000000006007a
:100970000600fa00889fbe0000047800006780002f
:10098000c0bf9f007109200008007800bc930200de
:1009900000000000d0bf9f0079092000b9bf9f0070
:1009a0006000b8008c8e0200000000006100200092
:1009b0006a805700b68f0200000000000800be00e9
:1009c000b68f0200000000004f04be000080fa0055
:1009d000000006000600fa00889fbe008a1f78000b
:1009e0000044eb00f9c0b3000100370018c0b300a9
:1009f000720920008000eb0000c42000520c0200ad
:100a0000000000006ccca8006ceca800d0c6200050
:100a1000e15a2b000500090031587800c0c52000bc
:100a200031572b000f00090031587800c0c5200055
:100a3000069402000000000030c72000d1572b00b0
:100a40000f000900315878000900780093ecb700d6
:100a5000946cef00020420008000eb0050c92000dd
:100a6000520c020000000000d56cef00710920005c
:100a700000c42000bc930200000000000067880052
:100a8000e04f54000200320000c42000b8ff07000d
:100a9000630020006c8157006000b800fa8d0200ee
:100aa000000000007309200002c420006000200044
:100ab00001002000fa8d020000000000afb897008e
:100ac00070092000808f50000a003a000067800003
:100ad0003fb99700800f510006003a004fbd9700c4
:100ae00000c42000bc93020000000000800f5500ed
:100af00003003200e04f5400bcff3200ffff37001c
:100b00004f0578004f04be000080fa000000060088
:100b100047ff0700dcc1020000000000adff070036
:100b20000ab2020000000000e4fe0700f6c1020065
:100b30000000000032678000436780000200500020
:100b40008380580012a12700820f5000e08f5800c8
:100b50000d003600f6c1020000000000306788007a
:100b60004167880021168000c708de008180ea0006
:100b7000e1806000c708dd00201680000070a10041
:100b8000010070002016880048b20200000000003a
:100b900090798000e00f500002003200e0940200e3
:100ba00000000000e2b302000000000052a90200b1
:100bb000000000006aa9020000000000006280003e
:100bc000116280001267800023678000800f51004f
:100bd000818f5900d5ff3200106788002167880097
:100be000d0582b00cec00200000000000062800040
:100bf00011628000eefe0700005a2b00cec00200fa
:100c000000000000c9ff37001004b10007003500e4
:100c10009001b100040034007000b1000300350001
:100c20009001b10001003c0010000500000005002b
:100c30001002b1000f003500e000b1000c003400dc
:100c4000b000b1000b0035006000b10008003400b6
:100c5000b001b100070035005000b10004003400bd
:100c6000b001b100030035003000b10001003c00cc
:100c700010000500000005006900e10004003500d7
:100c80006d00e100030034000002b10001003200f9
:100c900000000500100005001004b100030035003d
:100ca0009001b10001003c001000050000000500ab
:100cb0000003b1000b0035009000b10008003400c3
:100cc0008000b100070035005000b100040034007e
:100cd000b001b100030035005000b10001003c003c
:100ce0001000050000000500800078001104b1002c
:100cf000030035009101b10001003c000050a0004c
:100d00000000060003f0a200889fbe008a9fbe007c
:100d10008c1f780022010700290133006450e10094
:100d20004f0032006420e1005200320003826c0068
:100d300007003b000905d0000306d000820f5400d5
:100d40000c065d00020039000200320089017800c3
:100d5000030678008582550004003d000003fd0075
:100d60008103fd008502ea008b854200840f72003a
:100d700002003b0060001000e08018006011b80025
:100d80000005eb007a28e1000a003900060078002f
:100d9000c75ddd00f707b200878075002d003700c2
:100da000828171000a017800610560008180d100b4
:100db0000080d3008502e900f9ff3b0006044000f3
:100dc0008784480002003b0060041400e0841c009b
:100dd0000988a300070032008a81710082817100b6
:100de000610164008904d1000884d3008b05e80008
:100df000170037000978a30013003a000b00e00049
:100e0000130034008b05e9000804440089844c0079
:100e10000a4474000978a3000d003a000b00e000ba
:100e2000070034008b05e9000804440089844c0065
:100e300001003a000b0020000978a300f7ff320000
:100e40000001eb0002003700828171000a01780086
:100e5000980007000cf0a70001f0a000e1003700a7
:100e60006420e10002003a00838f6c00e10033004f
:100e70000801be000200be00da003700889fbe00f5
:100e80008a9fbe008c1f7800c5000700cc0033008d
:100e900003866c006450e1002e0032006420e10003
:100ea000330032006150e1002f0032006120e10088
:100eb0003100320085855500eb07b00009002000a5
:100ec00008042000050037000804440089844c0011
:100ed0000a0031000603430087834b0000015300e2
:100ee00081815b00f8ff33000203be000800a00010
:100ef0000804440089844c00f6ff3900c639dd003f
:100f00008301730001003200130020008904d10026
:100f10000884d3000998a300050032000800a70048
:100f20000300a0008904d1000884d3008b05e800e9
:100f30008904d1000884d3000001eb000281d200b3
:100f40005c00070001f0a1000cf0a70001f0a00078
:100f5000a40037006420e100a60032000801be00b2
:100f60000200be00f7ff37006120e100a10032005f
:100f70006000b800f3ff37000000200001f82700f0
:100f8000f0ff3700839f68000100e00002003d0091
:100f900060001000e08018000300e00002003d0047
:100fa00060011100e0811900c90007004f00e00056
:100fb00002003b0060001000e08018000000060006
:100fc000f4ff2f00d50137000001be005f000700cd
:100fd0000470a70003f0a10003f8a30013003a0077
:100fe0006509b10010003200090035006928e100f0
:100ff000020035000100280000000500000040004c
:10100000818048008502e900fcff3a0000000600ec
:10101000f88f4200050035008100d1000080d30028
:101020008502e800fcff3a00000006008000eb00ab
:1010300000000500889fbe008a9fbe000105780061
:101040000000e000180032000004be006011b8008b
:101050006b0920000982cf00020039000882cf000e
:101060000441b000694252000e00320008003b000b
:1010700082817100610164008904d1000884d30079
:101080008b05e8000442e800f9ff3a00050037004c
:101090000804440089844c008b05e9000442e900ff
:1010a000fbff3a00030007004f05be004f04be00df
:1010b0000000060081002000618055000b003d000b
:1010c0000b00200061fe2f000100e1001d00340034
:1010d00082817100610164008904d1000884d30019
:1010e0000000e800faff3a0071002000610064008f
:1010f0000300700002006000090032006104440037
:10110000e0844c000988a500050032008b05e8004a
:101110006808e10002003a008904d1000884d30085
:10112000f20f20000258e10005003d00c75ddd0020
:10113000f907b200898075000800780000000600f9
:101140000bf827008b00780000000500c70ade00be
:10115000f107b200f50fb20008003200e1cf420003
:10116000020032000170a00024000500810f700011
:10117000010032000408050044000500810f7000e2
:1011800002003a00140005008502e900000040005a
:1011900081c04800fcff3b000170a0002400050056
:1011a0000004be00e9ff07000003be000405be0006
:1011b0000200be00e5ff0700844f75000000060036
:1011c0000200be006450e100050036006420e1002a
:1011d000020036000968a30001003a000800be00c2
:1011e0000160a0004f0678004f05be004f04be000e
:1011f00000000600f0ff2f00f1ff2700f9ff370085
:10120000889fbe008a9fbe008c1f7800e4ff070005
:10121000ebff330003866c006450e10024003200d1
:101220006420e100270032006150e100220032001a
:101230006120e100210032008b854200eb07b10004
:101240000134b800003ab8000804420089844a001a
:10125000013ab8000030b8008880400009014a0017
:101260000400330000004000818048000201490072
:101270008b05e900c909dd0083017000010032001f
:1012800013002000c814de004814dd004709de000a
:101290001200b200c808de000884700085ff070055
:1012a00001f0a1000cf0a70001f0a000cdff370075
:1012b0006120e100cfff32000801be000200be0045
:1012c000f7ff37006150e100fcff3a00c9ff37002b
:1012d0006022b800060220000000d0008180d20009
:1012e0000482d2008582d2000000a00002025200d7
:1012f00083825a00030031000202420083824a00c6
:101300000000a1000603e900f3ff3a000000060018
:10131000efff07000400be0000000600020ab9004b
:10132000001bb9000200b8008100420081004300a8
:1013300000000600889fbe008a9fbe003004be00e9
:101340002005be000404440085844c0006054d00c1
:1013500087854d000898be000a90be000440e10059
:1013600005c8e10006d0e10007d8e1000200310025
:10137000680040001008e8004f05be004f04be00a2
:1013800000000600889fbe008a9fbe008c1f780068
:10139000000678003c04be002c05be00040054008a
:1013a00085805c0006015d0087815d00009ebe00b7
:1013b000029ebe00100020000440e10005c8e100cc
:1013c00006d0e10007d8e100010039000000eb0081
:1013d0001c0e10004f0678004f05be004f04be00e3
:1013e000000006001200fa00889fbe008a9fbe001f
:1013f0008c9fbe000205be000004be00e4b79f0043
:10140000f5b79f0086bf9f0097bf9f000000eb00cd
:10141000d0b79f00c0b79f00b0b79f00a0b79f0094
:1014200090b79f0000067800fd032000dfb1970011
:101430004fb0970003814100bfb09700e08f51008b
:1014400004003d00290007007e805700b9ff070017
:1014500003003700250007007e805700c9ff070002
:10146000dfb09700e08f5000070035001400200027
:10147000050020006033b8000804720089847200ff
:101480000a0573008b8573000c06e8008d0f56006b
:10149000e6ff3400e08f500006003d006fb2970079
:1014a000ffb297000fbb97009fbb97007e8057004d
:1014b000a0ff07005fa89700e00f500004003a006b
:1014c0001fb49700afb497003fb59700cfb5970012
:1014d0000800be000a01be004f06be004f05be0058
:1014e0004f04be000080fa0000000600cf01de00bd
:1014f00002817100b2b79f004f09de00000040007a
:1015000000007100a0b79f000fb097004f01de00f0
:10151000818040008100710091b79f007faa9700f1
:10152000cf20de00000040000080700080b79f00e8
:101530000800be000a01be004f18de00040242008f
:1015400000027200f4af9f000804440089844c003c
:101550000a054d008b854d004fb29700dfb2970012
:101560006fb39700ffb3970000000600881f780054
:1015700018002000881f78009aff07008f87e90075
:101580004f04780000000600801feb0095ff070065
:101590008f87e90000000600889fbe008a9fbe007a
:1015a0008c1f7800e00f5000e08f5800e00f5900ca
:1015b000e08f59000f003d006044b8006055b8004e
:1015c0000000540081805c0002015d0083815d00a9
:1015d0001c0020000820e10009a8e1000ab0e10099
:1015e0000bb8e1000d003d00190007000006eb00fc
:1015f0000a0037000006eb00e00f5200e08f5a00af
:10160000e00f5b00e08f5b0004003d006044b80029
:101610006055b8000e0007001c002000d3ff070033
:10162000e00f5600060032006022b8006033b800b8
:101630000000520081805a0002015b0083815b0040
:101640004f0678004f05be004f04be0000000600a4
:101650000402540085825c0006035d0087835d0000
:1016600000000600889fbe008a9fbe008c1f780085
:10167000e00f5000e08f5800e00f5900e08f590054
:101680000d003d006044b8006055b80000005400f3
:1016900081805c0002015d0083815d001c002000f0
:1016a0000820e10009a8e1000ab0e1000bb8e10060
:1016b0000d003d00080037000006eb00e00f52006f
:1016c000e08f5a00e00f5b00e08f5b0006003d00fa
:1016d0006044b8006055b8000402540085825c0084
:1016e00006035d0087835d00a7ff0700e00f56003b
:1016f000060032006022b8006033b80000005200db
:1017000081805a0002015b0083815b004f067800f4
:101710004f05be004f04be0000000600889fbe00bb
:101720008a9fbe00841f78009dfe07004f0078004e
:1017300011003300f0ff2f00838f6c0006003b0088
:10174000040565000a00a7000800370009f0a6009c
:101750001000200008003700820f5400838f5c00c7
:10176000030039001000200001003e0000002000ae
:1017700009f0a7000000ea004f05be004f04be00bc
:101780000000e0000000060002c2b30001003700c4
:101790000000e8009040780082cf5000fcff32004b
:1017a000e9cf5000faff3200d2c2b30082cf50001e
:1017b00003003a000000e80012c0b3000500370043
:1017c0000041eb00b3c2b30083cf500001003a00e8
:1017d0000000e8008000eb00050037006a0ab9004d
:1017e00001fd2f0084804000838040000000e8005d
:1017f0009001fb0004fd2f0003024200e90f52009c
:10180000f6ff3600e04f5100010032008100ea008f
:101810000100780000000600e68747008e1f780070
:10182000d0bf9f0066875700012f78000e00370059
:10183000dfb99700134178006fb8970090407800a7
:10184000814f5100040032000280fb008180fb00c8
:1018500001005000080037008301e800d3bf9f005b
:10186000000fe800040178000202e900e00f5100d7
:10187000efff3a00020078004f0778006f00b100d8
:10188000000006008001780002003700b15978009e
:10189000040178000202e900e00f5100fbff3a006a
:1018a00000000600800178000200370081597800ae
:1018b000040178000202e900e00f5100fbff3a004a
:1018c0000000060010417800814f510005003200f1
:1018d000e04f5100020032000000e800f9ff37003d
:1018e0000000eb00000006009041780031c151007b
:1018f00004003a00e0cf5100020032000000e8008e
:10190000f9ff37000200fb000000060080017800ac
:101910003141780082597800e04f5100fcff3a00d5
:1019200000000600800078000041eb00b14f11007c
:10193000fdff3a000080ea00008040000000060041
:1019400080017800060037000201e90011427800aa
:1019500084597800e04f5200060032008100e80010
:10196000e00f5100f8ff3a00020037008059eb0009
:10197000010178008200e900e00f5100fbff3a000e
:10198000000006000c00fa00a0bf9f00c0bf9f002f
:10199000e4ff0700b0bf9f00f0bf9f00100c2000c5
:1019a000d0bf9f0074815700efb097006c80570044
:1019b000340007000080fa0000000600881f78004d
:1019c000708180009105070000047800080078000d
:1019d000a9fc0700e00f5000f9ff3a00e10f4400b6
:1019e0000300320071818000080078004d06070076
:1019f0004f04780000000600889fbe008a1f780010
:101a000000047800814478000205780000fd2f0072
:101a100008004000e90f500002003e00000478007a
:101a200010003700080078009bfc0700e00f500012
:101a300005003200e00f5500030032000800780076
:101a4000a9fc070000047800080078006efc07007d
:101a50008000780000c0eb00e08f500006003200ec
:101a60007805b1008984fb0000c0eb00890f5400a9
:101a700001003d00084078004f0578004f04be008b
:101a800000000600f2874700889fbe008a9fbe00c4
:101a90008c9fbe008e1f780080017800e1b79f0008
:101aa000d2b79f00738188000000eb00b0b79f00a1
:101ab00080407800e1ef9f005b0137006fb0970036
:101ac0000000e800e0b79f000885fb000a007800ee
:101ad00069fc0700e00f500002003200b7ff07006a
:101ae0005101370051c2b300814f54003f013a0009
:101af00021c0b300004778006fb29700014578001d
:101b000084067800040037002ac0b30001003700c3
:101b10004ac0b3000d0278003d44780081c6b3008e
:101b2000814f5400f8ff320015003e00f0c0500015
:101b3000814f54002f0032000a003e00ecc05000dc
:101b4000814f54002700320086003e00e04f5400d1
:101b5000bb003200a1c2b300814f540081003a00a3
:101b60001e00370031c6b300814f540060003200c0
:101b70008140e800814f54007a003a008d00370020
:101b800031c7b300814f54002100320007003e00ee
:101b9000e7c05000814f540012003200e3c0400003
:101ba000814f54006f003a008700370051c7b300df
:101bb000814f54007f003200e3c04000814f540049
:101bc00068003a00cae79f0000467800edb79f0022
:101bd0000000eb00b0b79f000b0037000e47e80095
:101be000ccff3700e24f5500c9ff32008ac0b30076
:101bf000c8ff3700cae79f0000467800edb79f0096
:101c000011002000b1b79f000dc1b3007200370072
:101c100000467800edb79f0068ff0700e04f5700cf
:101c200004003a005fb09700c0007800d0b79f0072
:101c3000c1b79f0070818000f404070000047800a1
:101c4000e10f440014003a0008007800f200370069
:101c5000efb097001100fb00800f540005003a0020
:101c60000a007800c0b79f008100e800e1b79f003c
:101c700017003700e04f570001003a00085d780078
:101c80000c46e9000d00320070818000df0407007f
:101c900000047800010037004fb597000800e80005
:101ca000e10f50000800360008007800f2fb070042
:101cb000e00f5000e6ff3200030037000a00780012
:101cc000c0b79f00020037008a007800c1b79f00ac
:101cd000e04f5700d4003a006fe897000040e8005a
:101ce000e0ef9f00cfb097008e487800ce0037001d
:101cf00000467800edb79f00e04f570008003a001b
:101d00006fe897000040e800e0ef9f00dfb0970029
:101d100041007800d1b79f0000047800010037002f
:101d20004fb4970070818000b804070080007800ed
:101d3000e18f400002003a0001007800b600370051
:101d4000e04f570001003a00015c78000c46e900c2
:101d50004240a900f3ff3c0008007800c0b79f0094
:101d6000b10037000884fb0000fd2f000800400090
:101d7000e90f500009003e000400780082fe0700d1
:101d8000010037008d06e8009d00fb000103b10053
:101d9000e98f5000fbff36005eff3700edb79f0074
:101da0007081800099040700800f540095003a006c
:101db0009d003700cae79f0000467800edb79f00fe
:101dc000adc0b30004003700cae79f0000467800aa
:101dd000edb79f008dc0b300f8fe07007081800052
:101de0008a040700000278000040eb00b0e79f0083
:101df000d3022000830f520005003a00708180005a
:101e0000820407000002780011c0b300b1e79f0010
:101e10003fb197008d4078000400780084bf9f0098
:101e2000f5fe0700804178000fba9700e1cf41002e
:101e30000e003a0071818000040078003905070027
:101e40006fe89700e04f50000200320080407800b9
:101e50007a003700708180003000900070006000d0
:101e6000770032000080eb0075003700030320008c
:101e7000830f520019003a0070818000630407004c
:101e80000002780083072000830f520004003a000c
:101e90003fb09700e00f5000070032000a00370003
:101ea00083052000830f520007003a00bfb097005f
:101eb000e08f50000400320070818000530407005e
:101ec000000278000500370071818000040078006e
:101ed00084bf9f00130507000fba97006044b80045
:101ee0000d85fb000b0020000e407800a0e79f004e
:101ef000040778000a01be000800be0007fd0700c5
:101f00000004be003fb197008d4078000e007800bd
:101f1000b9fe0700004378000683fb00070020009d
:101f20000604440087844c000c46e9000a00320095
:101f30007081800035040700000778003fb19700ea
:101f40008d4078000e007800abfe070080417800dd
:101f5000e1cf4100e7ff3a000e0278002fe797003b
:101f60003fb197008d4078000400780084bf9f0047
:101f7000a1fe0700804078000fba9700e1cf400033
:101f800003003a007181800004007800e504070036
:101f9000bfe09700e0cf5000020032006004140060
:101fa000e0841c00e04f57001f003a006fe89700e4
:101fb0000040e800e0ef9f00dfb097000180e900fb
:101fc000cfe09700e4cf500004003a00d0b79f0064
:101fd000900078008888be0013003700d0b79f00bb
:101fe00090007800880878000f003700708180002a
:101ff0000604070080007800810f55000a003200b7
:1020000001007800e10f4000030032007181800080
:10201000c404070008003700efe89700e0cf500045
:1020200006003a00060037006fb0970010447800b1
:10203000e04f5400a1fe3a00efe897000180fb005a
:102040004f0778004f06be004f05be004f04be008c
:102050002f01b100000006000c00fa00889fbe00ae
:1020600000047800f0ff2700d0bf9f008004eb0041
:1020700099bf9f0088bf9f00a8bf9f00200c200031
:10208000b0bf9f0078815700cfb097007080570095
:10209000070007000fb89700094878008fb897002d
:1020a000088050004f04be000080fa0000000600c7
:1020b0000f04b000889fbe008a9fbe008c9fbe00a8
:1020c0008e1f7800c0b79f00d1af9f00a2b79f00be
:1020d0000000eb00c0033700dfa897008100e80094
:1020e000d1af9f0052c2b30082cf520006003a0027
:1020f0000007eb0006c3b30003c2b300b1c2b300d4
:102100005fa8970014003700cfb19700330190000b
:102110000204b20005003200030278009401780046
:1021200085497800030ae800070037000501fb0035
:10213000cfb0970002007800350407000001780056
:10214000e10f4100a5033200bfb297008502e8000d
:10215000b5b79f00a103370090427800d7c2b30003
:1021600087cf52000b0032000001e80087cf5200f9
:1021700005003c0083cf52000900320081cf52009d
:102180000e003a000800370086cf52000b003a00dc
:10219000070037000e30a0000000e800eeff370017
:1021a0000e00a000030037000e10a0000100370051
:1021b0000e20a00002007800e7ff3700d0af9f009c
:1021c000e2016700010032000e00a100e801670093
:1021d000010032000e20a1008501fb000303b100c5
:1021e000e98f51000d003e00000020005fa997001c
:1021f0006a00b9000003b1009200fb00010040003a
:10220000d200fb000103b100e98f5000f8ff360057
:10221000c0af9f00d2af9f000c0037008004eb00de
:10222000c9af9f00a3c2b30083cf520007003a009a
:102230002fb59700ca057800aab79f00cbaf9f00c3
:102240005fa897000000e800d0af9f008000eb007f
:10225000e1af9f00e3c2b3005fa9970092cf1100e6
:102260001e003a000ee0a000e4c151000201e800a7
:10227000d2af9f0012427800834f52000d003a0007
:10228000afb2970045037800a5b79f00e6af9f0067
:10229000820378008703e800070178001000370008
:1022a0006a00b9000003b100020040008301e800a9
:1022b000020037006fa89700dfa997001301fb0009
:1022c00001fd2f0082804000e98f5000f4ff3600ae
:1022d000e0af9f0003017800010037005fa997007d
:1022e00032427800c4779f00c8c6b300884f5200be
:1022f00023003200d2af9f000f003c0035c6b30070
:10230000854f5200a700320004003c00e04f52000d
:102310003703320083c5b3000f00370043c6b30054
:10232000834f5200c4003200e5c14100834f520088
:10233000ba003a00c000370035c7b300854f5200dd
:102340001a00320007003c00f3c6b300834f52006e
:10235000110032008341e800834f5200af003a0081
:102360000f00370053c7b300834f5200b100320053
:10237000e3c14100834f5200a8003a000900370032
:10238000700067000100280001003a0001012000f0
:1023900001077700d2ff37000e60a000a6003700cb
:1023a0000e50a0000e70a000a3003700afb497003d
:1023b000c9027800a9b79f00d5b79f00e08f5200ef
:1023c00002003a00abff2000dbb79f000000eb00eb
:1023d000e0b79f005fb09700efb097007fb1970024
:1023e0008fb99700010037008500e800810278006e
:1023f00061427800e04f5200fbff3a00d0b79f00e7
:10240000e1b79f00f2b79f0083bf9f00efaa97003c
:10241000e08f5200050032006fb39700868f5200a4
:102420000200310085037800e7b79f00efb2970004
:102430000006eb004fac9700850f540001003600fa
:1024400005065400680767002f003a008c017800e9
:1024500008c2b300cfb69700100037003d009000cf
:102460000004b200040032001d0078000848780023
:10247000800ee800050037008d0078000002200083
:1024800063030700e10f400003003200bfb4970070
:102490008904e800b9b79f008c0178000c06e900b8
:1024a000e08f5100edff3a00170037003d0090002b
:1024b0000004b200090032009d0178000801780094
:1024c0003240780080497800830ee80002047800ea
:1024d000e04f500008003a00100037000801780073
:1024e0003200fb00020478008d00780048030700ea
:1024f000e10f4000090032003fb097000000e80003
:10250000b0b79f00050037005fb49700efb49700a5
:102510007fb597008fbd9700cfb697000900780070
:102520008004e900e00f5000e0ff3a00d8b79f00b8
:10253000e9b79f00fab79f008bbf9f00e00f5700dd
:10254000a602320011003700380090000004b200eb
:1025500004003200180078000d487800000ce800f4
:1025600005003700880078000002200028030700db
:10257000e10f400003003200bfb297008502e8007f
:10258000b5b79f000e067800020037000dc2b300f9
:102590004fb497000c07e900e00f5600eaff3a003d
:1025a0008e0237002fb3970046047800a6b79f002d
:1025b000cfc4de00090578008a0578000802be0055
:1025c0000a03be004822de004828dd000402700035
:1025d000c4779f007006670009003200e04f520088
:1025e00007003200e14f420005003200d4779f001f
:1025f000e8779f0021002000e1b79f00030037002b
:10260000d8779f0012002000e2b79f0053fb2f00f5
:1026100083814700d3b79f007cff370044fb2f0026
:1026200004824700d4b79f0015002000e5b79f0043
:1026300076ff37000e0cb3000e007800000cb200dd
:102640003b003a00e00f570005003d002fb0970017
:102650004005be004004be00a0b79f000f00370039
:1026600070006700120032002fb297004401be00d4
:10267000a4b79f00e29f9f00f39f9f00140090006b
:102680004f80de0080a79f0090a79f006f9c97005f
:10269000ff9c97000fa597009fa59700d8b79f00b4
:1026a000e9b79f00fab79f008bbf9f000b00370070
:1026b000afb4970049027800a9b79f0004007800e2
:1026c000cf80de000101780082017800d0b79f0042
:1026d000e1b79f00f2b79f0083bf9f005fb29700f2
:1026e000efb297007fb397008fbb9700e00f5200c7
:1026f000e08f5a00e00f5b00e08f5b0032003d008e
:102700003e00b3006022b8006033b8005fb49700a9
:10271000efb497007fb597008fbd97000804520073
:1027200089845a000a055b008b855b002200370014
:10273000e00f570005003d002fb297004401be0096
:102740004400be00a4b79f000f0037007000670070
:10275000120032002fb497004803be00a8b79f00b4
:10276000e6a79f00f7a79f008004eb0089af9f00ba
:102770000005eb009aaf9f006fa09700ffa09700a5
:102780000fa997009fa99700d0b79f00e1b79f00be
:10279000f2b79f0083bf9f000b003700afb09700d8
:1027a00041027800a1b79f000404780009002000ce
:1027b0000a0020000b002000d8b79f00e9b79f0057
:1027c000fab79f008bbf9f00efac9700e08f5400db
:1027d0000d003a001a002000eaaf9f005fb097009a
:1027e000efb097007fb197008fb99700e00f5000ce
:1027f000e08f5800e00f5900e08f590002003200ce
:102800008000eb00e1af9f000e017800020cb200e7
:10281000b2af9f0005042000850f51003f00320039
:1028200003003c00e00f5100080032005600370062
:1028300004082000bfa99700848f51001b003200bc
:10284000040c2000848f51004f003a0013c0b300e5
:10285000c3779f0081f32000100037000200fb00c7
:102860004300dd00008040003002be002003be00b7
:102870005fb49700efb497007fb597008fbd9700c6
:102880000440e10005c8e10006d0e10007d8e100fe
:102890003d0039000241e800c2779f004f71970068
:1028a000f44f5100edff3a003700370013c0b3007a
:1028b000c3779f0004012000050020006033b800aa
:1028c000120037005fb49700efb497007fb5970010
:1028d0008fbd97000440e10005c8e10006d0e1008b
:1028e00007d8e10028003900490020000402d00088
:1028f0008582d2000683d2008783d2008904e90052
:10290000faff3a000040e800c0779f004f70970040
:10291000f04f5000ebff3a001b00370013c0b3002c
:10292000c3779f0084002000050020006033b800ba
:10293000120037005fb49700efb497007fb597009f
:102940008fbd97000440e10005c8e10006d0e1001a
:1029500007d8e1000c003900390020000402d00043
:102960008582d2000683d2008783d2008904e900e1
:10297000faff3a000040e800c0779f004f709700d0
:10298000f54f5000ebff3a004f7597008a02fb00ad
:10299000efad97008b8f520002003d00cb779f0078
:1029a000040037006fa89700850f500001003d001c
:1029b000e5af9f00cfa89700e08f500004003200e1
:1029c00063026700020032008100e900c1af9f008e
:1029d0000400240004026700090032004fa9970098
:1029e000efa99700830f5100030034000301510049
:1029f000c2af9f00020037000002eb00c4af9f008f
:102a00004f7397008602fb008003eb00a7af9f0087
:102a10004fac9700850f540002003400850254002b
:102a2000a5af9f00640267004c003200e20267001d
:102a300061036700e08f52001b003200cfb49700a3
:102a4000390290000404b2000900320099037800b2
:102a5000b5c2b300e00f53000100320085c2e800a8
:102a6000854b78004fb59700070de8000a00370046
:102a7000d5022000e00f530001003a008582e900f2
:102a8000cfb0970005007800e10107000002780050
:102a9000e10f420018003200bfb597008b05e80037
:102aa000bbb79f0014003700e00f53001200320044
:102ab0004fb09700300290000404b20005003200cd
:102ac0009002780003c2b300834a78000508e8004a
:102ad00006003700cfb0970000022000cc010700ad
:102ae00000027800e10f420003003200bfb09700ff
:102af0008100e800b1b79f002fa99700e00f5100b7
:102b00001101320008c3b300820678004fb6970067
:102b10003c0090000004b200040032001c00780069
:102b200008487800000ee800050037008c007800a7
:102b300000032000b6010700e10f4000030032004f
:102b4000bfb197008301e800b3b79f008d06e9008d
:102b5000efff3a00adaf9f00fb0037002faa9700b0
:102b6000e00f5200170032006802670015003a00bb
:102b700008c2b300afae97004fb697003c0090007c
:102b80000004b200040032001c00780008487800fd
:102b9000000ee800050037008c00780000022000dd
:102ba0009b010700e10f400003003200bfb2970015
:102bb0008502e800b5b79f008d06e900efff3a00f7
:102bc000adaf9f00e202670061036700e08f520033
:102bd0001c003200cfb39700370290000404b2000b
:102be0000a0032000704780098037800b5c2b300e9
:102bf000e00f53000100320085c2e800854b7800e9
:102c0000cfb49700870ce8000a003700d5022000f7
:102c1000e00f530001003a008582e900cfb0970031
:102c2000050078007a01070000027800e10f4200f9
:102c3000c50032003fb597000a05e800bab79f000b
:102c4000c1003700e00f5300bf003200cfb597003e
:102c50003b0290000404b200050032009b027800a1
:102c600003c2b300834a7800850de80006003700f0
:102c7000cfb0970000022000650107000002780035
:102c8000e10f4200b00032003fb097000000e800c2
:102c9000b0b79f00ac0037000e07e9000004200029
:102ca000bfa89700808f50008200320003003c00d4
:102cb000e08f5000080032008e003700000820002e
:102cc0003fa99700800f510065003200000c2000e2
:102cd000800f510087003a004370dd00cfa99700b4
:102ce000e08f51002a003d0084f3200000004200e4
:102cf0003004be002005be00e8af9f00f9af9f0082
:102d00008ab79f009bb79f000802be000a03be005f
:102d10005fb09700efb097007fb197008fb9970031
:102d200012fa0700c0779f000004fb00cfc4de004a
:102d3000090578008a0578006faa9700ffaa970016
:102d40000fb397009fb397000800be000a01be00b2
:102d5000600207000203be000002be005fb09700e1
:102d6000efb097007fb197008fb997000400500033
:102d7000858058000601590087815900d0b79f000f
:102d8000e1b79f00f2b79f0083bf9f00300037007c
:102d9000df989700e08f50001f0032005fb6970069
:102da000efb6970082f32000000041003004be001f
:102db0002005be000801be000c00be0044f907005b
:102dc000c0779f000000fb00cf80de000801be003e
:102dd00052f907000002560081825e00a4a79f00fe
:102de000b5a79f008002eb00c5a79f000003eb0082
:102df000d6a79f002fa49700bfa497004fa59700c8
:102e0000dfa59700d8b79f00e9b79f00fab79f00ea
:102e10008bbf9f000e00370089f320006901780006
:102e20005fb59700811f7800110009000285d80066
:102e3000cf007800a2002000811f78001100090057
:102e40000280d80001007800cf007800c0779f0092
:102e5000cf7597000b43b000cb779f00250037005c
:102e600084fd20004f989700e00f500001003a00c9
:102e700094fe20004270dd005fb49700efb497002d
:102e80007fb597008fbd9700800278008502e9002a
:102e9000050033008b05d1000a85d3008984d30057
:102ea0000884d300f9ff37006f00640064407800a5
:102eb0000f0037006370b9005fb49700efb497005c
:102ec0007fb597008fbd9700000278000402e900eb
:102ed000050033008b05d1000a85d3008984d30017
:102ee0000884d300f9ff3700674064000043b00056
:102ef000c0779f00cfb29700350090000004b20069
:102f000007003200150178004f70970000497800e3
:102f1000820ae800e04f500007003a001200370034
:102f20004f7397000600fb00cfb09700b800070072
:102f3000e10f40000c003200bfb397008703e800a8
:102f4000b7b79f000800370070046700d89f9f0044
:102f50008e0478000902b200c99f9f000e05780018
:102f6000caaf9f006faf9700e00f57004aff3a00cb
:102f70004faf97006801670018003200afad9700af
:102f8000e08f55001500340008c2b3008b067800ae
:102f90003fb797004fb697003c0090000004b20086
:102fa000040032001c00780008487800000ee80099
:102fb000050037008c007800000220009400070014
:102fc000e10f4000010032000e07e8008d06e90025
:102fd000f1ff3a000e007800b0b79f00dfa897001d
:102fe00091427800c5779f00e0cf52003afc3a004a
:102ff0003fb097004f0778004f06be004f05be0058
:103000004f04be000f04b10000000600881f7800c6
:103010000004780038009000f1006000e18f50005b
:1030200006003a00800078000120b200080032005b
:1030300098009000e08f50000500320038009000aa
:103040000040a000300498000080eb002000370012
:103050000090a1003004980018009000e00f50008c
:10306000070034000000e900100498009800780080
:10307000114178000280fb00010ce80005003700d8
:10308000380090000004b200ecff3a00080078001d
:1030900011000700b80090000108b2000c003a00cf
:1030a000fa0f500008003a0028009000e00f50008e
:1030b000e2ff3200180090000000e80010049800c1
:1030c000180ce900ddff3700ed0f5000e2ff320081
:1030d0004f047800000006000200fa00889fbe003e
:1030e0008a9fbe00000478000000eb0010049800e6
:1030f000b8009000e18060000080eb0040003200ea
:10310000800221008040eb0090cf10000f003200c1
:10311000290021002b1020004a022000090545004b
:10312000390090002010b2008b0f500002003a00ce
:103130000900780097000700ec8444008a8f54004f
:10314000f7ff3a00800221000048eb005801900090
:10315000e00f51000e003a00120498001200200007
:10316000ea80570048009000f6000700e10f500089
:1031700003003a006ff197000280fb002000370047
:10318000380090000040a000300498001300370081
:10319000a800900048009000ea0007001004980082
:1031a000e00f500003003200e10f40000d003a0034
:1031b00003003700380090000040a00002003700f4
:1031c000380090000003b3003004980028009000fd
:1031d000000c78000000eb00100498000080eb0069
:1031e00007003700a8009000010c78000000e900fb
:1031f00010049800114178000280fb00010ce800e7
:103200004f05be004f04be000080fa00000006001b
:10321000889fbe0001047800b800900062816000c1
:103220008084eb003c003200810178000320b20072
:103230001801900002003a00e00f510036003a00f9
:103240000190a0003104980080047800f90fb200ca
:10325000e00f510002003a0028009000000c7800b6
:10326000ea8f540006003a00010078000008b2001e
:1032700003003a0088007800d0002000e4ff070037
:1032800018009000d8009000810f50000b00320011
:103290000000e80010049800180078000948780041
:1032a000000ce80010c0b3008102210080487800c3
:1032b000ea8f540018003a000500370088007800b3
:1032c000094078005d000700800478001200370094
:1032d000380090000010b2000f003200180190007a
:1032e000a800900048009000cb00070098009000d4
:1032f000810f500004003200380090000003b3003a
:10330000300498008084eb000000eb00100498006b
:1033100028009000000c7800090078004f04be00df
:1033200000000600e10f400019003200310190005a
:103330001220b200e10f510012003a002102900069
:10334000e00f52000f00320011019000d1019000f7
:10335000830f51000d00320091017800848f5100dd
:1033600002003a008308e800020037000201e8008a
:10337000920098001101e900820878000049780065
:10338000000006000080eb00000006000080eb005b
:1033900000000600881f78000004780038009000c4
:1033a000800078001120b200e18f500005003a0043
:1033b0008000eb0011049800a8009000010c780038
:1033c00019003700000178002220b2000000eb0055
:1033d00021202000810f510016003a00a800900023
:1033e000808f50001300320018019000800f5100b0
:1033f00010003200480090008700070098009000fd
:10340000810f500003003200380090000003b30029
:10341000300498000000eb00100498002800900091
:10342000000c7800380090000002b2000100320069
:103430000080eb004f047800000006000200fa0054
:10344000889fbe00a0ff9f00010478003800900014
:10345000800078000104b20033003a00e20060000e
:1034600005003a000003b3003004980011049800ee
:103470000080eb002e003700d8049000e08f54004d
:1034800006003a0012002000e68057004800900035
:10349000610007001904980023003700a80090007d
:1034a000e08f500008003a00b1022100210498008a
:1034b000010c7800210020005104980011049800ac
:1034c0000030a0003004980018019000a80090007f
:1034d0004800900050000700280090008080eb001a
:1034e00011049800aff8970001487800000ce8003c
:1034f0002ff89700ea4f50000b003a003800900078
:103500000010b2000800320018019000a8009000de
:1035100048009000400007000000eb0010049800f5
:10352000a8009000010c7800aff897000100fb00a4
:103530004f04be000080fa000000060000c0da0060
:10354000000006000a00fa00e00f500026003a00d2
:1035500000798000e10f5000060032008023200037
:10356000652320002423200003232000e00f5000c7
:1035700004003a008022200065222000242220003e
:1035800003222000060028009303630002003a0093
:103590000708780093097300020078000c003700d8
:1035a0008301e900940378006183630002003a001c
:1035b000e08f5100faff3a0014037800e101630044
:1035c0000700320095017800835878000000e90078
:1035d000e00f500002003200030a2000f1ff370024
:1035e000000051000800370023002000b3bf9f00f7
:1035f000c0bf9f00d1bf9f00e2bf9f006a805700fd
:10360000ceff07006fb897000080fa0000000600a8
:1036100000c0da00000006000a00fa00e20f5000c5
:1036200021003e0000798000e10f500006003200ca
:103630008523200044232000232320000023200092
:10364000e08f520004003a0085222000442220002e
:10365000232220000022200006002800900363009f
:1036600002003a00870a780010087300004020002a
:103670001300600001003a0013a0a00002007800cf
:1036800006003700930278000510b200fdff3200fb
:10369000b102fb00050a78000000e900e00f5000cd
:1036a000f8ff3a000800370033002000b3bf9f0046
:1036b000c0bf9f00d1bf9f00e2bf9f006a8057003c
:1036c000d3ff07006fb99700020078000080fa006e
:1036d00000000600889fbe008a9fbe008c1f7800f5
:1036e0000006eb00e00f5000e08f5800e00f59009b
:1036f000e08f590007003d006044b8006055b800f5
:103700000000540081805c0002015d0083815d0047
:103710001c002000e00f5200e08f5a00e00f5b0019
:10372000e08f5b0007003d006044b8006055b800c2
:103730000402540085825c0006035d0087835d00ff
:103740000c00a2000c000700e00f5600060032003b
:103750006022b8006033b8000000520081805a0037
:1037600002015b0083815b004f0678004f05be00bd
:103770004f04be0000000600889fbe008a9fbe0066
:103780008c9fbe000404b8000506b80089044600fa
:1037900060854e000606b8000a054600e0854e002a
:1037a0000706b8008b054600040eb80089044600e1
:1037b0000a854e00e0854d00050eb8000a0546005a
:1037c0008b854e00060eb8008b0546000416b80027
:1037d0000a0546008b854e000516b8008b0546008d
:1037e000041eb8008b0546000800be000a01be009a
:1037f0004f06be004f05be004f04be00000006008d
:020000040000fa
:020000040005f5
:0457f400ffec0000c6
:020000040000fa
:020000040005f5
:0457f800ed9b000025
:020000040000fa
:020000040005f5
:0457fc007f3e0000ec
:020000040000fa
:10000800c8020000e602000004030000220300000a
:1000180040030000c8020000c8020000c802000037
:10002800c8020000c8020000c802000050c2000058
:10003800c8020000c8020000c8020000c802000090
:10004800c8020000c8020000c8020000c802000080
:10005800c8020000c8020000c8020000c802000070
:10006800c8020000c8020000c8020000c802000060
:100078003ec50000c8020000c8020000c802000017
:10008800c8020000c8020000c8020000c802000040
:10009800c8020000c8020000c8020000c802000030
:1000a800c8020000c8020000c8020000c802000020
:1000b800c8020000c8020000c8020000c802000010
:1000c800c8020000c8020000c8020000c802000000
:1000d800c8020000c8020000c8020000c8020000f0
:1000e800c8020000c8020000c8020000c8020000e0
:1000f800c8020000c8020000c8020000c8020000d0
:10010800c8020000c8020000c8020000c8020000bf
:10011800c8020000c8020000c8020000c8020000af
:10012800c8020000c8020000c8020000c80200009f
:10013800c8020000c8020000c8020000c80200008f
:10014800c8020000c8020000c8020000c80200007f
:10015800c8020000c8020000c8020000c80200006f
:10016800c8020000c8020000c8020000c80200005f
:10017800c8020000c8020000c8020000c80200004f
:10018800c8020000c8020000c8020000c80200003f
:10019800c8020000c8020000c8020000c80200002f
:1001a800c8020000c8020000c8020000c80200001f
:1001b800c8020000c8020000c8020000c80200000f
:1001c800c8020000c8020000c8020000c8020000ff
:1001d800c8020000c8020000c8020000c8020000ef
:1001e800c8020000c8020000c8020000c8020000df
:0801f800c8020000c80200006b
:020000040000fa
:10020800c8020000e6020000040300002203000008
:1002180040030000c8020000c8020000c802000035
:10022800c8020000c8020000c802000050c2000056
:10023800c8020000c8020000c8020000c80200008e
:10024800c8020000c8020000c8020000c80200007e
:10025800c8020000c8020000c8020000c80200006e
:10026800c8020000c8020000c8020000c80200005e
:100278003ec50000c8020000c8020000c802000015
:10028800c8020000c8020000c8020000c80200003e
:10029800c8020000c8020000c8020000c80200002e
:1002a800c8020000c8020000c8020000c80200001e
:1002b800c8020000c8020000c8020000c80200000e
:1002c800c8020000c8020000c8020000c8020000fe
:1002d800c8020000c8020000c8020000c8020000ee
:1002e800c8020000c8020000c8020000c8020000de
:1002f800c8020000c8020000c8020000c8020000ce
:10030800c8020000c8020000c8020000c8020000bd
:10031800c8020000c8020000c8020000c8020000ad
:10032800c8020000c8020000c8020000c80200009d
:10033800c8020000c8020000c8020000c80200008d
:10034800c8020000c8020000c8020000c80200007d
:10035800c8020000c8020000c8020000c80200006d
:10036800c8020000c8020000c8020000c80200005d
:10037800c8020000c8020000c8020000c80200004d
:10038800c8020000c8020000c8020000c80200003d
:10039800c8020000c8020000c8020000c80200002d
:1003a800c8020000c8020000c8020000c80200001d
:1003b800c8020000c8020000c8020000c80200000d
:1003c800c8020000c8020000c8020000c8020000fd
:1003d800c8020000c8020000c8020000c8020000ed
:1003e800c8020000c8020000c8020000c8020000dd
:0803f800c8020000c802000069
:020000040000fa
:1038000046430000430000000d0a00000045000090
:10381000766500006e7400003a200000436f0000df
:103820006e6e000065630000746900006f6e00003a
:1038300020540000656d0000706f00007261000090
:10384000726900006c790000204c00006f7300006a
:10385000742000002d2d000020650000766500001a
:103860006e740000496e0000666f0000203d00008d
:1038700020000000256400002c200000004500000e
:10388000766500006e7400003a200000436f00006f
:103890006e6e000065630000746900006f6e0000ca
:1038a00020460000616900006c6500006420000093
:1038b000202d00002d20000065760000656e0000c0
:1038c000744900006e6600006f2000003d2000007b
:1038d00000450000766500006e7400003a2000008c
:1038e000436f00006e6e00006563000074690000a5
:1038f0006f6e000020500000657200006d610000d6
:103900006e6500006e7400006c790000204c0000b1
:103910006f730000742000002d2d00002065000052
:10392000766500006e740000496e0000666f00004e
:10393000203d0000200000004d410000433a0000ff
:103940002020000020200000202000002020000077
:103950002020000020200000200000002530000072
:10396000325800002000000053650000637500001d
:1039700072690000747900003a20000020200000e5
:103980002020000020200000200000004f700000d8
:10399000656e00000d0a0000002a00002a2a0000bf
:1039a000205700006946000069200000436f0000b6
:1039b0006e7300006f6c000065200000446500001d
:1039c0006d6f0000202a00002a2a00000d0a000066
:1039d0000053000074610000727400002057000062
:1039e0006946000069200000436f00006e6e000011
:1039f00065630000740d00000a000000446f0000c1
:103a00006d610000696e00003a2000002020000077
:103a100020200000202000002020000020000000c6
:103a200053530000494400003a20000020200000c9
:103a30002020000020200000202000002020000086
:103a400020000000286e00006f6e00006529000055
:103a5000004e000065740000776f0000726b00007c
:103a60002054000079700000653a0000202000001a
:103a700020200000004900006e6600007261000016
:103a800073740000727500006374000075720000aa
:103a9000650d00000a00000053630000616e000025
:103aa0002054000079700000653a000020200000da
:103ab00020200000202000002000000041630000c2
:103ac0007469000076650000205300006361000007
:103ad0006e0d00000a00000043680000616e0000e7
:103ae0006e6500006c2000004c69000073740000db
:103af0003a20000020200000200000002564000083
:103b0000002c0000200000005265000074720000cc
:103b100079200000436f0000756e0000743a0000c9
:103b2000202000002020000020000000526500003e
:103b30007472000079200000466f0000726500007a
:103b400076650000720d00000a000000426500006a
:103b5000616300006f6e000020540000696d00007a
:103b6000656f0000757400003a200000200000001e
:103b7000256400000d0a0000005000006f7700006f
:103b8000657200002053000061760000653a000075
:103b90002020000020200000202000000044000021
:103ba00069730000616200006c650000640d000034
:103bb0000a00000049500000204100006464000039
:103bc00072650000737300003a200000202000009e
:103bd0002020000020000000766900006120000025
:103be00044480000435000000d0a00000057000048
:103bf000462000004153000053450000525400008d
:103c0000494f00004e2000006174000020000000b9
:103c10002573000020200000004c0000696e0000a9
:103c2000652000004e7500006d62000065720000a6
:103c3000203d0000200000004d690000637200007c
:103c40006f6300006869000070440000656d00004b
:103c50006f410000500000004661000074610000e8
:103c60006c20000045720000726f0000723a000084
:103c7000202000004d7500007374000020640000d7
:103c800065660000696e000065200000616e00003e
:103c9000205300005349000044200000666f0000dc
:103ca0007220000074680000697300002063000047
:103cb0006f6e0000666900006775000072610000a9
:103cc000746900006f6e00000d0a0000004e0000d5
:103cd000554c00004c000000574600005f4a0000b1
:103ce0004f4900004e5f000046410000494c000073
:103cf0005552000045000000574600005f4100009b
:103d000055540000484500004e540000494300004f
:103d100041540000494f00004e5f00004641000042
:103d2000494c000055520000450000005746000075
:103d30005f410000535300004f4300004941000021
:103d4000544900004f4e00005f460000414900000a
:103d50004c5500005245000000570000465f00002f
:103d600057450000505f0000484100004e440000ed
:103d700053480000414b0000455f000046410000f1
:103d8000494c000055520000450000005746000015
:103d90005f500000534b00005f430000414c0000a7
:103da000435500004c410000544900004f4e0000b4
:103db0005f460000414900004c550000524500009c
:103dc00000570000465f0000505300004b5f0000aa
:103dd000484100004e44000053480000414b0000a1
:103de000455f000046410000494c0000555200006c
:103df00045000000574600005f41000044480000b5
:103e00004f4300005f4a00004f4900004e5f000032
:103e100046410000494c000055520000450000009a
:103e2000574600005f530000454300005552000014
:103e300049540000595f00004d490000534d0000f7
:103e400041540000434800005f4600004149000023
:103e50004c5500005245000000570000465f00002e
:103e60004e4f00005f5300005549000054410000d0
:103e7000424c0000455f0000415000005f460000da
:103e80004f5500004e4400005f46000041490000cd
:103e90004c5500005245000000570000465f0000ee
:103ea0005245000054520000595f0000464f000088
:103eb0005245000056450000525f00004e4f000082
:103ec000545f000053550000505000004f52000056
:103ed00054450000445f000046410000494c00008a
:103ee0005552000045000000574600005f4c00009e
:103ef000494e00004b5f00004c4f0000535400003f
:103f000000000000574600005f520000534e0000c2
:103f10005f4d000049580000454400005f4d00001f
:103f20004f440000455f00004e4f0000545f00000a
:103f300053550000505000004f52000054450000ff
:103f400044000000574600005f5200004543000057
:103f5000565f0000444500004155000054480000f1
:103f600000570000465f0000524500004356000025
:103f70005f4400004953000041530000534f0000cc
:103f800043000000574600005f57000050530000f8
:103f90005f460000414900004c55000052450000ba
:103fa00000570000465f000050320000505f0000e4
:103fb00046410000494c00005552000045000000f9
:103fc000574600005f4c0000494e00004b5f000068
:103fd000444f0000574e0000004100007373000082
:103fe0006f63000069610000746900006f6e00007b
:103ff00020460000616900006c75000072650000d9
:1040000000570000465f00004245000041430000a9
:104010004f4e00005f540000494d0000454f000026
:104020005554000000570000465f00004445000062
:1040300041550000544800005f5200004543000015
:104040004549000056450000440000005746000066
:104050005f4400004953000041530000534f0000eb
:104060004349000041540000455f000052450000f4
:104070004345000049560000454400000057000039
:10408000465f0000544b0000495000005f4d0000a7
:10409000494300005f460000414900004c550000c4
:1040a00052450000004d0000616900006e440000b0
:1040b000656d00006f2e0000630000005746000091
:1040c0005f4300006f6e000066690000672e00000d
:1040d00063000000574600005f450000696e000065
:1040e000742e000063000000574600005f5300007c
:1040f000706900002e63000000570000464d00006c
:10410000616300002e63000000570000465000006d
:1041100061720000616d00004d730000672e0000a9
:104120006300000057460000436f00006e6e000001
:1041300065630000746900006f6e0000507200003b
:104140006f660000696c0000652e000063000000cf
:1041500057460000436f00006e6e0000656300006c
:10416000746900006f6e0000416c0000676f000012
:1041700072690000746800006d2e0000630000008a
:1041800057460000436f00006e6e0000656300003c
:10419000746900006f6e00004d6100006e610000e8
:1041a00067650000722e00006300000057460000a3
:1041b000447200006976000065720000436f0000e1
:1041c0006d2e00006300000057460000496e00009d
:1041d000697400002e630000005700004644000090
:1041e000726900007665000072520000617700007d
:1041f0002e63000000570000464d0000676d000070
:10420000744d0000736700002e630000005700002b
:10421000464d0000676d0000744d0000736700009c
:1042200054650000737400002e6300000057000006
:1042300046540000785000006f770000657200005f
:104240002e63000000570000465000006f7700000a
:104250006572000053610000766500002e63000067
:104260000057000046450000766500006e740000af
:10427000486100006e6400006c650000722e000052
:10428000630000005746000053630000616e0000a9
:104290002e630000005700004644000061740000d7
:1042a000615400007852000078000000497000005e
:1042b0006572000066410000707000002e6300000f
:1042c00000570000464800006f7300007442000071
:1042d0007269000064670000652e00006300000042
:1042e000574600005f6900007065000072660000bc
:1042f000436c0000696500006e7400002e630000ce
:1043000000570000465f0000697000006572000001
:10431000665300006572000076650000722e000092
:1043200063000000574600005f69000070650000f0
:1043300072660000436f00006d6d00006f6e00003c
:104340002e630000000100000203000004050000cd
:1043500006070000080900000a0b00006b69000056
:104360006c6c00000069000070650000726600005f
:10437000004900006e760000616c00006964000076
:10438000206300006f6d00006d6d0000616e000025
:10439000642000007365000071750000656e000008
:1043a00063650000000a00000d0000004970000075
:1043b00065720000662000006e6f0000742000002f
:1043c00073740000617200007465000064200000d6
:1043d000666f000072200000746800006520000015
:1043e0006b6900006c6c00002e2e00002e00000097
:1043f000276b0000696c00006c20000069700000f1
:10440000657200006627000020690000732000002c
:1044100074680000652000006f6e00006c79000079
:1044200020760000616c000069640000206b0000d1
:10443000696c00006c200000636f00006d6d00006f
:10444000616e000064000000496e000076610000ab
:104450006c69000064200000636f00006d6d000057
:10446000616e00006420000073650000717500003b
:10447000656e0000636500002e2e00002e00000017
:104480002d730000002d00002d73000065720000e8
:1044900076650000720000002d750000002d000000
:1044a0002d75000064700000002d00006200000007
:1044b0002d2d0000626100006e640000776900002d
:1044c00064740000680000002d780000002d0000da
:1044d0002d7800006d6900007472000061740000a6
:1044e000650000002d630000002d00002d6300001a
:1044f0006c690000656e0000740000002d740000ff
:10450000002d00002d740000696d000065000000a2
:104510002d6e0000002d00002d6e0000756d000056
:10452000002d0000690000002d2d0000696e0000c4
:104530007465000072760000616c0000002d0000c0
:104540006c0000002d2d00006c6500006e00000066
:1045500054680000652000006d6900006e6900006d
:104560006d7500006d200000646100007461000042
:1045700067720000616d000020730000697a00001e
:104580006520000069730000202500006400000021
:104590002d2d00002d2d00002d2d00002d2d0000b3
:1045a0002d2d00002d2d00002d2d00002d2d0000a3
:1045b0002d2d00002d2d00002d2d00002d2d000093
:1045c0002d2d00002d2d00002d2d00002d2d000083
:1045d0002d2d00002d2d00002d2d00002d2d000073
:1045e0002d2d00002d2d00002d2d00002d2d000063
:1045f0002d2d00002d2d00002d2d00002d2d000053
:104600002d00000053650000727600006572000006
:10461000206c000069730000746500006e69000082
:104620006e670000206f00006e2000000055000043
:1046300044500000005400004350000000200000df
:10464000706f000072740000200000000055000030
:104650006e73000075700000706f000072740000cf
:1046600065640000204300006f6e00006669000072
:104670006775000072610000746900006f6e0000d1
:104680000a0d000000430000726500006174000024
:10469000652000005443000050200000736f0000ac
:1046a000636b000065740000206600006169000013
:1046b0006c6500006400000043720000656100004a
:1046c0007465000020550000445000002073000075
:1046d0006f6300006b6500007420000066610000dd
:1046e000696c00006564000000500000726f0000fb
:1046f000746f0000636f00006c20000065720000a2
:10470000726f0000720000002020000020200000d6
:104710002d2000005b3000002e3000002d20000016
:10472000256c0000752e0000256c0000752000002f
:1047300073650000635d000020250000336c0000fd
:10474000752f000020250000336c0000752000004c
:1047500028250000326c0000752500002529000086
:104760002020000020200000253400006c7500008f
:10477000204b000062700000730000002020000049
:10478000202000005365000073730000696f000073
:104790006e200000636f00006d7000006c6500000b
:1047a00074650000642000002e2e00002e00000022
:1047b0002020000020200000547800002064000029
:1047c0006f6e0000652e0000205300006f63000034
:1047d0006b65000074200000636c00006f730000c4
:1047e000656400002e000000202000002020000052
:1047f000497000006572000066200000636f0000d1
:104800006d7000006c65000074650000642e00008f
:104810000020000020200000202000002055000083
:104820004450000020470000657400002041000053
:10483000727200006179000020460000616900008a
:104840006c650000640a00000d00000020200000dc
:10485000202000005365000073730000696f0000a2
:104860006e20000073740000617200007465000027
:10487000642000002e2e00002e00000020200000ea
:10488000202000002d200000466900007273000007
:1048900074200000706b0000742000006964000048
:1048a000203d0000202500006c640000202800004e
:1048b000736800006f7500006c64000020620000e7
:1048c00065200000302900000020000020200000aa
:1048d000202d0000204c00006f630000616c000080
:1048e00020200000257500002e250000752e0000f8
:1048f000257500002e25000075200000706f000057
:10490000727400002025000075200000636f000015
:104910006e6e000065630000746500006420000096
:10492000776900007468000020000000202000006b
:10493000202000002d200000526500006d6f000057
:104940007465000020250000752e0000257500000c
:104950002e250000752e0000257500002070000037
:104960006f72000074200000257500000020000018
:10497000202000002020000020520000656300007d
:104980007620000064750000706c00006963000010
:104990006174000065640000207000006b7400000a
:1049a000002000002020000020520000782000009d
:1049b000746900006d650000642000006f750000e0
:1049c00074000000436c0000696500006e74000014
:1049d000206300006f6e00006e65000063740000cd
:1049e000696e000067200000746f00002025000041
:1049f000752e0000257500002e250000752e000084
:104a0000257500002c2000005544000050200000b7
:104a1000706f000072740000202500007500000017
:104a2000436c0000696500006e74000020630000a4
:104a30006f6e00006e65000063740000696e000018
:104a400067200000746f000020250000752e000014
:104a5000257500002e250000752e0000257500002c
:104a60002c2000005443000050200000706f000014
:104a7000727400002025000075000000536f0000d4
:104a8000636b00006574000020730000656e000019
:104a90006420000066610000696c0000656400002d
:104aa000000a00000d20000020200000205300001c
:104ab00065730000736900006f6e000020730000d2
:104ac000746100007274000065640000202e000014
:104ad0002e2e00000a0d0000002000002020000003
:104ae000202d0000204c00006f630000616c00006e
:104af00020200000257500002e250000752e0000e6
:104b0000257500002e25000075200000706f000044
:104b1000727400002025000075200000636f000003
:104b20006e6e000065630000746500006420000084
:104b30007769000074680000002000002020000059
:104b4000202d000020540000617200006765000005
:104b5000742000007261000074650000203d0000b8
:104b6000202500006c6400002062000070730000cb
:104b70002c20000070650000726900006f64000066
:104b8000203d0000202500006c640000206d000026
:104b90007300000020200000202000002d2d0000c8
:104ba0002d2d00002d2d00002d2d00002d2d00009d
:104bb0002d2d00002d2d00002d2d00002d2d00008d
:104bc0002d2d00002d2d00002d2d00002d2d00007d
:104bd0002d2d00002d2d00002d2d00002d2d00006d
:104be0002d2d00002d2d00002d2d00002d0000008a
:104bf00020200000202000005278000020640000e7
:104c00006f6e0000652e0000205300006f630000ef
:104c10006b65000074200000636c00006f7300007f
:104c2000656400002e00000020200000202000000d
:104c3000526500006164000079200000666f00008a
:104c40007220000074680000652000006e6500009e
:104c50007874000020730000657300007369000021
:104c60006f6e00002e000000544300005020000032
:104c7000436c0000696500006e7400002063000052
:104c80006f6e00006e65000063740000696f0000c5
:104c90006e200000746900006d6500006f750000f3
:104ca000740000004970000065720000662000007a
:104cb000636c0000696500006e74000020730000e2
:104cc00065730000736900006f6e000020630000d0
:104cd0006c6f000073650000642e0000004100004e
:104ce00052500000207500006e610000626c0000f0
:104cf00065200000746f00002072000065730000e2
:104d00006f6c00007665000020740000686500008c
:104d1000204d000041430000206100006464000059
:104d20007265000073730000206f000066200000b1
:104d3000726500006d6f0000746500002073000054
:104d400069640000652e00000020000020200000a3
:104d500020570000617200006e6900006e6700005d
:104d60002c20000054430000502000007365000018
:104d70007276000065720000206400006973000014
:104d8000636f00006e6e0000656300007420000019
:104d900064650000746500006374000065640000d1
:104da00000680000656c0000700000006970000081
:104db0006572000066090000097300006565000067
:104dc000206400006f630000756d0000656e0000d8
:104dd00074610000746900006f6e0000006b0000d9
:104de000696c00006c2000006970000065720000b2
:104df00066090000737400006f70000020740000ea
:104e00006865000020720000756e00006e69000089
:104e10006e67000020690000706500007266000087
:104e20002073000065730000736900006f6e00005e
:104e300000450000727200006f7200002c2000001c
:104e40004970000065720000662000007365000074
:104e500073730000696f00006e200000616c000039
:104e60007265000061640000792000007374000026
:104e700061720000746500006400000009630000b6
:104e800070690000643a000020200000202000002b
:104e900020000000000a00000d000000096300006f
:104ea000686100006e6e0000656c00003a20000032
:104eb000200000002c000000096400006f6d00005d
:104ec000616900006e3a0000202000002000000010
:104ed0006663000063000000696300000065000075
:104ee00074730000690000007370000061690000c5
:104ef0006e00000066720000616e000063650000d5
:104f0000006a000061700000616e00006100000036
:104f10006a610000706100006e62000000750000b0
:104f20006e6b00006e6f0000776e000000090000dd
:104f300072740000733a000020200000202000005e
:104f400020200000000900006d6f00006465000073
:104f50003a2000002020000020200000006900000e
:104f6000646c000065000000696400006c6500006e
:104f700020280000636f00006e6e00006563000073
:104f8000746900006f6e0000207000006572000000
:104f90006d6100006e6500006e7400006c790000a9
:104fa000206c00006f73000074290000006900008d
:104fb000646c000065200000283f0000290000000c
:104fc0006d6100006e6100006765000064200000f4
:104fd000286300006f6e00006e65000063740000bf
:104fe000696f00006e200000696e000020700000f4
:104ff000726f000067720000657300007329000083
:10500000006d0000616e00006167000065640000d3
:10501000006d0000616e00006167000065640000c3
:105020002028000072650000636f00006e6e0000b3
:1050300065630000746900006f6e00002069000065
:105040006e200000707200006f6700007265000043
:1050500073730000290000006d6100006e610000a4
:105060006765000064200000283f00002900000060
:1050700061640000686f0000632000002863000086
:105080006f6e00006e65000063740000696f0000c1
:105090006e200000696e000020700000726f00003a
:1050a0006772000065730000732900000061000052
:1050b000646800006f630000006100006468000025
:1050c0006f6300002028000072650000636f00001d
:1050d0006e6e000065630000746900006f6e000072
:1050e000206900006e200000707200006f670000f1
:1050f0007265000073730000290000006164000005
:10510000686f000063200000283f000029000000b5
:105110000973000073690000643a00002020000059
:1051200020200000200000000970000077720000bd
:1051300073610000766500003a20000020650000e1
:105140006e610000626c00006564000000090000f0
:1051500064740000696d000020720000783a00005d
:1051600020200000656e0000616200006c65000098
:105170006400000009640000746900006d200000f4
:10518000727800003a20000020640000697300007b
:10519000616200006c65000064000000097000009e
:1051a0007772000073610000766500003a2000000d
:1051b0002064000069730000616200006c650000fb
:1051c0006400000009700000777200007361000045
:1051d000766500003a200000207500006e6b00002c
:1051e0006e6f0000776e00002800000029000000ac
:1051f0004d69000073730000696e000067200000b5
:10520000766100006c75000065200000666f00008c
:10521000722000006c6100007374000020700000b8
:1052200061720000616d000065740000657200002d
:105230000053000053490000442000006d6100004d
:10524000792000006e6f000074200000636f000082
:105250006e740000616900006e2000007370000031
:105260006163000065200000666f0000722000008e
:10527000746800006973000020640000656d000020
:105280006f00000044690000736300006f6e00004f
:105290006e65000063740000206600006169000014
:1052a0006c650000642e000020440000697300005b
:1052b000636f00006e6e00006563000074200000e4
:1052c00069730000206100006c6c00006f770000c3
:1052d00065640000206f00006e6c00007920000003
:1052e00077680000656e0000206d00006f640000ac
:1052f000756c0000652000006973000020690000e3
:105300006e200000636f00006e6e00006563000099
:105310007465000064200000737400006174000074
:10532000650d00000a000000416c0000726500007d
:105330006164000079200000696e000020740000a4
:105340006865000020690000646c000065200000b2
:105350006d6f000064650000004100006c72000089
:105360006561000064790000206900006e20000083
:1053700074680000652000006d6100006e6100002f
:1053800067650000642000006d6f00006465000028
:10539000004100006c72000065610000647900004b
:1053a000206900006e200000746800006520000085
:1053b00061640000686f0000632000006d6f0000f2
:1053c00064650000005500006e6b00006e6f000009
:1053d000776e00002070000061720000616d0000b7
:1053e0006574000065720000004300006861000001
:1053f0006e6e0000656c000020630000616e0000ae
:10540000206f00006e6c00007920000062650000d3
:105410002073000065740000206900006e20000009
:10542000696400006c650000206d00006f6400007e
:1054300065000000616c00006c00000072650000f7
:10544000656e0000616200006c6500000064000091
:1054500069730000616200006c6500000075000067
:105460006e69000063610000737400000044000076
:105470006f6d0000616900006e2000006361000034
:105480006e2000006f6e00006c790000206200004a
:10549000652000007365000074200000696e000044
:1054a00020690000646c0000652000006d6f000042
:1054b00064650000005500006e6b00006e6f000018
:1054c000776e0000206400006f6d000061690000cd
:1054d0006e000000577200006f6e00006720000031
:1054e000636f00006d6d0000616e0000642c0000b1
:1054f000206300006f72000072650000637400009a
:10550000206300006f6d00006d6100006e6400009c
:1055100020690000733a000049570000434f000023
:105520004e46000049470000204300004f4e000057
:105530004e45000043540000205b000073730000e0
:10554000696400005d2000005b620000737300006e
:10555000696400005d2000005b630000686100007a
:105560006e6e0000656c00005d2000005b70000046
:105570006f770000657200002d6d00006f64000001
:10558000655d00000d0a00000025000064000000b9
:1055900063680000616e00006e6500006c20000012
:1055a0006572000072200000283100007e3100008a
:1055b000342900003a200000556e00006b6e000098
:1055c0006f7700006e2000007061000072610000c3
:1055d0006d65000074650000720000005746000011
:1055e000206400006576000069630000652000000b
:1055f0006869000062650000726e0000617400005e
:1056000065640000004300006f6e00006e650000de
:1056100063740000696f00006e200000707200006b
:105620006f660000696c0000652000006c69000076
:1056300073740000206e00006f740000207300007f
:1056400075700000706f00007274000065640000e7
:10565000004300006f6e0000656300007469000085
:105660006f6e000020700000726f0000666900001d
:105670006c650000206c000069730000742000005d
:105680006e6f0000742000007375000070700000e1
:105690006f72000074650000640000005468000030
:1056a00065200000576900002d46000069200000b9
:1056b0006d6f0000647500006c65000020690000db
:1056c00073200000696e000020680000696200001d
:1056d000657200006e61000074650000206d0000be
:1056e0006f640000652000002d200000636f000043
:1056f0006d6d0000616e00006420000066610000b6
:10570000696c0000656400002e00000077610000f5
:105710006b650000757000000054000068650000b3
:1057200020570000692d000046690000206d000030
:105730006f640000756c0000652000006973000054
:1057400020610000776100006b6500002e00000002
:105750006869000062650000726e000061740000fc
:1057600065000000546800006520000057690000d3
:105770002d460000692000006d6f00006475000078
:105780006c6500002069000073200000696e000055
:105790002068000069620000657200006e61000010
:1057a00074650000206d00006f640000652e00002d
:1057b0000073000073690000640000006d6f00005a
:1057c0006465000000630000686100006e6e000008
:1057d000656c0000007000006f77000065720000cb
:1057e000006400006f6d0000616900006e00000041
:1057f0007274000073000000747800007261000091
:105800007465000000730000636100006e0000001a
:1058100053630000616e00006e6900006e67000057
:105820002e2e00002e00000053630000616e000069
:10583000206300006f6d0000706c00006574000054
:10584000656400002e00000053630000616e0000dc
:1058500020660000616900006c650000642e000095
:10586000204100006c720000656100006479000056
:10587000206900006e200000707200006f67000059
:105880007265000073730000206f0000722000003a
:105890006e6f000074200000616c00006c6f0000ef
:1058a000776500006400000073630000616e000013
:1058b00072650000737500006c74000073000000d6
:1058c00053630000616e00006e200000696e0000ee
:1058d00020700000726f00006365000073730000a9
:1058e0002e2e00002e7000006c6500006173000019
:1058f000652000007761000069740000206f0000df
:1059000072200000747200007920000061670000be
:10591000616900006e2000006c6100007465000089
:10592000720000004e6f00002073000063610000f1
:105930006e20000072650000737500006c7400003a
:1059400073200000746f0000206400006973000081
:10595000706c0000617900002e000000737400007c
:105960006172000074740000657300007400000030
:10597000737400006f7000007465000073740000a1
:10598000006300006f6e00006e650000637400002d
:1059900000000000456e0000637200007970000096
:1059a000746900006f6e00003a200000006e000075
:1059b0006f6e0000650000000a0d00000077000017
:1059c0006570000000770000706100002d7000001d
:1059d000736b000000770000706100002d70000004
:1059e000687200006173000065000000756e0000c1
:1059f0006b6e00006f7700006e000000202000003a
:105a000057650000702000006b650000793a0000c7
:105a1000206e00006f7400002079000065740000a3
:105a20002073000065740000206f000072200000e9
:105a3000756e00006b6e00006f7700006e00000056
:105a4000202a000000200000200000005765000010
:105a5000702000006b650000795b0000005d0000b5
:105a60003a2000002030000078000000252e0000c1
:105a70003278000000000000202000005053000099
:105a80004b3a0000206e00006f7400002079000087
