:020000040000FA
:06000000BFEF21F0120029
:020006000400F4
:06000800E6EF13F0120008
:02000E001200DE
:03001000FF0000EE
:020013000000EB
:020015000219CE
:06001800E6EF13F01200F8
:02001E0030317F
:0E002000323334353637383941424344454691
:02002E000001CF
:0E00300002030405060708090A0B0C0D0E0F4B
:02003E000400BC
:1000400015000000C60200000200000013000000BE
:10005000C40200000200000010000000FD010000CA
:100060000300000098430000E60100000D000000BE
:100070000000120043EC0EF049E800EBE6FFD6CF9B
:10008000E6FF4FEC1FF041E9E750026E025021E01D
:100090000206A8EC0BF0036EB351046EB451056E6A
:1000A000B551066EA8EC0BF0076EB351086EB45153
:1000B000096EB5510A6E1AEC0DF0D950030FC4EC5D
:1000C0000BF0D8803E0EB255000E49EC0EF0EAE27D
:1000D000DDD74AE9E7CFD9FF1200ECEC0BF081E95C
:1000E00055E844EC10F0000901E11BD3010161B5B2
:1000F00094D3016B8551040B01E0010E030BF36EE9
:10010000FC0E0115F310016F85510197080B01E0FA
:1001100001878551030B010802E1010E01D0000E99
:10012000019BE8B0018B8551019D800B01E0018DA1
:1001300085AF08D08D51019FE8B0018F86C104F1D1
:1001400087C105F18EC102F18FC103F18CC10AF1A3
:100150008BC109F161958551030B010A01E144D27C
:10016000020A01E1A7D1030A01E0D6D2016A050E15
:10017000015C0AE238EC0EF0EF50000803E238ECC4
:100180000EF0EF06012AF3D701018A5168E00A0E4A
:100190008A5D01E2C1D2020EBCEC0BF00A6E030EC6
:1001A000BCEC0BF00B6E040EBCEC0BF0106E050EED
:1001B000BCEC0BF0116E060EBCEC0BF00C6E070ED7
:1001C000BCEC0BF00D6E080EBCEC0BF00E6E090EC5
:1001D000BCEC0BF00F6E85510197080B01E0018715
:1001E0000151030B000905E11050FC08FF0E1154EA
:1001F00073E24D510E180AE14E510F1807E14F51AD
:100200000C1804E150510D1801E186D2101C01E0D8
:1002100083D2111C01E080D2016A050E015C1BE251
:1002200038EC0EF0EF5015E0E3EC0BF00E50EE184A
:1002300010E10F50ED180DE1E3EC0BF0BAEC0DF00E
:10024000EFCFB2F20A0E0101BCEC0BF00201B25D7D
:1002500002E0012AE2D7050E015C03E20101619B85
:100260005BD2016A050E015C06E238EC0EF0EF503D
:1002700002E0012AF7D7050E015C13E2E3EC0BF074
:100280000EEBEEFF0FEBEDFF0A0E4FEC0EF0E3EC82
:100290000BF0020EE9262EEC0DF038EC0EF0030EFA
:1002A000EF6E101C06E1111C04E1010101810193B4
:1002B00051D0FE0E101806E1FF0E111803E10101E6
:1002C000018108D0FD0E101845E1FF0E111842E122
:1002D0000101019101833ED04F510A1801E01CD267
:1002E00050510B1801E018D24D51101801E014D2F2
:1002F0004E51111801E010D2010EBCEC0BF0040BB2
:1003000029E031EC0DF00CEB02F00DEB03F00EEBFD
:1003100004F00FEB05F020EC0CF00A0E0101CBEC21
:100320000DF0EFCF0AF000010B6B300E0C6F0101E6
:100330000D0E4C6F7E6B7E8BECEC0EF0D6EC0EF05F
:100340004FC183F150C184F1D1EC0DF0D7EC0CF02A
:10035000010101850B0E0101BCEC0BF001E07FD027
:100360000C0EBCEC0BF0300869E00C0EBCEC0BF092
:10037000420A62E0530A01E0CFD1126A080E125C11
:100380000BE20B0E1224020FBCEC0BF0E66E1250C7
:1003900069EC0CF0122AF2D78D0E626F150EBCECD0
:1003A0000BF0800B01E06291150ECBEC0DF0EFCF5E
:1003B0005AF1160ECBEC0DF0EFCF5BF14FC15CF1B3
:1003C00050C15DF1ADDB01016E6FFF0E6E5D08E0A7
:1003D0006E51A8EC0DF0EFCF62F16285628704D018
:1003E0008D0E626F5ABF6291E1EC05F001016E6FF4
:1003F000FF0E6E5D1EE2126A010E125C0CE2170E19
:1004000012244FEC0EF06E51E5EC0DF01250E3ECBF
:100410000DF0122AF1D70E0EE66EE66A01016E515A
:1004200088EC0CF001016E5173EC0CF001016D8150
:1004300001D06D916D9370D1619D6ED10A0EBCECAF
:100440000BF00101F05D08E101015E510E1804E1BD
:100450005F510F1801E161970E5080085DD1619BDB
:100460000B0E8A5D086F0B0E8825066F000E892122
:10047000076F0CEB02F10DEB03F1080EBCEC0BF077
:10048000FF080AE1090EBCEC0BF0FF0805E186C18C
:1004900004F187C105F107D0018F080E8825046F8C
:1004A000000E8921056F018D0851000801E334D148
:1004B000618532D1136A040E1324BCEC0BF05D0885
:1004C00007E0040E1324BCEC0BF04D0801E024D12E
:1004D00061A122D18EC15CF18FC15DF197EC0CF06E
:1004E0001350BCEC0BF0FF0801E016D11328BCEC54
:1004F0000BF0146E040E0B5D01E30ED1A6EC0CF0B4
:1005000073EC0DF001E208D1B2EC0EF0EEC1EFFF9A
:10051000B2EC0EF00B0E9BEC0EF009C1EFFFB2EC4B
:100520000EF0E0EC0BF00AC1EFFFB2EC0EF0090E9A
:100530009BEC0EF05CC1EEFF5DC1EDFFAEEC0DF08B
:10054000EF6AAEEC0DF0EF8CA6EC0CF0060BE84277
:100550000201B26F0101AEEC0DF00201B251030BCA
:10056000F36EFC0EEF14F310EF6EA6EC0CF0080B1C
:1005700004E00101AEEC0DF0EF86A6EC0CF073EC9C
:100580000DF004E30101AEEC0DF0EF8A0101AEECD9
:100590000DF0EF8E04C1E9FF05C1EAFF65EC0EF036
:1005A000E552E750EF6E010EEA6A0425E96E055147
:1005B000EA2265EC0EF0E92A2EEC0DF0016A010E3C
:1005C000015C0FE2060E132401244FEC0EF0B2EC96
:1005D0000EF00E0E07EC0CF00150E3EC0DF0012ACA
:1005E000EED701010B2B98D088C1E9FF89C1EAFF42
:1005F000EF50030A61E0010A01E08ED0030EBCEC6B
:100600000BF050E1010ECBEC0DF0EFCF4DF1020EEF
:10061000CBEC0DF0EFCF4EF110EC0CF0010161834B
:10062000BF0E626F016A080E015C03E2F0EC0DF090
:10063000FAD798EC0EF0BAEC0DF0EECF5AF1EDCF00
:100640005BF14FC15CF150C15DF1BBDA0101516F4B
:10065000515138EC0CF0016A010E015C0CE2040E01
:1006600001244FEC0EF05151E5EC0DF00150E3EC9C
:100670000DF0012AF1D7E6EC0BF0A8EC0EF0E9EC56
:100680000BF00E0EE66EE66A0101515188EC0CF09B
:100690000101515173EC0CF0710EE66E3B0E33EC20
:1006A0000CF03AD051694F695069B1EC0CF0E9ECAB
:1006B0000BF0E6EC0BF030D061A32ED08D5108E0AA
:1006C00097EC0CF02DDA156EFF0E155C0DE124D0C1
:1006D000016A080E015C03E2F0EC0DF0FAD742DA91
:1006E000156EFF0E155C18E0155092EC0EF0200B05
:1006F00013E0016A0A0E015C05E20150BFEC0EF046
:10070000012AF8D72EEC0EF0E9EC0BF0A8EC0EF075
:10071000E6EC0BF00DEC0CF0010161B502D07AECC7
:1007200011F0A8EC0BF0026EB351036EB451046EDD
:10073000B551056E010161A320D061AB1ED037EC2D
:100740000DF04851EE5C0201B26F01014951EE58C3
:100750000201B36F01014A51EE580201B46F010169
:100760004B51CAEC0CF0FF083F0E0754000E085422
:10077000000E095402E20101619B010164A32AD029
:1007800037EC0DF06951EE5C0201B26F01016A5164
:10079000EE580201B36F01016B51EE580201B46FC4
:1007A00001016C51EE580201B56FD880480EB25568
:1007B000E80EB355010EB455000EB5550BE201011C
:1007C0006451F80BE842E842E842E66E16EC0DF0A0
:1007D0000101646B01016DA320D06DB11ED037EC17
:1007E0000DF07A51EE5C0201B26F01017B51EE58BF
:1007F0000201B36F01017C51EE580201B46F010197
:100800007D51CAEC0CF06C08DC0E0754020E085443
:10081000000E095402E201016D9356E9E7CFD9FFBA
:100820001200ECEC0BF087E901017E6B0150030B29
:10083000F36EFC0E7E15F3107E6F0250031001E183
:100840007E857E51040B02E0000E01D0010E7E9BDE
:10085000E8B07E8B7E8F02EB7FF103EB80F1080E18
:100860000014000803E2010E816F01D0816B040EB9
:100870000014000803E2010E826F01D0826B04EBCA
:10088000E9FF05EBEAFFEFCF83F10428E96E000EE4
:100890000520EA6EEFCF84F1FDEC0BF0FCEC0DF0DF
:1008A000F0EF0CF053EC0EF0016A0A0E015C08E266
:1008B0000150E9EC0EF002E1015003D0012AF5D716
:1008C000FF0EADEF0CF043EC0EF042E8FF0E005CC3
:1008D00028E1610EE66E3B0E33EC0CF0026A080E66
:1008E000025C0CE2070ED8800254EA6AE60FE96E59
:1008F000010EEA2229EC0CF0022AF1D7520EE66E24
:100900003B0E33EC0CF0F4EC0CF0480EE66E3B0EB4
:1009100033EC0CF0FBEC0CF03C0EE66E3B0E87EC7F
:100920000EF0F40EE66E3A0E33EC0CF0FF0E005CA7
:1009300067E1026A0A0E025C01E3B8D00250E9ECFA
:100940000EF05CE002EBE6FF57EC0EF0ABEC0DF0C6
:10095000ABEC0DF0F5EC0EF0025092EC0EF0010B4A
:1009600002E0590E01D04E0E95EC0EF0025092ECC2
:100970000EF0020B02E0590E01D04E0E95EC0EF077
:10098000025092EC0EF0080B13E0025029EC0EF02E
:1009900029EC0CF00250C2EC0EF002503BEC0EF0D1
:1009A00029EC0CF00250A1EC0BF023EC0DF002D07E
:1009B000E3EC0EF041E9F5EC0EF0025092EC0EF093
:1009C000040B08E0036A080E035C04E20250E9EC41
:1009D0000DF0F9D7F5EC0EF0036AD89003E36AEC5A
:1009E0000EF0FBD7036A010E035C06E20250E5EC51
:1009F0000DF070EC0EF0F7D772EC0EF0022A9AD7D9
:100A00000050E9EC0EF052E000EBE6FF57EC0EF080
:100A1000ABEC0DF0200EF1EC0EF0010B02E0590EE4
:100A200001D04E0EF1EC0EF0020B02E0590E01D097
:100A30004E0EF1EC0EF0080B13E0005029EC0EF016
:100A400029EC0CF00050C2EC0EF000503BEC0EF024
:100A500029EC0CF00050A1EC0BF023EC0DF002D0CF
:100A6000E3EC0EF041E9F5EC0EF0005092EC0EF0E4
:100A7000040B08E0036A080E035C04E20050E9EC92
:100A80000DF0F9D7F5EC0EF0036AD89003E36AECA9
:100A90000EF0FBD7036A010E035C06E20050E5ECA2
:100AA0000DF070EC0EF0F7D772EC0EF09AEF0DF03F
:100AB00053EC0EF001016D9144EC21F0BAC27AF1D1
:100AC000BBC27BF1BCC27CF1BDC27DF101015A6B9E
:100AD0005B6B5BEC0EF0100EEF6E016A080E015CB2
:100AE00009E20150EA6AE60FE96E010EDEEC0DF054
:100AF000012AF4D7016A010E015C05E20150C6EC3F
:100B00000EF0012AF8D7E66AE66A5A0EE66E010E82
:100B1000E66EC9EC09F044E901016D83ADEF0CF01C
:100B200053EC0EF0016A0A0E015C19E20150E9EC87
:100B30000EF013E0015092EC0EF0080B0EE077EC93
:100B40000EF001015A510201B21907E101015B5196
:100B50000201B31902E1015003D0012AE4D7FF0ECC
:100B6000ADEF0CF0ECEC0BF081E942E8016A0A0E03
:100B7000015C24E20150E9EC0EF01EE0015092EC21
:100B80000EF0040B19E0026A080E025C13E261EC3D
:100B90000EF0EACFB4F202500201EA6AE924E96EEB
:100BA000B451EA22EFCFB2F24BEC0DF0B25D04E1AA
:100BB000022AEAD7015003D0012AD9D7FF0E9AEFB3
:100BC0000DF0ECEC0BF081E942E80168010162A54F
:100BD00002D0C8DF03D062A702D0A2DF016EFF0EF1
:100BE000015C02E15FDE016EFF0E015C2CE0015052
:100BF000A8EC0DF062C1EFFF010162A510D0026AFE
:100C0000080E025C0CE24BEC0DF0E66E61EC0EF0AF
:100C1000EACFB3F20250E3EC0DF0022AF1D7010162
:100C200062A708D0B5EC0EF0BAEC0DF05AC1EEFF99
:100C30005BC1EDFFB5EC0EF05CC1EEFF5DC1EDFFF9
:100C4000015038EC0CF001509AEF0DF0ECEC0BF089
:100C500085E941E8056A080E055C14E205500224A6
:100C600002EC0DF0EFCFB2F205500024E96E000E59
:100C70000120EA6EEF500201B25D02E0000E03D0E7
:100C8000052AE9D7010EADEF0CF053EC0EF001018F
:100C90004C51016E4C6BD8EC0BF0040EEF6E0C0E49
:100CA000E66E010EE66E020EE66E030EE66E000EB6
:100CB000E66E030EE66EB5DD46E9000910E00101BF
:100CC000618B44EC21F0BAC248F1BBC249F1BCC20D
:100CD0004AF1BDC24BF101EB4CF1010E03D001EB27
:100CE0004CF1000EADEF0CF043EC0EF044E8EFECED
:100CF0001EF001014D694E69340E4F6F120E506F98
:100D0000056A0A0E055C05E20550BFEC0EF0052AE7
:100D1000F8D70101616B636B6D6B006B3AEC21F0EE
:100D200001014C6B056A050E055C08E20550B8EC44
:100D30000EF0EDEC0CF0EF6A052AF5D7056A0A0E05
:100D4000055C05E2055038EC0CF0052AF8D7005098
:100D500045E051EC0CF043EC0DF0200E0101EE5D8E
:100D600009E2F1EC0BF043EC0DF001014D1D04E143
:100D70004E1D02E1000E68D008EC0EF043EC0DF0C1
:100D80005DEC0CF043EC0DF043EC0CF01DEC0EF0C0
:100D900043EC0DF0F1EC0BF043EC0DF011EC0EF028
:100DA00043EC0DF0E80EE66E3A0E87EC0EF0E00E26
:100DB000E66E3A0E33EC0CF0FBEC0CF0D50EE66E62
:100DC0003A0E33EC0CF0F4EC0CF0EEC1E6FF16EC4E
:100DD0000DF010EC0CF00101618310D0E6EC0BF08B
:100DE00051EC0CF004EC0EF05DEC0CF004EC0EF0A9
:100DF0000DEC0CF0A8EC0EF0E9EC0BF0026A029698
:100E00000298029A028C028200500294E8B0028496
:100E1000E60E036E010E046E02EBE6FF03EBE6FF47
:100E200004EBE6FFAAEC13F043E910EC0CF0EEC182
:100E3000E6FF16EC0DF00101008743EC0CF0D6CF75
:100E400060F1F292F288010E45E9E7CFD9FF120076
:100E500043EC0EF041E80050020A19E0030A10E0EA
:100E6000010A2AE1010163A704D00DEC0CF0010195
:100E70006397E66A9EEC0DF00EE00101618F1AD0D7
:100E8000E6689EEC0DF007E00101619F13D0E66873
:100E90009EEC0DF002E1010E10D00101619FF5DE24
:100EA000000902E1020E09D0010161AB03D06DEC33
:100EB00000F0FAD7000E01D0FF0EADEF0CF043ECBE
:100EC0000EF0E66A00EBE6FF26EC13F042E90009BB
:100ED00008E000EBEEF151EC0CF004EC0EF0010E2A
:100EE00001D0000EF0EF0CF043EC0EF000500308C0
:100EF00009E300EBEFF143EC0CF05DEC0CF09FEC40
:100F00001EF046E9F0EF0CF0ECEC0BF086E94EE851
:100F1000010E076E086A096A0A6A0101EE510B6E3A
:100F2000066A040E065C06E20650B5EC0BF0EF68AC
:100F3000062AF7D701010B6B6181066A200E065C59
:100F400066E27AEC0DF00201B26BF80EB317070EF1
:100F5000B5171AEC0DF006501F0B04E0020181ECEE
:100F60000DF0FDE1BCEC0CF050E0C50EE66E3A0E63
:100F700033EC0CF006EBE6FF05EC20F041E906EB64
:100F8000E6FF16EC0DF08AEC0EF0070EEF6ED8ECD3
:100F90000BF0EEC1EFFF5C695D69E66A010EE66E7B
:100FA000000EE66EE66A5C0EE66E010EE66E39DC59
:100FB00046E9CEDB53EC0DF047EC0DF001E045D9EE
:100FC000C7DB5BEC0DF010EBB6F211EBB7F212EBF6
:100FD000B8F213EBB9F2D9500C0FD6DB0450040D64
:100FE000F3CFF6FFF4CFF7FFF00EF626420EF7220E
:100FF000B2510900F55CB3510900F558B45109002C
:10100000F558B5510900F558D7E2062A97D70BEBEA
:10101000E6FF16EC0DF0010161910B514FE9E7CFAE
:10102000D9FF1200D9DB83E94AE8030E036E0004FE
:101030001CE18EDB63EC0DF03BDD01016DA311D0F3
:1010400047EC0DF001E001D9BDEC0DF0F6E21DDE3C
:1010500089EB05F08AEB06F08BEB07F08CEB08F0E0
:10106000ECD76DA1E1D06E51E4D0005001E0E0D0AA
:10107000FF0E015C24E10201010EB26FB36BB46B91
:10108000B56B0101EE511F0B08E00201D890B23799
:10109000B337B437B537E806F9E1B2C2E6FFB3C2F9
:1010A000E6FFB4C2E6FFB5C2E6FF0A0EE66E2CDF2D
:1010B00045E9000903E10306DEE1B6D0016A46EC2A
:1010C0000EF0090E9BEC0EF0EECF5CF1EDCF5DF172
:1010D00046EC0EF0EE52EFCF5AF1CCEC0EF0EFCF23
:1010E0005BF11EDD0101516FFF0E515D07E152EC16
:1010F00004F00101516FFF0801E196D05151BFEC9E
:101100000EF046EC0EF0090EDFEC0CF098EC0EF051
:10111000B2C2EEFFB3C2EDFF46EC0EF0EE52EF505E
:10112000E66E98EC0EF0020EE9262EEC0DF0CCECFB
:101130000EF0EF50E66E51513BEC0EF0E552E750E9
:10114000EF6E5151A8EC0DF0EF86046A010E045CBD
:101150001BE246EC0EF00E0E9BEC0EF0E9CFB4F263
:10116000EACFB5F204500201EA6AE924E96EB5510A
:10117000EA22EF50E66E01015151E5EC0DF004500A
:10118000E3EC0DF0042AE2D701015151A8EC0DF077
:10119000EF825151A8EC0DF0EF8A5151A8EC0DF0FF
:1011A000EF8046EC0EF0EFCFE6FF16EC0DF00101FC
:1011B00098EC0EF0EECF4FF1EDCF50F1D2DB8AEC90
:1011C0000EF0010EEF6EF4DA00C1EFFF046A010EBB
:1011D000045C05E20450C6EC0EF0042AF8D7080EB1
:1011E000E66E010EE66E98EC0EF0020E10DBD9EC06
:1011F0000EF098EC0EF0E9CFB4F2EACFB5F2D9ECEC
:101200000EF011EC04F046E9A3DA63EC0DF00101F5
:10121000515192EC0EF0100B09E147EC0DF001E09A
:1012200014D8BDEC0DF0F3E2FF0E03D0515101D004
:10123000FF0E4BE9E7CFD9FF12006DEC00F0010182
:101240006151040B01E0010E1200010161957AEF7A
:1012500011F043EC0EF000EBE6FF010EE66E02D853
:1012600042E9BED3B9DA83E931EC0DF04FC102F0A7
:1012700050C103F00150020A0AE0010A06E0020A26
:1012800002E0000E14D0046904D0FE0E01D0FD0E61
:10129000046F0569D5DA01017BEC0EF07E85005004
:1012A0007E97E8B07E8788EC0DF0A7DA80DB98D3D4
:1012B00093DA83E949E80150E9EC0EF063E00101BB
:1012C000F1510CE000010B5109E00101618760C19F
:1012D000F0F1B5EC0EF0BCDB060E03D00101619716
:1012E000020E036EF2C100F003EB01F0B5EC0EF05C
:1012F000EFCF02F0015029EC0EF0EFCF03F0B5EC88
:101300000EF08FEC0DF001503BEC0EF08EEC0EF079
:10131000FADAE8B07E87ECEC0EF0D6EC0EF098EC42
:101320000EF075DB6ADAFCEC0DF0000929E0010132
:101330006151080B29E077EC0EF0800E0201B25DDE
:1013400023E206DA046EB351056EB451066EB55150
:10135000076E9DDB01E079DF010161B702D0010E6C
:1013600014D0F6D9B8DB08EBB6F209EBB7F20AEB0A
:10137000B8F20BEBB9F2D950040FABEC0EF0E9E286
:1013800001016197000E01D0010E4AE9E7CFD9FFB4
:10139000120022DA85E953E8015030E1D4DBEFCFC7
:1013A0005AF102282FDBEFCF5BF101015A51FC0803
:1013B000FF0E5B5523E2FD0E5A1902E1E8685B1946
:1013C00016E0FE0E5A1902E1E8685B190CE0E868C5
:1013D0005A1901E0D1D0E8685B1901E0CDD000EBEB
:1013E000E6FF010E07D000EBE6FF030E03D000EB93
:1013F000E6FF020EE66E36DF42E9C1D00101F1518F
:1014000009E000010B5106E00101618760C1F0F1C4
:10141000060E03D001016197020E076E015066E0CF
:10142000066A080E065C09E206500224EBDAEF5069
:10143000E66E06504EDA062AF4D7B2EC05F0056ED9
:10144000FF0E055C14E10DDB02690369046905699F
:10145000F7D9010158DAE8B07E8702EB7FF103EBA0
:1014600080F1816B55DB6197C8D9A1DA88D005502E
:1014700092EC0EF0080BE7E00101F15103E005509A
:1014800060D9E6DAF2C100F007EB01F0055059D956
:10149000EFCF02F00550DDDBEFCF03F0055051D95F
:1014A0003EDB0550E8DB8EEC0EF001012CDAE8B0F3
:1014B0007E877EDB5FE0010161A746D049D90BDB67
:1014C000E6DA01E0C2DE010161A73ED041D9EBDAE4
:1014D0000CEBB6F20DEBB7F20EEBB8F20FEBB9F284
:1014E000D950080FABEC0EF0EBE244D0F2C100F0A3
:1014F00007EB01F04FC102F050C103F024DBEFCF46
:1015000004F002287FDA8EEC0EF06051602B0001AF
:101510000A6F19DBEFCF5EF1022874DAEFCF5FF1CB
:1015200001017E6B7E8B00507E97E8B07E8740DBAA
:1015300021E0010161A722D00BD9BDDAA8DA01E0D0
:1015400084DE010161B702D0010E19D001D9146EF9
:10155000B351156EB451166EB551176E14EBB6F249
:1015600015EBB7F216EBB8F217EBB9F2D950100F32
:10157000F2DBE4E201016197000E01D0010E54E9B3
:10158000E7CFD9FF120028D987E90550020A02E007
:10159000030A02E1000E01D0000E22D21DD986E915
:1015A0004FE80101EE51086ED3D80FDA0101618DC9
:1015B000066A030E065C01E378D0010E116E126A12
:1015C000136A146A076A010161AD5ED0C1D80D6E5D
:1015D000B3510E6EB4510F6EB551106E0DEBB6F2E5
:1015E0000EEBB7F20FEBB8F210EBB9F2D950090FCE
:1015F000CBD8D8803C0EB255780E4BDB41E28DEB58
:1016000009F08EEB0AF08FEB0BF090EB0CF007502B
:101610001F083AE300EBB2F26DDAB26BF80EB317C3
:10162000070EB51711EBB6F212EBB7F213EBB8F2E7
:1016300014EBB9F207501F0B03E0020162DAFEE17E
:101640009BD905E1072A07501F08E4E22AD0B10E12
:10165000E66E3A0E08D907EBE6FF05EC20F041E90B
:1016600007EBE6FFE3D9072A010125DB410EEF6E08
:101670009FD8EEC1EFFFE66A04EBE6FF19DE42E910
:1016800006DAA1E0E2DD9FD7010161BD0AD0890E33
:10169000E66E3A0E3CDB860EE66E3A0EE4D8010E9C
:1016A0000AD038EC00F0062A84D708EBE6FFBED952
:1016B0000101619D000E50E9E7CFD9FF1200E3DA86
:1016C00041E8FF0E005C18E1026A0A0E025C33E298
:1016D00002507FDB0DE0025025DB200B09E01ADB16
:1016E0009BD902502ED893D902502BD85DD81BDA43
:1016F000025045DB022AE9D700506BDB21E00050A5
:1017000011DB200B1DE001015151005C19E14C6B14
:101710004FD882D9005015D87AD9005012D844D861
:1017200000502DDB00DA026A0A0E025C04E202506D
:1017300026DB022AF9D792DA0BDB48D84AD86DD8D3
:101740000CD10E0D9BDA000EE926030EEA221200E0
:1017500044EC21F0BAC2B2F2BBC2B3F2BCC2B4F2E2
:10176000BDC2B5F20201B25112000F0D87DA0C0EA4
:10177000E926010EEA2212000EDAEF501200E66EA0
:10178000E3EC1FF041E91200E96EDACFEAFFEE5018
:10179000B65DB26FEE50B759B36FEE50B859B46F33
:1017A000EE50B959B56F120001DBFBD9FCEF0DF01B
:1017B0004C514C2BEA6A000FE96E000EEA2212002F
:1017C0000C0E9BEF0EF00150B8EF0EF021DA04EF93
:1017D0000EF027DA04EF0EF0D9CFE6FFE1CFD9FF04
:1017E0001200020EE66EE66AE0C1E6FFE1C1E6FF26
:1017F0004D0EE66E010EE66E1200A1DA7FC1E6FF25
:1018000080C1E6FF81C1E6FF82C1E6FF120093DAE4
:10181000E9CFB2F2EACFB3F212000FDA04EF0EF022
:10182000CDDA4D0EE66E010EE66E79EC13F044E96A
:1018300012000201EA6AE924E96EB351EA221200B9
:101840004FC106F050C107F04DC108F04EC109F07C
:101850001200EFCFE6FF57EF0EF0D880240EB255FE
:10186000F40E49EF0EF0E66EC8EC1FF042E91200EC
:10187000040D04DA330EE926000EEA22EE6AEE6A5F
:10188000EE6AEE6A12000101EF510101030BF36EE3
:10189000F346F346F346F346CF0E0015F310006F00
:1018A0001200010EE66EE66AD8C1E6FFD9C1E6FF76
:1018B000EE0EE66E010EE66E1200010EE66EE66AB0
:1018C000DAC1E6FFDBC1E6FFEF0EE66E010EE66E63
:1018D0001200EA6A520FE96E010EEA223FD24AD99B
:1018E000E92AEA2212000E0DF3CFB4F2F4CFB5F2DA
:1018F000000E0201B427030EB523B4C2E6FFB5C241
:10190000E6FF04EF0EF0F7D97E8B00507E971200B1
:101910000E0D0101DC51F3240201B26F0101DD5112
:10192000F4200201B36FB2C2E6FFE66E120086C178
:10193000E9FF87C1EAFFEFCF5AF1010EEA6A862577
:10194000E96E8751EA22EFCF5BF11200D950140FF4
:10195000E96EDACFEAFFEF50120042E9E7CFD9FF94
:1019600012005A695B692ADA5A0EE66E010EE66EBB
:1019700079EC13F044E912000201B651B217B751E5
:10198000B317B851B417B951B517B251B311B41157
:10199000B5111200EE580201B56FB251066EB35187
:1019A000076EB451086EB551096E065012004FC152
:1019B000E6FF50C1E6FF82EC11F04AE91200BBD904
:1019C000EECFB2F2EFCFB3F21200096EB3510A6E4E
:1019D000B4510B6EB5510C6E1200030E9BEF0EF05E
:1019E00041E9E7CFD9FF12004EC1E6FF60D94DC1F2
:1019F000E6FF57EF0EF050C1E6FF59D94FC1E6FFA1
:101A000057EF0EF0E96E000E0320EA6E1200EECFE3
:101A100083F1EDCF84F11200030EEF6E7E6B7E8BAF
:101A20007E817E93010E816F826F12005FEC07F062
:101A300041E9120007EBB6F208EBB7F209EBB8F296
:101A40000AEBB9F2120096D8EFCFE6FFF2EF1FF0E3
:101A500091D8EECF5EF1EDCF5FF11200000EEA22D9
:101A60007DD1F2C100F00001020E016F1200D950C9
:101A7000020FE96EDACFEAFF1200EEC1E6FF05ECD5
:101A800020F041E9120088EC1EF046E912001DEC3E
:101A900009F0000912000250EA6A520FE96E010EC5
:101AA000EA22EF5012000C6EB3510D6EB4510E6E5F
:101AB000B5510F6E1200106EB351116EB451126E0B
:101AC000B551136E1200056EB351066EB451076E18
:101AD000B551086E1200086EB351096EB4510A6E0A
:101AE000B5510B6E1200300BE842E842E842E84282
:101AF0000108120001EBB3F202EBB4F203EBB5F212
:101B00001200D890B637B737B837B937E8061200A1
:101B1000010E826F4FC183F150C184F112002AD8A7
:101B2000EFCF04F01200640EE66EE66A2AEC1EF0B7
:101B300042E9120043E9E7CFD9FF1200E8EC12F0C6
:101B400041E90009120002EBE9FF03EBEAFF120092
:101B5000F8DDE0EF0BF049D9F5EF0EF003D90D0EEB
:101B60009BEF0EF03F0E0BDE3F0E09DE3F0E07DE51
:101B70003F0E1200020E9BEF0EF0EADD26DF09EBAE
:101B8000B6F20AEBB7F20BEBB8F20CEBB9F2D950A4
:101B9000050FABEF0EF0EA6A8825E96E8951EA225B
:101BA0001200CDD806D981C1E6FF82C1E6FF12003E
:101BB000BFD82DDF11D9F8DD00091200EA22EF505D
:101BC000E66EF6DDCBD035DEC9D0BBDD0D0E07EFFE
:101BD0000CF0B7DD040E1BDE070ED8800354E2D0F4
:101BE0000150EA6A8625E96E8751EA22EF50E66ED7
:101BF00001506FDE012A120083C1E6FF84C1E6FFB7
:101C000082EC11F04AE912009FEC1EF046E9120046
:101C1000020EE66EE66AD6C1E6FFD7C1E6FFDEEF4A
:101C20000EF0010EE66EE66AE2C1E6FFE3C1E6FFF2
:101C3000510EE66E010EE66E12008C0EE66EE66A3E
:101C4000DCC1E6FFDDC1E6FF000EE66E030EE66EC8
:101C5000120077DDE92A000EEA2212000101516923
:101C60004D694E694F695069DBDD010161931200D6
:101C7000AADDEDEF0CF065DD6FEF0CF0F3CFE9FFBF
:101C8000F4CFEAFF1200A8DD82E912000150B5EF9F
:101C90000BF0B355000EB455000EB55512000101FE
:101CA0006BDDE66E120098DD81E941E81200F2EC8E
:101CB0001FF041E912000B0E4C6F7ADDEF6AD8EF8E
:101CC0000BF053D8040E9BEF0EF0EF50E66E4AD89F
:101CD000EE521200F10EE66E3A0EC5DD032A120036
:101CE000035060D00D0E4BDD0A0EBFEF0BF03DD858
:101CF000020EDFEF0CF06051602B00010A6F010152
:101D00007E6B1200E9CF7FF1EACF80F11200ABDDEC
:101D10003DEF0DF001014C6BD8EF0BF0EFCF05F06C
:101D200020EF0CF015DFEF50120029DDABEF0DF0C6
:101D30005151A1EF0BF0E926000EEA2212004CC12E
:101D4000E6FF000EE66E000EE66E7EC1E6FF1200B4
:101D500048DD04EF0EF018DD2DEF0CF0E552E750F2
:101D6000EF6E12000B51B5EF0BF00150A1EF0BF02D
:101D7000080D84DF900EE926010EEA221200E8DE4B
:101D8000EF6A1200DEDC65DDABEF0DF0EA6AC60F2C
:101D9000E96E020EDEEF0DF079DFEE52E92A000E59
:101DA000EA22120046DD55DD032A1200E3DE82EF4F
:101DB0000EF0E9CFE6FFEACFE6FF12004F0EE66E27
:101DC000010EE66E1200CEDEB0DFCCDEE66EE3EF93
:101DD0001FF0A8DF800B1200010E816F826F98EF59
:101DE0000EF0A3DF005092EF0EF0200EBFEF0BF0CD
:101DF000FEEC15F084E941E8F250100B01E0010E11
:101E0000046EF2988B90020101EBB2F202EBB3F296
:101E1000030ED890B333B233E804FBE17F0E020126
:101E2000B2158009E66E09EC17F0020101EBB2F27F
:101E300002EBB3F2050ED890B237B337E804FBE1FA
:101E4000E00E0201B2151009E66E52EC16F00450D5
:101E5000E8B0F288E8A0F29889EF16F0FEEC15F0F1
:101E600083E941E8F250100B01E0010E036EF29895
:101E70008B9001EBE6FF52EC16F00350E8B0F288CD
:101E8000E8A0F29889EF16F0FEEC15F082E942E83E
:101E9000F250100B01E0010E036EF2988B9000EBF4
:101EA000E6FF09EC17F0AAEC21F0026E8B800350DC
:101EB000E8B0F288E8A0F29802508DEF16F0FEEC40
:101EC00015F083E942E8F250100B01E0010E046EB8
:101ED000F2988B90020100EBB2F201EBB3F2030E29
:101EE000D890B333B233E804FBE17F0E0201B2179E
:101EF000000EB317800EB211E66E09EC17F0020166
:101F000000EBB2F201EBB3F2050ED890B237B33763
:101F1000E804FBE1E00E0201B215E66E09EC17F0F1
:101F2000AAEC21F0036E8B800450E8B0F288E8A0A0
:101F3000F29803508DEF16F0FEEC15F081E943E8BE
:101F40008B94026A036A2C0E025C010E035804E2B1
:101F5000022A000E0322F7D78B84026A036A2C0E32
:101F6000025C010E035804E2022A000E0322F7D796
:101F7000070EE66E550EC7EC15F0540E4DEC16F03C
:101F8000016E070E0114F9E1026A036AE80E025CB1
:101F9000030E035804E2022A000E0322F7D718ECBE
:101FA00017F0E668070EC7EC15F0E668090EC7ECF7
:101FB00015F0E668030EC7EC15F0E668050EC7ECF1
:101FC00015F0016A080E015C0AE2015058EC16F0A7
:101FD0000150E8240B0FC7EC15F0012AF3D7800E4F
:101FE000E66E020EE66EE66E0DEC17F0E66A030E84
:101FF000F3EC15F0900EE66E060EF3EC15F0800E85
:10200000E66E070EF3EC15F0100EE66E080EF3EC1C
:1020100015F0210EE66E200EF3EC15F0800EE66E44
:10202000750EC7EC15F0400EE66E7D0EC7EC15F090
:10203000600EE66E7F0EC7EC15F0980EE66E310E60
:10204000C7EC15F0950EE66E5D0EC7EC15F070EC62
:1020500016F0016EA00E0114A008F9E1E60EE66E7E
:10206000650EC7EC15F0030E75EC16F0020EE66E69
:10207000010EF3EC15F0E66AD0C1E6FFE7DA42E9BB
:1020800044E9E7CFD9FF1200FEEC15F081E943E8FF
:1020900081A0F2820101D5A11ED0FEC1B2F2FFC122
:1020A000B3F20201B46BB56BD890B551000A08E6E3
:1020B000800EB25D000EB359000EB459000EB55932
:1020C00006E30101FE6BFF6B0101D59104D0010114
:1020D000FE2B000EFF230101FD69016A020E015C67
:1020E00009E236EC16F0000803E201EBFDF102D044
:1020F000012AF4D7020E0101FD5D01E3F6D0010EC5
:10210000036E1BEC17F0400B01E1036A0101856BC4
:102110008D6B3BEC17F0E92A000EEA22EF50CC0B56
:10212000026E0250080A01E1C2D0840A6CE0040A7F
:1021300049E0080A38E04C0A16E0040A01E0B7D08A
:10214000DDEC16F005E1E3EC16F002E10101858516
:102150000101858F035004E095EC16F0070E5CD06A
:10216000BEEC16F06AD00101858F03500AE095ECB1
:1021700016F00D0E9CEC16F0E70FB1EC16F0150EF4
:1021800062D0010114EC17F0EFCF8EF12AEC17F0BA
:102190000E0E27EC17F00F0E9CEC16F0E50FB1ECCD
:1021A00016F0170E50D001018585858F010E8D6FB9
:1021B00095EC16F0050E9CEC16F0F50FB1EC16F050
:1021C000070E41D0DDEC16F005E1E3EC16F002E17C
:1021D000010185850101858F010E8D6F035009E195
:1021E000BEEC16F09CEC16F0F10FB1EC16F00B0EF5
:1021F0002AD095EC16F0070E9CEC16F0F30FB1EC1C
:1022000016F0090E20D00101858F010E8D6F03504D
:102210000AE095EC16F00C0E9CEC16F0ED0FB1EC0C
:1022200016F00F0E10D03BEC17F00C0E2DEC17F043
:1022300014EC17F036EC17F00E0E9CEC16F0EB0FCA
:10224000B1EC16F0110E01018827000E892301015F
:102250001BEC17F0080B22E06AEC16F0F550010AAF
:1022600012E0050A0EE0030A0CE0040A08E0050A81
:1022700006E0040A02E0070A09E1150E05D00D0E7A
:1022800003D0090E01D0050E01018A5F050E010180
:102290008825886F000E8921896F858701011BECD5
:1022A00017F0070B0EE0030A08E0020A03E022D849
:1022B000000E1CD00101859102D00101858185931A
:1022C00003D0010185818583D6EC16F0EF50FE0F17
:1022D0007BEC16F0EFCF8CF1D6EC16F0EF047BEC34
:1022E00016F0EFCF8BF1010E01D0000E44E9E7CFDD
:1022F000D9FF1200020E0101FD5D03E2B7EC15F0FB
:10230000EF6A1200FEEC15F08BE94CE80C6A0D6ADE
:10231000C0EC15F0040B02E0010E066E11EC17F094
:1023200001E0076AC0EC15F0030B010802E1030E9F
:1023300006D0C0EC15F0030B000902E1010E0D6E92
:102340000101D15108180DE1D25109180AE1D11D3E
:1023500001E1D21D06E0050E0B6E0D8C010E0E6E16
:1023600003D0070E0B6E0E6A065002E0020E01D07B
:10237000080E0B26075002E0020E01D0080E0B26B5
:1023800011EC17F001E00D86C0EC15F0200B05E014
:10239000C0EC15F0040B01E10D8AC0EC15F0030B45
:1023A000030807E10D6A070E0B6E0E6A010E076E39
:1023B000039A0BEBE6FFDEDB11EC17F004E00B50A9
:1023C0000024050F02D00B500024E66ED3DB0DEB8A
:1023D000E6FFD0DBD5DB030B030804E1800EF3EC52
:1023E00016F02ED0065004E0075002E0880E0DD003
:1023F000065004E0075002E1C80E07D0065004E181
:10240000070402E18C0E01D0CC0EF3EC16F0B2DB27
:1024100008EBE6FFAFDB09EBE6FFACDBB1DB040B5F
:1024200004E0E668A7DBE6680BD006500BE004EB9F
:10243000E9FF05EBEAFF1EEC17F0042882EC16F02A
:1024400099DB0BD00D6A080E0D5C07E20D500424D9
:1024500082EC16F08FDB0D2AF6D70E5006E1D1C1C3
:10246000E6FF88DBD2C1E6FF85DB075007E0D3C17A
:10247000E6FF80DBD4C1E6FF7DDB0AD00D6A080EE3
:102480000D5C06E20D5058EC16F074DB0D2AF7D700
:1024900011EC17F03EE00D6A040E0D5C0AE20D50DF
:1024A000EA6ABF0FE96E010EEA221EEC17F00D2A50
:1024B000F3D70101BF2B000EC023C123C223BF519C
:1024C00005E1030EC01502E1E9EC16F0070EF66E09
:1024D000000EF76E0800F5CFE6FF4CDB0D6A100E1C
:1024E0000D5C12E20D5061EC16F00D500201B36B61
:1024F000800FB26F020EB323B2C2E6FFB3C2E6FF93
:102500000DEC17F00D2AEBD7E5DBF5CFE6FF590E02
:102510003EDB0D6A00500D5C0AE20D500124E96EAD
:10252000000E0220EA6E1EEC17F00D2AF3D701010F
:10253000D58126DB200B07E023DB040B04E1050E2D
:102540000D6ED58303D0010E0D6ED59311EC17F0EF
:1025500001E00D820DEBE6FF370E19DBA4EC16F05F
:102560000F6EB351106EB451116EB551126E81A041
:10257000F2820101D5B104D0D5A525D0D59521D0C1
:10258000E3DB136EB351146EB451156EB551166E74
:1025900013EBB6F214EBB7F215EBB8F216EBB9F297
:1025A000D9500F0FC6EC16F0D880C40EB255090EE4
:1025B000B355000EB455000EB555D9E228DB010124
:1025C000D591000E01D0010E4DE9E7CFD9FF1200E1
:1025D00015DB82E949E80050FF0A15E0FF0A02E036
:1025E000000E30D08B92040EE66E550ED0DA800EBF
:1025F000E66E450ECCDA600EE66E1B0EC8DA800E73
:10260000E66E6B0E1DD08B829FDB036EB351046EA2
:10261000B451056EB551066EBFDA02E2F8DA05D0A4
:10262000620E3BDB026E02ACF7D7B6DA02E2EFDAFB
:1026300006D056DB026EE00E0214A008F6E1DADBEB
:10264000A6DA010E4AE9E7CFD9FF1200D7DA83E90B
:102650000B0E015C03E301501A0802E2000E0BD0DE
:1026600001EBD0F10B0E015C100DF35003093DDBC3
:10267000C1DB8DDA010E41E9E7CFD9FF1200BEDAE6
:1026800082E942E80A0EE66E00EBE6FF4FEC1FF02F
:1026900041E9E750036E0A0EE66E00EBE6FF4CECF4
:1026A0001FF041E9E750400DF350026E035005085A
:1026B00002E2380E17D00350040802E2300E12D0A6
:1026C0000350030802E2280E0DD00350020802E274
:1026D000200E08D00350010802E2180E03D0035068
:1026E00002E0100E022602EBE6FF030E7CDA010E7A
:1026F00014D384DA85E902EBE9FF03EBEAFFEFCFBD
:10270000D3F10228E96E000E0320EA6EEFCFD4F178
:1027100000EBE9FF01EBEAFFEFCFD1F10028E96E12
:10272000000E0120EA6EEFCFD2F1D3C1E6FF070E13
:102730002EDAD4C1E6FF090E2ADAD1C1E6FF030E74
:1027400026DAD2C1E6FF050E22DA010E41E9E7CF13
:10275000D9FF120053DA84E941E800EBBCF101EB48
:10276000BDF102EBBEF1D6CFCFF101010B0ED06F60
:102770009CEC0FF00101D56B046A020E045C05E2CB
:102780000450F5DAEF6A042AF8D7D9CFE9FFDACF97
:10279000EAFFEF50040B0CE017DA88EC1EF046E974
:1027A000040E0101C027000EC123C22312DB0CD08E
:1027B0000101BF6BC06BC16BC26B0BDB0101010E72
:1027C000BF6FC06BC16BC26B010EA3D2D8CFE4FF49
:1027D000E0CFE4FFE46EDACFE4FFE2CFDAFFE9CF47
:1027E000E4FFEACFE4FFBAC2E4FFBBC2E4FFBCC22D
:1027F000E4FFBDC2E4FFF6CFE4FFF7CFE4FFF5CF7F
:10280000E4FFF3CFE4FFF4CFE4FFFACFE4FF02EEFE
:10281000B2F0080EE80403E3EECFE4FFFBD7E65284
:10282000EDD981E949E8F250100B01E167D1F2508E
:10283000020B01E163D1F292620E2FDA036EA0D98E
:10284000010B17E00101D5910101FE6BFF6B010146
:10285000D5A30FD0480E21DA056ED950050FE96EC9
:10286000DACFEAFFEF50010B02E00101D58501014B
:10287000D593D7DA01E1E0D00668016A020E015C67
:1028800007E2F4D903E181EB06F002D0012AF6D782
:10289000020E065C01E3CCD00101D5A783D05E0E09
:1028A000FCD9076E0101D59707B27FD0060E016EE5
:1028B000010ED8D9086E08BC02D0020E0126020E05
:1028C000D1D9086E0C0E08140C0802E1080E01D0D4
:1028D000020E0126026A080E025C0BE201500201A0
:1028E000C16B000FA7D9C30FE96E010EABDA022A44
:1028F000F2D7026A040E025C0BE201500201C16BC6
:10290000080F98D9CB0FE96E010E9CDA022AF2D794
:10291000016A0A0E015C1CE2ADD90C0E74D9EF50AD
:10292000800B14E0C30EE66E010EE66EA3D9040E12
:102930006AD9E9CFBEF2EACFBFF2E9CFE6FFEACF2C
:10294000E6FF26EC06F044E9000902E1012AE1D79E
:102950000A0E015C2CE27ED9EE500101CB5DEE50F7
:10296000CC59EE50CD59EE50CE591FE3E868CB1943
:102970000FE1E868CC190CE1E868CD1909E1E868D5
:10298000CE1906E167D9EE6AEE6AEE6AEE6A0FD0FA
:1029900061D9CBC1EEFFCCC1EEFFCDC1EEFFCEC100
:1029A000EEFF05D0D5A903D0D599BBD93FD0040EF1
:1029B000E66E730EECD8E66A030E10DA020FE66ECE
:1029C0000FD9E552E750EF6E0BD9EFCFBEF2580E9C
:1029D0000201BE5D28E20101D58B010E016E00D916
:1029E000EF50020FD88001541EE301500201C16B69
:1029F000000FC06F030EC123C0C2E6FFC1C2E6FFD5
:102A00005FEC0FF042E9E66EEBD8EE52E9CFBEF292
:102A1000EACFBFF201040201EA6AE924E96EBF517C
:102A200011DA012ADCD704DAE66A730EB0D804D0D2
:102A3000FFD90101D597D599A3D8100B5FE001010B
:102A4000D5A107D0D589800EE66E590EA0D869D9D8
:102A500054D0060E016E010E05D9096E09BC02D0D4
:102A6000020E0126020EFED8096E0C0E09140C0887
:102A700002E1080E01D0020E0126026A0A0E0124AC
:102A8000025C07E202500201BF6B010FFBD8022A71
:102A9000F5D701500201BF6B0C0FF4D8026E070E80
:102AA000F66E000EF76E0800F550025C06E0800E30
:102AB000E66E590E6CD80101D5890101D5B91ED039
:102AC000016A100E015C10E20150FBD801500201B6
:102AD000BF6BB00FBE6F020EBF23BEC2E6FFBFC208
:102AE000E6FF9BD9012AEDD70101D587F3D8F55030
:102AF000080DF3504009E66E590E49D8F2A409D0EA
:102B0000F2AA07D0F2940201C22BC25102E10201E3
:102B1000C32B78EC20F04AE9E7CFD9FFE55202EE6B
:102B2000B9F0080EE80403E3E5CFEDFFFBD7E5CFEE
:102B3000FAFFE5CFF4FFE5CFF3FFE5CFF5FFE5CFF3
:102B4000F7FFE5CFF6FFE5CFBDF2E5CFBCF2E5CF6D
:102B5000BBF2E5CFBAF2E5CFEAFFE5CFE9FFE5CF7B
:102B6000DAFFE550E5CFE0FFE5CFD8FF1000FD51DB
:102B7000B7EF16F00C500C2AE66EE66A0DEF17F070
:102B8000D950030FE96EDACFEAFFEF501200E66E7C
:102B90002EEC0FF042E91200D7D833D907EBB6F28A
:102BA00008EBB7F209EBB8F20AEBB9F2D950030F10
:102BB000EDD8B25126D907506A08180E0854000EF5
:102BC0000954000E0A541200040EE66EE66ADEC1D5
:102BD000E6FFDFC1E6FFBF0EE66E010EE66E1200F5
:102BE0000650B7EF16F0E66E020EE66E0DEF17F028
:102BF000EE52E9CF86F1EACF87F11200D9CFE6FF96
:102C0000E1CFD9FF1200E926000EEA2212009CEC67
:102C10000FF0D10EE66E010EE66ED30EE66E010EDB
:102C2000E66E67DD44E91200EE52E9CF88F1EACFA3
:102C300089F11200C06F030EC1230250C025BE6F80
:102C4000000EC121BF6FBEC2E6FFC8D8E66E0250BB
:102C5000EA6A12000150040D04D9330EE926000E71
:102C6000EA221200E66E030EEEEF16F001507FD856
:102C7000EF50120001500E0DF4D8000EE926030E9D
:102C8000EA221200BE6F030EBF23BEC2E6FFBFC220
:102C9000E6FF5FEC0FF042E91200E66E44EC0FF045
:102CA00041E91200B6D800EBE6FFB3D88B801200E2
:102CB0000101EA6ABD25E96EBE51EA22EFCFE6FFC7
:102CC0001200F76A2E0FF66E000EF7220800F5CFFD
:102CD000E6FF1200060EF66E000EF76E08001200F8
:102CE0000F0EE66E020EEEEF16F0E66EE66A020ECC
:102CF000E66E0DEF17F00201EA6AB225E96EB351F4
:102D0000EA221200E96E000E0520EA6EEFCFE6FF20
:102D1000120042E9E7CFD9FF120043E9E7CFD9FF1C
:102D20001200010EE66E1B0E1200A5D8030E95D8F8
:102D300091D8040E27EF17F001018627000E872394
:102D4000010115DFEF50120044EC21F0BAC2B2F2DB
:102D5000BBC2B3F2BCC2B4F2BDC2B5F20201B25101
:102D6000120001018A6F010102DF14EF16F0590D04
:102D700078D8000EE926020EEA2212007CD8070E4F
:102D80006CD868D8080E63D8090E1200E96EDACF45
:102D9000EAFFEE50B65DB26FEE50B759B36FEE502A
:102DA000B859B46FEE50B959B56F120064D8E9CF75
:102DB000B2F2EACFB3F2B7EF15F04CD8050E23DF2D
:102DC000EF50FF08120046D8060E1DDFEF50FF0837
:102DD0001200FADE9FEC1EF046E91200E66E5FEC90
:102DE0000FF042E91200E66EC5DE0101CF51CF2B94
:102DF000E66E1200040EE66E6D0EC9DEE66A6D0E1A
:102E00001200076EB351086EB451096EB5510A6EC7
:102E1000120096EC21F041E91200F8EC0EF043E9C3
:102E20001200AEDE080B120015D80D0E03EF16F0DF
:102E300078DFC7EF15F00ED8EF501200EFCFE6FFA6
:102E4000BAEF15F0EA22E552E750EF6E1200DBDE32
:102E500036EF17F08CDEEE521200D5DEEFCF8EF19A
:102E60001200F3CFE9FFF4CFEAFF1200EFCF8FF1AA
:0C2E70007EDEF8EF15F001012AEF17F0EC
:042E7C00D9CFE6FFC5
:102E8000E1CFD9FF81E952E80368046A056A0E6A56
:102E90000F6A106A116A126A3EEC20F0BFEC1FF054
:102EA000490EE66E3A0EE66EC8EC1FF042E9320EAD
:102EB000E66E3A0EE66EC8EC1FF042E9170EE66EBB
:102EC0003A0EE66EC8EC1FF042E9FC0EE66E390ED3
:102ED000E66EC8EC1FF042E9E40EE66E390EE66ECF
:102EE000C8EC1FF042E9C20EE66E390EE66EC8EC81
:102EF0001FF042E9A70EE66E390EE66EC8EC1FF031
:102F000042E98C0EE66E390EE66EC8EC1FF042E91F
:102F10006C0EE66E390EE66EC8EC1FF042E9550EF7
:102F2000E66E390EE66EC8EC1FF042E9150EE66E4D
:102F3000390EE66EC8EC1FF042E9D50EE66E380E8B
:102F4000E66EC8EC1FF042E9930EE66E380EE66EB0
:102F5000C8EC1FF042E9530EE66E380EE66EC8EC80
:102F60001FF042E9110EE66E380EE66EC8EC1FF057
:102F700042E9D10EE66E370EE66EC8EC1FF042E96C
:102F8000CC0EE66E370EE66EC8EC1FF042E9899073
:102F90008992010EE66EE66AAC0EE66E370EE66EBC
:102FA0005EEC20F044E98150200B1BE1010EE66E3F
:102FB00074EC06F041E9010814E1010EE66EE66AE0
:102FC000900EE66E370EE66E5EEC20F044E9430E9E
:102FD000E66E370EE66EC8EC1FF042E981AAFED716
:102FE000FAD0E66A74EC06F041E9290EE66E370E77
:102FF000E66EC8EC1FF042E9E66AE66A190EE66E74
:10300000370EE66E5EEC20F044E9E668E668E668B6
:10301000E6680A0EE66E84EC07F045E9026E02509F
:1030200001E1ACD0FF0EE66E360EE66EC8EC1FF086
:1030300042E9016A0250015C01E3A0D0F50EE66EA0
:10304000360EE66EC8EC1FF042E901500F0DF3CFCB
:10305000E9FFF4CFEAFF0C0EE926010EEA22EFCFDA
:10306000E6FF05EC20F041E9EB0EE66E360EE66E6B
:10307000C8EC1FF042E901500F0DF3CFE9FFF4CF88
:10308000EAFF0C0EE926010EEA220B0EE926000EDD
:10309000EA22EFCFE6FFF2EC1FF041E9DD0EE66E2B
:1030A000360EE66EC8EC1FF042E9026A010E025CC1
:1030B00020E201500F0DF3CFE9FFF4CFEAFF0C0E31
:1030C000E926010EEA220E0EE926000EEA22E9CFD9
:1030D000B2F2EACFB3F202500201EA6AB225E96E17
:1030E000B351EA22EFCFE6FFF2EC1FF041E9022AEA
:1030F000DDD7D10EE66E360EE66EC8EC1FF042E963
:1031000001500F0DF3CFE9FFF4CFEAFF0C0EE926D3
:10311000010EEA22090EE926000EEA22E92A000E33
:10312000EA22EFCFE6FFF2EC1FF041E901500F0D6C
:10313000F3CFE9FFF4CFEAFF0C0EE926010EEA22F5
:10314000090EE926000EEA22EFCFE6FFF2EC1FF0AF
:1031500041E9CE0EE66E360EE66EC8EC1FF042E98F
:1031600001500F0DF3CFE9FFF4CFEAFF0C0EE92673
:10317000010EEA22EF50036E012A5CD7FF0E035CBA
:1031800006E003EBE6FF5FEC07F041E908D0AD0E87
:10319000E66E360EE66EC8EC1FF042E936D7E66AF8
:1031A00074EC07F041E9E66AE66A12EC08F042E9DD
:1031B000016E980EE66E360EE66EC8EC1FF042E920
:1031C000010EE66EEEC1E6FF790EE66E360EE66E95
:1031D0005EEC20F044E98980E66863EC04F041E9A4
:1031E0001DEC09F0000901E180D0010101A707D021
:1031F000700EE66E360EE66EC8EC1FF042E9010175
:103200000151030B000908E0540EE66E360EE66E1F
:10321000C8EC1FF042E907D03A0EE66E360EE66EB5
:10322000C8EC1FF042E909C1E6FFF2EC1FF041E9EA
:10323000010101AD34D0330EE66E360EE66EC8ECF9
:103240001FF042E9010101AF16D0010E0101EA6A47
:103250000425E96E0551EA22EFCFE6FFF2EC1FF0FC
:1032600041E904C1E9FF05C1EAFFEFCFE6FFF2EC57
:103270001FF041E914D0016A080E015C10E2070E4C
:10328000D88001540101EA6A0425E96E0551EA2259
:10329000EFCFE6FFF2EC1FF041E9012AEDD7300E47
:1032A000E66E360EE66EC8EC1FF042E9016A0101D7
:1032B0000851015C0EE201500101EA6A0625E96E3F
:1032C0000751EA22EFCFE6FFE3EC1FF041E9012AC4
:1032D000EED7897225EC09F0112A11EBE6FF10EB0D
:1032E000E6FF58EC20F042E942D10E5003082AE2F2
:1032F000E66AE66A110EE66E360EE66E5EEC20F0C9
:1033000044E9ED0EE66E350EE66EC8EC1FF042E9BC
:10331000010EE66E28EC07F041E9E668E668E6682B
:10332000E668E66ACEEC0AF045E90E6A0F6AE66ADC
:10333000EEC1E6FFCE0EE66E350EE66E5EEC20F0D8
:1033400044E902D0010E0F6E0F5001E110D10F6A57
:10335000E66A28EC07F041E90400D180F290F28699
:10336000ACA2FED70300F296D19064EC20F0126E6E
:10337000020EE66E28EC07F041E9000813E2B80EF1
:10338000E66E350EE66EC8EC1FF042E90E2AE66ADC
:103390000EEBE6FF9B0EE66E350EE66E5EEC20F061
:1033A00044E90AD00E5007E011EBE6FF10EBE6FF10
:1033B00058EC20F042E90E6A1250020A62E0030A59
:1033C00001E0D4D001010B0E4C6F060EE66E04EB4B
:1033D000E6FF4FEC1FF041E9E750000915E101015C
:1033E0004C514C2BEA6A000FE96E000EEA220D0EDA
:1033F000EF6E01014C514C2BEA6A000FE96E000E92
:10340000EA220A0EEF6E2FD0016A150E015C2BE244
:10341000060EE66E04EBE6FF4FEC1FF041E9E750C5
:10342000FF0F150DF3CFB2F2F4CFB3F2360E020157
:10343000B227410E0201B32301500201F76AB225FF
:10344000F66EB351F7220800F550E66E01014C51BB
:103450004C2BEA6A000FE96E000EEA22E552E750B3
:10346000EF6E012AD2D7042AE66A29EC09F041E975
:1034700011EBE6FF102A10EBE6FF58EC20F042E9D2
:1034800076D001010B0E4C6F060EE66E05EBE6FFE3
:103490004FEC1FF041E9E750000915E101014C51E3
:1034A0004C2BEA6A000FE96E000EEA220D0EEF6E59
:1034B00001014C514C2BEA6A000FE96E000EEA2222
:1034C0000A0EEF6E2FD0016A0B0E015C2BE2060E86
:1034D000E66E05EBE6FF4FEC1FF041E9E750FF0F0A
:1034E0000B0DF3CFB2F2F4CFB3F29F0E0201B2276D
:1034F000410E0201B32301500201F76AB225F66EB4
:10350000B351F7220800F550E66E01014C514C2BE7
:10351000EA6A000FE96E000EEA22E552E750EF6E0C
:10352000012AD2D7052A010EE66EE66A58EC09F0A8
:1035300042E9000912E1880EE66E350EE66EC8EC2F
:103540001FF042E9010EE66EE66A780EE66E350E71
:10355000E66E5EEC20F044E901D0102A11EBE6FFA4
:1035600010EBE6FF58EC20F042E901D000D038D64D
:0835700053E9E7CFD9FF120077
:0835780020556E696361737454
:10358000204661696C6564000D0A556E696361735C
:1035900074204661696C65640D0A00436F6E6E6548
:1035A0006374696F6E204C6F737420202020202577
:1035B000642054696D6573000D0A44617461205282
:1035C000657175657374204661696C65640020528D
:1035D0006573796E6368726F6E697A6564202074B2
:1035E0006F204368616E6E656C202564000D0A5281
:1035F0006573796E6368726F6E697A696E6720743D
:10360000686520436F6E6E656374696F6E2E2E2E33
:1036100000526573796E6368726F6E697A696E675E
:103620002074686520436F6E6E656374696F6E0009
:103630003A20002066726F6D2000556E69636173D9
:1036400074205061636B65742077697468205253ED
:103650005349200042726F6164636173742050614A
:10366000636B657420776974682052535349200056
:1036700053656375726564200020436F6E6E6563E9
:10368000746564205065657220206F6E2043686108
:103690006E6E656C202564000D0A436F6E6E656367
:1036A00074696F6E2043726561746564000D0A4E23
:1036B0006F205375697461626C652050414E2C20F7
:1036C00052657363616E6E696E672E2E2E000D0A51
:1036D000002020202050414E49443A200020202044
:1036E00050656572496E666F3A2000202020525363
:1036F00053493A20004368616E6E656C3A20000DB4
:103700000A416374697665205363616E2052657364
:10371000756C74733A200D0A0041637469766520F4
:103720005363616E6E696E67000D0A537461727443
:10373000696E6720416374697665205363616E2EFC
:103740002E2E000D0A4E6574776F726B20467265DF
:10375000657A6572204665617475726520697320AB
:10376000656E61626C65642E2054686572652077B1
:10377000696C6C206265206E6F2068616E642D73C9
:1037800068616B652070726F636573732E0D0A003C
:10379000204E6574776F726B20467265657A65722C
:1037A00020202020454E41424C454400466561742E
:1037B000757265204D6957692050524F4D524632FF
:1037C000344A3430204E6F64652032000D0A0D0AF1
:1037D000000D0A2020202020202020202020202032
:1037E000202020202020202077696C6C206265201A
:1037F000746F67676C65642075706F6E20726563A7
:10380000656976696E67206D657373616765732E90
:10381000000D0A20202020202020202020202020F1
:10382000202020202020202050494344454D205A6C
:10383000206F72204578706C6F726572203136206F
:1038400064656D6F20626F617264732E204C454415
:103850002032000D0A20202020202020202020209F
:1038600020202020202020202020427574746F6E9C
:10387000203220746F20756E696361737420656EE9
:1038800063727970746564206D6573736167652018
:103890006F6E000D0A2020202020202020202020D4
:1038A00020202020202020202020507573682042D6
:1038B0007574746F6E203120746F2062726F616452
:1038C000636173742061206D6573736167652E2079
:1038D00050757368000D0A20202020202020202011
:1038E000202020202020202020202020746F2069EC
:1038F0006E64696361746520697420697320636F05
:103900006E6E656374656420746F207468652070E2
:103910006565722E000D0A20202020202020202006
:10392000202020202020202020202020506F77657C
:1039300072206F6E2074686520626F6172642075FA
:103940006E74696C204C45442031206C6967687442
:1039500073207570000D0A20202044656D6F20498A
:103960006E737472756374696F6E3A000D0A20206D
:103970002020205246205472616E7363656976651B
:10398000723A204D524632344A3430000D0A20201B
:103990002020202020202020202020204C454420B2
:1039A000323A20524131000D0A20202020202020D0
:1039B000202020202020204C454420313A20524114
:1039C00030000D0A20202020202020202020202030
:1039D00020202020202020202052533233322070FB
:1039E0006F7274000D0A4F757470757420436F6E9A
:1039F00066696775726174696F6E3A000D0A2020FE
:103A0000202020202020202020427574746F6E20FA
:103A1000323A20524234000D0A202020202020205B
:103A200020202020427574746F6E20313A2052425B
:103A300035000D0A496E70757420436F6E666967B4
:103A400075726174696F6E3A000D0A537461727415
:103A5000696E67204E6F64652032206F6620466570
:103A600061747572652044656D6F20666F72204DBC
:103A700069576928544D292050524F20537461636F
:103A80006B202E2E2E000D0A000D0A526573796EE2
:103A90006368726F6E697A656420436F6E6E6563EA
:103AA00074696F6E20746F204368616E6E656C2060
:103AB000000D0A436865636B696E67204368616E39
:103AC0006E656C20000D0A5363616E204368616E61
:103AD0006E656C200053686F7274416464723A00C2
:103AE0002050414E49443A004368616E6E656C3A1D
:103AF000002020000D0A417661696C61626C6520CE
:103B00006E6F6465730D0A48616E646C652052586F
:103B10002044432050414E49442041444452204CCB
:103B20004F4E475F41444452202020202020202037
:103B3000504545525F494E464F0D0A0020204368CC
:103B4000616E6E656C3A2000202050414E49443A27
:103B50002000202053686F727420416464723A2000
:103B6000000D0A0D0A416464726573733A2030785F
:103B7000000D0A4A6F696E20746865206E6574775F
:103B80006F726B207375636365737366756C6C79A4
:033B90000D0A001B
:0C3B9400D9CFE6FFE1CFD9FF85E944E876
:103BA00001D054D000EBE6FF01EBE6FF02EBE6FFAD
:103BB00003EBE6FF280EE66EE66AE66AE66A6EEC5E
:103BC0001FF0E552E5CFB5F2E5CFB4F2E5CFB3F2A1
:103BD000E7CFB2F20201B251056EB351066EB45195
:103BE000076EB551086ED950050FE96EDACFEAFFBE
:103BF000AF0EEE5E000EEE5A000EEE5A000EEE5ABA
:103C0000083408E205502D08000E0654000E075433
:103C1000000E085401E31AD0083408E205500008E9
:103C2000000E0654000E0754000E08540FE2000068
:103C3000D950050FE96EDACFEAFF2A0EEE5E000ECC
:103C4000EE5A000EEE5A000EEE5AE6D745E9E7CFDF
:103C5000D9FF1200D9CFE6FFE1CFD9FF83E944E8CD
:103C600000EBE6FF01EBE6FFE66AE66AA00EE66E11
:103C70000F0EE66EE66AE66A6EEC1FF0E552E5CFDF
:103C8000B5F2E5CFB4F2E5CFB3F2E7CFB2F202017D
:103C9000B251036EB351046EB451056EB551066E48
:103CA000D950030FE96EDACFEAFFAA0EEE5E000EDE
:103CB000EE5A000EEE5A000EEE5A063408E2035099
:103CC000C308000E0454000E0554000E065402E30F
:103CD0001BD01AD0063408E203500008000E04542A
:103CE000000E0554000E06540FE20000D950030FD9
:103CF000E96EDACFEAFF270EEE5E000EEE5A000EF6
:103D0000EE5A000EEE5AE6D745E9E7CFD9FF12008A
:103D1000A6D887E9005001100EE098D8A69EA69C70
:103D2000A68038EC00F0A0D8A8CFEFFF0006015A1B
:103D3000022A0322EFD741E9E7CFD9FF12008FD83B
:103D400087E941E80050011020E080D88DD8EF507D
:103D5000A86EA69EA69CA684F250800B01E0010EE0
:103D6000076EF29E550EA76EAA0EA76EA68207508A
:103D7000E8B0F28EE8A0F29EA6B2FED7A6940006A6
:103D8000000E015A022A0322DDD742E9E7CFD9FF0C
:103D9000120065D885E9E40EE96E010EEA6E0201B3
:103DA000EE500224B26FED500320B36FB251000801
:103DB000040EB35502E2000E0ED000EBE9FF01EB5A
:103DC000EAFFE4C1EEFFE5C1EDFF01010250E42787
:103DD0000350E523010E41E9E7CFD9FF12003FD898
:103DE00081E941E8010E016E0101E46BE56BD60E3D
:103DF000E66E010EE66E020E23D8D80EE66E010EB8
:103E00003BD8DA0EE66E010E37D8DC0EE66E010EF8
:103E1000E66E8C0E15D8DE0EE66E010EE66E040E12
:103E20000FD8E00EE66E010EE66E020E09D8E20E25
:103E3000E66E010E21D8015042E9E7CFD9FF12000A
:103E4000E66EE66AA6DF44E901161200020103EB02
:103E5000B2F2B36BB2C2AAFF02EBA9FF1200D9CF34
:103E6000E6FFE1CFD9FF120004EBE9FF05EBEAFF23
:103E7000042A000E05221200E66E010E20EF1FF04C
:103E800042E8D9CFE6FFDACFE6FFE1CFD9FFE2CFB4
:103E9000DAFF86E9036A1200F3DF038003D0F0DF64
:103EA00001D00382026A080EE76ED890013602360E
:103EB0000050025C02E3026E012AE72EF7D703B23C
:103EC000120003B081EB00F003A082EB00F0E5529A
:103ED000E5CFDAFFE7CFD9FF43E9120044E8D9CFB5
:103EE000E6FFDACFE6FFE1CFD9FFE2CFDAFF8EE9D6
:103EF00080EB08F081EB09F082EB0AF083EB0BF02A
:103F000004500802F350006EF450016E0450090290
:103F1000F3500126000EF420026E04500A02F35002
:103F20000226000EF420036E04500B02F350032609
:103F300005500802F3500126F4500222000E03221D
:103F400005500902F3500226F450032205500A02DC
:103F5000F350032606500802F3500226F4500322C1
:103F600006500902F350032607500802F3500326B7
:0E3F7000E552E5CFDAFFE7CFD9FF48E9000CB4
:023F7E00948E1F
:103F8000949C240EAC6E900EAB6E330EAF6E12008E
:103F9000D9CFE6FFE1CFD9FF83E941E800EBF6FF97
:103FA00001EBF7FF002A000E01220800F550036E16
:103FB000035005E003EBE6FF06D841E9EFD742E9FD
:103FC000E7CFD9FF12004ED8ACA2FED700EBADFF71
:103FD00041E9E7CFD9FF1200ABA202D0AB98AB8882
:103FE000AE5012003FD841E880EB02F000380F0BD2
:103FF0000F0B006E00502BD80F0E0214006E0050F5
:1040000026D842E9E7CFD9FF12002CD8640E005C15
:1040100005E3640EE66E00EBE6FF2AD80A0E005CAC
:1040200009E30A0EE66E640EE66E00EBE6FF4FEC67
:104030001FF01ED80A0EE66E00EBE6FF4FEC1FF0F5
:1040400041E9E75004D841E9E7CFD9FF1200F76A08
:104050001E0FF66E000EF7220800F5CFE6FFB3DF65
:1040600041E91200D9CFE6FFE1CFD9FF82E9120082
:0C4070004CEC1FF041E9E75027EF20F076
:04407C00D190F26A83
:10408000F16AF06A9368FD0E8B6ED00E946EC00ECE
:10409000C76E200EC66E0F0EC16E040E896EF80E2E
:1040A000926E8B809490F292D08EF19CF28E1200E0
:1040B0003DD883E941E9E7CFD9FF120037D885E938
:1040C00041E9E7CFD9FF120031D881E944E881BA4C
:1040D00004D081AAFED7010E07D081B804D081A8F0
:1040E000FED7020E01D0000E45E9E7CFD9FF12003E
:1040F000F250100B04E0F250020B01E0F292F0508B
:10410000100B04E0F050020B01E0F092F250080BAB
:1041100004E0F250010B01E0F290A050020B05E028
:10412000A150020B02E0A19289701200D9CFE6FFE4
:06413000E1CFD9FF1200EF
:0A41360020B2202020B22020B22089
:10414000B22020202020B220B20D0AB220B220B22C
:1041500020B2202020B22020B22020B220200D0A40
:10416000B22020B22020B220B220B22020B22020E3
:10417000B220B20D0AB22020B22020B220B22020FC
:10418000B220B220B22020B20D0AB22020B22020EC
:10419000B220B2202020B220B2202020B20D0AB2DC
:1041A000B2B22020B2B2B2B20D0AB22020B220B216
:1041B0002020200D0AB22020B220B2B2B2B20D0AE5
:1041C000B22020B220B22020200D0AB2B2B22020AC
:0641D000B2B2B2B20D0A0A
:0A41D6003E0EF66E000EF76E000EAE
:1041E000F86E01010900F550F86F0900F550F96FFC
:1041F00003E1F86701D03DD00900F550F36F0900E5
:10420000F550F46F0900F550F56F09000900F550FD
:10421000E96E0900F550EA6E090009000900F55041
:10422000F66F0900F550F76F09000900F6CFFAF1B3
:10423000F7CFFBF1F8CFFCF1F3C1F6FFF4C1F7FFC4
:10424000F5C1F8FF0101F65302E1F75307E0090059
:10425000F550EE6EF607F8E2F707F9D7FAC1F6FF68
:10426000FBC1F7FFFCC1F8FF0101F807000EF95B85
:04427000BFD71200A2
:0C427400050ED56EF184F294F28AD58E0E
:104280000201C26BC36B1200D9CFE6FFE1CFD9FFA9
:1042900081E946E8036A046AF29AF250040B01E0ED
:1042A000010E056ED650016ED750026EF250040B0F
:1042B00001E0010E066E0650055CEFE1055006E0D8
:1042C000F2940201C22BC25101E1C32B0201C2517F
:1042D0000326C3510426F28A01EBBAF202EBBBF2C9
:1042E00003EBBCF204EBBDF247E9E7CFD9FF1200C4
:1042F00078000000B40000002C0100001C02000047
:10430000FC030000BC0700003C0F00003C1E000046
:104310003C3C00003C7800003CF000003CE0010028
:0C4320003CC003003C8007003C000F0084
:04432C00D9CFE6FF00
:10433000E1CFD9FF82E941E89E96C950026EC69E40
:1043400000EBC9FFC6BEFBD79EA6FED742E9E7CF6A
:0E435000D9FF1200E66AEADF41E9C950120007
:02435E00800ECF
:10436000F36E00EE00F00F0E01D81200EA6002D0EA
:0E437000EE6AFCD7F350E9601200EE6AFCD74B
:02437E001EEE31
:1043800000F02EEE00F0F86AEBEC20F007EC00F005
:084390003EEC17F0FBD7120010
:0843980002776655443322113F
:0543A0000000FF001108
:020000040030CA
:0100010006F8
:010002001FDE
:0100030016E6
:01000500807A
:01000600C138
:00000001FF
