:0400000042EF00F0DB
:10000800FACF1CF0FBCF1DF0E9CF1EF0EACF1FF0AE
:10001800E1CF20F0E2CF21F0D9CF22F0DACF23F0E0
:10002800F3CF24F0F4CF25F0F6CF26F0F7CF27F062
:10003800F8CF28F0F5CF29F0D5EC08F0000ECC6EFB
:100048009E9229C0F5FF28C0F8FF27C0F7FF26C0F9
:10005800F6FF25C0F4FF24C0F3FF23C0DAFF22C057
:10006800D9FF21C0E2FF20C0E1FF1FC0EAFF1EC088
:10007800E9FF1DC0FBFF1CC0FAFF110093EF08F059
:1000880022EC02F0BCEC08F00001766F606B765150
:100098000F0E626F920E616F0F0E646F890E636FA1
:1000A800776F656B7751786F666B785168696769A8
:1000B8006A69696979696B69795135EC04F00001FD
:1000C800766F010E606F76510F0E626F920E616F40
:1000D8000F0E646F890E636F776F010E656F77512E
:1000E800786F010E666F7851686967696A6969692E
:1000F80079696B69795135EC04F00001766F020E6D
:10010800606F76510F0E626F920E616F0F0E646F03
:10011800890E636F776F020E656F7751786F020EE5
:10012800666F7851686967696A69696979696B692D
:10013800795135EC04F00001766F030E606F76514B
:100148000F0E626F920E616F0F0E646F890E636FF0
:10015800776F030E656F7751786F030E666F78516E
:10016800686967696A69696979696B69795135ECA0
:1001780004F00001766F040E606F76510F0E626F07
:10018800920E616F0F0E646F890E636F776F050EA5
:10019800656F7751786F040E666F78516869676983
:1001A8006A69696979696B69795135EC04F000010C
:1001B800766F050E606F76510F0E626F960E616F47
:1001C8000F0E646F8D0E636F776F656B7751786F65
:1001D800050E666F7851686967696A69696979693E
:1001E8006B69795135EC04F00001766F060E606F8B
:1001F80076510F0E626F960E616F0F0E646F8D0E43
:10020800636F776F010E656F7751786F060E666FB3
:100218007851686967696A69696979696B69795147
:1002280035EC04F00001766F070E606F76510F0E03
:10023800626F960E616F0F0E646F8D0E636F776F2E
:10024800020E656F7751786F070E666F785168698F
:1002580067696A69696979696B69795135EC04F08C
:10026800A9EC08F00001766F686B76511AEC08F07B
:1002780068C07AF069C07BF020EE02F000017A5184
:10028800D9267B51DA22DF50766F76C09EF0010EB8
:10029800686F76511AEC08F068C07AF069C07BF094
:1002A80020EE02F000017A51D9267B51DA22DF5084
:1002B800766F76C0BEF0020E686F76511AEC08F0C1
:1002C80068C07AF069C07BF020EE02F000017A5134
:1002D800D9267B51DA22DF50766F76C0DEF0030E26
:1002E800686F76511AEC08F068C07AF069C07BF044
:1002F80020EE02F000017A51D9267B51DA22DF5034
:10030800766F76C0FEF0040E686F76511AEC08F02E
:1003180068C07AF069C07BF020EE02F000017A51E3
:10032800D9267B51DA22DF50766F76C01EF1050E92
:10033800686F76511AEC08F068C07AF069C07BF0F3
:1003480020EE02F000017A51D9267B51DA22DF50E3
:10035800766F76C03EF1060E686F76511AEC08F09B
:1003680068C07AF069C07BF020EE02F000017A5193
:10037800D9267B51DA22DF50766F76C05EF1070E00
:10038800686F76511AEC08F068C07AF069C07BF0A3
:1003980020EE02F000017A51D9267B51DA22DF5093
:1003A800766F76C07EF1030ECA12B40ECB6ECA8485
:1003B8009E929D828C6A020E20EE9BF0DF6203D033
:1003C800E00E8C6E8C80020E20EEBBF0DF6203D054
:1003D800D00E8C6E8C80020E20EEDBF0DF6203D034
:1003E800B00E8C6E8C80020E20EEFBF0DF6203D024
:1003F800700E8C6E8C80020E21EE1BF0DF6203D033
:10040800E00E8C6E8C82020E21EE3BF0DF6203D090
:10041800D00E8C6E8C82020E21EE5BF0DF6203D070
:10042800B00E8C6E8C82020E21EE7BF0DF6203D060
:10043800700E8C6E8C82B5EC07F0BCD79B8CF28C5E
:10044800F28E8C6A956AE00E8C6E8C802B6A140E84
:100458002A6E7CEC08F08C6AD00E8C6E8C802B6A2D
:10046800140E2A6E7CEC08F08C6AB00E8C6E8C80B0
:100478002B6A140E2A6E7CEC08F08C6A700E8C6E57
:100488008C802B6A140E2A6E7CEC08F08C6AE00EC5
:100498008C6E8C822B6A140E2A6E7CEC08F08C6AA7
:1004A800D00E8C6E8C822B6A140E2A6E7CEC08F0AF
:1004B8008C6AB00E8C6E8C822B6A140E2A6E7CECC1
:1004C80008F08C6A700E8C6E8C822B6A140E2A6E61
:1004D8007CEC08F08C6AE00E8C6E8C842B6A140E0F
:1004E8002A6E7CEC08F08C6AD00E8C6E8C842B6A99
:1004F800140E2A6E7CEC08F08C6AB00E8C6E8C841C
:100508002B6A140E2A6E7CEC08F08C6A700E8C6EC6
:100518008C842B6A140E2A6E7CEC08F08C6AE00E30
:100528008C6E8C862B6A140E2A6E7CEC08F08C6A12
:10053800D00E8C6E8C862B6A140E2A6E7CEC08F01A
:100548008C6AB00E8C6E8C862B6A140E2A6E7CEC2C
:1005580008F08C6A700E8C6E8C862B6A140E2A6ECC
:100568007CEC08F08C6A700E8C6E8C862B6A140EEC
:100578002A6E7CEC08F08C6AB00E8C6E8C862B6A26
:10058800140E2A6E7CEC08F08C6AD00E8C6E8C8669
:100598002B6A140E2A6E7CEC08F08C6AE00E8C6EC6
:1005A8008C862B6A140E2A6E7CEC08F08C6A700E0E
:1005B8008C6E8C842B6A140E2A6E7CEC08F08C6A84
:1005C800B00E8C6E8C842B6A140E2A6E7CEC08F0AC
:1005D8008C6AD00E8C6E8C842B6A140E2A6E7CEC7E
:1005E80008F08C6AE00E8C6E8C842B6A140E2A6ECE
:1005F8007CEC08F08C6A700E8C6E8C822B6A140E60
:100608002A6E7CEC08F08C6AB00E8C6E8C822B6A99
:10061800140E2A6E7CEC08F08C6AD00E8C6E8C82DC
:100628002B6A140E2A6E7CEC08F08C6AE00E8C6E35
:100638008C822B6A140E2A6E7CEC08F08C6A700E81
:100648008C6E8C802B6A140E2A6E7CEC08F08C6AF7
:10065800B00E8C6E8C802B6A140E2A6E7CEC08F01F
:100668008C6AD00E8C6E8C802B6A140E2A6E7CECF1
:1006780008F08C6AE00E8C6E8C802B6A140E2A6E41
:100688007CEC08F0000E8C6E000C20EE04F00A5092
:10069800D9260B50DA22DECF0CF0DDCF0DF00AC0E0
:1006A800D9FF0BC0DAFFDECF0EF0DDCF0FF00E1E44
:1006B8000F1E0E4A0F2A0C500E24106E0D500F20DC
:1006C800116E11AE02D0116A106A20EE18F00A50AD
:1006D800D9260B50DA2210C0DEFF11C0DDFFA6D0EC
:1006E80020EE1AF00A50D9260B50DA22DE06000E48
:1006F800DD5AD92ADD1CFF0ED8B4DF1811E120EE2F
:100708001CF00A50D9260B50DA22010EDF6E20EEBB
:100718001AF00A50D9260B50DA22020EDE6EDD6A74
:1007280020EE04F00A50D9260B50DA220AC0E1FF65
:100738000BC0E2FFDECFE6FFDECFE6FFDECFE6FF4F
:10074800DDCFE5FF80D020EE12F00A50D9260B50FD
:10075800DA22DECF0CF0DDCF0DF010500C5C11501A
:100768000D5817E220EE1AF00A50D9260B50DA225B
:10077800DE06000EDD5AD92ADD1CFF0ED8B4DF18BC
:1007880011E120EE1CF00A50D9260B50DA22020E95
:10079800DF6E20EE1AF00A50D9260B50DA22020E2C
:1007A800DE6EDD6A0AC001F00BC002F0046A040EB6
:1007B800036E4CEC07F047D020EE14F00A50D9260F
:1007C8000B50DA22DECF0CF0DDCF0DF00C50105CB0
:1007D8000D50115817E220EE1AF00A50D9260B5086
:1007E800DA22DE06000EDD5AD92ADD1CFF0ED8B447
:1007F800DF1811E120EE1CF00A50D9260B50DA223E
:10080800010EDF6E20EE1AF00A50D9260B50DA22BC
:10081800020EDE6EDD6A0AC001F00BC002F0010EA6
:10082800046E900E036E4CEC07F00DD020EE1CF019
:100838000A50D9260B50DA22DF5001E151D7010ABC
:1008480082E0030AB9E020EE04F00A50D9260B50E2
:10085800DA22000EDE6EDE6EDE6EDD6EDD52DD52F9
:10086800000C00016051200D7F0EF3242C6E000E49
:10087800F4202D6E6851800A800F010ED8B4675D90
:100888001AE320EE12F02C50D9262D50DA2267C038
:10089800DEFF68C0DDFF683568312B6E67312A6E70
:1008A80020EE14F02C50D9262D50DA222AC0DEFF73
:1008B8002BC0DDFF14D020EE12F02C50D9262D507D
:1008C800DA22E80EDE6E030EDD6E20EE14F02C50F8
:1008D800D9262D50DA22F40EDE6E010EDD6E20EEE2
:1008E80008F02C50D9262D50DA2261C0DEFF62C0F4
:1008F800DDFF20EE0AF02C50D9262D50DA2263C0F5
:10090800DEFF64C0DDFF20EE1DF02C50D9262D50EF
:10091800DA2265C02AF0010E2B6E2A2A02D0D8905E
:100928002B362A2EFCD72B50DF6E20EE1EF02C50D3
:10093800D9262D50DA2266C0DFFF20EE1CF02C509D
:10094800D9262D50DA22DF6A20EE1AF02C50D9264B
:100958002D50DA22340EDE6EDD6A00016A51800AFB
:10096800800F010ED8B4695D0BE320EE10F02C5017
:10097800D9262D50DA2269C0DEFF6AC0DDFF09D012
:1009880020EE10F02C50D9262D50DA22200EDE6EE3
:10099800DD6A20EE10F02C50D9262D50DA2210EE08
:1009A8000EF02C50E1262D50E222DECFE6FFDDCFFF
:1009B800E5FF00016BBF09D020EE1FF02C50D926AF
:1009C8002D50DA226BC0DFFF08D020EE1FF02C502C
:1009D800D9262D50DA22190EDF6E20EE18F02C5091
:1009E800D9262D50DA22DE6ADD6A20EE04F02C507A
:1009F800D9262D50DA22DE6ADE6ADE6ADD6A20EE4A
:100A08000CF02C50D9262D50DA22000EDE6EDD6E49
:100A1800000C3150200D7F0EF3241A6E000EF420C6
:100A28001B6E010E186E5F0E176E126E196A125049
:100A380088D020EE1CF01A50D9261B50DA22DF503D
:100A4800126E12BE6ED01AC001F01BC002F03DEC4F
:100A580006F001C015F002C016F020EE0CF01A5096
:100A6800D9261B50DA22DECF12F0DDCF13F0135057
:100A7800800A146E1550125C1650800A14580AE247
:100A880020EE0CF01A50D9261B50DA22DE2A000E6E
:100A9800DD2209D020EE0CF01A50D9261B50DA229C
:100AA800DE06000EDD5A20EE0CF01A50D9261B5037
:100AB800DA22DECF12F0DDCF13F020EE04F01A5068
:100AC800D9261B50DA221250DE261350DE22000EE1
:100AD80013BEFF0EDE22DD2220EE0EF01A50D926BC
:100AE8001B50DA22DE06000EDD5AD92ADD1CFF0E65
:100AF800D8B4DF1816E11AC00AF01BC00BF049EC95
:100B080003F020EE10F01A50D9261B50DA2210EE0E
:100B18000EF01A50E1261B50E222DECFE6FFDDCFB1
:100B2800E5FF18501B1802E117501A1805E1000ECE
:100B38001B6E7F0E1A6E04D0200E1A26000E1B2282
:100B4800192A070E196475D7312A3164070C126EF9
:100B5800000E316E1250120020EE08F02A50D926ED
:100B68002B50DA22DECF65F0DDCF66F020EE0AF0FA
:100B78002A50D9262B50DA22DECF60F0DDCF61F083
:100B880020EE1DF02A50D9262B50DA22DF50000122
:100B9800676F20EE1EF02A50D9262B50DA22DF503C
:100BA800646F20EE1FF02A50D9262B50DA22DF502E
:100BB800326EB250FC0BB26E64C02CF02C462C4640
:100BC800C2502C18C30B2C18C26E671D2C6E60C047
:100BD800D9FF61C0DAFF2C50DF16671D2C6E65C087
:100BE800D9FF66C0DAFF2C50DF1600F000F000F0E5
:100BF80000F000F000F000F000F000F000F000F06D
:100C080000F000F000F000F000F000F000F000F05C
:100C180000F065C0D9FF66C0DAFF6751DF12B28005
:100C28000001322F15EF06F0B290C282C2B2FED791
:100C38000001671D2C6E65C0D9FF66C0DAFF2C5015
:100C4800DF16C350C4CF2CF02D6A2CC02DF02C6AAF
:100C58002C26000E2D222C1E2D1E2C4A2D2A2C242B
:100C6800626F040E2D20636F62C02AF063C02BF000
:100C7800120020EE08F00150D9260250DA22DECF09
:100C88000AF0DDCF0BF020EE0AF00150D926025011
:100C9800DA22DECF05F0DDCF06F020EE1DF00150A0
:100CA800D9260250DA22DF500C6E20EE1EF00150D9
:100CB800D9260250DA22DF50096E20EE1FF00150CB
:100CC800D9260250DA22DF50326EB250FC0BB26ED7
:100CD80009C003F003460346C2500318C30B0318A8
:100CE800C26E0C1C036E05C0D9FF06C0DAFF0350A4
:100CF800DF160C1C036E0AC0D9FF0BC0DAFF0350C5
:100D0800DF1600F000F000F000F000F000F000F056
:100D180000F000F000F000F000F000F000F000F04B
:100D280000F000F000F000F000F00AC0D9FF0BC09E
:100D3800DAFF0C50DF12B2800001322FA1EF06F06B
:100D4800B290C282C2B2FED70C1C036E0AC0D9FF91
:100D58000BC0DAFF0350DF16C350C4CF03F0046A98
:100D680003C004F0036A0326000E0422031E041EB7
:100D7800034A042A0324076E040E0420086E07C0E1
:100D880001F008C002F012002D6E2F6A2D502E6A55
:100D98002D5005D0100E2B5E270E2C5A2F2A100E20
:100DA8002B5C270E2C58F6E22F5004E02D6E010E16
:100DB8002E6E2D502E5005E02F50300F2A6ECEEC9F
:100DC80008F02D6E2F6A2D5005D0E80E2B5E030E0D
:100DD8002C5A2F2AE80E2B5C030E2C58F6E22F50C3
:100DE80004E02D6E010E2E6E2D502E5005E02F5072
:100DF800300F2A6ECEEC08F02D6E2F6A2D5005D0DC
:100E0800640E2B5E000E2C5A2F2A640E2B5C000EEB
:100E18002C58F6E22F5004E02D6E010E2E6E2D5048
:100E28002E5005E02F50300F2A6ECEEC08F02D6EB4
:100E38002F6A2D5005D00A0E2B5E000E2C5A2F2A31
:100E48000A0E2B5C000E2C58F6E22F5004E02D6E93
:100E5800010E2E6E2D502E5005E02F50300F2A6EA9
:100E6800CEEC08F02D6E2F6A2D5004D02B06D8A09A
:100E78002C062F2A2C502B10F9E12F50300F2A6EF8
:100E8800CEEC08F02D6E2C0E2A6E2D50D0EF08F007
:100E980020EE16F00150D9260250DA22DFCF05F0F5
:100EA800DE2ADFCF06F0000EDD220350055C045079
:100EB8000658D8A0120020EE16F00150D92602508C
:100EC800DA22000EDE6EDD6E030E056E01C0D9FF5C
:100ED80002C0DAFFDECF06F0DECF07F0DECF08F083
:100EE800DECF09F0056601D007D00934093208328F
:100EF80007320632052EF6D701C0D9FF02C0DAFF45
:100F08000650DE5E0750DE5A0850DE5A0950DD5A98
:100F1800030E056E20EE04F00150D9260250DA22A5
:100F2800DECF06F0DECF07F0DECF08F0DECF09F027
:100F3800056601D007D00934093208320732063273
:100F4800052EF6D701C0D9FF02C0DAFF0650DE260B
:100F58000750DE220850DE220950DD22DD52DD5224
:100F68001200000E0001656F7F0E646F616B606B8D
:100F7800636B010E626F306E666B305017D020EED7
:100F88001CF000016451D9266551DA22020EDF6295
:100F980004D062516013635161130001D890623725
:100FA8006337200E6427000E6523662B070E0001A9
:100FB8006665E5D760C02BF061C02CF0C8EC06F080
:100FC800000E2C6A2B6AC8EC06F0000E2C6A2B6AFD
:100FD800C8EC06F0000E0001656F7F0E646F306E7E
:100FE800666B305013D020EE18F000016451D926FA
:100FF8006551DA22DECF2BF0DDCF2CF0C8EC06F0FD
:10100800200E00016427000E6523662B070E0001E1
:101018006665E9D7306E0D0E2A6E3050CEEC08F0BA
:10102800306E0A0E2A6E3050D0EF08F02E6E000196
:10103800706B2E506F6B6E6B6851200D7F0EF32412
:10104800716F000EF420726F2E6E000E706F2E50AE
:10105800000E6F6F6E6F100E6D6F000E6C6F2E6E40
:10106800736F2E5036D020EE1FF000017151D92633
:101078007251DA2273C0DFFF71C02AF072C02BF000
:10108800B0EC05F02AC06AF02BC06BF0AB0E000183
:101098006A25746FFE0E6B21756F75AF04D0746D81
:1010A800751FD8B0752B00016D51800A2E6E7451D2
:1010B8006C5D7551800A2E580AE374C06CF075C0D7
:1010C8006DF073C070F074C06EF075C06FF0000101
:1010D800732B7F0E00017365C6D770C07EF06EC09B
:1010E8007CF06FC07DF0000E696F7C0E686F120097
:1010F8000DD0030E2D6E200E2C6E01D000F02C06A4
:10110800D8A02D062C28D8B42D28F8E12A06D8A076
:101118002B062A28D8B42B28D8B41200EAD700EE18
:101128007FF011EE00F0EE6AE550E150FCE1E2508C
:10113800FAE100017E6B7D6B7C6B356A346A336A39
:10114800326A316A000144EF00F0550EA76EAA0E0C
:10115800A76E0E01FF91050ED16F550EA76EAA0E50
:10116800A76EFF81A884190EAB6EA88A9C8E190CF5
:10117800C26AC16AC18EC196C198C19AC150F80BA2
:101188000109C16EC280000EB26EB36EBF0EB16EA1
:10119800B38EBF0C01D000F0A8A2FDD72AC0A9FFCA
:0611A80012000DEF05F03E
:06FFF800ACF7DDF7F3F8A1
:00000001FF
