:020000040000fa
:080000000002040000000000f2
:020000040000fa
:10000800cc020000cc020000cc020000cc020000b0
:10001800cc020000cc020000cc020000cc020000a0
:10002800cc020000cc020000cc020000cc02000090
:10003800cc020000cc020000cc020000cc02000080
:1000480020da0000cc020000cc020000cc02000044
:10005800cc020000cc020000cc020000cc02000060
:10006800cc020000cc020000cc020000cc02000050
:10007800cc020000cc020000cc020000cc02000040
:10008800cc020000cc020000cc020000cc02000030
:10009800cc020000cc020000cc020000cc02000020
:1000a800cc020000cc020000cc020000cc02000010
:1000b800cc020000cc020000cc020000cc02000000
:1000c800cc020000cc020000cc020000cc020000f0
:1000d800cc020000cc020000cc020000cc020000e0
:1000e800cc020000cc020000cc020000cc020000d0
:1000f800cc020000cc020000cc020000cc020000c0
:10010800cc020000cc020000cc020000cc020000af
:10011800cc020000cc020000cc020000cc0200009f
:10012800cc020000cc020000cc020000cc0200008f
:10013800cc020000cc020000cc020000cc0200007f
:10014800cc020000cc020000cc020000cc0200006f
:10015800cc020000cc020000cc020000cc0200005f
:10016800cc020000cc020000cc020000cc0200004f
:10017800cc020000cc020000cc020000cc0200003f
:10018800cc020000cc020000cc020000cc0200002f
:10019800cc020000cc020000cc020000cc0200001f
:1001a800cc020000cc020000cc020000cc0200000f
:1001b800cc020000cc020000cc020000cc020000ff
:1001c800cc020000cc020000cc020000cc020000ef
:1001d800cc020000cc020000cc020000cc020000df
:1001e800cc020000cc020000cc020000cc020000cf
:0801f800cc020000cc02000063
:020000040000fa
:10020800cc020000cc020000cc020000cc020000ae
:10021800cc020000cc020000cc020000cc0200009e
:10022800cc020000cc020000cc020000cc0200008e
:10023800cc020000cc020000cc020000cc0200007e
:1002480020da0000cc020000cc020000cc02000042
:10025800cc020000cc020000cc020000cc0200005e
:10026800cc020000cc020000cc020000cc0200004e
:10027800cc020000cc020000cc020000cc0200003e
:10028800cc020000cc020000cc020000cc0200002e
:10029800cc020000cc020000cc020000cc0200001e
:1002a800cc020000cc020000cc020000cc0200000e
:1002b800cc020000cc020000cc020000cc020000fe
:1002c800cc020000cc020000cc020000cc020000ee
:1002d800cc020000cc020000cc020000cc020000de
:1002e800cc020000cc020000cc020000cc020000ce
:1002f800cc020000cc020000cc020000cc020000be
:10030800cc020000cc020000cc020000cc020000ad
:10031800cc020000cc020000cc020000cc0200009d
:10032800cc020000cc020000cc020000cc0200008d
:10033800cc020000cc020000cc020000cc0200007d
:10034800cc020000cc020000cc020000cc0200006d
:10035800cc020000cc020000cc020000cc0200005d
:10036800cc020000cc020000cc020000cc0200004d
:10037800cc020000cc020000cc020000cc0200003d
:10038800cc020000cc020000cc020000cc0200002d
:10039800cc020000cc020000cc020000cc0200001d
:1003a800cc020000cc020000cc020000cc0200000d
:1003b800cc020000cc020000cc020000cc020000fd
:1003c800cc020000cc020000cc020000cc020000ed
:1003d800cc020000cc020000cc020000cc020000dd
:1003e800cc020000cc020000cc020000cc020000cd
:0803f800cc020000cc02000061
:020000040000fa
:10040000ef6a21000e7f24000e018800000000002a
:100410000c000700c06b2e00010020001100070037
:10042000000020000000e000020032000000020096
:1004300000000000e6da0200000000000040da00e0
:100440000000fe004440a900801a23000000e000e4
:100450000300320000002000a00188004440a800f2
:100460000000060091018800800078000000eb0089
:1004700015003700e280400032a0b4009101ba00bc
:10048000e280400032a0b4009102ba00e280400055
:1004900032a0b4000002eb00472bde00f507b200eb
:1004a000602ce10004003a000059eb008301e900f0
:1004b000fdff3e00040037006128e100010032002a
:1004c0000082eb00040007001101ba000200e00006
:1004d000e8ff3a00000006003159ba008301e90044
:1004e0000c0032002159ba008301e90008003200f3
:1004f0000400e00003003a00e280400032a0b400b3
:10050000f5ff370011d9ba008301e900faff3a007c
:100510008100e800e180400032a0b4000000060045
:10052000a0d4040000000000ccd3040000000000b0
:10053000ecd604000000000080c4040000000000ad
:10054000f6c10400000000007cc7040000000000a9
:10055000cae004000000000096e004000000000073
:10056000e6bb040000000000faba0400000000002e
:100570008ec1040000000000e2ba04000000000088
:10058000a8dd04000000000072db04000000000091
:1005900042dc0400000000000040da000000fe0021
:1005a000839f68000100e00002003d006000100031
:1005b000e08018000300e00002003d00600111002f
:1005c000e0811900050007004f00e00002003b0039
:1005d00060001000e0801800000006006022b800f3
:1005e000060220000000d0008180d2000482d200e8
:1005f0008582d2000000a0000202520083825a00cd
:10060000030031000202420083824a000000a10080
:100610000603e900f3ff3a0000000600020ab900f1
:10062000001bb9000200b8008100420081004300b5
:1006300000000600e8874700889fbe008a9fbe0032
:100640008c9fbe008e1f7800e1ad2000f256800026
:10065000e00f51000b003a0064814000f256880020
:1006600042578800a100980031578800214190002e
:100670000204a000a2409800614190000204a00082
:10068000e2409800670440004244de004244dd003e
:10069000305780006eaf2000e96a21008e8454003c
:1006a00026002000801f7800110009008604d80071
:1006b000000378004f0078008880e80081824000c5
:1006c0008001eb006146b800146b21000e0252005d
:1006d00008024200010037000a007800a0409000a4
:1006e000e1806000020032000a0037001208780042
:1006f00010017800a2409000e1806000fbff320012
:1007000088004000810f510002003900e00f5400c2
:1007100049003d0010057800800f5500eeff3e00b7
:100720008e0f550003003900e1ad2000810f550008
:10073000e9ff390041578000810f50004f003a0017
:10074000e0ad2000800f55004c003a008301e80026
:10075000e18f5100e0ff3600860f540002003600a2
:10076000890f54000d0039006148b900b2ff2f0015
:10077000030020000000510081805900800f5600c6
:10078000818f5e0007003d00110009000982d8003a
:100790000980b900800578000300370085057800de
:1007a00001003700880578000b00780084bf9f00a7
:1007b000e5b79f00f6b79f00920007000fba9700b9
:1007c000efb297007fb39700e10f40002b0032009b
:1007d000415780008008780041578000e481400044
:1007e00021419000830f5000020032000204a0005b
:1007f000010037000204a100a2409800e4855500e2
:100800008b0540000b0878004b578800e1ad2000b5
:10081000810d780042578000a24090000104a000a2
:1008200021419800a04090000104a10021409800bf
:100830008001eb00a8ff370031578800810f51007d
:10084000070036001101be00525788006357880028
:1008500090087800325780008000eb00214198001a
:100860003357800003087800a04090000104a000e6
:100870002140980064004000010037000000eb00b8
:100880004f0778004f06be004f05be004f04be0064
:100890008f00b1000000060064005000305788004f
:1008a000a04090000104a100214098000000060033
:1008b000889fbe008a9fbe008004780001047800f3
:1008c000648154009205780069f997006101610024
:1008d0000200320009007800efff070008007800ee
:1008e00054ff070000047800e00f54001b003200a2
:1008f000890f54001900320068bd970008055500a3
:1009000042d5de00098055004280de000a017800f1
:10091000800f550001003600000178004211dd0013
:100920000800be0011000700890f54000b003100c1
:100930004255dd000a054400890f550007003600c6
:1009400089045500c2ccde00c24cdd00890444009d
:100950005057800061578000808cbe0008007800ee
:100960004f05be004f04be00000006008001780065
:1009700002003700b15978000201e900e00f510090
:10098000fcff3a0000000600805788000000eb00e2
:100990009057880010c0b300e1ae20008048780076
:1009a00000000600e2ae20000040eb00924f100075
:1009b00006003a0010002000010020008057880047
:1009c0009157880010c0b30000497800d2e6240097
:1009d000631c240080578000915780000fff0700a0
:1009e00092032300030020000000410081804900a1
:1009f00080578800915788000100780000f0a1001e
:100a000000000600889fbe008a1f7800000578005d
:100a1000a9578000e08f540005003a0009007800d3
:100a20000f0007000084eb00890f5000080035001c
:100a3000a8578000e00f5500050032000a0044006e
:100a400007000700e00f500001003d000084eb00ac
:100a5000080078004f0578004f04be000000060033
:100a6000e00f500004003a0061af2000a157880059
:100a700080007800060037008080eb00e26a2100e9
:100a8000820f500002003e00a05788008000eb005b
:080a90000100780000000600df
:020000040000fa
:100a9800000000001c0000007e0000001b00000099
:100aa800109400000100000010ca000001000000be
:100ab80011000000020000001151000002000000b7
:100ac80005a200000200000006bd000002000000b0
:100ad8000ad80000020000000b0e0000030000000e
:100ae8000b44000003000000107a0000030000001f
:100af80010b000000300000006e60000030000003c
:100b08000701000004000000071c000004000000aa
:100b18000a37000004000000096d0000040000000e
:100b280005a300000400000008be00000400000047
:100b380005d90000040000000bf4000004000000c8
:100b48000b2a0000050000000b60000005000000f3
:100b58000b960000050000000bcc0000050000000b
:100b68000b020000060000000b3800000600000021
:100b78000b6e0000060000000ba400000600000039
:100b88000bda0000060000000b1000000700000050
:100b9800054600000700000005610000070000008e
:100ba8000a7c0000070000000ab2000007000000ed
:100bb8000ae80000070000000a1e00000800000004
:100bc80013540000080000000ea5000008000000f3
:100bd8000cdb0000080000000c11000009000000f8
:100be8000e470000090000000b7d0000090000000e
:100bf8000bb30000090000000de900000900000027
:100c08000f1f00000a000000075500000a0000003e
:100c1800077000000a0000000d8b00000a000000a9
:100c28000bc100000a00000013f700000a000000d2
:100c38000f4800000b0000000e7e00000b000000b3
:100c48000cb400000b0000000eea00000b000000ce
:100c58000d2000000c0000000b5600000c000000e6
:100c68000d8c00000c0000000fc200000c000000fa
:100c78000ff800000c000000142e00000d0000000a
:100c88000e7f00000d0000000eb500000d000000f2
:100c98000ceb00000d000000072100000e00000012
:100ca8000b3c00000e000000087200000e0000005f
:100cb8000b8d00000e0000000bc300000e000000aa
:100cc80007f900000e0000000b1400000f000000e0
:100cd8000c4a00000f0000000a8000000f0000000e
:100ce8000cb600000f0000000bec00000f00000025
:100cf80007220000100000000c3d0000100000005a
:100d08000d7300001000000006a90000100000008c
:100d180006c40000100000000cdf000010000000f6
:100d2800061500001100000014300000110000003a
:100d38000d810000110000000cb700001100000038
:100d48000ced0000110000000c2300001200000050
:100d58000959000012000000098f0000120000006d
:100d680008c50000120000000ce00000120000009e
:100d78000b16000013000000104c000013000000c8
:100d88000c820000130000000bb8000013000000e4
:100d98000aee000013000000082400001400000000
:100da800053f000014000000085a0000140000006d
:100db8000b75000014000000000000000000000097
:100dc800000000000030000000380000003c000077
:100dd800003e0000003f0000803f0000c03f0000d0
:100de800e03f0000f03f0000f83f0000fc3f00003b
:100df800f83f0000f03f0000e03f0000c03f000067
:100e0800803f0000003f0000003e0000003c000062
:100e18000038000000300000000000000000000062
:100e280000000000000000000000000000000000ba
:100e38000c0000001c0000003c0000007c000000ca
:100e4800fc000000fc010000fc030000fc0700009f
:100e5800fc0f0000fc1f0000fc3f0000fc1f00000e
:100e6800fc0f0000fc070000fc030000fc01000070
:100e7800fc0000007c0000003c0000001c0000009a
:100e88000c0000000000000000000000000000004e
:100e9800000000000000000000000000000000004a
:100ea8000000000001000000800300000080000036
:100eb800030000008003000000c0000007000000dd
:100ec800c007000000e000000f000000e00f000075
:100ed80000e000000f000000f01f000000f000001c
:100ee8001f000000f01f000000f800003f00000095
:100ef800f83f000000f800003f000000fc7f000001
:100f080000fc00007f000000fc7f000000fe0000e5
:100f1800ff000000feff000000fe0000ff000000d0
:100f280000000000000000000000000000000000b9
:100f380000000000000000000000000000000000a9
:100f480000000000feff000000fe0000ff0000009f
:100f5800feff000000fc00007f000000fc7f000096
:100f680000fc00007f000000f83f000000f80000cf
:100f78003f000000f83f000000f000001f000000e4
:100f8800f01f000000f000001f000000e00f00004c
:100f980000e000000f000000e00f000000c00000ab
:100fa80007000000c00700000080000003000000e8
:100fb8008003000000800000030000000001000022
:100fc8000000000000000000000000000000000019
:100fd8000000000000000000000000000000000009
:100fe80000000000000000000000000000000000f9
:100ff80000000000000000000000000000000000e9
:1010080000000000000000000000000000000000d8
:10101800080c00000c0c00000c0c00000c0c00006c
:101028000c0c00000c0c0000040000000c0c00006c
:101038000c0000000000000000000000000000009c
:10104800000000000000000000000000cc000000cc
:10105800cc000000cc000000cc000000cc00000058
:10106800cc000000cc000000c4000000000000001c
:101078000000000000000000000000000000000068
:101088000000000000000000000000000000000058
:101098000000000000000000000000000000000048
:1010a8000000000000000000000000000000000038
:1010b8000000000000000000000000000000000028
:1010c8000000000060020000200300002001000072
:1010d80020010000fc0700009001000090000000c3
:1010e80098000000fe030000480000004c000000cb
:1010f8004400000064000000000000000000000040
:1011080000000000000000000000000000000000d7
:1011180000000000000000000000000000000000c7
:1011280000000000000000006000000060000000f7
:10113800f80100006c030000660100006600000072
:101148006e0000007c000000f8010000e0010000d3
:10115800e003000060030000620300006203000077
:1011680066010000fc000000600000006000000054
:101178000000000000000000000000000000000067
:101188000000000000000000000000000000000057
:1011980000000000000000000000000038300000df
:1011a80024180000660c00006604000066060000b3
:1011b80066030000a40100009c380000c064000021
:1011c8006066000020660000106600001824000019
:1011d8000c1c0000000000000000000000000000df
:1011e80000000000000000000000000000000000f7
:1011f80000000000000000000000000000000000e7
:10120800e00100003003000018030000180300008c
:10121800180100009801000078000000787e0000a6
:101228007c1c0000cc180000c6190000861b0000ba
:10123800060f0000060e00000c1a0000f8710000ee
:101248000000000000000000000000000000000096
:101258000000000000000000000000000000000086
:10126800000c00000c0c00000c0c00000c0c000022
:101278000400000000000000000000000000000062
:101288000000000000000000000000000000000056
:10129800000000000060000030100000080c000092
:1012a8000c04000006060000060600000606000002
:1012b80006060000040c00000c08000018300000ae
:1012c80060000000000000000000000003060000ad
:1012d8000c08000018180000103000003030000022
:1012e80030300000303000003010000018180000c6
:1012f80008040000060300000000000000000000d1
:101308000000000000300000003000000022000053
:1013180001ae0000037800000078000000ae000075
:101328000122000001300000003000000000000031
:1013380000000000000000000000000000000000a5
:101348000000000000000000000000000000000095
:101358000000000000000000000000000000000085
:101368000000000000000000000000000000000075
:101378000000000000000000000000000000000065
:101388000000000000000000000000000000000055
:1013980000300000003000000030000000fe0000b7
:1013a8000130000000300000003000000030000074
:1013b8000000000000000000000000000000000025
:1013c8000000000000000000000000000000000015
:1013d8000000000000000000000000000000000005
:1013e80000000000000000000000000000000000f5
:1013f80000000000000000000e0f00000c0c0000b0
:1014080004020000000000000000000000000000ce
:1014180000000000000000000000000000000000c4
:1014280000000000000000007e0000000000000036
:1014380000000000000000000000000000000000a4
:101448000000000000000000000000000000000094
:101458000000000000000000000000000000000084
:10146800000000000c0c00000c0000000000000050
:101478000000000000000000000000000000000064
:1014880000020000000300000001000080010000cd
:101498008001000080000000c0000000c0000000c3
:1014a8006000000060000000200000003000000024
:1014b80030000000100000001800000018000000b4
:1014c8000c0000000c0000000400000006000000f2
:1014d80006000000020000000000000000000000fc
:1014e80000000000000000000000000000000000f4
:1014f800000000000000000000000000f0000000f4
:10150800c80100008c0100008403000006030000ed
:10151800060300000603000006030000060300009f
:1015280006030000060100000c0100008c0000000a
:101538007000000000000000000000000000000033
:101548000000000000000000000000000000000093
:101558000000000000000000000000000000000083
:10156800000000000000000060000000780000009b
:1015780064000000600000006000000060000000df
:1015880060000000600000006000000060000000d3
:10159800600000006000000060000000fc03000024
:1015a8000000000000000000000000000000000033
:1015b8000000000000000000000000000000000023
:1015c8000000000000000000000000000000000013
:1015d8000000000078000000c4010000860100003f
:1015e8008201000080010000c0000000c00000006f
:1015f800600000003000000030000000180000000b
:101608000c01000006010000fe01000000000000bf
:1016180000000000000000000000000000000000c2
:1016280000000000000000000000000000000000b2
:1016380000000000000000000000000000000000a2
:10164800f8000000cc0100008601000080010000c5
:101658008001000040000000f00000008001000050
:101668000003000000030000000300000003000066
:101678008601000078000000000000000000000063
:101688000000000000000000000000000000000052
:101698000000000000000000000000000000000042
:1016a800000000000000000000000000c000000072
:1016b800e0000000e0000000d0000000d8000000ba
:1016c800c8000000c4000000c6000000c2000000fe
:1016d800ff030000c0000000c0000000c0000000c0
:1016e800f0030000000000000000000000000000ff
:1016f80000000000000000000000000000000000e2
:1017080000000000000000000000000000000000d1
:10171800000000000000000000010000fc000000c4
:101728000400000004000000060000007e00000025
:10173800c20000008001000080010000800100005c
:101748008001000080000000c30000003c00000091
:101758000000000000000000000000000000000081
:101768000000000000000000000000000000000071
:101778000000000000000000000000000000000061
:101788000000000080010000600000001800000058
:10179800080000000c000000f60000008e010000a8
:1017a800060300000603000006030000060300000d
:1017b8000c0100008c010000f00000000000000097
:1017c8000000000000000000000000000000000011
:1017d8000000000000000000000000000000000001
:1017e80000000000000000000000000000000000f1
:1017f80000000000fc0300000201000002010000dc
:101808008001000080000000c000000040000000cf
:1018180060000000200000003000000030000000e0
:101828001800000008000000000000000000000090
:1018380000000000000000000000000000000000a0
:101848000000000000000000000000000000000090
:10185800000000000000000000000000f800000088
:10186800cc01000086010000860100008e01000006
:10187800dc000000f0000000c80100008c0300003c
:101888000603000006030000060300008c010000a8
:1018980078000000000000000000000000000000c8
:1018a8000000000000000000000000000000000030
:1018b8000000000000000000000000000000000020
:1018c8000000000000000000f00000008c01000093
:1018d8008401000006030000060300000603000060
:1018e800060300008c0300007803000000010000dc
:1018f80080010000c0000000200000001c00000063
:1019080000000000000000000000000000000000cf
:1019180000000000000000000000000000000000bf
:10192800000000000000000000000000000c0000a3
:101938000c0c00000000000000000000000c00007b
:101948000c0c000000000000000000000000000077
:10195800000000000000000000000000000000007f
:10196800000000000c0c00000c000000000000004b
:10197800000000000e0f00000c0c00000402000024
:10198800000000000000000000000000000000004f
:10199800000000000000000000000000000000003f
:1019a800000000000000000000000000000000002f
:1019b80000010000e00100003c00000006000000fb
:1019c8001c000000f0000000800100000000000082
:1019d80000000000000000000000000000000000ff
:1019e80000000000000000000000000000000000ef
:1019f80000000000000000000000000000000000df
:101a080000000000000000000000000000000000ce
:101a180000000000000000000000000000000000be
:101a280000000000fe0100000000000000000000af
:101a3800fe0100000000000000000000000000009f
:101a4800000000000000000000000000000000008e
:101a5800000000000000000000000000000000007e
:101a6800000000000000000000000000000000006e
:101a7800000000000000000000000000000000005e
:101a88000000000000000000060000003c0000000c
:101a9800e001000080010000f00000001e000000ce
:101aa800020000000000000000000000000000002c
:101ab800000000000000000000000000000000001e
:101ac800000000000000000000000000000000000e
:101ad8000000000000000000f8000000cc01000039
:101ae80086010000860100008001000080010000de
:101af800c00000006000000060000000300000002e
:101b0800300000003000000010000000000000005d
:101b1800300000003000000030000000000000002d
:101b280000000000000000000000000000000000ad
:101b3800000000000000000000000000000000009d
:101b4800000000000000000000000000000000008d
:101b580000000000000000003f000000c07000000e
:101b680000300000c00000001880000001080000dc
:101b7800800100000c970000038400001803000097
:101b880046180000036600001803000066180000ed
:101b9800036600001803000066180000016e0000cc
:101ba80098010000cc9c0000008c0000730000002d
:101bb800180000000038000080000000e0e000008d
:101bc800018000001f00000000000000000000006d
:101bd80000000000000000000000000000000000fd
:101be80000000000000000000000000000000000ed
:101bf8000040000000c0000000a0000000a000009d
:101c080001a00000011000000110000003100000f6
:101c180003f800000308000006080000060400009e
:101c28000c0400000c1f00001e0000000000000053
:101c3800000000000000000000000000000000009c
:101c4800000000000000000000000000000000008c
:101c580000000000000000000000000000fe00007e
:101c6800008d0000030c0000030c0000030c0000b2
:101c7800038c000001fc0000018c0000030c000034
:101c8800070c0000060c0000060c0000060c000003
:101c980003ff000001000000000000000000000039
:101ca800000000000000000000000000000000002c
:101cb800000000000000000000000000000000001c
:101cc800000000000000000000c000000730000015
:101cd8000c080000000c00000004000000060000d2
:101ce80000060000000600000006000000060000d4
:101cf800000c0000000c00000838000004e00000a0
:101d080003000000000000000000000000000000c8
:101d180000000000000000000000000000000000bb
:101d280000000000000000000000000000000000ab
:101d38000000000000fe0000010d0000070c00007c
:101d48000e0c00000c0c0000180c0000180c000011
:101d5800180c0000180c0000180c0000180c0000eb
:101d68000c0c00000e0c000007ff00000100000032
:101d7800000000000000000000000000000000005b
:101d8800000000000000000000000000000000004b
:101d9800000000000000000000000000000000003b
:101da80000ff0000030c0000020c0000020c000001
:101db800000c0000000c000000fc0000018c00007a
:101dc800000c0000000c0000000c0000000c0000db
:101dd800040c000006ff00000300000000000000e3
:101de80000000000000000000000000000000000eb
:101df80000000000000000000000000000000000db
:101e080000000000000000000000000000ff0000cb
:101e1800030c0000020c0000020c0000000c000083
:101e2800000c000000fc0000018c0000000c000009
:101e3800000c0000000c0000000c0000000c00006a
:101e4800003f00000000000000000000000000004b
:101e5800000000000000000000000000000000007a
:101e6800000000000000000000000000000000006a
:101e7800000000000000000000e000000310000067
:101e880006080000000c0000000600000006000024
:101e980000060000008600000f060000060600008d
:101ea800060c0000060c00000618000006f00000f2
:101eb8000100000000000000000000000000000019
:101ec800000000000000000000000000000000000a
:101ed80000000000000000000000000000000000fa
:101ee80000000000003f00007e0c0000180c0000fd
:101ef800180c0000180c0000180c000018fc00005a
:101f08001f0c0000180c0000180c0000180c000032
:101f1800180c0000180c0000183f00007e0000009c
:101f280000000000000000000000000000000000a9
:101f38000000000000000000000000000000000099
:101f480000000000003f00000c0c00000c0c00001a
:101f58000c0c00000c0c00000c0c00000c0c000019
:101f68003f0000000000000000000000000000002a
:101f78000000000000000000000000007e180000c3
:101f88001818000018180000181800001818000089
:101f980018180000181800001808000004030000b2
:101fa8000000000000000000000000000000000029
:101fb800000000000000000000000000003f0000da
:101fc8000f0c0000020c0000018c0000004c000007
:101fd800006c0000003c0000006c000000ec0000f9
:101fe80000cc0000008c0000010c0000030c000075
:101ff800063f00001c000000000000000000000078
:1020080000000000000000000000000000000000c8
:1020180000000000000000000000000000000000b8
:102028000000000000000000003f0000000c00005d
:10203800000c0000000c0000000c0000000c000068
:10204800000c0000000c0000000c0000000c000058
:10205800000c0000000c0000040c000002ff00004f
:102068000300000000000000000000000000000065
:102078000000000000000000000000000000000058
:102088000000000000000000000000000000000048
:102098000000000000000000000000000000000038
:1020a800001e0000c00100001ce00000001c000031
:1020b800e00000003cf00000002c0000d000000010
:1020c8006cd00000006c0000c8000000ccc8000004
:1020d80000cc0000cc0000008cc50000008c000083
:1020e800c70000000cc30000000c0000c300000083
:1020f8001ee10000030000000000000000000000d6
:1021080000000000000000000000000000000000c7
:1021180000000000000000000000000000000000b7
:1021280000000000000000000000000000000000a7
:1021380000000000000000000f7e00000c180000e6
:102148001c1800003c1800002c1800004c18000057
:10215800cc1800008c1900000c1900000c1b0000a2
:102168000c1e00000c1c00000c1c00003f18000096
:102178000000000000000000000000000000000057
:102188000000000000000000000000000000000047
:102198000000000000000000000000000000000037
:1021a80000000000e003000018060000080c000012
:1021b8000c0c0000061800000618000006180000a5
:1021c8000618000006180000061800000c0c000095
:1021d8000c04000018020000f001000000000000dc
:1021e80000000000000000000000000000000000e7
:1021f80000000000000000000000000000000000d7
:1022080000000000000000000000000000000000c6
:10221800fe0100000d0300000c0600000c06000083
:102228000c0600000c0600000c030000fc00000077
:102238000c0000000c0000000c0000000c00000066
:102248000c0000003f00000000000000000000003b
:102258000000000000000000000000000000000076
:102268000000000000000000000000000000000066
:10227800000000000000000000000000e003000073
:1022880018060000080c00000c0c000006180000de
:1022980006180000061800000618000006180000be
:1022a800061800000c0c00000c0c000018060000ba
:1022b800f0010000000300000006000000380000e4
:1022c8000000000000000000000000000000000006
:1022d80000000000000000000000000000000000f6
:1022e8000000000000000000fe0100000d030000d7
:1022f8000c0600000c0600000c0600000c03000091
:10230800fc000000cc000000cc0000008c010000a4
:102318000c0300000c0300000c0600003f1c00002a
:1023280000000000000000000000000000000000a5
:102338000000000000000000000000000000000095
:102348000000000000000000000000000000000085
:1023580000000000f80000008c01000006000000ea
:10236800060000000e0000003c000000f80000001d
:10237800e0010000800300000003000002030000e9
:1023880002010000860100007c000000000000003f
:102398000000000000000000000000000000000035
:1023a8000000000000000000000000000000000025
:1023b8000000000000000000000000000000000015
:1023c800ff0f0000610800006108000060000000c5
:1023d8006000000060000000600000006000000075
:1023e8006000000060000000600000006000000065
:1023f80060000000f801000000000000000000007c
:1024080000000000000000000000000000000000c4
:1024180000000000000000000000000000000000b4
:102428000000000000000000000000003f7e0000e7
:102438000c1800000c1800000c1800000c18000004
:102448000c1800000c1800000c1800000c180000f4
:102458000c1800000c180000180c000038060000ca
:10246800e003000000000000000000000000000081
:102478000000000000000000000000000000000054
:102488000000000000000000000000000000000044
:1024980000000000000000001f3c00000c180000b5
:1024a8000c08000018080000180c000018040000b0
:1024b8003006000030020000200200006003000027
:1024c80060010000c0010000c001000080000000a1
:1024d80000000000000000000000000000000000f4
:1024e80000000000000000000000000000000000e4
:1024f80000000000000000000000000000000000d4
:1025080000000000000000000000000000000000c3
:102518001fc20000070c0000060100000c060000a6
:10252800010c0000070100000c8d000001080000ec
:102538008d000000988900000098000098000000b5
:102548009898000000d00000d000000070700000d3
:1025580000700000700000007060000000200000a3
:102568006000000000000000000000000000000003
:102578000000000000000000000000000000000053
:102588000000000000000000000000000000000043
:102598000000000000000000000000000000000033
:1025a80000000000003f00001f0c00000c18000095
:1025b800063800000330000001e0000001c0000000
:1025c80000c0000001a00000013000000318000056
:1025d800060800000e0c00000c1f00003e00000062
:1025e80000000000000000000000000000000000e3
:1025f80000000000000000000000000000000000d3
:1026080000000000000000000000000000000000c2
:10261800000700003e0c00000c1800000418000021
:10262800023000000360000001e0000001c000006b
:1026380000c0000000c0000000c0000000c0000092
:1026480000c0000000f000000300000000000000cf
:102658000000000000000000000000000000000072
:102668000000000000000000000000000000000062
:1026780000000000000000000000000000fc000056
:1026880007040000030200000380000001c00000ee
:1026980000c0000000600000007000000030000072
:1026a8000018000000180000000c000004060000dc
:1026b80004fe000007000000000000000000000009
:1026c8000000000000000000000000000000000002
:1026d80000000000003e000006060000060600009c
:1026e80006060000060600000606000006060000b2
:1026f80006060000060600000606000006060000a2
:102708003e00000000000000000000000000000083
:10271800020000000600000006000000040000009f
:102728000c0000000800000018000000180000005d
:102738001000000030000000300000002000000001
:10274800600000004000000040000000c0000000e1
:1027580080000000800100008001000000010000ee
:10276800000300000002000000000000000000005c
:1027780000000000000000003e3000003030000083
:1027880030300000303000003030000030300000c1
:1027980030300000303000003030000030300000b1
:1027a800303e0000000000000000000000000000b3
:1027b8000000000000200000006000000070000021
:1027c80000d0000000d80000008800000088000049
:1027d800018c000001040000030400000302000053
:1027e80003000000000000000000000000000000de
:1027f80000000000000000000000000000000000d1
:1028080000000000000000000000000000000000c0
:1028180000000000000000000000000000000000b0
:1028280000000000000000000000000000000000a0
:102838000000000000000000000000000000000090
:102848000000000000000000000000000000000080
:102858000000000000000000000000000000000070
:1028680000000000000000000000000000fe000062
:10287800030000000000000000000000000000004d
:102888000000000000000000030600000c08000023
:102898001000000000000000000000000000000020
:1028a8000000000000000000000000000000000020
:1028b8000000000000000000000000000000000010
:1028c8000000000000000000000000000000000000
:1028d80000000000000000000000000000000000f0
:1028e800f00000008c01000086010000800100005b
:1028f800f00100008c010000860100008601000044
:10290800c6010000bc070000000000000000000035
:1029180000000000000000000000000000000000af
:10292800000000000000000000000000000000009f
:102938000c0000000e0000000c0000000c0000005d
:102948000c0000000c0000000c000000cc0100008e
:102958003c0300001c0700000c0600000c060000e9
:102968000c0600000c0600000c0200001c01000010
:10297800f00000000000000000000000000000005f
:10298800000000000000000000000000000000003f
:10299800000000000000000000000000000000002f
:1029a800000000000000000000000000000000001f
:1029b8000000000000000000e00100001803000013
:1029c8000c000000060000000600000006000000e1
:1029d800060000000c0000001c030000f0000000ce
:1029e80000000000000000000000000000000000df
:1029f80000000000000000000000000000000000cf
:102a0800000000000000000000030000c0030000f8
:102a180000030000000300000003000000030000a2
:102a280000030000f0030000880300000403000016
:102a3800060300000603000006030000060300006a
:102a48000e030000cc0b0000380700000000000057
:102a5800000000000000000000000000000000006e
:102a6800000000000000000000000000000000005e
:102a7800000000000000000000000000000000004e
:102a8800000000000000000000000000000000003e
:102a9800f00000000803000004030000fe0300002b
:102aa8000600000006000000060000000c00000000
:102ab8001c030000f00000000000000000000000ff
:102ac80000000000000000000000000000000000fe
:102ad8000000000000000000006000005018000026
:102ae8000c0c00000c0c00007e0d00000c0c00000b
:102af8000c0c00000c0c00000c3f00000000000053
:102b080000000000000000000000000000000000bd
:102b180000000000000000000000000000000000ad
:102b2800000000000000000000000000000000009d
:102b380000f800000c8c00000306000003060000eb
:102b480003060000038c000001f8000000180000d4
:102b5800001c000000f80000030600000e0300003f
:102b68000c0300000c06000006fc00000100000039
:102b7800000000000000000000000000000000004d
:102b8800000c0000000f0000000c0000000c00000a
:102b9800000c0000000c0000000c000000cc00003d
:102ba800032c0000061c0000060c0000060c0000a8
:102bb800060c0000060c0000060c0000060c0000c5
:102bc80006bf00001f000000000000000000000019
:102bd80000000000000000000000000000000000ed
:102be8000000000000000000000000000c0c0000c5
:102bf80000000000000c00000f0c00000c0c00008e
:102c08000c0c00000c0c00003f000000000000004d
:102c180000000000000000000000000000000000ac
:102c2800000c00000c000000000000000c0f000069
:102c38000c0c00000c0c00000c0c00000c0c00002c
:102c48000c0c00000402000001000000000000005d
:102c58000000000000000000000c0000000f000051
:102c6800000c0000000c0000000c0000000c00002c
:102c7800000c0000008c0000078c000001cc000054
:102c8800002c0000003c0000006c000000cc00009c
:102c9800008c0000010c0000031f00000f00000062
:102ca800000000000000000000000000000000001c
:102cb800000000000000000000000000000000000c
:102cc8000c0f00000c0c00000c0c00000c0c000099
:102cd8000c0c00000c0c00000c0c00000c0c00008c
:102ce8003f0000000000000000000000000000009d
:102cf80000000000000000000000000000000000cc
:102d080000000000000000000000000000000000bb
:102d180000000000000000000000000000000000ab
:102d28000000000000000000000000008ee300002a
:102d3800016d0000160300001c0e0000030c0000cb
:102d4800060300000c060000030c00000603000048
:102d58000c060000030c0000060300000c0600002f
:102d680003bf0000df0f00000000000000000000ab
:102d7800000000000000000000000000000000004b
:102d8800000000000000000000000000000000003b
:102d9800000000000000000000000000000000002b
:102da800000000000000000000000000000000001b
:102db8000000000000000000008e0000036d00000d
:102dc800061c0000060c0000060c0000060c0000a3
:102dd800060c0000060c0000060c000006bf0000f0
:102de8001f000000000000000000000000000000bc
:102df80000000000000000000000000000000000cb
:102e080000000000000000000000000000000000ba
:102e180000000000000000000000000000000000aa
:102e28000000000000f0000000880000030400001b
:102e3800030600000606000006060000060600005d
:102e4800060c0000021c000001f000000000000059
:102e5800000000000000000000000000000000006a
:102e6800000000000000000000000000000000005a
:102e7800000000000000000000000000000000004a
:102e8800000000000000000000000000000000003a
:102e980000ce0000013d0000031c0000070c0000ec
:102ea800060c0000060c0000060c0000060c0000d2
:102eb800021c000003ec0000000c0000000c0000e5
:102ec800000c0000000c0000003f000000000000a3
:102ed80000000000000000000000000000000000ea
:102ee80000000000000000000000000000000000da
:102ef80000000000000000000000000000f00000da
:102f080002880000030c000003060000030600000e
:102f18000306000003060000030e0000038c0000f7
:102f28000378000003000000030000000300000015
:102f38000300000003c000000f00000000000000b4
:102f48000000000000000000000000000000000079
:102f58000000000000000000000000000000000069
:102f6800000000000000000000cc000001af0000dd
:102f7800019c0000001c0000000c0000000c000078
:102f8800000c0000000c0000000c0000003f0000d6
:102f98000000000000000000000000000000000029
:102fa8000000000000000000000000000000000019
:102fb8000000000000000000000000000000000009
:102fc80000000000000000000000000000000000f9
:102fd80000000000007c0000006600000006000001
:102fe800000e0000003c000000f0000000c00000df
:102ff80000c2000000c20000003e00000000000007
:1030080000000000000000000000000000000000b8
:1030180000000000000000000000000000000000a8
:1030280000000000000800000c0c00000cfe00006e
:103038000d0c00000c0c00000c0c00000c8c0000a7
:103048007800000000000000000000000000000000
:103058000000000000000000000000000000000068
:103068000000000000000000000000000000000058
:1030780000000000000000000c030000ce03000068
:103088000c0300000c0300000c0300000c030000fc
:103098000c0300000c030000cc0b000038070000f4
:1030a8000000000000000000000000000000000018
:1030b8000000000000000000000000000000000008
:1030c80000000000000000000000000000000000f8
:1030d80000000000000000000000000000000000e8
:1030e800000000009f070000040200000c0100001f
:1030f8000c010000980100009800000090000000fa
:1031080070000000600000002000000000000000c7
:1031180000000000000000000000000000000000a7
:103128000000000000000000000000000000000097
:103138000000000000000000000000000000000087
:103148000000000000000000000000000000000077
:103158001ff1000004410000842300008c230000bc
:10316800882600004836000058140000301c000073
:10317800301c0000300800000000000000000000c3
:103188000000000000000000000000000000000037
:103198000000000000000000000000000000000027
:1031a8000000000000000000000000000000000017
:1031b8000000000000000000000000009f07000061
:1031c8000c01000098000000f00000006000000002
:1031d80070000000d0000000880100000403000017
:1031e8008f07000000000000000000000000000041
:1031f80000000000000000000000000000000000c7
:1032080000000000000000000000000000000000b6
:1032180000000000000000000000000000000000a6
:1032280000000000000000009f07000004020000ea
:103238000c0100000c01000098010000980000003b
:1032480090000000700000006000000060000000b6
:103258002000000030000000100000000f000000f7
:10326800070000000000000000000000000000004f
:103278000000000000000000000000000000000046
:103288000000000000000000000000000000000036
:1032980000000000fe01000082010000c2000000e2
:1032a800600000002000000030000000180000004e
:1032b8000c01000004010000fe01000000000000f5
:1032c80000000000000000000000000000000000f6
:1032d8000000000000000000000000004030000076
:1032e80010180000181800003830000030100000d6
:1032f800081e0000303000003030000018180000b0
:103308001818000030400000000000000000000015
:103318000c0c00000c0c00000c0c00000c0c000045
:103328000c0c00000c0c00000c0c00000c0c000035
:103338000c0c00000c0c00000c0c00000c0c000025
:103348000000000000000000020c00001818000037
:10335800181800000c0c00000c0c0000781000007d
:10336800080c00000c1c00001818000018080000c9
:103378000c02000000000000000000000000000037
:103388000000000000000000000000000000000035
:103398000000000000000000000000000000000025
:1033a8000000000000180000047c000002f2000089
:1033b80001c2000001000000000000000000000041
:1033c80000000000000000000000000000000000f5
:1033d80000000000000000000000000000000000e5
:1033e8000000000000000000000000004c85000004
:1033f80000000000200000002c0000001900000060
:10340800053c00000000000004550000000000001a
:103418000d6e00000000000012a000000000000077
:103428000beb0000000000000b1d00000100000075
:103438000b4f0000010000000c810000010000009b
:103448000cb30000010000000be5000001000000c3
:1034580009170000020000000a49000002000000ed
:103468000a7b0000020000000000000000000000cd
:103478000000000000000000000000000000000044
:103488000000000000000000000000000000000034
:103498000000000000000000000000000000000024
:1034a80000000000000600000606000006060000f6
:1034b800060600000202000002000000060e0000de
:1034c8000e000000000000000000000000000000e6
:1034d80000000000000000000000000000000000e4
:1034e800e40100001c0300000c06000004060000b4
:1034f800040600000006000080030000f001000040
:10350800000700000c0e00000e0e00000e0e00005a
:10351800020e000004070000f8010000000000008f
:103528000000000000000000000000000000000093
:103538000000000000000000000000000000000083
:10354800000000000000000000000000003e000035
:10355800e003000038e0000000780000e000000010
:1035680068d0000000680000d0000000e8d000002b
:1035780000c80000c8000000c8c8000000c800005b
:10358800c900000088c5000000880000c5000000d0
:1035980008c7000000080000c30000001cc30000aa
:1035a800003e0000f20300000000000000000000e0
:1035b8000000000000000000000000000000000003
:1035c80000000000000000000000000000000000f3
:1035d80000000000000000000000000000000000e3
:1035e80000000000000000000000000000f80000db
:1035f80000860000018600000186000001f000003e
:10360800018c0000018600000183000001c6000053
:10361800053e00000300000000000000000000005c
:103628000000000000000000000000000000000092
:103638000000000000000000000000000000000082
:103648000000000000000000000000000000000072
:103658000000000000ff0000018c0000010c0000c9
:10366800018c0000017c0000008c0000030c0000ad
:10367800030c000003ff0000010000000000000030
:103688000000000000000000000000000000000032
:103698000000000000000000000000000000000022
:1036a8000000000000000000000000000000000012
:1036b800000000000000000000fc0000039800006b
:1036c80001880000018800000188000001880000ce
:1036d800018400000184000001ff000003030000d2
:1036e80003010000020100000200000000000000c9
:1036f80000000000000000000000000000000000c2
:1037080000000000000000000000000000000000b1
:1037180000000000000000000000000000ff0000a2
:103728000f0c0000038c000003cc0000036c0000a9
:10373800033c0000031c0000030c000003ff000012
:103748000f00000000000000000000000000000062
:103758000000000000000000000000000000000061
:1037680000000000000000000000000000980000b9
:103778000198000001f000000000000000000000b7
:1037880000ff00000f0c0000038c000003cc0000b9
:10379800036c0000033c0000031c0000030c000045
:1037a80003ff00000f000000000000000000000000
:1037b8000000000000000000000000000000000001
:1037c80000000000000000000000000000000000f1
:1037d80000000000000000000000000000000000e1
:1037e80000ef0000009c0000010c0000030c00002a
:1037f800030c0000030c0000030c0000030c000085
:10380800039c000001ec0000000c0000000c00000c
:10381800000c0000001f0000000000000000000075
:103828000000000000000000000000000000000090
:103838000000000000000000000000000000000080
:103848000000000000f00000008c000001c400002f
:1038580001860000010600000006000000060000c6
:1038680000060000018c0000017800000000000044
:103878000000000000000000000000000000000040
:103888000000000000000000000000000000000030
:103898000000000000000000000000000000000020
:1038a80000000000000000000000000000fe000012
:1038b8000133000003310000023100000230000033
:1038c80000300000003000000030000000fc000064
:1038d80000000000000000000000000000000000e0
:1038e80000000000000000000000000000000000d0
:1038f80000000000000000000000000000000000c0
:1039080000000000000000000000000000000000af
:1039180000cf000003840000018c0000008c000030
:10392800004800000058000000300000003000008f
:10393800003000000010000000130000000b000021
:103948000007000000000000000000000000000068
:10395800200000002400000016000000071c0000e2
:10396800000000001532000000000000157400007f
:103978000000000015b600000000000015f8000067
:103988000000000000000000001c00001c1c0000db
:103998001c1c0000181800000c0c00000c0c000087
:1039a80000000000001c00001c00000000000000d7
:1039b80000000000000000006300000000ce0000ce
:1039c80001700000c600000030c600000030000092
:1039d800c600000030c6000006fe0000ff0b000015
:1039e80030c6000000300000c600000030c60000ed
:1039f80000300000c600000030c6000000300000a3
:103a0800fe00000030c6000000300000000000008a
:103a1800300000000030000000070000f8ff000040
:103a2800010000000000000000000000000000008d
:103a38000000000000000000006000000c00000012
:103a4800e01c0000006000000c00000060060000a0
:103a580000300000060e000030fe0000077800006d
:103a6800330300002cb1000001ac0000210000006d
:103a780026ac000000360000a60100003036000029
:103a88000330000033060000303300000eb00000a1
:103a9800310c0000b030000006300000300000009b
:103aa800303e000000300000180000000000000058
:103ab800000000000000000000000000006000009e
:103ac800000000007000000007300000ff07000041
:103ad8003080000001b60000c1000000fc63000057
:103ae80000b00000e10000009861000000980000ac
:103af80061060000d8fe00000fd80000600000003a
:103b08008c60000000b8000060000000e060000069
:103b180000b000006100000098610000008c000007
:103b2800630000000678000000000000300000007c
:103b3800000000000000000000000000000000007d
:103b48000018000080010000f0ff000003300000b2
:103b5800860100003086000001f00000ff0100002f
:103b6800308600000130000086010000f0ff0000f0
:103b780001000000970000008031000000c0000034
:103b8800e0000000e07100000fb8000033060000fc
:103b98008e3100000080000031000000c0300000bd
:103ba80000e000003000000030300000001c000081
:103bb80030000000000000000000000000000000cd
:103bc800000000002000000028000000190000008c
:103bd800082c00000000000017450000000000004d
:103be800179000000000000017db00000000000034
:103bf80017260000010000001771000001000000f6
:103c080017bc0000010000001707000002000000b8
:103c18001752000002000000000000000000000031
:103c280018180000181800001818000018180000cc
:103c38001818000018180000180000000000000004
:103c48003c1c000000000000000000000000000014
:103c5800000000000000000000000000000000005c
:103c680000000000000000000000000000600000ec
:103c780000000000c0ff000001000000300000004c
:103c880000180000000000000e0000000003000003
:103c980000000000000000000000000000c000005c
:103ca800000000006000000000600000000000004c
:103cb800600000000060000000000000c0ff00007d
:103cc800010000001e0300000000000000000000ca
:103cd80000000000000000000000000000000000dc
:103ce80000000000000000000000000000000000cc
:103cf800000000000000000000000000008000003c
:103d08000700000000060000000000000e00000090
:103d180000ec0000000000003c000000001e000055
:103d280000e000001b000000003000000000000060
:103d380020000000006c000000800000f700000078
:103d4800c0c0000000e000000000000060000000ab
:103d580000c0000000000000c0010000008000005a
:103d68007f000000000000000000000000000000cc
:103d7800000000000000000000000000000000003b
:103d8800000000000000000000000000000000002b
:103d980003000000000e0000000000000e000000fc
:103da80000e60000003000003e000000e0070000d0
:103db8000000000003000000000300000080000075
:103dc800f1000000809d0000018000000703000052
:103dd800c001000003800000010300000000000093
:103de800030000008003000000c000000100000084
:103df800e0000000803f000000000000000000001c
:103e080000000000000000000000000000000000aa
:103e1800000000000000000000000000000000009a
:103e28000000000000060000000000000c00000078
:103e380000060000003000003e000000e00f000017
:103e480000000000e3030000808100000f800000f4
:103e5800e1000000c060000000c000006000000039
:103e6800606000000060000060000000307e00001c
:103e780000b00000e30100008061000003000000c2
:103e880073030000003e0000000000000000000076
:103e9800000000000000000000000000000000001a
:103ea800000000000000000000000000000000000a
:103eb80000000000000000000000000000000000fa
:103ec800700000000060000000000000e0de00005c
:103ed80007600000700000003000000000300000a3
:103ee800000000003000000000300000000000006a
:103ef8008c000000006c0000000000006c06000050
:103f0800007c0000060000003c0c000000300000af
:103f1800f80700003000000000000000000000006a
:103f28000000000000000000000000000000000089
:103f38000000000000000000000000000000000079
:103f48000000000000000000000000000000000069
:103f580000000000000000000000000030f0000039
:103f680000600000c001000060c0000000600000a8
:103f7800c006000030f7000001300000dc0000003f
:103f880030c0000000300000c000000018c0000071
:103f980000d80000c000000058c000000038000031
:103fa800fc00000038c7000007380000c30e0000fe
:103fb80030fe00000c0000000000000000000000bf
:103fc80000000000000000000000000000000000e9
:103fd80000000000000000000000000000000000d9
:103fe800000000000000000030000000c078000061
:103ff800008000002f0000000038000000000000d2
:104008001800000000d80000000000008c03000029
:10401800000c00000300000006030000e07f000021
:1040280001300000c3010000b8c10000079800007b
:10403800c00e0000d86000001838000030000000f2
:10404800001c000000000000070000000000000045
:104058000000000000000000000000000000000058
:104068000000000000000000000000000000000048
:104078000000000000000000000000000003000035
:10408800000000000e000000000c0000000000000e
:104098000600000000070000000000000300000008
:1040a800800100000080000001000000c01c00002a
:1040b80000e000003b000000e03000000c70000051
:1040c800300c000030180000063800001806000008
:1040d8001818000003180000b8010000186000005c
:1040e80000000000000000000000000000000000c8
:1040f80000000000000000000000000000000000b8
:10410800200000002b000000170000000538000008
:1041180000000000064f00000000000013660000c9
:104128000000000013ab00000000000013f00000c6
:10413800000000001335000001000000137a0000a1
:104148000100000013bf000001000000130400007c
:10415800020000001349000002000000138e000056
:104168000200000013d3000002000000000000005d
:1041780000000000000e00000e0e00000e0e0000f1
:104188000e0e000006060000000000000e0e0000e3
:104198000000000000000000000000000000000017
:1041a8000000000000000000000000000000000007
:1041b8000000000000000000000e00000e000000db
:1041c80000000000000000000000000000000000e7
:1041d80000000000000000000000000000000000d7
:1041e80000f0000000000000de00000000d8000021
:1041f80000000000d8000000fcdb00000080000088
:10420800df00000080d9000000c00000d9000000d5
:10421800c0d8000000600000df00000030d80000b7
:1042280000300000d80000001cd80000000000008a
:10423800d800000000d8000000000000c000000006
:1042480000c00000000000000000000000000000a6
:104258000000000000000000000000000000000056
:104268000000000000000000000000003000000016
:1042780000e00000000c0000c000000038c0000092
:1042880000300000fc00000030c0000000300000da
:10429800c6000000b0fb000000f00000c0000000f5
:1042a80000c0000000000000d8000000007e0000f0
:1042b80000000000e300000000c300000000000050
:1042c800e7000000003e00000000000000000000c1
:1042d80000000000000000000000000000000000d6
:1042e80000000000000000000000000000000000c6
:1042f800000000000070000000000000c000000086
:1043080000c0000000f80000c700000000c3000063
:1043180000000000c300000000c3000000f8000017
:10432800ff00000030c0000000300000c0000000a6
:1043380030ce000000f00000c300000000c0000004
:1043480000000000c000000000c0000000000000e5
:10435800c000000000c000000000000000000000d5
:104368000000000000000000000000000000000045
:104378000000000000000000000000000000000035
:10438800300000007078000000600000600000004d
:10439800e07f000000600000600000006060000036
:1043a80000e000007f0000006060000000000000e6
:1043b80000000000feff00000300000006000000ef
:1043c800780600000060000006000000600600009b
:1043d8000060000000000000c07f00000000000036
:1043e80000000000000000000000000000000000c5
:1043f80000000000000000000000000000000000b5
:10440800000000000000000000e0000000000000c4
:10441800ce00000000d8000000e00000d800000036
:10442800c0d9000000c00000d8000000e0d800009b
:1044380000e00000de000000b0d900000018000015
:10444800db0000000cdb000000060000d8000000c4
:1044580000d8000000000000d800000000d80000cc
:1044680000000000d800000000c0000000000000ac
:104478000000000000000000000000000000000034
:104488000000000000000000000000000000000024
:1044980000000000380000000060000000c00000bc
:1044a80060000000e06100000038000067000000c4
:1044b80018660000001800006600000038e30000dd
:1044c80007f000006100000000600000000000002c
:1044d80060000000e060000000c000006000000014
:1044e800c000000000c000000000000080ff0000c5
:1044f80000000000000000000000000000000000b4
:1045080000000000000000000000000000000000a3
:104518000000000000000000000000000030000063
:1045280000000000e000000000c0000000c0000023
:10453800c0000000e0c1000000380000fb000000df
:104548000cc60000000c0000c60000000cc60000ed
:1045580000180000fb000000f0c10000000000008f
:10456800c000000000c0000000000000c000000003
:1045780000c0000000000000c000000000c00000f3
:104588000000000000000000000000000000000023
:104598000000000000000000000000000000000013
:1045a80000000000000000000000000000070000fc
:1045b800008000000f000000c0180000006000002c
:1045c8003000000060300000006000003000000093
:1045d800c0180000008000000f000000e01c000070
:1045e80000c00000190000008019000000800000d1
:1045f80019000000feff000001000000000000009c
:1046080000000000000000000000000000000000a2
:104618000000000000000000000000000000000092
:104628000000000000000000000000000000000082
:104638000070000000000000c000000080c1000001
:1046480000e00000c300000030c7000000180000b0
:10465800c600000018c6000000380000c7000000af
:10466800e0c3000000000000c000000000c000001f
:1046780000c00000c000000080c1000000800000f1
:10468800010000008001000000800000ff01000020
:104698000000000000000000000000000000000012
:1046a8000000000000000000000000000000000002
:1046b80000000000000000000000000018000000da
:1046c8000070000000f000006300000000600000bf
:1046d8000000000040000000fe5f000000800000b5
:1046e80041000000e063000000300000e607000021
:1046f800186600000018000066000000306700001f
:1047080000e00000630000000060000000000000fe
:104718006000000000600000000000006000000071
:104728000000000000000000000000000001000080
:1047380020000000290000001f0000008000000089
:10474800000000000400000000000000000000005d
:1047580000000000800000000000000008000000c9
:104768000100000005000000000000009f0000009c
:1047780000000000070000000b000000000000001f
:1047880000000000dd000000000000000c00000038
:104798000c00000000000000000000001b010000e9
:1047a800000000000b0000000b00000000000000eb
:1047b8000000000059010000000000000b0000008c
:1047c8000b0000000000000000000000970100003e
:1047d800000000000b0000000b00000000000000bb
:1047e80000000000d50100000000000000000000eb
:1047f80007000000f4ff000000000000f4010000c2
:104808000000000008000000080000000000000090
:104818000000000013020000000000000900000072
:104828000a00000000000000000000000000000076
:10483800000000000000000000000000010100006e
:104848000101000001010000010100000100000059
:10485800000100000000000000000000000000004f
:104868000000000000000000000000000000000040
:1048780000f00000008800000104000002040000ad
:104888000404000000040000007f0000000800008d
:1048980000080000000800000008000000080000f0
:1048a80000080000000800000008000000080000e0
:1048b80000080000000800000000000000000000e0
:1048c80000000000000000000000000000000000e0
:1048d80000000000000000000000000000000000d0
:1048e80000000000000000000000000000000000c0
:1048f80000000000000000000000000000000000b0
:104908000000000000ff00000f0800000108000080
:1049180001080000010800000108000001fe000075
:10492800010c000001080000010000000100000067
:10493800010000000100000000000000000000006d
:10494800000000000000000000000000000000005f
:10495800000000000000000000000000000000004f
:10496800000000000000000000000000000000003f
:10497800000000000000000000000000000000002f
:1049880000ff000007800000008000000080000099
:1049980000fe00000087000000860000008600007e
:1049a80000840000008000000080000000800000fb
:1049b80000000000000000000000000000000000ef
:1049c80000000000000000000000000000000000df
:1049d80000000000000000000000000000000000cf
:1049e80000000000000000000000000000000000bf
:1049f80000000000000000000000000000ff0000b0
:104a080007800000008000000080000000fe000019
:104a18000083000000810000008100000082000087
:104a280000860000008c00000088000000100000d4
:104a3800000000000000000000000000000000006e
:104a4800000000000000000000000000000000005e
:104a5800000000000000000000000000000000004e
:104a6800000000000000000000000000000000003e
:104a7800000000000000000000ff000007800000a8
:104a88000080000000bc000000c20000008100009f
:104a980000c1000000f2000000bc0000008000001f
:104aa80000800000008000000000000000000000fe
:104ab80000000000000000000000000000000000ee
:104ac80000000000000000000000000000000000de
:104ad8000000000000000000000000000e30000090
:104ae800204000000000000000000000000000005e
:104af80000000000000000000000000000000000ae
:104b0800000000000000000000000000000000009d
:104b1800000000000000000000000000000000008d
:104b280000000000ff08000018180000081f00001f
:104b3800ff060000040800001020000040000000ec
:104b4800000000000000000000000000000000005d
:104b5800000000000000000000000000000000004d
:104b6800000000000000000000000000000000003d
:104b780000ff00000328000000440000004400007b
:104b880000440000006c00000058000000240000f1
:104b9800002c000000180000002000000040000069
:104ba80000000000000000000000000000000000fd
:104bb80000000000000000000000000000000000ed
:104bc80000000000000000000000000000000000dd
:104bd80000010000200000002a0000001d00000065
:104be8008c00000000000000080000000200000027
:104bf8000400000000000000a90000000000000000
:104c0800110000000e00000001000000000000007c
:104c1800e300000000000000120000001000000087
:104c280001000000000000001d010000000000005d
:104c3800120000000e00000001000000000000004b
:104c48005701000000000000110000000d000000e6
:104c580001000000000000009101000000000000b9
:104c6800100000000c00000001000000000000001f
:104c7800cb01000000000000110000000e00000041
:104c88000100000000000000050200000000000014
:104c9800000000000e000000f6ff0000fcff00000e
:104ca80047020000000000000e0000000b0000009a
:104cb8000100000000000000810200000000000068
:104cc800020000000e000000f1ff0000faff0000e3
:104cd800c7020000000000000a0000000c000000ed
:104ce800ffff0000f8ff00000003000003030000be
:104cf8000303000003030000030300000303000094
:104d08000303000003030000000000000303000089
:104d18000303000000000000000000000000000085
:104d2800000000000000000000000000000000007b
:104d38000000000000e0000007f800000f1c000061
:104d48001c06000038190000307000003018000000
:104d5800300c0000300c0000300c0000300c00005b
:104d6800300c0000300c0000300c0000300c00004b
:104d7800300c0000300c0000300000000000000083
:104d8800000000000000000000000000000000001b
:104d9800000000000000000000000000000000000b
:104da8000000000000000000403c0000e0fe0000a1
:104db80070df0000389300001f9100001f9300006f
:104dc80039df000030ce00003060000030600000a5
:104dd800306000003060000030600000306000008b
:104de8003060000030f000003ff000001f000000bd
:104df80000000000000000000000000000000000ab
:104e0800000000000000000000000000000000009a
:104e180000000000000000000000000000f000009a
:104e280007fc00000f1e00001c06000038c7000029
:104e380031e30000336300003223000032630000d6
:104e480033c600003186000030cc00003078000006
:104e58003078000030380000303000003038000072
:104e6800300000000000000000000000000000000a
:104e7800000000000000000000000000000000002a
:104e8800000000000000000000000000000000001a
:104e980000f0000003fc0000070e00000e030000f5
:104ea8001c0100001878000018fc000018cc000055
:104eb800198600001b0600001b0600001e3e0000ad
:104ec8001e7e00001c4600001c4600001c7c0000e2
:104ed8001838000018000000000000000000000062
:104ee80000000000000000000000000000000000ba
:104ef80000000000000000000000000000000000aa
:104f08000000000000f8000001fc0000030e000093
:104f1800070300000e0100000c0000000c00000058
:104f28000c0000000c0000000c0000000c00000049
:104f38000c8000000fc000000fc000000cc0000073
:104f48000c8000000f800000070000000000000037
:104f58000000000000000000000000000000000049
:104f68000000000000000000000000000000000039
:104f7800000000000000000010f0000039fc0000f4
:104f88001b0e00000e0300001e0200001a7800002d
:104f980019fc0000198c0000190600001b0600000f
:104fa8001b0600001e3e00001e7e00001c4600007e
:104fb8001c460000187c000018380000180000008b
:104fc80000000000000000000000000000000000d9
:104fd8000000000000000000000e0000101b000090
:104fe80030310000381300001c1f00000efe0000c6
:104ff80007f80000010000000000000000000000a9
:105008000000000000000000000000000000000098
:105018000000000000000000000000000000000088
:105028000000000000000000000000000000000078
:105038000000000000000000000000000000000068
:105048000000000000000000000000000000000058
:105058000000000000000000000000000000000048
:105068000000000000000000000000000000000038
:1050780000f8000000fe00000386000003030000a3
:1050880006010000060000000600000006000000ff
:1050980006000000060000000600000006000000f0
:1050a80006000000060000000600000006000000e0
:1050b80006000000060000000000000000000000dc
:1050c80000000000000000000000000000000000d8
:1050d800000000001800000018f0000019fc000093
:1050e8001b0e00001efe00001dff00001f00000038
:1050f8001c0000002000000000000000000000006c
:105108000000000000000000000000000000000097
:105118000000000000000000000000000000000087
:105128000000000000000000000000000000000077
:105138000000000000000000000000000000000067
:105148000000000000000000000000000000000057
:1051580000000000000000000000000000780000cf
:1051680000fe0000078700000f1e00000038000046
:105178000070000000600000006000000060000097
:105188000060000000600000006000000060000097
:105198000060000000600000006000000060000087
:1051a8000060000000600000006000000060000077
:1051b80000600000006000000060000000e00000e7
:1051c80003e00000076000000660000006e0000041
:1051d80007c00000030000000000000000000000fd
:1051e80000000000000000000000000000000000b7
:1051f8000000000022000000260000002900000036
:1052080024000000250000002a0000002b000000f8
:10521800250000002c0000002800000020000000ed
:1052280023000000270000002900000020000000e3
:105238002100000000000000220000002300000000
:1052480021000000240000002000000000000000f1
:1052580027000000240000002200000028000000b1
:1052680021000000280000002500000023000000a5
:1052780026000000200000000000000027000000b9
:10528800230000002b000000260000002900000079
:105298002100000026000000220000002a00000073
:1052a8002800000024000000250000002000000065
:1052b8000000000024000000230000002800000077
:1052c800250000002000000027000000200000004a
:1052d800220000002600000029000000260000002f
:1052e800210000000000000026000000250000004a
:1052f800270000002600000023000000290000000d
:105308002200000028000000250000002a000000fc
:105318002400000021000000200000000000000020
:1053280000000000fc99000000000000aa9c00009a
:1053380000000000e49d00000000000082a00000c2
:10534800000000009aa3000000000000eca5000087
:1053580000000000200000007e0000001200000095
:105368000384000001000000049600000100000012
:1053780006a800000100000007ba000001000000b4
:1053880007cc0000010000000bde00000100000057
:105398000a020000020000000426000002000000cb
:1053a8000538000002000000054a00000200000065
:1053b800075c000002000000066e0000020000000a
:1053c80003800000020000000592000002000000b7
:1053d80003a400000200000007b60000020000005d
:1053e80007c800000200000007da00000200000001
:1053f80007ec00000200000007fe000002000000a9
:10540800071000000300000007220000030000004e
:1054180007340000030000000746000003000000f6
:105428000758000003000000076a0000030000009e
:10543800037c000003000000038e0000030000004e
:1054480007a000000300000007b2000003000000ee
:1054580007c400000300000007d600000300000096
:105468000de8000003000000090c00000400000023
:105478000930000004000000085400000400000087
:105488000966000004000000078a0000040000000c
:10549800079c00000400000009ae000004000000a2
:1054a8000ad200000400000004f600000400000016
:1054b8000508000005000000091a000005000000aa
:1054c800073e0000050000000c5000000500000029
:1054d8000a7400000500000009980000050000009b
:1054e80008bc00000500000009ce0000050000000f
:1054f80008f2000005000000070400000600000094
:1055080008160000060000000a2800000600000037
:105518000a4c0000060000000d70000006000000a4
:10552800099400000600000009b800000600000009
:1055380008dc00000600000005ee00000600000080
:105548000700000007000000051200000700000027
:1055580007240000070000000736000007000000cd
:105568000548000007000000075a00000700000077
:10557800086c000007000000077e0000070000001c
:10558800089000000700000007a2000007000000c4
:1055980006b400000700000007c60000070000006e
:1055a80008d800000700000004ea00000700000017
:1055b80004fc000007000000080e000008000000be
:1055c80004200000080000000b3200000800000062
:1055d80008560000080000000868000008000000e5
:1055e800087a000008000000088c0000080000008d
:1055f800069e00000800000006b000000800000039
:1056080005c200000800000008d4000008000000df
:1056180007e60000080000000bf800000800000082
:10562800081c000009000000072e00000900000007
:1056380007400000090000000552000009000000b2
:10564800036400000900000005760000090000005e
:1056580007880000090000000000000000000000aa
:105668000000000000000000000000000000000032
:105678000000000000000000000000000000000022
:1056880000060000060600000606000004020000ee
:1056980002000000020200000000000000000000fc
:1056a8000000000000160000121200001212000094
:1056b80000000000000000000000000000000000e2
:1056c800000000000000000000000000006800006a
:1056d800287e0000241400003e1400000a00000088
:1056e80000000000000000000000000000000000b2
:1056f800083c00002a0a00000e180000282a0000b2
:105708002a1c000008000000000000000000000043
:105718000000000000000000000000000000000081
:105728000c0100009200000052000000320000004e
:10573800ac010000500200004802000044020000d2
:1057480086010000000000000000000000000000ca
:105758000000000000000000000000000000000041
:10576800380000002400000024000000240000008d
:105778001c000000cc0300008a000000920000001a
:10578800a2000000c2000000bc01000000000000f0
:105798000000000000000000000000000000000001
:1057a80000060000020200000202000000000000e3
:1057b80000000000000000000000000000000000e1
:1057c80000000000080400000402000002020000bb
:1057d80002020000020200000204000004080000a7
:1057e800000000000000000002040000040800009f
:1057f8000808000008080000080800000804000065
:105808000402000000000000000000000008000082
:105818002a1c00001c2a00000800000000000000ec
:105828000000000000000000000000000000000070
:10583800000000000000000000080000083e000012
:105848000808000000000000000000000000000040
:105858000000000000000000000000000000000040
:105868000000000000000000040600000402000020
:105878000000000000000000000000000000000020
:1058880000000000000000001f00000000000000f1
:105898000000000000000000000000000000000000
:1058a80000000000000000000000000000000000f0
:1058b80002020000000000000000000000000000dc
:1058c80060200000201000001010000008080000f0
:1058d80004040000040200000203000000000000ad
:1058e8000000000000000000001c00001222000060
:1058f8002222000022220000141c000000000000e8
:105908000000000000000000000000000008000087
:105918000e0800000808000008080000083e000003
:10592800000000000000000000000000000000006f
:1059380000380000242200002010000008040000a5
:10594800223e0000000000000000000000000000ef
:10595800000000000038000024240000103c000073
:105968004040000044380000000000000000000033
:1059780000000000000000000010000018140000e3
:1059880014120000123f0000103c0000000000004c
:10599800000000000000000000000000003c0000c3
:1059a800040200001e22000020200000221c00002b
:1059b80000000000000000000000000000000000df
:1059c800003000000c0400001a260000222200000b
:1059d800221c000000000000000000000000000081
:1059e80000000000003e000022200000101000000f
:1059f800080800000c04000000000000000000007f
:105a08000000000000000000001c0000222200002e
:105a1800161c000022220000221c000000000000ca
:105a2800000000000000000000000000001c000052
:105a380032220000222200003c100000100e00005c
:105a4800000000000000000000000000000000004e
:105a5800000000000002000002000000000000003a
:105a6800020200000000000000000000000000002a
:105a7800000000000000000000020000020000001a
:105a880000000000040600000402000000000000fe
:105a980000000000000000000000000000200000de
:105aa8001c0200000d300000000000000000000093
:105ab80000000000000000000000000000000000de
