:020000040000fa
:08000000909f040000000000c5
:020000040000fa
:100400000a00fa0044002000b4bf9f00c0bf9f0054
:10041000d2bf9f00e3bf9f00f1bf9f006a805700db
:1004200000c0da005fb89700efb897000080fa00cc
:10043000000006000a00fa0080017800e20f500078
:1004400028003e00308c8000e10f50000800320090
:10045000802320000000e00005003200042320007b
:100460002523200046232000800178000400370067
:100470000422200025222000462220008322200082
:10048000144090000004e000040035008009eb00f7
:10049000144090000074a000104298001540900095
:1004a0000028a30003003a00154090000024a0009b
:1004b000904298008001eb00070037001540900043
:1004c0000008a300fdff320063c078000000fb00bd
:1004d000000b78008301e800828f5100f7ff3a009b
:1004e0000800370030002000b0bf9f00c3bf9f004e
:1004f000d1bf9f00e2bf9f006a80570000c0da00b2
:100500006fb99700020078000080fa000000060032
:10051000889fbe0080047800408c80000000e000ce
:1005200003003a00100007000000e0000a00350058
:10053000408c80000900e00002003a0000047800ce
:10054000060037000004780009004000060007009c
:100550000000e00001003d000084eb00080078008e
:100560004f04be0000000600800078000000e0009c
:1005700004003a00a0182100408c88000101780096
:10058000060037000081eb00a0282100808f50007a
:1005900002003e00418c88000001eb000200780060
:1005a00000000600881f7800000478005001be009b
:1005b0004000be000400400085804800060149005c
:1005c00087814900009cbe000294be000400e10047
:1005d0000588e1000690e1000798e1000200310083
:1005e000680044001008e8004f047800000006008e
:1005f000f4874700889fbe008a9fbe008c9fbe0084
:100600008e1f78000205be000004be00d4b79f0014
:10061000e5b79f00f6b79f0087bf9f000000eb0083
:10062000c0b79f00b0b79f00a0b79f0090b79f00d2
:1006300080b79f000d042000bfb097004fb0970017
:10064000000140000000e0000f003d004f08de0008
:1006500000007100c0b79f009e00070001003d0030
:1006600012002000a100070001003d001200200040
:10067000a6000700b1000700b60007000f00400009
:10068000c8ff0700220037004f08de000006710097
:10069000ccb79f008f00070001003d001200200032
:1006a0009200070001003d001200200097000700a3
:1006b000a20007000fb297009fb297002fb39700d8
:1006c000bfb39700a90007000000520081805a00c4
:1006d00002015b0083815b0080b79f0091b79f00a0
:1006e000a2b79f00b3b79f000007eb009f00070071
:1006f0000020e10001a8e10002b0e10003b8e10040
:10070000010031001e0020000e005600c0b79f00ff
:100710004fb297000400e0000700350010002000f1
:10072000010020006011b800080470008984700086
:100730000a0571008b8571008d06e900beff3a0045
:100740000400e00003003d00820007000f004000ad
:1007500094ff07004fa897000000e00004003a0053
:100760000fb497009fb497002fb59700bfb59700bf
:10077000940007004f0778004f06be004f05be00eb
:100780004f04be004f01b10000000600881f780032
:1007900018002000881f780095ff07008f87e90068
:1007a0004f04780000000600801feb0090ff070058
:1007b0008f87e90000000600889fbe008a9fbe0068
:1007c0008c1f78006e00070007003d0073000700d3
:1007d000e00f5b00e08f5b0007003d003200070088
:1007e0000006eb00040037003400070002003d0063
:1007f0002a0007001c00200072000700e3ff07002a
:100800000203be000002be000c00e0000100320046
:10081000220007000400be000601be004f0678005b
:100820004f05be004f04be0000000600889fbe00ba
:100830008a9fbe008c1f78005100070005003d0014
:1008400056000700e00f5b00e08f5b0006003d00f4
:10085000040037001900070003003d006000b800e5
:100860006011b8001000070056000700ceff070017
:100870000203be000002be000c00e00001003200d6
:10088000060007000400be000601be004f06780007
:100890004f05be004f04be00000006006000b80017
:1008a0006011b80000003700040250008582580033
:1008b0000603590087835900000006000006eb007c
:1008c000e00f5200e08f5a00e00f5b00e08f5b000a
:1008d000000006000180400090b79f000001eb007f
:1008e0008fb097000100e0000000060002007000d9
:1008f00090b79f000180400080b79f000001eb008f
:10090000ffa897000100e000000006000200700050
:1009100080b79f00018040006faa9700cf20de00c3
:1009200001007000f0af9f000402420025000700a4
:100930004f18de000002720000000600e4af9f00c6
:100940000804440089844c000a054d008b854d0045
:10095000000006003fb29700cfb297005fb3970048
:10096000efb3970000fe2f00000006003fb0970095
:10097000cfb097005fb19700efb19700000006007d
:100980000205be000004be00e00f5000e08f5800da
:10099000e00f5900e08f5900000006006000b80029
:1009a0006011b80008045000898458000a055900f5
:1009b0008b8559001c002000e00f5200e08f5a0088
:1009c000000006000800be000a01be00000006008c
:1009d0002800fa00889fbe008a9fbe008c9fbe0040
:1009e00003866b00060307000028a30064003a009a
:1009f0000128a30067003a000008a30062003a0043
:100a00000108a30065003a001e009000be08900097
:100a100081064000ed3fb100f4805700ee019000e8
:100a2000111ab8008e099000311bb8009e09900081
:100a3000311cb800511db800f4855700460007006e
:100a4000fe0190003a0007008b85e8003e00070099
:100a50008e09900040000700ee019000340007006e
:100a60008b85e800380007008e09900040000700e1
:100a70009e0990001b18b800890440000a854800b0
:100a8000fe019000340007008b85e8003800070065
:100a9000ee019000300007008e0990001b18b8008e
:100aa000890440000a8548000a98a30008003a001b
:100ab0000402420085824a0006034b0087834b00f4
:100ac00008044c0089844c000a054d008d06e9009d
:100ad00084827200850273004c3add008502720048
:100ae0000100320015002000443ade001400b2007c
:100af0004538de00cb45dd000b007000c540de0050
:100b0000cb4ddd008b8070004549de00cb55dd000c
:100b10000b017100c551de000d037800d102070002
:100b200003f0a1000cf0a70003f0a000c8023700fa
:100b30001b18b8008502400006834800e0834b0084
:100b400060044c00070037001b18b8000603400083
:100b500087834800faff37001b18b800870340005e
:100b600008844800e0844c0060054d000000060049
:100b70001b18b8000804400089844800faff3700b9
:100b80000108a300af023a005800be005801be00a1
:100b9000e3ff37000008a300aa023a000904780026
:100ba000f9ff370081037800da0207000001be0078
:100bb0006000b8000478a30013003a006220e1004e
:100bc00015003e000d0039008301d1000281d300e1
:100bd0008180d3008301d1000281d3008180d300c2
:100be0008301d1000281d3008180d3000538b00099
:100bf000c42add00f300b2008381720007f0a70071
:100c000003f0a00000000600f3ff2700f2ff2f0012
:100c10006110b900fbff370003ff2700f7ff370023
:100c20008f1fd100d00207008f87e9000000e0008d
:100c300000000600801feb00cb0207008f87e90051
:100c40000000e000000006001400fa00889fbe00cb
:100c50008a9fbe008c9fbe000004be000205be003d
:100c6000680047000a90be000890be00e702070037
:100c70000070a7000bf0a1009e0990000e099000e3
:100c8000fe0090006e0090009e0290003443200011
:100c9000848252000a00320010003c00b4fc2f0095
:100ca0000428e1001f0034008301d1000281d30039
:100cb0008180d3000080d3008502e800faff3a006b
:100cc0000b00e00062023b0060001000e0801800b2
:100cd00060011900e08119005d023700b4002000b6
:100ce0000428e10007003d0000004000818048002a
:100cf00002014900838149008502e900faff3a00b8
:100d0000efff3700f3ff2700f2ff2f006110b9005b
:100d10000b00e0004e023b00030028000200200010
:100d2000010037006011b8006000b80048023700c9
:100d3000889fbe008a9fbe00030578000300e00084
:100d4000050035000b003c000082700004027100b9
:100d5000300032000700370060001000e08018000b
:100d600060011900e081190002003b0001f02d0034
:100d7000280037000004be000200be006011b80069
:100d80006b092000950220000182cf000a00390083
:100d90000541b1000082cf00070039000541b100d4
:100da0000982cf00040039000541b1000882cf005c
:100db000010039000541b100054252001200320025
:100dc0000a003b0082817100610164008100d10052
:100dd0000080d3008984d3000884d3008b05e80009
:100de0000442e800f7ff3a00070037000804440017
:100df00089844c0000004800818048008b05e90090
:100e00000442e900f9ff3a00a70207000af0a70030
:100e100001f0a0004f05be004f04be000000060018
:100e2000c70207000509780000000600809feb005c
:100e30004d0207008f87e9000000e0000000060077
:100e40002800fa00889fbe008a9fbe008c9fbe00cb
:100e500003866b00ea0107006400e10044003200f1
:100e60006408e1004a0032006100e10046003200ff
:100e70006108e10049003200ec0647006000b8005c
:100e80003d02be003d03be00f48657006011b8006d
:100e90003d04be003d05be007d0320000b00370071
:100ea0000000a0008d06e900130032000402420099
:100eb00085824a0006034b0087834b0000004000f8
:100ec00081804800020149008381490008025200e4
:100ed00089825a000a035b008b835b00f0ff3b00b2
:100ee0000802420089824a000a034b008b834b00b0
:100ef0008d06e900edff3a0084827200868272005e
:100f0000f707b2008782720001003200150020004e
:100f10001e0490003e0b900006035400e63fb00014
:100f20000368a300070032000000a7000500a0002e
:100f30008301d1000281d3008180d3000080d300df
:100f40000603e8008301d1000281d3008180d30031
:100f50000080d3000002eb000482d200c101070030
:100f600003f0a1000cf0a70003f0a000b8013700c7
:100f7000640247006408e100b20132003400be00a0
:100f80003401be00f6ff37006108e100ad01320018
:100f90006011b8006000b800f1ff370003ff2700c0
:100fa00002002000fbff37001400fa00889fbe00fb
:100fb0008a9fbe008c9fbe000004be000205be00da
:100fc000680047000a90be000890be000f020700ac
:100fd0000070a7000bf0a1000bf8a30016003a0068
:100fe0009e0290003043200080825200b0fe2f000d
:100ff0000028e1000d003c00b0fc2f000028e100bb
:101000000d0034001e0990008e0890007e009000b4
:101010000501b0000201d1008180d3000080d3001f
:101020008502e800fbff3a00890137000100280033
:1010300000002000860137006000b80084013700fe
:10104000889fbe008a9fbe00010578000100e00075
:101050000400350008003c000000e00020003200e1
:101060000500370060001000e080180002003b001f
:1010700001f02c001a0037000004be006011b80017
:101080006b0920000982cf00020039000882cf00de
:101090000441b000694252000e00320008003b00db
:1010a00082817100610164008904d1000884d30049
:1010b0008b05e8000442e800f9ff3a00050037001c
:1010c0000804440089844c008b05e9000442e900cf
:1010d000fbff3a00f40107000af0a70001f0a000ae
:1010e0004f05be004f04be000000060003f0a20042
:1010f000889fbe008a9fbe008c1f78001d020700db
:10110000240233006450e1004f0032006420e1000b
:101110005200320003826c0007003b000905d0003a
:101120000306d000820f54000c065d000200390057
:10113000020032008901780003067800858255009c
:1011400004003d000003fd008103fd008502ea006c
:101150008b854200840f720002003b00600010008b
:10116000e08018006011b8000005eb007a28e1006b
:101170000a00390006007800c75ddd00f707b200fd
:10118000878075002d003700828171000a01780088
:10119000610560008180d1000080d3008502e900f4
:1011a000f9ff3b00060440008784480002003b0032
:1011b00060041400e0841c000988a30007003200ca
:1011c0008a81710082817100610164008904d1000b
:1011d0000884d3008b05e800170037000978a300c6
:1011e00013003a000b00e000130034008b05e90007
:1011f0000804440089844c000a4474000978a30060
:101200000d003a000b00e000070034008b05e900f8
:101210000804440089844c0001003a000b002000bf
:101220000978a300f7ff32000001eb00020037004d
:10123000828171000a0178009b0107000cf0a70071
:1012400001f0a000dc0137006420e10002003a0058
:10125000838f6c00dc0133000801be000200be0079
:10126000d501370007f0a200000037002800fa007f
:10127000889fbe008a9fbe008c9fbe000706780034
:10128000878669000c003b0003047800870478001f
:1012900008f0a10009f0a100840f5000858f5800cc
:1012a000860f5900890f5c00030033000cf0a20088
:1012b00001003a000cf0a100d10007006400e10039
:1012c0005f003200780147006408e10061003200ed
:1012d0006c014700748557003200be001201be0049
:1012e0003a04be001a05be001e039000be0a90001c
:1012f0008503530006003d000004fd008104fd004d
:101300000205fd008305fd008703ea000503780060
:101310000df8a3000400320060041400e0841c00f7
:1013200060051d00e0851d006022b8007d032000df
:101330000d38e1008006eb000b0039004433dd007e
:10134000f300b20083017300390037008482720019
:101350000d027800e10664008b85d1000a85d30078
:101360008984d3000884d3008703e900f7ff3b009a
:1013700008004000898048000a0149008b8149002b
:1013800004003b0060001000e080180060011900bc
:10139000e08119000358a300090032008d82720019
:1013a00084827200610260008301d1000281d30057
:1013b0008180d3000080d3000603e8001b003700c3
:1013c0000348a30017003a000600e00017003400ad
:1013d0000603e9000d00a3000000480081804800da
:1013e00002014900838149000348a3000f003a002d
:1013f0000600e000090034000603e9000000400098
:1014000081804800020149008381490001003a00bf
:101410000003eb000348a300f5ff32006022b80090
:101420000200370084827200618266008d0007002e
:1014300003f0a1000cf0a70003f0a0008400370027
:10144000640147006408e10002003a000df8a300bf
:101450007c003a003200be001201be007c00370062
:101460001400fa00889fbe008a9fbe008c9fbe00b9
:101470000004be000205be00680047000a90be00de
:101480000890be00e10007000070a7000bf0a1006b
:101490000bf8a30020003a009e0990000e0990006e
:1014a000fe0090006e0090009e02900034432000e9
:1014b00084825200660032000a003c00b4fc2f0017
:1014c0000428e100140034008301d1000281d3001c
:1014d0008180d3000080d3008502e800faff3a0043
:1014e0005b003700b40020000428e10007003c0046
:1014f00000004000818048000201490083814900ca
:101500008502e900faff3a00510037000300280085
:1015100002002000010037006011b8006000b80030
:101520004b003700889fbe00830478000300e00072
:101530002c00350003003c000082700004027100a2
:101540002600320036432000c50020008383cf00f0
:101550000a0039000541b1008283cf00070039003d
:101560000541b1008183cf00040039000541b1007d
:101570008083cf00010039000541b10085c35300cd
:101580006022b800120032000a003b008482720020
:10159000610260008301d1000281d3008180d30009
:1015a0000080d3000603e8008743e800f7ff3a0015
:1015b0000700370000004000818048000201490018
:1015c000838149000603e9008743e900f9ff3a00f7
:1015d0002400070009f0a70003f0a0004f04be009c
:1015e0000000060060001000e08018006001190093
:1015f000e0811900d3ff3b00033e2c00f7ff3700ca
:10160000680447000294be000094be00fc0447003a
:101610008694be008494be00090078007b00070019
:10162000080078007900070099007800814f700069
:101630000b003b000800be00e60007004f00b100b1
:1016400003003700f3ff2700f2ff2f006110b900fd
:101650004f06be004f05be004f04be000080fa00da
:101660000000060018002000570020000804530066
:101670000d003d000600200097fc2f000740e10010
:101680001e00340084827200610260008301d10078
:101690000281d3008180d3000080d3000804e800d9
:1016a000f8ff3a0047002000610460000504740060
:1016b000040464000d00320061004000e080480036
:1016c00060014900e081490003b8a500070032002d
:1016d0000603e8006538e10004003a008301d10008
:1016e0000281d3008180d3000080d300f87f2000e6
:1016f0000830e10003003500080378006000b800fe
:101700006011b8004433dd00f300b20083017300c0
:1017100000000600c70ade00f107b200f50fb200b4
:1017200008003200e1cf4200020032000170a00048
:1017300024000500810f700001003200040805003c
:1017400044000500810f700002003a0014000500fb
:101750008502e9000000400081c04800fcff3b001a
:101760000170a00024000500889fbe008a9fbe0073
:101770008c9fbe000404be000605be00809fbe0014
:10178000829fbe00a1000700040678000800be008a
:101790000a01be009d000700840678004f03be00ca
:1017a0004f02be008d4f76007fb0970013003300cc
:1017b000f0ff2f008b8f6b0006003b000d066600cc
:1017c0000c00a7000a00370007f0a6001000200058
:1017d0000a003700880f5200898f5a008a0f5b0079
:1017e0008b8f5b00030039001000200001003e00d9
:1017f0000000200007f0a7000000ea004f06be002e
:101800004f05be004f04be000000060080007800b7
:101810005002be005003be004439de00f700b200a3
:10182000f37f200003016100090032000218e1008b
:1018300016003a00850172008301730083817300f2
:101840000008200015003a00400020001300370077
:1018500085017200830173008381730005003a00e3
:1018600004a8be0006a8be00100020000b00370030
:101870000201e9000402420085824a0006034b008f
:1018800087834b000748a300f9ff32000740a00000
:1018900004a8be0006a8be0020002000800098001a
:1018a0009200980000000600810020006180550031
:1018b0000b003d000b00200061fe2f000100e10045
:1018c0001d00340082817100610164008904d1002f
:1018d0000884d3000000e800faff3a0071002000fd
:1018e0006100640003007000020060000900320023
:1018f00061044400e0844c000988a5000500320022
:101900008b05e8006808e10002003a008904d10074
:101910000884d300f20f20000258e10005003d00ca
:10192000c75ddd00f907b200898075000800780006
:10193000000006000bf827008b007800000005006f
:101940000003be0073ff07006220e10002003200c6
:101950000600be0005000500e507b100f107b20072
:1019600004f023008480700007f0a70001f0a000bd
:10197000240005000004be0066ff07000003be004f
:101980000405be000200be0062ff0700844f750020
:10199000000006000200be006450e10005003600b1
:1019a0006420e100020036000968a30001003a004b
:1019b0000800be000160a0004f0678004f05be0081
:1019c0004f04be0000000600f0ff2f00f1ff2700cb
:1019d000f9ff3700e48240001078a30007003200ce
:1019e000640240001178a3003400be001401be0060
:1019f000040032000330a700000006003500be00de
:101a00001501be000330a0000000060005ff2700fe
:101a100005826100070032000428e1000100320065
:101a2000240005000600070001003a0044000500fc
:101a30000408050002000700f9ff3a001400050041
:101a40006f82610081027000850271008502720060
:101a5000000006000c00fa00889fbe000004780019
:101a6000cfb09700f0ff2700d0bf9f008004eb00ad
:101a700099bf9f0088bf9f00a8bf9f00200c200037
:101a8000b0bf9f0078815700708057002600070084
:101a90000fb89700094878000fb897000804500065
:101aa000080078004f04be000080fa000000060025
:101ab0000c00fa00889fbe0000047800cfb09700a9
:101ac000f0ff2700d0bf9f008004eb0099bf9f006c
:101ad00088bf9f00a8bf9f00200c2000b0bf9f00c0
:101ae0007881570070805700b40307000fb8970043
:101af000094878000fb897000804500008007800e3
:101b00004f04be000080fa00000006008001eb00d8
:101b100002003700817178008301e800828f510054
:101b2000fcff3a0000000600fe874700889fbe00c9
:101b30008a9fbe008c9fbe008e1f7800f0b79f006a
:101b40000107780082bf9f000000eb00b0b79f0044
:101b5000e60237008006eb0050c2b30080cf500091
:101b6000090032000100fb00ffb09700790b07006d
:101b7000e10f4000dd023200bfb097008100e800b5
:101b8000b1b79f00d90237009e407800b0c2b300c1
:101b900080cf50001300320007003c006b40500023
:101ba00080cf50000d0032006340400080cf5000d5
:101bb00013003a000d003700d0c2b30080cf5000b0
:101bc000040032006340400080cf50000c003a0017
:101bd000080037000d30a000070037000d00a000fe
:101be000050037000d10a000030037000db0a00065
:101bf000010037000d20a0000e07e800e2ff3700cb
:101c00000d18a300010032000d00a1000d38a30043
:101c1000010032000d20a1000100fb0002fd2f0099
:101c200002004000e90f50000e003e000002eb00f1
:101c3000d4af9f00820178005fae97006a60b90060
:101c40001e01fb000001410003014100d2af9f00d3
:101c50005e00fb0003004000e90f50000b003e0057
:101c6000f5ff37000000eb00d0af9f00a0c2b3002b
:101c700080cf500005003a008fb8970041017800ee
:101c800081bf9f00d2af9f000e07e8000002eb006b
:101c9000c4b79f00e0c2b3009e4f100018003a0086
:101ca0000de0a0008e00e80064405000914f10004d
:101cb00002003200010778000c0037000fbe9700c9
:101cc0004c0078008cbf9f00c0b79f000e87e800d3
:101cd0000b0037004fb297006a20b90000004100a6
:101ce00003004000c0b79f000e07e8001e01fb0084
:101cf00003fd2f0003004100e90f5000f5ff3600ff
:101d0000be407800e1d79f00c0c6b30080cf50002e
:101d1000220032000f003c006940500080cf50008c
:101d20007700320004003c000104e000730232003e
:101d30006b4050000f00370040c6b30080cf50000a
:101d4000930032006540400080cf50008b003a0085
:101d50008f00370030c7b30080cf50001a00320028
:101d600007003c006440500080cf5000110032005a
:101d70000040e80080cf500080003a000f0037009c
:101d800050c7b30080cf5000800032006340400055
:101d900080cf500079003a00090037000000280089
:101da0000d48a30001003a00000120008086760063
:101db000d3ff37000d60a000750037000d50a00064
:101dc0000d70a000720037000fbe97004c00780025
:101dd0008cbf9f00000478000000e00001003a0082
:101de000c81221008004eb00010037008104e800e4
:101df00089007800088044001004e000fbff3a00ee
:101e00004fb097000000e00003003200890f50003f
:101e100001003100800478008000eb00e1af9f00fa
:101e20005fa99700890f5100020036000900510098
:101e3000e0af9f004368de00e10660001b003a004f
:101e40000d06780009003700ffb09700000220005f
:101e5000c00a0700e10f4000030032003fb29700c4
:101e60000402e800b4b79f000c06e8006fa89700d2
:101e7000800f5600f4ff3a008080eb00e1af9f0036
:101e80000a003700880078003100fb000104780068
:101e9000ffb09700af0a0700e10f400003003200d7
:101ea0003fb197000201e800b2b79f000900e900c6
:101eb00080047800e10f4000f2ff3a000006eb00da
:101ec0000d00e0000a003a0008023700ffb097005a
:101ed000000220009f0a0700e10f400003003200cb
:101ee0003fb297000402e800b4b79f000c06e80078
:101ef0006fa89700800f5600f4ff3a00fb013700ef
:101f00008fb897004100780081bf9f00cf80de002e
:101f100001017800820178000205be000004be00c5
:101f20000203be000002be004822de00482edd0093
:101f300004027600e4d79f000d48a3000a00320097
:101f40000404e00008003200e14f420006003200c5
:101f500071fd2f000f804000044878001840980061
:101f60002900200002003700f0d79f001900200050
:101f700072fd2f000f044100a1ff370064fd2f0008
:101f80000f044200190020009dff37000d0cb30024
:101f90000d007800000cb20028003a000d00e000af
:101fa00005003d000fbe97004c05be004c04be006e
:101fb0008cbf9f00140037000d48a3000b003200b7
:101fc0000fb997004200be0082bf9f004f89de001c
:101fd000cf91de000002be00020378008203780089
:101fe0000605be000404be00070037000fba9700c4
:101ff0004400780084bf9f0000047800cfc4de0056
:10200000090578008a057800e00f5400e08f5c0035
:10201000e00f5d00e08f5d001f003d003d00b3005c
:102020006000b8006011b8000804500089845800ae
:102030000a0559008b855900170037000d00e00094
:1020400005003d000fbe97004c05be004c04be00cd
:102050008cbf9f00100037000d48a300070032001e
:102060000fba97004400be0084bf9f006011b80003
:102070000205be000004be00070037000fbe970037
:102080004c0078008cbf9f000004780009002000fd
:102090000a0020000b0020004fb097000000e00075
:1020a00007003a00e00f5400e08f5c00e00f5d0095
:1020b000e08f5d0002003a0011002000c1b79f00d0
:1020c0000d017800020cb200e2b79f00000420006e
:1020d000800f51002d00320003003c000200e000a0
:1020e000080032003a003700000820006fb2970065
:1020f000800f520014003200000c2000800f5200ac
:1021000033003a0014c0b300c5d520000b003700df
:102110000400fb004300dd00050040005001be004c
:102120004000be000040e10001c8e10002d0e10033
:1021300003d8e100250039000442e800f44f5200c2
:10214000f3ff3a002100370014c0b300c5cd2000d2
:102150000b0037000400fb004300dd0005004000d9
:102160005001be004000be000040e10001c8e10097
:1021700002d0e10003d8e100140039000442e80075
:10218000f04f5200f3ff3a001000370014c0b300c4
:10219000c5c220000b0037000400fb004300dd0037
:1021a000050040005001be004000be000040e100bc
:1021b00001c8e10002d0e10003d8e10003003900ca
:1021c0000442e800f64f5200f3ff3a00e4d79f00c4
:1021d0006fd697000c00fb00cfb09700810f500026
:1021e00002003d00e1d79f00040037004fb1970087
:1021f000800f510001003d00c0b79f005faa97000b
:102200000400e00004003200638066000200320037
:102210000402e900d4af9f000de8a3000b003200d8
:102220005fae97004fb09700800f560003003c0050
:102230008000eb00d1af9f00040037005fa997003a
:102240004fb2970004015100d2af9f00408c200094
:102250000080660001842000810f500006003a00d3
:102260005fae97000c00e000110032000c06e900a0
:10227000dcaf9f000e003700008c2000008066005d
:1022800001882000810f500009003a005fa89700e4
:10229000e20f500003003c008000eb00d1af9f0034
:1022a000030037005fa997000281e900d2af9f00c9
:1022b0006fd297000400fb000006eb00dcb79f0024
:1022c000dfa89700808f500002003400008050008b
:1022d000d0b79f000d28a30053003200e1806600b4
:1022e0000d18a3000c003200d00220000100e00015
:1022f00001003a000080e900ffb09700950907004f
:10230000e10f4000270032003fb197000201e800d2
:10231000b2b79f00230037000100e000090032003f
:10232000ffb09700000220008a090700e10f40007b
:102330001c0032003fb297000402e800b4b79f00cf
:1023400018003700008c2000008066000188200003
:10235000810f500013003a00ffb0970000032000e7
:102360007c090700e10f4000030032003fb69700f0
:102370000c06e800bcb79f00800520000d58a300a4
:1023800001003a0080072000ffb0970071090700a4
:10239000e10f4000030032003fb097000000e8006a
:1023a000b0b79f00dfb097000100e0000f003200df
:1023b0000006eb00ffb0970000032000650907004e
:1023c000e10f4000030032003fb197000201e80036
:1023d000b2b79f000c06e8005fb29700840f56006a
:1023e000f4ff3a000006eb00dcb79f004fb0970007
:1023f0008000e900c308dd00c0d520000080400057
:1024000090b79f00c0cd20000080400080b79f00a3
:10241000c0c2200080804000f1af9f008000eb0030
:10242000a1b79f009b0037005fb197000200e0005a
:1024300011003200688066000f003a000006780044
:10244000ffb097000002200042090700e10f4000a2
:10245000030032003fb297000402e800b4b79f00c7
:102460000c06e8005fb09700800f5600f4ff3a00ba
:102470008000eb00d1b79f00e18066000d18a3003b
:102480000c003200d00220000100e00001003a0000
:102490000080e900ffb097002e090700e10f40001f
:1024a0000e0032003fb197000201e800b2b79f0072
:1024b0000a0037000100e00008003200ffb097007a
:1024c0000002200023090700e10f40000300320052
:1024d0003fb297000402e800b4b79f00008c2000d0
:1024e0008080660000842000808f500009003a0040
:1024f000ffb097000003200016090700e10f40001d
:10250000baff32003fb697000c06e800bcb79f0048
:10251000b6ff370000882000808f5000b3ff3a00dc
:10252000ffb09700000320000a090700e10f4000f8
:10253000030032003fb097000000e800b0b79f00f2
:10254000800520000d58a30001003a0080072000fc
:10255000ffb09700ff080700e10f4000a3ff320023
:10256000bfb097008100e800b1b79f009fff370020
:10257000000420006fb19700800f51002700320047
:1025800003003c000200e000080032002c0037008d
:10259000000820006fb29700800f52001100320037
:1025a000000c2000800f520025003a001fb6970053
:1025b0003c02be002c03be000800be000a01be00a3
:1025c00072f80700a4002000050020006033b80066
:1025d00075f8070004c3b30004424000e4d79f002d
:1025e000170037003c1321000d58a30001003a00ea
:1025f0004c1421000fb097003002be002003be0033
:102600000800be000a01be0060f807006f0060000d
:102610006c467800ecd79f0009003700ffa89700b0
:102620003102be002103be000800be000a01be0048
:1026300056f80700674060000043b000e0d79f00f5
:102640006fd197000200fb00ffb09700c1080700a0
:10265000e10f4000030032003fb297000402e8009f
:10266000b4b79f002fb697000c06e800acb79f00e8
:102670001fb097006800500090b79f008fb0970080
:10268000e880500081b79f007fa997006801510042
:10269000f2af9f002fb297004fb697008c0f5200f9
:1026a000b3ff3a000d38a300100032005fb097006e
:1026b0000000e0000d0034000006eb00ffb09700c2
:1026c00000022000a3080700e10f400003003200d1
:1026d000bfb097008100e800b1b79f000c06e8008a
:1026e0005fb19700820f5600f4ff3a00be407800b9
:1026f000e1d79f000104e00016fd3a003fb09700cb
:102700004f0778004f06be004f05be004f04be00c5
:10271000ef01b10000000600889fbe008a9fbe0046
:1027200080407800d0c6b30080cf5000290036002a
:102730000185fb0042062000110009000285d80037
:1027400000017800010478004311dd00cbfc20007b
:102750000b0141006022b8000600200007fe2300a4
:102760000288900092889000b2899000228990009f
:1027700097f80700a9002000809fbe001100090003
:102780000984d800000478004f00be004344dd00f7
:102790000b04440048229000d82290006823900047
:1027a000f82390008af80700801f78000102780063
:1027b000110009000985d8000102fd004f007800d2
:1027c0004322dd000b0242005403be004402be005f
:1027d0001f0037000180fb00c9fc2000eacf500039
:1027e00014003600a2002000110009000280d80069
:1027f00000017800010478004311dd000901410067
:102800006022b8000600200007fe2300422090004e
:10281000d2209000f2219000622190006cf8070015
:102820004344dd00090444003802be002803be0012
:10283000070037004300dd00090040006022b800b7
:102840000600200007fe23005001be004000be002d
:102850005ff807004f05be004f04be0000000600f1
:10286000889fbe008a1f7800804078000004e00046
:1028700021003d008040ea00d0c6b30080cf500068
:10288000090034008104fb00420620001100090009
:102890008204d80000017800010078004311dd00b7
:1028a000cafc20001f0037000100fb00c3fc200011
:1028b00039003700a2002000110009000200d800f2
:1028c00000017800010078004311dd0003014100a0
:1028d0004300dd00030040003002be002003be00c4
:1028e00042209000d2209000f221900062219000be
:1028f00037f807002e003700d0c6b30080cf500055
:10290000230034008104fb0042062000110009006e
:102910008204d80000017800010078004311dd0036
:10292000ca0721000a014100a80020001100090087
:102930000800d8004300dd000a004000402290005b
:10294000d022900060239000f02390000288900035
:1029500092889000b2899000228990001cf80700ac
:10296000801f780001027800110009008804d80057
:102970000102fd004f0078000402fb004322dd004d
:102980000a0242005403be004402be00d8ff3700d2
:102990000100fb00c3072100eacf5000c5ff3c0047
:1029a0004300dd00030040005001be004000be00b7
:1029b0004f0578004f04be0000000600ef04b00091
:1029c000889fbe008a9fbe008c9fbe008e1f78002d
:1029d0006022b8006033b800e4a79f00f5a79f000d
:1029e00086af9f0097af9f00a0af9f00b1af9f0041
:1029f000c2af9f008002eb0095a79f00c807370079
:102a00008001eb0050c2b30080cf500009003200bb
:102a10000100fb00afa89700ce070700e10f4000c0
:102a2000bf0732001fa397000603e80096a79f0088
:102a3000bb073700bfab970097407800b0c2b30028
:102a400080cf50001900320007003c006b4050005e
:102a500080cf5000100032006340400080cf500013
:102a600021003a0016003700d0c2b30080cf5000da
:102a7000040032006340400080cf50001a003a004a
:102a8000140037000330a0003fac97000804e800b2
:102a9000b8af9f00e7ff37000300a000bfac97006e
:102aa0008904e800b9af9f00e2ff37000310a000df
:102ab0003fad97000a05e800baaf9f00ddff370081
:102ac00003b0a000bfad97008b05e800bbaf9f002f
:102ad000d8ff37000320a0003fa897000000e800bf
:102ae000b0af9f00d3ff37000318a30001003200ee
:102af0000300a1000338a300010032000320a1005d
:102b00000100fb0002fd2f0002004000e90f500011
:102b100010003e008000eb00e1979f000202780069
:102b20006f9197006a10b900bfaa97001501fb00ca
:102b30000001410004014100e2979f005500fb00a5
:102b4000b5af9f0004004000e90f50000d003e00ab
:102b5000f3ff37000003eb00e6979f00a0c2b3002d
:102b600080cf500007003a00cfab970047047800b1
:102b7000c7af9f00e8979f00bfac97008904e800ab
:102b8000b9af9f00e0c2b3003fad97009a4f10006d
:102b900021003a00830678000de0a0008a00e800da
:102ba00064405000914f100004003200b1af9f000c
:102bb0008005eb00aba79f00100037004fa89700df
:102bc000c0007800c0af9f00a1a79f003fa9970059
:102bd0000281e800b2af9f00130037002fa29700d8
:102be0006a20b9000000410003004000a0a79f0038
:102bf000bfaa97008502e800b5af9f003fab9700e2
:102c00001601fb0003fd2f0003004100e90f5000f7
:102c1000f2ff360004003700830678000dc0a000e4
:102c20008003eb00a7a79f003fac9700b840780057
:102c3000b8af9f00e1679f0070c6b30080cf50001f
:102c40003c00320017003c006440500080cf500030
:102c50008f0032000e003c007c40500080cf5000be
:102c60003300320006003c000104e000320732006d
:102c700000c0e90080cf5000aa003a0029003700c8
:102c800080c5b30080cf5000a6003a002d00370069
:102c900050c6b30080cf5000230032001f003c001c
:102ca000a700370000c7b30080cf500025003200d6
:102cb0000a003c006440500080cf500011003200f8
:102cc0006340400080cf50001c003200664050003e
:102cd00080cf500093003a009900370050c7b300ee
:102ce00080cf5000950032006340400080cf5000fc
:102cf000150032006540500080cf500089003a0036
:102d000013003700000028000d48a30001003a001e
:102d10000001200080867600c3ff37000da0a000d0
:102d2000870037000d50a0000d80a0008400370000
:102d30000d50a0000d90a000810037000d60a00094
:102d40007f0037000d50a0000d70a0007c00370000
:102d5000cfac970049007800c9af9f00e0a79f0063
:102d60000000e00002003a006b152100eba79f0075
:102d70000000eb00f0a79f00020037008100e80090
:102d8000f1a79f00ffa097006fa19700028040006d
:102d90001004e000f9ff3a00afa197000300e00043
:102da000040032007fa29700848f5100010031009f
:102db000f3a79f007fa097000005eb006f9397009b
:102dc000800f530001003600000553004368de0009
:102dd000e104600019003a00090478000900370096
:102de000afa8970000022000da060700e10f4000bc
:102df000030032009fa397008703e80097a79f0076
:102e00000804e8008a0f5400f5ff3a000085eb0043
:102e10000a003700efa097003100fb00e1a79f00f8
:102e2000afa89700cb060700e10f40000300320077
:102e30001fa497000804e80098a79f00ffa597002b
:102e40000b00e900f0a79f00e10f4000f1ff3a00fe
:102e50000004eb000900e0000a003a00b006370069
:102e6000afa8970000022000ba060700e10f40005b
:102e7000030032001fa197000201e80092a79f0003
:102e80000804e8008a0f5400f5ff3a00a406370052
:102e9000cfa9970043007800c3af9f00cf80de002a
:102ea00001017800820178000203be000002be002a
:102eb000e0a79f00f1a79f0082af9f0093af9f0004
:102ec0004822de00482cdd0004027400e4679f0005
:102ed0000d48a3000c0032000404e0000a00320098
:102ee000e14f42000800320079fa2f000f804400c1
:102ef000044878004fcd97001a4098002b0020001e
:102f0000fba79f0003003700f0679f001000200020
:102f1000f0a79f0071fa2f008f804000e1a79f006b
:102f20009dff370062fa2f000f014100e2a79f00ca
:102f300013002000f3a79f0097ff37000d0cb3008c
:102f400000702000008266008a0432000dc8a300d1
:102f50000200320064002000a4a79f000d48a300d7
:102f6000090032004fa897004005be004004be0093
:102f7000c0af9f00d89f9f00e99f9f00fa9f9f00ce
:102f80008ba79f00080037004fa997004200be00a2
:102f9000c2af9f0003f70700d09f9f00e19f9f00f3
:102fa000f29f9f0083a79f006022b8006033b800a3
:102fb0005f989700ef9897007f9997008fa19700ef
:102fc00017f707000000e0000a003d005f9a970035
:102fd000ef9a97007f9b97008fa3970007f0a200be
:102fe000d49f9f00e59f9f00f69f9f0087a79f00ab
:102ff0003d00b3000000eb00d0979f006022b800b6
:103000006033b8005f989700ef9897007f9997001a
:103010008fa1970007f707000000e000350032009d
:103020005f989700ef9897007f9997008fa197007e
:1030300005f707003ef70700a5fa2f000f814200b1
:1030400077f707005f9097000000e9006300b90080
:10305000a2002000110009000200d8008000fd003d
:10306000d1979f000100e00002003d000100e9004f
:10307000d0979f005f9497000840ea00f8fd070092
:103080005f9a9700ef9a97007f9b97008fa3970016
:103090004ff60700909f9f00a19f9f00b29f9f0047
:1030a000c39f9f006022b8000600200007ff230096
:1030b000dbf607000000e00002003d000800e90028
:1030c0000b0037006022b8000600200047022400f1
:1030d0001f989700af9897003f999700cf99970056
:1030e00052f707000000e000020035000800e80089
:1030f000d0979f005f939700d6a79f000600e0003f
:1031000003003c0010c0b300e0679f0002003700de
:10311000afcb9700e7679f000d0678000c10b20058
:1031200008003a000d98a3007e0232005fa49700c9
:10313000e40f440003003500afa49700890f54004a
:10314000f90135002fa597000a00e00004003200c5
:103150000d98a300020032000a05e900aaa79f000b
:10316000afa5970020c1b300f28f550001003e00cb
:103170004fc09700e0679f006022b8006033b8003e
:103180005f989700ef9897007f9997008fa197001d
:10319000a8f607000000e000740032006f66970098
:1031a000afc897000cc05000adfd07000002be0084
:1031b0000203be005f989700ef9897007f999700f1
:1031c0008fa197001ef707000004be000205be0095
:1031d0000002be000203be00d49f9f00e59f9f0037
:1031e000f69f9f0087a79f006ff707000001be00b2
:1031f000e00f5000e08f58000200350090f7070004
:103200000900370061006000010020008301d10047
:103210000281d300020070008380700088f70700ed
:103220000001be00b2f707005ef607000002be0014
:103230000203be000800be000a01be0009f8070034
:103240006022b8000600200007fe2300f7f6070002
:103250000000e0000a0035006022b80006002000ef
:1032600007fe23000800be000a01be00fff70700aa
:10327000d09f9f00e19f9f00f29f9f0083a79f0028
:103280005f989700ef9897007f9997008fa197001c
:1032900045f707000002be006033b8000c00fb00d9
:1032a0004304dd00c9f2200009004400d000900072
:1032b00060019000f0019000400090000020e100cb
:1032c00001a8e10002b0e10003b8e10010003900fc
:1032d0000400200005002a009699290097fb23008e
:1032e0005f989700ef9897007f9997008fa19700bc
:1032f000b7f50700d09f9f00e19f9f00f29f9f00be
:1033000083a79f00dfa297000500e80016003700a2
:10331000090044005001be004000be000020e10052
:1033200001a8e10002b0e10003b8e1000f003100a4
:103330006022b80006002000470224005f98970032
:10334000ef9897007f9997008fa19700a0f507004d
:10335000d09f9f00e19f9f00f29f9f0083a79f0047
:103360005fa397000600e900d0979f004968de0040
:103370006100600080cf9f000004e0004000320048
:1033800000802000008666003d003a002fa49700d0
:10339000f40f54000200340049012000a9a79f0047
:1033a0005f989700ef9897007f9997008fa19700fb
:1033b000fdf607000004be000c0578008c057800bf
:1033c0000b0037002fa097000000e900a0a79f0086
:1033d000a4002000050020006033b8000800be00f3
:1033e0000a01be00e9f407000205be000004be00a9
:1033f000e00f5400e08f5c00e00f5d00e08f5d00a7
:103400000b003200a4002000050020006033b8004b
:103410000800be000a01be00e3f40700e00f500000
:10342000e08f5800e00f5900e08f5900e5ff3200af
:10343000ef6097000100fb002fa19700800f510063
:103440000f003d0002c0500005fd07000002be0055
:103450000203be005f989700ef9897007f9997004e
:103460008fa1970076f60700d09f9f00e19f9f00f5
:10347000f29f9f0083a79f00cfc19700e3679f0043
:103480006f929700afa297000500520065065000aa
:103490000500e00002003a000db8a3000100320070
:1034a0006606500063806600010032000c06e900e9
:1034b0000d28a30026003200e18066000d18a3004d
:1034c0000c003200d00220000100e00001003a00b0
:1034d0000080e900afa897001e050700e10f40003b
:1034e000180032001fa397000603e80096a79f006c
:1034f000140037000100e00012003200afa897006e
:103500000002200013050700e10f40000d0032000b
:103510009fa397008703e80097a79f000900370043
:10352000afa89700000320000a050700e10f400044
:10353000030032001fa497000804e80098a79f002a
:103540000c06e9000c00e000f5ff3c002e003700ff
:103550000d38a3000a0032000b003700afa8970017
:1035600000022000fb040700e10f400003003200ce
:103570009fa497008904e80099a79f000c06e90022
:103580000c00e000f5ff3c00e18066000d18a30090
:1035900013003200d00220000100e00001003a00d8
:1035a0000080e900afa89700ea040700e10f40009f
:1035b000150032001fa597000a05e8009aa79f0092
:1035c00011003700e8a79f00f9a79f008aaf9f006e
:1035d0009baf9f008045eb00eb679f0080003700aa
:1035e0000100e00008003200afa8970000022000b0
:1035f000d8040700e10f4000030032001fa097002d
:103600000000e80090a79f005f989700ef98970050
:103610007f9997008fa1970063f607000004be0012
:103620006055b800ef6097000100fb004300dd002b
:10363000cef220000e0040003002be002003be008b
:103640000800be000a01be0050f407000003b000ed
:10365000afa89700bf040700e10f4000030032004d
:103660001fa197000201e80092a79f00ef61970059
:103670000300fb004300dd000e0040003002be00ee
:103680002003be000800be000a01be0046f4070089
:103690000205be000004be00e0a79f00f1a79f0046
:1036a00082af9f0093af9f00afa297000500e0009c
:1036b00002003a000db8a30049003200afa89700fd
:1036c000e0022000a3040700e10f400003003200e5
:1036d0001fa397000603e80096a79f00ef639700db
:1036e0000700fb00afa0970000805000809f9f0064
:1036f000240037000fc997000204e00005003200e3
:10370000e00f5400e08f5c00e00f5d00e08f5d0093
:10371000acff32000000fb004300dd00cef22000d1
:103720000e0040003002be002003be000800be00b4
:103730000a01be0015f407000003b000afa897000f
:1037400084040700e10f4000030032009fa19700ae
:103750008301e80093a79f006f6297000400fb00bd
:103760004300dd000e0040003002be002003be001a
:103770000800be000a01be000bf407000205be00ef
:103780000004be00ef6297000540e900e0679f007b
:10379000e14f4000d7ff3a00e8a79f00f9a79f003c
:1037a0008aaf9f009baf9f000004eb000900370029
:1037b000afa897000003200066040700e10f400057
:1037c000030032001fa397000603e80096a79f009e
:1037d0000804e8008f9b9700870f5400f4ff3a001d
:1037e0000d58a30009003200afa897005004200034
:1037f00058040700e10f40000c0032001fa497009e
:103800000804e80098a79f0008003700afa89700b9
:10381000500620004f040700e10f40000300320073
:103820009fa497008904e80099a79f005f909700e4
:103830000000e0000b003d000000ea00d0979f0070
:10384000afa89700d002200042040700e10f40001b
:103850000c0032001fa597000a05e8009aa79f00f8
:1038600008003700afa89700b00220003904070015
:10387000e10f4000030032009fa597008b05e80090
:103880009ba79f005f909700a800200011000900ef
:103890000800d8000003b000afa897002d0407006f
:1038a000e10f4000030032001fa097000000e80075
:1038b00090a79f00df909700110009008800d800b2
:1038c0008000fd000003b000afa8970021040700ae
:1038d000e10f4000030032009fa097008100e80044
:1038e00091a79f000d38a3000d0432000c00e000ea
:1038f0000b0434000004eb00afa897000002200086
:1039000014040700e10f4000030032001fa19700dc
:103910000201e80092a79f000804e8008c0f540001
:10392000ff033200f4ff3700dfa197000300e0003f
:1039300004003d002fa29700030052000000e900a0
:10394000a0a79f005f989700ef9897007f99970036
:103950008fa19700c2f607000205be000004be005a
:103960000c427800c5f220000b0037000400fb0079
:103970004300dd00050040005001be004000be00d5
:103980000040e10001c8e10002d0e10003d8e100fd
:10399000030039000442e800f44f5200f3ff3a00fc
:1039a000e4679f000400fb00afa29700008752006d
:1039b000f80f57000d003c000e40780056fb070042
:1039c0000002be000203be005f989700ef989700c8
:1039d0007f9997008fa1970024f60700d09f9f0042
:1039e000e19f9f00f29f9f0083a79f000e407800f9
:1039f0009bfb0700d0af9f00e1af9f00f2af9f009d
:103a000083b79f00e00f5400e08f5c00e00f5d0083
:103a1000e08f5d00040035000800be000a01be0012
:103a2000c0f607001300370010002000010020003e
:103a30006011b80008006000898060000a01610020
:103a40008b8161008b03d1000a83d3008982d3006c
:103a50000882d300000072008180720002017300ae
:103a600083817300aff607000002be000203be00b0
:103a7000fef507000002be000203be005f9897003b
:103a8000ef9897007f9997008fa19700f5f50700b1
:103a90000002be000203be005fa89700efa89700d7
:103aa0007fa997008fb19700c9f307006cf6070054
:103ab0000205be000004be000006eb00080037004f
:103ac000a4002000050020006033b8000800be00fc
:103ad0000a01be002df307000205be000004be006f
:103ae0000c035700a6a79f008e0f56001d00320042
:103af0000c06e800a4002000050020006033b80098
:103b00000800be000a01be0027f30700e00f5000c6
:103b1000e08f5800e00f5900e08f5900e8ff3200b5
:103b200010003700afa39700f88f53000d003c0042
:103b300007407800f8fa07000002be000203be004a
:103b40005f989700ef9897007f9997008fa1970053
:103b5000c6f50700d09f9f00e19f9f00f29f9f0046
:103b600083a79f005fa49700e90f540015003c0055
:103b70006022b8006033b8005f989700ef98970014
:103b80007f9997008fa197002af407000000e000ba
:103b9000360032005f989700ef9897007f99970062
:103ba0008fa197002ef60700e00f5000e08f58001d
:103bb000e00f5900e08f59002c003a00e10f54004b
:103bc0002a0034000400200005002e00b6e0220088
:103bd000170124001f989700af9897003f9997000e
:103be000cf9997000ef407000000e00003003d00ad
:103bf000dfa4970073805400020037005fa5970090
:103c000072005500d0979f002f68970014fb0700a3
:103c1000909f9f00a19f9f00b29f9f00c39f9f0006
:103c20000002be000203be005f989700ef98970065
:103c30007f9997008fa1970081f4070008f607008d
:103c4000e0a79f00f1a79f0082af9f0093af9f0066
:103c50006000b8006011b800d0b79f00e1b79f00c6
:103c6000f2b79f0083bf9f00340037005f98970032
:103c7000ef9897007f9997008fa19700f8f50700bc
:103c8000e0a79f00f1a79f0082af9f0093af9f0026
:103c9000e00f5000e08f5800e00f5900e08f59000e
:103ca000020035001ff60700170037001000200043
:103cb000010020006011b8006fa29700ffa29700da
:103cc0000fab97009fab97000400600085806000f9
:103cd00006016100878161008703d1000683d3005c
:103ce0008582d3000482d3000000720081807200bc
:103cf00002017300838173000af607000002be0010
:103d00000203be0059f507000002be000203be0018
:103d10005f989700ef9897007f9997008fa1970081
:103d200050f50700d0b79f00e1b79f00f2b79f00a2
:103d300083bf9f000000eb00d0979f0014c0b3002a
:103d4000c5f220000f0037000400fb004300dd0037
:103d5000050340003600be002601be006fa4970098
:103d6000ffa497000fad97009fad97000040e100c2
:103d700001c8e10002d0e10003d8e10003003900ee
:103d80000442e800f44f5200efff3a00e4679f005e
:103d90000400fb00afa4970000804400df90970070
:103da000010040006f959700000655004b68de004b
:103db00061006000004778000004e00002003a0063
:103dc0000900e000010032000c06e9006380660093
:103dd000010032000c06e9000d28a3002600320085
:103de000e18066000d18a3000c003200d002200014
:103df0000100e00001003a000080e900afa8970050
:103e0000d4020700e10f4000180032009fa5970080
:103e10008b05e8009ba79f00140037000100e0001d
:103e200012003200afa8970000022000c90207006c
:103e3000e10f40000d0032001fa097000000e800d5
:103e400090a79f0009003700afa89700000320004b
:103e5000c0020700e10f4000030032009fa097005e
:103e60008100e80091a79f000c06e9000c00e0002b
:103e7000f5ff3c003f0037000d38a3000a00320078
:103e80000b003700afa8970000022000b102070026
:103e9000e10f4000030032001fa197000201e8007b
:103ea00092a79f000c06e9000c00e000f5ff3c0023
:103eb000e18066000d18a3000c003200d002200043
:103ec0000100e00001003a000080e900afa897007f
:103ed000a0020700e10f4000260032009fa19700da
:103ee0008301e80093a79f00220037000100e00053
:103ef00020003200afa897000002200095020700c2
:103f0000e10f40001b0032001fa297000402e800ee
:103f100094a79f00170037000000fb004300dd005e
:103f2000c1f22000010040003002be002003be00ac
:103f30006fa09700ffa097000fa997009fa9970077
:103f400012f20700a4002000050020006033b80032
:103f500015f207000003b000afa897007d0207002c
:103f6000e10f4000030032009fa297008502e800a5
:103f700095a79f006f6397000640e900e0679f00e8
:103f8000e14f4000e4ff3a000b003700afa8970074
:103f9000000320006f020700e10f40000300320021
:103fa0009fa397008703e80097a79f005f90970063
:103fb0000000e900d0979f005f9097000000e000ac
:103fc000f2ff3c002fa49700f20f540003003400ce
:103fd00020c1b300e0679f0002003700cfc4970004
:103fe000e9679f00ef6097000100fb002fa5970095
:103ff00000005500f0979f000104e00002003a0025
:104000000e04e00008003200afa89700e002200094
:1040100050020700e10f4000030032009fa5970007
:104020008b05e8009ba79f006f6097000cfa0700c4
:104030000002be000203be005fb09700efb0970021
:104040007fb197008fb9970061f2070004f5070070
:104050001e0037000000fb004300dd00cef2200010
:104060000e0040003002be002003be000800be006b
:104070000a01be00c5f10700a400200005002000d1
:104080006033b800c8f107000003b000afa8970084
:1040900030020700e10f4000030032001fa097002c
:1040a0000000e80090a79f00ef6097000100fb0070
:1040b0004300dd000e0040003002be002003be00c1
:1040c0000800be000a01be00b7f107000205be00ed
:1040d0000004be006f6197000240e900e0679f00a6
:1040e000e14f4000dbff3a00e8a79f00f9a79f00df
:1040f0008aaf9f009baf9f000004eb0009003700d0
:10410000afa897000003200012020700e10f400053
:10411000030032009fa197008301e80093a79f004e
:104120000804e8007f929700840f5400f4ff3a00df
:104130000d38a300fa0132000c00e000f801340051
:104140000004eb00afa89700000220000102070066
:10415000e10f4000030032009fa297008502e800b3
:1041600095a79f000804e8008c0f5400ec01320072
:10417000f4ff37000d007800000cb20032003a0066
:104180000d00e00009003d004fa897004005be006b
:104190004004be00c0af9f00e8a79f00f9a79f00a2
:1041a0008aaf9f009baf9f00160037000d48a30009
:1041b000090032004fa997004200be00c2af9f0025
:1041c0004f89de00cf91de000002be0002037800be
:1041d0008203780007003700cfa9970043007800da
:1041e000c3af9f0000027800cfa2de000503780075
:1041f00086037800e4a79f00f5a79f0086af9f0085
:1042000097af9f006fa49700ffa497000fad970092
:104210009fad9700e00f5400e08f5c00e00f5d0061
:10422000e08f5d0026003d003d00b3006000b80057
:104230006011b80008045000898458000a0559002c
:104240008b8559001a0037000d00e00005003d0085
:104250004faa97004401be004400be00c4af9f00b7
:10426000070037000d48a3000a003200cfaa9700cc
:104270004500be00c5af9f000401780084017800ae
:10428000e0a79f00f1a79f0082af9f0093af9f0020
:104290000b0037004fab970046007800c6af9f0079
:1042a00000047800090020000a0020000b00200014
:1042b000e8a79f00f9a79f008aaf9f009baf9f00d0
:1042c000afa497000900e0000b003a006fa0970030
:1042d000ffa097000fa997009fa99700e00f50003b
:1042e000e08f5800e00f5900e08f590002003a00bb
:1042f00011002000a1a79f000d0678000c0cb20051
:1043000000042000800f56003400320003003c00ff
:104310000c00e000070032004500370000082000d4
:10432000800f560018003200000c2000800f56004d
:104330003f003a0014c0b300c5f220000f00370060
:104340000400fb004300dd00050040005001be00fa
:104350004000be006fa49700ffa497000fad970028
:104360009fad97000040e10001c8e10002d0e100ec
:1043700003d8e1002d0039000442e800f44f520058
:10438000efff3a002900370014c0b300c5ea20004f
:104390000f0037000400fb004300dd000500400073
:1043a0005001be004000be006fa49700ffa497001c
:1043b0000fad97009fad97000040e10001c8e100fc
:1043c00002d0e10003d8e100180039000442e800ff
:1043d000f04f5200efff3a001400370014c0b30052
:1043e000c5df20000f0037000400fb004300dd00a4
:1043f000050040005001be004000be006fa49700c1
:10440000ffa497000fad97009fad97000040e1001b
:1044100001c8e10002d0e10003d8e1000300390047
:104420000442e800f64f5200efff3a00e4679f00b5
:10443000ef6497000900fb002fa597008a0f50003a
:1044400002003d00ea679f0004003700afa5970017
:10445000808f550001003d00a0a79f006f9097003e
:104460000000e000050032006380660003003200b7
:10447000ef9097008100e900e1979f000de8a3000d
:104480000b0032006f919700afa19700830f51008e
:1044900003003c000002eb00e4979f00040037009b
:1044a000ef9297002fa3970086825200e5979f0016
:1044b000408c20000080660001842000810f5000a5
:1044c00006003a00ef9397000700e0001100320069
:1044d0008703e900e7979f000e003700008c20005b
:1044e0000080660001882000810f500009003a001a
:1044f0006f949700e20f540003003c008004eb002f
:10450000e9979f00030037006f9597000a85e9003f
:10451000ea979f00ef6597000b00fb008000eb001f
:10452000b1a79f006f919700800f510002003400e7
:1045300000005100b0a79f000d28a3004f003200db
:10454000e18066000d18a3000c003200d0022000ac
:104550000100e00001003a000080e900afa89700e8
:10456000fc000700e10f4000270032009fa19700e8
:104570008301e80093a79f00230037000100e000bb
:1045800009003200afa8970000022000f1000700e8
:10459000e10f40001c0032001fa297000402e80057
:1045a00094a79f0018003700008c20000080660050
:1045b00001882000810f500013003a00afa8970037
:1045c00000032000e3000700e10f40000300320079
:1045d0009fa297008502e80095a79f008005200014
:1045e0000d58a30001003a0080072000afa89700f3
:1045f000d8000700e10f4000030032001fa397001e
:104600000603e80096a79f00bfa397000700e000fd
:104610000f0032000004eb00afa897000003200059
:10462000cc000700e10f4000030032009fa4970078
:104630008904e80099a79f000804e8003fa59700b7
:104640008a0f5400f4ff3a008005eb00bba79f00df
:104650002fa097008000e900c308dd00c0f2200011
:1046600080854000c0ea200000854000c0df2000b7
:10467000808440000007eb0094003700bfa0970043
:104680000100e00011003200688066000f003a006f
:1046900000047800afa8970000022000ad000700da
:1046a000e10f4000030032001fa197000201e80063
:1046b00092a79f000804e800bfa19700830f540051
:1046c000f4ff3a000002eb00b4a79f00e18066000f
:1046d0000d18a3000c003200d00220000100e00001
:1046e00001003a000080e900afa897009900070098
:1046f000e10f40000e0032009fa297008502e80003
:1047000095a79f000a0037000100e0000800320072
:10471000afa89700000220008e000700e10f4000c4
:10472000030032001fa397000603e80096a79f002e
:10473000008c20008080660000842000808f500064
:1047400009003a00afa8970000032000810007008d
:10475000e10f4000beff32009fa397008703e800ef
:1047600097a79f00baff370000882000808f500075
:10477000b7ff3a00afa897000003200075000700bc
:10478000e10f4000030032001fa497000804e80076
:1047900098a79f00800520000d58a30001003a0053
:1047a00080072000afa897006a000700e10f4000d3
:1047b000a7ff32009fa497008904e80099a79f00f3
:1047c000a3ff370000042000800f560028003200ad
:1047d00003003c000c00e000070032002e00370010
:1047e00000082000800f560012003200000c20004c
:1047f000800f560028003a003b02be002b03be008b
:104800006fa09700ffa097000fa997009fa997009e
:10481000deef0700a4002000050020006033b80090
:10482000e1ef070004c3b30004424000e4679f00c7
:1048300019003700d81521000d58a30001003a00d7
:10484000e81621003a02be002a03be006fa09700be
:10485000ffa097000fa997009fa99700cbef070033
:104860006f00600068447800e8679f000a00370026
:104870003902be002903be006fa09700ffa0970079
:104880000fa997009fa99700c0ef0700674060003d
:104890000043b000e0679f00ef6297000500fb0057
:1048a000afa897002b000700e10f40000300320083
:1048b0001fa397000603e80096a79f000e07e800d5
:1048c000e885550068055500e8845400afa39700bb
:1048d000870f5700bbff3a000d38a30010003200cd
:1048e0003fa497000800e0000d0034000004eb0036
:1048f000afa897000002200016000700e10f40005b
:10490000030032009fa497008904e80099a79f0044
:104910000804e8003fa597008a0f5400f4ff3a000e
:10492000bfad9700bb407800bbaf9f00e1679f0021
:104930000104e00032f83a001fa097004f0778000a
:104940004f06be004f05be004f04be00ef04b1008d
:1049500000000600889fbe00000178000104780076
:10496000b10090000118a3003d0032000198a3009f
:1049700003003a00180090000000e00038003a0000
:104980000190a0003104980082047800f90fb20071
:10499000180090000000e00002003a00280090009b
:1049a000000c78003800900000b8a3000600320028
:1049b00000a8a30004003200210020006011b8000c
:1049c0000800780049000700b80090000100780056
:1049d00000b0a10030049800ea8f540005003a00ae
:1049e0000178a30003003a0088007800d00020007e
:1049f000d8ff07009800900058009000808f50006a
:104a00000b0032000100e800100498001800780044
:104a100009587800000c780011c0b300001821007c
:104a200001487800ea8f5400060032000f0037007a
:104a30008800780009407800c600070080047800ec
:104a40000a003700380090000088a30006003200fa
:104a50000800780095000700e10f400002003a00ce
:104a60008084eb0001003700a900200009007800d5
:104a70004f04be0000000600881f78000004780084
:104a800040009000110020006011b8005cee0700ab
:104a90000001be00180090000000e00002003d0090
:104aa0000000eb0010049800280090000000e000d7
:104ab00008003200380090000098a3000500320082
:104ac00018009000cf80de00020040008380480084
:104ad0000400370018009000cf80de000000510075
:104ae000818059004f047800000006000400fa009d
:104af000889fbe008a9fbe008c1f78000006780049
:104b000092bf9f00a3bf9f00010478003000900077
:104b10000040a100300698002c0090000000e0004a
:104b200006003a004c00900035ee0700e10f40000f
:104b3000e08f480057003a0054003700e18f5000e2
:104b400005003200e28f50000c0032000100e0004e
:104b5000200032004d0037000c007800c6ff07002f
:104b60001fb99700afb99700020140008381480048
:104b700092bf9f00a3bf9f00160037000c00780073
:104b80004a0007004c009000110020006011b8009e
:104b90001bee07000005be004c0090008800780066
:104ba0006011b80016ee07000004be004c00900033
:104bb0008000eb000a01be0011ee07001fba97004b
:104bc000afba97000402440085824c0094bf9f0056
:104bd000a5bf9f000c007800a7ff07001fba970031
:104be000afba97000001520081815a0003003200e1
:104bf0003c00900000b0a000300698003c029000fd
:104c00000408a3000f003200620362000d003a00a6
:104c1000e00f5100e08f59000a0035009c0290001f
:104c20006128b900800f5100818f590005003c00b8
:104c300002805200100698001c0e41000600780009
:104c4000150037000498a300050032001c009000f6
:104c50000000e000020032000c00780013000700a2
:104c60008000eb0011069800ac029000050e780061
:104c70004c0090001fb99700afb99700e0ed070016
:104c8000e00f5000e08f580002003d000080eb0074
:104c9000010037000000eb004f0678004f05be0012
:104ca0004f04be000080fa0000000600881f780054
:104cb00000047800300090000008a30007003200d4
:104cc000800078000120b20004003a00110498002e
:104cd000a8009000010c7800170037000018a3000e
:104ce000190032000098a30017003200a8009000bd
:104cf0000100e00014003200180190000200e00002
:104d00001100320048009000caed070098009000a2
:104d1000810f500003003200380090000003b30000
:104d2000300498000000eb00100498002800900068
:104d3000000c7800380090000058a30002003200f8
:104d40000080eb00010037000000eb004f0478000a
:104d5000000006000200fa00889fbe00a0ff9f002e
:104d60000104780031009000e200600004003a0085
:104d70000003b300300498001104980018003700b5
:104d8000d80490000900e0001a003a006c006000ae
:104d900004003a003300070020049800e10f4000af
:104da00011003a0029049800590498003800900036
:104db0000020a000300498001904980048009000da
:104dc00012002000e68057009aed0700e10f500026
:104dd0001f003200380090000003b3003004980038
:104de0000080eb001c0037000020200050049800d9
:104df0000a00370018019000a800900048009000b9
:104e00008ced070098009000810f500003003200e5
:104e1000380090000003b300300498001000200018
:104e20001004980028009000aff89700014878001f
:104e300028009000000ce800b80090000080eb0013
:104e40000158a30004003a000190a000310498002a
:104e5000aff897000180fb004f04be000080fa000d
:104e600000000600118c80000100e0000300320009
:104e700011007800108c880003003700002020000b
:104e8000a3ed070080007800e18f400002003a00a7
:104e9000906e2600208c880001007800000006003b
:104ea000118c800001087800108c8800000006003a
:104eb0001000fa000040eb00204f98000040eb008b
:104ec000104f98000040eb00004f98000000eb00ee
:104ed0003007980082010700d9040700c03e29006e
:104ee000e304070090422900e10407000044290080
:104ef000df040700b0452900dd04070060472900f2
:104f0000db040700e0482900d9040700004b290012
:104f1000d7040700b04c2900d5040700504e2900e3
:104f2000d304070050502900d1040700c0512900c4
:104f3000cf040700c0552900cd040700c05929003f
:104f4000cb040700905d2900c90407009061290087
:104f5000c7040700b0652900c5040700706929006f
:104f6000c3040700120020008040eb00c069290044
:104f70009b010700d4c2bf000044b2000004e0005f
:104f800010003a00100020007b210700e10f5000c4
:104f90000c003a00120020008040eb00c06b29009a
:104fa0008f010700806d2900b1040700c4e2a8004a
:104fb000d4c2bf000044b2000004e000fcff320095
:104fc000530037000000eb006b210700c4e2a9008a
:104fd000c4c2a90000c0eb0029ecb7005072290040
:104fe000a30407000001eb008040eb00f0732900f0
:104ff0007b0107000081eb008081eb00a0c0b300c3
:10500000ee220700404f98004e4890000004e00058
:1050100028003200f0742900950407000040eb00de
:10502000304f98001f003700907629009004070049
:105030003e4890000080fb00c400dd00409220004c
:105040000080400010407800d0040700307729002d
:10505000870407003e4890000080fb004400dd000c
:10506000ec0040004092200000804000104078009a
:10507000ac040700d07729007d0407003e4890006b
:105080000080fb00c400dd00409220000080400052
:105090001040780029ecb7003e4890000040e8003e
:1050a000304f9800be4890004e48900080cf50008e
:1050b000ddff39000040eb00a92207004e489000b8
:1050c0000004e000080032008040eb000040eb00ec
:1050d0006a230700e14f40000c003a0000782900e5
:1050e00063040700090037000001eb008040eb007b
:1050f000c07829003a0107000081eb008081eb00b5
:10510000a1c0b30010c0b30058270700c4e2a80034
:1051100000c0eb00251c070061c120009140780011
:1051200012002000c07a29002d0107000001eb00c9
:105130008040eb00b07c2900290107000000370007
:10514000952407000000e00060003200204b800042
:10515000680060000000e00002003200807e29004c
:1051600043040700204b8000630060000000e00063
:1051700003003200107f29003d04070002003700c1
:10518000d08029003a0407006dc9bf0065040700fc
:10519000214b800000042000008060000000e0003f
:1051a0001f0032007082290031040700204b80006c
:1051b00001082000010060000000e000080032004b
:1051c000404b80000000e8001040780055040700c4
:1051d000404b800010407800520407001000370058
:1051e0000040eb00404f98000a003700414b800020
:1051f0004e4890000080fb00008050006700400097
:1052000010407800470407004e4890000040e80036
:10521000404f98004e489000e74f5000f3ff360093
:10522000e0822900120407000040eb00404f980084
:1052300009003700514b80004e4890000080fb0071
:105240000080400010407800200407004e48900085
:105250000040e800404f9800c1962000914078003f
:105260004e48900080cf5000f2ff3e00c4c2bf0005
:105270000080fb004600de00614060000004a200e8
:1052800061406000614060004601dd00412c20006b
:1052900091407800f0cbb30000c060000240700085
:1052a000c4e2b70045240700100020003007980032
:1052b0000e4890000040e800004f98008e48900093
:1052c0001e489000ad0007009dff3700e100070079
:1052d000404798004e4090000080fb007007980007
:1052e0007e009000e10f500004003200fe019000ab
:1052f000e28f51002700320091ff370016ccbf002b
:105300000081fb00100020000100200082017800d5
:105310008301e90003003300000040008180480061
:10532000fbff37000080ea008180ea00008fbe00aa
:105330000001eb008040eb0010832900a80007006b
:105340001e00be003a290700e10f50000a003a0093
:1053500061c12000914078000001eb000084290029
:105360009f00070000862900c103070016ccbf007c
:105370000604070072ff37000001eb008040eb00dd
:105380000088290096000700108a2900b80307004a
:105390006bff3700b0c0b3006ae8b7002e4890003a
:1053a0000080fb0062002000110009000280d8008c
:1053b0008000fd000004e00013003a00a2862000f7
:1053c000124178008280fb007083200080804000c2
:1053d000d0c0b300804878000240e8006ae8b70017
:1053e000a2862000124178008280fb00708320009a
:1053f00080804000a0c0b300804878000240e800f0
:105400006ae8b700200037000040eb00404f9800ea
:105410001a003700a3862000934178000382fb0026
:105420002e4890000080fb0062002000110009005f
:105430000280d8008000fd000080fb008000e900b1
:105440004e4890000081fb006b08b90082004000cc
:10545000503b29000080400090407800708320007d
:1054600000004200014878000340e8006ae8b70005
:105470004e4890000040e800404f98004e48900091
:10548000ea4f5000e3ff36002e4890000040e8004d
:10549000204f9800110020000040eb004924070035
:1054a0000000e00007003a00c08b290070030700ed
:1054b000120020008040eb00f08c2900480007001b
:1054c000030037001e4890000040e800104f98008d
:1054d0008e4890001e4890002800070018ff3700f3
:1054e0000000fa002c43a800d2c2a800d2e2a80013
:1054f000c0e2a900c0c2a900c642a900ca42a800d1
:10550000e442a900e842a800d902a800dee2a8000f
:10551000df02a900dec2a900e302a900e2c2a900dd
:10552000e462a900e862a800e013200010128800dd
:105530000000280000128800e013200010138800eb
:1055400000002800001388008220a8002c43a80037
:10555000d382a900d782a8008680a900dbc2bf0041
:10556000614060000004e00001003a008680a8006d
:10557000210107000080fa00000006000200fa0086
:10558000004f780011479800bd0107001e80fb0006
:1055900041bd2000801f780080ad2900801f780069
:1055a000010078002bf10700e48757001e409000af
:1055b0008080fb0040be200000017800811f780041
:1055c00080ae2900801f78000200780021f10700da
:1055d000e4875700500107000080fa000000060031
:1055e0000800fa0010079800414798003207980019
:1055f000a30107004e4090000080fb0041bd200049
:10560000801f78001e009000801f78000100780045
:1056100027f10700e48757003f0107003e00900094
:105620000000e000090032000040eb00004f78006d
:1056300003003700a00f2000c00207001e4fe80043
:1056400070c0b3009e4f1000faff36000080fa00d1
:10565000000006001600fa00d4c2bf000044b200e9
:105660000004e0000e003a00f06080000000e0005e
:1056700033003a0010002000f06088006800470006
:105680003a0007004e009000de00900000618800a4
:105690001161880010002000200f98002a003700b8
:1056a000d4c2bf0001c8b300014060000004e000a4
:1056b0000e003a00f06080000000e00020003a0098
:1056c00010002000f06088006c00470027000700f1
:1056d0006e009000fe00900000618800116188005b
:1056e00020002000200f98001700370070004700ae
:1056f0001e0007000e0890009e08900020079800ea
:10570000310798002e019000be01900000618000da
:10571000116180000000510081805900008fbe009f
:105720001e01be00f0ff230001002000800f510089
:10573000818f5900020036000000eb00f060880005
:105740000000eb00200f98002e0890000080fa0067
:10575000000006000000fa00800220008008880097
:1057600011e1a8000080fa00000006000400fa0021
:1057700031088000010f780051088000110798005f
:105780001e01be000288be000080fa000000060074
:105790000400fa00004f780011479800d802a900d1
:1057a000d822a900d842a900d862a900d882a900ad
:1057b000d8a2a900d8c2a900d8e2a900c7e2a900ce
:1057c000d2a2a900d6a2a9009e40780061c06000c4
:1057d000c700dd00cbc2bf000074a1000140700013
:1057e000cbe2b7001e409000614060006140600065
:1057f0006140600061416000c12d2000914078004f
:10580000e0cfb30000c0600002407000dce2b700ef
:105810001e4090000080fb000000d100614060004d
:1058200061406000614060006140600000414000f4
:10583000c12d200091407800d0cfb30000c060009f
:1058400002407000dce2b7001e4090000080fb00c8
:105850004200de0061406000614060006140600025
:10586000614060004201dd00c12d200091407800c0
:10587000b0cfb30000c0600002407000dce2b700af
:105880001e4090000080fb004300de00614060008d
:105890006140600061406000614060004301dd00e4
:1058a000c12d20009140780070cfb30000c060008f
:1058b00002407000dce2b7001e4090000080fb0058
:1058c0004400de00614060006140600061406000b3
:1058d000614060004401dd00c12d2000914078004e
:1058e000f0ceb30000c0600002407000dce2b70000
:1058f0001e4090000080fb004500de00614060001b
:105900006140600061406000614060004501dd0071
:10591000c12d200091407800f0cdb30000c06000a0
:1059200002407000dce2b7001e4090000080fb00e7
:105930004600de0061406000614060006140600040
:10594000614060004601dd00c12d200091407800db
:10595000f0cbb30000c0600002407000dce2b70092
:105960001e4090008040eb00214798000004e000ba
:1059700002003d0010c0b300204798002e40900068
:10598000c700dd00dcc2bf000074a1000140700050
:10599000dce2b7000000000000000000d682a80092
:1059a00000000000000000000000000000000000f7
:1059b00000000000000000000000000000000000e7
:1059c00000000000d682a900d802a800d822a800b2
:1059d000d842a800d862a800d882a800d8a2a800ff
:1059e000d8c2a800d8e2a800c7e2a800d2a2a800a6
:1059f0000080fa00000006000200fa000202200007
:105a00000102200040bd200040f007000040eb00f4
:105a1000f4ebb700d682a900d6a2a900d802a9004b
:105a2000d822a900d842a900d862a900d882a9002a
:105a3000d8a2a900d8c2a900d8e2a900d2a2a90080
:105a4000c7e2a900d282a90080022000bb010700a2
:105a5000cbe2a900dc02a800dc22a800dc42a900fd
:105a6000dc62a900dc82a900dca2a900dcc2a900da
:105a7000dce2a90000000000000000000040eb0094
:105a8000004f780008003700d682a80010002000e0
:105a90000100200083010700d682a9002000200019
:105aa000a60107001e4fe80020c0b3009e4f100063
:105ab000f5ff360081c3b3000040eb0034ff070060
:105ac00050002000010020007601070061c0b300f3
:105ad0000040eb002eff07005000200001002000d6
:105ae00070010700c1c0b3000040eb0028ff0700b1
:105af00050002000010020006a01070011c0b3001f
:105b00000040eb0022ff0700200020008b0107006f
:105b10000080fa00000006000200fa0021c0b30075
:105b20000040eb001aff070020002000830107005f
:105b30000040eb0010479800200037001e40900006
:105b40008080fb0040bd20000080400010407800b5
:105b50000004e0000c003a001e409000004f780066
:105b6000060037009e80fb0040bd20008080400082
:105b700000c2b300804878001e4fe800f0c0b300b8
:105b80009e4f1000f7ff36001e4090008080fb0003
:105b900040bd2000008040009040780010c0b3005d
:105ba000fbfe070050002000010020003d0107001f
:105bb0001e4090000040e800104798001e409000f2
:105bc000ef4f5000ddff360001ccb3000040eb008a
:105bd000effe070050002000010020003101070007
:105be00000c1b30010479800200037001e4090000d
:105bf0008080fb0040bd2000008040001040780005
:105c00000004e0000c003a001e409000004f7800b5
:105c1000060037009e80fb0040bd200080804000d1
:105c200000c2b300804878001e4fe800f0c1b30006
:105c30009e4f1000f7ff36001e4090008080fb0052
:105c400040bd2000008040009040780010c0b300ac
:105c5000cffe0700500020000100200011010700c6
:105c60001e4090000040e800104798001e40900041
:105c7000ff4f5000ddff36000080fa0000000600f4
:105c80000000fa0011c0b3000040eb00c0fe0700a6
:105c9000200020002901070002022000010220004c
:105ca00040bd200099ef07000080fa0000000600c8
:105cb0000600fa0010079800210798000040eb004a
:105cc000004f78000040eb00104798001e00900045
:105cd000e20f50000b003a00010037001e4fe800b1
:105ce0009e80fb0040bd20000080400010407800f6
:105cf0000004e00003003200f0c0b3009e4f10002b
:105d0000f6ff36001e81fb001e4090000080fb0065
:105d1000800078002e009000008040001040780045
:105d20008040780040bd200000004100014878001c
:105d30001e4fe8001e4090000040e8001047980009
:105d40001e80fb008000e90040bd20000080400074
:105d5000104078000004e00003003200e0c1b3000e
:105d60009e4f1000e7ff36006bff07000080fa002f
:105d7000000006000800fa001007980021079800ac
:105d80003207980096c0bf000080fb004400de0090
:105d900061406000004f78009680a900d782a9007a
:105da00030c0b300110107002e0090004800de0053
:105db0000e0107002e0090000c0107000a003700ba
:105dc00018010700804078001e009000014878000c
:105dd0001e0090000000e800100798003e009000b0
:105de0000000e900300798003e0090000000e0004d
:105df000f3ff3a00d782a8009e40780061c060009f
:105e0000614060004401dd0061092000914078009c
:105e1000f0ceb30000c060000240700096e0b70012
:105e20000080fa00000006000800fa001007980041
:105e300021079800320798000040eb0010479800b7
:105e400096c0bf000080fb004400de00614060009f
:105e5000004f78009680a90000003700d782a90083
:105e600050c0b300e1000700ee00070010479800a3
:105e7000d782a8005c0107001e4090000080fb0054
:105e8000610060000004e000f4ff3a00d782a9003e
:105e900060c0b300d5000700d782a80052010700f8
:105ea000d782a90020c0b300d00007002e009000c8
:105eb0004800de00cd0007002e009000cb00070058
:105ec0000040eb00104798001c0037001e009000b7
