:020000040000FA
:06000000EEEF07F0120014
:0600080004EF08F01200F5
:060018000CEF08F01200DD
:0E0020000100FA0F0000FE00000002000000C8
:02002E00F00ED2
:100030008C1695160001636B676968696969666B60
:10004000010E6A6F1200D9CFE6FFE1CFD9FFE65269
:10005000000163511FE1040108BF1BD0400EE66E92
:10006000600EE66E030EE66E0BEC06F0E552E5520E
:10007000E5520001010E636FDF6A400EDF5C09E2AA
:10008000DF50EA6AAB0FE96E000EEA22EF6ADF2A60
:10009000F4D796D103016051080A01E180D10F0A1B
:1000A00001E123D1010A01E118D1030A01E1B4D031
:1000B000010A6AE0070A5DE0010A01E081D100015E
:1000C000020EAB6F00013A0EAC6F0001010EAD6F76
:1000D0000001010EAE6F0001AF6B100EB06FB16B7F
:1000E000B26B0001B36B700EB46FB56BB66B0001F1
:1000F000030EB76F0001B86BB96B300EBA6FBB6BF4
:1001000000010E0EBC6FBD6BBE6BBF6B0001010E1C
:10011000C06F0001C16BC26B200EC36FC46B0001C6
:10012000080EC56FC66BC76BC86B0001C9690001BB
:10013000020EC96F0001CA6BCB6BF00ECC6FCD6B9A
:100140000001CE6B010ECF6FD06BD16B0001D26975
:1001500004010CBF0DD0400EE66EAB0EE66E000E35
:10016000E66EDBEC05F0E552E552E5520001636B0B
:1001700027D10001010E6A6F0301615102E1000104
:100180006A6B0001636B1CD1400E0001646F656BEC
:100190000001000E645D020E65591FE2040064C098
:1001A00000F065C001F0026A060E1F0B00C0F6FFEA
:1001B00001C0F7FF02C0F8FF06E0D890F636F73628
:1001C000F836E806FAE1940EA66EA3D965EC06F0BF
:1001D0000001642B000E6523DBD7DF6ADF50A96EB8
:1001E000A868040EA66E65EC06F093D9DF50DF2AEE
:1001F000006E016A026AFF0E005C000E0158000EDC
:100200000258ECE3F66AF76A200EF86E940EA66EBA
:1002100080D90001636BD4D0300E0301635D07E128
:1002200000016A5101E132D90001636BC9D0F00EBF
:100230000301635D04E14DD90001636BC1D0E8683F
:100240000001671905E1E868681902E1E8686919C1
:1002500006E161C367F062C368F063C369F0670ECB
:10026000E96E000EEA6EEE500301611908E1EE50EE
:100270000301621904E1EE500301631900E12AE170
:10028000DF6A03016551DF5C25E23A0E0301D88085
:100290006555DF24EA6A660FE96E030EEA22EF5025
:1002A000E66E00016651EA6A6B0FE96E000EEA2203
:1002B000E552E750EF6E0001662B0001672B000E40
:1002C0006823000E6923200E0001665D01E17DD8E0
:1002D000DF2AD7D70001636B73D077D80001676935
:1002E000686969690001636B6BD00001070EAB6F31
:1002F00061C3ACF062C3ADF063C3AEF064C3AFF0F2
:1003000065C3B0F061C3F6FF62C3F7FF63C3F8FFD4
:10031000DF6A03016551DF5C31E2F00E0301635DCA
:1003200013E1DF5003016125A96EA66AA6803A0E8B
:100330000301D8806555DF24EA6AB10FE96E000E2B
:10034000EA22A8CFEFFF18D00900300EF85C08E1D0
:10035000050EF65C01E1F568080EF65C01E1F56852
:100360003A0E0301D8806555DF24EA6AB10FE96EC1
:10037000000EEA22F5CFEFFFDF2ACBD704010CBF36
:100380000DD0400EE66EAB0EE66E000EE66EDBECB8
:1003900005F0E552E552E5520001636B11D06D9214
:1003A0006D6ADF6AFF0EDF5C09E2E868E85004E08E
:1003B000E80600D000D0FAD7DF2AF4D7FF0000D03B
:1003C000E552E552E7CFD9FF12000001EC6B66C0A1
:1003D00000F0016A026A00500001675DF66E01508C
:1003E00000016859F76E025000016959F86E1F0E3E
:1003F000F6140001ED6FE00EF6160001EB6B200E17
:100400000001EB5D1FE20001ED5115E100016651B5
:100410000FE00001EC51EA6A6B0FE96E000EEA2270
:10042000EF50F56E0D000001EC2B0001660702D0C5
:10043000F5680D0004D0F5680D000001ED0700011E
:10044000EB2BDDD70A00A40EA66E63D80001EB6B80
:10045000000166510001EB5D18E20001EC51000162
:10046000EB25EA6A6B0FE96E000EEA22EF50E66EAA
:100470000001EB51EA6A6B0FE96E000EEA22E552C9
:10048000E750EF6E0001EB2BE3D7120061C3F6FFDC
:1004900062C3F7FF63C3F8FF0001EE6B0301655110
:1004A0000001EE5D15E23A0E0301D88065550001AA
:1004B000EE25EA6A660FE96E030EEA22EF50F56E4A
:1004C0000C00C40EA66E25D809000001EE2BE6D75D
:1004D00012000001EF6B030165510001EF5D18E2AE
:1004E000030161510001EF25A96E3A0E0301D88086
:1004F00065550001EF25EA6A660FE96E030EEA22F0
:10050000EF50A86E040EA66E04D80001EF2BE3D7BF
:100510001200F29E550EA76EAA0EA76EA682A6B274
:06052000FED7A6941200B4
:0A0526007AD9E6526C5032E1689673
:10053000040100513C0BE842E8420D0828E1180E86
:10054000021923E1040E031920E1100E026F040EBC
:10055000036FDF6ADF50006E016A080E005C000E58
:10056000015813E2DF50EA6A180FE96E040EEA221E
:10057000EF50E66EDF50EA6A100FE96E040EEA22D1
:10058000E552E750EF6EDF2AE5D70ED80AD03FD804
:1005900008D0040E6C5C03E1689650D802D0000EBF
:1005A00001D0010EE5523FD139D9E652040104BF12
:1005B000046B0301A86BA06BA16BA66BA76B1FEC70
:1005C00004F0DF6ADF50006E016A010E005C000E6D
:1005D00001581AE20301A15117E1F76ADF34FE0B5B
:1005E000F736F66E980EF6260E0EF7220900F5CFB6
:1005F00000F00800F5CF01F004D001C0FAFF005070
:10060000F96EFBDFDF2ADED7B4D8E5520CD1020E3B
:100610000301A05D0EE181D80401180E026F040EE3
:10062000036F080E016F00BD02D0C80E05D0880E02
:1006300003D0D8D8E4D88C0E006F1200040E00014D
:10064000FA5D09E112C46EFF6E50000802E2050E69
:1006500001D0030EFA6F0301A00510E111D8020EBC
:100660000301A85D03E10401840E06D0040104BD6A
:1006700002D0C80E01D0880E046F1200F2EF03F012
:10068000CDD8020EE1260301080EA65D000EA75983
:100690000DE2A6C3DEFFA7C3DDFFA85102E1010EF4
:1006A00003D0A80506E1020EA86F03D0080EDE6E87
:1006B000DD6A040104930491010EDB500413DFCFC3
:1006C00005F4000EDB500301A65F010EDB50A75BB3
:1006D000180EA46F040EA56F0001FBA30CD097D8D1
:1006E00015E0A2C3F6FFA3C3F7FF0800F5507FD8BB
:1006F000F6E2DB06F4D78BD809E0A2C3E9FFA3C377
:10070000EAFFEF5074D8F7E2DB06F5D7020EE15CA2
:1007100002E2E16AE552E16E86D080D8020EE1265F
:10072000030E04010015E76E010EE7CFDBFF01C4E5
:10073000DFFFDE500301A627DD50A723180EA26FAE
:10074000040EA36F64D80EE0A2C3E9FFA3C3EAFFBF
:10075000EF50A4C3E9FFA5C3EAFFEF6E68D8F2E249
:10076000DB06F0D7020EE15C02E2E16AE552E16EDF
:100770005AD06D980301A15105E141D8840E006F54
:1007800004011DD0040110AF1CD00301A6510401C7
:10079000165D0301A7510401175904E216C4A6F31C
:1007A00017C4A7F36DDF0301010EA06F28D8800ED8
:1007B000006F0401180E066F040E076FC80E046F59
:1007C00012000301020EA06F0401056BC80E046F36
:1007D0000401080E016F180E026F040E036FC80E9D
:1007E000006F12000301A06B0401046B1200A4C38C
:1007F000E9FFA5C3EAFFEF6E030117EF04F0040160
:10080000080E016F100E026F040E036F1200D9CF95
:10081000E9FFDACFEAFFEE50ED101200D9CFE6FF84
:10082000E1CFD9FF1200E552E7CFD9FF1200A42B88
:0E083000000EA523A22BA323DF06010E12004B
:02083E000401B3
:100840001051600BE842E842E842E842E842000901
:1008500001E012001151070A40E00B0A3EE0070ACE
:1008600033E0010A23E00B0A1FE0020A1DE0030A3D
:1008700019E0080A10E0010A0CE00F0A08E0030A78
:1008800001E0120012D90001040EFA6F12006EEF9F
:1008900004F0A5EF04F009D90301FC0EA26F000ECD
:1008A000A36F0CD0C0EF04F0F2EF04F002D9030103
:1008B000A26FA36BFD0EA227000EA3230001FB93E2
:1008C0000301010EA66F1200F4D8EA6AFD0FE96E6B
:1008D000000EEA2212C4EFFF12001200800E040183
:1008E000105D32E11351030A1FE0010A0AE0030A16
:1008F00029E1DBD80301D80EA26F0D0EA36F120EF3
:100900001ED0B2D88E0EF6260E0EC0D8020E0301EF
:10091000F76AA225F66EA351F7220900F5CFA6F3D8
:100920000A00F5CFA7F30ED09FD8920EF6260E0E32
:10093000ADD8A2C3F6FFA3C3F7FF0800F55003012B
:10094000A66FA76B0001FB831200AFD80F0EE66EF7
:10095000710EE66E0F0EA2D8010EE66EFD0EE66E6B
:10096000000E9CD812C4FCF00401125104E10001F5
:10097000050EFA6F12000001060EFA6FC6EF05F0C1
:100980000401186B196B040110511F0B020A0FE0D0
:10099000030A0BE0010A18E188D80401188100015C
:1009A000FBA112D0040118830FD07FD80DD050D8EE
:1009B00001E0010E62D8A4C3E9FFEA6EEF50040B18
:1009C00003E00401010E186F0301A1050AE1030110
:1009D000180EA26F040EA36F0001FB930301020E19
:1009E000A66F1200040112050EE110511F0B000941
:1009F0000AE15BD8030E0401115D03E10001FB81F4
:100A000002D00001FB910401125121E110511F0B92
:100A100002081DE114510F0B000919E019D801E07B
:100A2000010E2BD8030E0401115D02E1840E03D0E8
:100A300014AF07D0400EA4C3E9FFA5C3EAFFEF6ED1
:100A40001200880EA4C3E9FFA5C3EAFFEF6E1200EF
:100A500030D80F0B080DF350016A000F006E040E22
:100A600001221451800B120020D804011251F66E9D
:100A7000F76AD890F636F7361200040DF3500301EA
:100A80000024A46F000E0120A56F1200F7220900B8
:100A9000F5CFA2F30A00F5CFA3F31200E66ED7EC70
:100AA00006F0E552E552E55212000301010EA16F76
:0A0AB0001200FBDF040114511200D4
:060ABA00040110511F0BA6
:100AC000010801E01200145101E01200060E115D50
:100AD00024E11351230A1FE0010A0DE0030A1BE180
:100AE000DBD80001FC0505E10301FC0EA26F0D0E31
:100AF000A36F090E0DD0D0D80001FC0505E103015C
:100B0000710EA26F0E0EA36F0001FC0504E11D0E15
:100B10000301A66FA76B0001FB8304011051600B5A
:100B2000E842E842E842E842E842010801E01200F7
:100B300011510B0A25E0080A17E0090A11E0080A1A
:100B400009E00B0A05E0080A01E01200C4EF05F015
:100B5000C5EF05F0A1D80301A90EA26F030E09D0BD
:100B60009BD813C4A9F3120097D80301AA0EA26F51
:100B7000030EA36F0001FB930301010EA66F120089
:100B80008BD812C4AAF31200120012000301AB6B3F
:100B90001E0E716E0401400E096F200E0A6F040EC6
:100BA0000B6F880E086F0401600E0E6F040E0F6F3E
:100BB000400E0C6F1200D9CFE6FFE1CFD9FFE6520D
:100BC000FC0EDB50400805E2400EF36EFC0EF3CF46
:100BD000DBFFDF6AFC0EDB50DF5C0FE2DF5050D83A
:100BE000EF50E66EDF50EA6A600FE96E040EEA220B
:100BF000E552E750EF6EDF2AEDD7FC0EDBCF0DF4A8
:100C0000400E04010C170C7D880E0C13E552E552C2
:100C1000E7CFD9FF1200D9CFE6FFE1CFD9FF03011B
:100C2000AB6B040108BF26D0FC0EDBCF00F00951EE
:100C3000D880005403E2FC0E09C4DBFF0301AB6B58
:100C4000FC0EDB50AB5D0FE2AB51EA6A200FE96EA0
:100C5000040EEA22EF50E66EAB5112D8E552E7508F
:100C6000EF6EAB2BEDD70401400E096F0817087D1E
:100C7000880E08130301AB51E552E7CFD9FF1200EC
:100C8000E76EFD0EDBCFE9FFFE0EDBCFEAFFE7509C
:100C9000E926000EEA2212000301020EA16F1200E3
:100CA0006DA60CD80001FA0508E16DBA06D0686A95
:100CB000696A69806988020EFA6F12006D6A696A52
:100CC0006D860001010EFA6F12000001FA5101E178
:100CD000120068B425D86DB2120068B038D868B870
:100CE00017D868BA24D8030E0001FA5D01E2120099
:100CF0000301AC6B040EAC5D0AE268A608D093EC6D
:100D000002F0000901E168960301AC2BF3D7120051
:100D1000698468986D82A19AA08A0300A09A120043
:100D20006D92699468A402D06894FCD7120070A0F8
:100D30000CD0800E0401005D07E1840E0401045D07
:100D400003E104018C0E006F7090689A12006A6AC9
:100D5000686A9F0E6B6E7B0E696E6E6A0F0EE66E92
:100D6000710EE66E0F0EE66E22D8E552E552E552A0
:100D7000160E706E68A605D0689600D000D00000F0
:100D8000F9D76D98F2EC03F00401080E016F04012D
:100D9000100E026F040E036F04018C0E006F000131
:100DA000FB910001FC6B0001030EFA6F1200D9CF1A
:100DB000E6FFE1CFD9FFFD0EDBCFE9FFFE0EDBCF73
:100DC000EAFFFC0EDB5004E0EE6AFC0EDB06F9D70E
:080DD000E552E7CFD9FF120044
:080DD8001201000200000008F6
:100DE000D8043C00020001020001090229000101AF
:100DF00000C03209040000020300000009211101B3
:100E00000001221D000705810340000107050103C1
:100E10004000010403090434034D006900630072BB
:100E2000006F0063006800690070002000540065D6
:100E300000630068006E006F006C006F006700794F
:100E400000200049006E0063002E00260348004980
:100E50000044002000550053004200200042006F73
:100E6000006F0074006C006F006100640065007228
:100E7000000600FF0901A10119012940150026FF04
:100E800000750895408100190129409100C0EA0DC4
:0A0E9000EA0D130E170E4B0EBA0AFE
:060E9A00200EF66E000EB2
:100EA000F76E000EF86E00010900F550F56F0900AD
:100EB000F550F66F03E1F56701D03DD00900F5501C
:100EC000F06F0900F550F16F0900F550F26F09005D
:100ED0000900F550E96E0900F550EA6E09000900B5
:100EE0000900F550F36F0900F550F46F090009008F
:100EF000F6CFF7F0F7CFF8F0F8CFF9F0F0C0F6FF43
:100F0000F1C0F7FFF2C0F8FF0001F35302E1F45320
:100F100007E00900F550EE6EF307F8E2F407F9D7A1
:100F2000F7C0F6FFF8C0F7FFF9C0F8FF0001F507BA
:080F3000000EF65BBFD71200B2
:080F38000F0EC16E81A804D068
:100F4000070EC16E00EF08F00ED8040016D819D8AD
:100F5000060E0001FA5D05E16D50020B02E123EC83
:100F600000F0F3D71200140E6F6E0001FA6B00014F
:100F7000FB6B0001FC6B17EF00F050EC06F065EF27
:100F800006F00001FE51FF1104E1100EFE6F270E66
:100F9000FF6FFE07000EFF5B060E0001FA5D02E226
:100FA0008C8008D00001FE51FF1107E18C708C503D
:0C0FB000010B02E08C9212008C821200F7
:040FBC00000EF36EC2
:100FC00000EE00F0080E01D81200EA6002D0EE6ACE
:0C0FD000FCD7F350E9601200EE6AFCD779
:040FDC0013EE00F020
:100FE00023EE00F0F86A049C4DEC07F0FCEC07F0EF
:080FF0009CEC07F0FBD7120096
:020FF8001200E5
:020FFA000000F5
:020000040030CA
:0100000024DB
:010001000EF0
:010002003FBE
:010003001EDE
:010005008179
:010006008178
:010008000FE8
:01000900C036
:01000A000FE6
:01000B00E014
:01000C000FE4
:01000D0040B2
:00000001FF
