:020000040000FA
:0600000091EF13F0120065
:0600080004EF08F01200F5
:060018000CEF08F01200DD
:0610000091EF13F0120055
:06100800A2EF0EF0120041
:06101800EDEF0EF01200E6
:06102A0001004027000058
:081030008E0000000E0000001C
:081038006DEC0EF0A09A6A6A4B
:10104000686A706A67EC0EF002EC0EF0DF6ADF503F
:10105000146E156A080E145C000E155810E2DF506D
:10106000040DF3CFE9FFF4CFEAFF000EE926040EEA
:10107000EA22EE6AEE6AEE6AEE6ADF2AE8D76D8C43
:101080006E6A6D986D9C68A607D068960001736BB8
:10109000786B796B7A6BF7D70001010E8A6F8B6FD3
:1010A0008C6B8D6B806BDF6A020EDF5C11E2EA6A8B
:1010B000DF3470EC0EF0EA22EE6AED6AEA6ADF34A1
:1010C00077EC0EF0EA22EE6AED6ABBEC0DF0ECD79D
:1010D0000001080E6B6F040E6C6F160E706E04012B
:1010E000200E026F040E036F080E016F840E006F56
:1010F0000001616B606BE5528DEF0DF06DEC0EF051
:101100000001600507E16DBA05D0686A69806988E9
:10111000020E606F6850040B05E06950040B02E09A
:1011200068943FDB6DB245D06850010B09E069500F
:10113000010B06E081DFA08A0001040E606F689059
:101140006850100B05E06950100B02E020DB689836
:1011500068AC0FD069AC05D009EC0EF0730E7AECD8
:101160000DF0689C0001885101E08807885101E179
:1011700009D96850200B04E06950200B01E0F7DA30
:101180006850020B0BE06950020B08E009EC0EF00E
:10119000E6687F0EE66E7EEC0EF06A6A040E0001D1
:1011A000E76E6019E8AE02D0E73402D0E750605D28
:1011B00002E2A19A2ED069A62BD0DF6A040EDF5C72
:1011C00027E268A625D06CCF81F000018151780B11
:1011D000E842E842E842826F689681B504D08251C5
:1011E00085EC0EF003D082518AEC0EF0EA22EF700B
:1011F000825102E1E2DA0AD0000EE66EE66A810E62
:10120000E66E000EE66E720E7AEC0DF0DF2AD6D78F
:10121000A19AE5528DEF0DF041EC0EF0FD0EDBA42E
:1012200003D0E66AF2EC0DF0FD0EDBA204D0010E55
:10123000E66EF2EC0DF0FE0EDB50156A700F146EC8
:101240000F0EECEC0DF07EEC0DF0FD0EDBCFEFFFA2
:10125000020EE15C02E2E16AE552E16E8DEF0DF013
:1012600041EC0EF0FD0EDB5003E075EC0DF002D00A
:10127000ACEC0DF0D8EC0DF0D9CFE9FFDACFEAFFF6
:10128000EE50ED1003E1F36AF46A28D07EEC0DF025
:1012900099EC0EF0FB0EDBCFEEFFFC0EDBCFEDFF8B
:1012A0007EEC0DF0EE52FA0EDBCFEFFF400E8FEC2E
:1012B0000EF0880E9EEC0EF0FD0EDB5003E075EC98
:1012C0000DF002D0ACEC0DF0EA22EF74DECF14F09A
:1012D000DDCF15F014C0F3FF15C0F4FF020EE15C82
:1012E00002E2E16AE552E16E8DEF0DF041EC0EF0A5
:1012F000FE0EDB5003E14FEC0EF009D0B1EC0DF027
:101300002FEC0EF0B1EC0DF0010F2FEC0EF0020EF1
:10131000E15C02E2E16AE552E16E8DEF0DF088ECEE
:101320000DF06DA816D060EC0EF0400EEE16EE6AD1
:10133000EE6AEE6A60EC0EF0EE7CD7DBEA22EF7428
:10134000400E146E60EC0EF01450EF1660EC0EF0D0
:10135000EF7CE3D36D6A696A0001606B12000001E3
:1013600060510FE16D6A696A02EC0EF0D08EA28ABC
:10137000A08AF28E6DB602D06D86FCD70001010EF8
:10138000606F120000018A5122E1010E8A6F8B51B9
:101390001EE1010E8B6F020E705D07E1B4DBEE52B1
:1013A000EF6AB1DBC80EEF6E1200700510E1836BBF
:1013B000C0DBEE52080EEF6EBCDB3BEC0EF0B9DB8F
:1013C000840EEF6E010E836F8CDB800EEF6E1200C9
:1013D00000018C6B8D6B020E705D06E193EC0EF0DC
:1013E000ADDB2AEC0EF010D074510401265D000133
:1013F00075510401275904E226C474F027C475F01E
:1014000061D881DB9BDB7FDBC80EEF6E120041EC05
:101410000EF0000EDE6E040EDD6EA3DB040DF4CFC5
:1014200015F0D9CFE9FFDACFEAFFF350EE261550D9
:10143000ED2264DBEF9EFD0EDB5002E18DDB01D07F
:1014400054DBEA22DECFEEFFDDCFEDFF57DBEF9C72
:1014500055DB040EE926000EEA22EF8C020EE15C59
:1014600002E2E16AE552E16E58D36D98000173BF64
:101470000DD078AF09D0020E706F8D5101E1A8DF59
:1014800000018B6B8A6B12004FEF0EF0040120AF4E
:101490000DD00001010E706F8C5101E199DF000148
:1014A0008B6B8A6B89510DE1C2EF09F00001020ECE
:1014B000706F17DB840EEF6E8B6B8A6B895101E1C5
:1014C00061DF12006DEC0EF0080EDF6E0001745D3E
:1014D000000E75590AE274C0DFFF6F5102E1010E80
:1014E00003D06F0502E1020E6F6FDF50156AE850FE
:1014F000745D746F15507559756F05DBEE52DFCF53
:10150000EFFF280E7D6F040E7E6F73B10DD0DF509C
:1015100017E071C0F6FF72C0F7FF712B000E722347
:101520000800F55038DBF3D7DF500AE071C0E9FF5F
:1015300072C0EAFF712B000E7223EF502CDBF4D740
:10154000E552EBD29EDBF5DAEE52EFCFDFFFDFCFD5
:1015500014F014500001795D000E7A5902E279C04E
:10156000DFFFDF50146E156AE850795D796F155012
:101570007A597A6F010EDB6ADF50F36E010EDBCF12
:10158000F4FFF350F45C16E2010EDB50EA6A280F18
:10159000E96E040EEA22EF50E66E76C0E9FF77C0EE
:1015A000EAFF762B000E7723E552E750EF6E010E2F
:1015B000DB2AE2D7000ED8807955000E7A550DE26D
:1015C000B2DBBCDAB6DAEF50400B03E143DBC80E06
:1015D00002D040DB880EEF6E12D083DA840EEF6EFD
:1015E0007B517C1107E005D07CC0FAFF00017B51E4
:1015F000F96EFADF0001789F895101E1C3DE020E26
:10160000E15C02E2E16AE552E16E87D266DB00014D
:10161000738F5DDB200EE66EE66AE66A000EE66E0C
:10162000040E92DA6D8CDF6A020EDF5C02E2A3DA4E
:10163000FBD70BDB620EE66E000E86DA6D9C0001B6
:10164000080E6B6F040E6C6F000E636F040E646FF8
:1016500063C065F0666F22C461F0615102E1100E53
:101660000BD0010EE66EE66A610EE66E000EE66EC7
:10167000010E40DA0001200E606FE5524ED2800E5E
:101680000401205D38E10001C00E736F0401235195
:10169000030A1AE0010A09E0030A2BE10001FA0E2D
:1016A000716F220E726F120E1ED0C1DA210EF62655
:1016B000250EA0DA020E0001B3DAF5CF74F0030EA6
:1016C000AFDAF5CF75F01200050E225D0FE2AFDA4A
:1016D000BD0EF626230E8EDA71C0F6FF72C0F7FF3C
:1016E0000800F5500001746F756B12000001736BF8
:1016F00012000001736B1200C4DA0401286B296B1D
:1017000020511F0B020A11E0030A0CE0010A1EE13E
:101710000001738F0401288100017F0517E1040196
:10172000288314D00001738F11D00001738F04013E
:1017300024BF02D0BBDA01D0BEDA3ADAC4DA06E05E
:10174000DDD9EF50040B02E0010E286F000173AFEA
:1017500007D0280E716F040E726F7381020E746FC2
:10176000020EE15C02E2E16AE552E16ED6D170A0C0
:101770000CD0DFD9EF50800807E1C5D9EF508408BD
:1017800003E1D7D98C0EEF6E7090689A12006984CD
:1017900068986D820001010E806F10DA750E7AEF85
:1017A0000DF00001806B0ADA740EA4D96D92699471
:1017B00068A402D06894FCD712008FDA00012D0EC5
:1017C000886FFD0E811539E17E0E8115E8407F0B93
:1017D000040DF3CF63F0F4CF64F0000E6327040E22
:1017E000642363C065F064C066F06575A2D9EF50EC
:1017F0003C0BE842E8420D081EE1DF6A080EDF5CA0
:1018000016E297D9020EE926000EBFD9EF50E66E18
:10181000DF50EA6A200FE96E040EEA22E552E75033
:10182000EF6E87D986DAEE2AEF22DF2AE7D781D951
:1018300022DA0AD807D023D805D0FD0E8115040876
:1018400001E12CD8E55269D100016F6B896B8C6B7B
:101850008D6B836B706B57D9EF9E6B7554D9EF9E70
:101860006B75F8D9EF9E736B746B756B786B796BD6
:101870007A6B4ED8A3D9030E3DD935EF0AF0020E8C
:101880000001705D02E1A2EF0AF0706B835104E188
:1018900028D98C0EEF6E1200836B12001EDA33D93A
:1018A000EF50400B01E0010EDF6E00016B75080E7A
:1018B000605D08E122C46EFF6E5002E0100E01D0A0
:1018C000040E606F700513E11ED938D9FBDD020EDE
:1018D00000016F5D03E117D9840E07D0DF5003E1EB
:1018E00012D9C80E02D00FD9880EEF6E0FD078AF84
:1018F0000CD07B517C1107E005D07CC0FAFF0001C1
:101900007B51F96EFADF0001789F706BE55205D1CB
:1019100004012051600BE842E842E842E842E84214
:10192000000901E0120021510C0A45E00B0A3FE0DA
:101930000C0A31E0010A22E00B0A1EE0020A1CE058
:10194000030A18E0080A10E0010A0CE00F0A08E098
:10195000030A01E012000001738F080E606F12008D
:101960003FEF0BF006EF0BF00001610E716F000E00
:10197000726F0CD07CEF0BF0DCEF0CF02451000107
:10198000716F726B620E7127000E72237381010EEC
:10199000746F738F12000001738F04012451EA6A7F
:1019A000620FE96E000EEA2222C4EFFF120006D990
:1019B000020E7AEF0DF01200ABD8050EE1260401FD
:1019C000220510E120511F0B00090CE10001738F6B
:1019D000030E0401215D04E10001010E7F6F02D0BE
:1019E00000017F6B0401225101E074D020511F0BD4
:1019F000020870E124510F0B00096CE024510F0B19
:101A0000010868E3200E0001605D64E1738F04014A
:101A100024BF04D04BD9CCD8D7D803D04CD9C8D800
:101A2000D7D8EA22020EEFCFDBFF08D9010B03E182
:101A3000000EDF9401D0DF8424BF02D037D901D05B
:101A40003AD9EA22DECFEEFFDDCFEDFF030E215DB6
:101A50000CE139D907E024BF02D0B6D801D0B8D8FC
:101A6000EA22EF82840E6AD935D0DF742CD906E0E1
:101A700045D8EF9E43D8EF8C08D902D03FD8EF8CE1
:101A8000DF74DCD8020B02E11ED90DE0040124BF93
:101A900002D09AD801D09CD8EA22EF923B0E146E65
:101AA0003ED9F3D802D03B0E3AD9040124510F0B92
:101AB000156A700F146E0F0E1522030E14C0DBFF93
:101AC000040E15C0DBFF030EDBCFE9FF040EDBCFF6
:101AD000EAFFEF90050EE15C02E2E16AE552E16E99
:101AE0001CD021D9C8D82AEF0EF0FE0EEA6ADB34EA
:101AF00070EF0EF0E66EE66A7EEF0EF0DECFE9FFE5
:101B0000DDCFEAFF12006BC0E9FF6CC0EAFF1200F4
:101B1000D9CFE6FFE1CFD9FF1200E552E7CFD9FFD9
:101B2000120024510F0BE96EEA6AD890E936EA36C2
:101B3000120063C0E9FF64C0EAFF1200FAD8280E61
:101B4000EE6E040EED6E1200E66E67EC13F0146E8E
:101B5000050EE15E14501200FE0EEA6ADB3477EFE8
:101B60000EF0FD0EDB50E824166EFE0EDB50040D69
:101B7000F35016241200DF50CDD8EA22EF6ADF506E
:101B8000C4D8EA22EF6ADF2A1200EA22EE50EFCF31
:101B9000EAFFE96E1200E66E7DC0E9FF7EC0EAFF53
:101BA0007D2B000E7E23E552E750EF6EDF0612001C
:101BB000EA22EECFDEFFEDCFDDFF1200000EE66E73
:101BC000E66AE66EE66A120024510F0B85EF0EF00E
:101BD00024510F0B8AEF0EF0152214C0DEFF15C042
:101BE000DDFF1200FE0EDBCFE6FF07EC0AF0E55248
:101BF000E5521200F7220900F5CF71F00A00F5CF87
:101C000072F01200160E6F6E9F0E6B6E7B0E696E79
:101C10001200010EE66EE66A000EE66EE66A12003B
:101C2000F76A7125F66E7251F722080012002251F0
:101C3000F66EF76AD890F636F7361200D950020FD2
:101C4000E96EDACFEAFFEF501200010EE66EE66AA7
:101C5000E66A120065C0E9FF66C0EAFF1200040DE3
:101C6000F3CF14F0F4CF15F0000E1426040EB4DFF9
:101C7000840E9EEF0EF05DD8200EEE6E040EED6E1B
:101C8000120046DF020EE1261200020EE66EE66A40
:101C9000DECFE6FFDDCFE6FF050E7AEF0DF021DFA8
:101CA0008C0EEF6E30DF840EEF6E12003ADF670E9F
:101CB000E926000E120035DF6B0EE926000E120039
:101CC00014DFC5EF0DF01ADFEF50800B1200BDDFFF
:101CD000710EE66E0F0EA4EF0DF01ADFE652120041
:101CE000FE0BEA36E96E6B0EE926000E1200FE0BC3
:101CF000EA36E96E670EE926000E1200FFEC10F0DE
:101D0000146E060EE15E14501200EA6A860FE96E48
:101D1000000E1200EA6A840FE96E000E1200EEDE79
:101D2000E850EF16120096DFEE52080EEF6E2AEF23
:101D30000EF0020EE926000EEA221200DFDEE85065
:041D4000EF1212008C
:0C1D4400DACFE4FFE2CFDAFFE9CFE4FFE2
:101D5000EACFE4FFF6CFE4FFF7CFE4FFF5CFE4FFEF
:101D6000F3CFE4FFF4CFE4FFFACFE4FF00EE00F09E
:101D7000140EE80403E3EECFE4FFFBD700EE14F00B
:101D8000030EE80403E3EECFE4FFFBD7E6527EEC5C
:101D900008F0E55200EE16F0030EE80403E3E5CF89
:101DA000EDFFFBD700EE13F0140EE80403E3E5CFDC
:101DB000EDFFFBD7E5CFFAFFE5CFF4FFE5CFF3FF6B
:101DC000E5CFF5FFE5CFF7FFE5CFF6FFE5CFEAFF7B
:101DD000E5CFE9FFE5CFDAFF1100D8CFE4FFE0CF90
:101DE000E4FFE46EDACFE4FFE652E552E5CFDAFF36
:101DF000E550E5CFE0FFE5CFD8FF100004D8AFEC09
:101E000009F0E0D8FED70F0EC11202D81CEF08F07F
:101E1000F00E8C1695169388938A00018E6B8F6B4B
:101E2000906B916B010E926F120004012251540AC3
:101E300001E012000001000E766F050E776F26C4D8
:101E400079F027C47AF07B6B7C6B788F120042DAD2
:101E500004012251600A01E19DD0370A01E192D0CC
:101E6000010A01E18CD0030A01E184D0010A01E1F9
:101E70007ED0070A01E176D0010A6EE0030A69E02C
:101E8000010A62E0100A40E0700A32E0100A30E015
:101E9000360A29E0030A24E0010A1FE0070A18E0D5
:101EA000010A11E0030A0CE0010A07E0110A01E04F
:101EB00082D00501010E106F69D00501100E15D0FA
:101EC0000501110E43D00501120E106F040E5ED0F5
:101ED0000501130E106F030E59D00501140E05D025
:101EE0000501150E02D00501160E106F010E4ED021
:101EF0000501200E106F116B050E126F1369040E91
:101F0000146FE2D9050E53D00501400E106F81B851
:101F10000CD0050E0001935D03E20501C30E02D053
:101F20000501030E116F880E0BD0030E116F640EA6
:101F30000001935D03E10501C00E02D00501C40E4E
:101F4000126FC2D9030E33D00501500E106F020E6E
:101F50001DD00501510E08D00501520E106F93C01F
:101F600011F515D00501530E106F640E0FD0050149
:101F7000540E0AD00501550E106F140E07D005013E
:101F8000560E02D00501570E106F050E116F9CD929
:101F9000020E0DD0000187D90501600E106FDFCF52
:101FA00011F5010EDBCF12F5136B8ED9040E746F91
:101FB000756B810E736F020EE15C02E2E16AE5521D
:101FC000E16E8FD187D90001925101E098D8200E9F
:101FD0000001E76E6019E8AE02D0E73402D0E750A6
:101FE000605D01E285D06D50020B01E081D00001FF
:101FF0009051911102E1000E08D090C0E9FF91C00C
:10200000EAFFEF50800B01E0010E000971E1815001
:10201000100B01E0010E955D0BE08150100B01E00B
:10202000010E956F400E946F966B976B986B996B42
:102030009451FF0A5DE09F0A4CE0320A24E0120A44
:1020400057E194C008F581B80BD0050E935D03E20B
:102050000501C30E02D00501030E096F880E0CD0D6
:102060000501030E096F640E0001935D03E1050194
:10207000C00E02D00501C40E0A6F0001520E946F0B
:10208000030E04D935D096519711981199111BE17F
:1020900094C008F593C009F5020EF8D80001500E5F
:1020A000966FC30E976F986B996B955104E19305EA
:1020B00006E0930704D0640E935D03E0932B600E5B
:1020C00016D0946915D09607000E975B985B995BC4
:1020D0000FD0E9D894C008F5DFCF09F5010EDBCFAA
:1020E0000AF505010B6B040ED1D80001520E946F56
:1020F000020EE15C02E2E16AE552E16EF2D000011B
:102100009A519B1104E1100E9A6F270E9B6F9A074C
:10211000000E9B5B6DA207D09A519B112EE18C7033
:102120008CB013D027D00001605102E18C9022D0F6
:10213000600502E18C8009D0020E605D02E18C80B6
:1021400019D0040E605D03E18C908C821200100E99
:10215000605D06E100019A519B110FE18C700AD07D
:10216000200E605D0AE100019A519B1106E18C701E
:102170008CA002D08C9212008C82120012001200ED
:102180001200120092EF12F012001E0EE66E010E07
:10219000E66E0CEC09F0E552E552400EE66E000EDC
:1021A000E66E050EE66EE66A010E9FD8F3CF8EF05E
:1021B000F4CF8FF0120000017F0520E100018005BF
:1021C0001DE1A09ADCDF6D920001806B0001100E12
:1021D000A86F0E0EA96FA807000EA95BA851A91140
:1021E000FAE16D84080EA86F070EA96FA807000E0C
:1021F000A95BA851A911FAE16D94A08A1200D9CF68
:10220000E6FFE1CFD9FFFD0EDBCF08F0FE0EDBCFFE
:1022100009F0050E081801E1095036E0E8680818D1
:1022200002E17F0E09182FE0030E081801E10950A2
:1022300028E0020E081801E1095021E0010E0818FB
:1022400001E109501AE0740E081801E1095013E089
:10225000750E081801E109500CE0730E081801E131
:10226000095005E0720E08180FE109500DD088DF03
:102270000BD084DF09D083DF07D087DF05D084DF70
:1022800003D080DF01D07DDF010E2BD0E66E080E7B
:10229000E66E050EE66E010EE66E27D8F3CF90F0DF
:1022A000F4CF91F012009351146E156A240E086E4B
:1022B000096A93C00DF015C00EF049EC13F006C08A
:1022C000DEFF07C0DDFF12000001100E716F050E6A
:1022D000726F1200D9CFE6FFE1CFD9FF020EE126DF
:1022E0001200E552E7CFD9FF1200E66E30EC09F09C
:0A22F000146E050EE15E145012009A
:0622FA00120100020000C9
:102300000008D8045C00030001020401090229004E
:10231000010100C03209040000020300000009218D
:1023200011010001225A010705810308000A07056F
:10233000010308000A0403090434034D0069006323
:102340000072006F00630068006900700020005494
:10235000006500630068006E006F006C006F00672E
:10236000007900200049006E0063002E002C034D10
:10237000006900630072006F00630068006900700C
:1023800000200055005000530020004500780061F7
:10239000006D0070006C0065000A034C00690020AD
:1023A0000020001A033100320033003400350036BB
:1023B000003700380039004100420043003523391E
:1023C000236D239923A32305840904A1010924A1D2
:1023D00000058485010925150026FF007508950173
:1023E000B103058485100901150026FF00750895C5
:1023F000037902B102851109FE7902B10285120941
:10240000FF7904B1020585851379030989B1028535
:10241000147901098FB10205848515790109FDB18F
:1024200002851679010987B102852009406721D10B
:10243000F0005505751027FFFF0000B1020930B10B
:1024400082853009416701001000550E751027FF85
:10245000FF0000B1020931B18285400902A10209E1
:102460006009610962096509660967096809690502
:102470008509420943094409450948094B09D0091E
:10248000D11500250175019510B183C0A102058405
:1024900009600961096209650966096709680969CE
:1024A000058509420943094409450948094B09D0F2
:1024B00009D115002501750195108182C08550094B
:1024C0002C7508950115002503B102855109837506
:1024D0000895016500550015002564B10285520973
:1024E0006681820966B18285530967B10285540904
:1024F00029B1828555098CB1828556098DB18285B5
:1025000057098EB1828560096875189501660110BA
:102510005500150027FFFFFF00B18209688182C0C6
:03252000C00C23C9
:0C252400040120511F0B010801E012000F
:10253000245101E01200060E215D1EE12351230A01
:102540001BE0010A0EE0030A17E10001610514E136
:1025500000011E0E716F230E726F090E746F756B82
:1025600009D00001C70E716F230E726F5A0E746F7F
:10257000010E756FC00E736F04012051600BE842AD
:10258000E842E842E842E842010801E01200215135
:102590000B0A2AE0080A1DE0090A15E0080A09E00A
:1025A0000B0A05E0080A01E0120027EF0FF015EF13
:1025B0000FF00001A60E716F000E726F010E746FA6
:1025C000756BC10E0FD00001800E736F23C4A6F08F
:1025D00012000001A70E716F000E726F010E746F72
:1025E000756B810E736F12000001800E736F22C431
:0425F000A7F012003E
:0C25F4002A0EF66E100EF76E000EF86E48
:1026000000010900F550A16F0900F550A26F03E128
:10261000A16701D03DD00900F5509C6F0900F5502D
:102620009D6F0900F5509E6F09000900F550E96E95
:102630000900F550EA6E090009000900F5509F6F86
:102640000900F550A06F09000900F6CFA3F0F7CFFD
:10265000A4F0F8CFA5F09CC0F6FF9DC0F7FF9EC088
:10266000F8FF00019F5302E1A05307E00900F55075
:10267000EE6E9F07F8E2A007F9D7A3C0F6FFA4C04B
:10268000F7FFA5C0F8FF0001A107000EA25BBFD7AE
:02269000120036
:0E26920008C012F008500D02F4CF07F0F3CF8D
:1026A00006F009500E02F4CF09F0F3CF08F00D0246
:1026B000F3500726F4500822E86A092212500E024D
:0E26C000F3500726F4500822E86A0922000CA5
:0226CE00FE0EFE
:1026D000E3CFE9FFFF0EE3CFEAFFE9CFF3FFEACF55
:1026E000F4FFFB0EE35003E1FC0EE35009E0FB0EA8
:1026F000E30602E2FC0EE306FD0EE350EE6EF1D7B8
:022700001200C5
:0E270200000EF36E00EE00F0080E01D812007B
:10271000EA6002D0EE6AFCD7F350E9601200EE6A7C
:02272000FCD7E4
:0E27220013EE00F023EE00F0F86A019CFAECD2
:0E27300012F09FEC13F0FEEC0EF0FBD712003F
:02273E00120087
:0E2740000000000001644001000000000000E5
:020000040030CA
:0100000024DB
:010001000EF0
:010002003FBE
:010003001EDE
:010005008179
:010006008178
:010008000FE8
:01000900C036
:01000A000FE6
:01000B00E014
:01000C000FE4
:01000D0040B2
:00000001FF
